:100000000C9454010C948C010C948C010C948C0174
:100010000C948C010C948C010C948C010C948C012C
:100020000C948C010C948C010C94181C0C94EC1CFA
:100030000C9441170C948C010C948C010C948C0141
:100040000C948C010C948C010C948C010C948C01FC
:100050000C948C010C94B9170C948C010C948C01A9
:100060000C948C010C948C010C948C010C948C01DC
:100070000C948C010C948C010C948C010C948C01CC
:100080000C948C010C948C010C948C010C948C01BC
:100090000C948C010C948C010C948C010C948C01AC
:1000A0000C948C010C948C010C948C01167C3A00FD
:1000B0003B003C003D003E003F004000410042004C
:1000C00043004400450068004600470048003500F2
:1000D0001E001F0020002100220023002400250014
:1000E000260027002D002E002A0049004A004B0060
:1000F0002B0014001A000800150017001C0018003F
:100100000C00120013002F00300031004C004D0095
:100110004E00390004001600070009000A000B0019
:100120000D000E000F003300340000002800000016
:1001300000000000E1001D001B0006001900050082
:100140001100100036003700380000000000E50004
:10015000000052000000E000E300E20000000000A8
:1001600000002C00000000000000E600E30000009A
:10017000E400500051004F00100369006200690064
:10018000730020003800300000000C034D006F00A9
:100190006B006500790000000403090409023B00BC
:1001A000020100A0FA090400000103010100092175
:1001B0001101000122440007058103080001090420
:1001C00001000103000000092111010001227B0050
:1001D00007058203200001120100020000000853FD
:1001E00066803301000102000105010902A10185B9
:1001F000020901A100050919012908150025019529
:1002000008750181020501093009311581257F95A5
:10021000027508810609381581257F9501750881C9
:1002200006050C0A38021581257F9501750881069F
:10023000C0C005010980A101850319012AB7001575
:100240000126B700950175108100C0050C0901A1B8
:1002500001850419012AA002150126A00295017545
:10026000108100C005010906A101050719E029E771
:100270001500250195087501810295017508810118
:100280000507190029FF150026FF0095067508814E
:10029000000508190129051500250195057501912D
:1002A00002950175039101C011241FBECFEFDAE062
:1002B000DEBFCDBF04B603FE18C08091C10290918D
:1002C000C202A091C302B091C4028730904BA740F4
:1002D000B04B59F41092C1021092C2021092C302A4
:1002E0001092C402E0E0F8E3099511E0A0E0B1E06B
:1002F000E2E4FFE302C005900D92A23AB107D9F7FC
:1003000022E0A2EAB1E001C01D92A13CB207E1F7F0
:100310000E9428110C94601F0C940000811112C0DF
:10032000663080F4413170F4E42FF0E081E1689FA1
:10033000E00DF11D1124EE0FFF1FE455FF4F8591D5
:100340009491089581E090E008950E948E010895AF
:1003500081E008950E94A80108950E94A8010895CF
:1003600081E008950E94A80108950E94A8010895BF
:100370000E94B5010895089508950E94BB01089553
:1003800008950895A6E0B0E0E8ECF1E00C94BC1EFE
:1003900049835A839E833091A90189819A813111C1
:1003A0001AC03E81332399F0222389F00E949A07D4
:1003B000182F682F89819A810E94760769817A8136
:1003C000812F0E94AC0E2696E3E00C94D81E0E946A
:1003D0008807182FF3CF0E949A0769817A81F1CF9D
:1003E000FC01262F40815181628173818481958136
:1003F0000E94C2010895CF93DF93EC0161E00E9457
:10040000F001BE010E94AA01882359F061E0CE01EB
:100410000E94F001BE010E94AD018170DF91CF9179
:10042000089580E0FACF0F931F93CF93DF93EC01F1
:1004300060E00E94F0018C01BE010E94BC01BE017F
:10044000C8010E94BD01DF91CF911F910F910895C6
:1004500021E030E0A90102C0440F551F8A95E2F760
:10046000CA010E9498060895CF93C82F81E090E0BA
:100470000C2E02C0880F991F0A94E2F70E94D60B37
:100480008C2F0E942802CF91089581E008950E9448
:10049000450208950E9445020895CF93C82F0E94F7
:1004A0004B068C2F0E9447028C2F0E944A022FEF8E
:1004B00084E39CE0215080409040E1F700C00000C0
:1004C000CF91089581E00E944D020E94DD170895AA
:1004D00080E00E944D020E94011808950F931F931F
:1004E000CF93DF938C0161E00E94F001EC01B80131
:1004F0000E94B201811106C080E0DF91CF911F916F
:100500000F910895B801CE010E94B8018823A1F38C
:10051000B801CE010E945215882371F3B801CE01B3
:100520000E948E11882341F3B801CE010E9464110C
:10053000882311F3B801CE010E94B00F8823E1F2A5
:10054000F8018581882361F0C330FCE7DF07E9F01B
:1005500058F4C115ECE7DE07A9F0C130DC47B9F06B
:10056000C8010E94B001C9CFCB358CE7D807A9F0EC
:10057000CC35ECE7DE0771F0CA35DC4789F70E941D
:10058000B10BEECF0E946202B7CF0E94B90B0E945E
:100590006802B2CF0E94A70BE3CF0E94B50BE0CF59
:1005A0000E94C0010E9411170E94F40208950E9447
:1005B000F8020E94C1010E941617089581E0089573
:1005C0000895CF93DF93D82F0E94DE02C82F88238F
:1005D00019F08D2F0E94E0028C2FDF91CF910895AA
:1005E00008950E94E102089580E00E94F1020895BA
:1005F0000E949B150E94F1020895CF930E949B15C3
:10060000C82F8091A4018C1779F0C093A4010E9497
:10061000AD176093A5017093A6018093A7019093F5
:10062000A8018C2F0E94F102CF910895ADE0B0E0B7
:10063000ECE1F3E00C94BD1E488759876A877B87FD
:100640008C879D8791110E94E70A1F8286E0FE0138
:100650003896DE01119601900D928A95E1F78D8111
:1006600081110DC029813A814B815C816D817E8130
:100670008F810E94310A2D96E2E00C94D91ECE01A2
:1006800001960E94FB018111EDCFF5CFFC01248181
:10069000213021F4808191810E94CC070895662346
:1006A00029F00E94EF120E94C21308950E9449137C
:1006B000FACFCF93C82F882399F08CEF8C0F813A13
:1006C00088F48C2F0E942016882329F08C2F0E94FA
:1006D00063160E94560B8C2F0E945B160E94560BCD
:1006E000CF91089580E28C0F883048F4C77081E084
:1006F00001C0880FCA95EAF70E94CA0AEFCFEBE55E
:10070000EC0FE33040F4F0E0E25BFE4F808190E0DC
:100710000E94C115E5CFE8E5EC0FEB3150F4F0E0B5
:10072000EE0FFF1FE85EFE4F808191810E94E6156B
:10073000D7CF83E38C0F833198F661E08C2F0E9432
:100740004F03CECF882381F19CEF980F913A28F484
:100750000E9463160E94560B089590E2980F9830FD
:1007600050F4877091E001C0990F8A95EAF7892FBC
:100770000E94D00AEFCF9BE5980F933028F490E0C9
:1007800080E00E94C115089598E5980F9B3128F4E8
:1007900090E080E00E94E615089593E3980F93316E
:1007A00018F460E00E944F0308951F93CF93DF93E6
:1007B000182FEB010E945903209739F4812F0E94D2
:1007C000A203DF91CF911F9108958FE99FE00197D8
:1007D000F1F700C000002197EFCF70E060E08933AF
:1007E00011F460E570E00E94D5030895882321F09C
:1007F0000E94CA0A0E94560B0895882321F00E9485
:10080000D00A0E94560B0895B0E0A0E0EAE0F4E0C0
:100810000C94B61E6C01D62FC72FFC0115810681E2
:1008200002950F700E94C00AE82E8823F9F0E12E8D
:100830001123E1F08C2F807F803461F080E28D0FF6
:10084000883008F18C2F807E803221F4D230D8F0AD
:100850000023C9F080917F0282FF15C082E00E94D0
:100860007B0B0E94C00A91E0E82EE926BC2EB294D0
:100870009FE0B922FBE0FB15B8F1EB2DF0E0EE595B
:10088000F04E0C94A71EE12CF1CF0C2F0F70C07FFF
:1008900011F00295007F112399F0002359F080E2B6
:1008A0008D0F883010F0D11107C0802F0E94CA0A26
:1008B0000E94560B8D2F48C0802F0E94DA0AF8CF75
:1008C0008D2F0E94A203002379F080E28D0F8830E3
:1008D00010F0D11104C0802F0E94D00A03C0802FD5
:1008E0000E94E00A0E94560BEB2DE850FF0B349754
:1008F00008F06BC10E949B150E94F102CDB7DEB7D4
:10090000E9E00C94D21E2C2F2F70F22EC07FC03243
:1009100019F0F29480EFF822DD2341F0D130C9F1D3
:10092000112309F443C00023E9F0C4CF80917F0272
:1009300082FD14C0112359F0FF2029F08F2D0E9451
:10094000CA0A0E94560B80E00E945903CDCF80E076
:100950000E94A203FF2041F28F2DBECF112369F028
:10096000011104C08F2D0E94F603BECF013009F0A3
:10097000BBCF8F2D0E94FE0AB7CF0111B5CF8F2DAF
:100980000E94FD038F2D0E940A0B8F2D0E94EE0AFC
:10099000ABCF112321F0063008F0A6CFE3CF05300E
:1009A00008F0A2CF8F2D0E94FD039ECF0023D1F32C
:1009B000D93349F43FEF87EE93E0315080409040C7
:1009C000E1F700C000008D2F0E94A2038DCF8C2F75
:1009D00086958695837069F0813009F085CF8D2FDB
:1009E0009C2F9370111102C080E090E00E94E615E8
:1009F0007BCF8D2F9C2F9370111102C080E090E06F
:100A00000E94C11571CF612F8D2F0E944F036CCFB3
:100A10008C2F8370A1F5111167CF4D2F429546950C
:100A20004770440F440F2D2F2F7030E0042E02C06A
:100A3000220F331F0A94E2F790E080E0D4FF09C050
:100A40008FE090E002C0880F991F4A95E2F78095E9
:100A50009095C695C695C370822B932BC23049F0F2
:100A600058F4C13019F00E94A4063ECF0E949B06A4
:100A70003BCF0E94AD0638CF0E94980635CF8695B1
:100A8000112311F08C2F8170882309F42DCF4D2F65
:100A9000429546954770440F440F2D2F2F7030E03C
:100AA000042E02C0220F331F0A94E2F790E080E088
:100AB000D4FF09C08FE090E002C0880F991F4A95CB
:100AC000E2F780959095C695C695C370822B932BBF
:100AD000C23049F058F4C13019F00E940F0704CF1A
:100AE0000E94060701CF0E941807FECE0E94BC0696
:100AF000FBCECF70112329F08C2F0E94D4068D2FAE
:100B000032CF8D2F0E94FD038C2F0E94E406ECCE85
:100B1000D23F41F160F4D03FB9F0D13F81F01123D1
:100B200009F443C00111C6CE8C2F8F711FC0D33F73
:100B300001F1D43FA1F780917F0282FD24C08C2F68
:100B40008F71112311F312C0112341F0053008F009
:100B5000CBCE8C2F8F710E94F606C6CE063008F0E1
:100B6000C3CEF7CF8C2F8F711111CFCF0E94D40637
:100B7000BBCE112329F08C2F8F710E94C806B4CEF2
:100B80000E94C306B1CE112331F063E08C2F8F7128
:100B90000E945D0BA9CE81E00E947B0B023008F41D
:100BA000A3CE82E00E947B0B9FCE002359F0D93365
:100BB00009F009CFEFEFF7EE23E0E150F0402040DD
:100BC000E1F7FFCE8C2F8F71A0CFEE2009F496CEE7
:100BD0000E94BC0A80FD92CEF60115820E94B60AE0
:100BE0000E94D406C6010E9412060E94B60A0E9404
:100BF000E40684CE0F931F93CF93DF93EC016881BB
:100C000079818D810E94D7078C010E9421070E9463
:100C10009706B801CE010E940404DF91CF911F9185
:100C20000F910895CF93DF93EC018C81882399F085
:100C3000CE010E946E02811111C00E94C00A882359
:100C400051F08D81882339F080917F0282FF03C0AB
:100C500082E00E947B0BDF91CF910895CE010E942C
:100C6000FA05CE010E941302F6CF90E080E00E94C8
:100C7000C11590E080E00E94E6150E94E70A0E94FC
:100C8000560B0E94DE130E94C21308950E946B1639
:100C90000E94350608950E94D70A0E9446060895CC
:100CA00092959F70963091F058F4925F9F709230B9
:100CB00058F4803F19F030F4883E30F481E0089514
:100CC0009A5FF4CF843FD1F380E00895883EB0F37B
:100CD000813FD1F7F3CFFC012481222339F08081B9
:100CE00091810E94CC070E945006089580E00895EB
:100CF000A6E0B0E0EEE7F6E00C94BD1E2696E2E03A
:100D00000C94D91EA7E0B0E0E8E8F6E00C94BD1E14
:100D10002796E2E00C94D91E08950E948C0608954F
:100D20000E948D069093E1018093E001089508955B
:100D30000E94900608952091E0013091E101822BFC
:100D4000932B0E94900608952091E0013091E101DB
:100D5000822393230E94900608952091E001309110
:100D6000E101822793270E94900608950E948C0635
:100D700008950E94B60608950E94B9069093DF0177
:100D80008093DE01089590E080E00E94BC06089503
:100D900021E030E0A90102C0440F551F8A95E2F717
:100DA000CA010E94BC06089521E030E002C0220F73
:100DB000331F8A95E2F78091DE019091DF01822B4B
:100DC000932B0E94BC06089521E030E002C0220F60
:100DD000331F8A95E2F7209530958091DE0190913E
:100DE000DF01822393230E94BC06089521E030E0B6
:100DF00002C0220F331F8A95E2F78091DE019091A5
:100E0000DF01822793270E94BC0608952091DE010E
:100E10003091DF01822B932B0E94BC060895209114
:100E2000DE013091DF01822393230E94BC060895E6
:100E30002091DE013091DF01822793270E94BC06BA
:100E400008950895262F277091E001C0990F2A95E3
:100E5000EAF723E0769567952A95E1F7660F771F05
:100E6000660F771FFA01E60FF71F50E040E0682F8A
:100E700070E08191DF0111979B01042E02C036952D
:100E800027950A94E2F721702195282729232827FE
:100E90002C934F5F5F4F4430510559F70895A82FA9
:100EA000A77023E0969587952A95E1F7880F991FFB
:100EB000880F991FFB01E80FF91F50E040E080E028
:100EC000219130E00A2E02C0369527950A94E2F768
:100ED00021703327042E01C0220F0A94EAF7822BD7
:100EE0004F5F5F4F4430510559F70895262F9630D4
:100EF00070F4813160F4682F70E081E1989F600D9B
:100F0000711D11244AEA51E0822F0E9422070895A0
:100F1000292F963068F4813158F490E06AEA71E044
:100F200031E1239F800D911D11240E944F070895E8
:100F300080E00895B0E0A0E0E0EAF7E00C94B61E8F
:100F40007C010091DE011091DF018091E001909120
:100F5000E101082B192BCFE0D0E0CC24C394D12C95
:100F6000BC2EC6010C2E02C0880F991F0A94E2F70E
:100F700080239123892B49F4219790F7B12C8B2D55
:100F8000CDB7DEB7E9E00C94D21EB7018C2F0E94DA
:100F9000B80E019789F3F3CFCF93DF93EC010E9452
:100FA0009A07BE010E94B80EDF91CF9108951F935A
:100FB000CF93DF93EB019091A901992339F0CB01F5
:100FC0000E94CC07DF91CF911F910895882369F08B
:100FD000CB010E949A07182F682FCE010E94760736
:100FE000BE01812F0E94B80EEDCFCB010E94880771
:100FF000182FF6CF1F93CF93DF93C091E20117E034
:101000008091E3018C1304C0DF91CF911F9108956B
:10101000D0E01C9FF0011D9FF00D1124EC51FE4FFC
:1010200020813181428153816481758186810E9452
:1010300082062196C770E4CF20911C0230911D02D8
:1010400040911E0250911F02609120027091210276
:10105000809122020E9482060895CF93DF938091AF
:101060002202807F09F04DC080912102882309F47B
:1010700048C0E091E2015091E301C0911D02D0917E
:101080001C0260911E0270911F0247E05E17C9F1B9
:101090008E2F90E0E49FF0011124EC51FE4F24814B
:1010A000222391F1489FF001499FF00D1124DF01A7
:1010B000AC51BE4F11962C9111972C1325C02C9139
:1010C0002D1322C015962C91159721111DC0129633
:1010D0002D913C91261B370B283C3105A8F48091BB
:1010E00022028F70806180932202E651FE4F808140
:1010F0008F70806180838CE192E00E9412060E94D2
:10110000FA07DF91CF910895FC013196E770BECFC9
:10111000482F2091E2019091E30157E0291302C08A
:1011200080E0089530E0529FF001539FF00D1124AC
:10113000EC51FE4F8181681306C08081481303C0C3
:1011400085818111EECF2F5F3F4F2770E7CFA4E15C
:10115000B0E0EDEAF8E00C94B31E8C0186E0F801F3
:10116000DE011F9601900D928A95E1F7F8018481C6
:10117000E5809CE1A92E92E0B92E90912002911178
:101180001FC08823D1F0EE20A9F0C8010E946B0691
:10119000F82E882379F087E0F801D50101900D92AF
:1011A0008A95E1F7C5010E9446030E942D080E941E
:1011B0001C085FC0C8010E941206FF24F39459C0A6
:1011C000C080D18082809380F090210220911E0205
:1011D00030911F02A401421B530BFF2009F4F9C0F8
:1011E000483C510508F0A7C0882309F442C09091FB
:1011F0001D0280912202282F207F09F05CC09D11E2
:1012000016C090911C02C91212C0E1104EC08F701E
:101210008061809322020E941C088CE192E00E946F
:10122000120680912202F8018683F12C22C0E1107F
:101230003CC06D2D8C2D0E9488086D2D8C2D0E9438
:101240008808E82E8111F1CFCF86D88A8F859889BA
:101250000E94CC07292F22952F70243078F49F709C
:101260002230A8F09923B9F0F8019681907F99F483
:10127000FE2C8F2D6496ECE00C94CF1E2A5F2F700D
:10128000223068F0C8010E941206EF2CF1CF99239A
:1012900011F0882369F3805E883050F3F3CF803FEC
:1012A00038F3815F833070F7E3CF80912202816051
:1012B00080932202BACF9D1113C090911C02C912D3
:1012C0000FC0E1100DC08683C8010E94120687E09E
:1012D000F801ACE1B2E001900D928A95E1F767CF99
:1012E000C8010E946B06882309F464CFEE2009F43C
:1012F00061CF80912202803288F020911C023091CF
:101300001D02398728879B868A86909120029C87B8
:101310001D868E87CE0108960E94120687E0F8018E
:10132000ACE1B2E001900D928A95E1F70E942D08A0
:101330000E941C0842CF90912202292F207FA1F405
:10134000682D9A8A898AA6017A899E2D0E9478063C
:101350008CE192E00E94120687E0F50111928A95D5
:10136000E9F70E941C0861CF882309F482CF80919D
:101370001D028D1110C080911C02C8120CC0E1101A
:101380000AC09683C8010E94120687E0F5011192F7
:101390008A95E9F76ECFC8010E946B06882309F48D
:1013A00009CFEE2009F406CF80912202803208F4A2
:1013B000B5CF20911C0230911D023A8329839C8273
:1013C0008B82909120029D831E828F83CE01019695
:1013D000A3CF483C5105B8F5882309F4EECEFE2C86
:1013E000EE2009F4E7CE80911D028D111EC0809180
:1013F0001C02C8121AC08091220280FD0DC0982FD5
:10140000907F51F08683903F09F45ECF982F907FB4
:10141000905F8F70892B57CF87E0F801ACE1B2E085
:1014200001900D928A95E1F724CFC8010E946B06C6
:10143000811174CF80912202816080932202C801C1
:101440000E94120616CF682D9A8A898AA6017A8987
:101450009E2D0E94780687E0F50111928A95E9F7A2
:10146000A6CEAEE0B0E0E7E3FAE00C94BC1E28871D
:1014700039874A875B876C877D878E87CE01089680
:101480000E94A7088823B1F06C85662341F0288567
:1014900039854A855B857D858E850E94820617E0A9
:1014A0008091E2019091E30189133DC02E96E3E023
:1014B0000C94D81E87E0FE013896DE01119601904B
:1014C0000D928A95E1F78C85882349F32091E301F9
:1014D00030E0C9010196877099274091E2014817D1
:1014E000190699F097E0929FD001939FB00D1124B7
:1014F000AC51BE4FFE01319601900D929A95E1F7E5
:101500008093E3010E94FA07CACF0E944B06109213
:10151000E3011092E20187E0ECE1F2E0DF011D92CD
:101520008A95E9F7BCCF819FC00111248C519E4F51
:101530000E94A708882309F4B9CFE091E2011E9F19
:10154000F0011124EC51FE4F208131814281538101
:101550006481758186810E9482068091E20190E01B
:101560000196877099278093E2019ACF80912B0290
:10157000869586958695089580912B0287700895AB
:1015800090912B02977081E009F480E0089580919A
:101590003702089590913702892B8093370208957E
:1015A0008095909137029823909337020895109276
:1015B0003702089590913602892B80933602089560
:1015C0008095909136029823909336020895109258
:1015D0003602089508950E94EA0A089590912C0217
:1015E000292F282331F08095892380932C020E9493
:1015F000EB0A089508950E94FA0A089590912D0229
:10160000292F2823281729F0982B90932D020E9428
:10161000FB0A089590912D02292F282331F08095FF
:10162000892380932D020E94FB0A089580912D0248
:10163000882329F010922D0280E00E94FB0A089571
:101640000F931F93CF93DF9300910001109101013D
:10165000C091370280913602C82B80912D028823D9
:1016600031F0C82B0E940B1681110E94160BF80155
:10167000C083C0910001D091010148E050E063E2D5
:1016800072E0CE010E94F81E892B59F088E0FE011D
:10169000A3E2B2E001900D928A95E1F7CE010E949B
:1016A000A815DF91CF911F910F9108950E94200BF3
:1016B000089508950E94590B089590917F0292FF1A
:1016C00011C098E0899F90011124622B60932B0236
:1016D0000E94D40680912B028695869586950E945D
:1016E0005A0B08950E94D406089510922B0280E0B0
:1016F0000E945A0B089590912B0280958923809324
:101700002B02282F277069F4891759F090917F02D6
:1017100092FF07C08695869586950E94E4060E94F2
:10172000750B089590917F0292FB222720F92817CC
:1017300069F080FB92F990937F0280917E029091F4
:101740007F020E94E10B82E00E947B0B0895809152
:101750007F0282FB882780F991E089270E94920B03
:10176000089581E00E94920B089580E00E94920B00
:1017700008956FEF7FEF90E080E00E944A1F089588
:1017800090E080E00E94161F21E0853E9E4F09F008
:1017900020E0822F089582E090E00E940E1F0895BD
:1017A00083E090E00E940E1F90E00895682F83E090
:1017B00090E00E942C1F089584E090E00E94161F84
:1017C0000895BC0184E090E00E944A1F0895AB0197
:1017D000BC018FE090E00E943E1F0895AB01BC0168
:1017E00083E190E00E943E1F089560E070E0CB012D
:1017F0000E94EE0B089560E070E0CB010E94E70BC1
:101800000E94F50B0895A8E0B0E0E9E0FCE00C943C
:10181000BD1E65EE7EEF90E080E00E944A1F60E012
:1018200082E090E00E942C1F81E090E09093E10123
:101830008093E0010E94D60B60E074E184E090E0C8
:101840000E944A1F60E086E090E00E942C1F60E04A
:1018500087E090E00E942C1F40E050E0BA0188E051
:1018600090E00E943E1F60E083E290E00E942C1F07
:1018700060E08CE090E00E942C1F60E08DE090E042
:101880000E942C1F19821A821B821C821D821E82BA
:101890001F82188648E050E067E170E0CE010196B3
:1018A0000E941C1F40E050E0BA018FE190E00E94CE
:1018B0003E1F0E94FB0B2896E2E00C94D91E0E946A
:1018C000030C0895682F8EE090E00E942C1F08956D
:1018D000A6E0B0E0EEE6FCE00C94BB1E0E94A1176F
:1018E0008C0180913802909139028017910781F024
:1018F00019821A820E94A117682F49815A81792F73
:1019000080E090E00E9416031093390200933802A1
:101910002696E4E00C94D71E0E94AD176093560201
:101920007093570280935802909359026093520229
:101930007093530280935402909355020895089532
:1019400008950E949F0C089508950E94A40C0E947F
:10195000A10C089508950E94AA0C089508950E946C
:10196000AE0C0E94AB0C08958EEA9FE00E943D11E0
:101970000E94A00C0E94A50C089581E008950E9489
:10198000BD0C08950E94BD0C089508950895089512
:101990000E94C50C0E94C60C0E94C70C08950E94AC
:1019A000C00B811102C00E945F0C0E94CB0B809380
:1019B0005A020E94DC0B90937F0280937E020E9469
:1019C00061110E94D00B0E9498068091DE019091D7
:1019D000DF010E94B90608950E9498170E9497108F
:1019E0000E94CF0C0E94F0020E94AF0C0895A8E064
:1019F000B0E0EDEFFCE00C94AD1E0E94BF0C811135
:101A00000AC00E94680C0E9400140E94FD022896E1
:101A1000E2E10C94C91E0E94AD108AE392E098871F
:101A20008F837C0110E0F70141905190619071909B
:101A30007F01812F0E94CA0F1F5F163009F467C013
:101A4000461657066806790671F380915A0281FDA1
:101A50000E94D50F0E94C20C282E10E0332433942C
:101A6000812F0E94CA0F6B017C01EF81F8854190A4
:101A7000519061907190F887EF83C414D504E60407
:101A8000F704F1F100E0812C912C540183944C2453
:101A90005D246E247F24D301C20188219921AA21CB
:101AA000BB21892B8A2B8B2BE9F02220D9F00983CB
:101AB0001A830E94A1179C838B833D8221E0D7016A
:101AC000C60188219921AA21BB21892B8A2B8B2B26
:101AD00009F420E049815A816B817C818D81922FAC
:101AE0000E9416030F5F880C991CAA1CBB1C0131B5
:101AF00091F6EF81F8853497C082D182E282F38239
:101B00001F5F163009F0ACCF0E948C0C7CCF4616BC
:101B100057066806790609F098CF73CF1F93CF93C5
:101B2000DF930E94BD0EEC01C11580E5D807F0F5EA
:101B3000C11580E4D80708F09CC0C03ED10520F54F
:101B4000CD3CD10508F082C0C83AD10578F4C53A39
:101B5000D10508F073C0C130D10519F1209709F102
:101B6000C430D105F0F4D0E0C0E01BC0C33CD105C7
:101B7000D0F7C85AD0E0CC0FDD1FCF5ADE4F099006
:101B8000D881C02DD4640DC0C11580E2D80708F0FB
:101B9000D1C0C11581E0D80708F05AC0C83ED105B0
:101BA00010F7CE01DF91CF911F910895C03682E5E5
:101BB000D80718F5C03482E5D80708F06BC0C032EA
:101BC00082E5D80708F05FC0C11582E5D80708F4A0
:101BD00097C02C2F2695269580E2289F90011124EE
:101BE0008C2F8370C1E0D0E002C0CC0FDD1F8A953E
:101BF000E2F7C22BD32BDD68D4CFC03A82E5D807F9
:101C000060F4C03882E5D80708F459C0CF71D0E03D
:101C1000DC2FCC27C46FD06AC4CFC03C82E5D80784
:101C200008F462C0C03E82E5D80708F09CCFDC2FE4
:101C3000CC27CC27DF71C06FD06AB3CFC55AD0E0B4
:101C4000C957DE4FC881D0E0D064ABCFD065A9CFF3
:101C50008D2F0E945F0F182FCE0199270E94BD0E75
:101C6000C12FD0E0DC2FCC27CC27DF71C82BD92B9C
:101C700098CFCE0199270E94BD0ECC27DF70C82BCC
:101C8000D92BD06A8ECFCF71D0E0DC2FCC27C16F9B
:101C9000D06A87CF2C2F26952695277080E2289F23
:101CA000900111248C2F8370C1E0D0E002C0CC0FD2
:101CB000DD1F8A95E2F7C22BD32BDC6872CF2C2F65
:101CC00026952695277080E2289F900111248C2F5D
:101CD0008370C1E0D0E002C0CC0FDD1F8A95E2F72F
:101CE000C22BD32BDA685DCF8C2F8F710E945F0FD0
:101CF000C82FD0E0DC2FCC27CC27DF71D06251CFAA
:101D00008C2F8F710E945F0F55E0D695C7955A951D
:101D1000E1F7CF70D0E0DC2FCC27282F30E084FF14
:101D200005C044E0220F331F4A95E1F7C22BD32BA5
:101D3000D06937CF8D2F8F710E945F0F182FCE0182
:101D400099270E94BD0EC12FD0E0DC2FCC27CC27D5
:101D5000DF71C82BD92BD2CF462F763030F46131CA
:101D600020F4672F0E94A501089590E080E0089577
:101D70000E94AC0E0E948E0D089582389105B9F133
:101D8000B0F48133910509F47DC048F4893291059E
:101D900009F46DC08A32910509F47BC0089585333A
:101DA000910509F45FC08933910509F10895833ED7
:101DB0009105D9F138F4803E910529F1823E9105D3
:101DC00079F10895863E9105D9F1873E910509F490
:101DD0003EC0843E910541F520917F0221FF24C041
:101DE00080917E0284FD19C087EE90E008952091D5
:101DF0007E02237009F05AC020917F0223FF14C095
:101E000089E290E0089520917E0220FD38C0309153
:101E10007F0230FF09C024FF43C090E080E00895B6
:101E200020917E0222FDF7CF089520917E0222FDAF
:101E30003AC030917F0230FD39C024FFF5CFEDCF9D
:101E400020917E0223FFF0CF24FDE7CFCDCF20915C
:101E50007E0223FD2EC030917F0231FFEECF84EE53
:101E600090E0089520917E0225FFDECFC9CF20911A
:101E70007E0225FD21C020917F0223FFD5CF89E37B
:101E800090E0D2CF20917E0226FFCECF8AE290E072
:101E9000089520917E0226FFC7CF81E390E0089548
:101EA00083EE90E0089582EE90E0089580EE90E059
:101EB000089586EE90E0089585E390E0089590916E
:101EC0007E0292FF10C041E0282F2471243009F0D7
:101ED00040E031E0282F2871283009F030E0431726
:101EE00011F02CE0822793FF10C041E0282F2471CD
:101EF000243109F040E031E0282F2871283109F021
:101F000030E0431711F02CE0822730917F0230FF40
:101F100010C051E0282F2171213009F050E041E03C
:101F2000282F2871283009F040E0541711F029E0DB
:101F3000822731FF10C041E0282F2171213109F0A3
:101F400040E031E0282F2871283109F030E04317B4
:101F500011F029E0822794FD877E089580E008959E
:101F6000CF939C01205E3245C1E02032310538F428
:101F7000FB01C581C11103C08F710E9434028C2FF7
:101F8000CF91089508950E94C20F089508950E9468
:101F9000C60F089594E0899FF0011124E856FD4F83
:101FA00060817181828193810895089580EA8A9584
:101FB000F1F7089500C008950E94D60F0895F8948F
:101FC000E82FE295EF70F0E031A1282F2F7081E02B
:101FD00090E001C0880F2A95EAF7982F90959323F7
:101FE00091A392A1892B82A3789408950F931F93B4
:101FF000CF93DF93CBE9D1E089918F3F11F00E941D
:10200000DF0F81E0C13AD807B9F7CAE8D1E00BE9A0
:1020100011E089918F3F11F00E94DF0F0C171D070F
:10202000C1F7DF91CF911F910F9108958F929F92E9
:10203000AF92BF92DF92EF92FF920F931F93CF93D5
:10204000DF938C01D62EC62FD0E0CE0185569E4F51
:102050007C01FC0120812F3F09F45DC0F894E22F40
:10206000E295EF70F0E031A12F7081E090E001C0C7
:10207000880F2A95EAF7932F982B91A392A1809528
:10208000892382A378940E94DA0FEAE8F1E041E024
:1020900050E060E070E0812C912C540181918F3FE1
:1020A00089F0A82FA295AF70B0E090962C9130E007
:1020B0008F7002C0359527958A95E2F7DB01CA013A
:1020C00020FF03C080E090E0DC01882A992AAA2A38
:1020D000BB2A440F551F661F771F81E0EB39F807B5
:1020E000E9F6F70180818F3F11F00E94DF0F61E078
:1020F00081149104A104B10409F460E08D2D0E94C3
:10210000DC0FCC0FDD1FCC0FDD1FC00FD11F88826D
:102110009982AA82BB82DF91CF911F910F91FF908C
:10212000EF90DF90BF90AF909F908F9008950E94A6
:10213000F60F88E1E8E9F2E0DF01982F1D929A9509
:10214000E9F7E0E8F2E0DF011D928A95E9F786E021
:102150000E94E8100E94C30F0895A8E1B0E0E3EBED
:10216000F0E10C94BA1E8E010F5F1F4F88E1F80159
:1021700011928A95E9F7F12C6F2DC8010E94161073
:10218000F394F6E0FF12F8CF48E150E0B80180E8A0
:1021900092E00E94F81E21E0009709F420E0892BCC
:1021A00041F088E1F801A0E8B2E001900D928A9533
:1021B000E1F746E068E972E080E892E00E94E91009
:1021C000182F0E94C70F812F6896E5E00C94D61E49
:1021D0000895B0E0A0E0EFEEF0E10C94B71E6C01C2
:1021E0007B01042FC22F222379F081E080935D02CE
:1021F0000E94A11790935C0280935B0280E0CDB7B0
:10220000DEB7E8E00C94D31ED0915D02DD23B1F37C
:1022100080915B0290915C020E943017059770F3E9
:1022200084E0089F80011124A801B601C7010E9423
:10223000F81E892B31F0A801B601C7010E94051FC5
:10224000CD2F10925D028C2FDACF0E94F70C0895EB
:102250000E943A170E944F190E94B40C0E946919FB
:102260000E94EC0C0E9476190E947B190E94251195
:102270000E9495190E94C80CF7CF9093A3018093F8
:10228000A20108950E94B90B089580E00E94CA0F30
:10229000862F817008950E94AD102FEF86E791E0A0
:1022A000215080409040E1F700C000000E94AD1036
:1022B0000E944511882321F00E9442110E94DD17DF
:1022C00008950E944B110895CF93DF93EB0186315F
:1022D0009C4711F50E94C70A9D81992399F08A7A3B
:1022E00091E009F490E090935E02811109C089E2C7
:1022F0000E945B160E94560B80E0DF91CF910895FB
:1023000085E3F6CF80915E02811104C089E20E94CC
:102310006316F0CF85E3FBCF81E0EFCFCF93DF9360
:10232000EC01FB018581882309F4D2C09E0130575E
:102330002332310508F0B2C00E94DC0B90937F027B
:1023400080937E02FE01E150F047E232F10520F475
:10235000E259F04E0C94A71E80917E02816080931A
:102360007E0293C080917F02886080937F028DC03F
:1023700080917E028260F3CF80917E028460EFCFF5
:1023800080917E028860EBCF80917F028160EDCFEB
:1023900080917F028260E9CF80917E028061DFCFF1
:1023A00080917E028062DBCF80917E028064D7CFF5
:1023B0000E944B0680917E028068D1CF80917E0280
:1023C0008C60CDCF80917F028360CFCF80917E02E1
:1023D0008E7FC5CF80917F02877FC7CF80917E029D
:1023E0008D7FBDCF80917E028B7FB9CF80917E02A1
:1023F000877FB5CF80917F028E7FB7CF80917F029C
:102400008D7FB3CF80917E028F7EA9CF80917E0297
:102410008F7DA5CF80917E028F7BA1CF0E944B063E
:1024200080917E028F779BCF80917E02837F97CFB2
:1024300080917F028C7F99CF80917E0282FB9927C9
:1024400090F921E0922790FB82F990FB83F987CFE6
:1024500080917F02982F909591708E7F892B90FBB1
:1024600081F983CF90917E02892F8F7B96FF8064C4
:1024700076CF0E944B0690917E02892F97FB87F9B9
:1024800080586DCF81E00E94620C80917E02909115
:102490007F020E94E10B0E944B0680E0DF91CF910A
:1024A000089580E0F0CF90917E02892F8F7E94FF77
:1024B000806155CF90917E02892F8E7F90FF816041
:1024C0004ECF90917F02892F877F93FF88604DCFF9
:1024D00081E0E4CF282F35EB2303C001112497FFBF
:1024E00004C080589109892F089580589F4FFBCFD1
:1024F0008091650280FF0DC06091070170E0660F5A
:10250000771F6038710570F56115710569F1862FC7
:10251000089581FF07C06091070184E0689FB001C2
:102520001124EFCF6091070182FD0AC080916402FF
:102530008823A9F02091060160910701821710F00D
:1025400088E0ECCF869FC001112433E0880F991FEB
:102550003A95E1F7622F70E00E94931ED2CF68E0B7
:1025600070E0D5CF8FE7089581E0089580916502EE
:1025700080FF0CC06091030170E0759567957595BB
:1025800067956115710549F1862F089581FF06C091
:102590006091030170E075956795F3CF6091030139
:1025A00082FD0BC0909163029923A1F0609102011A
:1025B00080910301961738F0682F70E0603871053C
:1025C00000F38FE70895899FC001112470E00E94F5
:1025D000931EF4CF61E070E0D7CF81E008958D3C89
:1025E00031F40E94781281958093690208958E3C9F
:1025F00019F40E947812F8CF8F3C31F40E947812BF
:102600008195809368020895803D19F40E947812A4
:10261000F8CF893D29F40E94B61280936A0208958A
:102620008A3D21F40E94B6128195F7CF8B3D31F49B
:102630000E94B612819580936B0208958C3D19F427
:102640000E94B612F8CF9FE2980F983070F4815D27
:10265000990B21E030E001C0220F8A95EAF78091C2
:102660006702822B8093670208958D3D31F480913B
:10267000650281608093650208958E3D21F480910A
:1026800065028260F7CF8F3DB9F780916502846063
:10269000F1CF409168028D3C59F48091690287FF27
:1026A0000DC01092690241110BC01092640208C063
:1026B0008E3C81F48091690218169CF3442381F0CA
:1026C00080916A0290916B02892B09F05AC0109296
:1026D000630208958F3C49F447FFF0CF10926802DF
:1026E000809169028111ECCFE0CF803D19F414167E
:1026F000ACF3E4CF90916A02893D29F41916F4F6FF
:1027000010926A02DBCF8A3D19F497FFD7CFF8CF3A
:1027100090916B028B3D29F497FFD0CF10926B0202
:10272000CDCF8C3D19F41916CCF3C8CF9FE2980F8A
:10273000983090F4815D990B21E030E0B90102C03E
:10274000660F771F8A95E2F7CB018095909167021B
:10275000892380936702B2CF8D3D31F48091650269
:102760008E7F80936502AACF8E3D21F48091650211
:102770008D7FF7CF8F3D09F0A1CF809165028B7FD0
:10278000F0CF08950E94A1179C019091680280915A
:102790006902982B21F0309362022093610290919C
:1027A0006A0280916B02982B21F030936002209393
:1027B0005F0286E692E00E94B315089586E0E6E6A1
:1027C000F2E0DF011D928A95E9F7109264021092FF
:1027D0006302109265020895FC01828181110EC08E
:1027E000838181110BC08481811108C091E08581B2
:1027F000811101C090E0892F8170089581E0FCCFA4
:10280000A6E0B0E0E6E0F4E10C94BC1E86E0E6E66B
:10281000F2E0DE01119601900D928A95E1F7109297
:1028200068021092690210926A0210926B028B8108
:102830009C81892B89F080916102909162020E94B3
:102840003017AC01909164029923C9F1809108017D
:102850008417150608F440C08D819E81892B91F064
:1028600080915F02909160020E943017AC019091BC
:102870006302992309F46AC0809104018417150644
:1028800008F472C0BE016F5F7F4F86E692E00E943F
:102890007616811105C086E692E00E94EC13811144
:1028A0000E94C21386E0FE013196A6E6B2E00190D6
:1028B0000D928A95E1F72696E3E00C94D81E2091BC
:1028C00009018AE0289F900111242417350720F67A
:1028D0009F5F9093640202C09F3FD1F71B81112339
:1028E00059F00E9478129FEF11160CF491E0899F25
:1028F000802D1124809368021C81112359F00E94BD
:1029000078129FEF11160CF491E0899F802D11240D
:102910008093690280916802882309F49DCF109109
:102920006902112309F498CF0E946A12882351F09A
:1029300080936802812F0E946A12882329F0809375
:1029400069028ACF81E0F4CF81E0F9CF20910501BF
:102950008AE0289F900111242417350708F092CFB0
:102960009F5F9093630202C09F3FD1F71D811123A7
:1029700059F00E94B6129FEF11160CF491E0899F56
:10298000802D112480936A021E81112359F00E9428
:10299000B6129FEF11160CF491E0899F802D11243F
:1029A00080936B0280916A02882309F46BCF1091A7
:1029B0006B02112309F466CF0E946A12882351F03A
:1029C00080936A02812F0E946A12882329F08093E3
:1029D0006B0258CF81E0F4CF81E0F9CF0F931F93C2
:1029E000CF93DF93C42FD22FFC0185818823C9F0B8
:1029F00040936E020E94A11790936D0280936C0227
:102A000080E28C0F883040F4C77081E001C0880FED
:102A1000CA95EAF70E94F603DF91CF911F910F91BB
:102A2000089510916E02141332C080916C0290913F
:102A30006D020E943017883C910548F5C0E2CD0F29
:102A40001D17B9F080E2810F883040F4177081E0E3
:102A500001C0880F1A95EAF70E94FD03C83048F4B8
:102A600081E09D2F977001C0880F9A95EAF70E9428
:102A7000F603802F0E94ED03C83070F6D77081E016
:102A800001C0880FDA95EAF70E94FD03C5CF80E206
:102A90008C0F883008F6C77081E001C0880FCA9596
:102AA000EAF7F2CF0F93DB0188519C4787309105FD
:102AB000A0F5FC01E057F04E0C94A71E06E221EEB3
:102AC00041EE6AE17CE7CD010E94EE1480E00F91B7
:102AD000089507E225EE45EE6BE17CE7F4CF06E2D0
:102AE00021EE40EE68E17CE7EECF07E225EE44EE12
:102AF00069E17CE7E8CF06E221EE42EE6CE17CE79B
:102B0000E2CF07E225EE46EE6DE17CE7DCCF08E29E
:102B100021E045EE6EE17CE7D6CF15968C918823B7
:102B200019F010926E02D3CF81E0D1CF909374024E
:102B3000809373020895E0917302F09174023097CC
:102B400029F00190F081E02D0995089580E0089525
:102B5000E0917302F0917402309721F00280F381CA
:102B6000E02D09950895E0917302F0917402309779
:102B700039F022E0DC012C930680F781E02D0995E5
:102B80000895A3E0B0E0E7ECF5E10C94BD1E2091C0
:102B900071023091720228173907A1F090937202E6
:102BA00080937102E0917302F0917402309751F0BA
:102BB00023E029839B838A830084F185E02DCE0165
:102BC000019609952396E2E00C94D91EA3E0B0E0AB
:102BD000ECEEF5E10C94BD1E20916F023091700275
:102BE00028173907A1F09093700280936F02E0914B
:102BF0007302F0917402309751F024E029839B8393
:102C00008A830084F185E02DCE01019609952396F3
:102C1000E2E00C94D91E40910001509101019A010B
:102C20002E5F3F4F485F5F4F80E02417350709F460
:102C30000895F90191919F019923B9F38F5FF5CF21
:102C4000882371F02091000130910101F901329641
:102C5000285F3F4F9191981729F0E217F307D1F7BA
:102C600080E0089581E008959C01FC0132969FEF79
:102C700080E04191461751F09F3F19F4411101C086
:102C8000982F8F5F8630A9F79F3F09F40895290F89
:102C9000311D97FD3A95F90162830895FC01329642
:102CA00008962191261303C0DF0111971C92E817A3
:102CB000F907B9F70895682F8091000190910101FB
:102CC0000E9434160895682F8091000190910101AF
:102CD0000E944E160895E0910001F0910101329694
:102CE00086E0DF011D928A95E9F70895DC01FB017A
:102CF00011969C9111978181981322C012968C9104
:102D00001297882319F0928189131AC013968C9117
:102D10001397882319F09381891312C015968C910B
:102D20001597882319F0958189130AC014969C91F0
:102D3000992321F081E02481291303C080E001C0A0
:102D400081E08170089508950E94A316089581116D
:102D50000EC081E080930D0160910A0170910B011A
:102D600080910C0190910D010E94A416089582E0BB
:102D7000F1CF83E080930D0160910A0170910B0106
:102D800080910C0190910D010E94A41608950E945B
:102D9000A716089581E080930D0160910A0170915A
:102DA0000B0180910C0190910D010E94A4160895D1
:102DB0000E94CA16089591E0811101C090E090939D
:102DC0000C0160910A0170910B0180910C019091AE
:102DD0000D010E94A416089580910C01089580931E
:102DE0000B0160910A0170910B0180910C0190918F
:102DF0000D010E94A416089580910B0108958093FF
:102E00000A0160910A0170910B0180910C0190916F
:102E10000D010E94A416089580910A010895089555
:102E200008950E9410170895089508950E940F179D
:102E30000895CF930E9414170E94AD100E94151799
:102E4000C0E08C2F0E94CA0F672B682B692B31F4CE
:102E5000CF5FC630B1F780E0CF91089581E0FCCF1D
:102E6000CF93DF93EC010E94A1178C1B9D0BDF9188
:102E7000CF91089585B7806885BF85B7806885BF85
:102E800008951F921FB61F9211248F939F93AF93A3
:102E9000BF9380917502811113C08091B00290910F
:102EA000B102A091B202B091B3024196A11DB11D31
:102EB0008093B0029093B102A093B202B093B30298
:102EC000BF91AF919F918F911F901FBE1F9018953A
:102ED0008091B802843031F10E94D00210927502C4
:102EE00088E190E020E40FB6F894A8958093600004
:102EF0000FBE2093600083B7817F846083BF83B758
:102F0000816083BF7894889583B78E7F83BF0FB627
:102F1000F894A89580916000886180936000109279
:102F200060000FBE08950E944B060E94D7020895CC
:102F300082E084BD93E095BD9AEF97BD80936E00CB
:102F400008952FB7F8948091B0029091B102A091AA
:102F5000B202B091B3022FBF08952FB7F8946091D9
:102F6000B0027091B1028091B2029091B3022FBF72
:102F7000089578941F921FB61F9211248F939F93E8
:102F8000AF93BF938091B0029091B102A091B20231
:102F9000B091B3020196A11DB11D8093B002909330
:102FA000B102A093B202B093B302BF91AF919F91CF
:102FB0008F911F901FBE1F90189581E08093E000B5
:102FC00080E28093D8001092C9008FE19EE40197BF
:102FD000F1F700C0000087E090EBDC018093C102B4
:102FE0009093C202A093C302B093C40288E19CE014
:102FF0000FB6F894A895809360000FBE9093600080
:10300000FFCF88E19CE00FB6F894A895809360000C
:103010000FBE90936000FFCF08959B01BA0190917D
:10302000B8029430E9F48F708093E9009FEF8091AB
:10303000E800915085FD06C085ED8A95F1F7000006
:103040009111F5CF8091E80085FF0AC050E040E083
:10305000C9010E940C1A8091E8008E778093E800E5
:10306000089543E050E0BC0182E00E940D180895ED
:1030700046E050E0BC0182E00E940D180895CF9315
:10308000DF93EC010E94EC1648E050E0BE0181E0C5
:103090000E940D1888E0FE01A6E7B2E001900D92B3
:1030A0008A95E1F7DF91CF9108958091B702811160
:1030B00009C00E949C1B0E94F91B8091E200846061
:1030C0008093E20008951092B70208950E94CA16F4
:1030D00081E00E94DB1608956091B40281E06111E5
:1030E00001C080E00E94B91608959091B80281E075
:1030F000943009F080E06091B4020E94C7160895F0
:1031000042E061EC81E00E94181B42E261EC82E047
:103110000E94181B9091B80281E0943009F080E081
:103120006091B4020E94A71608958091BA0283307C
:1031300009F461C030F48130D1F1823009F49EC0CD
:1031400008958A3009F48AC08B3009F46FC0893041
:1031500009F050C08091B902813209F04BC08091D2
:10316000BD029091BE02029708F044C08091E80031
:10317000877F8093E8008091E80082FF37C09091BC
:10318000F3008091F200029731F48091F1008130D8
:1031900011F0863021F48091F1000E94EF168091A9
:1031A000E8008B778093E8000E944C1B23C080913D
:1031B000B902813AF9F48091E800877F8093E800B2
:1031C0008091BD029091BE02892B61F468E086E790
:1031D00092E070E00E945B1A8091E8008B77809308
:1031E000E800089560E090E080E0F3CF8091B802BD
:1031F0008111C1CF08958091B902813AD9F78091A8
:10320000BD029091BE02892BA9F78091E800877FCB
:103210008093E8008091E80080FFFCCF0E94EC16CC
:103220008093F1008091E8008E77BCCF8091B90245
:10323000813201F78091BD029091BE02892BD1F6B7
:103240008091E800877F8093E8000E944C1B80916A
:10325000BB020E94DB160E944B0608958091B902C2
:10326000813241F68091E800877F8093E8000E94D8
:103270004C1B8091BC020E94FF1608958091B902F8
:10328000813A09F0B7CF8091E800877F8093E8000A
:103290008091E80080FFFCCF0E940C17C1CF84B75B
:1032A000877F84BF0FB6F894A895809160008861ED
:1032B00080936000109260000FBE80E890E00FB62F
:1032C000F89480936100909361000FBE0E94D8161D
:1032D00008950E949C1B0E94F91BE2EEF0E08081A1
:1032E0008460808378940E94781E08958EE091E037
:1032F0000E94961508958091B802853031F480912E
:10330000B802853019F00E94931708950E9468173B
:103310000E941917882399F38091B602882379F3C4
:103320000E94F6190E944B06EACF08959A01409137
:10333000BF025091C0020E949E190895492F55273F
:103340004330510519F168F44130510509F444C086
:103350004230510509F445C090E080E050E040E083
:1033600025C04132510549F142325105A9F784E4A3
:1033700090E044E652E061157105C1F08BE790E002
:1033800049EE51E06130710589F0E6CF992781302F
:10339000910581F0009729F00297F1F6E8E7F1E056
:1033A00002C0E8E9F1E0849190E0AF01F9015183B6
:1033B00040830895EAE8F1E0F6CF89E090E04EEA34
:1033C00051E06115710591F389E090E047EC51E01F
:1033D0006130710559F3C0CF82E190E047ED51E0D3
:1033E000E5CF8BE390E04CE951E0E0CF80E189BD8F
:1033F00082E189BD09B400FEFDCF8091D8008F7DA8
:103400008093D8008091E00082608093E0008091FA
:10341000E00081FDFCCF0895AF92BF92CF92DF9282
:10342000FF920F931F93CF93DF936C01EB018A01FF
:103430000E946B1BF82E811123C00115110539F074
:10344000F80180819181C81BD90BC80ED91EB12CFF
:10345000A12C2097A9F08091E80085FD22C08091E1
:10346000E8008E778093E80001151105A1F0F801BE
:1034700080819181A80EB91EB182A08285E0F82ECC
:103480008F2DDF91CF911F910F91FF90DF90CF9003
:10349000BF90AF9008950E946B1B8823D1F2F82E45
:1034A000EFCFF60181916F018093F1002197FFEF3B
:1034B000AF1ABF0ACECFFC018091BF029091C0022B
:1034C00086179707A0F06115710529F49091E8001F
:1034D0009E779093E80090E06115710551F4911189
:1034E00008C08091E80082FF34C080E00895BC01EC
:1034F000F2CF8091B8028823C1F18530C1F180916B
:10350000E80083FD30C08091E80082FDEACF809121
:10351000E80080FFE1CF8091F3002091F200382F86
:103520006115710519F02830310558F091E0283007
:10353000310509F090E02091E8002E772093E80013
:10354000CBCF81918093F100615071092F5F3F4F84
:10355000E7CF8091B802882341F0853041F0809117
:10356000E80083FFBECF81E0089582E0089583E004
:103570000895FC018091BF029091C00286179707C1
:10358000A0F06115710529F48091E8008E77809391
:10359000E80090E06115710551F4911108C0809127
:1035A000E80082FF35C080E00895BC01F2CF809131
:1035B000B8028823C9F18530C9F18091E80083FD04
:1035C00031C08091E80082FDEACF8091E80080FF61
:1035D000E1CF8091F3002091F200382F6115710541
:1035E00019F02830310558F091E02830310509F004
:1035F00090E08091E8008E778093E800CBCF8491B3
:103600008093F1003196615071092F5F3F4FE6CFF3
:103610008091B802882341F0853041F08091E80024
:1036200083FFBDCF81E0089582E0089583E008958F
:10363000982F973028F08F708093E90081E00895EB
:103640009093E900242F762F50E0981731F0709175
:10365000EC002091ED005091F00021FD02C09F5F31
:10366000E8CF3091EB003E7F3093EB003091ED00DE
:103670003D7F3093ED003091EB0031603093EB00F3
:103680007093EC002093ED005093F0002091EE0039
:1036900027FDE5CF80E008958091B90287FF13C030
:1036A0008091E80082FF06C08091E8008B778093CC
:1036B000E80004C08091B8028111F2CF0895809192
:1036C000B8028823D9F38091E80080FFF8CF809179
:1036D000E8008E77ECCF2091E4003091E50095E68C
:1036E000A9012091EC00822F817020FF06C08091FB
:1036F000E80080FF06C080E008952091E80022FDE8
:103700001AC08091B802882389F0853089F08091B1
:10371000EB0085FD0FC02091E4003091E5004217D9
:103720005307F9F29150E1F684E0089582E008959C
:1037300083E0089581E008950E940B1C0E94131CF1
:10374000E0EEF0E0808181608083E8EDF0E0808150
:103750008F77808319BCA7EDB0E08C918E7F8C931E
:1037600080818F7E80831092B70208950F931F93FC
:10377000CF93DF930E940B1C0E94131CC8EDD0E076
:1037800088818F77888388818068888388818F7D0E
:10379000888319BC1092B8021092B4021092B6023B
:1037A0001092B50200EE10E0F80180818B7F8083DB
:1037B00088818160888342E060E080E00E94181B7D
:1037C000E1EEF0E080818E7F8083E2EEF0E08081A8
:1037D00081608083808188608083F80180818E7F12
:1037E0008083888180618883DF91CF911F910F91C1
:1037F0000895E8EDF0E080818F7E8083E7EDF0E0D2
:1038000080818160808384E082BF81E08093B70201
:103810000E94B61B0895E8EDF0E080818E7F8083E2
:103820001092E20008951092DA001092E1000895DB
:103830001F920F920FB60F9211242F933F934F9325
:103840005F936F937F938F939F93AF93BF93EF9308
:10385000FF938091E10082FF0BC08091E20082FF24
:1038600007C08091E1008B7F8093E1000E94771E6A
:103870008091DA0080FF19C08091D80080FF15C0C8
:103880008091DA008E7F8093DA008091D90080FFEA
:1038900096C080E189BD82E189BD09B400FEFDCFFB
:1038A00081E08093B8020E9455188091E10080FF6A
:1038B00019C08091E20080FF15C08091E2008E7FE8
:1038C0008093E2008091E20080618093E200809129
:1038D000D80080628093D80019BC85E08093B8023C
:1038E0000E946C188091E10084FF2BC08091E2005F
:1038F00084FF27C080E189BD82E189BD89B5982F09
:10390000917080FFFBCF8091D8008F7D8093D8008D
:103910008091E1008F7E8093E1008091E2008F7EB4
:103920008093E2008091E20081608093E2008091C8
:10393000B402882309F449C084E08093B8020E944D
:1039400075188091E10083FF29C08091E20083FF18
:1039500025C08091E100877F8093E10082E0809321
:10396000B8021092B4028091E1008E7F8093E10052
:103970008091E2008E7F8093E2008091E20080617E
:103980008093E20042E060E080E00E94181B80919A
:10399000F00088608093F0000E946618FF91EF911C
:1039A000BF91AF919F918F917F916F915F914F9157
:1039B0003F912F910F900FBE0F901F90189519BC3B
:1039C0001092B8020E94631870CF8091E30087FDC7
:1039D00093E09093B802B3CF1F920F920FB60F925D
:1039E00011242F933F934F935F936F937F938F9304
:1039F0009F93AF93BF93CF93DF93EF93FF93D091B8
:103A0000E900DF708091EC00C82FC17080FDC0E834
:103A10001092E9008091F000877F8093F000789405
:103A20000E94301D1092E9008091F0008860809320
:103A3000F000CD2BCF70C093E900FF91EF91DF91A3
:103A4000CF91BF91AF919F918F917F916F915F9136
:103A50004F913F912F910F900FBE0F901F9018958F
:103A6000AAE2B0E0E6E3FDE10C94BC1E89EB92E033
:103A70002091F100FC012193CF01F2E0813C9F07EE
:103A8000B9F70E9495188091E80083FF1EC18091CC
:103A9000B9029091BA029A3008F017C1E92FF0E00C
:103AA000E956F04E0C94A71E803899F0823809F040
:103AB0000CC18091BD028F70873008F006C18093E1
:103AC000E9008091EB0085FB882780F91092E900DE
:103AD00006C08091B5029091B602911182609091DA
:103AE000E800977F9093E8008093F1001092F10036
:103AF0008091E8008E77E5C0882309F4D3C0823036
:103B000009F0E3C08091BB028111D6C08091BD0253
:103B10008F702FEF280F263008F0D7C08093E90070
:103B20002091EB0020FFC8C0933031F48091EB006E
:103B300080628093EB00C0C09091EB009061909305
:103B4000EB0021E030E001C0220F8A95EAF72093D4
:103B5000EA001092EA008091EB008860EACF8111C0
:103B6000B4C01091BB021F778091E3008078812B55
:103B70008093E3008091E800877F8093E8000E94B3
:103B80004C1B8091E80080FFFCCF8091E3008068AF
:103B90008093E30082E0111183E08093B80295C026
:103BA0008058823008F091C08091BB029091BC0295
:103BB0008C3D23E09207A1F583E08A838AE2898322
:103BC0004FB7F894DE01139620E03EE051E2E32F78
:103BD000F0E050935700E49120FF03C0E295EF70AE
:103BE0003F5FEF708E2F90E0EA30C0F0C7968D9364
:103BF0009D932F5F243159F74FBF8091E800877F55
:103C00008093E8006AE270E0CE0101960E945B1AA0
:103C10008091E8008B778093E80057C0C096E7CF8B
:103C20006091BD027091BE02AE014F5F5F4F0E9476
:103C30009619BC01892B09F448C09091E800977F40
:103C40009093E80089819A810E94B91AE1CF803867
:103C5000E1F58091E800877F8093E8008091B402CD
:103C60008093F10045CF811130C09091BB0292301A
:103C700060F58091E800877F8093E8009093B4021C
:103C80000E944C1B8091B402882311F084E005C08F
:103C90008091E30087FDFACF81E08093B8020E9413
:103CA000801813C08091BB02813079F481E0933099
:103CB00009F080E08093B6021092E9008091E8005C
:103CC000877F8093E8000E944C1B8091E80083FF6F
:103CD0000AC08091E800877F8093E8008091EB0024
:103CE00080628093EB00AA96E3E00C94D81E0895BE
:103CF000CF938091B8028823A1F0C091E900CF70E2
:103D00009091EC00892F817090FD80E8C82B109273
:103D1000E9008091E80083FD0E94301DCF70C093C0
:103D2000E900CF91089597FB072E16F4009407D071
:103D300077FD09D00E94E41E07FC05D03EF4909563
:103D400081959F4F0895709561957F4F0895EE0F6F
:103D5000FF1F0590F491E02D09942F923F924F920E
:103D60005F926F927F928F929F92AF92BF92CF920B
:103D7000DF92EF92FF920F931F93CF93DF93CDB714
:103D8000DEB7CA1BDB0B0FB6F894DEBF0FBECDBF8C
:103D900009942A88398848885F846E847D848C845D
:103DA0009B84AA84B984C884DF80EE80FD800C8166
:103DB0001B81AA81B981CE0FD11D0FB6F894DEBF49
:103DC0000FBECDBFED010895AA1BBB1B51E107C07B
:103DD000AA1FBB1FA617B70710F0A61BB70B881F9B
:103DE000991F5A95A9F780959095BC01CD0108952A
:103DF000FB01DC0104C08D910190801921F4415038
:103E00005040C8F7881B990B0895FB01DC0102C0E4
:103E100001900D9241505040D8F70895F999FECF86
:103E200092BD81BDF89A992780B50895A8E1B0E0C8
:103E300042E050E00C94521FDC01A40FB51F41502A
:103E4000504048F0CB01840F951F2E910E942D1FEA
:103E500041505040D0F70895262FF999FECF92BDDA
:103E600081BDF89A019700B4021639F01FBA20BD3F
:103E70000FB6F894FA9AF99A0FBE08950396272F71
:103E80000E942D1F0E942C1F252F0E942D1F242FC2
:103E90000C942D1F0196272F0E942D1F0C942C1F70
:103EA000DC01CB01FC01F999FECF06C0F2BDE1BDFA
:103EB000F89A319600B40D9241505040B8F70895E9
:103EC000F894FFCF4504450483048304E704030505
:103ED000740474040805790588058805E6115A12EA
:103EE000EE11B811BC11F211C011F6110212CC1171
:103EF0005312D0110612D4110A123212D8110E1216
:103F00003912DE1114121C12C411FA11C811FE115B
:103F1000E2111812281242125112B211EA11611262
:103F20006F1575155E1569157B1581158715541D5F
:103F30007C1D651E7C1D651EAF1DD01D651E271EC8
:023F4000331E2E
:103F42002E02280850011E0A140100000100FC166E
:103F52003F180C1838183118E200E900EA00B500E1
:103F6200B600B700CD008301CC008A019201940112
:103F72002102230224022502260227022A02B3007A
:103F8200B4006F0070009F01CB019F02A0028182EA
:103F920083E200E900EA00B500B600B700CD008375
:103FA20001CC008A019201940121022302240225FC
:103FB20002260227022A02B300B4006F0070009F9B
:103FC20001CB019F02A002818283909192939594EA
:103FD20096973435366667F7F6F5F4303132C6F027
:023FE200F100EC
:00000001FF
