:100000000C94B1010C94E9010C94E9010C94E90100
:100010000C94E9010C94E9010C94E9010C94E901B8
:100020000C94E9010C94E9010C94AF200C94832109
:100030000C94D21B0C94E9010C94E9010C94E90195
:100040000C94E9010C94E9010C94E9010C94E90188
:100050000C94E9010C944A1C0C94E9010C94E901FC
:100060000C94E9010C94E9010C94E9010C94E90168
:100070000C94E9010C94E9010C94E9010C94E90158
:100080000C94E9010C94E9010C94E9010C94E90148
:100090000C94E9010C94E9010C94E9010C94E90138
:1000A0000C94E9010C94E9010C94E9010101E301CC
:1000B000043530307C736E697001043530307C015A
:1000C00001280102E26E0103E2000102E26E767491
:1000D0000103E200407E19015200060100002922BE
:1000E000500051004F0000000152E000427E6500C8
:1000F000D3000B033F0101004B000000417E0100D3
:100100000100010000000252A80010084E00AE00DD
:100110000F0A1908010006080000210B0100010068
:10012000010000000052120A3C051E0301000000FD
:100130000000000000002A2B280000000000000042
:1001400000000000000000000029000000002C1E3C
:100150003420212224342627252E362D3738271EF9
:100160001F202122232425263333362E37381F041F
:1001700005060708090A0B0C0D0E0F1011121314B7
:1001800015161718191A1B1C1D2F3130232D350475
:1001900005060708090A0B0C0D0E0F101112131497
:1001A00015161718191A1B1C1D2F3130354C00005D
:1001B000000000000000000000000000000000003F
:1001C000000000000000000000000000000000002F
:1001D00000007E0F00D4FFFFFFC7000000781E0361
:1001E000440061006300740079006C004D00610000
:1001F000630072006F00700061006400000016036D
:1002000062007700700072006F006200610062009F
:100210006C00790000000403090409023B0002019C
:1002200000A0FA09040000010301010009211101E5
:1002300000012244000705810308000109040100B0
:10024000010300000009211101000122B600070589
:1002500082032000011201000200000008EDFE00F0
:100260000000010102000105010902A10185020946
:1002700001A1000509190129081500250195087536
:100280000181020501093009311581257F9502752B
:1002900008810609381581257F95017508810605B5
:1002A0000C0A38021581257F950175088106C0C0AA
:1002B00005010980A101850319012AB7001501264E
:1002C000B700950175108100C0050C0901A10185D9
:1002D0000419012AA002150126A0029501751081BA
:1002E00000C005010906A1018506050719E029E7F7
:1002F000150025019508750181020507190029EFF0
:100300001500250195F075018102050819012905DF
:10031000950575019102950175039101C0050109CB
:1003200006A101050719E029E715002501950875C3
:100330000181029501750881010507190029FF1542
:100340000026FF009506750881000508190129059A
:10035000150025019505750191029501750391011F
:10036000C00011241FBECFEFDAE0DEBFCDBF04B660
:1003700003FE18C08091AB029091AC02A091AD0237
:10038000B091AE028730904BA740B04B59F4109219
:10039000AB021092AC021092AD021092AE02E0E0FD
:1003A000F8E3099511E0A0E0B1E0E0E7F8E402C06D
:1003B00005900D92A43AB107D9F722E0A4EAB1E082
:1003C00001C01D92AB3AB207E1F70E948F120C9464
:1003D000F7230C940000CF93C62F81E00E943508CC
:1003E000882351F089EAC1110BC08AEA92E00E9489
:1003F000EE0280E0CF9108958AEDC11101C089ED30
:100400000E943A05F6CFFB0181342EE7920789F06E
:1004100082342EE79207A1F080349E4741F4858113
:10042000882329F060E08AEC90E00E94CF1881E0F8
:10043000089585818823D9F360E08CEA90E0F5CFB8
:1004400085818823A1F08091A801811106C081E0F7
:100450008093A80182EE0E94A6040E94321C909311
:10046000A7018093A6018BE20E94A604E0CF8BE255
:100470000E94EF04DCCF8091A801882371F0809165
:10048000A6019091A7010E94C11B893E934028F0CC
:1004900082EE0E94EF041092A80108958330B8F410
:1004A0006330A8F4453098F450E095E0699F400D22
:1004B000511D1124FA019FE0899FE00DF11D1124C7
:1004C000EE0FFF1FEC52FF4F85919491089581E04C
:1004D00090E008950E944E0208959C013A952115DE
:1004E0003F4150F5FC01EE27F170BC0166277270A8
:1004F000AC01442754709C012227387094FF0EC031
:1005000080E1EF2B09F480E0672B09F08062452B36
:1005100009F08064232B89F08068089581E0EF2B37
:1005200009F480E0672B09F08260452B09F08460B4
:10053000232B19F08860089580E00895CF93DF930E
:10054000EB010E946D02FE010995DF91CF910895A4
:10055000CF93DF93EC01805E9109089720F060E86B
:1005600077E0209711F463E475E0CE010E949E02CB
:100570008C2F0E94A604DF91CF910895CF93DF9333
:10058000EC010E94EF04CE01805E9109089720F0F3
:1005900067E877E0209711F46AE475E0CE010E94E5
:1005A0009E02DF91CF9108950F931F93CF93DF9316
:1005B0008C01EB010E94A802209741F4C8010E941F
:1005C000BE02DF91CF911F910F9108958FE99FE0B7
:1005D0000197F1F700C000002197EECF64E670E0CC
:1005E0008933910511F460E570E00E94D40208950A
:1005F00081E008950E94F80208950E94F80208958B
:1006000081E008950E94F80208950E94030208956F
:10061000089508950E940803089508950895A6E096
:10062000B0E0E5E1F3E00C94532349835A839E83C1
:100630003091AE0189819A8131111AC03E813323F4
:1006400099F0222389F00E940F09182F682F8981C1
:100650009A810E94EB0869817A81812F0E94411062
:100660002696E3E00C946F230E94FD08182FF3CF29
:100670000E940F0969817A81F1CFFC01262F408108
:10068000518162817381848195810E940F03089555
:10069000CF93DF93EC0161E00E943D03BE010E9415
:1006A000FA02882359F061E0CE010E943D03BE01A9
:1006B0000E94FD028170DF91CF91089580E0FACF12
:1006C0000F931F93CF93DF93EC0160E00E943D03F3
:1006D0008C01BE010E940903BE01C8010E940A03E9
:1006E000DF91CF911F910F91089521E030E0A90192
:1006F00002C0440F551F8A95E2F7CA010E94F10714
:100700000895CF93C82F81E090E00C2E02C0880F8F
:10071000991F0A94E2F70E947B0D8C2F0E947503AB
:10072000CF91089581E008950E94920308950E9458
:1007300092030895CF93C82F0E94A4078C2F0E9484
:1007400094038C2F0E9497032FEF84E39CE02150A9
:1007500080409040E1F700C00000CF91089581E013
:100760000E949A030E946E1C089580E00E949A03E2
:100770000E94921C08950F931F93CF93DF938C01D7
:1007800061E00E943D03EC01B8010E940203811167
:1007900006C080E0DF91CF911F910F910895B801BD
:1007A000CE010E9405038823A1F3B801CE010E9467
:1007B0004719882371F3B801CE010E94531488238E
:1007C00041F3B801CE010E942914882311F3B80126
:1007D000CE010E9445118823E1F2F801858188232A
:1007E00061F0C330FCE7DF07E9F058F4C115ECE72E
:1007F000DE07A9F0C130DC47B9F0C8010E94000350
:10080000C9CFCB358CE7D807A9F0CC35ECE7DE07AC
:1008100071F0CA35DC4789F70E94560DEECF0E9471
:10082000AF03B7CF0E945E0D0E94B503B2CF0E9406
:100830004C0DE3CF0E945A0DE0CF0E940D030E94A1
:10084000A51B0E94410408950E9445040E940E03C6
:100850000E94AA1B089581E008950895CF93DF9325
:10086000D82F0E942B04C82F882319F08D2F0E94A7
:100870002D048C2FDF91CF91089508950E942E04AE
:10088000089580E00E943E0408950E9490190E94FD
:100890003E040895CF930E949019C82F8091A9011A
:1008A0008C1779F0C093A9010E943E1C6093AA01A5
:1008B0007093AB018093AC019093AD018C2F0E949B
:1008C0003E04CF910895ADE0B0E0E9E6F4E00C9489
:1008D0005423488759876A877B878C879D87911126
:1008E0000E945C0C1F8286E0FE013896DE011196A4
:1008F00001900D928A95E1F78D8181110DC02981BA
:100900003A814B815C816D817E818F810E94A60B33
:100910002D96E2E00C947023CE0101960E944803CC
:100920008111EDCFF5CFFC012481213021F48081AC
:1009300091810E9441090895662329F00E94B4150F
:100940000E94871608950E940E16FACFCF93C82FE3
:10095000882399F08CEF8C0F813A88F48C2F0E94B9
:10096000301A882329F08C2F0E94D61A0E94F00C8E
:100970008C2F0E94BC1A0E94F00CCF91089580E247
:100980008C0F883048F4C77081E001C0880FCA9589
:10099000EAF70E943F0CEFCFEBE5EC0FE33040F4B9
:1009A000F0E0E05BFE4F808190E00E94C419E5CF4B
:1009B000E8E5EC0FEB3150F4F0E0EE0FFF1FE65EE0
:1009C000FE4F808191810E94E919D7CF83E38C0F7C
:1009D000833198F661E08C2F0E949C04CECF88234F
:1009E00081F19CEF980F913A28F40E94D61A0E9448
:1009F000F00C089590E2980F983050F4877091E0D1
:100A000001C0990F8A95EAF7892F0E94450CEFCF14
:100A10009BE5980F933028F490E080E00E94C41981
:100A2000089598E5980F9B3128F490E080E00E94AB
:100A3000E919089593E3980F933118F460E00E9448
:100A40009C0408951F93CF93DF93182FEB010E940E
:100A5000A604209739F4812F0E94EF04DF91CF91F3
:100A60001F9108958FE99FE00197F1F700C0000002
:100A70002197EFCF64E670E0893311F460E570E010
:100A80000E9422050895882321F00E943F0C0E94B5
:100A9000F00C0895882321F00E94450C0E94F00C70
:100AA0000895B0E0A0E0E7E5F5E00C944D236C017B
:100AB000D62FC72FFC011581068102950F700E9469
:100AC000350CE82E8823F9F0E12E1123E1F08C2F6C
:100AD000807F803461F080E28D0F883008F18C2FA8
:100AE000807E803221F4D230D8F00023C9F080918A
:100AF000930282FF15C082E00E94200D0E94350CF7
:100B000091E0E82EE926BC2EB2949FE0B922FBE0EA
:100B1000FB15B8F1EB2DF0E0E750FC4D0C943E23B3
:100B2000E12CF1CF0C2F0F70C07F11F00295007FE8
:100B3000112399F0002359F080E28D0F883010F0D6
:100B4000D11107C0802F0E943F0C0E94F00C8D2F06
:100B500048C0802F0E944F0CF8CF8D2F0E94EF04C9
:100B6000002379F080E28D0F883010F0D11104C09D
:100B7000802F0E94450C03C0802F0E94550C0E94BC
:100B8000F00CEB2DE850FF0B349708F069C10E9480
:100B900090190E943E04CDB7DEB7E9E00C946923BA
:100BA0002C2F2F70F22EC07FC03219F0F29480EFFC
:100BB000F822DD2341F0D130C9F1112309F443C0FB
:100BC0000023E9F0C4CF8091930282FD14C0112369
:100BD00059F0FF2029F08F2D0E943F0C0E94F00C4D
:100BE00080E00E94A604CDCF80E00E94EF04FF20A9
:100BF00041F28F2DBECF112369F0011104C08F2D5A
:100C00000E944305BECF013009F0BBCF8F2D0E945B
:100C1000730CB7CF0111B5CF8F2D0E944A058F2DD0
:100C20000E947F0C8F2D0E94630CABCF112321F00B
:100C3000063008F0A6CFE3CF053008F0A2CF8F2D05
:100C40000E944A059ECF0023D1F3D93309F000C199
:100C50003FEF87EE93E0315080409040E1F700C0D5
:100C600000008D2F0E94EF048CCF8C2F86958695E7
:100C7000837069F0813009F084CF8D2F9C2F9370A1
:100C8000111102C080E090E00E94E9197ACF8D2F07
:100C90009C2F9370111102C080E090E00E94C41953
:100CA00070CF612F8D2F0E949C046BCF8C2F83708F
:100CB000A1F5111166CF4D2F429546954770440F0F
:100CC000440F2D2F2F7030E0042E02C0220F331F4F
:100CD0000A94E2F790E080E0D4FF09C08FE090E052
:100CE00002C0880F991F4A95E2F780959095C695A6
:100CF000C695C370822B932BC23049F058F4C13093
:100D000019F00E94FD073DCF0E94F4073ACF0E94E0
:100D1000060837CF0E94F10734CF8695112311F0D2
:100D20008C2F8170882309F42CCF4D2F4295469546
:100D30004770440F440F2D2F2F7030E0042E02C057
:100D4000220F331F0A94E2F790E080E0D4FF09C03D
:100D50008FE090E002C0880F991F4A95E2F78095D6
:100D60009095C695C695C370822B932BC23049F0DF
:100D700058F4C13019F00E94840803CF0E947B0808
:100D800000CF0E948D08FDCE0E941508FACECF70CC
:100D9000112329F08C2F0E9449088D2F31CF8D2FE0
:100DA0000E944A058C2F0E945908EBCED23F41F198
:100DB00060F4D03FB9F0D13F81F0112309F443C072
:100DC0000111C5CE8C2F8F711FC0D33F01F1D43FCD
:100DD000A1F78091930282FD24C08C2F8F71112383
:100DE00011F312C0112341F0053008F0CACE8C2F48
:100DF0008F710E946B08C5CE063008F0C2CEF7CFC7
:100E00008C2F8F711111CFCF0E944908BACE1123B8
:100E100029F08C2F8F710E943D08B3CE0E941C08D0
:100E2000B0CE112331F063E08C2F8F710E94020D40
:100E3000A8CE81E00E94200D023008F4A2CE82E00C
:100E40000E94200D9ECE011100CF8C2F8F71ABCF51
:100E5000EFEFF1EE24E0E150F0402040E1F7FFCE6B
:100E6000EE2009F498CE0E94310C80FD94CEF6015C
:100E700015820E942B0C0E944908C6010E945D0742
:100E80000E942B0C0E94590886CE0F931F93CF937C
:100E9000DF93EC01688179818D810E944C098C017E
:100EA0000E9496080E94F007B801CE010E945105E9
:100EB000DF91CF911F910F910895CF93DF93EC01B4
:100EC0008C81882399F0CE010E94BB03811111C04F
:100ED0000E94350C882351F08D81882339F0809150
:100EE000930282FF03C082E00E94200DDF91CF9128
:100EF0000895CE010E944507CE010E946003F6CFFF
:100F0000882321F00E944F0C0E94F00C0895882342
:100F100021F00E94550C0E94F00C089590E080E0B2
:100F20000E94C41990E080E00E94E9190E945C0CC4
:100F30000E94F00C0E94A3160E94871608950E943A
:100F4000F01A0E948E0708950E944C0C0E949F0781
:100F5000089592959F70963091F058F4925F9F702B
:100F6000923058F4803F19F030F4883E30F481E03C
:100F700008959A5FF4CF843FD1F380E00895883ECE
:100F8000B0F3813FD1F7F3CFFC012481222339F064
:100F9000808191810E9441090E94A907089580E003
:100FA0000895A6E0B0E0E7EDF7E00C945423269610
:100FB000E2E00C947023A7E0B0E0E1EEF7E00C94DF
:100FC00054232796E2E00C94702308950E94E507CD
:100FD00008950E94E6079093BA018093B90108959D
:100FE00008950E94E90708952091B9013091BA014E
:100FF000822B932B0E94E90708952091B90130912B
:10100000BA01822393230E94E90708952091B90130
:101010003091BA01822793270E94E90708950E9420
:10102000E50708950E940F0808950E941208909302
:10103000B8018093B701089590E080E00E94150800
:101040000895009729F481E0662371F080E00CC0D8
:1010500021E030E002C0220F331F6A95E2F7282317
:10106000392381E0232B91F30895682F8091B701F4
:101070009091B8010E942108089521E030E0A90173
:1010800002C0440F551F8A95E2F7CA010E94150855
:10109000089521E030E002C0220F331F8A95E2F765
:1010A0008091B7019091B801822B932B0E94150873
:1010B000089521E030E002C0220F331F8A95E2F745
:1010C000209530958091B7019091B80182239323A8
:1010D0000E941508089521E030E002C0220F331F5E
:1010E0008A95E2F78091B7019091B8018227932702
:1010F0000E94150808952091B7013091B801822B04
:10110000932B0E94150808952091B7013091B801E2
:10111000822393230E94150808952091B7013091EE
:10112000B801822793270E94150808950895262F55
:10113000277091E001C0990F2A95EAF723E0769590
:1011400067952A95E1F7660F771F660F771FFA01FB
:10115000E60FF71F50E040E0682F70E08191DF015B
:1011600011979B01042E02C0369527950A94E2F749
:10117000217021952827292328272C934F5F5F4F23
:101180004430510559F70895A82FA77023E096958C
:1011900087952A95E1F7880F991F880F991FFB0102
:1011A000E80FF91F50E040E080E0219130E00A2E86
:1011B00002C0369527950A94E2F721703327042E52
:1011C00001C0220F0A94EAF7822B4F5F5F4F443031
:1011D000510559F70895262F933070F4853060F447
:1011E000682F70E085E0989F600D711D11244FEA13
:1011F00051E0822F0E9497080895292F933068F4B8
:10120000853058F490E06FEA71E035E0239F800D5F
:10121000911D11240E94C408089580E00895B0E053
:10122000A0E0E5E1F9E00C944D237C010091B701C9
:101230001091B8018091B9019091BA01082B192B36
:10124000CFE0D0E0CC24C394D12CBC2EC6010C2E10
:1012500002C0880F991F0A94E2F780239123892BFB
:1012600049F4219790F7B12C8B2DCDB7DEB7E9E08B
:101270000C946923B7018C2F0E944D10019789F3BC
:10128000F3CFCF93DF93EC010E940F09BE010E94C0
:101290004D10DF91CF9108951F93CF93DF93EB0112
:1012A0009091AE01992339F0CB010E944109DF9161
:1012B000CF911F910895882369F0CB010E940F09F7
:1012C000182F682FCE010E94EB08BE01812F0E94CB
:1012D0004D10EDCFCB010E94FD08182FF6CF1F93C4
:1012E000CF93DF93C091BB0117E08091BC018C13B9
:1012F00004C0DF91CF911F910895D0E01C9FF001B1
:101300001D9FF00D1124E354FE4F20813181428155
:1013100053816481758186810E94DB072196C770A5
:10132000E4CF2091F5013091F6014091F701509101
:10133000F8016091F9017091FA018091FB010E941E
:10134000DB070895CF93DF938091FB01807F09F045
:101350004DC08091FA01882309F448C0E091BB0197
:101360005091BC01C091F601D091F5016091F70157
:101370007091F80147E05E17C9F18E2F90E0E49F6D
:10138000F0011124E354FE4F2481222391F1489F60
:10139000F001499FF00D1124DF01A354BE4F1196B7
:1013A0002C9111972C1325C02C912D1322C015962A
:1013B0002C91159721111DC012962D913C91261B41
:1013C000370B283C3105A8F48091FB018F708061B8
:1013D0008093FB01ED53FE4F80818F70806180838D
:1013E00085EF91E00E945D070E946F09DF91CF9128
:1013F0000895FC013196E770BECF482F2091BB01C4
:101400009091BC0157E0291302C080E0089530E0BC
:10141000529FF001539FF00D1124E354FE4F818140
:10142000681306C08081481303C085818111EECF07
:101430002F5F3F4F2770E7CFA4E1B0E0E2E2FAE090
:101440000C944A238C0186E0F801DE011F9601907E
:101450000D928A95E1F7F8018481E58095EFA92E38
:1014600091E0B92E9091F90191111FC08823D1F01C
:10147000EE20A9F0C8010E94C407F82E882379F055
:1014800087E0F801D50101900D928A95E1F7C50139
:101490000E9493040E94A2090E9491095FC0C801A2
:1014A0000E945D07FF24F39459C0C080D1808280E0
:1014B0009380F090FA012091F7013091F801A40196
:1014C000421B530BFF2009F4F9C0483C510508F0BA
:1014D000A7C0882309F442C09091F6018091FB01D6
:1014E000282F207F09F05CC09D1116C09091F50156
:1014F000C91212C0E1104EC08F7080618093FB0151
:101500000E94910985EF91E00E945D078091FB01A7
:10151000F8018683F12C22C0E1103CC06D2D8C2D8A
:101520000E94FD096D2D8C2D0E94FD09E82E811170
:10153000F1CFCF86D88A8F8598890E944109292FBB
:1015400022952F70243078F49F702230A8F09923D0
:10155000B9F0F8019681907F99F4FE2C8F2D649656
:10156000ECE00C9466232A5F2F70223068F0C801EB
:101570000E945D07EF2CF1CF992311F0882369F3C6
:10158000805E883050F3F3CF803F38F3815F833043
:1015900070F7E3CF8091FB0181608093FB01BACFAC
:1015A0009D1113C09091F501C9120FC0E1100DC03B
:1015B0008683C8010E945D0787E0F801A5EFB1E0CE
:1015C00001900D928A95E1F767CFC8010E94C40788
:1015D000882309F464CFEE2009F461CF8091FB01E8
:1015E000803288F02091F5013091F6013987288703
:1015F0009B868A869091F9019C871D868E87CE01F5
:1016000008960E945D0787E0F801A5EFB1E0019020
:101610000D928A95E1F70E94A2090E94910942CF9A
:101620009091FB01292F207FA1F4682D9A8A898A45
:10163000A6017A899E2D0E94D10785EF91E00E9434
:101640005D0787E0F50111928A95E9F70E949109FB
:1016500061CF882309F482CF8091F6018D1110C0EB
:101660008091F501C8120CC0E1100AC09683C80130
:101670000E945D0787E0F50111928A95E9F76ECF28
:10168000C8010E94C407882309F409CFEE2009F499
:1016900006CF8091FB01803208F4B5CF2091F5018F
:1016A0003091F6013A8329839C828B829091F901D3
:1016B0009D831E828F83CE010196A3CF483C5105A6
:1016C000B8F5882309F4EECEFE2CEE2009F4E7CE1F
:1016D0008091F6018D111EC08091F501C8121AC0CB
:1016E0008091FB0180FD0DC0982F907F51F0868383
:1016F000903F09F45ECF982F907F905F8F70892B79
:1017000057CF87E0F801A5EFB1E001900D928A95DF
:10171000E1F724CFC8010E94C407811174CF8091E2
:10172000FB0181608093FB01C8010E945D0716CF19
:10173000682D9A8A898AA6017A899E2D0E94D107EE
:1017400087E0F50111928A95E9F7A6CEAEE0B0E008
:10175000ECEAFBE00C945323288739874A875B87A0
:101760006C877D878E87CE0108960E941C0A88238D
:10177000B1F06C85662341F0288539854A855B8503
:101780007D858E850E94DB0717E08091BB019091DB
:10179000BC0189133DC02E96E3E00C946F2387E0D3
:1017A000FE013896DE01119601900D928A95E1F7BF
:1017B0008C85882349F32091BC0130E0C901019652
:1017C000877099274091BB014817190699F097E057
:1017D000929FD001939FB00D1124A354BE4FFE01E0
:1017E000319601900D929A95E1F78093BC010E9489
:1017F0006F09CACF0E94A4071092BC011092BB01CE
:1018000087E0E5EFF1E0DF011D928A95E9F7BCCFB3
:10181000819FC001112483549E4F0E941C0A88237B
:1018200009F4B9CFE091BB011E9FF0011124E354EC
:10183000FE4F20813181428153816481758186818F
:101840000E94DB078091BB0190E001968770992789
:101850008093BB019ACF80912402869586958695C8
:1018600008958091240287700895909124029770C2
:1018700081E009F480E008958091500208959091EC
:101880005002892B809350020895809590915002C8
:1018900098239093500208951092500208959091C9
:1018A0004F02892B80934F020895809590914F02AB
:1018B000982390934F02089510924F02089508952F
:1018C0000E945F0C089590912502292F282331F062
:1018D00080958923809325020E94600C08950895C5
:1018E0000E946F0C089590912602292F2823281713
:1018F00029F0982B909326020E94700C08959091E5
:101900002602292F282331F08095892380932602EF
:101910000E94700C089580912602882329F010926D
:10192000260280E00E94700C0895CF93C09150026F
:1019300080914F02C82B80912602882331F0C82B5A
:101940000E940E1A81110E948B0C8C2FCF9108954A
:10195000CF93DF93C0910201D09103010E94950CB7
:101960008883C0910201D091030148E050E06CE10E
:1019700072E0CE010E948F23892B59F088E0FE018E
:10198000ACE1B2E001900D928A95E1F7CE010E94A0
:101990009D19DF91CF910895CF93DF93C0910001FE
:1019A000D09101010E94950C8983C0910001D091D2
:1019B000010140E250E06CEF71E0CE010E948F2304
:1019C000892B59F080E2FE01ACEFB1E001900D925D
:1019D0008A95E1F7CE010E94A819DF91CF91089571
:1019E0000E94801B813039F48091920287FF03C0EE
:1019F0000E94CC0C08950E94A80C089508950E949E
:101A0000FE0C08959091930292FF11C098E0899F77
:101A100090011124622B609324020E944908809156
:101A200024028695869586950E94FF0C08950E9453
:101A3000490808951092240280E00E94FF0C089546
:101A4000909124028095892380932402282F277067
:101A500069F4891759F09091930292FF07C0869517
:101A6000869586950E9459080E941A0D08959091B6
:101A7000930292FB222720F9281769F080FB92F944
:101A80009093930280919202909193020E94860D0E
:101A900082E00E94200D08958091930282FB8827A6
:101AA00080F991E089270E94370D089581E00E9416
:101AB000370D089580E00E94370D08956FEF7FEF96
:101AC00090E080E00E94E123089590E080E00E9491
:101AD000AD2321E0853E9E4F09F020E0822F08953E
:101AE00082E090E00E94A523089583E090E00E94A8
:101AF000A52390E00895682F83E090E00E94C3231F
:101B0000089584E090E00E94AD230895BC0184E034
:101B100090E00E94E1230895AB01BC018FE090E0CA
:101B20000E94D5230895AB01BC0183E190E00E949F
:101B3000D523089560E070E0CB010E94930D0895D5
:101B400060E070E0CB010E948C0D0E949A0D089518
:101B5000A8E0B0E0EEEAFDE00C94542365EE7EEFE1
:101B600090E080E00E94E12360E082E090E00E944B
:101B7000C32381E090E09093BA018093B9010E9461
:101B80007B0D60E074E184E090E00E94E12360E07E
:101B900086E090E00E94C32360E087E090E00E942E
:101BA000C32340E050E0BA0188E090E00E94D523D2
:101BB00060E083E290E00E94C32360E08CE090E06C
:101BC0000E94C32360E08DE090E00E94C32319824D
:101BD0001A821B821C821D821E821F82188648E088
:101BE00050E067E170E0CE0101960E94B32340E02F
:101BF00050E0BA018FE190E00E94D5230E94A00D31
:101C00002896E2E00C9470230E94A80D0895682F96
:101C10008EE090E00E94C3230895A6E0B0E0E3E1E7
:101C2000FEE00C9452230E94321C8C0180915102E0
:101C3000909152028017910781F019821A820E94B6
:101C4000321C682F49815A81792F80E090E00E94F0
:101C5000630410935202009351022696E4E00C9420
:101C60006E230E943E1C60935E0270935F0280931D
:101C700060029093610260935A0270935B028093BA
:101C80005C0290935D0208950E943E1C60935E0288
:101C900070935F028093600290936102609356029A
:101CA00070935702809358029093590208950895B3
:101CB00008950E94570E089508950E945C0E0E9498
:101CC000590E089508950E94620E089508950E9485
:101CD000660E0E94630E089583E491E10E94A412AF
:101CE0000E94580E0E945D0E089581E008950E94A2
:101CF000750E08950E94750E0895089508950E9426
:101D00007D0E0E947E0E0E943B0208950E94650D8A
:101D1000811102C00E94040E0E94700D8093620225
:101D20000E94810D90939302809392020E94261448
:101D30000E94750D0E94F1078091B7019091B80142
:101D40000E94120808950E94291C0E94AC120E9451
:101D5000FD110E94860E0E943D040E94670E0895A8
:101D6000A6E0B0E0E6EBFEE00C944B230E94770E79
:101D700081110FC00E940D0E0E94271381110E9435
:101D8000440E0E94C5160E944A042696EBE00C946D
:101D900067230E9413121091530280E00E945F118A
:101DA00018130EC01091540281E00E945F1181133C
:101DB00007C01091550282E00E945F111817D1F2FE
:101DC0008091620281FD0E9465110E947A0EC82EE8
:101DD00083E5A82E82E0B82E10E099249394812FF9
:101DE0000E945F11082FF50181915F01081729F109
:101DF000F12CEE24E394D02ED8268D2D8E21A9F03F
:101E0000CC2099F0F9821A830E94321C9C838B8328
:101E10009D8291E0802F8E2109F490E049815A81C2
:101E20006B817C818D810E946304F394EE0CF5E05C
:101E3000FF12E3CFF501319700831F5F133079F66E
:101E40000E94310E99CF1F93CF93DF930E945210BF
:101E5000EC01C11580E5D807F0F5C11580E4D8077D
:101E600008F09CC0C03ED10520F5CD3CD10508F05E
:101E700082C0C83AD10578F4C53AD10508F073C0DC
:101E8000C130D10519F1209709F1C430D105F0F422
:101E9000D0E0C0E01BC0C33CD105D0F7C85AD0E0A9
:101EA000CC0FDD1FCD5ADE4F0990D881C02DD464F0
:101EB0000DC0C11580E2D80708F0D1C0C11581E07E
:101EC000D80708F05AC0C83ED10510F7CE01DF91FF
:101ED000CF911F910895C03682E5D80718F5C03418
:101EE00082E5D80708F06BC0C03282E5D80708F059
:101EF0005FC0C11582E5D80708F497C02C2F26953E
:101F0000269580E2289F900111248C2F8370C1E0D8
:101F1000D0E002C0CC0FDD1F8A95E2F7C22BD32B95
:101F2000DD68D4CFC03A82E5D80760F4C03882E5D6
:101F3000D80708F459C0CF71D0E0DC2FCC27C46F8C
:101F4000D06AC4CFC03C82E5D80708F462C0C03E66
:101F500082E5D80708F09CCFDC2FCC27CC27DF7197
:101F6000C06FD06AB3CFC55AD0E0C757DE4FC88123
:101F7000D0E0D064ABCFD065A9CF8D2F0E94F410F4
:101F8000182FCE0199270E945210C12FD0E0DC2FCC
:101F9000CC27CC27DF71C82BD92B98CFCE0199271E
:101FA0000E945210CC27DF70C82BD92BD06A8ECF5D
:101FB000CF71D0E0DC2FCC27C16FD06A87CF2C2F18
:101FC00026952695277080E2289F900111248C2F5A
:101FD0008370C1E0D0E002C0CC0FDD1F8A95E2F72C
:101FE000C22BD32BDC6872CF2C2F26952695277019
:101FF00080E2289F900111248C2F8370C1E0D0E0F3
:1020000002C0CC0FDD1F8A95E2F7C22BD32BDA6812
:102010005DCF8C2F8F710E94F410C82FD0E0DC2F81
:10202000CC27CC27DF71D06251CF8C2F8F710E94CB
:10203000F41055E0D695C7955A95E1F7CF70D0E0EA
:10204000DC2FCC27282F30E084FF05C044E0220F8E
:10205000331F4A95E1F7C22BD32BD06937CF8D2F91
:102060008F710E94F410182FCE0199270E945210F0
:10207000C12FD0E0DC2FCC27CC27DF71C82BD92B88
:10208000D2CF462F733030F4653020F4672F0E9492
:102090006A02089590E080E008950E9441100E9435
:1020A000230F089582389105B9F1B0F48133910579
:1020B00009F47DC048F48932910509F46DC08A3273
:1020C000910509F47BC008958533910509F45FC03B
:1020D0008933910509F10895833E9105D9F138F4CA
:1020E000803E910529F1823E910579F10895863E61
:1020F0009105D9F1873E910509F43EC0843E9105D2
:1021000041F52091930221FF24C08091920284FD29
:1021100019C087EE90E0089520919202237009F093
:102120005AC02091930223FF14C089E290E00895E1
:102130002091920220FD38C03091930230FF09C0F7
:1021400024FF43C090E080E008952091920222FD98
:10215000F7CF08952091920222FD3AC03091930268
:1021600030FD39C024FFF5CFEDCF2091920223FF3F
:10217000F0CF24FDE7CFCDCF2091920223FD2EC0DA
:102180003091930231FFEECF84EE90E008952091DC
:10219000920225FFDECFC9CF2091920225FD21C0FA
:1021A0002091930223FFD5CF89E390E0D2CF2091F5
:1021B000920226FFCECF8AE290E00895209192020B
:1021C00026FFC7CF81E390E0089583EE90E0089565
:1021D00082EE90E0089580EE90E0089586EE90E023
:1021E000089585E390E008959091920292FF10C0C7
:1021F00041E0282F2471243009F040E031E0282FFD
:102200002871283009F030E0431711F02CE08227C4
:1022100093FF10C041E0282F2471243109F040E0E1
:1022200031E0282F2871283109F030E0431711F0F0
:102230002CE082273091930230FF10C051E0282F0C
:102240002171213009F050E041E0282F2871283019
:1022500009F040E0541711F029E0822731FF10C047
:1022600041E0282F2171213109F040E031E0282F91
:102270002871283109F030E0431711F029E0822756
:1022800094FD877E089580E00895CF939C01205EA1
:102290003245C1E02032310538F4FB01C581C1115E
:1022A00003C08F710E9481038C2FCF9108950895F0
:1022B0000E945711089508950E945B110895E82F18
:1022C000F0E0E956FD4F80810895089580EA8A95EF
:1022D000F1F7089500C008950E9466110895F894DA
:1022E000E82FE295EF70F0E031A1282F2F7081E008
:1022F00090E001C0880F2A95EAF7982F90959323D4
:1023000091A392A1892B82A378940895CF93DF9310
:1023100086EF0E946F1184E30E946F1185E30E9493
:102320006F11CCE8D1E089918F3F11F00E946F11BD
:1023300081E0C139D807B9F7DF91CF910895B0E0B6
:10234000A0E0E5EAF1E10C944E23EC01D62E062F35
:1023500010E0C8018F569E4F7C01FC0180818F3FA9
:1023600009F444C0F894E82FE295EF70F0E091A1F1
:102370008F7021E030E001C0220F8A95EAF7892FA3
:10238000822B81A382A12095282322A378940E94E6
:102390006A11ECE8F1E031E0C12C21912F3F59F1B5
:1023A000A22FA295AF70B0E090968C9190E02F7024
:1023B00002C0959587952A95E2F780FD1CC0832F72
:1023C000C82A330F81E0E139F80739F7F701808136
:1023D0008F3F11F00E946F1161E0C11001C060E0F9
:1023E0008D2D0E946C11C00FD11FC882CDB7DEB7F2
:1023F000E8E00C946A2380E0E3CF0E94861183E03A
:10240000E7E9F2E0DF01982F1D929A95E9F7E4E9F8
:10241000F2E0DF011D928A95E9F783E00E945212F3
:102420000E9458110895A3E0B0E0E9E1F2E10C94B4
:10243000532319821A821B8260E0CE0101960E940A
:102440009F1161E0CE0101960E949F1162E0CE01D2
:1024500001960E949F1143E050E0BE016F5F7F4FE5
:1024600084E992E00E948F2321E0009709F420E0A4
:10247000892B49F089819A81AB8180939402909352
:102480009502A093960243E067E972E084E992E046
:102490000E945312182F0E945C11812F2396E3E0B3
:1024A0000C946F230895B0E0A0E0E9E5F2E10C940C
:1024B0004E236C017B01042FC22F222379F081E08F
:1024C000809365020E94321C9093640280936302A1
:1024D00080E0CDB7DEB7E8E00C946A23D0916502C6
:1024E000DD23B1F380916302909164020E94C11BCD
:1024F000059770F310E0A801B601C7010E948F2371
:10250000892B31F0A801B601C7010E949C23CD2F71
:10251000109265028C2FDDCF0E94B00E08950E94AC
:10252000CB1B0E94E61D0E946C0E0E94001E0E94A2
:10253000A30E0E940D1E0E94121E0E948C120E9469
:102540002C1E0E947F0EF7CF9093A5018093A401CB
:1025500008950E94750E0895E7E6F2E088E0DF0135
:102560001D928A95E9F70E94AF130895FC0122811C
:1025700030E02F5F3F4F23703327938181E0921724
:10258000130609F080E008950F931F93CF93DF9314
:10259000EC01162F042F0E94B612811117C08A81F8
:1025A000FE01E80FF11D1F7764816078612B00FB4D
:1025B00067F964838F5F83708A8388818F5F8883E4
:1025C00081E0DF91CF911F910F91089580E0F9CFC5
:1025D000FC01A38182818A17B1F0AE0FBF2FB11D1C
:1025E00014968C9187FB992790F98F77DB018C9358
:1025F000DA019C9383818F5F8370838381818F5FF6
:10260000818381E0089580E00895462F682F87E652
:1026100092E00E94C4120895AB01BC0187E692E0EB
:102620000E94E8120895CF93DF93D62F0E94EB010A
:10263000C82F882341F06AE070E089EAD11101C017
:102640008AEA0E9422058C2FDF91CF910895A2E0A3
:10265000B0E0EDE2F3E10C9452238091660288230E
:1026600051F0109266028091690280936A02809113
:102670006702809368020E94EE130E94A912182F2D
:10268000882389F010E005C069818A810E941313B4
:10269000102FBE016F5F7F4FCE0102960E940C1378
:1026A000082F8111F1CF812F2296E4E00C946E2344
:1026B0008FE891E00197F1F700C00000089521E94B
:1026C000611120E93AB12F7081E090E001C0880FDC
:1026D0002A95EAF7982F909593239AB99BB1892B65
:1026E0008BB9089521E9611120E989B190E02F703B
:1026F00002C0959587952A95E2F78170089508950F
:10270000CF93DF93C0E080916F02C81760F00E9402
:102710005813C0E080916F02C81778F00E947F13B1
:10272000DF91CF91089560E08C2F0E945F1361E0EC
:102730008C2F0E945F13CF5FE6CF60E08C2F0E944A
:102740007213D82F61E08C2F0E947213EC2FF0E0EF
:10275000EF58FD4F880F8D2B8083CF5FDBCF81E05B
:1027600080936F020E94801308951F93CF93DF938D
:10277000182FE42FEE0F6E2BC82FD0E0DE01AF58DC
:10278000BD4FEC918E2F8370681721F1EE0FEE0F85
:10279000E62BEC93EF70F0E0EC56FE4FC059DD4FA6
:1027A00080819881890F8883843024F060E0812FB4
:1027B0000E94051388818D3F24F461E0812F0E94DF
:1027C00005138881082E000C990B64E070E00E94CC
:1027D0002A238883DF91CF911F910895CF93DF93B0
:1027E000C0E080916F02C81718F0DF91CF91089573
:1027F00061E08C2F0E947213D82F60E08C2F0E9412
:1028000072134D2F682F8C2F0E94B513CF5FE9CF25
:102810000E945E0D089580E00E945F11817008950E
:102820000E9413122FEF86E791E0215080409040E4
:10283000E1F700C000000E9413120E940B148823CD
:1028400021F00E9408140E946E1C08950E9410142A
:102850000895CF93DF93EB0186319C4711F50E94D9
:102860003C0C9D81992399F08A7A91E009F490E0DB
:1028700090937202811109C089E20E94BC1A0E94E1
:10288000F00C80E0DF91CF91089585E3F6CF809141
:102890007202811104C089E20E94D61AF0CF85E34A
:1028A000FBCF81E0EFCFCF93DF93EC01FB0185817C
:1028B000882309F4D2C09E0130572332310508F035
:1028C000B2C00E94810D9093930280939202FE0108
:1028D000E150F047E232F10520F4EB5FFB4D0C9440
:1028E0003E238091920281608093920293C08091F6
:1028F00093028860809393028DC0809192028260DF
:10290000F3CF809192028460EFCF80919202886031
:10291000EBCF809193028160EDCF80919302826032
:10292000E9CF809192028061DFCF80919202806234
:10293000DBCF809192028064D7CF0E94A407809160
:1029400092028068D1CF809192028C60CDCF80912D
:1029500093028360CFCF809192028E7FC5CF80910A
:102960009302877FC7CF809192028D7FBDCF8091E8
:1029700092028B7FB9CF80919202877FB5CF8091F1
:1029800093028E7FB7CF809193028D7FB3CF8091DA
:1029900092028F7EA9CF809192028F7DA5CF8091E8
:1029A00092028F7BA1CF0E94A407809192028F7721
:1029B0009BCF80919202837F97CF809193028C7FEF
:1029C00099CF8091920282FB992790F921E092277A
:1029D00090FB82F990FB83F987CF80919302982F27
:1029E000909591708E7F892B90FB81F983CF909188
:1029F0009202892F8F7B96FF806476CF0E94A40776
:102A000090919202892F97FB87F980586DCF81E0D2
:102A10000E94070E80919202909193020E94860D6F
:102A20000E94A40780E0DF91CF91089580E0F0CF6D
:102A300090919202892F8F7E94FF806155CF909163
:102A40009202892F8E7F90FF81604ECF90919302EA
:102A5000892F877F93FF88604DCF81E0E4CF282FB7
:102A600035EB2303C001112497FF04C0805891095E
:102A7000892F089580589F4FFBCF8091790280FF66
:102A80000DC06091090170E0660F771F6038710515
:102A900070F56115710569F1862F089581FF07C0F2
:102AA0006091090184E0689FB0011124EFCF60912B
:102AB000090182FD0AC0809178028823A9F0209143
:102AC000080160910901821710F088E0ECCF869F21
:102AD000C001112433E0880F991F3A95E1F7622F66
:102AE00070E00E942A23D2CF68E070E0D5CF8FE754
:102AF000089581E008958091790280FF0CC0609173
:102B0000050170E075956795759567956115710577
:102B100049F1862F089581FF06C06091050170E09C
:102B200075956795F3CF6091050182FD0BC090917B
:102B300077029923A1F06091040180910501961715
:102B400038F0682F70E06038710500F38FE7089562
:102B5000899FC001112470E00E942A23F4CF61E014
:102B600070E0D7CF81E008958D3C31F40E943D158F
:102B7000819580937D0208958E3C19F40E943D1545
:102B8000F8CF8F3C31F40E943D15819580937C02F3
:102B90000895803D19F40E943D15F8CF893D29F430
:102BA0000E947B1580937E0208958A3D21F40E9445
:102BB0007B158195F7CF8B3D31F40E947B15819574
:102BC00080937F0208958C3D19F40E947B15F8CF05
:102BD0009FE2980F983070F4815D990B21E030E00E
:102BE00001C0220F8A95EAF780917B02822B8093A5
:102BF0007B0208958D3D31F480917902816080934C
:102C0000790208958E3D21F4809179028260F7CF98
:102C10008F3DB9F7809179028460F1CF40917C02B9
:102C20008D3C59F480917D0287FF0DC010927D028A
:102C300041110BC01092780208C08E3C81F4809143
:102C40007D0218169CF3442381F080917E029091BE
:102C50007F02892B09F05AC01092770208958F3CA9
:102C600049F447FFF0CF10927C0280917D028111E0
:102C7000ECCFE0CF803D19F41416ACF3E4CF909183
:102C80007E02893D29F41916F4F610927E02DBCFFC
:102C90008A3D19F497FFD7CFF8CF90917F028B3DF3
:102CA00029F497FFD0CF10927F02CDCF8C3D19F43D
:102CB0001916CCF3C8CF9FE2980F983090F4815D3D
:102CC000990B21E030E0B90102C0660F771F8A95A9
:102CD000E2F7CB01809590917B02892380937B0260
:102CE000B2CF8D3D31F4809179028E7F809379024D
:102CF000AACF8E3D21F4809179028D7FF7CF8F3D51
:102D000009F0A1CF809179028B7FF0CF08950E94C6
:102D1000321C9C0190917C0280917D02982B21F0C5
:102D2000309376022093750290917E0280917F020B
:102D3000982B21F030937402209373028AE792E07B
:102D40000E94B619089586E0EAE7F2E0DF011D92DD
:102D50008A95E9F710927802109277021092790220
:102D60000895FC01828181110EC0838181110BC005
:102D70008481811108C091E08581811101C090E0BA
:102D8000892F8170089581E0FCCFA6E0B0E0EBECE4
:102D9000F6E10C94532386E0EAE7F2E0DE011196B7
:102DA00001900D928A95E1F710927C0210927D02BB
:102DB00010927E0210927F028B819C81892B89F078
:102DC00080917502909176020E94C11BAC01909196
:102DD00078029923C9F180910A018417150608F435
:102DE00040C08D819E81892B91F0809173029091DA
:102DF00074020E94C11BAC0190917702992309F4DF
:102E00006AC0809106018417150608F472C0BE01DD
:102E10006F5F7F4F8AE792E00E940A1B811105C015
:102E20008AE792E00E94B11681110E94871686E01F
:102E3000FE013196AAE7B2E001900D928A95E1F782
:102E40002696E3E00C946F2320910B018AE0289FE3
:102E5000900111242417350720F69F5F9093780284
:102E600002C09F3FD1F71B81112359F00E943D15ED
:102E70009FEF11160CF491E0899F802D112480930F
:102E80007C021C81112359F00E943D159FEF111601
:102E90000CF491E0899F802D112480937D02809114
:102EA0007C02882309F49DCF10917D02112309F43F
:102EB00098CF0E942F15882351F080937C02812F98
:102EC0000E942F15882329F080937D028ACF81E00C
:102ED000F4CF81E0F9CF209107018AE0289F90018B
:102EE00011242417350708F092CF9F5F9093770243
:102EF00002C09F3FD1F71D81112359F00E947B151D
:102F00009FEF11160CF491E0899F802D112480937E
:102F10007E021E81112359F00E947B159FEF11162E
:102F20000CF491E0899F802D112480937F02809181
:102F30007E02882309F46BCF10917F02112309F4DC
:102F400066CF0E942F15882351F080937E02812F37
:102F50000E942F15882329F080937F0258CF81E0AB
:102F6000F4CF81E0F9CFDC01ED91FC9111978491D0
:102F70003196ED93FC930895B0E0A0E0E2ECF7E128
:102F80000C944D23E82FF0E0E25DFE4FB490282F23
:102F900026952695269530E0F901E253FE4F0491DF
:102FA000877010E0082E02C0159507950A94E2F785
:102FB00001701127F901E254FE4FE490F12C082E24
:102FC00002C0F594E7940A94E2F791E0E922FF2425
:102FD000F901E255FE4FC491D0E002C0D595C795E6
:102FE0008A95E2F7C170DD27C62ED12C0115110597
:102FF00049F5E114F10431F086EE0E94A604C60101
:10300000009771F5B6018B2D0E942205C60100972D
:1030100079F5E114F104A1F50115110531F081EE06
:103020000E94EF04C6010097C9F5CD2B31F08CE268
:103030000E943A05C114D104C9F5CDB7DEB7E9E065
:103040000C94692381EE0E94A604C601009789F2C0
:10305000EFE9FFE03197F1F700C000000197F6CFEC
:10306000EFE9FFE03197F1F700C000000197C8CF0A
:10307000EFE9FFE03197F1F700C000000197C7CFFB
:1030800086EE0E94EF04C601009731F2EFE9FFE0FF
:103090003197F1F700C000000197F6CFEFE9FFE0AC
:1030A0003197F1F700C000000197BDCF8FE99FE095
:1030B0000197F1F700C0000091E0C91AD108BACF1A
:1030C000B0E0A0E0E6E6F8E10C944D238C017B0132
:1030D000D42F8AE0B82EC701F80109958823A9F0FA
:1030E000813009F058C0C701F8010995C82F813017
:1030F00089F4C701F80109950E943A058D2F90E0E7
:10310000009709F040C0C111E6CFCDB7DEB7E9E0C6
:103110000C946923823031F4C701F80109950E94AB
:10312000A604ECCF833031F4C701F80109950E9461
:10313000EF04E4CF843011F7C701F8010995C82FD7
:10314000D12CC12C2C2F2053330BC9012A3031052F
:1031500068F0C114D10491F28FE99FE00197F1F773
:1031600000C0000091E0C91AD108F3CFBC9C9001C7
:10317000BD9C300D11246C01C20ED31EC701F80195
:103180000995C82FDFCFEFE9FFE03197F1F700C0D5
:1031900000000197B5CF6D2F0E94BC179CCFA2E015
:1031A000B0E0E5EDF8E10C945423462F9A8389832F
:1031B000BE016F5F7F4F83EB97E10E9460182296FC
:1031C000E2E00C9470230F931F93CF93DF93C42FEF
:1031D000D22FFC0185818823C9F0409382020E948E
:1031E000321C909381028093800280E28C0F8830A1
:1031F00040F4C77081E001C0880FCA95EAF70E94C9
:103200004305DF91CF911F910F9108951091820294
:10321000141332C080918002909181020E94C11BE0
:10322000883C910548F5C0E2CD0F1D17B9F080E24A
:10323000810F883040F4177081E001C0880F1A9523
:10324000EAF70E944A05C83048F481E09D2F977044
:1032500001C0880F9A95EAF70E944305802F0E94CB
:103260003A05C83070F6D77081E001C0880FDA9552
:10327000EAF70E944A05C5CF80E28C0F883008F635
:10328000C77081E001C0880FCA95EAF7F2CF0F93AB
:10329000DB0188519C4787309105A0F5FC01E95D71
:1032A000FB4D0C943E2306E221EE41EE6AE17CE701
:1032B000CD010E94E31880E00F91089507E225EE0A
:1032C00045EE6BE17CE7F4CF06E221EE40EE68E1EB
:1032D0007CE7EECF07E225EE44EE69E17CE7E8CF3C
:1032E00006E221EE42EE6CE17CE7E2CF07E225EE5A
:1032F00046EE6DE17CE7DCCF08E221E045EE6EE1D1
:103300007CE7D6CF15968C91882319F01092820213
:10331000D3CF81E0D1CF9093880280938702089524
:10332000E0918702F0918802309729F00190F081B6
:10333000E02D0995089580E00895E0918702F091CD
:103340008802309721F00280F381E02D09950895DD
:10335000E0918702F0918802309739F026E0DC0195
:103360002C930480F581E02D09950895E091870262
:10337000F0918802309739F022E0DC012C9306802E
:10338000F781E02D09950895A3E0B0E0EAECF9E1BA
:103390000C94542320918502309186022817390716
:1033A000A1F09093860280938502E0918702F091CC
:1033B0008802309751F023E029839B838A8300841D
:1033C000F185E02DCE01019609952396E2E00C945B
:1033D0007023A3E0B0E0EFEEF9E10C9454232091C8
:1033E00083023091840228173907A1F09093840258
:1033F00080938302E0918702F0918802309751F028
:1034000024E029839B838A830084F185E02DCE010B
:10341000019609952396E2E00C947023CF93DF93F5
:10342000C0910201D091030122960E94801B81303D
:1034300081F48091920287FF0CC0C0910001D0916D
:10344000010122969EE180E0915028F4DF91CF9116
:10345000089596E0F8CF29912223B1F38F5FF4CF3E
:10346000CF93C82F811102C080E024C00E94801B2E
:10347000813011F58091920287FF1EC0EC2FE695F6
:10348000E695E695EE3180F780910001909101017B
:10349000E80FF92FF11D228130E0C77081E090E044
:1034A00002C0880F991FCA95E2F72823392381E0CB
:1034B000232BD1F2CF9108958091020190910301C5
:1034C000FC013296089621912C1721F0E817F90794
:1034D000D1F7CACF81E0EECF9C01FC0132969FEF7D
:1034E00080E04191461751F09F3F19F4411101C00E
:1034F000982F8F5F8630A9F79F3F09F40895290F11
:10350000311D97FD3A95F90162830895FC013296C9
:1035100008962191261303C0DF0111971C92E8172A
:10352000F907B9F70895E62FE695E695E695EE31A9
:1035300068F4E80FF92FF11D677021E030E001C059
:10354000220F6A95EAF78281822B82830895E62F03
:10355000E695E695E695EE3170F4E80FF92FF11D4A
:10356000677021E030E001C0220F6A95EAF72095EC
:103570008281282322830895CF93C82F0E94801B25
:103580006C2F813061F48091920287FF08C0809196
:103590000001909101010E94931ACF9108958091AA
:1035A0000201909103010E946C1AF7CFCF93C82FAC
:1035B0000E94801B6C2F813061F48091920287FF02
:1035C00008C080910001909101010E94A71ACF913B
:1035D000089580910201909103010E94861AF7CF0D
:1035E0000E94801B813079F48091920287FF0BC08A
:1035F000E0910001F091010132968EE1DF011D9210
:103600008A95E9F70895E0910201F091030132965D
:1036100086E0F4CFDC01FB0111969C91119781812A
:10362000981322C012968C911297882319F09281D8
:1036300089131AC013968C911397882319F09381DC
:10364000891312C015968C911597882319F09581CE
:1036500089130AC014969C91992321F081E024815A
:10366000291303C080E001C081E0817008950895AE
:103670000E94371B089581110EC081E080930F01D5
:1036800060910C0170910D0180910E0190910F01DC
:103690000E94381B089582E0F1CF83E080930F01F0
:1036A00060910C0170910D0180910E0190910F01BC
:1036B0000E94381B08950E943B1B089581E080936F
:1036C0000F0160910C0170910D0180910E0190919C
:1036D0000F010E94381B08950E945E1B089591E01F
:1036E000811101C090E090930E0160910C017091E6
:1036F0000D0180910E0190910F010E94381B0895D9
:1037000080910E01089580930D0160910C017091DC
:103710000D0180910E0190910F010E94381B0895B8
:1037200080910D01089580930C0160910C017091BE
:103730000D0180910E0190910F010E94381B089598
:1037400080910C010895089508950E94A41B089586
:10375000089508950E94A31B0895CF930E94A81B6B
:103760000E9413120E94A91BC0E08C2F0E945F11BF
:10377000811105C0CF5FC330C1F7CF91089581E0BB
:10378000FCCFCF93DF93EC010E94321C8C1B9D0B6E
:10379000DF91CF91089585B7806885BF85B7806830
:1037A00085BF08951F921FB61F9211248F939F9378
:1037B000AF93BF9380918902811113C080919A02C7
:1037C00090919B02A0919C02B0919D024196A11DF7
:1037D000B11D80939A0290939B02A0939C02B09398
:1037E0009D02BF91AF919F918F911F901FBE1F901F
:1037F00018958091A202843031F10E941D0410922C
:10380000890288E190E020E40FB6F894A8958093AF
:1038100060000FBE2093600083B7817F846083BF08
:1038200083B7816083BF7894889583B78E7F83BF89
:103830000FB6F894A895809160008861809360002D
:10384000109260000FBE08950E94A4070E942404F5
:10385000089582E084BD93E095BD9AEF97BD809373
:103860006E0008952FB7F89480919A0290919B0270
:10387000A0919C02B0919D022FBF08952FB7F8949C
:1038800060919A0270919B0280919C0290919D029E
:103890002FBF089578941F921FB61F9211248F9303
:1038A0009F93AF93BF9380919A0290919B02A091B6
:1038B0009C02B0919D020196A11DB11D80939A02B8
:1038C00090939B02A0939C02B0939D02BF91AF91F5
:1038D0009F918F911F901FBE1F90189581E080933C
:1038E000E00080E28093D8001092C9008FE19EE44E
:1038F0000197F1F700C0000087E090EBDC018093B6
:10390000AB029093AC02A093AD02B093AE0288E1FB
:103910009CE00FB6F894A895809360000FBE90933A
:103920006000FFCF88E19CE00FB6F894A8958093E3
:1039300060000FBE90936000FFCF9B01BA01909191
:10394000A2029430E9F48F708093E9009FEF809198
:10395000E800915085FD06C085ED8A95F1F70000DD
:103960009111F5CF8091E80085FF0AC050E040E05A
:10397000C9010E94A31E8091E8008E778093E80021
:10398000089543E050E0BC0182E00E949D1C089530
:1039900046E050E0BC0182E00E949D1C089540E298
:1039A00050E0BC0182E00E949D1C0895CF93DF93FC
:1039B000EC010E94801B48E050E0BE0181E00E94C3
:1039C0009D1C88E0FE01AAE8B2E001900D928A9564
:1039D000E1F7DF91CF9108958091A102811109C093
:1039E0000E9433200E9490208091E20084608093A6
:1039F000E20008951092A10208950E945E1B81E0EA
:103A00000E946F1B089560919E0281E0611101C0C8
:103A100080E00E944D1B08959091A20281E09430B5
:103A200009F080E060919E020E945B1B089542E0D5
:103A300061EC81E00E94AF1F42E261EC82E00E94F3
:103A4000AF1F9091A20281E0943009F080E0609174
:103A50009E020E943B1B08958091A402833009F4CA
:103A600061C030F48130D1F1823009F49EC00895F4
:103A70008A3009F48AC08B3009F46FC0893009F0AC
:103A800050C08091A302813209F04BC08091A702FF
:103A90009091A802029708F044C08091E800877FC7
:103AA0008093E8008091E80082FF37C09091F30096
:103AB0008091F200029731F48091F100813011F091
:103AC000863021F48091F1000E94831B8091E800F0
:103AD0008B778093E8000E94E31F23C08091A302AC
:103AE000813AF9F48091E800877F8093E800809123
:103AF000A7029091A802892B61F468E08AE892E01D
:103B000070E00E94F21E8091E8008B778093E800BD
:103B1000089560E090E080E0F3CF8091A2028111EF
:103B2000C1CF08958091A302813AD9F78091A7026D
:103B30009091A802892BA9F78091E800877F809354
:103B4000E8008091E80080FFFCCF0E94801B8093FA
:103B5000F1008091E8008E77BCCF8091A302813282
:103B600001F78091A7029091A802892BD1F680914C
:103B7000E800877F8093E8000E94E31F8091A50200
:103B80000E946F1B0E94A40708958091A3028132B6
:103B900041F68091E800877F8093E8000E94E31F50
:103BA0008091A6020E94931B08958091A302813AFE
:103BB00009F0B7CF8091E800877F8093E80080917B
:103BC000E80080FFFCCF0E94A01BC1CF84B7877F95
:103BD00084BF0FB6F894A8958091600088618093A7
:103BE0006000109260000FBE80E890E00FB6F8947D
:103BF00080936100909361000FBE0E946C1B08953A
:103C00000E9433200E949020E2EEF0E080818460E8
:103C1000808378940E940F23089580E191E00E94B0
:103C20008B1908958091A202853031F48091A2020F
:103C3000853019F00E94241C08950E94F91B0E94EF
:103C4000AD1B882399F38091A002882379F30E9409
:103C50008D1E0E94A407EACF08959A014091A902FF
:103C60005091AA020E94351E0895492F55274330CE
:103C7000510519F168F44130510509F444C042304E
:103C8000510509F445C090E080E050E040E025C0D7
:103C90004132510549F142325105A9F784E490E0DF
:103CA0004DE153E061157105C1F086EB90E047E608
:103CB00052E06130710589F0E6CF99278130910596
:103CC00081F0009729F00297F1F6EEEDF1E002C0E5
:103CD000E6E1F2E0849190E0AF01F9015183408385
:103CE0000895EEEFF1E0F6CF89E090E04CE252E08B
:103CF0006115710591F389E090E045E452E061308F
:103D0000710559F3C0CF82E190E045E552E0E5CF7F
:103D10008BE390E04AE152E0E0CF80E189BD82E1AF
:103D200089BD09B400FEFDCF8091D8008F7D8093BE
:103D3000D8008091E00082608093E0008091E000F4
:103D400081FDFCCF0895AF92BF92CF92DF92FF9298
:103D50000F931F93CF93DF936C01EB018A010E94B5
:103D60000220F82E811123C00115110539F0F80148
:103D700080819181C81BD90BC80ED91EB12CA12CF2
:103D80002097A9F08091E80085FD22C08091E8008D
:103D90008E778093E80001151105A1F0F80180816C
:103DA0009181A80EB91EB182A08285E0F82E8F2DD8
:103DB000DF91CF911F910F91FF90DF90CF90BF9037
:103DC000AF9008950E9402208823D1F2F82EEFCF01
:103DD000F60181916F018093F1002197FFEFAF1AF7
:103DE000BF0ACECFFC018091A9029091AA0286174A
:103DF0009707A0F06115710529F49091E8009E776E
:103E00009093E80090E06115710551F4911108C09C
:103E10008091E80082FF34C080E00895BC01F2CFB9
:103E20008091A2028823C1F18530C1F18091E80020
:103E300083FD30C08091E80082FDEACF8091E800E8
:103E400080FFE1CF8091F3002091F200382F6115BF
:103E5000710519F02830310558F091E0283031050E
:103E600009F090E02091E8002E772093E800CBCF76
:103E700081918093F100615071092F5F3F4FE7CF2F
:103E80008091A202882341F0853041F08091E800C2
:103E900083FFBECF81E0089582E0089583E0089516
:103EA000FC018091A9029091AA0286179707A0F0C1
:103EB0006115710529F48091E8008E778093E80000
:103EC00090E06115710551F4911108C08091E800EE
:103ED00082FF35C080E00895BC01F2CF8091A2023C
:103EE0008823C9F18530C9F18091E80083FD31C094
:103EF0008091E80082FDEACF8091E80080FFE1CF69
:103F00008091F3002091F200382F6115710519F0AE
:103F10002830310558F091E02830310509F090E063
:103F20008091E8008E778093E800CBCF84918093D6
:103F3000F1003196615071092F5F3F4FE6CF8091BC
:103F4000A202882341F0853041F08091E80083FF90
:103F5000BDCF81E0089582E0089583E00895982F11
:103F6000973028F08F708093E90081E00895909356
:103F7000E900242F762F50E0981731F07091EC0073
:103F80002091ED005091F00021FD02C09F5FE8CF2D
:103F90003091EB003E7F3093EB003091ED003D7FA0
:103FA0003093ED003091EB0031603093EB00709373
:103FB000EC002093ED005093F0002091EE0027FDDF
:103FC000E5CF80E008958091A30287FF13C0809120
:103FD000E80082FF06C08091E8008B778093E800BC
:103FE00004C08091A2028111F2CF08958091A202B3
:103FF0008823D9F38091E80080FFF8CF8091E80012
:104000008E77ECCF2091E4003091E50095E6A90190
:104010002091EC00822F817020FF06C08091E80083
:1040200080FF06C080E008952091E80022FD1AC0BC
:104030008091A202882389F0853089F08091EB007D
:1040400085FD0FC02091E4003091E5004217530731
:10405000F9F29150E1F684E0089582E0089583E05A
:10406000089581E008950E94A2200E94AA20E0EE17
:10407000F0E0808181608083E8EDF0E080818F77DF
:10408000808319BCA7EDB0E08C918E7F8C938081EA
:104090008F7E80831092A10208950F931F93CF9378
:1040A000DF930E94A2200E94AA20C8EDD0E0888160
:1040B0008F77888388818068888388818F7D8883D3
:1040C00019BC1092A20210929E021092A0021092AD
:1040D0009F0200EE10E0F80180818B7F8083888151
:1040E0008160888342E060E080E00E94AF1FE1EEE3
:1040F000F0E080818E7F8083E2EEF0E0808181605D
:104100008083808188608083F80180818E7F8083B6
:10411000888180618883DF91CF911F910F910895ED
:10412000E8EDF0E080818F7E8083E7EDF0E0808134
:104130008160808384E082BF81E08093A1020E943D
:104140004D200895E8EDF0E080818E7F808310920D
:10415000E20008951092DA001092E10008951F9293
:104160000F920FB60F9211242F933F934F935F93AB
:104170006F937F938F939F93AF93BF93EF93FF932F
:104180008091E10082FF0BC08091E20082FF07C0B6
:104190008091E1008B7F8093E1000E940E2380914B
:1041A000DA0080FF19C08091D80080FF15C080918F
:1041B000DA008E7F8093DA008091D90080FF96C06C
:1041C00080E189BD82E189BD09B400FEFDCF81E0B7
:1041D0008093A2020E94EC1C8091E10080FF19C034
:1041E0008091E20080FF15C08091E2008E7F809375
:1041F000E2008091E20080618093E2008091D8002B
:1042000080628093D80019BC85E08093A2020E944E
:10421000031D8091E10084FF2BC08091E20084FFA8
:1042200027C080E189BD82E189BD89B5982F917051
:1042300080FFFBCF8091D8008F7D8093D800809144
:10424000E1008F7E8093E1008091E2008F7E809379
:10425000E2008091E20081608093E20080919E0202
:10426000882309F449C084E08093A2020E940C1DB7
:104270008091E10083FF29C08091E20083FF25C087
:104280008091E100877F8093E10082E08093A20229
:1042900010929E028091E1008E7F8093E1008091D8
:1042A000E2008E7F8093E2008091E2008061809343
:1042B000E20042E060E080E00E94AF1F8091F000E9
:1042C00088608093F0000E94FD1CFF91EF91BF91E8
:1042D000AF919F918F917F916F915F914F913F919E
:1042E0002F910F900FBE0F901F90189519BC109230
:1042F000A2020E94FA1C70CF8091E30087FD93E038
:104300009093A202B3CF1F920F920FB60F92112477
:104310002F933F934F935F936F937F938F939F93CD
:10432000AF93BF93CF93DF93EF93FF93D091E900C7
:10433000DF708091EC00C82FC17080FDC0E8109242
:10434000E9008091F000877F8093F00078940E94CC
:10435000C7211092E9008091F00088608093F000FE
:10436000CD2BCF70C093E900FF91EF91DF91CF91FA
:10437000BF91AF919F918F917F916F915F914F917D
:104380003F912F910F900FBE0F901F901895AAE2AA
:10439000B0E0EDECF1E20C94532383EA92E020913B
:1043A000F100FC012193CF01F2E08B3A9F07B9F7AE
:1043B0000E942C1D8091E80083FF1EC18091A30202
:1043C0009091A4029A3008F017C1E92FF0E0E25D65
:1043D000FB4D0C943E23803899F0823809F00CC1D3
:1043E0008091A7028F70873008F006C18093E900A2
:1043F0008091EB0085FB882780F91092E90006C0C8
:1044000080919F029091A002911182609091E800AA
:10441000977F9093E8008093F1001092F1008091D3
:10442000E8008E77E5C0882309F4D3C0823009F014
:10443000E3C08091A5028111D6C08091A7028F7040
:104440002FEF280F263008F0D7C08093E900209185
:10445000EB0020FFC8C0933031F48091EB00806204
:104460008093EB00C0C09091EB0090619093EB00C3
:1044700021E030E001C0220F8A95EAF72093EA009C
:104480001092EA008091EB008860EACF8111B4C0FD
:104490001091A5021F778091E3008078812B809393
:1044A000E3008091E800877F8093E8000E94E31F8B
:1044B0008091E80080FFFCCF8091E30080688093CA
:1044C000E30082E0111183E08093A20295C080583E
:1044D000823008F091C08091A5029091A6028C3D97
:1044E00023E09207A1F583E08A838AE289834FB7AC
:1044F000F894DE01139620E03EE051E2E32FF0E075
:1045000050935700E49120FF03C0E295EF703F5FA6
:10451000EF708E2F90E0EA30C0F0C7968D939D9398
:104520002F5F243159F74FBF8091E800877F809338
:10453000E8006AE270E0CE0101960E94F21E8091CE
:10454000E8008B778093E80057C0C096E7CF609172
:10455000A7027091A802AE014F5F5F4F0E942D1E0F
:10456000BC01892B09F448C09091E800977F909393
:10457000E80089819A810E94501FE1CF8038E1F5DF
:104580008091E800877F8093E80080919E0280936D
:10459000F10045CF811130C09091A502923060F5B5
:1045A0008091E800877F8093E80090939E020E94AC
:1045B000E31F80919E02882311F084E005C0809162
:1045C000E30087FDFACF81E08093A2020E94171DCD
:1045D00013C08091A502813079F481E0933009F015
:1045E00080E08093A0021092E9008091E800877F2C
:1045F0008093E8000E94E31F8091E80083FF0AC0D7
:104600008091E800877F8093E8008091EB008062D2
:104610008093EB00AA96E3E00C946F230895CF9368
:104620008091A2028823A1F0C091E900CF709091FF
:10463000EC00892F817090FD80E8C82B1092E90072
:104640008091E80083FD0E94C721CF70C093E900EC
:10465000CF91089597FB072E16F4009407D077FDAD
:1046600009D00E947B2307FC05D03EF490958195EC
:104670009F4F0895709561957F4F0895EE0FFF1F2E
:104680000590F491E02D09942F923F924F925F9202
:104690006F927F928F929F92AF92BF92CF92DF9252
:1046A000EF92FF920F931F93CF93DF93CDB7DEB7B7
:1046B000CA1BDB0B0FB6F894DEBF0FBECDBF09944B
:1046C0002A88398848885F846E847D848C849B84A2
:1046D000AA84B984C884DF80EE80FD800C811B81B0
:1046E000AA81B981CE0FD11D0FB6F894DEBF0FBEDF
:1046F000CDBFED010895AA1BBB1B51E107C0AA1F46
:10470000BB1FA617B70710F0A61BB70B881F991F72
:104710005A95A9F780959095BC01CD010895FB01AC
:10472000DC0104C08D910190801921F4415050406A
:10473000C8F7881B990B0895FB01DC0102C00190AA
:104740000D9241505040D8F70895F999FECF92BD8F
:1047500081BDF89A992780B50895A8E1B0E042E0BC
:1047600050E00C94E923DC01A40FB51F41505040E8
:1047700048F0CB01840F951F2E910E94C423415015
:104780005040D0F70895262FF999FECF92BD81BDF4
:10479000F89A019700B4021639F01FBA20BD0FB67F
:1047A000F894FA9AF99A0FBE08950396272F0E945B
:1047B000C4230E94C323252F0E94C423242F0C94BA
:1047C000C4230196272F0E94C4230C94C323DC0129
:1047D000CB01FC01F999FECF06C0F2BDE1BDF89A0C
:1047E000319600B40D9241505040B8F70895F894B6
:1047F000FFCF92059205D005D00535065106C105BB
:10480000C1055606C706D606D606AB141F15B31447
:104810007D148114B7148514BB14C7149114181592
:104820009514CB149914CF14F7149D14D314FE14BB
:10483000A314D914E1148914BF148D14C314A7143C
:10484000DD14ED14071516157714AF142615641929
:104850006A1953195E19701976197C19EB21132204
:10486000FC221322FC2246226722FC22BE22CA22FC
:1048700027024702280850011E0A14010000010007
:10488000901BD61CCF1CC81CC11CE200E900EA002A
:10489000B500B600B700CD008301CC008A019201BB
:1048A00094012102230224022502260227022A0261
:1048B000B300B4006F0070009F01CB019F02A00203
:1048C000818283E200E900EA00B500B600B700CDBE
:1048D000008301CC008A0192019401210223022469
:1048E000022502260227022A02B300B4006F0070DC
:1048F000009F01CB019F02A002818283F7313332F6
:1049000036F6343500FF0100010000FFFF00000112
:044910000001FF00A3
:00000001FF
