:100000000C940A010C9427010C9427010C942701ED
:100010000C9427010C9427010C9427010C942701C0
:100020000C9427010C9427010C94E11C0C94B51D31
:100030000C941D180C9427010C9427010C94270193
:100040000C9427010C9427010C9427010C94270190
:100050000C9427010C9495180C9427010C942701FB
:100060000C9427010C9427010C9427010C94270170
:100070000C9427010C9427010C9427010C94270160
:100080000C9427010C9427010C9427010C94270150
:100090000C9427010C9427010C9427010C94270140
:1000A0000C9427010C9427010C94270129001E00B1
:1000B0001F002000007C1E001F00200021002200E5
:1000C0001E001F002000210022001E001F00200033
:1000D000210022001E001F002000210022001A0320
:1000E0003500780035005F006D006100630072002C
:1000F0006F00700061006400000008036D003400B0
:10010000300000000403090409023B00020100A0C2
:10011000FA09040000010301010009211101000195
:1001200022440007058103080001090401000103BE
:10013000000000092111010001227B000705820354
:100140002000011201000200000008EDFE00000185
:10015000000102000105010902A10185020901A1B6
:100160000005091901290815002501950875018167
:10017000020501093009311581257F950275088135
:100180000609381581257F950175088106050C0A39
:1001900038021581257F950175088106C0C00501CB
:1001A0000980A101850319012AB700150126B700AE
:1001B000950175108100C0050C0901A10185041984
:1001C000012AA002150126A002950175108100C028
:1001D00005010906A101050719E029E71500250118
:1001E00095087501810295017508810105071900BF
:1001F00029FF150026FF00950675088100050819DE
:1002000001290515002501950575019102950175D6
:10021000039101C011241FBECFEFDAE0DEBFCDBFD6
:1002200011E0A0E0B1E0E4EDF0E402C005900D9231
:10023000A439B107D9F722E0A4E9B1E001C01D92C9
:10024000AA35B207E1F70E94DA100C9429200C9429
:100250000000811112C0653080F4453070F4E42F45
:10026000F0E085E0689FE00DF11D1124EE0FFF1F07
:10027000E455FF4F85919491089581E090E00895B1
:100280000E942901089581E008950E944301089584
:100290000E944301089581E008950E94430108955A
:1002A0000E94430108950E94500108950895089501
:1002B0000E945601089508950895A6E0B0E0E3E68F
:1002C000F1E00C94851F49835A839E8330919B01F2
:1002D00089819A8131111AC03E81332399F02223FA
:1002E00089F00E94A607182F682F89819A810E94A1
:1002F000820769817A81812F0E94890E2696E3E028
:100300000C94A11F0E949407182FF3CF0E94A607F8
:1003100069817A81F1CFFC01262F40815181628170
:100320007381848195810E945D010895CF93DF934D
:10033000EC0161E00E948B01BE010E94450188230F
:1003400059F061E0CE010E948B01BE010E9448017C
:100350008170DF91CF91089580E0FACF0F931F93C2
:10036000CF93DF93EC0160E00E948B018C01BE0112
:100370000E945701BE01C8010E945801DF91CF9130
:100380001F910F91089521E030E0A90102C0440FB0
:10039000551F8A95E2F7CA010E94A4060895CF93DB
:1003A000C82F81E090E00C2E02C0880F991F0A949C
:1003B000E2F70E94E20B8C2F0E94C301CF910895B7
:1003C00081E008950E94E00108950E94E0010895EF
:1003D000CF93C82F0E9457068C2F0E94E2018C2FCA
:1003E0000E94E5012FEF84E39CE021508040904083
:1003F000E1F700C00000CF91089581E00E94E8017C
:100400000E94B918089580E00E94E8010E94CA186D
:1004100008950F931F93CF93DF938C0161E00E94A7
:100420008B01EC01B8010E944D01811106C080E0F2
:10043000DF91CF911F910F910895B801CE010E94D5
:1004400053018823A1F3B801CE010E942E16882300
:1004500071F3B801CE010E946A12882341F3B801FA
:10046000CE010E944012882311F3B801CE010E94F0
:100470008D0F8823E1F2F8018581882361F0C33074
:10048000FCE7DF07E9F058F4C115ECE7DE07A9F057
:10049000C130DC47B9F0C8010E944B01C9CFCB3550
:1004A0008CE7D807A9F0CC35ECE7DE0771F0CA3548
:1004B000DC4789F70E94BD0BEECF0E94FD01B7CF4C
:1004C0000E94C50B0E940302B2CF0E94B30BE3CF80
:1004D0000E94C10BE0CF0E945B010E94F0170E94B6
:1004E0008F0208950E9493020E945C010E94F517FA
:1004F000089581E008950895CF93DF93D82F0E9447
:100500007902C82F882319F08D2F0E947B028C2F2F
:10051000DF91CF91089508950E947C02089580E0B4
:100520000E948C0208950E9477160E948C02089502
:10053000CF930E947716C82F809196018C1779F07F
:10054000C09396010E948918609397017093980157
:100550008093990190939A018C2F0E948C02CF91E5
:100560000895ADE0B0E0E7EBF2E00C94861F488719
:1005700059876A877B878C879D8791110E94F30A30
:100580001F8286E0FE013896DE01119601900D92E1
:100590008A95E1F78D8181110DC029813A814B81C6
:1005A0005C816D817E818F810E943D0A2D96E2E003
:1005B0000C94A21FCE0101960E9496018111EDCFED
:1005C000F5CFFC012481213021F4808191810E94AA
:1005D000D8070895662329F00E94CB130E949E1429
:1005E00008950E942514FACFCF93C82F8823C9F00D
:1005F0008238C9F40E94841681FD13C089E30E94E9
:100600003A170E94620B2FEF87EE93E02150804053
:100610009040E1F700C0000089E30E9442170E9469
:10062000620BCF9108958338A1F40E94841680FD57
:10063000F8CF83E50E943A170E94620B2FEF81EEFC
:1006400094E0215080409040E1F700C0000083E535
:10065000E4CF8438A1F40E94841682FDE2CF87E4BF
:100660000E943A170E94620B2FEF81EE94E0215016
:1006700080409040E1F700C0000087E4CECF8CEFCF
:100680008C0F813A98F48C2F0E9485118111C9CF6B
:100690008C2F0E94FF16882329F08C2F0E9442176E
:1006A0000E94620B8C2F0E943A17B9CF80E28C0F08
:1006B000883048F4C77081E001C0880FCA95EAF716
:1006C0000E94D60AACCFEBE5EC0FE33040F4F0E04B
:1006D000E25BFE4F808190E00E94A016A2CFE8E589
:1006E000EC0FEB3150F4F0E0EE0FFF1FE85EFE4F31
:1006F000808191810E94C51694CF83E38C0F833152
:1007000008F08FCF61E08C2F0E94EA028ACF882305
:1007100009F456C0823879F40E94841681FF50C0D3
:1007200089E30E943A170E94620B89E30E944217F4
:100730000E94620B0895833859F40E94841680FF4A
:100740003FC083E50E943A170E94620B83E5EECF1B
:10075000843859F40E94841682FF32C087E40E94D4
:100760003A170E94620B87E4E1CF9CEF980F913A11
:10077000E8F290E2980F983050F4877091E001C051
:10078000990F8A95EAF7892F0E94DC0AD1CF9BE561
:10079000980F933028F490E080E00E94A01608950E
:1007A00098E5980F9B3128F490E080E00E94C516F0
:1007B000089593E3980F933118F460E00E94EA02E1
:1007C00008951F93CF93DF93182FEB010E94F4023B
:1007D000209739F4812F0E948703DF91CF911F91D9
:1007E00008958FE99FE00197F1F700C0000021977D
:1007F000EFCF70E060E0893311F460E570E00E94B3
:10080000E1030895882321F00E94D60A0E94620B1A
:100810000895882321F00E94DC0A0E94620B08954B
:10082000B0E0A0E0E6E1F4E00C947F1F6C01D62F6D
:10083000C72FFC011581068102950F700E94CC0A1A
:10084000E82E8823F9F0E12E1123E1F08C2F807F30
:10085000803461F080E28D0F883008F18C2F807E2B
:10086000803221F4D230D8F00023C9F080913E02CA
:1008700082FF15C082E00E94870B0E94CC0A91E0A3
:10088000E82EE926BC2EB2949FE0B922FBE0FB15CE
:10089000B8F1EB2DF0E0E55DFF4D0C94701FE12CFD
:1008A000F1CF0C2F0F70C07F11F00295007F112344
:1008B00099F0002359F080E28D0F883010F0D111AB
:1008C00007C0802F0E94D60A0E94620B8D2F48C05D
:1008D000802F0E94E60AF8CF8D2F0E948703002305
:1008E00079F080E28D0F883010F0D11104C0802F94
:1008F0000E94DC0A03C0802F0E94EC0A0E94620B57
:10090000EB2DE850FF0B349708F06BC10E9477166F
:100910000E948C02CDB7DEB7E9E00C949B1F2C2F10
:100920002F70F22EC07FC03219F0F29480EFF822BF
:10093000DD2341F0D130C9F1112309F443C0002374
:10094000E9F0C4CF80913E0282FD14C0112359F01A
:10095000FF2029F08F2D0E94D60A0E94620B80E0B2
:100960000E94F402CDCF80E00E948703FF2041F275
:100970008F2DBECF112369F0011104C08F2D0E946D
:100980000204BECF013009F0BBCF8F2D0E940A0BAD
:10099000B7CF0111B5CF8F2D0E9409048F2D0E9472
:1009A000160B8F2D0E94FA0AABCF112321F00630CF
:1009B00008F0A6CFE3CF053008F0A2CF8F2D0E941C
:1009C00009049ECF0023D1F3D93349F43FEF87EEDA
:1009D00093E0315080409040E1F700C000008D2F3F
:1009E0000E9487038DCF8C2F86958695837069F042
:1009F000813009F085CF8D2F9C2F9370111102C08B
:100A000080E090E00E94C5167BCF8D2F9C2F9370C5
:100A1000111102C080E090E00E94A01671CF612FFA
:100A20008D2F0E94EA026CCF8C2F8370A1F51111DB
:100A300067CF4D2F429546954770440F440F2D2F99
:100A40002F7030E0042E02C0220F331F0A94E2F709
:100A500090E080E0D4FF09C08FE090E002C0880FF2
:100A6000991F4A95E2F780959095C695C695C370F3
:100A7000822B932BC23049F058F4C13019F00E94F8
:100A8000B0063ECF0E94A7063BCF0E94B90638CFE2
:100A90000E94A40635CF8695112311F08C2F81700A
:100AA000882309F42DCF4D2F429546954770440F6A
:100AB000440F2D2F2F7030E0042E02C0220F331F61
:100AC0000A94E2F790E080E0D4FF09C08FE090E064
:100AD00002C0880F991F4A95E2F780959095C695B8
:100AE000C695C370822B932BC23049F058F4C130A5
:100AF00019F00E941B0704CF0E94120701CF0E9429
:100B00002407FECE0E94C806FBCECF70112329F029
:100B10008C2F0E94E0068D2F32CF8D2F0E9409046A
:100B20008C2F0E94F006ECCED23F41F160F4D03F12
:100B3000B9F0D13F81F0112309F443C00111C6CEB1
:100B40008C2F8F711FC0D33F01F1D43FA1F780914B
:100B50003E0282FD24C08C2F8F71112311F312C02D
:100B6000112341F0053008F0CBCE8C2F8F710E94FD
:100B70000207C6CE063008F0C3CEF7CF8C2F8F7198
:100B80001111CFCF0E94E006BBCE112329F08C2F8C
:100B90008F710E94D406B4CE0E94CF06B1CE11232D
:100BA00031F063E08C2F8F710E94690BA9CE81E038
:100BB0000E94870B023008F4A3CE82E00E94870BCC
:100BC0009FCE002359F0D93309F009CFEFEFF7EEAC
:100BD00023E0E150F0402040E1F7FFCE8C2F8F71F1
:100BE000A0CFEE2009F496CE0E94C80A80FD92CED6
:100BF000F60115820E94C20A0E94E006C6010E9408
:100C00001E060E94C20A0E94F00684CE0F931F9314
:100C1000CF93DF93EC01688179818D810E94E30796
:100C20008C010E942D070E94A306B801CE010E94EC
:100C30001004DF91CF911F910F910895CF93DF930F
:100C4000EC018C81882399F0CE010E940902811168
:100C500011C00E94CC0A882351F08D81882339F07D
:100C600080913E0282FF03C082E00E94870BDF91E9
:100C7000CF910895CE010E940606CE010E94AE01DA
:100C8000F6CF90E080E00E94A01690E080E00E9405
:100C9000C5160E94F30A0E94620B0E94BA140E94B9
:100CA0009E1408950E944A170E94410608950E94CA
:100CB000E30A0E945206089592959F70963091F033
:100CC00058F4925F9F70923058F4803F19F030F4DE
:100CD000883E30F481E008959A5FF4CF843FD1F3E9
:100CE00080E00895883EB0F3813FD1F7F3CFFC0157
:100CF0002481222339F0808191810E94D8070E94AB
:100D00005C06089580E00895A6E0B0E0EAE8F6E029
:100D10000C94861F2696E2E00C94A21FA7E0B0E098
:100D2000E4E9F6E00C94861F2796E2E00C94A21FFB
:100D300008950E94980608950E9499069093AF0125
:100D40008093AE01089508950E949C060895209115
:100D5000AE013091AF01822B932B0E949C06089527
:100D60002091AE013091AF01822393230E949C0613
:100D700008952091AE013091AF01822793270E9400
:100D80009C0608950E94980608950E94C206089540
:100D90000E94C5069093AD018093AC01089590E048
:100DA00080E00E94C806089521E030E0A90102C059
:100DB000440F551F8A95E2F7CA010E94C80608959C
:100DC00021E030E002C0220F331F8A95E2F78091C4
:100DD000AC019091AD01822B932B0E94C80608951F
:100DE00021E030E002C0220F331F8A95E2F7209500
:100DF00030958091AC019091AD01822393230E94A4
:100E0000C806089521E030E002C0220F331F8A9502
:100E1000E2F78091AC019091AD01822793270E9467
:100E2000C80608952091AC013091AD01822B932B1F
:100E30000E94C80608952091AC013091AD01822333
:100E400093230E94C80608952091AC013091AD0112
:100E5000822793270E94C80608950895262F277099
:100E600091E001C0990F2A95EAF723E076956795FE
:100E70002A95E1F7660F771F660F771FFA01E60FD5
:100E8000F71F50E040E0682F70E08191DF0111977B
:100E90009B01042E02C0369527950A94E2F7217033
:100EA00021952827292328272C934F5F5F4F443013
:100EB000510559F70895A82FA77023E096958795B7
:100EC0002A95E1F7880F991F880F991FFB01E80FFA
:100ED000F91F50E040E080E0219130E00A2E02C08E
:100EE000369527950A94E2F721703327042E01C026
:100EF000220F0A94EAF7822B4F5F5F4F443051056F
:100F000059F70895262F953070F4853060F4682FD6
:100F100070E085E0989F600D711D11244CE951E04F
:100F2000822F0E942E070895292F953068F485306E
:100F300058F490E06CE971E035E0239F800D911D3D
:100F400011240E945B07089580E00895B0E0A0E0BE
:100F5000ECEAF7E00C947F1F7C010091AC0110914A
:100F6000AD018091AE019091AF01082B192BCFE01C
:100F7000D0E0CC24C394D12CBC2EC6010C2E02C0D0
:100F8000880F991F0A94E2F780239123892B49F453
:100F9000219790F7B12C8B2DCDB7DEB7E9E00C94FB
:100FA0009B1FB7018C2F0E94950E019789F3F3CFF9
:100FB000CF93DF93EC010E94A607BE010E94950E1D
:100FC000DF91CF9108951F93CF93DF93EB01909121
:100FD0009B01992339F0CB010E94D807DF91CF9173
:100FE0001F910895882369F0CB010E94A607182F4E
:100FF000682FCE010E948207BE01812F0E94950EAC
:10100000EDCFCB010E949407182FF6CF1F93CF93FB
:10101000DF93C091B00117E08091B1018C1304C03F
:10102000DF91CF911F910895D0E01C9FF0011D9F8B
:10103000F00D1124EE54FE4F208131814281538105
:101040006481758186810E948E062196C770E4CFE7
:101050002091EA013091EB014091EC015091ED01BA
:101060006091EE017091EF018091F0010E948E0677
:101070000895CF93DF938091F001807F09F04DC0F8
:101080008091EF01882309F448C0E091B0015091AC
:10109000B101C091EB01D091EA016091EC01709136
:1010A000ED0147E05E17C9F18E2F90E0E49FF0015B
:1010B0001124EE54FE4F2481222391F1489FF00128
:1010C000499FF00D1124DF01AE54BE4F11962C91B3
:1010D00011972C1325C02C912D1322C015962C91FD
:1010E000159721111DC012962D913C91261B370B8F
:1010F000283C3105A8F48091F0018F7080618093C5
:10110000F001E854FE4F80818F70806180838AEE09
:1011100091E00E941E060E940608DF91CF9108957B
:10112000FC013196E770BECF482F2091B00190911D
:10113000B10157E0291302C080E0089530E0529FCA
:10114000F001539FF00D1124EE54FE4F818168137E
:1011500006C08081481303C085818111EECF2F5FC7
:101160003F4F2770E7CFA4E1B0E0E9EBF8E00C9443
:101170007C1F8C0186E0F801DE011F9601900D9224
:101180008A95E1F7F8018481E5809AEEA92E91E035
:10119000B92E9091EE0191111FC08823D1F0EE205D
:1011A000A9F0C8010E947706F82E882379F087E01D
:1011B000F801D50101900D928A95E1F7C5010E94D1
:1011C000E1020E9439080E9428085FC0C8010E94FD
:1011D0001E06FF24F39459C0C080D1808280938082
:1011E000F090EF012091EC013091ED01A401421B40
:1011F000530BFF2009F4F9C0483C510508F0A7C083
:10120000882309F442C09091EB018091F001282FCE
:10121000207F09F05CC09D1116C09091EA01C912AF
:1012200012C0E1104EC08F7080618093F0010E9467
:1012300028088AEE91E00E941E068091F001F801D4
:101240008683F12C22C0E1103CC06D2D8C2D0E94B4
:1012500094086D2D8C2D0E949408E82E8111F1CFF9
:10126000CF86D88A8F8598890E94D807292F229502
:101270002F70243078F49F702230A8F09923B9F0B1
:10128000F8019681907F99F4FE2C8F2D6496ECE006
:101290000C94981F2A5F2F70223068F0C8010E94BA
:1012A0001E06EF2CF1CF992311F0882369F3805E9D
:1012B000883050F3F3CF803F38F3815F833070F78D
:1012C000E3CF8091F00181608093F001BACF9D114E
:1012D00013C09091EA01C9120FC0E1100DC08683BE
:1012E000C8010E941E0687E0F801AAEEB1E0019055
:1012F0000D928A95E1F767CFC8010E94770688238F
:1013000009F464CFEE2009F461CF8091F0018032BE
:1013100088F02091EA013091EB01398728879B867C
:101320008A869091EE019C871D868E87CE01089655
:101330000E941E0687E0F801AAEEB1E001900D922E
:101340008A95E1F70E9439080E94280842CF9091BF
:10135000F001292F207FA1F4682D9A8A898AA6019D
:101360007A899E2D0E9484068AEE91E00E941E06D4
:1013700087E0F50111928A95E9F70E94280861CF6C
:10138000882309F482CF8091EB018D1110C08091E8
:10139000EA01C8120CC0E1100AC09683C8010E947D
:1013A0001E0687E0F50111928A95E9F76ECFC80114
:1013B0000E947706882309F409CFEE2009F406CFAE
:1013C0008091F001803208F4B5CF2091EA0130918C
:1013D000EB013A8329839C828B829091EE019D835D
:1013E0001E828F83CE010196A3CF483C5105B8F5EC
:1013F000882309F4EECEFE2CEE2009F4E7CE80918E
:10140000EB018D111EC08091EA01C8121AC08091B3
:10141000F00180FD0DC0982F907F51F08683903FA2
:1014200009F45ECF982F907F905F8F70892B57CFF4
:1014300087E0F801AAEEB1E001900D928A95E1F7FC
:1014400024CFC8010E947706811174CF8091F001EA
:1014500081608093F001C8010E941E0616CF682D9E
:101460009A8A898AA6017A899E2D0E94840687E03D
:10147000F50111928A95E9F7A6CEAEE0B0E0E3E47B
:10148000FAE00C94851F288739874A875B876C8729
:101490007D878E87CE0108960E94B3088823B1F01D
:1014A0006C85662341F0288539854A855B857D8575
:1014B0008E850E948E0617E08091B0019091B10157
:1014C00089133DC02E96E3E00C94A11F87E0FE0136
:1014D0003896DE01119601900D928A95E1F78C8580
:1014E000882349F32091B10130E0C901019687704A
:1014F00099274091B0014817190699F097E0929FFB
:10150000D001939FB00D1124AE54BE4FFE01319611
:1015100001900D929A95E1F78093B1010E9406081F
:10152000CACF0E9457061092B1011092B00187E015
:10153000EAEEF1E0DF011D928A95E9F7BCCF819FC9
:10154000C00111248E549E4F0E94B308882309F4D1
:10155000B9CFE091B0011E9FF0011124EE54FE4F6F
:1015600020813181428153816481758186810E940D
:101570008E068091B00190E0019687709927809344
:10158000B0019ACF8091F901869586958695089548
:101590008091F901877008959091F901977081E029
:1015A00009F480E008958091050208959091050264
:1015B000892B8093050208958095909105029823C8
:1015C00090930502089510920502089590910402E7
:1015D000892B8093040208958095909104029823AA
:1015E00090930402089510920402089508950E94B1
:1015F000F60A08959091FA01292F282331F0809559
:1016000089238093FA010E94F70A089508950E94A1
:10161000060B08959091FB01292F2823281729F004
:10162000982B9093FB010E94070B08959091FB016A
:10163000292F282331F0809589238093FB010E9474
:10164000070B08958091FB01882329F01092FB017C
:1016500080E00E94070B08950F931F93CF93DF93B1
:101660000091000110910101C091050280910402D6
:10167000C82B8091FB01882331F0C82B0E94EA1609
:1016800081110E94220BF801C083C0910001D0910A
:10169000010148E050E061EF71E0CE010E94C11FFE
:1016A000892B59F088E0FE01A1EFB1E001900D9285
:1016B0008A95E1F7CE010E948716DF91CF911F91A5
:1016C0000F9108950E942C0B089508950E94650BB8
:1016D000089590913E0292FF11C098E0899F900179
:1016E0001124622B6093F9010E94E0068091F901B8
:1016F0008695869586950E94660B08950E94E00661
:1017000008951092F90180E00E94660B089590916F
:10171000F901809589238093F901282F277069F4B6
:10172000891759F090913E0292FF07C086958695E1
:1017300086950E94F0060E94810B089590913E02CA
:1017400092FB222720F9281769F080FB92F99093E9
:101750003E0280913D0290913E020E94ED0B82E09C
:101760000E94870B089580913E0282FB882780F9B2
:1017700091E089270E949E0B089581E00E949E0BB4
:10178000089580E00E949E0B08956FEF7FEF90E038
:1017900080E00E941320089590E080E00E94DF1F07
:1017A00021E0853E9E4F09F020E0822F089582E0DF
:1017B00090E00E94D71F089583E090E00E94D71F19
:1017C00090E00895682F83E090E00E94F51F08954F
:1017D00084E090E00E94DF1F0895BC0184E090E067
:1017E0000E9413200895AB01BC018FE090E00E949D
:1017F00007200895AB01BC0183E190E00E9407201F
:10180000089560E070E0CB010E94FA0B089560E05B
:1018100070E0CB010E94F30B0E94010C0895A8E038
:10182000B0E0E5E1FCE00C94861F65EE7EEF90E011
:1018300080E00E94132060E082E090E00E94F51FAB
:1018400081E090E09093AF018093AE010E94E20BA3
:1018500060E074E184E090E00E94132060E086E0A4
:1018600090E00E94F51F60E087E090E00E94F51F85
:1018700040E050E0BA0188E090E00E94072060E07C
:1018800083E290E00E94F51F60E08CE090E00E940F
:10189000F51F60E08DE090E00E94F51F19821A822A
:1018A0001B821C821D821E821F82188648E050E027
:1018B00067E170E0CE0101960E94E51F40E050E034
:1018C000BA018FE190E00E9407200E94070C289641
:1018D000E2E00C94A21F0E940F0C0895682F8EE086
:1018E00090E00E94F51F0895A6E0B0E0EAE7FCE072
:1018F0000C94841F0E947D188C01809106029091A7
:1019000007028017910781F019821A820E947D18C0
:10191000682F49815A81792F80E090E00E94B102BE
:1019200010930702009306022696E4E00C94A01F91
:101930000E9489186093110270931202809313021F
:101940009093140260930D0270930E0280930F0225
:10195000909310020895089508950E94AB0C089585
:1019600008950E94B00C0E94AD0C089508950E9445
:10197000B60C089508950E94BA0C0E94B70C089501
:101980008BE89FE00E94EF100E94AC0C0E94B10C0B
:10199000089581E008950E94C90C08950E94C90C21
:1019A00008950895089508950E94D10C0E94D20CC4
:1019B0000E94D30C08950E94CC0B811102C00E949A
:1019C0006B0C0E94D70B809315020E94E80B90933A
:1019D0003E0280933D020E94DC0B0E94A40680918F
:1019E000AC019091AD010E94C50608950E94741843
:1019F0000E944C100E94DB0C0E948B020E94BB0CC8
:101A00000895A6E0B0E0E7E0FDE00C947D1F0E94A1
:101A1000CB0C81110AC00E94740C0E94DC140E943D
:101A200098022696EBE00C94991F0E94621088E0C1
:101A3000A82E82E0B82E750110E0F70101917F0118
:101A4000812F0E94A70F1F5F153009F441C00817AE
:101A5000A1F38091150281FD0E94AD0F0E94CE0C72
:101A6000C82E10E099249394812F0E94A70F082F6D
:101A7000F50181915F01081729F1F12CEE24E3941F
:101A8000D02ED8268D2D8E21A9F0CC2099F0F98268
:101A90001A830E947D189C838B839D8291E0802F06
:101AA0008E2109F490E049815A816B817C818D817E
:101AB0000E94B102F394EE0CF5E0FF12E3CFF501C2
:101AC000319700831F5F153079F60E94980CA5CFDF
:101AD0000813BFCFA0CF1F93CF93DF930E949A0E1E
:101AE000EC01C11580E5D807F0F5C11580E4D807F1
:101AF00008F09CC0C03ED10520F5CD3CD10508F0D2
:101B000082C0C83AD10578F4C53AD10508F073C04F
:101B1000C130D10519F1209709F1C430D105F0F495
:101B2000D0E0C0E01BC0C33CD105D0F7C85AD0E01C
:101B3000CC0FDD1FCF5ADE4F0990D881C02DD46461
:101B40000DC0C11580E2D80708F0D1C0C11581E0F1
:101B5000D80708F05AC0C83ED10510F7CE01DF9172
:101B6000CF911F910895C03682E5D80718F5C0348B
:101B700082E5D80708F06BC0C03282E5D80708F0CC
:101B80005FC0C11582E5D80708F497C02C2F2695B1
:101B9000269580E2289F900111248C2F8370C1E04C
:101BA000D0E002C0CC0FDD1F8A95E2F7C22BD32B09
:101BB000DD68D4CFC03A82E5D80760F4C03882E54A
:101BC000D80708F459C0CF71D0E0DC2FCC27C46F00
:101BD000D06AC4CFC03C82E5D80708F462C0C03EDA
:101BE00082E5D80708F09CCFDC2FCC27CC27DF710B
:101BF000C06FD06AB3CFC55AD0E0C957DE4FC88195
:101C0000D0E0D064ABCFD065A9CF8D2F0E943C0F20
:101C1000182FCE0199270E949A0EC12FD0E0DC2FF9
:101C2000CC27CC27DF71C82BD92B98CFCE01992791
:101C30000E949A0ECC27DF70C82BD92BD06A8ECF8A
:101C4000CF71D0E0DC2FCC27C16FD06A87CF2C2F8B
:101C500026952695277080E2289F900111248C2FCD
:101C60008370C1E0D0E002C0CC0FDD1F8A95E2F79F
:101C7000C22BD32BDC6872CF2C2F2695269527708C
:101C800080E2289F900111248C2F8370C1E0D0E066
:101C900002C0CC0FDD1F8A95E2F7C22BD32BDA6886
:101CA0005DCF8C2F8F710E943C0FC82FD0E0DC2FAE
:101CB000CC27CC27DF71D06251CF8C2F8F710E943F
:101CC0003C0F55E0D695C7955A95E1F7CF70D0E017
:101CD000DC2FCC27282F30E084FF05C044E0220F02
:101CE000331F4A95E1F7C22BD32BD06937CF8D2F05
:101CF0008F710E943C0F182FCE0199270E949A0ED7
:101D0000C12FD0E0DC2FCC27CC27DF71C82BD92BFB
:101D1000D2CF462F753030F4653020F4672F0E9403
:101D20004001089590E080E008950E94890E0E948D
:101D30006B0D089582389105B9F1B0F481339105A6
:101D400009F47DC048F48932910509F46DC08A32E6
:101D5000910509F47BC008958533910509F45FC0AE
:101D60008933910509F10895833E9105D9F138F43D
:101D7000803E910529F1823E910579F10895863ED4
:101D80009105D9F1873E910509F43EC0843E910545
:101D900041F520913E0221FF24C080913D0284FD47
:101DA00019C087EE90E0089520913D02237009F05C
:101DB0005AC020913E0223FF14C089E290E00895AA
:101DC00020913D0220FD38C030913E0230FF09C015
:101DD00024FF43C090E080E0089520913D0222FD61
:101DE000F7CF089520913D0222FD3AC030913E0286
:101DF00030FD39C024FFF5CFEDCF20913D0223FF08
:101E0000F0CF24FDE7CFCDCF20913D0223FD2EC0A2
:101E100030913E0231FFEECF84EE90E008952091A4
:101E20003D0225FFDECFC9CF20913D0225FD21C017
:101E300020913E0223FFD5CF89E390E0D2CF2091BD
:101E40003D0226FFCECF8AE290E0089520913D0228
:101E500026FFC7CF81E390E0089583EE90E00895D8
:101E600082EE90E0089580EE90E0089586EE90E096
:101E7000089585E390E0089590913D0292FF10C08F
:101E800041E0282F2471243009F040E031E0282F70
:101E90002871283009F030E0431711F02CE0822738
:101EA00093FF10C041E0282F2471243109F040E055
:101EB00031E0282F2871283109F030E0431711F064
:101EC0002CE0822730913E0230FF10C051E0282FD5
:101ED0002171213009F050E041E0282F287128308D
:101EE00009F040E0541711F029E0822731FF10C0BB
:101EF00041E0282F2171213109F040E031E0282F05
:101F00002871283109F030E0431711F029E08227C9
:101F100094FD877E089580E00895CF939C01205E14
:101F20003245C1E02032310538F4FB01C581C111D1
:101F300003C08F710E94CF018C2FCF910895089517
:101F40000E949F0F089508950E94A30F0895E82FFF
:101F5000F0E0EC5BFD4F80810895089580EA8A955A
:101F6000F1F7089500C008950E94AE0F0895F89407
:101F7000E82FE295EF70F0E031A1282F2F7081E07B
:101F800090E001C0880F2A95EAF7982F9095932347
:101F900091A392A1892B82A3789408950F931F9304
:101FA000CF93DF93CFE8D1E089918F3F11F00E946A
:101FB000B70F81E0C439D807B9F7CAE8D1E00FE814
:101FC00011E089918F3F11F00E94B70F0C171D0788
:101FD000C1F7DF91CF911F910F910895B0E0A0E07C
:101FE000E4EFFFE00C94801FEC01D62E062F10E0EA
:101FF000C80181579E4F7C01FC0180818F3F09F40D
:1020000044C0F894E82FE295EF70F0E091A18F7052
:1020100021E030E001C0220F8A95EAF7892F822B58
:1020200081A382A12095282322A378940E94B20F35
:10203000EAE8F1E031E0C12C21912F3F59F1A22FC4
:10204000A295AF70B0E090968C9190E02F7002C096
:10205000959587952A95E2F780FD1CC0832FC82AA5
:10206000330F81E0EF38F80739F7F70180818F3FB0
:1020700011F00E94B70F61E0C11001C060E08D2D2A
:102080000E94B40FC00FD11FC882CDB7DEB7E8E001
:102090000C949C1F80E0E3CF0E94CE0F85E0E4E427
:1020A000F2E0DF01982F1D929A95E9F7EFE3F2E055
:1020B000DF011D928A95E9F785E00E949D100E943C
:1020C000A00F0895A5E0B0E0E8E6F0E10C94831FCE
:1020D0008E010F5F1F4F85E0F80111928A95E9F795
:1020E000F12C6F2DC8010E94EE0FF394F5E0FF1262
:1020F000F8CF45E050E0B8018FE392E00E94C11FA5
:1021000021E0009709F420E0892B41F085E0F801F7
:10211000AFE3B2E001900D928A95E1F745E064E407
:1021200072E08FE392E00E949E10182F0E94A40F8D
:10213000812F2596E5E00C949F1F0895B0E0A0E064
:10214000E4EAF0E10C94801F6C017B01042FC22FA4
:10215000222379F081E0809318020E947D189093E9
:1021600017028093160280E0CDB7DEB7E8E00C944A
:102170009C1FD0911802DD23B1F38091160290913B
:1021800017020E940C18059770F310E0A801B60121
:10219000C7010E94C11F892B31F0A801B601C701F8
:1021A0000E94CE1FCD2F109218028C2FDDCF0E94DF
:1021B000010D08950E9416180E94181A0E94C00C62
:1021C0000E94321A0E94F60C0E943F1A0E94441A82
:1021D0000E94D7100E945E1A0E94D40CF7CF9093F1
:1021E00095018093940108958B3109F465C040F501
:1021F0008B3071F078F4863009F447C020F48530D4
:1022000059F180E00895873009F448C08830C9F753
:1022100081E00895803109F45DC068F48E3089F75B
:1022200090911502892F8B7F92FF84608093150215
:1022300082FD4CC0EDCF863159F3893149F3E1CFAE
:102240008A3201F160F48732B1F020F48E31C8F2A5
:102250008D514CC08932A9F60E94FD01D9CF83343B
:1022600040F48A3308F041C0853329F0883381F285
:10227000C8CF833431F681E090E00E94A4060E942A
:102280005706C6CF0E946B0CC3CF80911502807F8A
:102290008093150281E080931C02089590911502AD
:1022A000892F8E7F90FF81608093150280FDB0CFD3
:1022B000817F80931502ACCF90911502892F8D7F7D
:1022C00091FF82608093150281FFA2CF8091150259
:1022D0008160EFCF90911502892F877F93FF8860EF
:1022E0008093150283FDF2CF93CF895321E030E034
:1022F000A90102C0440F551F8A95E2F7CA01BDCF5C
:1023000080E008950E9480110895CF93C82F809196
:102310001C028130B9F0882331F08230A1F1109293
:102320001C0280E00DC00E94D30A8232D1F78C2FAC
:102330000E94801181111BC08C2F0E94F4108170AB
:10234000CF9108950E94D30A823289F38C2F0E9484
:10235000821181110AC0C43199F060F4CB3029F0A8
:10236000C03169F782E080931C0281E0E8CF81E010
:1023700090E0E5CFC93221F0C833B9F380E0DFCF78
:1023800010921C02FBCFC93209F440C0F0F4C431F2
:10239000E9F1A8F481E0C73099F68093090184E15E
:1023A000809308018AE0809307018EE18093060103
:1023B00088E08093030188E28093020104C082EEEA
:1023C0008C0F8A3070F181E0BBCFC03509F450C06A
:1023D000B8F48AE0CF34B9F7E0911902F0911A020B
:1023E000309789F32081082E000C990B820F911DE4
:1023F0008F3F910509F00CF43FC08FEF8083E3CF4E
:10240000C135C1F181E0C23539F39ACF80911B0209
:102410008823C9F210921B0210921A02109219021C
:10242000D2CFCD51C0931B02C330C9F048F4C130A4
:1024300099F088E091E0C23051F010921B02C3CFB6
:10244000C53099F078F082E091E0C630B1F7909312
:102450001A0280931902B7CF89E091E0F8CF87E0A4
:1024600091E0F5CF86E091E0F2CF83E091E0EFCF0D
:1024700086EFB2CF8FEFB0CF97FFC0CF1082A3CF40
:10248000CF93DF93EB0186319C4711F50E94D30A6D
:102490009D81992399F08A7A91E009F490E09093D4
:1024A0001D02811109C089E20E943A170E94620B45
:1024B00080E0DF91CF91089585E3F6CF80911D02F2
:1024C000811104C089E20E944217F0CF85E3FBCF5F
:1024D00081E0EFCFCF93DF93EC01FB01858188236F
:1024E00009F4D2C09E0130572332310508F0B2C042
:1024F0000E94E80B90933E0280933D02FE01E15062
:10250000F047E232F10520F4E95CFF4D0C94701FB6
:1025100080913D02816080933D0293C080913E0294
:10252000886080933E028DC080913D028260F3CF2F
:1025300080913D028460EFCF80913D028860EBCFB7
:1025400080913E028160EDCF80913E028260E9CFB2
:1025500080913D028061DFCF80913D028062DBCFC0
:1025600080913D028064D7CF0E94570680913D0242
:102570008068D1CF80913D028C60CDCF80913E02AA
:102580008360CFCF80913D028E7FC5CF80913E0288
:10259000877FC7CF80913D028D7FBDCF80913D0267
:1025A0008B7FB9CF80913D02877FB5CF80913E026E
:1025B0008E7FB7CF80913E028D7FB3CF80913D0259
:1025C0008F7EA9CF80913D028F7DA5CF80913D0266
:1025D0008F7BA1CF0E94570680913D028F779BCFC2
:1025E00080913D02837F97CF80913E028C7F99CF6F
:1025F00080913D0282FB992790F921E0922790FB80
:1026000082F990FB83F987CF80913E02982F9095B5
:1026100091708E7F892B90FB81F983CF90913D0241
:10262000892F8F7B96FF806476CF0E94570690910A
:102630003D02892F97FB87F980586DCF81E00E947A
:102640006E0C80913D0290913E020E94ED0B0E9423
:10265000570680E0DF91CF91089580E0F0CF909110
:102660003D02892F8F7E94FF806155CF90913D026E
:10267000892F8E7F90FF81604ECF90913E02892FEF
:10268000877F93FF88604DCF81E0E4CF282F35EB23
:102690002303C001112497FF04C080589109892F9A
:1026A000089580589F4FFBCF8091240280FF0DC07A
:1026B0006091070170E0660F771F6038710570F553
:1026C0006115710569F1862F089581FF07C060913A
:1026D000070184E0689FB0011124EFCF60910701EA
:1026E00082FD0AC0809123028823A9F0209106016F
:1026F00060910701821710F088E0ECCF869FC0013F
:10270000112433E0880F991F3A95E1F7622F70E0AA
:102710000E945C1FD2CF68E070E0D5CF8FE70895AC
:1027200081E008958091240280FF0CC06091030134
:1027300070E075956795759567956115710549F117
:10274000862F089581FF06C06091030170E07595A2
:102750006795F3CF6091030182FD0BC09091220237
:102760009923A1F06091020180910301961738F03E
:10277000682F70E06038710500F38FE70895899F36
:10278000C001112470E00E945C1FF4CF61E070E092
:10279000D7CF81E008958D3C31F40E945413819588
:1027A0008093280208958E3C19F40E945413F8CFA8
:1027B0008F3C31F40E945413819580932702089531
:1027C000803D19F40E945413F8CF893D29F40E94EA
:1027D00092138093290208958A3D21F40E94921356
:1027E0008195F7CF8B3D31F40E94921381958093B0
:1027F0002A0208958C3D19F40E949213F8CF9FE2AB
:10280000980F983070F4815D990B21E030E001C0A1
:10281000220F8A95EAF780912602822B8093260266
:1028200008958D3D31F480912402816080932402CB
:1028300008958E3D21F4809124028260F7CF8F3D70
:10284000B9F7809124028460F1CF409127028D3C3A
:1028500059F48091280287FF0DC01092280241117F
:102860000BC01092230208C08E3C81F48091280294
:1028700018169CF3442381F08091290290912A023A
:10288000892B09F05AC01092220208958F3C49F416
:1028900047FFF0CF10922702809128028111ECCFE0
:1028A000E0CF803D19F41416ACF3E4CF90912902E7
:1028B000893D29F41916F4F610922902DBCF8A3DDE
:1028C00019F497FFD7CFF8CF90912A028B3D29F4C6
:1028D00097FFD0CF10922A02CDCF8C3D19F4191654
:1028E000CCF3C8CF9FE2980F983090F4815D990B9C
:1028F00021E030E0B90102C0660F771F8A95E2F748
:10290000CB01809590912602892380932602B2CF35
:102910008D3D31F4809124028E7F80932402AACFD2
:102920008E3D21F4809124028D7FF7CF8F3D09F0F9
:10293000A1CF809124028B7FF0CF08950E947D1853
:102940009C019091270280912802982B21F03093CE
:102950002102209320029091290280912A02982B33
:1029600021F030931F0220931E0285E292E00E9424
:102970009216089586E0E5E2F2E0DF011D928A9565
:10298000E9F7109223021092220210922402089575
:10299000FC01828181110EC0838181110BC0848171
:1029A000811108C091E08581811101C090E0892FDB
:1029B0008170089581E0FCCFA6E0B0E0E2EEF4E1A2
:1029C0000C94851F86E0E5E2F2E0DE0111960190AD
:1029D0000D928A95E1F71092270210922802109228
:1029E000290210922A028B819C81892B89F0809187
:1029F0002002909121020E940C18AC0190912302B8
:102A00009923C9F1809108018417150608F440C084
:102A10008D819E81892B91F080911E0290911F02E1
:102A20000E940C18AC0190912202992309F46AC00B
:102A3000809104018417150608F472C0BE016F5F0F
:102A40007F4F85E292E00E945517811105C085E213
:102A500092E00E94C81481110E949E1486E0FE013B
:102A60003196A5E2B2E001900D928A95E1F72696A3
:102A7000E3E00C94A11F209109018AE0289F9001B6
:102A800011242417350720F69F5F9093230202C07C
:102A90009F3FD1F71B81112359F00E9454139FEFE0
:102AA00011160CF491E0899F802D11248093270248
:102AB0001C81112359F00E9454139FEF11160CF43E
:102AC00091E0899F802D1124809328028091270214
:102AD000882309F49DCF10912802112309F498CF7F
:102AE0000E944613882351F080932702812F0E9471
:102AF0004613882329F0809328028ACF81E0F4CFFF
:102B000081E0F9CF209105018AE0289F90011124EE
:102B10002417350708F092CF9F5F9093220202C0DE
:102B20009F3FD1F71D81112359F00E9492139FEF0F
:102B300011160CF491E0899F802D112480932902B5
:102B40001E81112359F00E9492139FEF11160CF46D
:102B500091E0899F802D112480932A02809129027F
:102B6000882309F46BCF10912A02112309F466CF50
:102B70000E944613882351F080932902812F0E94DE
:102B80004613882329F080932A0258CF81E0F4CF9E
:102B900081E0F9CF0F931F93CF93DF93C42FD22FF0
:102BA000FC0185818823C9F040932D020E947D1885
:102BB00090932C0280932B0280E28C0F883040F49B
:102BC000C77081E001C0880FCA95EAF70E9402042D
:102BD000DF91CF911F910F91089510912D02141341
:102BE00032C080912B0290912C020E940C18883CDC
:102BF000910548F5C0E2CD0F1D17B9F080E2810FB5
:102C0000883040F4177081E001C0880F1A95EAF708
:102C10000E940904C83048F481E09D2F977001C0DC
:102C2000880F9A95EAF70E940204802F0E94F90308
:102C3000C83070F6D77081E001C0880FDA95EAF7E6
:102C40000E940904C5CF80E28C0F883008F6C77057
:102C500081E001C0880FCA95EAF7F2CF0F93DB013C
:102C600088519C4787309105A0F5FC01E75AFF4D3C
:102C70000C94701F06E221EE41EE6AE17CE7CD0183
:102C80000E94CA1580E00F91089507E225EE45EEF7
:102C90006BE17CE7F4CF06E221EE40EE68E17CE7F1
:102CA000EECF07E225EE44EE69E17CE7E8CF06E2ED
:102CB00021EE42EE6CE17CE7E2CF07E225EE46EE44
:102CC0006DE17CE7DCCF08E221E045EE6EE17CE7D8
:102CD000D6CF15968C91882319F010922D02D3CF60
:102CE00081E0D1CF90933302809332020895E09136
:102CF0003202F0913302309729F00190F081E02DFB
:102D00000995089580E008950E9477160895E0914E
:102D10003202F0913302309721F00280F381E02DEE
:102D200009950895E0913202F0913302309739F01D
:102D300022E0DC012C930680F781E02D09950895AF
:102D4000A3E0B0E0E6EAF6E10C94861F20913002A1
:102D50003091310228173907A1F090933102809306
:102D60003002E0913202F0913302309751F023E0CB
:102D700029839B838A830084F185E02DCE0101960F
:102D800009952396E2E00C94A21FA3E0B0E0EBECDF
:102D9000F6E10C94861F20912E0230912F02281705
:102DA0003907A1F090932F0280932E02E091320216
:102DB000F0913302309751F024E029839B838A837A
:102DC0000084F185E02DCE01019609952396E2E07D
:102DD0000C94A21F40910001509101019A012E5FB5
:102DE0003F4F485F5F4F80E02417350709F408958F
:102DF000F90191919F019923B9F38F5FF5CF882352
:102E000071F02091000130910101F9013296285FA3
:102E10003F4F9191981729F0E217F307D1F780E01F
:102E2000089581E008959C01FC0132969FEF80E0B7
:102E30004191461751F09F3F19F4411101C0982F5D
:102E40008F5F8630A9F79F3F09F40895290F311D40
:102E500097FD3A95F90162830895FC013296089630
:102E60002191261303C0DF0111971C92E817F9077F
:102E7000B9F70895682F80910001909101010E9497
:102E800013170895682F80910001909101010E940D
:102E90002D170895E0910001F0910101329686E02E
:102EA000DF011D928A95E9F70895DC01FB01119677
:102EB0009C9111978181981322C012968C91129740
:102EC000882319F0928189131AC013968C91139755
:102ED000882319F09381891312C015968C91159748
:102EE000882319F0958189130AC014969C9199231F
:102EF00021F081E02481291303C080E001C081E03A
:102F00008170089508950E948217089581110EC05E
:102F100081E080930D0160910A0170910B01809115
:102F20000C0190910D010E948317089582E0F1CF6A
:102F300083E080930D0160910A0170910B018091F3
:102F40000C0190910D010E94831708950E9486172D
:102F5000089581E080930D0160910A0170910B0149
:102F600080910C0190910D010E94831708950E9499
:102F7000A917089591E0811101C090E090930C0190
:102F800060910A0170910B0180910C0190910D01EB
:102F90000E948317089580910C01089580930B017E
:102FA00060910A0170910B0180910C0190910D01CB
:102FB0000E948317089580910B01089580930A0160
:102FC00060910A0170910B0180910C0190910D01AB
:102FD0000E948317089580910A0108950895089525
:102FE0000E94EF170895089508950E94EE1708951E
:102FF000CF930E94F3170E9462100E94F417C0E062
:103000008C2F0E94A70F811105C0CF5FC530C1F77B
:10301000CF91089581E0FCCFCF93DF93EC010E9424
:103020007D188C1B9D0BDF91CF91089585B780682B
:1030300085BF85B7806885BF08951F921FB61F9210
:1030400011248F939F93AF93BF938091340281118A
:1030500013C08091490290914A02A0914B02B09115
:103060004C024196A11DB11D8093490290934A02E2
:10307000A0934B02B0934C02BF91AF919F918F915F
:103080001F901FBE1F90189580915102843031F11E
:103090000E946B021092340288E190E020E40FB6A7
:1030A000F894A895809360000FBE2093600083B7CA
:1030B000817F846083BF83B7816083BF7894889564
:1030C00083B78E7F83BF0FB6F894A8958091600078
:1030D000886180936000109260000FBE08950E9486
:1030E00057060E947202089582E084BD93E095BD68
:1030F0009AEF97BD80936E0008952FB7F894809152
:10310000490290914A02A0914B02B0914C022FBF0C
:1031100008952FB7F8946091490270914A02809106
:103120004B0290914C022FBF089578941F921FB6C6
:103130001F9211248F939F93AF93BF938091490265
:1031400090914A02A0914B02B0914C020196A11DB0
:10315000B11D8093490290934A02A0934B02B09311
:103160004C02BF91AF919F918F911F901FBE1F90F6
:10317000189587E797E7909301088093000888E106
:103180009AE00FB6F894A895809360000FBE9093D4
:103190006000FFCF88E19AE00FB6F894A89580937D
:1031A00060000FBE90936000FFCF08959B01BA01AD
:1031B000909151029430E9F48F708093E9009FEF71
:1031C0008091E800915085FD06C085ED8A95F1F764
:1031D00000009111F5CF8091E80085FF0AC050E012
:1031E00040E0C9010E94D51A8091E8008E77809353
:1031F000E800089543E050E0BC0182E00E94D61848
:10320000089546E050E0BC0182E00E94D61808957F
:10321000CF93DF93EC010E94CB1748E050E0BE0152
:1032200081E00E94D61888E0FE01A5E3B2E001909B
:103230000D928A95E1F7DF91CF9108958091500228
:10324000811109C00E94651C0E94C21C8091E2008D
:1032500084608093E20008951092500208950E94C5
:10326000A91781E00E94BA17089560914D0281E08C
:10327000611101C080E00E94981708959091510259
:1032800081E0943009F080E060914D020E94A61721
:10329000089542E061EC81E00E94E11B42E261ECB2
:1032A00082E00E94E11B9091510281E0943009F08C
:1032B00080E060914D020E9486170895809153022C
:1032C000833009F461C030F48130D1F1823009F4E7
:1032D0009EC008958A3009F48AC08B3009F46FC00B
:1032E000893009F050C080915202813209F04BC000
:1032F0008091560290915702029708F044C0809145
:10330000E800877F8093E8008091E80082FF37C063
:103310009091F3008091F200029731F48091F100D6
:10332000813011F0863021F48091F1000E94CE1797
:103330008091E8008B778093E8000E94151C23C0E1
:1033400080915202813AF9F48091E800877F80935E
:10335000E8008091560290915702892B61F468E051
:1033600085E392E070E00E94241B8091E8008B7757
:103370008093E800089560E090E080E0F3CF8091D2
:1033800051028111C1CF089580915202813AD9F73B
:103390008091560290915702892BA9F78091E800FD
:1033A000877F8093E8008091E80080FFFCCF0E9437
:1033B000CB178093F1008091E8008E77BCCF80918D
:1033C0005202813201F78091560290915702892B67
:1033D000D1F68091E800877F8093E8000E94151C59
:1033E000809154020E94BA170E9457060895809156
:1033F0005202813241F68091E800877F8093E80095
:103400000E94151C809155020E94DE17089580913C
:103410005202813A09F0B7CF8091E800877F80930C
:10342000E8008091E80080FFFCCF0E94EB17C1CF3D
:1034300084B7877F84BF0FB6F894A8958091600009
:10344000886180936000109260000FBE80E890E079
:103450000FB6F89480936100909361000FBE0E94B4
:10346000B71708950E94651C0E94C21CE2EEF0E0AE
:1034700080818460808378940E94411F08958EE04B
:1034800091E00E947216089580915102853031F4C6
:1034900080915102853019F00E946F1808950E94A2
:1034A00044180E94F817882399F380914F028823CB
:1034B00079F30E94BF1A0E945706EACF08959A0135
:1034C00040915802509159020E94671A0895492F5D
:1034D00055274330510519F168F44130510509F47D
:1034E00044C04230510509F445C090E080E050E00E
:1034F00040E025C04132510549F142325105A9F75A
:1035000084E490E040ED51E061157105C1F08BE776
:1035100090E045E551E06130710589F0E6CF9927EB
:103520008130910581F0009729F00297F1F6EEEDD8
:10353000F0E002C0E4E0F1E0849190E0AF01F90135
:10354000518340830895EAEFF0E0F6CF89E090E000
:103550004AE151E06115710591F389E090E043E3A0
:1035600051E06130710559F3C0CF82E190E043E44E
:1035700051E0E5CF8BE390E048E051E0E0CF80E11F
:1035800089BD82E189BD09B400FEFDCF8091D800DC
:103590008F7D8093D8008091E00082608093E0006E
:1035A0008091E00081FDFCCF0895AF92BF92CF9251
:1035B000DF92FF920F931F93CF93DF936C01EB0188
:1035C0008A010E94341CF82E811123C001151105B7
:1035D00039F0F80180819181C81BD90BC80ED91E22
:1035E000B12CA12C2097A9F08091E80085FD22C084
:1035F0008091E8008E778093E80001151105A1F015
:10360000F80180819181A80EB91EB182A08285E067
:10361000F82E8F2DDF91CF911F910F91FF90DF90AA
:10362000CF90BF90AF9008950E94341C8823D1F2B0
:10363000F82EEFCFF60181916F018093F100219771
:10364000FFEFAF1ABF0ACECFFC01809158029091D4
:10365000590286179707A0F06115710529F490911A
:10366000E8009E779093E80090E06115710551F4B1
:10367000911108C08091E80082FF34C080E0089575
:10368000BC01F2CF809151028823C1F18530C1F194
:103690008091E80083FD30C08091E80082FDEACF90
:1036A0008091E80080FFE1CF8091F3002091F2004B
:1036B000382F6115710519F02830310558F091E067
:1036C0002830310509F090E02091E8002E77209312
:1036D000E800CBCF81918093F100615071092F5F99
:1036E0003F4FE7CF80915102882341F0853041F070
:1036F0008091E80083FFBECF81E0089582E00895C5
:1037000083E00895FC018091580290915902861738
:103710009707A0F06115710529F48091E8008E7774
:103720008093E80090E06115710551F4911108C093
:103730008091E80082FF35C080E00895BC01F2CF9F
:10374000809151028823C9F18530C9F18091E80048
:1037500083FD31C08091E80082FDEACF8091E800CE
:1037600080FFE1CF8091F3002091F200382F6115A6
:10377000710519F02830310558F091E028303105F5
:1037800009F090E08091E8008E778093E800CBCF3D
:1037900084918093F1003196615071092F5F3F4F02
:1037A000E6CF80915102882341F0853041F080912D
:1037B000E80083FFBDCF81E0089582E0089583E0B3
:1037C0000895982F973028F08F708093E90081E05A
:1037D00008959093E900242F762F50E0981731F048
:1037E0007091EC002091ED005091F00021FD02C09D
:1037F0009F5FE8CF3091EB003E7F3093EB0030913C
:10380000ED003D7F3093ED003091EB00316030935F
:10381000EB007093EC002093ED005093F0002091AA
:10382000EE0027FDE5CF80E008958091520287FFEA
:1038300013C08091E80082FF06C08091E8008B777A
:103840008093E80004C0809151028111F2CF089565
:10385000809151028823D9F38091E80080FFF8CF4E
:103860008091E8008E77ECCF2091E4003091E50064
:1038700095E6A9012091EC00822F817020FF06C0FF
:103880008091E80080FF06C080E008952091E80064
:1038900022FD1AC080915102882389F0853089F079
:1038A0008091EB0085FD0FC02091E4003091E50090
:1038B00042175307F9F29150E1F684E0089582E04F
:1038C000089583E0089581E008950E94D41C0E9429
:1038D000DC1CE0EEF0E0808181608083E8EDF0E0C8
:1038E00080818F77808319BCA7EDB0E08C918E7FAB
:1038F0008C9380818F7E80831092500208950F9365
:103900001F93CF93DF930E94D41C0E94DC1CC8ED50
:10391000D0E088818F7788838881806888838881D8
:103920008F7D888319BC1092510210924D02109223
:103930004F0210924E0200EE10E0F80180818B7F62
:10394000808388818160888342E060E080E00E941B
:10395000E11BE1EEF0E080818E7F8083E2EEF0E01B
:10396000808181608083808188608083F80180818C
:103970008E7F8083888180618883DF91CF911F91C2
:103980000F910895E8EDF0E080818F7E8083E7ED70
:10399000F0E080818160808384E082BF81E0809359
:1039A00050020E947F1C0895E8EDF0E080818E7F38
:1039B00080831092E20008951092DA001092E100E4
:1039C00008951F920F920FB60F9211242F933F93D9
:1039D0004F935F936F937F938F939F93AF93BF9317
:1039E000EF93FF938091E10082FF0BC08091E20092
:1039F00082FF07C08091E1008B7F8093E1000E94ED
:103A0000401F8091DA0080FF19C08091D80080FFAC
:103A100015C08091DA008E7F8093DA008091D90002
:103A200080FF96C080E189BD82E189BD09B400FEB6
:103A3000FDCF81E0809351020E941E198091E10028
:103A400080FF19C08091E20080FF15C08091E200E4
:103A50008E7F8093E2008091E20080618093E2009B
:103A60008091D80080628093D80019BC85E0809353
:103A700051020E9435198091E10084FF2BC0809192
:103A8000E20084FF27C080E189BD82E189BD89B55C
:103A9000982F917080FFFBCF8091D8008F7D80930D
:103AA000D8008091E1008F7E8093E1008091E20058
:103AB0008F7E8093E2008091E20081608093E2003B
:103AC00080914D02882309F449C084E0809351021B
:103AD0000E943E198091E10083FF29C08091E2009D
:103AE00083FF25C08091E100877F8093E10082E021
:103AF0008093510210924D028091E1008E7F80935D
:103B0000E1008091E2008E7F8093E2008091E200EC
:103B100080618093E20042E060E080E00E94E11B6F
:103B20008091F00088608093F0000E942F19FF912F
:103B3000EF91BF91AF919F918F917F916F915F9125
:103B40004F913F912F910F900FBE0F901F9018959E
:103B500019BC109251020E942C1970CF8091E30081
:103B600087FD93E090935102B3CF1F920F920FB64F
:103B70000F9211242F933F934F935F936F937F93F3
:103B80008F939F93AF93BF93CF93DF93EF93FF9365
:103B9000D091E900DF708091EC00C82FC17080FDEA
:103BA000C0E81092E9008091F000877F8093F000D8
:103BB00078940E94F91D1092E9008091F0008860CD
:103BC0008093F000CD2BCF70C093E900FF91EF916F
:103BD000DF91CF91BF91AF919F918F917F916F9125
:103BE0005F914F913F912F910F900FBE0F901F90BB
:103BF0001895AAE2B0E0EFEFFDE10C94851F82E595
:103C000092E02091F100FC012193CF01F2E08A358E
:103C10009F07B9F70E945E198091E80083FF1EC1DB
:103C200080915202909153029A3008F017C1E92F07
:103C3000F0E0E05AFF4D0C94701F803899F0823804
:103C400009F00CC1809156028F70873008F006C1D0
:103C50008093E9008091EB0085FB882780F9109222
:103C6000E90006C080914E0290914F02911182604E
:103C70009091E800977F9093E8008093F100109274
:103C8000F1008091E8008E77E5C0882309F4D3C065
:103C9000823009F0E3C0809154028111D6C0809136
:103CA00056028F702FEF280F263008F0D7C0809370
:103CB000E9002091EB0020FFC8C0933031F48091DF
:103CC000EB0080628093EB00C0C09091EB009061AC
:103CD0009093EB0021E030E001C0220F8A95EAF7D3
:103CE0002093EA001092EA008091EB008860EACF0E
:103CF0008111B4C0109154021F778091E300807845
:103D0000812B8093E3008091E800877F8093E80017
:103D10000E94151C8091E80080FFFCCF8091E30099
:103D200080688093E30082E0111183E08093510268
:103D300095C08058823008F091C0809154029091D3
:103D400055028C3D23E09207A1F583E08A838AE245
:103D500089834FB7F894DE01139620E03EE051E2EC
:103D6000E32FF0E050935700E49120FF03C0E29569
:103D7000EF703F5FEF708E2F90E0EA30C0F0C79693
:103D80008D939D932F5F243159F74FBF8091E800A9
:103D9000877F8093E8006AE270E0CE0101960E947E
:103DA000241B8091E8008B778093E80057C0C09671
:103DB000E7CF6091560270915702AE014F5F5F4F9F
:103DC0000E945F1ABC01892B09F448C09091E80059
:103DD000977F9093E80089819A810E94821BE1CFAE
:103DE0008038E1F58091E800877F8093E80080913A
:103DF0004D028093F10045CF811130C09091540263
:103E0000923060F58091E800877F8093E80090937E
:103E10004D020E94151C80914D02882311F084E010
:103E200005C08091E30087FDFACF81E080935102C5
:103E30000E94491913C080915402813079F481E0C5
:103E4000933009F080E080934F021092E900809156
:103E5000E800877F8093E8000E94151C8091E800AD
:103E600083FF0AC08091E800877F8093E8008091FB
:103E7000EB0080628093EB00AA96E3E00C94A11F14
:103E80000895CF93809151028823A1F0C091E90059
:103E9000CF709091EC00892F817090FD80E8C82B45
:103EA0001092E9008091E80083FD0E94F91DCF7017
:103EB000C093E900CF91089597FB072E16F4009464
:103EC00007D077FD09D00E94AD1F07FC05D03EF456
:103ED000909581959F4F0895709561957F4F0895B6
:103EE000EE0FFF1F0590F491E02D09942F923F9261
:103EF0004F925F926F927F928F929F92AF92BF92FA
:103F0000CF92DF92EF92FF920F931F93CF93DF93A5
:103F1000CDB7DEB7CA1BDB0B0FB6F894DEBF0FBE02
:103F2000CDBF09942A88398848885F846E847D844F
:103F30008C849B84AA84B984C884DF80EE80FD8051
:103F40000C811B81AA81B981CE0FD11D0FB6F894C7
:103F5000DEBF0FBECDBFED010895AA1BBB1B51E113
:103F600007C0AA1FBB1FA617B70710F0A61BB70BE9
:103F7000881F991F5A95A9F780959095BC01CD018E
:103F80000895FB01DC0104C08D910190801921F49A
:103F900041505040C8F7881B990B0895FB01DC0184
:103FA00002C001900D9241505040D8F70895F99900
:103FB000FECF92BD81BDF89A992780B50895A8E1FA
:103FC000B0E042E050E00C941B20DC01A40FB51FD0
:103FD0004150504048F0CB01840F951F2E910E9414
:103FE000F61F41505040D0F70895262FF999FECF83
:103FF00092BD81BDF89A019700B4021639F01FBA3C
:1040000020BD0FB6F894FA9AF99A0FBE0895039658
:10401000272F0E94F61F0E94F51F252F0E94F61FD2
:10402000242F0C94F61F0196272F0E94F61F0C9444
:10403000F51FDC01CB01FC01F999FECF06C0F2BDF2
:10404000E1BDF89A319600B40D9241505040B8F756
:104050000895F894FFCF510451048F048F04F304A2
:104060000F05800480041405850594059405C2128B
:104070003613CA1294129812CE129C12D212DE1269
:10408000A8122F13AC12E212B012E6120E13B412E1
:10409000EA121513BA12F012F812A012D612A412D4
:1040A000DA12BE12F41204131E132D138E12C6124E
:1040B0003D134B1651163A16451657165D166316E4
:1040C0001D1E451E2E1F451E2E1F781E991E2E1FBB
:0440D000F01EFC1EC4
:1040D400FC01280850011E0A140100000100DB172E
:1040E4000819D5180119FA18E200E900EA00B50028
:1040F400B600B700CD008301CC008A01920194017F
:104104002102230224022502260227022A02B300E6
:10411400B4006F0070009F01CB019F02A002818256
:1041240083E200E900EA00B500B600B700CD0083E1
:1041340001CC008A01920194012102230224022568
:1041440002260227022A02B300B4006F0070009F07
:1041540001CB019F02A00281828336323331F735CD
:0441640034C6976660
:00000001FF
