:100000000C94AE010C94E6010C94E6010C94E6010C
:100010000C94E6010C94E6010C94E6010C94E601C4
:100020000C94E6010C94E6010C945A1F0C942E20BB
:100030000C947D1A0C94E6010C94E6010C94E601F4
:100040000C94E6010C94E6010C94E6010C94E60194
:100050000C94E6010C94F51A0C94E6010C94E6015C
:100060000C94E6010C94E6010C94E6010C94E60174
:100070000C94E6010C94E6010C94E6010C94E60164
:100080000C94E6010C94E6010C94E6010C94E60154
:100090000C94E6010C94E6010C94E6010C94E60144
:1000A0000C94E6010C94E6010C94E60129001E0074
:1000B0001F0020002100220023002400250026002C
:1000C00027004B002A0046004B004E00350014006C
:1000D0001A000800150017001C0018000C00120080
:1000E00013004E004C002400250026002B000400C5
:1000F0001600070009000A000B000D000E000F009B
:10010000340200002800210022002300E10000004A
:100110001D001B000600190005001100100036022A
:1001200037023802E1001E001F002000E00000003E
:10013000E3006500E200205200002C000000E60011
:100140006500E700E40027003700280001000100F7
:100150000100010001000100010001000100010097
:100160000100010001000100010001000100010087
:100170000100010001000100010001000100010077
:100180000100010001000100010001000100010067
:100190000100010001000100010001000100010057
:1001A0000100000001000100010001000100000049
:1001B0000100010001000100010001000100010037
:1001C0000100010001000100010001000100000028
:1001D0000100010001000100000001000000010019
:1001E00001000100010001000100010010035000A6
:1001F000720069006D0065005F005200000010038E
:100200005000720069006D0065004B004200000064
:100210000403090409023B00020100A0FA090400DA
:10022000000103010100092111010001224400071E
:100230000581030800010904010001030000000911
:10024000211101000122B6000705820320000112DE
:1002500001000200000008EDFE60600100010200E4
:100260000105010902A10185020901A10005091981
:10027000012908150025019508750181020501096C
:100280003009311581257F950275088106093815D9
:1002900081257F950175088106050C0A38021581B4
:1002A000257F950175088106C0C005010980A1015F
:1002B000850319012AB700150126B70095017510AD
:1002C0008100C0050C0901A101850419012AA002C1
:1002D000150126A002950175108100C005010906CF
:1002E000A1018506050719E029E7150025019508F4
:1002F000750181020507190029EF1500250195F008
:1003000075018102050819012905950575019102FC
:10031000950175039101C005010906A101050719A1
:10032000E029E71500250195087501810295017501
:100330000881010507190029FF150026FF00950611
:100340007508810005081901290515002501950585
:1003500075019102950175039101C00011241FBE22
:10036000CFEFDAE0DEBFCDBF04B603FE18C0809148
:10037000CC029091CD02A091CE02B091CF028730F5
:10038000904BA740B04B59F41092CC021092CD0282
:100390001092CE021092CF02E0E0F8E3099511E04E
:1003A000A0E0B1E0EEE5F6E402C005900D92A23ABD
:1003B000B107D9F722E0A2EAB1E001C01D92AC3C3E
:1003C000B207E1F70E9400120C94EE220C94000098
:1003D0008230C8F46530B8F44031A8F4E62FF0E07C
:1003E00095E0899FE00DF11D112484E0EE0FFF1FC1
:1003F0008A95E1F7E40FF11DEE0FFF1FE455FF4F63
:1004000085919491089581E090E008950E94E8011B
:10041000089581E008950E94090208950E9409024A
:10042000089581E008950E94090208950E9409023A
:1004300008950E9416020895089508950E941C02CE
:10044000089508950895A6E0B0E0E9E2F2E00C9482
:100450005E2249835A839E833091A90189819A81C2
:1004600031111AC03E81332399F0222389F00E9472
:100470007108182F682F89819A810E944E0869811E
:100480007A81812F0E94990F2696E3E00C947A22BC
:100490000E945F08182FF3CF0E94710869817A814A
:1004A000F1CFFC01262F40815181628173818481CB
:1004B00095810E9423020895CF93DF93EC0161E0C0
:1004C0000E945102BE010E940B02882359F061E094
:1004D000CE010E945102BE010E940E028170DF9186
:1004E000CF91089580E0FACF0F931F93CF93DF93BE
:1004F000EC0160E00E9451028C01BE010E941D02CD
:10050000BE01C8010E941E02DF91CF911F910F9181
:10051000089521E030E0A90102C0440F551F8A95DB
:10052000E2F7CA010E9470070895CF93C82F81E0B7
:1005300090E00C2E02C0880F991F0A94E2F70E94E7
:10054000DD0C8C2F0E948902CF91089581E00895DF
:100550000E94A60208950E94A6020895CF93C82F74
:100560000E9423078C2F0E94A8028C2F0E94AB02AE
:100570002FEF84E39CE0215080409040E1F700C0E1
:100580000000CF91089581E00E94AE020E94191BE5
:10059000089580E00E94AE020E943D1B08950F93D3
:1005A0001F93CF93DF938C0161E00E945102EC0115
:1005B000B8010E941302811106C080E0DF91CF9143
:1005C0001F910F910895B801CE010E94190288234E
:1005D000A1F3B801CE010E94FC12882371F3B80187
:1005E000CE010E94EE17882341F3B801CE010E948C
:1005F0002A14882311F3B801CE010E940014882325
:10060000E1F2B801CE010E949D108823B1F2F801F9
:100610008581882361F0C330FCE7DF07E9F058F4F7
:10062000C115ECE7DE07A9F0C130DC47B9F0C8011D
:100630000E941102C3CFCB358CE7D807A9F0CC3587
:10064000ECE7DE0771F0CA35DC4789F70E94B80C89
:10065000EECF0E94C302B1CF0E94C00C0E94C9021B
:10066000ACCF0E94AE0CE3CF0E94BC0CE0CF0E9446
:1006700021020E944F1A80E00E94DB120E94600358
:1006800008950E942B120E9464030E9422020E947D
:10069000541A089581E008950895CF93DF93D82FD9
:1006A0000E944A03C82F882319F08D2F0E944C0303
:1006B0008C2FDF91CF91089508950E944D030895E6
:1006C00080E00E945D0308950E9437180E945D0338
:1006D0000895CF930E943718C82F8091A4018C17DA
:1006E00079F0C093A4010E94E91A6093A501709368
:1006F000A6018093A7019093A8018C2F0E945D030F
:10070000CF910895ADE0B0E0E8E8F3E00C945F220B
:10071000488759876A877B878C879D8791110E94BC
:10072000BE0B1F8286E0FE013896DE011196019015
:100730000D928A95E1F78D8181110DC029813A8151
:100740004B815C816D817E818F810E94080B2D968B
:10075000E2E00C947B22CE0101960E945C028111A2
:10076000EDCFF5CFFC012481213021F480819181EE
:100770000E94A3080895662329F00E948B150E9409
:100780005E1608950E94E515FACFCF93C82F8823EF
:10079000C9F08238C9F40E94441881FD13C089E36E
:1007A0000E9466190E94520C2FEF87EE93E02150B1
:1007B00080409040E1F700C0000089E30E9480196A
:1007C0000E94520CCF9108958338A1F40E944418DE
:1007D00080FDF8CF83E50E9466190E94520C2FEF2E
:1007E00081EE94E0215080409040E1F700C000008D
:1007F00083E5E4CF8438A1F40E94441882FDE2CF5F
:1008000087E40E9466190E94520C2FEF81EE94E05B
:10081000215080409040E1F700C0000087E4CECF37
:100820008CEF8C0F813A70F48C2F0E94DA18882399
:1008300029F08C2F0E9480190E94520C8C2F0E944C
:100840006619BECF80E28C0F883048F4C77081E013
:1008500001C0880FCA95EAF70E94A10BB1CFEBE562
:10086000EC0FE33040F4F0E0E05BFE4F808190E07D
:100870000E946E18A7CFE8E5EC0FEB3150F4F0E0E2
:10088000EE0FFF1FE65EFE4F808191810E9493185C
:1008900099CF83E38C0F833108F094CF61E08C2FE4
:1008A0000E94BB038FCF882309F456C0823879F4A5
:1008B0000E94441881FF50C089E30E9466190E947B
:1008C000520C89E30E9480190E94520C08958338CB
:1008D00059F40E94441880FF3FC083E50E946619C6
:1008E0000E94520C83E5EECF843859F40E944418DC
:1008F00082FF32C087E40E9466190E94520C87E48E
:10090000E1CF9CEF980F913AE8F290E2980F98307F
:1009100050F4877091E001C0990F8A95EAF7892F0A
:100920000E94A70BD1CF9BE5980F933028F490E05D
:1009300080E00E946E18089598E5980F9B3128F486
:1009400090E080E00E949318089593E3980F93310C
:1009500018F460E00E94BB0308951F93CF93DF93C8
:10096000182FEB010E94C503209739F4812F0E94B4
:100970005304DF91CF911F9108958FE99FE0019774
:10098000F1F700C000002197EFCF70E060E08933FD
:1009900011F460E570E00E94AD040895882321F011
:1009A0000E94A10B0E94520C0895882321F00E94FE
:1009B000A70B0E94520C0895B0E0A0E0E2EEF4E034
:1009C0000C9458226C01D62FC72FFC01158106818B
:1009D00002950F700E94970BE82E8823F9F0E12E04
:1009E0001123E1F08C2F807F803461F080E28D0F45
:1009F000883008F18C2F807E803221F4D230D8F0FC
:100A00000023C9F08091A50282FF15C082E00E94F8
:100A1000820C0E94970B91E0E82EE926BC2EB2943E
:100A20009FE0B922FBE0FB15B8F1EB2DF0E0E051BF
:100A3000FD4D0C942F22E12CF1CF0C2F0F70C07FB5
:100A400011F00295007F112399F0002359F080E204
:100A50008D0F883010F0D11107C0802F0E94A10B9C
:100A60000E94520C8D2F48C0802F0E94B10BF8CFEE
:100A70008D2F0E945304002379F080E28D0F88307F
:100A800010F0D11104C0802F0E94A70B03C0802F4B
:100A90000E94B70B0E94520CEB2DE850FF0B3497CD
:100AA00008F06BC10E9437180E945D03CDB7DEB716
:100AB000E9E00C9474222C2F2F70F22EC07FC032EC
:100AC00019F0F29480EFF822DD2341F0D130C9F122
:100AD000112309F443C00023E9F0C4CF8091A5029B
:100AE00082FD14C0112359F0FF2029F08F2D0E94A0
:100AF000A10B0E94520C80E00E94C503CDCF80E084
:100B00000E945304FF2041F28F2DBECF112369F0C4
:100B1000011104C08F2D0E94CE04BECF013009F018
:100B2000BBCF8F2D0E94D50BB7CF0111B5CF8F2D25
:100B30000E94D5048F2D0E94E10B8F2D0E94C50BC2
:100B4000ABCF112321F0063008F0A6CFE3CF05305C
:100B500008F0A2CF8F2D0E94D5049ECF0023D1F3A1
:100B6000D93349F43FEF87EE93E031508040904015
:100B7000E1F700C000008D2F0E9453048DCF8C2F11
:100B800086958695837069F0813009F085CF8D2F29
:100B90009C2F9370111102C080E090E00E94931886
:100BA0007BCF8D2F9C2F9370111102C080E090E0BD
:100BB0000E946E1871CF612F8D2F0E94BB036CCFE6
:100BC0008C2F8370A1F5111167CF4D2F429546955B
:100BD0004770440F440F2D2F2F7030E0042E02C0B9
:100BE000220F331F0A94E2F790E080E0D4FF09C09F
:100BF0008FE090E002C0880F991F4A95E2F7809538
:100C00009095C695C695C370822B932BC23049F040
:100C100058F4C13019F00E947C073ECF0E94730740
:100C20003BCF0E94850738CF0E94700735CF86954D
:100C3000112311F08C2F8170882309F42DCF4D2FB3
:100C4000429546954770440F440F2D2F2F7030E08A
:100C5000042E02C0220F331F0A94E2F790E080E0D6
:100C6000D4FF09C08FE090E002C0880F991F4A9519
:100C7000E2F780959095C695C695C370822B932B0D
:100C8000C23049F058F4C13019F00E94E70704CF90
:100C90000E94DE0701CF0E94F007FECE0E9494075B
:100CA000FBCECF70112329F08C2F0E94AC078D2F23
:100CB00032CF8D2F0E94D5048C2F0E94BC07ECCE22
:100CC000D23F41F160F4D03FB9F0D13F81F0112320
:100CD00009F443C00111C6CE8C2F8F711FC0D33FC2
:100CE00001F1D43FA1F78091A50282FD24C08C2F91
:100CF0008F71112311F312C0112341F0053008F058
:100D0000CBCE8C2F8F710E94CE07C6CE063008F056
:100D1000C3CEF7CF8C2F8F711111CFCF0E94AC07AC
:100D2000BBCE112329F08C2F8F710E94A007B4CE67
:100D30000E949B07B1CE112331F063E08C2F8F719D
:100D40000E94640CA9CE81E00E94820C023008F45B
:100D5000A3CE82E00E94820C9FCE002359F0D933AB
:100D600009F009CFEFEFF7EE23E0E150F04020402B
:100D7000E1F7FFCE8C2F8F71A0CFEE2009F496CE35
:100D80000E94930B80FD92CEF60115820E948D0B7E
:100D90000E94AC07C6010E94EA060E948D0B0E94C9
:100DA000BC0784CE0F931F93CF93DF93EC01688130
:100DB00079818D810E94AE088C010E94F9070E9402
:100DC0006F07B801CE010E94DC04DF91CF911F9123
:100DD0000F910895CF93DF93EC018C81882399F0D4
:100DE000CE010E94CF02811111C00E94970B88236F
:100DF00051F08D81882339F08091A50282FF03C0D4
:100E000082E00E94820CDF91CF910895CE010E9472
:100E1000D206CE010E947402F6CF90E080E00E94DC
:100E20006E1890E080E00E9493180E94BE0B0E9412
:100E3000520C0E947A160E945E1608950E949A191A
:100E40000E940D0708950E94AE0B0E941E07089590
:100E500092959F70963091F058F4925F9F70923007
:100E600058F4803F19F030F4883E30F481E0089562
:100E70009A5FF4CF843FD1F380E00895883EB0F3C9
:100E8000813FD1F7F3CFFC012481222339F0808107
:100E900091810E94A3080E942807089580E0089588
:100EA000A6E0B0E0E6E5F7E00C945F222696E2E0EB
:100EB0000C947B22A7E0B0E0E0E6F7E00C945F2220
:100EC0002796E2E00C947B2208950E94640708951F
:100ED0000E9465079093D5018093D40108950895E9
:100EE0000E94680708952091D4013091D501822B8A
:100EF000932B0E94680708952091D4013091D50169
:100F0000822393230E94680708952091D401309191
:100F1000D501822793270E94680708950E946407DD
:100F200008950E948E0708950E9491079093D3011F
:100F30008093D201089590E080E00E949407089584
:100F400021E030E0A90102C0440F551F8A95E2F765
:100F5000CA010E949407089521E030E002C0220FE8
:100F6000331F8A95E2F78091D2019091D301822BB1
:100F7000932B0E949407089521E030E002C0220FD5
:100F8000331F8A95E2F7209530958091D201909198
:100F9000D301822393230E949407089521E030E037
:100FA00002C0220F331F8A95E2F78091D2019091FF
:100FB000D301822793270E94940708952091D2019C
:100FC0003091D301822B932B0E9494070895209196
:100FD000D2013091D301822393230E949407089574
:100FE0002091D2013091D301822793270E94940748
:100FF00008950895262F277091E001C0990F2A9532
:10100000EAF723E0769567952A95E1F7660F771F53
:10101000660F771FFA01E60FF71F50E040E0682FD8
:1010200070E08191DF0111979B01042E02C036957B
:1010300027950A94E2F7217021952827292328274C
:101040002C934F5F5F4F4430510559F70895A82FF7
:10105000A77023E0969587952A95E1F7880F991F49
:10106000880F991FFB01E80FF91F50E040E080E076
:10107000219130E00A2E02C0369527950A94E2F7B6
:1010800021703327042E01C0220F0A94EAF7822B25
:101090004F5F5F4F4430510559F70895262F953023
:1010A00068F4803158F430E1939FB0011124680F47
:1010B000711D4AEA51E0822F0E94FA070895953087
:1010C00070F4803160F440E1949F900111246AEA49
:1010D00071E0820F932F911D0E942708089580E0F0
:1010E0000895B0E0A0E0E7E7F8E00C9458227C0116
:1010F0000091D2011091D3018091D4019091D5013A
:10110000082B192BCFE0D0E0CC24C394D12CBC2EDB
:10111000C6010C2E02C0880F991F0A94E2F78023A3
:101120009123892B49F4219790F7B12C8B2DCDB7C2
:10113000DEB7E9E00C947422B7018C2F0E94A50F52
:10114000019789F3F3CFCF93DF93EC010E947108ED
:10115000BE010E94A50FDF91CF9108951F93CF93F9
:10116000DF93EB019091A901992339F0CB010E9403
:10117000A308DF91CF911F910895882369F0CB01D7
:101180000E947108182F682FCE010E944E08BE01E0
:10119000812F0E94A50FEDCFCB010E945F08182F71
:1011A000F6CF1F93CF93DF93C091D60117E08091C4
:1011B000D7018C1304C0DF91CF911F910895D0E027
:1011C0001C9FF0011D9FF00D1124E852FE4F20815D
:1011D0003181428153816481758186810E945A07E1
:1011E0002196C770E4CF20911002309111024091F6
:1011F00012025091130260911402709115028091B5
:1012000016020E945A070895CF93DF938091160229
:10121000807F09F04DC080911502882309F448C0F1
:10122000E091D6015091D701C0911102D0911002E6
:10123000609112027091130247E05E17C9F18E2F80
:1012400090E0E49FF0011124E852FE4F2481222314
:1012500091F1489FF001499FF00D1124DF01A85240
:10126000BE4F11962C9111972C1325C02C912D1344
:1012700022C015962C91159721111DC012962D9103
:101280003C91261B370B283C3105A8F480911602AF
:101290008F70806180931602E252FE4F80818F70C2
:1012A0008061808380E192E00E94EA060E94D1087A
:1012B000DF91CF910895FC013196E770BECF482FA2
:1012C0002091D6019091D70157E0291302C080E008
:1012D000089530E0529FF001539FF00D1124E85221
:1012E000FE4F8181681306C08081481303C0858149
:1012F0008111EECF2F5F3F4F2770E7CFA4E1B0E021
:10130000E4E8F9E00C9455228C0186E0F801DE0156
:101310001F9601900D928A95E1F7F8018481E5808E
:1013200090E1A92E92E0B92E9091140291111FC064
:101330008823D1F0EE20A9F0C8010E944307F82EBF
:10134000882379F087E0F801D50101900D928A9504
:10135000E1F7C5010E94B2030E9404090E94F3084C
:101360005FC0C8010E94EA06FF24F39459C0C08000
:10137000D18082809380F0901502209112023091EA
:101380001302A401421B530BFF2009F4F9C0483C8F
:10139000510508F0A7C0882309F442C090911102BA
:1013A00080911602282F207F09F05CC09D1116C085
:1013B00090911002C91212C0E1104EC08F7080616E
:1013C000809316020E94F30880E192E00E94EA06F0
:1013D00080911602F8018683F12C22C0E1103CC0F6
:1013E0006D2D8C2D0E945F096D2D8C2D0E945F0943
:1013F000E82E8111F1CFCF86D88A8F8598890E94F7
:10140000A308292F22952F70243078F49F70223062
:10141000A8F09923B9F0F8019681907F99F4FE2CF9
:101420008F2D6496ECE00C9471222A5F2F7022308D
:1014300068F0C8010E94EA06EF2CF1CF992311F061
:10144000882369F3805E883050F3F3CF803F38F310
:10145000815F833070F7E3CF8091160281608093C3
:101460001602BACF9D1113C090911002C9120FC07D
:10147000E1100DC08683C8010E94EA0687E0F801EA
:10148000A0E1B2E001900D928A95E1F767CFC80123
:101490000E944307882309F464CFEE2009F461CF4A
:1014A00080911602803288F0209110023091110252
:1014B000398728879B868A86909114029C871D868F
:1014C0008E87CE0108960E94EA0687E0F801A0E127
:1014D000B2E001900D928A95E1F70E9404090E9402
:1014E000F30842CF90911602292F207FA1F4682D96
:1014F0009A8A898AA6017A899E2D0E94500780E1E6
:1015000092E00E94EA0687E0F50111928A95E9F7D8
:101510000E94F30861CF882309F482CF80911102E1
:101520008D1110C080911002C8120CC0E1100AC0C9
:101530009683C8010E94EA0687E0F50111928A9518
:10154000E9F76ECFC8010E944307882309F409CF49
:10155000EE2009F406CF80911602803208F4B5CF50
:1015600020911002309111023A8329839C828B8250
:10157000909114029D831E828F83CE010196A3CF8A
:10158000483C5105B8F5882309F4EECEFE2CEE2038
:1015900009F4E7CE809111028D111EC080911002D6
:1015A000C8121AC08091160280FD0DC0982F907F3E
:1015B00051F08683903F09F45ECF982F907F905F23
:1015C0008F70892B57CF87E0F801A0E1B2E001903E
:1015D0000D928A95E1F724CFC8010E94430781113B
:1015E00074CF80911602816080931602C8010E9418
:1015F000EA0616CF682D9A8A898AA6017A899E2DD5
:101600000E94500787E0F50111928A95E9F7A6CE6E
:10161000AEE0B0E0EEE0FBE00C945E222887398774
:101620004A875B876C877D878E87CE0108960E94EC
:101630007E098823B1F06C85662341F028853985C1
:101640004A855B857D858E850E945A0717E08091CB
:10165000D6019091D70189133DC02E96E3E00C94FA
:101660007A2287E0FE013896DE01119601900D92F4
:101670008A95E1F78C85882349F32091D70130E0E2
:10168000C9010196877099274091D601481719061C
:1016900099F097E0929FD001939FB00D1124A8522A
:1016A000BE4FFE01319601900D929A95E1F780931D
:1016B000D7010E94D108CACF0E9423071092D701F8
:1016C0001092D60187E0E0E1F2E0DF011D928A95F9
:1016D000E9F7BCCF819FC001112488529E4F0E9420
:1016E0007E09882309F4B9CFE091D6011E9FF0014D
:1016F0001124E852FE4F208131814281538164815F
:10170000758186810E945A078091D60190E00196EA
:10171000877099278093D6019ACF80913F02869552
:1017200086958695089580913F02877008959091DF
:101730003F02977081E009F480E0089580916B0288
:10174000089590916B02892B80936B020895809588
:1017500090916B02982390936B02089510926B0204
:10176000089590916A02892B80936A02089580956A
:1017700090916A02982390936A02089510926A02E7
:10178000089508950E94C10B089590914002292F59
:10179000282331F080958923809340020E94C20B58
:1017A000089508950E94D10B089590914102292F28
:1017B0002823281729F0982B909341020E94D20BDE
:1017C000089590914102292F282331F08095892393
:1017D000809341020E94D20B089580914102882398
:1017E00029F01092410280E00E94D20B0895CF931D
:1017F000C0916B0280916A02C82B809141028823BC
:1018000031F0C82B0E94B81881110E94ED0B8C2F6B
:10181000CF910895CF93DF93C0910201D09103013E
:101820000E94F70B8883C0910201D091030148E028
:1018300050E067E372E0CE010E948622892B59F0C6
:1018400088E0FE01A7E3B2E001900D928A95E1F7EE
:10185000CE010E944718DF91CF910895CF93DF9377
:10186000C0910001D09101010E94F70B8983C091C2
:101870000001D091010140E250E067E172E0CE0149
:101880000E948622892B59F080E2FE01A7E1B2E096
:1018900001900D928A95E1F7CE010E945218DF91D6
:1018A000CF9108950E942A1A813039F48091A402C0
:1018B00087FF03C00E942E0C08950E940A0C089511
:1018C00008950E94600C08959091A50292FF11C0A6
:1018D00098E0899F90011124622B60933F020E943F
:1018E000AC0780913F028695869586950E94610C93
:1018F00008950E94AC07089510923F0280E00E9474
:10190000610C089590913F028095892380933F0256
:10191000282F277069F4891759F09091A50292FF3A
:1019200007C08695869586950E94BC070E947C0C10
:1019300008959091A50292FB222720F9281769F0BB
:1019400080FB92F99093A5028091A4029091A50248
:101950000E94E80C82E00E94820C08958091A5020A
:1019600082FB882780F991E089270E94990C0895CD
:1019700081E00E94990C089580E00E94990C0895DE
:101980006FEF7FEF90E080E00E94D822089590E012
:1019900080E00E94A42221E0853E9E4F09F020E0D5
:1019A000822F089582E090E00E949C22089583E0B7
:1019B00090E00E949C2290E00895682F83E090E0E0
:1019C0000E94BA22089584E090E00E94A422089523
:1019D000BC0184E090E00E94D8220895AB01BC01D4
:1019E0008FE090E00E94CC220895AB01BC0183E11E
:1019F00090E00E94CC22089560E070E0CB010E944C
:101A0000F50C089560E070E0CB010E94EE0C0E949E
:101A1000FC0C0895A8E0B0E0E0E1FDE00C945F224A
:101A200065EE7EEF90E080E00E94D82260E082E0E8
:101A300090E00E94BA2281E090E09093D5018093DB
:101A4000D4010E94DD0C60E074E184E090E00E942B
:101A5000D82260E086E090E00E94BA2260E087E051
:101A600090E00E94BA2240E050E0BA0188E090E0A5
:101A70000E94CC2260E083E290E00E94BA2260E003
:101A80008CE090E00E94BA2260E08DE090E00E943D
:101A9000BA2219821A821B821C821D821E821F8218
:101AA000188648E050E067E170E0CE0101960E94A0
:101AB000AA2240E050E0BA018FE190E00E94CC22DF
:101AC0000E94020D2896E2E00C947B220E940A0DEF
:101AD0000895682F8EE090E00E94BA220895A6E053
:101AE000B0E0E5E7FDE00C945D220E94DD1A8C0178
:101AF00080916C0290916D028017910781F019829C
:101B00001A820E94DD1A682F49815A81792F80E05C
:101B100090E00E94820310936D0200936C0226965F
:101B2000E4E00C9479220E94E91A60937C0270939D
:101B30007D0280937E0290937F026093780270937F
:101B4000790280937A0290937B0208950895089514
:101B50000E94A60D089508950E94AB0D0E94A80D45
:101B6000089508950E94B10D089508950E94B50D3D
:101B70000E94B20D08958BE990E10E9415120E9417
:101B8000A70D0E94AC0D089581E008950E94C40D38
:101B900008950E94C40D08950895089508950E941F
:101BA000CC0D0E94CD0D0E94CE0D08950E94C70C51
:101BB000811102C00E94660D0E94D20C80938002A7
:101BC0000E94E30C9093A5028093A4020E94FD134F
:101BD0000E94D70C0E9470078091D2019091D3018E
:101BE0000E94910708950E94D41A0E9470110E94C9
:101BF000D60D0E945C030E94CE130E942B120E94FD
:101C0000B60D0895A6E0B0E0E8E0FEE00C945322A3
:101C10000E94C60D81110CC00E946F0D0E94CD1351
:101C20000E949C160E9469032696EEE00C946F2297
:101C30000E9486112EE6822E22E0922E640110E090
:101C4000F601E190F1906F01812F0E94B7101F5FA4
:101C5000153009F44BC0E816F90691F38091800223
:101C600081FD0E94C0100E94C90D782E10E06624EC
:101C70006394812F0E94B7107C01F401A190B19070
:101C80004F018A159B0561F100E0CC24C394D12C4F
:101C9000AE24BF24C5018C219D21892BC1F0772062
:101CA000B1F009831A830E94DD1A9C838B836D82B5
:101CB00021E0C7018C219D21892B09F420E0498175
:101CC0005A816B817C818D81922F0E9482030F5FEC
:101CD000CC0CDD1C0031F1F6F4013297F182E08288
:101CE0001F5F153031F60E94930D98CFE816F90664
:101CF00009F0B4CF91CF1F93CF93DF930E94AA0F27
:101D0000EC01C11580E5D807F0F5C11580E4D807CE
:101D100008F09CC0C03ED10520F5CD3CD10508F0AF
:101D200082C0C83AD10578F4C53AD10508F073C02D
:101D3000C130D10519F1209709F1C430D105F0F473
:101D4000D0E0C0E01BC0C33CD105D0F7C85AD0E0FA
:101D5000CC0FDD1FCD5ADE4F0990D881C02DD46441
:101D60000DC0C11580E2D80708F0D1C0C11581E0CF
:101D7000D80708F05AC0C83ED10510F7CE01DF9150
:101D8000CF911F910895C03682E5D80718F5C03469
:101D900082E5D80708F06BC0C03282E5D80708F0AA
:101DA0005FC0C11582E5D80708F497C02C2F26958F
:101DB000269580E2289F900111248C2F8370C1E02A
:101DC000D0E002C0CC0FDD1F8A95E2F7C22BD32BE7
:101DD000DD68D4CFC03A82E5D80760F4C03882E528
:101DE000D80708F459C0CF71D0E0DC2FCC27C46FDE
:101DF000D06AC4CFC03C82E5D80708F462C0C03EB8
:101E000082E5D80708F09CCFDC2FCC27CC27DF71E8
:101E1000C06FD06AB3CFC55AD0E0C757DE4FC88174
:101E2000D0E0D064ABCFD065A9CF8D2F0E944C10ED
:101E3000182FCE0199270E94AA0FC12FD0E0DC2FC6
:101E4000CC27CC27DF71C82BD92B98CFCE0199276F
:101E50000E94AA0FCC27DF70C82BD92BD06A8ECF57
:101E6000CF71D0E0DC2FCC27C16FD06A87CF2C2F69
:101E700026952695277080E2289F900111248C2FAB
:101E80008370C1E0D0E002C0CC0FDD1F8A95E2F77D
:101E9000C22BD32BDC6872CF2C2F2695269527706A
:101EA00080E2289F900111248C2F8370C1E0D0E044
:101EB00002C0CC0FDD1F8A95E2F7C22BD32BDA6864
:101EC0005DCF8C2F8F710E944C10C82FD0E0DC2F7B
:101ED000CC27CC27DF71D06251CF8C2F8F710E941D
:101EE0004C1055E0D695C7955A95E1F7CF70D0E0E4
:101EF000DC2FCC27282F30E084FF05C044E0220FE0
:101F0000331F4A95E1F7C22BD32BD06937CF8D2FE2
:101F10008F710E944C10182FCE0199270E94AA0F92
:101F2000C12FD0E0DC2FCC27CC27DF71C82BD92BD9
:101F3000D2CF462F753030F4603120F4672F0E94E5
:101F40000602089590E080E008950E94990F0E9493
:101F50007B0E089582389105B9F1B0F48133910573
:101F600009F47DC048F48932910509F46DC08A32C4
:101F7000910509F47BC008958533910509F45FC08C
:101F80008933910509F10895833E9105D9F138F41B
:101F9000803E910529F1823E910579F10895863EB2
:101FA0009105D9F1873E910509F43EC0843E910523
:101FB00041F52091A50221FF24C08091A40284FD57
:101FC00019C087EE90E008952091A402237009F0D3
:101FD0005AC02091A50223FF14C089E290E0089521
:101FE0002091A40220FD38C03091A50230FF09C025
:101FF00024FF43C090E080E008952091A40222FDD8
:10200000F7CF08952091A40222FD3AC03091A50295
:1020100030FD39C024FFF5CFEDCF2091A40223FF7E
:10202000F0CF24FDE7CFCDCF2091A40223FD2EC019
:102030003091A50231FFEECF84EE90E0089520911B
:10204000A40225FFDECFC9CF2091A40225FD21C027
:102050002091A50223FFD5CF89E390E0D2CF209134
:10206000A40226FFCECF8AE290E008952091A40238
:1020700026FFC7CF81E390E0089583EE90E00895B6
:1020800082EE90E0089580EE90E0089586EE90E074
:10209000089585E390E008959091A40292FF10C006
:1020A00041E0282F2471243009F040E031E0282F4E
:1020B0002871283009F030E0431711F02CE0822716
:1020C00093FF10C041E0282F2471243109F040E033
:1020D00031E0282F2871283109F030E0431711F042
:1020E0002CE082273091A50230FF10C051E0282F4C
:1020F0002171213009F050E041E0282F287128306B
:1021000009F040E0541711F029E0822731FF10C098
:1021100041E0282F2171213109F040E031E0282FE2
:102120002871283109F030E0431711F029E08227A7
:1021300094FD877E089580E00895CF939C01205EF2
:102140003245C1E02032310538F4FB01C581C111AF
:1021500003C08F710E9495028C2FCF91089508952E
:102160000E94AF10089508950E94B3100895E82FBB
:10217000F0E0EE0FFF1FE055FD4F80819181089543
:10218000089580EA8A95F1F7089500C008950E94A5
:10219000C1100895F894E82FE295EF70F0E031A1B6
:1021A000282F2F7081E090E001C0880F2A95EAF770
:1021B000982F9095932391A392A1892B82A3789431
:1021C00008950F931F93CF93DF93CCE9D1E08991CA
:1021D0008F3F11F00E94CA1081E0C13AD807B9F7C9
:1021E000CCE8D1E00CE911E089918F3F11F00E9419
:1021F000CA100C171D07C1F7DF91CF911F910F91E6
:102200000895AF92BF92DF92EF92FF920F931F93C8
:10221000CF93DF938C01D62EC62FD0E0CE0184560B
:102220009E4F7C01FC0120812F3F09F44CC0F894A3
:10223000E22FE295EF70F0E031A12F7081E090E0A5
:1022400001C0880F2A95EAF7932F982B91A392A1AA
:102250008095892382A378940E94C510ECE8F1E070
:1022600041E050E0B12CA12C21912F3FB1F1A22FE0
:10227000A295AF70B0E090968C9190E02F7002C064
:10228000959587952A95E2F780FD27C0CA01A82A6F
:10229000B92A440F551F81E0EC39F80729F7F701F7
:1022A00080818F3F11F00E94CA1061E0A114B10437
:1022B00009F460E08D2D0E94C710CC0FDD1FC00F08
:1022C000D11FB982A882DF91CF911F910F91FF900A
:1022D000EF90DF90BF90AF90089590E080E0D7CF6F
:1022E0000E94E1108AE0E0EBF2E0DF01982F1D92FE
:1022F0009A95E9F7E6EAF2E0DF011D928A95E9F79F
:1023000085E00E94C1110E94B0100895AAE0B0E0DB
:10231000ECE8F1E10C945C228E010F5F1F4F8AE024
:10232000F80111928A95E9F7F12C6F2DC8010E94EE
:102330000111F394F5E0FF12F8CF4AE050E0B80144
:1023400086EA92E00E94862221E0009709F420E0CC
:10235000892B41F08AE0F801A6EAB2E001900D92E3
:102360008A95E1F745E060EB72E086EA92E00E9430
:10237000C211182F0E94B410812F2A96E5E00C9408
:1023800078220895B0E0A0E0E8ECF1E10C94592245
:102390006C017B01042FC22F222379F081E080930E
:1023A00083020E94DD1A909382028093810280E072
:1023B000CDB7DEB7E8E00C947522D0918302DD231F
:1023C000B1F380918102909182020E946C1A05976C
:1023D00070F310E0000F111FA801B601C7010E94A1
:1023E0008622892B31F0A801B601C7010E949322F1
:1023F000CD2F109283028C2FDBCF0E94020E089506
:102400000E94761A0E94911C0E94BB0D0E94AB1C78
:102410000E94F30D0E94B81C0E94BD1C0E94FD1179
:102420000E94D71C0E94CF0DF7CF9093A3018093F9
:10243000A201089586E090E00E949C220895682FF2
:1024400086E090E00E94BA2208958DE28093BA025D
:102450000E941F1208950E941A128093BA0282FFEE
:102460000E9425128091BA02803320F08770886222
:102470008093BA029091BA02892F817090FF04C0B4
:10248000892F8695869586950E942C1308958091B4
:10249000BA02982F969596959695953040F49F5F41
:1024A000990F990F990F8770892B8093BA028091A9
:1024B000BA0281608093BA020E941F128091BA0210
:1024C0008695869586950E942C1308958091BA0270
:1024D000982F987F79F088508093BA02887F91E096
:1024E00009F490E08091BA0290FB80F98093BA02DF
:1024F0000E941F128091BA028695869586950E9449
:102500002C1308958091BA0280FD13C081608093DE
:10251000BA02813019F489E08093BA028091BA023C
:102520000E941F128091BA028695869586950E9418
:102530002C1308958091BA0280FF08C08E7F80938B
:10254000BA020E941F1280E00E942C13089580910D
:10255000BA0280FF03C00E949A1208950E9482125C
:1025600008959091BA02892F8695869586958F5FFA
:102570008F7197708630E0F4880F880F880F892B51
:102580008093BA028091BA02887F91E009F490E0CA
:102590008091BA0290FB80F98093BA020E941F12C8
:1025A0008091BA028695869586950E942C1308958F
:1025B0009093BA02E7CF863008F085E09091BA0296
:1025C0009770282F220F220F220F922B9093BA027E
:1025D000987F21E009F420E09091BA0220FB90F965
:1025E0009093BA020E942C1308950E94DB128091EE
:1025F000BA020E941F1208959C01FB018581882365
:1026000049F12230F8E73F07F9F040F42115E8E7F7
:102610003E0769F02130384779F00895243098E773
:10262000390779F058F02530384789F0089585E06A
:102630000E94F51280E0089580E0FACF0E946612B1
:10264000F9CF0E944712F6CF0E94A712F3CF0E9443
:10265000B112F0CF81E008958F929F92AF92BF9216
:10266000EF92FF920F931F93CF93DF938630B0F5D5
:10267000811135C0909180009F7D90938000A09142
:102680008600B0918700282F30E00E94352225E097
:1026900030E040E050E00E940D2289019A018091D3
:1026A0008600909187006CE070E00E94E521601741
:1026B0007107C8F0C80169E070E00E94E5217093DD
:1026C0008B0060938A00DF91CF911F910F91FF9053
:1026D000EF90BF90AF909F908F90089585E090917C
:1026E00080009062CACF8091860090918700E09030
:1026F0008600F0908700E0918600F0918700C6E0A8
:10270000D0E0BE010E94E521060F171F211D311DDB
:102710004801590185E0880C991CAA1CBB1C8A95AC
:10272000D1F7C701BE010E94E5219F0150E040E0C2
:10273000260F371F411D511DC501B4010E940D22F6
:1027400049015A01E0918600F0918700CA01B90160
:102750000E94D5219B01AC01DF010E9444229B0114
:10276000AC01C501B4010E94D5212FE09695879553
:10277000779567952A95D1F700918600109187008B
:1027800030E020E0061717072807390708F097CF31
:10279000609186007091870092CF0895269A2E98B6
:1027A00082E28093800089E1809381008FEF9FEF28
:1027B00090938700809386000E942B1208950E94B8
:1027C000C00C089580E00E94B710817008950E94A7
:1027D00086112FEF86E791E0215080409040E1F78D
:1027E00000C000000E9486110E94E213882321F09D
:1027F0000E94DF130E94191B08950E94E713089599
:10280000CF93DF93EB0186319C4711F50E949E0B1D
:102810009D81992399F08A7A91E009F490E0909350
:102820008402811109C089E20E9466190E94520C3B
:1028300080E0DF91CF91089585E3F6CF8091840207
:10284000811104C089E20E948019F0CF85E3FBCF9B
:1028500081E0EFCFCF93DF93EC01FB0185818823EB
:1028600009F4D2C09E0130572332310508F0B2C0BE
:102870000E94E30C9093A5028093A402FE01E15014
:10288000F047E232F10520F4E450FD4D0C942F2284
:102890008091A40281608093A40293C08091A502DC
:1028A00088608093A5028DC08091A4028260F3CFDE
:1028B0008091A4028460EFCF8091A4028860EBCF66
:1028C0008091A5028160EDCF8091A5028260E9CF61
:1028D0008091A4028061DFCF8091A4028062DBCF6F
:1028E0008091A4028064D7CF0E9423078091A40224
:1028F0008068D1CF8091A4028C60CDCF8091A50259
:102900008360CFCF8091A4028E7FC5CF8091A50236
:10291000877FC7CF8091A4028D7FBDCF8091A40215
:102920008B7FB9CF8091A402877FB5CF8091A5021C
:102930008E7FB7CF8091A5028D7FB3CF8091A40207
:102940008F7EA9CF8091A4028F7DA5CF8091A40214
:102950008F7BA1CF0E9423078091A4028F779BCF0A
:102960008091A402837F97CF8091A5028C7F99CF1D
:102970008091A40282FB992790F921E0922790FB95
:1029800082F990FB83F987CF8091A502982F9095CB
:1029900091708E7F892B90FB81F983CF9091A40257
:1029A000892F8F7B96FF806476CF0E9423079091BA
:1029B000A402892F97FB87F980586DCF81E00E9490
:1029C000690D8091A4029091A5020E94E80C0E94DA
:1029D000230780E0DF91CF91089580E0F0CF9091C0
:1029E000A402892F8F7E94FF806155CF9091A4021D
:1029F000892F8E7F90FF81604ECF9091A502892F05
:102A0000877F93FF88604DCF81E0E4CF282F35EB9F
:102A10002303C001112497FF04C080589109892F16
:102A2000089580589F4FFBCF80918B0280FF0DC08F
:102A30006091090170E0660F771F6038710570F5CD
:102A40006115710569F1862F089581FF07C06091B6
:102A5000090184E0689FB0011124EFCF6091090162
:102A600082FD0AC080918A028823A9F02091080182
:102A700060910901821710F088E0ECCF869FC001B9
:102A8000112433E0880F991F3A95E1F7622F70E027
:102A90000E94F921D2CF68E070E0D5CF8FE708958A
:102AA00081E0089580918B0280FF0CC06091050148
:102AB00070E075956795759567956115710549F194
:102AC000862F089581FF06C06091050170E075951D
:102AD0006795F3CF6091050182FD0BC0909189024B
:102AE0009923A1F06091040180910501961738F0B7
:102AF000682F70E06038710500F38FE70895899FB3
:102B0000C001112470E00E94F921F4CF61E070E06F
:102B1000D7CF81E008958D3C31F40E941415819542
:102B200080938F0208958E3C19F40E941415F8CFFB
:102B30008F3C31F40E941415819580938E02089584
:102B4000803D19F40E941415F8CF893D29F40E94A4
:102B500052158093900208958A3D21F40E945215E7
:102B60008195F7CF8B3D31F40E945215819580936A
:102B7000910208958C3D19F40E945215F8CF9FE2FE
:102B8000980F983070F4815D990B21E030E001C01E
:102B9000220F8A95EAF780918D02822B80938D0215
:102BA00008958D3D31F480918B02816080938B027A
:102BB00008958E3D21F480918B028260F7CF8F3D86
:102BC000B9F780918B028460F1CF40918E028D3CE9
:102BD00059F480918F0287FF0DC010928F0241112E
:102BE0000BC010928A0208C08E3C81F480918F0243
:102BF00018169CF3442381F08091900290919102E9
:102C0000892B09F05AC01092890208958F3C49F42B
:102C100047FFF0CF10928E0280918F028111ECCF8E
:102C2000E0CF803D19F41416ACF3E4CF90919002FC
:102C3000893D29F41916F4F610929002DBCF8A3DF3
:102C400019F497FFD7CFF8CF909191028B3D29F4DB
:102C500097FFD0CF10929102CDCF8C3D19F4191669
:102C6000CCF3C8CF9FE2980F983090F4815D990B18
:102C700021E030E0B90102C0660F771F8A95E2F7C4
:102C8000CB01809590918D02892380938D02B2CFE4
:102C90008D3D31F480918B028E7F80938B02AACF81
:102CA0008E3D21F480918B028D7FF7CF8F3D09F00F
:102CB000A1CF80918B028B7FF0CF08950E94DD1A07
:102CC0009C0190918E0280918F02982B21F030937D
:102CD0008802209387029091900280919102982B14
:102CE00021F030938602209385028CE892E00E94C6
:102CF0006018089586E0ECE8F2E0DF011D928A9505
:102D0000E9F710928A021092890210928B020895BC
:102D1000FC01828181110EC0838181110BC08481ED
:102D2000811108C091E08581811101C090E0892F57
:102D30008170089581E0FCCFA6E0B0E0E2EAF6E120
:102D40000C945E2286E0ECE8F2E0DE011196019040
:102D50000D928A95E1F710928E0210928F021092D6
:102D60009002109291028B819C81892B89F0809135
:102D70008702909188020E946C1AAC0190918A029D
:102D80009923C9F180910A018417150608F440C0FF
:102D90008D819E81892B91F0809185029091860290
:102DA0000E946C1AAC0190918902992309F46AC0BF
:102DB000809106018417150608F472C0BE016F5F8A
:102DC0007F4F8CE892E00E94B419811105C08CE815
:102DD00092E00E94881681110E945E1686E0FE0134
:102DE0003196ACE8B2E001900D928A95E1F7269613
:102DF000E3E00C947A2220910B018AE0289F900155
:102E000011242417350720F69F5F90938A0202C091
:102E10009F3FD1F71B81112359F00E9414159FEF9A
:102E200011160CF491E0899F802D112480938E025D
:102E30001C81112359F00E9414159FEF11160CF4F8
:102E400091E0899F802D112480938F0280918E02C2
:102E5000882309F49DCF10918F02112309F498CF94
:102E60000E940615882351F080938E02812F0E94C4
:102E70000615882329F080938F028ACF81E0F4CF52
:102E800081E0F9CF209107018AE0289F9001112469
:102E90002417350708F092CF9F5F9093890202C0F4
:102EA0009F3FD1F71D81112359F00E9452159FEFCA
:102EB00011160CF491E0899F802D112480939002CB
:102EC0001E81112359F00E9452159FEF11160CF428
:102ED00091E0899F802D112480939102809190022E
:102EE000882309F46BCF10919102112309F466CF66
:102EF0000E940615882351F080939002812F0E9432
:102F00000615882329F08093910258CF81E0F4CFF1
:102F100081E0F9CF0F931F93CF93DF93C42FD22F6C
:102F2000FC0185818823C9F0409394020E94DD1A38
:102F3000909393028093920280E28C0F883040F449
:102F4000C77081E001C0880FCA95EAF70E94CE04DD
:102F5000DF91CF911F910F91089510919402141356
:102F600032C080919202909193020E946C1A883C28
:102F7000910548F5C0E2CD0F1D17B9F080E2810F31
:102F8000883040F4177081E001C0880F1A95EAF785
:102F90000E94D504C83048F481E09D2F977001C08D
:102FA000880F9A95EAF70E94CE04802F0E94C504EC
:102FB000C83070F6D77081E001C0880FDA95EAF763
:102FC0000E94D504C5CF80E28C0F883008F6C77008
:102FD00081E001C0880FCA95EAF7F2CF0F93DB01B9
:102FE00088519C4787309105A0F5FC01E25EFC4DBD
:102FF0000C942F2206E221EE41EE6AE17CE7CD013E
:103000000E948A1780E00F91089507E225EE45EEB1
:103010006BE17CE7F4CF06E221EE40EE68E17CE76D
:10302000EECF07E225EE44EE69E17CE7E8CF06E269
:1030300021EE42EE6CE17CE7E2CF07E225EE46EEC0
:103040006DE17CE7DCCF08E221E045EE6EE17CE754
:10305000D6CF15968C91882319F010929402D3CF75
:1030600081E0D1CF90939A02809399020895E091E4
:103070009902F0919A02309729F00190F081E02DA9
:103080000995089580E008950E9437180895E09109
:103090009902F0919A02309721F00280F381E02D9D
:1030A00009950895E0919902F0919A02309739F0CC
:1030B00026E0DC012C930480F581E02D099508952C
:1030C000E0919902F0919A02309739F022E0DC0108
:1030D0002C930680F781E02D09950895A3E0B0E0D8
:1030E000E4E7F8E10C945F22209197023091980276
:1030F00028173907A1F09093980280939702E091E6
:103100009902F0919A02309751F023E029839B8332
:103110008A830084F185E02DCE01019609952396DE
:10312000E2E00C947B22A3E0B0E0E9E9F8E10C9442
:103130005F22209195023091960228173907A1F05D
:103140009093960280939502E0919902F0919A02F1
:10315000309751F024E029839B838A830084F18592
:10316000E02DCE01019609952396E2E00C947B2296
:10317000CF93DF93C0910201D091030122960E9468
:103180002A1A813081F48091A40287FF0CC0C0917B
:103190000001D091010122969EE180E0915028F437
:1031A000DF91CF91089596E0F8CF29912223B1F3D2
:1031B0008F5FF4CFCF93C82F811102C080E024C06D
:1031C0000E942A1A813011F58091A40287FF1EC047
:1031D000EC2FE695E695E695EE3180F780910001BB
:1031E00090910101E80FF92FF11D228130E0C770A5
:1031F00081E090E002C0880F991FCA95E2F728236A
:10320000392381E0232BD1F2CF91089580910201DF
:1032100090910301FC013296089621912C1721F020
:10322000E817F907D1F7CACF81E0EECF9C01FC0186
:1032300032969FEF80E04191461751F09F3F19F47D
:10324000411101C0982F8F5F8630A9F79F3F09F485
:103250000895290F311D97FD3A95F901628308956C
:10326000FC01329608962191261303C0DF011197C5
:103270001C92E817F907B9F70895E62FE695E69549
:10328000E695EE3168F4E80FF92FF11D677021E043
:1032900030E001C0220F6A95EAF78281822B828397
:1032A0000895E62FE695E695E695EE3170F4E80F81
:1032B000F92FF11D677021E030E001C0220F6A95FF
:1032C000EAF720958281282322830895CF93C82F7F
:1032D0000E942A1A6C2F813061F48091A40287FF2A
:1032E00008C080910001909101010E943D19CF9189
:1032F000089580910201909103010E941619F7CF61
:10330000CF93C82F0E942A1A6C2F813061F48091CC
:10331000A40287FF08C080910001909101010E94E2
:103320005119CF91089580910201909103010E945B
:103330003019F7CF0E942A1A813079F48091A402C3
:1033400087FF0BC0E0910001F091010132968EE100
:10335000DF011D928A95E9F70895E0910201F0914D
:103360000301329686E0F4CFDC01FB0111969C91BB
:1033700011978181981322C012968C9112978823FD
:1033800019F0928189131AC013968C911397882390
:1033900019F09381891312C015968C911597882383
:1033A00019F0958189130AC014969C91992321F0F4
:1033B00081E02481291303C080E001C081E0817095
:1033C000089508950E94E119089581110EC081E0C9
:1033D00080930F0160910C0170910D0180910E019D
:1033E00090910F010E94E219089582E0F1CF83E0ED
:1033F00080930F0160910C0170910D0180910E017D
:1034000090910F010E94E21908950E94E519089514
:1034100081E080930F0160910C0170910D0180910A
:103420000E0190910F010E94E21908950E94081A5E
:10343000089591E0811101C090E090930E01609198
:103440000C0170910D0180910E0190910F010E946D
:10345000E219089580910E01089580930D01609105
:103460000C0170910D0180910E0190910F010E944D
:10347000E219089580910D01089580930C016091E7
:103480000C0170910D0180910E0190910F010E942D
:10349000E219089580910C010895089508950E94FD
:1034A0004E1A0895089508950E944D1A0895CF93D5
:1034B0000E94521A0E9486110E94531AC0E08C2F5B
:1034C0000E94B710892B31F4CF5FC530C1F780E07F
:1034D000CF91089581E0FCCFCF93DF93EC010E9460
:1034E000DD1A8C1B9D0BDF91CF91089585B7806805
:1034F00085BF85B7806885BF08951F921FB61F924C
:1035000011248F939F93AF93BF9380919B0281115E
:1035100013C08091BB029091BC02A091BD02B091FA
:10352000BE024196A11DB11D8093BB029093BC02C7
:10353000A093BD02B093BE02BF91AF919F918F91B6
:103540001F901FBE1F9018958091C302843031F1E7
:103550000E94370310929B0288E190E020E40FB6AE
:10356000F894A895809360000FBE2093600083B705
:10357000817F846083BF83B7816083BF789488959F
:1035800083B78E7F83BF0FB6F894A89580916000B3
:10359000886180936000109260000FBE08950E94C1
:1035A00023070E944103089582E084BD93E095BD06
:1035B0009AEF97BD80936E0008952FB7F89480918D
:1035C000BB029091BC02A091BD02B091BE022FBF80
:1035D00008952FB7F8946091BB027091BC0280915E
:1035E000BD029091BE022FBF089578941F921FB61E
:1035F0001F9211248F939F93AF93BF938091BB022F
:103600009091BC02A091BD02B091BE020196A11D95
:10361000B11D8093BB029093BC02A093BD02B093F6
:10362000BE02BF91AF919F918F911F901FBE1F90BF
:10363000189581E08093E00080E28093D80010929A
:10364000C9008FE19EE40197F1F700C0000087E018
:1036500090EBDC018093CC029093CD02A093CE023C
:10366000B093CF0288E19CE00FB6F894A8958093C0
:1036700060000FBE90936000FFCF88E19CE00FB622
:10368000F894A895809360000FBE90936000FFCFE0
:103690009B01BA019091C3029430E9F48F7080933A
:1036A000E9009FEF8091E800915085FD06C085ED0F
:1036B0008A95F1F700009111F5CF8091E80085FF20
:1036C0000AC050E040E0C9010E944E1D8091E80010
:1036D0008E778093E800089543E050E0BC0182E0DB
:1036E0000E94481B089546E050E0BC0182E00E9421
:1036F000481B089540E250E0BC0182E00E94481B54
:103700000895CF93DF93EC010E942A1A48E050E01D
:10371000BE0181E00E94481B88E0FE01ACE9B2E0F6
:1037200001900D928A95E1F7DF91CF9108958091F4
:10373000C202811109C00E94DE1E0E943B1F8091BF
:10374000E20084608093E20008951092C20208951E
:103750000E94081A81E00E94191A08956091BF0220
:1037600081E0611101C080E00E94F71908959091F5
:10377000C30281E0943009F080E06091BF020E94B2
:10378000051A089542E061EC81E00E945A1E42E26F
:1037900061EC82E00E945A1E9091C30281E0943055
:1037A00009F080E06091BF020E94E51908958091C0
:1037B000C502833009F461C030F48130D1F1823028
:1037C00009F49EC008958A3009F48AC08B3009F448
:1037D0006FC0893009F050C08091C402813209F075
:1037E0004BC08091C8029091C902029708F044C072
:1037F0008091E800877F8093E8008091E80082FF55
:1038000037C09091F3008091F200029731F48091DB
:10381000F100813011F0863021F48091F1000E9496
:103820002D1A8091E8008B778093E8000E948E1E0D
:1038300023C08091C402813AF9F48091E800877F27
:103840008093E8008091C8029091C902892B61F4AD
:1038500068E08CE992E070E00E949D1D8091E80094
:103860008B778093E800089560E090E080E0F3CFEC
:103870008091C3028111C1CF08958091C402813A21
:10388000D9F78091C8029091C902892BA9F780913C
:10389000E800877F8093E8008091E80080FFFCCFFC
:1038A0000E942A1A8093F1008091E8008E77BCCFA5
:1038B0008091C402813201F78091C8029091C902BF
:1038C000892BD1F68091E800877F8093E8000E94E1
:1038D0008E1E8091C6020E94191A0E942307089525
:1038E0008091C402813241F68091E800877F809305
:1038F000E8000E948E1E8091C7020E943D1A089522
:103900008091C402813A09F0B7CF8091E800877FA7
:103910008093E8008091E80080FFFCCF0E944A1A63
:10392000C1CF84B7877F84BF0FB6F894A8958091E4
:103930006000886180936000109260000FBE80E894
:1039400090E00FB6F89480936100909361000FBEF1
:103950000E94161A08950E94DE1E0E943B1FE2EE8E
:10396000F0E080818460808378940E94BA21089579
:1039700080E191E00E94321808958091C302853061
:1039800031F48091C302853019F00E94CF1A089556
:103990000E94A41A0E94571A882399F38091C102A9
:1039A000882379F30E94381D0E942307EACF0895E7
:1039B0009A014091CA025091CB020E94E01C0895E6
:1039C000492F55274330510519F168F4413051050D
:1039D00009F444C04230510509F445C090E080E04C
:1039E00050E040E025C04132510549F142325105D5
:1039F000A9F784E490E047E153E061157105C1F057
:103A000086EB90E041E652E06130710589F0E6CF47
:103A100099278130910581F0009729F00297F1F6FE
:103A2000ECEEF1E002C0E0E1F2E0849190E0AF0161
:103A3000F901518340830895EEEFF1E0F6CF89E07C
:103A400090E046E252E06115710591F389E090E063
:103A50004FE352E06130710559F3C0CF82E190E04D
:103A60004FE452E0E5CF8BE390E044E152E0E0CF59
:103A700080E189BD82E189BD09B400FEFDCF80915E
:103A8000D8008F7D8093D8008091E0008260809381
:103A9000E0008091E00081FDFCCF0895AF92BF92DD
:103AA000CF92DF92FF920F931F93CF93DF936C011E
:103AB000EB018A010E94AD1EF82E811123C0011571
:103AC000110539F0F80180819181C81BD90BC80E0E
:103AD000D91EB12CA12C2097A9F08091E80085FD7A
:103AE00022C08091E8008E778093E80001151105CF
:103AF000A1F0F80180819181A80EB91EB182A08247
:103B000085E0F82E8F2DDF91CF911F910F91FF90BF
:103B1000DF90CF90BF90AF9008950E94AD1E882394
:103B2000D1F2F82EEFCFF60181916F018093F10071
:103B30002197FFEFAF1ABF0ACECFFC018091CA02D6
:103B40009091CB0286179707A0F06115710529F4B3
:103B50009091E8009E779093E80090E061157105E0
:103B600051F4911108C08091E80082FF34C080E0D8
:103B70000895BC01F2CF8091C3028823C1F1853042
:103B8000C1F18091E80083FD30C08091E80082FDA2
:103B9000EACF8091E80080FFE1CF8091F30020918F
:103BA000F200382F6115710519F02830310558F0F1
:103BB00091E02830310509F090E02091E8002E775F
:103BC0002093E800CBCF81918093F100615071097F
:103BD0002F5F3F4FE7CF8091C302882341F08530AC
:103BE00041F08091E80083FFBECF81E0089582E03C
:103BF000089583E00895FC018091CA029091CB0260
:103C000086179707A0F06115710529F48091E800E7
:103C10008E778093E80090E06115710551F4911161
:103C200008C08091E80082FF35C080E00895BC01A3
:103C3000F2CF8091C3028823C9F18530C9F1809108
:103C4000E80083FD31C08091E80082FDEACF8091D9
:103C5000E80080FFE1CF8091F3002091F200382F3F
:103C60006115710519F02830310558F091E02830C0
:103C7000310509F090E08091E8008E778093E800AC
:103C8000CBCF84918093F1003196615071092F5F01
:103C90003F4FE6CF8091C302882341F0853041F049
:103CA0008091E80083FFBDCF81E0089582E0089510
:103CB00083E00895982F973028F08F708093E90063
:103CC00081E008959093E900242F762F50E0981713
:103CD00031F07091EC002091ED005091F00021FD49
:103CE00002C09F5FE8CF3091EB003E7F3093EB0046
:103CF0003091ED003D7F3093ED003091EB0031606D
:103D00003093EB007093EC002093ED005093F000A3
:103D10002091EE0027FDE5CF80E008958091C40258
:103D200087FF13C08091E80082FF06C08091E80001
:103D30008B778093E80004C08091C3028111F2CF99
:103D400008958091C3028823D9F38091E80080FF11
:103D5000F8CF8091E8008E77ECCF2091E40030918D
:103D6000E50095E6A9012091EC00822F817020FFEB
:103D700006C08091E80080FF06C080E00895209191
:103D8000E80022FD1AC08091C302882389F08530A3
:103D900089F08091EB0085FD0FC02091E400309107
:103DA000E50042175307F9F29150E1F684E00895D7
:103DB00082E0089583E0089581E008950E944D1FF8
:103DC0000E94551FE0EEF0E0808181608083E8ED85
:103DD000F0E080818F77808319BCA7EDB0E08C91F3
:103DE0008E7F8C9380818F7E80831092C202089593
:103DF0000F931F93CF93DF930E944D1F0E94551F77
:103E0000C8EDD0E088818F77888388818068888337
:103E100088818F7D888319BC1092C3021092BF02E3
:103E20001092C1021092C00200EE10E0F8018081F1
:103E30008B7F808388818160888342E060E080E0BE
:103E40000E945A1EE1EEF0E080818E7F8083E2EED8
:103E5000F0E0808181608083808188608083F801C8
:103E600080818E7F8083888180618883DF91CF917C
:103E70001F910F910895E8EDF0E080818F7E80839F
:103E8000E7EDF0E080818160808384E082BF81E0A3
:103E90008093C2020E94F81E0895E8EDF0E0808150
:103EA0008E7F80831092E20008951092DA001092C3
:103EB000E10008951F920F920FB60F9211242F93D5
:103EC0003F934F935F936F937F938F939F93AF93A2
:103ED000BF93EF93FF938091E10082FF0BC080912D
:103EE000E20082FF07C08091E1008B7F8093E100B8
:103EF0000E94B9218091DA0080FF19C08091D8001A
:103F000080FF15C08091DA008E7F8093DA00809167
:103F1000D90080FF96C080E189BD82E189BD09B4E6
:103F200000FEFDCF81E08093C3020E94971B809129
:103F3000E10080FF19C08091E20080FF15C08091F0
:103F4000E2008E7F8093E2008091E20080618093A6
:103F5000E2008091D80080628093D80019BC85E08F
:103F60008093C3020E94AE1B8091E10084FF2BC0AE
:103F70008091E20084FF27C080E189BD82E189BD94
:103F800089B5982F917080FFFBCF8091D8008F7DED
:103F90008093D8008091E1008F7E8093E100809132
:103FA000E2008F7E8093E2008091E2008160809346
:103FB000E2008091BF02882309F449C084E0809325
:103FC000C3020E94B71B8091E10083FF29C080914A
:103FD000E20083FF25C08091E100877F8093E100AC
:103FE00082E08093C3021092BF028091E1008E7F35
:103FF0008093E1008091E2008E7F8093E2008091C7
:10400000E20080618093E20042E060E080E00E9494
:104010005A1E8091F00088608093F0000E94A81BD7
:10402000FF91EF91BF91AF919F918F917F916F9190
:104030005F914F913F912F910F900FBE0F901F9066
:10404000189519BC1092C3020E94A51B70CF8091D5
:10405000E30087FD93E09093C302B3CF1F920F92CA
:104060000FB60F9211242F933F934F935F936F934B
:104070007F938F939F93AF93BF93CF93DF93EF93F0
:10408000FF93D091E900DF708091EC00C82FC170E0
:1040900080FDC0E81092E9008091F000877F809356
:1040A000F00078940E9472201092E9008091F00054
:1040B00088608093F000CD2BCF70C093E900FF9112
:1040C000EF91DF91CF91BF91AF919F918F917F91B0
:1040D0006F915F914F913F912F910F900FBE0F9075
:1040E0001F901895AAE2B0E0E8E7F0E20C945E2297
:1040F00084EC92E02091F100FC012193CF01F2E0E9
:104100008C3C9F07B9F70E94D71B8091E80083FF82
:104110001EC18091C4029091C5029A3008F017C167
:10412000E92FF0E0EB5DFC4D0C942F22803899F0E4
:10413000823809F00CC18091C8028F70873008F076
:1041400006C18093E9008091EB0085FB882780F908
:104150001092E90006C08091C0029091C1029111B5
:1041600082609091E800977F9093E8008093F1003F
:104170001092F1008091E8008E77E5C0882309F461
:10418000D3C0823009F0E3C08091C6028111D6C04D
:104190008091C8028F702FEF280F263008F0D7C00B
:1041A0008093E9002091EB0020FFC8C0933031F4E8
:1041B0008091EB0080628093EB00C0C09091EB0097
:1041C00090619093EB0021E030E001C0220F8A95CE
:1041D000EAF72093EA001092EA008091EB008860F1
:1041E000EACF8111B4C01091C6021F778091E3001D
:1041F0008078812B8093E3008091E800877F809313
:10420000E8000E948E1E8091E80080FFFCCF809124
:10421000E30080688093E30082E0111183E08093E3
:10422000C30295C08058823008F091C08091C602C8
:104230009091C7028C3D23E09207A1F583E08A8329
:104240008AE289834FB7F894DE01139620E03EE0BE
:1042500051E2E32FF0E050935700E49120FF03C0B8
:10426000E295EF703F5FEF708E2F90E0EA30C0F084
:10427000C7968D939D932F5F243159F74FBF80913F
:10428000E800877F8093E8006AE270E0CE01019643
:104290000E949D1D8091E8008B778093E80057C0B5
:1042A000C096E7CF6091C8027091C902AE014F5F1E
:1042B0005F4F0E94D81CBC01892B09F448C0909123
:1042C000E800977F9093E80089819A810E94FB1D06
:1042D000E1CF8038E1F58091E800877F8093E800A6
:1042E0008091BF028093F10045CF811130C0909141
:1042F000C602923060F58091E800877F8093E800E5
:104300009093BF020E948E1E8091BF02882311F0FD
:1043100084E005C08091E30087FDFACF81E08093BF
:10432000C3020E94C21B13C08091C602813079F47F
:1043300081E0933009F080E08093C1021092E9009F
:104340008091E800877F8093E8000E948E1E809114
:10435000E80083FF0AC08091E800877F8093E8002F
:104360008091EB0080628093EB00AA96E3E00C94CE
:104370007A220895CF938091C3028823A1F0C0913F
:10438000E900CF709091EC00892F817090FD80E85A
:10439000C82B1092E9008091E80083FD0E947220F2
:1043A000CF70C093E900CF910895DB018F939F9365
:1043B0000E944422BF91AF91A29F800D911DA39FA7
:1043C000900DB29F900D11240895AA1BBB1B51E1C3
:1043D00007C0AA1FBB1FA617B70710F0A61BB70B75
:1043E000881F991F5A95A9F780959095BC01CD011A
:1043F000089597FB072E16F4009407D077FD09D097
:104400000E94E52107FC05D03EF4909581959F4FD1
:104410000895709561957F4F0895A1E21A2EAA1B09
:10442000BB1BFD010DC0AA1FBB1FEE1FFF1FA21764
:10443000B307E407F50720F0A21BB30BE40BF50B61
:10444000661F771F881F991F1A9469F760957095EA
:10445000809590959B01AC01BD01CF010895EE0FB1
:10446000FF1F0590F491E02D0994A29FB001B39F26
:10447000C001A39F700D811D1124911DB29F700D6D
:10448000811D1124911D08950E943522A59F900D34
:10449000B49F900DA49F800D911D112408952F921B
:1044A0003F924F925F926F927F928F929F92AF92C4
:1044B000BF92CF92DF92EF92FF920F931F93CF9311
:1044C000DF93CDB7DEB7CA1BDB0B0FB6F894DEBFA8
:1044D0000FBECDBF09942A88398848885F846E84CE
:1044E0007D848C849B84AA84B984C884DF80EE8018
:1044F000FD800C811B81AA81B981CE0FD11D0FB621
:10450000F894DEBF0FBECDBFED010895FB01DC01C5
:1045100004C08D910190801921F441505040C8F79A
:10452000881B990B0895FB01DC0102C001900D92DC
:1045300041505040D8F70895F999FECF92BD81BD02
:10454000F89A992780B50895A8E1B0E042E050E0DC
:104550000C94E022DC01A40FB51F4150504048F0FC
:10456000CB01840F951F2E910E94BB2241505040D9
:10457000D0F70895262FF999FECF92BD81BDF89A04
:10458000019700B4021639F01FBA20BD0FB6F89497
:10459000FA9AF99A0FBE08950396272F0E94BB221C
:1045A0000E94BA22252F0E94BB22242F0C94BB22EA
:1045B0000196272F0E94BB220C94BA22DC01CB016A
:1045C000FC01F999FECF06C0F2BDE1BDF89A319623
:1045D00000B40D9241505040B8F70895F894FFCFC1
:1045E0001D051D055B055B05BF05DB054C054C0581
:1045F000E0055106600660068214F6148A1454140D
:1046000058148E145C1492149E146814EF146C14D5
:10461000A2147014A614CE147414AA14D5147A1407
:10462000B014B8146014961464149A147E14B4145C
:10463000C414DE14ED144E148614FD140B18111856
:10464000FA17051817181D1823189620BE20A72141
:0E465000BE20A721F1201221A721692175218A
:10465E0042026202280850011E0A140100000100E5
:10466E003A1A811B7A1B731B6C1BE200E900EA00ED
:10467E00B500B600B700CD008301CC008A019201CF
:10468E0094012102230224022502260227022A0275
:10469E00B300B4006F0070009F01CB019F02A00217
:1046AE00818283E200E900EA00B500B600B700CDD2
:1046BE00008301CC008A019201940121022302247D
:1046CE00022502260227022A02B300B4006F0070F0
:1046DE00009F01CB019F02A0028182839293959449
:1046EE00969734356766F7F6F5F4F1F09190373317
:0246FE00320088
:00000001FF
