:100000000C9475060C94AD060C94AD060C94AD06DC
:100010000C94AD060C94AD060C94AD060C94AD0694
:100020000C94AD060C94AD060C94672B0C943B2CF1
:100030000C94C4250C94AD060C94AD060C94AD063E
:100040000C94AD060C94AD060C94AD060C94AD0664
:100050000C94AD060C943C260C94AD060C94AD06A5
:100060000C94AD060C94AD060C94AD060C94AD0644
:100070000C94AD060C94AD060C94AD060C94AD0634
:100080000C94AD060C94AD060C94AD060C94AD0624
:100090000C94AD060C94AD060C94AD060C94AD0614
:1000A0000C94AD060C94AD060C94AD0629001E0010
:1000B0001F0020002100220023002400250026002C
:1000C00027002A002D002E0053002B0014001A00D8
:1000D0000800150017001C0018000C001200130087
:1000E00031005F0060006100390004001600070065
:1000F00009000A000B000D000E000F002800000090
:100100005C005D005E00E1001D001B0006001900A0
:100110000500110010003600E100000052005900F7
:100120005A005B00E000E300E2002C000000000049
:100130002152E200E0000000500051004F00620038
:1001400063003A003B003C003D003E003F004000A1
:10015000410042004300440045000100010001004D
:10016000007C01000100010001000100010001000C
:1001700001002F0030004C000100010001000100CF
:10018000237824782578267827782878010033008A
:10019000340001000000010001000100010020788E
:1001A000217801000100010036003700380001000D
:1001B0000000A90001000100010001000100010090
:1001C000010000000000010001000100000001002A
:1001D000A90001000100010044454255473A20644E
:1001E000697361626C65642E0A0044454255473A62
:1001F00020656E61626C65642E0A006C65645F74D4
:1002000061736B3A20253032580A004F6E6573686F
:100210006F743A206163746976653A2025640A0038
:100220000A002530313662003A200025303258006D
:100230000A722F6320303132333435363738394142
:1002400042434445460A007267626C6967687420DD
:1002500074696D65722064697361626C652E0A0051
:100260007267626C696768742074696D6572206575
:100270006E61626C65642E0A007267626C69676801
:10028000742073657420687376205B4E4F4545502B
:10029000524F4D5D3A2025752C25752C25750A0089
:1002A0007267626C6967687420736574206873761E
:1002B000205B454550524F4D5D3A2025752C2575E4
:1002C0002C25750A007267626C6967687420726118
:1002D000696E626F7720736574206873763A2025A3
:1002E000642C25642C25642C25750A007267626CC9
:1002F000696768742064697361626C65205B4E4F46
:10030000454550524F4D5D3A207267626C6967688F
:10031000745F636F6E6669672E656E61626C6520DF
:100320003D2025750A007267626C696768742064F5
:10033000697361626C65205B454550524F4D5D3A73
:10034000207267626C696768745F636F6E66696765
:100350002E656E61626C65203D2025750A0072670E
:10036000626C6967687420656E61626C65205B4EC3
:100370004F454550524F4D5D3A207267626C696738
:1003800068745F636F6E6669672E656E61626C6527
:10039000203D2025750A007267626C6967687420C9
:1003A000656E61626C65205B454550524F4D5D3A0C
:1003B000207267626C696768745F636F6E666967F5
:1003C0002E656E61626C65203D2025750A0072679E
:1003D000626C6967687420746F67676C65205B4541
:1003E0004550524F4D5D3A207267626C6967687480
:1003F0005F636F6E6669672E656E61626C65203D36
:100400002025750A007267626C69676874206D6FD9
:100410006465205B4E4F454550524F4D5D3A202557
:10042000750A007267626C69676874206D6F646535
:10043000205B454550524F4D5D3A2025750A0072AC
:1004400067626C696768745F696E6974207267625D
:100450006C696768745F636F6E6669672E6D6F6441
:1004600065203D20302E20577269746520646566D2
:1004700061756C742076616C75657320746F2045AE
:100480004550524F4D2E0A007267626C696768745E
:100490005F696E6974207374617274210A007267F7
:1004A000626C696768745F636F6E6669672E7370EC
:1004B000656564203D2025640A007267626C696787
:1004C00068745F636F6E6669672E76616C203D208D
:1004D00025640A007267626C696768745F636F6E97
:1004E0006669672E736174203D2025640A00726777
:1004F000626C696768745F636F6E6669672E6875A2
:1005000065203D2025640A007267686C696768741D
:100510005F636F6E6669672E6D6F6465203D202591
:10052000640A007267626C696768745F636F6E6605
:1005300069672E76656C6F63696B6579203D202550
:10054000640A007267626C696768745F636F6E66E5
:1005500069672E656E61626C65203D2025640A0026
:100560007267626C696768745F636F6E6669672043
:10057000454550524F4D3A0A001E0F0500047F3F7B
:100580001F643214643214783C1E1E140A052223A0
:10059000252628292A2C2D2F3032333536383A3B60
:1005A0003D3E4042434547494A4C4E5051535557B2
:1005B000595A5C5E6062646668696B6D6F717375D1
:1005C00077797B7D7F81838587898A8C8E909294D1
:1005D00096989A9C9E9FA1A3A5A7A8AAACAEAFB1DE
:1005E000B3B4B6B8B9BBBCBEBFC1C2C3C5C6C7C928
:1005F000CACBCCCDCED0D1D2D2D3D4D5D6D7D7D8E2
:10060000D9D9DADADBDBDBDCDCDCDCDCDDDDDDDD33
:10061000DCDCDCDCDCDBDBDBDADAD9D9D8D7D7D63B
:10062000D5D4D3D2D2D1D0CECDCCCBCAC9C7C6C5F2
:10063000C3C2C1BFBEBCBBB9B8B6B4B3B1AFAEAC38
:10064000AAA8A7A5A3A19F9E9C9A98969492908EE3
:100650008C8A89878583817F7D7B79777573716FBC
:100660006D6B6968666462605E5C5A595755535198
:10067000504E4C4A4947454342403E3D3B3A38364E
:10068000353332302F2D2C2A292826252322FFAA64
:100690007F55400001010101010101010102020237
:1006A000020202020202030303030303030304041E
:1006B00004040404040505050505060606060607E8
:1006C0000707070708080808090909090A0A0A0BA1
:1006D0000B0B0C0C0C0D0D0D0E0E0E0F0F0F101042
:1006E00011111112121313141415151616171718C9
:1006F0001819191A1A1B1B1C1D1D1E1E1F20202134
:100700002222232424252626272829292A2B2C2D7A
:100710002D2E2F30313232333435363738393A3B9B
:100720003C3D3E3F404142434445464748494A4C90
:100730004D4E4F50515354555658595A5B5D5E5F5C
:10074000616264656668696B6C6D6F7072737577F2
:10075000787A7B7D7E8082838587888A8C8E8F9154
:10076000939596989A9C9EA0A2A3A5A7A9ABADAF7E
:10077000B1B3B5B7BABCBEC0C2C4C6C9CBCDCFD168
:10078000D4D6D8DBDDDFE2E4E7E9EBEEF0F3F5F811
:10079000FAFDFF3F00433E20004C25640A000A0991
:1007A0002D20537461747573202D0A686F73745F04
:1007B0006B6579626F6172645F6C65647328293A56
:1007C00020253032580A6B6579626F6172645F7000
:1007D000726F746F636F6C3A20253032580A6B6504
:1007E00079626F6172645F69646C653A20253032AA
:1007F000580A74696D65725F7265616433322829C5
:100800003A202530386C580A002573000A092D203B
:10081000436F6E736F6C65202D0A4553432F713AF9
:1008200009717569740A000A092D204D61676963B1
:10083000202D0A443A094465627567204D6573733B
:1008400061676520546F67676C650A583A094D61A6
:1008500074726978204465627567204D6F64652005
:10086000546F67676C65202D2053686F77206B6528
:10087000797072657373657320696E206D6174722F
:10088000697820677269640A4B3A094B6579626F2F
:1008900061726420446562756720546F67676C6598
:1008A000202D2053686F77206B65797072657373A4
:1008B000207265706F72740A4D3A094465627567FB
:1008C000204D6F75736520546F67676C650A563AE3
:1008D0000956657273696F6E0A533A0953746174ED
:1008E00075730A433A0941637469766174652043FC
:1008F0006F6E736F6C65204D6F64650A46312D46CF
:1009000031303A0953776974636820746F204C6101
:1009100079657220302D392028463130203D204C19
:1009200030290A302D393A09537769746368207485
:100930006F204C6179657220302D390A475241563B
:10094000453A0953776974636820746F204C617964
:10095000657220302028616C7465726E617465293F
:100960000A423A094A756D7020746F20426F6F74A5
:100970006C6F616465720A4553433A094A756D703C
:1009800020746F20426F6F746C6F616465722028F1
:10099000616C7465726E617465290A453A0950721A
:1009A000696E7420454550524F4D205365747469EB
:1009B0006E67730A4241434B53504143453A0943E2
:1009C0006C65617220454550524F4D0A006B657948
:1009D0006D61705F636F6E6669672E7261773A2032
:1009E000253032580A2E737761705F636F6E7472B0
:1009F0006F6C5F636170736C6F636B3A2025750A6F
:100A00002E636170736C6F636B5F746F5F636F6E87
:100A100074726F6C3A2025750A2E737761705F6C63
:100A200063746C5F6C6775693A2025750A2E73775D
:100A300061705F7263746C5F726775693A202575C7
:100A40000A2E737761705F6C616C745F6C67756997
:100A50003A2025750A2E737761705F72616C745F3E
:100A6000726775693A2025750A2E6E6F5F67756922
:100A70003A2025750A2E737761705F67726176651B
:100A80005F6573633A2025750A2E737761705F6224
:100A900061636B736C6173685F6261636B737061D8
:100AA00063653A2025750A2E6E6B726F3A202575A4
:100AB0000A2E737761705F6573636170655F636150
:100AC00070736C6F636B3A2025750A0064656275FC
:100AD000675F636F6E6669672E7261773A202530B3
:100AE00032580A2E656E61626C653A2025750A2EB1
:100AF0006D61747269783A2025750A2E6B6579628A
:100B00006F6172643A2025750A2E6D6F7573653AB0
:100B10002025750A006565636F6E6669673A0A6429
:100B2000656661756C745F6C617965723A202575D4
:100B30000A003F000A6D6F7573653A206F66660A9A
:100B4000000A6D6F7573653A206F6E0A000A6B6557
:100B500079626F6172643A206F66660A000A6B659B
:100B600079626F6172643A206F6E0A000A6D617477
:100B70007269783A206F66660A000A6D617472695C
:100B8000783A206F6E0A000A64656275673A206FD2
:100B900066660A000A64656275673A206F6E0A002D
:100BA0000A0A4A756D70696E6720746F20626F6FF4
:100BB000746C6F616465722E2E2E2000433E2000FF
:100BC000436C656172696E6720454550524F4D0A0E
:100BD000000A002530325820006B6579626F61721F
:100BE000645F7265706F72743A2025303258207CD1
:100BF000200073757370656E64696E67206B65792C
:100C0000626F6172640D0A005B575D005B535D00AB
:100C10005B525D005B445D005B435D001803610057
:100C20006400610031003800300030006D00690060
:100C30006E006900000008034100640061000000CC
:100C40000403090409023B00020100A0FA090400A0
:100C500000010301010009211101000122440007E4
:100C600005810308000109040100010300000009D7
:100C70002111010001221500070582032000011245
:100C800001000200000008A0AD00180100010200F0
:100C9000010631FF0974A1010975150026FF0095B1
:100CA0002075088102C005010906A101050719E0A8
:100CB00029E7150025019508750181029501750840
:100CC00081010507190029FF150026FF009506750B
:100CD00008810005081901290515002501950575EC
:100CE000019102950175039101C011241FBECFEF40
:100CF000DAE0DEBFCDBF04B603FE18C08091350632
:100D000090913606A0913706B09138068730904B07
:100D1000A740B04B59F41092350610923606109247
:100D2000370610923806E0E0F8E3099512E0A0E0FB
:100D3000B1E0E6E5F0E602C005900D92A432B107FD
:100D4000D9F726E0A4E2B2E001C01D92A533B207B4
:100D5000E1F70E94F5160C94DF2F0C940000FF932E
:100D6000EF93E0912402F0912502309709F0099564
:100D7000EF91FF910895FC018591803011F0EFDF34
:100D8000FBCF0895FF27E0E230E247FF0CC041951A
:100D900097FF09C0EDE26095709580959095611D73
:100DA000711D811D911D27FF02C0219530E350E286
:100DB000AA27660F771F881F991FAA1FA41710F074
:100DC000A41B63955A95A9F7AA3008F0A95FA05D06
:100DD000AF93F395611571058105910541F7ED32EA
:100DE00011F4EF93F395F21718F43F93F395FBCFBB
:100DF0008F91B5DFFA95E1F70895E991F991859121
:100E0000803021F0853219F0AADFF9CF089520E073
:100E1000E89455915532C1F3503311F468945591CB
:100E20005A3348F4505390F3220F022E220F220F10
:100E3000200D250FF4CF0EF4219589919991533609
:100E400019F3533729F1533559F1BC0188279927F4
:100E5000E8945C3621F489919991689455915436BF
:100E600039F446EF7EF077FF0DC08FEF9FEF0AC099
:100E700055374AE039F0583540E121F0523642E02A
:100E800009F00895FF93EF937DDFEF91FF91B7CFC6
:100E9000FF93EF93FC0181918030B9F360DFFBCFCA
:100EA000FF93EF9368DFF1CFDF93CF93CDB7DEB73A
:100EB0002596A3DFCF91DF9108958230B8F4653095
:100EC000A8F44F3098F450E09FE0699F400D511D09
:100ED0001124FA019BE4899FE00DF11D1124EE0F0E
:100EE000FF1FE455FF4F85919491089581E090E0B4
:100EF00008950E945D07089581E008950E947C078F
:100F000008950E947C07089581E008950E947C075F
:100F100008950E947C0708950E9489070895089506
:100F200008950E948F07089508950895A6E0B0E0FF
:100F3000ECE9F7E00C948B2E49835A839E83309121
:100F40002B0289819A8131111AC03E81332399F095
:100F5000222389F00E945C0D182F682F89819A81C5
:100F60000E94380D69817A81812F0E944314269650
:100F7000E3E00C94A72E0E944A0D182FF3CF0E9495
:100F80005C0D69817A81F1CFFC01262F408151816E
:100F900062817381848195810E9496070895CF9321
:100FA000DF93EC0161E00E94C407BE010E947E074E
:100FB000882359F061E0CE010E94C407BE010E945F
:100FC00081078170DF91CF91089580E0FACF0F9370
:100FD0001F93CF93DF93EC0160E00E94C4078C0164
:100FE000BE010E949007BE01C8010E949107DF91D7
:100FF000CF911F910F91089521E030E0A90102C027
:10100000440F551F8A95E2F7CA010E945A0C0895B1
:10101000CF93C82F81E090E00C2E02C0880F991F5B
:101020000A94E2F70E94AB118C2F0E94FC07CF912B
:10103000089581E008950E94190808950E941908F2
:101040000895CF93C82F0E940D0C8C2F0E941B086F
:101050008C2F0E941E082FEF84E39CE021508040DB
:101060009040E1F700C00000CF91089581E00E9418
:1010700021080E946026089580E00E9421080E94B5
:10108000842608950F931F93CF93DF938C0161E023
:101090000E94C407EC01F801858181110E945B2048
:1010A000B801CE010E948607811106C080E0DF9161
:1010B000CF911F910F910895B801CE010E948C0726
:1010C0008823A1F3B801CE010E941924882371F36B
:1010D000B801CE010E94D922882341F3B801CE0184
:1010E0000E94AF22882311F3B801CE010E9411178C
:1010F0008823E1F2B801CE010E9445158823B1F2A0
:10110000F8018581882369F0C330FCE7DF07A1F18E
:1011100060F4C130ECE7DE0789F1C0F4C115DC47AB
:1011200091F0C8010E948407C2CFCB35ECE7DE07FF
:1011300059F1CC35FCE7DF0721F1CA35DC4789F7E7
:101140000E948611EECF0E943608B0CF9091C20265
:10115000892F8E7F90FF81608093C20280FF09C03B
:101160008AEE91E09F938F930E9454070F900F9007
:101170009DCF88ED91E0F6CF0E948E110E943C0831
:1011800095CF0E947C11CDCF0E948A11CACF0E94B8
:1011900094070E9496250E9414090E94AB1F08958F
:1011A0000E9418090E943C1F0E9495070E949B25DF
:1011B0000895829590E09C01220F331F220F331F68
:1011C0002C7C95958795959587958373282B30E092
:1011D000C901880F991F8A7A359527952575822B25
:1011E0000895CF93DF93D92F0E94D908C82F8D2F50
:1011F0000E94D9089C2FDF91CF91089581E0089536
:101200000895CF93DF93D82F0E94FE08C82F88231C
:1012100019F08D2F0E9400098C2FDF91CF91089536
:1012200008950E940109089580E00E94110908951F
:101230000E9462240E9411090895CF930E946224A3
:10124000C82F809126028C1701F1C09326020E94BC
:10125000302660932702709328028093290290938E
:101260002A028091C2028570853061F41F92CF936B
:101270008BEF91E09F938F930E9454070F900F90F4
:101280000F900F908C2F0E941109CF910895ADE01F
:10129000B0E0EDE4F9E00C948C2E488759876A871A
:1012A0007B878C879D8791110E94A9101F8286E001
:1012B000FE013896DE01119601900D928A95E1F7B4
:1012C0008D8181110DC029813A814B815C816D81B5
:1012D0007E818F810E94F30F2D96E2E00C94A82E60
:1012E000CE0101960E94CF078111EDCFF5CFFC0111
:1012F0002481213021F4808191810E948E0D0895F6
:10130000CF93C82F8823C1F08CEF8C0F813AB0F4B3
:101310008C2F0E94602281110FC08C2F0E94D2243A
:10132000882329F08C2F0E9415250E9418118C2FDC
:101330000E940D250E941811CF91089580E28C0F14
:101340008830D0F7C77081E001C0880FCA95EAF7EE
:101350000E948C10EFCF882341F09CEF980F913AB8
:1013600028F40E9415250E941811089590E2980F04
:101370009830D8F7877091E001C0990F8A95EAF705
:10138000892F0E949210EFCF1F93CF93DF93182FD6
:10139000EB010E948009209739F4812F0E94AB094C
:1013A000DF91CF911F9108958FE99FE00197F1F7A9
:1013B00000C000002197EFCF70E060E0893311F4A6
:1013C00060E570E00E94C4090895882321F00E941E
:1013D0008C100E9418110895882321F00E94921009
:1013E0000E9418110895B0E0A0E0E9EFF9E00C9434
:1013F000852E6C01D62FC72FFC0115810681029521
:101400000F700E948210E82E8823F9F0E12E11233C
:10141000E1F08C2F807F803461F080E28D0F883086
:1014200008F18C2F807E803221F4D230D8F0002356
:10143000C9F08091DB0482FF15C082E00E943D115B
:101440000E94821091E0E82EE926BC2EB2949FE023
:10145000B922FBE0FB15B8F1EB2DF0E0EF51F04DB8
:101460000C94452EE12CF1CF0C2F0F70C07F11F0A2
:101470000295007F112399F0002359F080E28D0F2F
:10148000883010F0D11107C0802F0E948C100E946C
:1014900018118D2F48C0802F0E949C10F8CF8D2FDF
:1014A0000E94AB09002379F080E28D0F883010F0A4
:1014B000D11104C0802F0E94921003C0802F0E947F
:1014C000A2100E941811EB2DE850FF0B349708F082
:1014D0004AC10E9462240E941109CDB7DEB7E9E03B
:1014E0000C94A12E2C2F2F70F22EC07FC03219F039
:1014F000F29480EFF822DD2341F0D130C9F11123BD
:1015000009F443C00023E9F0C4CF8091DB0482FDDD
:1015100014C0112359F0FF2029F08F2D0E948C1048
:101520000E94181180E00E948009CDCF80E00E94C7
:10153000AB09FF2041F28F2DBECF112369F00111BD
:1015400004C08F2D0E94E509BECF013009F0BBCF4A
:101550008F2D0E94C010B7CF0111B5CF8F2D0E94E3
:10156000EC098F2D0E94CC108F2D0E94B010ABCFB4
:10157000112321F0063008F0A6CFE3CF053008F0A4
:10158000A2CF8F2D0E94EC099ECF0023D1F3D93337
:1015900049F43FEF87EE93E0315080409040E1F70F
:1015A00000C000008D2F0E94AB098DCF8C2F83705F
:1015B000A1F5111188CF4D2F429546954770440FE4
:1015C000440F2D2F2F7030E0042E02C0220F331F46
:1015D0000A94E2F790E080E0D4FF09C08FE090E049
:1015E00002C0880F991F4A95E2F780959095C6959D
:1015F000C695C370822B932BC23049F058F4C1308A
:1016000019F00E94660C5FCF0E945D0C5CCF0E94B7
:101610006F0C59CF0E945A0C56CF8695112311F0AA
:101620008C2F8170882309F44ECF4D2F429546951B
:101630004770440F440F2D2F2F7030E0042E02C04E
:10164000220F331F0A94E2F790E080E0D4FF09C034
:101650008FE090E002C0880F991F4A95E2F78095CD
:101660009095C695C695C370822B932BC23049F0D6
:1016700058F4C13019F00E94D10C25CF0E94C80C3B
:1016800022CF0E94DA0C1FCF0E947E0C1CCFCF709D
:10169000112329F08C2F0E94960C8D2F53CF8D2F64
:1016A0000E94EC098C2F0E94A60C0DCFD23F41F175
:1016B00060F4D03FB9F0D13F81F0112309F443C069
:1016C0000111E7CE8C2F8F711FC0D33F01F1D43FA2
:1016D000A1F78091DB0482FD24C08C2F8F71112330
:1016E00011F312C0112341F0053008F0ECCE8C2F1D
:1016F0008F710E94B80CE7CE063008F0E4CEF7CF29
:101700008C2F8F711111CFCF0E94960CDCCE11233C
:1017100029F08C2F8F710E948A0CD5CE0E94850CE7
:10172000D2CE112331F063E08C2F8F710E941F11F4
:10173000CACE81E00E943D11023008F4C4CE82E09E
:101740000E943D11C0CE002359F0D93309F02ACFB1
:10175000EFEFF7EE23E0E150F0402040E1F720CF3B
:101760008C2F8F71A0CFEE2009F4B7CE0E947E108F
:1017700080FDB3CEF60115820E9478100E94960C6F
:10178000C6010E94E00B0E9478100E94A60CA5CE14
:101790000F931F93CF93DF93EC01688179818D8143
:1017A0000E94990D8C010E94E30C0E94590CB80113
:1017B000CE010E94F309DF91CF911F910F910895FF
:1017C000CF93DF93EC018C81882399F0CE010E94A6
:1017D0004208811111C00E948210882351F08D812E
:1017E000882339F08091DB0482FF03C082E00E94ED
:1017F0003D11DF91CF910895CE010E94C80BCE011B
:101800000E94E707F6CF0E94A9100E9418110895C0
:101810000E941D250E94030C08950E9499100E94A9
:10182000080C089592959F70963091F058F4925F4D
:101830009F70923058F4803F19F030F4883E30F4B5
:1018400081E008959A5FF4CF843FD1F380E008955A
:10185000883EB0F3813FD1F7F3CFFC0124812223EE
:1018600039F0808191810E948E0D0E94120C0895A2
:1018700080E00895A6E0B0E0E0E4FCE00C948C2E5B
:101880002696E2E00C94A82EA7E0B0E0EAE4FCE0A3
:101890000C948C2E2796E2E00C94A82E08950E94BA
:1018A0004E0C08950E944F0C90935702809356025D
:1018B000089508950E94520C089520915602309187
:1018C0005702822B932B0E94520C089520915602AE
:1018D00030915702822393230E94520C0895209145
:1018E000560230915702822793270E94520C089586
:1018F0000E944E0C08950E94780C08950E947B0C63
:101900009093550280935402089590E080E00E94E5
:101910007E0C089521E030E0A90102C0440F551F5C
:101920008A95E2F7CA010E947E0C089521E030E01A
:1019300002C0220F331F8A95E2F7809154029091E2
:101940005502822B932B0E947E0C089521E030E0FB
:1019500002C0220F331F8A95E2F7209530958091BF
:10196000540290915502822393230E947E0C089585
:1019700021E030E002C0220F331F8A95E2F7809108
:10198000540290915502822793270E947E0C08955D
:101990002091540230915502822B932B0E947E0C91
:1019A00008952091540230915502822393230E947E
:1019B0007E0C08952091540230915502822793277E
:1019C0000E947E0C08950895262F277091E001C093
:1019D000990F2A95EAF723E0769567952A95E1F71E
:1019E000660F771F660F771FFA01E60FF71F50E0AB
:1019F00040E0682F70E08191DF0111979B01042E78
:101A000002C0369527950A94E2F721702195282780
:101A1000292328272C934F5F5F4F4430510559F7F6
:101A20000895A82FA77023E0969587952A95E1F74A
:101A3000880F991F880F991FFB01E80FF91F50E0CD
:101A400040E080E0219130E00A2E02C036952795D3
:101A50000A94E2F721703327042E01C0220F0A9462
:101A6000EAF7822B4F5F5F4F4430510559F70895D5
:101A7000262F953070F48F3060F4682F70E08FE07F
:101A8000989F600D711D11244CE252E0822F0E943C
:101A9000E40C0895292F953068F48F3058F490E0C5
:101AA0006CE272E03FE0239F800D911D11240E94A3
:101AB000110D089580E00895B0E0A0E0E2E6FDE0B9
:101AC0000C94852E7C010091540210915502809156
:101AD000560290915702082B192BCFE0D0E0CC246E
:101AE000C394D12CBC2EC6010C2E02C0880F991FA6
:101AF0000A94E2F780239123892B49F4219790F7E8
:101B0000B12C8B2DCDB7DEB7E9E00C94A12EB70137
:101B10008C2F0E944F14019789F3F3CFCF93DF935B
:101B2000EC010E945C0DBE010E944F14DF91CF9129
:101B300008951F93CF93DF93EB0190912B0299238C
:101B400039F0CB010E948E0DDF91CF911F91089546
:101B5000882369F0CB010E945C0D182F682FCE01FD
:101B60000E94380DBE01812F0E944F14EDCFCB0192
:101B70000E944A0D182FF6CF1F93CF93DF93C09189
:101B8000580217E0809159028C1304C0DF91CF9165
:101B90001F910895D0E01C9FF0011D9FF00D1124AE
:101BA000E65AFD4F208131814281538164817581E4
:101BB00086810E94440C2196C770E4CF2091920246
:101BC0003091930240919402509195026091960257
:101BD00070919702809198020E94440C0895CF93CF
:101BE000DF9380919802807F09F04DC08091970229
:101BF000882309F448C0E091580250915902C091DD
:101C00009302D0919202609194027091950247E004
:101C10005E17C9F18E2F90E0E49FF0011124E65A7F
:101C2000FD4F2481222391F1489FF001499FF00D3F
:101C30001124DF01A65ABD4F11962C9111972C1338
:101C400025C02C912D1322C015962C91159721118A
:101C50001DC012962D913C91261B370B283C310557
:101C6000A8F4809198028F70806180939802E05A66
:101C7000FD4F80818F708061808382E992E00E94B5
:101C8000E00B0E94BC0DDF91CF910895FC013196CD
:101C9000E770BECF482F209158029091590257E02B
:101CA000291302C080E0089530E0529FF001539F55
:101CB000F00D1124E65AFD4F8181681306C0808122
:101CC000481303C085818111EECF2F5F3F4F2770EE
:101CD000E7CFA4E1B0E0EFE6FEE00C94822E8C01A9
:101CE00086E0F801DE011F9601900D928A95E1F7DA
:101CF000F8018481E58092E9A92E92E0B92E9091B5
:101D0000960291111FC08823D1F0EE20A9F0C801DE
:101D10000E942D0CF82E882379F087E0F801D50178
:101D200001900D928A95E1F7C5010E9477090E9402
:101D3000EF0D0E94DE0D5FC0C8010E94E00BFF2482
:101D4000F39459C0C080D18082809380F090970234
:101D50002091940230919502A401421B530BFF2065
:101D600009F4F9C0483C510508F0A7C0882309F4DC
:101D700042C09091930280919802282F207F09F011
:101D80005CC09D1116C090919202C91212C0E11060
:101D90004EC08F708061809398020E94DE0D82E9B0
:101DA00092E00E94E00B80919802F8018683F12C6A
:101DB00022C0E1103CC06D2D8C2D0E944A0E6D2D6D
:101DC0008C2D0E944A0EE82E8111F1CFCF86D88A41
:101DD0008F8598890E948E0D292F22952F7024308F
:101DE00078F49F702230A8F09923B9F0F801968119
:101DF000907F99F4FE2C8F2D6496ECE00C949E2E2F
:101E00002A5F2F70223068F0C8010E94E00BEF2C8F
:101E1000F1CF992311F0882369F3805E883050F365
:101E2000F3CF803F38F3815F833070F7E3CF809149
:101E30009802816080939802BACF9D1113C090914F
:101E40009202C9120FC0E1100DC08683C8010E9422
:101E5000E00B87E0F801A2E9B2E001900D928A95CB
:101E6000E1F767CFC8010E942D0C882309F464CFE5
:101E7000EE2009F461CF80919802803288F02091A1
:101E8000920230919302398728879B868A869091A7
:101E900096029C871D868E87CE0108960E94E00BD5
:101EA00087E0F801A2E9B2E001900D928A95E1F78E
:101EB0000E94EF0D0E94DE0D42CF90919802292FD3
:101EC000207FA1F4682D9A8A898AA6017A899E2D9D
:101ED0000E943A0C82E992E00E94E00B87E0F50153
:101EE00011928A95E9F70E94DE0D61CF882309F4EB
:101EF00082CF809193028D1110C080919202C812FE
:101F00000CC0E1100AC09683C8010E94E00B87E074
:101F1000F50111928A95E9F76ECFC8010E942D0C48
:101F2000882309F409CFEE2009F406CF80919802A6
:101F3000803208F4B5CF20919202309193023A8317
:101F400029839C828B82909196029D831E828F832F
:101F5000CE010196A3CF483C5105B8F5882309F47A
:101F6000EECEFE2CEE2009F4E7CE809193028D1187
:101F70001EC080919202C8121AC08091980280FD02
:101F80000DC0982F907F51F08683903F09F45ECF6B
:101F9000982F907F905F8F70892B57CF87E0F80143
:101FA000A2E9B2E001900D928A95E1F724CFC80131
:101FB0000E942D0C811174CF8091980281608093D2
:101FC0009802C8010E94E00B16CF682D9A8A898A70
:101FD000A6017A899E2D0E943A0C87E0F5011192A4
:101FE0008A95E9F7A6CEAEE0B0E0E9EFFFE00C9409
:101FF0008B2E288739874A875B876C877D878E87FA
:10200000CE0108960E94690E8823B1F06C85662384
:1020100041F0288539854A855B857D858E850E94BE
:10202000440C17E0809158029091590289133DC0E9
:102030002E96E3E00C94A72E87E0FE013896DE0191
:10204000119601900D928A95E1F78C85882349F3CA
:102050002091590230E0C90101968770992740917B
:1020600058024817190699F097E0929FD001939F64
:10207000B00D1124A65ABD4FFE01319601900D926C
:102080009A95E1F7809359020E94BC0DCACF0E9435
:102090000D0C109259021092580287E0E2E9F2E02A
:1020A000DF011D928A95E9F7BCCF819FC001112401
:1020B000865A9D4F0E94690E882309F4B9CFE0919A
:1020C00058021E9FF0011124E65AFD4F20813181F4
:1020D000428153816481758186810E94440C809184
:1020E000580290E0019687709927809358029ACF02
:1020F0008091A10286958695869508958091A1028A
:10210000877008959091A102977081E009F480E0B2
:1021100008958091AD0208959091AD02892B80932E
:10212000AD02089580959091AD0298239093AD02F1
:1021300008951092AD0208959091AC02892B80937E
:10214000AC02089580959091AC0298239093AC02D4
:1021500008951092AC02089508950E94AC1008955D
:102160009091A202292F282331F080958923809312
:10217000A2020E94AD10089508950E94BC10089517
:102180009091A302292F2823281729F0982B9093A8
:10219000A3020E94BD1008959091A302292F282325
:1021A00031F0809589238093A3020E94BD10089589
:1021B0008091A302882329F01092A30280E00E945C
:1021C000BD1008950F931F93CF93DF9300910401E7
:1021D00010910501C091AD028091AC02C82B809195
:1021E000A302882331F0C82B0E94BD2481110E94D4
:1021F000D810F801C083C0910401D091050148E0D6
:1022000050E069E972E0CE010E94522F892B59F00B
:1022100088E0FE01A9E9B2E001900D928A95E1F70C
:10222000CE010E946F24DF91CF911F910F910895ED
:102230000E94E210089508950E941B110895909144
:10224000DB0492FF11C098E0899F90011124622B5A
:102250006093A1020E94960C8091A10286958695BA
:1022600086950E941C1108950E94960C0895109264
:10227000A10280E00E941C1108959091A102809516
:1022800089238093A102282F277069F4891759F0B8
:102290009091DB0492FF07C08695869586950E94F3
:1022A000A60C0E9437110895CF93C82F8091DB04AC
:1022B00082FB992790F99C17E9F0C0FB82F9809383
:1022C000DB048091DA049091DB040E94B61182E075
:1022D0000E943D118091C20280FF0CC01F92CF93DB
:1022E0008BE092E09F938F930E9454070F900F9082
:1022F0000F900F90CF9108958091DB0482FB882787
:1023000080F991E089270E945411089581E00E948C
:102310005411089580E00E94541108956FEF7FEFEB
:1023200090E080E00E94AA2F089590E080E00E9453
:10233000762F21E0853E9E4F09F020E0822F089500
:1023400082E090E00E94682F089583E090E00E9470
:10235000682F90E00895682F83E090E00E948C2F12
:10236000089584E090E00E94762F0895BC0184E0F7
:1023700090E00E94AA2F0895AB01BC018FE090E08D
:102380000E949E2F0895AB01BC0183E190E00E9462
:102390009E2F089560E070E0CB010E94C311089564
:1023A00060E070E0CB010E94BC110E94CA11089548
:1023B000A8E0B0E0EEEDF1E10C948C2E65EE7EEF3E
:1023C00090E080E00E94AA2F60E082E090E00E940E
:1023D0008C2F81E090E090935702809356020E94E8
:1023E000AB1160E074E184E090E00E94AA2F60E00D
:1023F00086E090E00E948C2F60E087E090E00E94F1
:102400008C2F40E050E0BA0188E090E00E949E2FBF
:1024100060E083E290E00E948C2F60E08CE090E02E
:102420000E948C2F60E08DE090E00E948C2F19823A
:102430001A821B821C821D821E821F82188648E01F
:1024400050E067E170E0CE0101960E947C2F40E0F1
:1024500050E0BA018FE190E00E949E2F0E94D011BF
:102460002896E2E00C94A82E0E94D8110895682FB7
:102470008EE090E00E948C2F0895A6E0B0E0E3E4A7
:10248000F2E10C948A2E0E9424268C018091AE02E7
:102490009091AF028017910781F019821A820E94F1
:1024A0002426682F49815A81792F80E090E00E948C
:1024B00047091093AF020093AE022696E4E00C9415
:1024C000A62E0E9430266093BE027093BF028093B6
:1024D000C0029093C1026093BA027093BB028093D2
:1024E000BC029093BD020895089508950E9474124D
:1024F000089508950E9479120E9476120895089511
:102500000E947F12089508950E9483120E948012F3
:10251000089580E398E20E940C170E9475120E94B1
:102520007A12089581E008950E94921208950E94FF
:10253000921208950895089508950E949A120E9493
:102540009B120E949C1208950E949511811102C055
:102550000E9434120E94A0118093C2020E94B11105
:102560009093DB048093DA040E94BB200E94A511A3
:102570000E945A0C80915402909155020E947B0C4B
:1025800008950E941B260E9465160E94A4120E94B4
:1025900010090E94C41E0E9484120895A6E0B0E0B3
:1025A000E4EDF2E10C94802E0E94941281110AC095
:1025B0000E943D120E945C200E941D092696EEE0BA
:1025C0000C949C2E0E947B1620EB822E22E0922EF1
:1025D000640110E0F601E190F1906F01812F0E94FB
:1025E0005F151F5F153009F44BC0E816F90691F32B
:1025F0008091C20281FD0E9468150E949712782E78
:1026000010E066246394812F0E945F157C01F40121
:10261000A190B1904F018A159B0561F100E0CC2497
:10262000C394D12CAE24BF24C5018C219D21892BBC
:10263000C1F07720B1F009831A830E9424269C837D
:102640008B836D8221E0C7018C219D21892B09F4A8
:1026500020E049815A816B817C818D81922F0E947B
:1026600047090F5FCC0CDD1C0F30F1F6F4013297F7
:10267000F182E0821F5F153031F60E9461129ACF1D
:10268000E816F90609F0B4CF93CF1F93CF93DF93E9
:102690000E945414EC01C11582E5D80708F03FC030
:1026A000C11590E5D90708F0C2C0C83ED105C0F4F5
:1026B000C03ED10580F4C53AD10548F4C430D105F7
:1026C00050F4C130D10539F0D0E0C0E004C0CD3CB9
:1026D000D105D0F3D065CE01DF91CF911F91089540
:1026E000C11580E4D80708F053C0C11590E2D9079E
:1026F00008F0B7C0C11581E0D80730F38D2F0E94D4
:10270000F614182FCE0199270E945414C12FD0E03F
:10271000DC2FCC27CC27DF71C82BD92BDCCFC038DE
:1027200092E5D907A8F4C03682E5D80708F063C05F
:10273000C03492E5D90708F049C0C03282E5D80715
:1027400088F1CF71D0E0DC2FCC27C16FD06AC3CF26
:10275000C03C92E5D90780F48C2F8F71C03AD245E6
:1027600008F45EC00E94F614C82FD0E0DC2FCC27FE
:10277000CC27DF71D062AFCFC03E82E5D80708F02A
:10278000A3CFDC2FCC27CC27DF71C06FD06AA3CFBB
:10279000CE0199270E945414CC27DF70C82BD92B67
:1027A000D06A99CF2C2F2695269590E2299F9001EB
:1027B00011248C2F8370C1E0D0E002C0CC0FDD1F4C
:1027C0008A95E2F7C22BD32BDD6885CF2C2F269577
:1027D0002695277080E2289F900111248C2F83700A
:1027E000C1E0D0E002C0CC0FDD1F8A95E2F7C22B1A
:1027F000D32BDC6870CF2C2F26952695277090E27E
:10280000299F900111248C2F8370C1E0D0E002C079
:10281000CC0FDD1F8A95E2F7C22BD32BDA685BCF92
:10282000C82FD0E0DC2FCC27C46FD06A54CF8C2FB8
:102830008F710E94F61455E0D695C7955A95E1F729
:10284000CF70D0E0DC2FCC27282F30E084FF05C0EC
:1028500044E0220F331F4A95E1F7C22BD32BD069F6
:102860003ACF8D2F8F710E94F614182FCE01992721
:102870000E945414C12FD0E0DC2FCC27CC27DF716D
:10288000C82BD92B77CF462F753030F46F3020F41A
:10289000672F0E947907089590E080E008950E94D4
:1028A00043140E944513089582389105B9F1B0F49C
:1028B0008133910509F47DC048F48932910509F40A
:1028C0006DC08A32910509F47BC008958533910566
:1028D00009F45FC08933910509F10895833E91059C
:1028E000D9F138F4803E910529F1823E910579F1C4
:1028F0000895863E9105D9F1873E910509F43EC0C1
:10290000843E910541F52091DB0421FF24C0809194
:10291000DA0484FD19C087EE90E008952091DA046E
:10292000237009F05AC02091DB0423FF14C089E210
:1029300090E008952091DA0420FD38C03091DB0446
:1029400030FF09C024FF43C090E080E0089520914B
:10295000DA0422FDF7CF08952091DA0422FD3AC06F
:102960003091DB0430FD39C024FFF5CFEDCF20914D
:10297000DA0423FFF0CF24FDE7CFCDCF2091DA0496
:1029800023FD2EC03091DB0431FFEECF84EE90E0CA
:1029900008952091DA0425FFDECFC9CF2091DA0413
:1029A00025FD21C02091DB0423FFD5CF89E390E0F2
:1029B000D2CF2091DA0426FFCECF8AE290E00895AC
:1029C0002091DA0426FFC7CF81E390E0089583EEDB
:1029D00090E0089582EE90E0089580EE90E00895F2
:1029E00086EE90E0089585E390E008959091DA04F2
:1029F00092FF10C041E0282F2471243009F040E0FC
:102A000031E0282F2871283009F030E0431711F009
:102A10002CE0822793FF10C041E0282F247124313D
:102A200009F040E031E0282F2871283109F030E02A
:102A3000431711F02CE082273091DB0430FF10C0E7
:102A400051E0282F2171213009F050E041E0282F7A
:102A50002871283009F040E0541711F029E082274E
:102A600031FF10C041E0282F2171213109F040E0F1
:102A700031E0282F2871283109F030E0431711F098
:102A800029E0822794FD877E0895CF939C01205EE4
:102A90003245C1E02032310538F4FB01C581C11156
:102AA00003C08F710E9408088C2FCF91089508955C
:102AB0000E945715089508950E945B150895E82F08
:102AC000F0E0EE0FFF1FEA51FB4F808191810895E6
:102AD000B0E0A0E0EEE6F5E10C94822E80E392E017
:102AE0009F938F930E94540786EEE82E84E0F82E81
:102AF0000F900F90912C812C9BE2A92E92E0B92E81
:102B000028E2C22E22E0D22E02E212E0C0E2D2E09F
:102B10009F928F92BF92AF920E945407DF92CF9202
:102B20000E945407F701819191917F010E94F10861
:102B30009F938F931F930F930E945407DF93CF931C
:102B40000E9454079FEF891A990AEDB7FEB73C9689
:102B50000FB6F894FEBF0FBEEDBFF5E08F169104DF
:102B6000B9F6CDB7DEB7ECE00C949E2E80EA8A95DC
:102B7000F1F7089500C008950E94B6150895F894DD
:102B8000E82FE295EF70F0E031A1282F2F7081E05F
:102B900090E001C0880F2A95EAF7982F909593232B
:102BA00091A392A1892B82A3789408950F931F93E8
:102BB000CF93DF93C6E3D1E089918F3F11F00E945C
:102BC000BF1581E0CB33D807B9F7C7E2D1E006E300
:102BD00011E089918F3F11F00E94BF150C171D075E
:102BE000C1F7DF91CF911F910F910895AF92BF92DE
:102BF000DF92EF92FF920F931F93CF93DF938C019D
:102C0000D62EC62FD0E0CE018A5C9E4F7C01FC01FF
:102C100020812F3F09F44CC0F894E22FE295EF7029
:102C2000F0E031A12F7081E090E001C0880F2A957B
:102C3000EAF7932F982B91A392A18095892382A3E1
:102C400078940E94BA15E7E2F1E041E050E0B12C3F
:102C5000A12C21912F3FB1F1A22FA295AF70B0E02E
:102C600090968C9190E02F7002C0959587952A954B
:102C7000E2F780FD27C0CA01A82AB92A440F551FD0
:102C800081E0E633F80729F7F70180818F3F11F0E3
:102C90000E94BF1561E0A114B10409F460E08D2D1C
:102CA0000E94BC15CC0FDD1FC00FD11FB982A882B6
:102CB000DF91CF911F910F91FF90EF90DF90BF9028
:102CC000AF90089590E080E0D7CF0E94D6158AE0BB
:102CD000E6EEF4E0DF01982F1D929A95E9F7ECED0E
:102CE000F4E0DF011D928A95E9F785E00E94B616AF
:102CF0000E9458150895AAE0B0E0E1E8F6E10C94CE
:102D0000892E8E010F5F1F4F8AE0F80111928A957C
:102D1000E9F7F12C6F2DC8010E94F615F394F5E048
:102D2000FF12F8CF4AE050E0B8018CED94E00E9429
:102D3000522F21E0009709F420E0892B41F08AE02E
:102D4000F801ACEDB4E001900D928A95E1F745E011
:102D500066EE74E08CED94E00E94B716182F0E9486
:102D60005C15812F2A96E5E00C94A52E0895B0E01D
:102D7000A0E0EDEBF6E10C94862E6C017B01042FB4
:102D8000C22F222379F081E08093C5020E9424267D
:102D90009093C4028093C30280E0CDB7DEB7E8E031
:102DA0000C94A22ED091C502DD23B1F38091C30211
:102DB0009091C4020E94B325059770F310E0000FB4
:102DC000111FA801B601C7010E94522F892B31F0B3
:102DD000A801B601C7010E945F2FCD2F1092C50236
:102DE0008C2FDBCF0E94CE1208950E94BD250E9439
:102DF00092280E9489120E94AC280E94C1120E944F
:102E0000B9280E94BE280E94F2160E94E4280E945F
:102E1000CC260E949D12F5CF909325028093240228
:102E200008950F931F93CF938C01FB01C581CC2391
:102E300009F447C00E9489108272F801E052F847F5
:102E4000EB30F10538F4E351F04D0C94452E0E941F
:102E5000731FC0E08C2FCF911F910F91089588238D
:102E600029F00E949B1EF5CF8823D9F30E948B1E68
:102E7000F0CF882329F00E940B1BEBCF8823D9F3D6
:102E80000E94FC1AE6CF882329F00E942D1BE1CF77
:102E90008823D9F30E941C1BDCCF882329F00E94D1
:102EA0004F1BD7CF8823D9F30E943E1BD2CF882354
:102EB00029F00E947119CDCF8823D9F30E945119AE
:102EC000C8CFC1E0C7CFEF92FF920F931F93CF936C
:102ED000DF939B01682F31110EC0442329F0E82FA6
:102EE000F0E0ED56F94F6491762F862FCDB7DEB71F
:102EF000E6E00C94A42EC32FD0E0E82FF0E04423AA
:102F000021F0ED56F94FE491F0E046E0249FC00136
:102F100011240FEF10E0B8010E94FB2DAB01822FAE
:102F200090E0880F991F25E5249FB001259F700D23
:102F30001124861B970B982F990F980FB8016C1BC3
:102F40007D0B6E9FD0016F9FB00D7E9FB00D112441
:102F50008B2F939F90011124232F3327B801621BDD
:102F6000730B6E9F90016F9F300D7E9F300D11246B
:102F70007801E91AF108EC9EB001ED9E700DFC9EFF
:102F8000700D1124672F7727061B170B0E9FE0018A
:102F90000F9FD00D1E9FD00D11247D2F9E2F4230EC
:102FA000510599F048F44115510569F0413051053A
:102FB00081F07B2F832F07C04430510569F080F0EA
:102FC00046305105B1F7692F91CF9B2F8D2F7E2F62
:102FD000FACF7E2F932FF7CF9D2F7B2F8E2FF3CFFE
:102FE000732F9B2FFBCF41E00E9463170895089534
:102FF0000E94F317089590910901291B922FE091E7
:103000006801F0916901242F462F682F892F90E0E5
:1030100009950895CF93DF93762FE901682F842FC8
:103020000E94F817962F672F9E01482F892F0E9424
:10303000FB17DF91CF910895493C08F048EC0E94BE
:103040000A1808958091F004982F9C7F61F4837092
:1030500084608093F0048091F304893C18F088EC3C
:103060008093F30408958C3AB0F38370886AF1CFAB
:10307000B0E0A0E0EEE3F8E10C94862E88E090E06A
:103080000E94702F6B017C0183E290E00E94682F08
:10309000282F30E040E050E060E070E080E090E019
:1030A00000E20E94B32EB22FA32FF42FE52FD62FCC
:1030B000C72F97018601BC29A12BFE295E2F532B18
:1030C0002B2F3A2F4F2F6D2F7C2FCDB7DEB7E8E097
:1030D0000C94A22EB0E0A0E0E0E7F8E10C94822E80
:1030E00049015A016B017C010E9422188401A4014C
:1030F0006A2D7B2D88E090E00E949E2F94014A2D3E
:103100005B2DB601C70100E20E94CE2E622F83E242
:1031100090E00E948C2FCDB7DEB7ECE00C949E2E91
:10312000E0EFF4E085E0808311828FEF828388EC0A
:1031300083831482758125E030E04FEF58EC60E026
:10314000868197810E946A1808958091C20280FF4B
:103150008BC080E695E09F938F930E9454078091E7
:10316000C2020F900F9080FF7FC08091F0048170A9
:103170001F928F9383E495E09F938F930E9454074F
:103180008091C2020F900F900F900F9080FF6CC043
:103190008091F004869581701F928F9383E295E071
:1031A0009F938F930E9454078091C2020F900F90BB
:1031B0000F900F9080FF58C08091F00486958695FF
:1031C0001F928F9388E095E09F938F930E945407FE
:1031D0008091C2020F900F900F900F9080FF44C01B
:1031E0008091F1041F928F938EEE94E09F938F93C2
:1031F0000E9454078091C2020F900F900F900F9081
:1032000080FF32C08091F2041F928F9384ED94E08E
:103210009F938F930E9454078091C2020F900F904A
:103220000F900F9080FF20C08091F3041F928F9326
:103230008AEB94E09F938F930E9454078091C2027F
:103240000F900F900F900F9080FF0EC08091F404AC
:103250001F928F938EE994E09F938F930E9454075F
:103260000F900F900F900F9008959091F404933069
:1032700018F49F5F9093F404882391F02091F00458
:103280003091F1044091F2045091F3046091F40400
:103290007091F5048091F6049091F7040E946A18E9
:1032A000089581E00E94351908959091F4049923BE
:1032B00019F091509093F404882391F02091F00438
:1032C0003091F1044091F2045091F3046091F404C0
:1032D0007091F5048091F6049091F7040E946A18A9
:1032E000089581E00E94551908950F931F93CF937D
:1032F0008091F00480FF09C0E0916C01F0916D01B4
:103300000995CF911F910F910895C0910B010091E4
:1033100068011091690180910C01C81768F78091CC
:1033200009019C2F981B892F20E040E060E090E08D
:10333000F8010995CF5FEFCFEF92FF920F931F93A4
:10334000CF93DF93D82F162F042F8091F00480FFA6
:103350000CC0C0910B01E0906801F0906901809170
:103360000C01C81738F00E947519CDB7DEB7E6E03A
:103370000C94A42E809109019C2F981B892F202F3B
:10338000412F6D2F90E0F7010995CF5FE8CF762FA1
:103390009091F00490FF0DC0493C08F048EC682F74
:1033A000842F0E94F317962F672F482F892F0E9492
:1033B0009C190895CF93DF93EC01EC81F0E0E25784
:1033C000FA4F4491E0EFF4E0628181810E94C719D5
:1033D0008C818F5F8C83DF91CF910895CF93DF93A2
:1033E000EC01E0EFF4E0438162818C810E94C71917
:1033F0008C818F5F8C83DF91CF910895CF93DF9382
:10340000EC014091F3049C81892F817090FD842F01
:10341000692F627091FD642F92FF40E00E949C1919
:103420008C8190E00196877099278C83DF91CF91F2
:103430000895B0E0A0E0EFE1FAE10C94812ED82FDE
:10344000F62E142F922E9091F00490FF52C0E92F87
:10345000E695E695AE2FB0E0A55CBE4F8C918093CB
:10346000C5049C7F943009F049C0842F493C08F082
:1034700088EC6D2F7F2D0E94F317962F672F482F12
:10348000892F0E949C19D093F104F092F2041093BA
:10349000F304992009F48CC02091F0046091F404A5
:1034A0007091F5043D2F4F2D512F8091F60490918E
:1034B000F7040E946A188091C20280FF1AC08091AE
:1034C000F3041F928F938091F2041F928F93809147
:1034D000F1041F928F9380EA92E09F938F930E9452
:1034E00054078DB79EB708960FB6F8949EBF0FBECF
:1034F0008DBFCDB7DEB7EDE00C949D2E823019F470
:103500001091F304C0CF863019F4D091F104BBCFF1
:103510008930D9F3893109F0B6CFE9518E2F817006
:10352000882E8E2F80958170E82EE695F0E0E25788
:10353000F94FC49100E085ECA82E82E0B82E60918E
:103540000D01061718F00E9475199DCF0C9FC00140
:10355000112470E00E94FB2D7D2E811027C0760E75
:10356000C02ED12C8091C20280FF14C01F92CF9335
:103570001F92EF921F927F921F920F93BF92AF9272
:103580000E9454078DB79EB70A960FB6F8949EBF57
:103590000FBE8DBF20910B012C0D3D2D311D412FF4
:1035A0006F2D872D0E941C180F5FC9CF761AD8CFB8
:1035B0008091C20280FF9DCF1F921F931F92FF92A6
:1035C0001F92DF9389E792E09F938F930E945407A5
:1035D0008DB79EB708960FB6F8949EBF0FBE8DBFED
:1035E00088CFE0EFF4E09181282F4381628188E069
:1035F000890F0E94191A089581E00E94F11A089516
:10360000E0EFF4E09181282F4381628188EF890FF8
:103610000E94191A089581E00E94001B0895E0EFAE
:10362000F4E0628128E0620F08F46FEF282F4381F5
:1036300081810E94191A089581E00E940F1B08954C
:10364000E0EFF4E0628128E0621B08F460E0282FDC
:10365000438181810E94191A089581E00E94201BF4
:103660000895E0EFF4E0438128E0420F08F44FEFC3
:10367000282F628181810E94191A089581E00E9499
:10368000311B0895E0EFF4E0438128E0421B08F489
:1036900040E0282F628181810E94191A089581E0FB
:1036A0000E94421B089520E00E94191A0895EF928B
:1036B000FF921F93CF93DF93EC0110E0EE24EA9486
:1036C000F12C60910D01161770F00E9475199A8106
:1036D0008C8190FF1EC08F5F8C83DF91CF911F91F3
:1036E000FF90EF90089520910B01210F3327331F96
:1036F00070E0C7010E940F2E962F8C814091F30439
:103700006091F204199F800D11240E941C181F5F04
:10371000D8CF8150E1CFB0E0A0E0E1E9FBE10C942B
:10372000842EFC018281DFEF80FFD1E0C0E00091B8
:1037300068011091690124E6A22E80910D01C8173D
:1037400098F00E9475198091C702D13009F050C0DD
:10375000811102C080910D0181508093C702CDB7C5
:10376000DEB7EAE00C94A02E80910B019091090144
:10377000891B8C0F20E040E060E090E0F8010995A3
:1037800094E0E92EF12CB12CCC2ED12C8091C702E3
:103790008B0D85363CF16A2D0E94ED2D892F082E68
:1037A000000C990BC816D906B1F420910B012C0D11
:1037B0003D2D311D8091F3048E9DA0018F9D500DF4
:1037C000112455954795559547956091F204809140
:1037D000F1040E941C18BD0EF1E0EF1AF108B1F6D9
:1037E000CF5FABCF87FFDBCF90910D01890FD7CF94
:1037F00090E0019660910D0170E00E940F2EADCF18
:103800000F931F93CF93C0910B010091680110910A
:10381000690180910C01C81750F1C0E00091680166
:103820001091690160910D01C61770F10E94751920
:10383000209107018091C602820F8093C602909169
:103840000801920F90930801191654F4082E000CE9
:10385000990B40910D014150550B841795071CF0B1
:10386000219520930701CF911F910F910895809189
:1038700009019C2F981B892F20E040E060E090E038
:10388000F8010995CF5FC5CFEC2FF0E070E0CF01D4
:103890000E940F2E20910B01820F2091C602022E52
:1038A000000C330BE217F307A4F020910801022E5D
:1038B000000C330B2E173F0764F0282F30E04091A7
:1038C000F3046091F2048091F1040E941C18CF5F10
:1038D000A9CF90910901891B20E040E060E090E0D1
:1038E000F8010995F4CFB0E0A0E0E9E7FCE10C9421
:1038F000822EEC014C81042F10E09801D8010E9427
:10390000532E9B01AC010E94692E4B015C01E0E249
:10391000F0E0E01BF10BA5E5B0E0AC019B010E94DB
:10392000692E6B017C019F01DF010E944B2E9B01E0
:10393000AC010E94742E9B01AC01280D391D4A1D5B
:103940005B1DC701B6010E94232EF22E822F90E04C
:1039500039E23F1520F143E0249F90011124359571
:103960002795122F109500E085E5E82EEF1880913D
:103970000D01081720F10E9475199C8181E099239F
:1039800019F0903219F48FEF8093060180910601AF
:10399000890F8C83CDB7DEB7ECE00C949E2E25E525
:1039A00030E0A901481B590BCA019A01220F331FAD
:1039B000280F391F37FFD3CF2F5F3F4FD0CF8E2D2A
:1039C00001FD8F2D20910B01200F3327331F412F35
:1039D0006091F2040E941C180F5FC9CF0F931F93D0
:1039E000CF93DF938C01D0E0C0E090910D019C1744
:1039F0001D0609F074F40E947519F801848190E0A5
:103A00000196817099278483DF91CF911F910F9147
:103A10000895F801448120910B012C0F3D2F311D99
:103A20006091F2048091F10496959C171D0649F06F
:103A300044F0442341F04091F3040E941C18219665
:103A4000D4CF4423C1F340E0F8CFB0E0A0E0EBE2F4
:103A5000FDE10C947E2EFC016280448081E0848331
:103A6000EEE8F5E07490EDE0F6E0E491C091F30447
:103A7000C695C158D0E0CC0FDD1FCD2FDD27812C9E
:103A800025E0922EAA24AA94B12C55245A94E71921
:103A9000EE2EF12C80910D01881638F00E947519D8
:103AA000CDB7DEB7E0E10C949A2EC82CD12C82E081
:103AB000861568F09C9CF0019D9CF00D1124E85344
:103AC000FD4F8091F10480838091F2048183411045
:103AD0001CC09C9CF0019D9CF00D1124E853FD4FEF
:103AE0001382128220910B012C0D3D2D311D9C9CC7
:103AF000F0019D9CF00D1124E853FD4F428161813E
:103B000080810E941C188394C5CF9C9C80019D9C41
:103B1000100D112408531D4FF80183818823F1F003
:103B200081508383859DC0011124648170E00E94CF
:103B3000FB2DFB01FF27E257FA4F8491E82FE7198D
:103B4000E59DC0011124B7010E94FB2D8091F30473
:103B5000689FB0011124F8017283C4CF0E94352FF1
:103B6000B5010E940F2E8C179D070CF0BBCFF2E021
:103B7000F61598F40E94352FB5010E940F2EF8011A
:103B800080830E94352F2091F2042695622F70E0E9
:103B90000E940F2E280FF80121839C9CF0019D9C10
:103BA000F00D1124E853FD4F12828091F304893CFB
:103BB00058F088EC9C9CF0019D9CF00D1124E8537A
:103BC000FD4F848383838ECF8431A0F784E1F2CFCD
:103BD0006091F0046695669570E04BE050E08EE0F1
:103BE00091E00E94452F892B19F481E08093C6044F
:103BF0000E9424269093BD048093BC048091C2024D
:103C000080FF08C080E692E09F938F930E94540744
:103C10000F900F9008951092C6048091C20280FF09
:103C200008C087E492E09F938F930E9454070F90FF
:103C30000F9008959091F00490FF49C09370811106
:103C400047C094609093F0042091F004662309F437
:103C500047C03091F1044091F2045091F304609117
:103C6000F4047091F5048091F6049091F7040E9499
:103C70006A188091C20280FF10C08091F00486957E
:103C800086951F928F9383E294E09F938F930E9477
:103C900054070F900F900F900F906091F00466956D
:103CA000669570E04BE050E08EE091E00E94452F79
:103CB000892B09F10E940B1E81E08093BF04409183
:103CC000F3046091F2048091F1040E94531B089563
:103CD0008B3210F0986AB6CF880F880F982BB2CF2E
:103CE0008091C20280FFD9CF269526951F922F93EF
:103CF00085E094E0CACF0E94E81DDECF682F909146
:103D0000F0049695969581E0890F8B3208F081E05A
:103D10000E941A1E089581E00E947E1E0895682F59
:103D20009091F004969596958FEF890F09F48AE2A9
:103D30000E941A1E089581E00E948F1E089561E07E
:103D40000E941A1E08958091F00481608093F0040F
:103D50008091C20280FF0DC01F9281E08F9387E99E
:103D600093E09F938F930E9454070F900F900F90B2
:103D70000F908091F004869586950E949F1E08956D
:103D800060E00E941A1E08958091C404811156C0FB
:103D90008091C20280FF08C088E894E09F938F93CF
:103DA0000E9454070F900F900E9438182093F0043F
:103DB0003093F1044093F2045093F3046093F404BD
:103DC0007093F5048093F6049093F7042C7F01F52B
:103DD0008091C20280FF08C08FE394E09F938F938D
:103DE0000E9454070F900F900E9490180E9438185C
:103DF0002093F0043093F1044093F2045093F304C1
:103E00006093F4047093F5048093F6049093F704A0
:103E10000E9422180E94A5181092C604E091660123
:103E2000F091670109958091F00480FF04C08695A8
:103E300086950E94C01E81E08093C40408958091FD
:103E4000F00481608093F0048091C20280FF0DC075
:103E50001F9281E08F938EE593E09F938F930E9452
:103E600054070F900F900F900F908091F00486955B
:103E700086950E94C01E08951092C3048091C204CA
:103E800081110E941F1F0E94E81D08952091F004D7
:103E90002E7F2093F0043091F1044091F204509170
:103EA000F3046091F4047091F5048091F60490910C
:103EB000F7040E946A188091C20280FF0FC08091AF
:103EC000F00481701F928F9386E293E09F938F930B
:103ED0000E9454070F900F900F900F900E940B1E9E
:103EE0000E94751908958091C20280FF10C08091D0
:103EF000F004809581701F928F938EEC93E09F93D6
:103F00008F930E9454070F900F900F900F90809105
:103F1000F00480FF03C00E94461F08950E94A31E64
:103F200008958091F0048E7F8093F0048091C20206
:103F300080FF0CC01F921F928CEE92E09F938F9394
:103F40000E9454070F900F900F900F900E940B1E2D
:103F50000E94751908950E940B1E8091C30481115F
:103F60000AC081E08093C3048091F0048170809343
:103F7000C2040E94911F08950F931F93CF93DF9364
:103F80008091C6048823C1F18091C504E091F004BA
:103F9000E695E695E81BE093BE04823091F5F0E0EB
:103FA000E657FA4FE491CE2FD0E00AED19E1809167
:103FB000BF04882361F01092BF040E9424269093CE
:103FC000BD048093BC041092C1041092C0040E94EE
:103FD0002426E091BC04F091BD048E1B9F0B8F3F03
:103FE0009F4750F4EC0FFD1FF093BD04E093BC0419
:103FF0008CEB94E0F8010995DF91CF911F910F911F
:104000000895863049F4F0E0E957FA4FE491CE2F55
:10401000D0E00EEE19E1CBCF893051F4E695F0E017
:10402000EC57FA4FE491CE2FD0E007E51BE1BFCF6C
:104030008F3051F4E695F0E0EF57FA4FE491CE2F30
:10404000D0E00BE81BE1B3CF853149F4F0E0E25852
:10405000FA4FE491CE2FD0E000E01CE1A8CFC8E2F7
:10406000D0E003E71CE1883109F4A1CF833239F4B1
:10407000ECE7F5E0C591D4910EEF19E198CFC4EFCC
:10408000D1E00EEE1CE1843209F491CFC0EDD7E00F
:1040900007EF17E1853209F08ACF8E2F63E00E9487
:1040A000E12DE92FF0E0E758FA4FE491CE2FD0E070
:1040B00005E21DE17CCF08950E94BC1F0895809AFF
:1040C0000895FC01EE0FFF1FE80FF91FE850FB4FAA
:1040D0006183408322830895E8EFF4E08183608365
:1040E0004283339696E0E432F907C1F7089531B37D
:1040F0003E7F21B321604FB7F89488EF94E0FC0134
:104100005191CF0168E021BB000000C057FF31BBD7
:10411000550F000000C000C000C031BB00C06A9550
:1041200091F7F6E084329F0751F74FBF8FE594E097
:104130000197F1F700C0000008950E948E110895C4
:1041400080E00E945F15817008950E947B162FEF1A
:1041500086E791E0215080409040E1F700C00000E8
:104160000E947B160E94A020882321F00E949D209F
:104170000E94602608950E94A5200895CF93C82F1D
:104180001F928F9389E997E09F938F930E94540722
:1041900081E090E002C0880F991FCA95E2F70E9463
:1041A0005A0C0E940D0C0F900F900F900F90CF9112
:1041B0000895EF92FF920F931F93CF93DF938B316C
:1041C00009F426C108F0B4C08B3009F4D2C008F05D
:1041D00086C0863009F4E6C068F4853009F4B6C0BC
:1041E00082E39BE09F938F930E9454070F900F9060
:1041F00080E0F0C0873009F4F2C0883089F70E946F
:10420000A5119F938F9385E19BE09F938F930E94CD
:1042100054070E94A01183FB992790F91F929F9346
:1042200082FB992790F91F929F9381FB992790F920
:104230001F929F93982F91701F929F931F928F931D
:104240008CEC9AE09F938F930E9454070E94B111C7
:1042500093FB222720F91F922F9387FB222720F917
:104260001F922F9386FB222720F91F922F9385FB05
:10427000222720F91F922F9384FB222720F91F92D7
:104280002F9383FB222720F91F922F9382FB222753
:1042900020F91F922F9391FB222720F91F922F9331
:1042A000292F21701F922F9381FB222720F91F9223
:1042B0002F93282F21701F922F939F938F938DEC14
:1042C00099E09F938F930E9454078DB79EB78A966B
:1042D0000FB6F8949EBF0FBE8DBF81E07BC08031CA
:1042E00009F4B0C080F48E3009F07ACF9091C20208
:1042F000892F8B7F92FF84608093C20282FF9FC0D0
:104300008DE59BE091C0863109F4ACC0893109F09C
:1043100067CF8EE691E09F938F9389E098E09F931B
:104320008F930E9454070F900F900F900F90D5CF4E
:104330008A3269F1A0F4873231F128F48E3108F421
:104340004FCF8D5121C0893209F04ACF80EA9BE0DE
:104350009F938F930E9454070E94360820C0833495
:1043600078F48A3308F0A5C0853369F0883309F002
:1043700037CF87E298E09F938F930E9454070FC036
:10438000833409F02DCF80E00E94BE20A6CF80ECC0
:104390009BE09F938F930E9454070E9434120F90CA
:1043A0000F909BCF8091C202807F8093C2028CE0ED
:1043B00098E09F938F930E9454078CEB9BE09F9310
:1043C0008F930E94540781E08093C7040F900F9051
:1043D0000F900F90CDB7DEB7E6E00C94A42E90912D
:1043E000C202892F8E7F90FF81608093C20280FF7E
:1043F00003C084E99BE0BFCF87E89BE09F938F9346
:104400000E9454078091C202817F8093C202C7CF6D
:104410009091C202892F8D7F91FF82608093C202AA
:1044200081FF0AC08AE79BE09F938F930E94540705
:104430008091C2028160E9CF8CE69BE09CCF8DE445
:104440009BE099CF9091C202892F877F93FF88606C
:104450008093C20283FF03C081E49BE0E5CF84E345
:104460009BE089CF0E943026162F072FF82EE92EC9
:104470000E949125D82F0E947125C82F0E94622486
:10448000EF92FF920F931F931F92DF931F92CF9390
:104490001F928F938EE997E09F938F930E9454070A
:1044A0008DB79EB70C960FB6F8949EBF0FBE8DBF0A
:1044B00014CF895369CF80E008950E945B2208954C
:1044C000CF93C82F8091C704882331F0813099F0B1
:1044D0001092C70480E00DC00E9489108232D1F78B
:1044E0008C2F0E945B2281111DC08C2F0E94D9202D
:1044F0008170CF9108950E948910823289F38C2FA8
:104500000E945D22811125C0C43129F170F4CB30A5
:1045100081F083E997E09F938F930E9454070F9057
:104520000F901BC081E090E0E3CFC932A1F0C83307
:1045300081F78CE098E09F938F930E94540785E960
:1045400097E09F938F930E9454070F900F900F90C6
:104550000F9081E0CDCF1092C70480E0C9CFCF93F8
:10456000DF93EB0186319C4711F50E9489109D81F4
:10457000992399F08A7A91E009F490E09093C80425
:10458000811109C089E20E940D250E94181180E066
:10459000DF91CF91089585E3F6CF8091C804811112
:1045A00004C089E20E941525F0CF85E3FBCF81E0AE
:1045B000EFCFCF93DF93EC01FB018581882309F4D2
:1045C000D2C09E0130572332310508F0B2C00E949C
:1045D000B1119093DB048093DA04FE01E150F047BF
:1045E000E232F10520F4E850F04D0C94452E809114
:1045F000DA0481608093DA0493C08091DB048860E0
:104600008093DB048DC08091DA048260F3CF8091C7
:10461000DA048460EFCF8091DA048860EBCF809178
:10462000DB048160EDCF8091DB048260E9CF809173
:10463000DA048061DFCF8091DA048062DBCF809181
:10464000DA048064D7CF0E940D0C8091DA04806870
:10465000D1CF8091DA048C60CDCF8091DB04836070
:10466000CFCF8091DA048E7FC5CF8091DB04877F26
:10467000C7CF8091DA048D7FBDCF8091DA048B7F24
:10468000B9CF8091DA04877FB5CF8091DB048E7F2C
:10469000B7CF8091DB048D7FB3CF8091DA048F7E1A
:1046A000A9CF8091DA048F7DA5CF8091DA048F7B2A
:1046B000A1CF0E940D0C8091DA048F779BCF80915F
:1046C000DA04837F97CF8091DB048C7F99CF809130
:1046D000DA0482FB992790F921E0922790FB82F976
:1046E00090FB83F987CF8091DB04982F9095917090
:1046F0008E7F892B90FB81F983CF9091DA04892FEB
:104700008F7B96FF806476CF0E940D0C9091DA0427
:10471000892F97FB87F980586DCF81E00E9437126F
:104720008091DA049091DB040E94B6110E940D0C76
:1047300080E0DF91CF91089580E0F0CF9091DA048E
:10474000892F8F7E94FF806155CF9091DA04892F55
:104750008E7F90FF81604ECF9091DB04892F877F01
:1047600093FF88604DCF81E0E4CF0F931F93CF93E9
:10477000DF93C42FD22FFC0185818823C9F0409399
:10478000CB040E9424269093CA048093C90480E23B
:104790008C0F883040F4C77081E001C0880FCA9543
:1047A000EAF70E94E509DF91CF911F910F910895DB
:1047B0001091CB04141332C08091C9049091CA04A3
:1047C0000E94B325883C910548F5C0E2CD0F1D1726
:1047D000B9F080E2810F883040F4177081E001C0A9
:1047E000880F1A95EAF70E94EC09C83048F481E076
:1047F0009D2F977001C0880F9A95EAF70E94E509EE
:10480000802F0E94DC09C83070F6D77081E001C0AB
:10481000880FDA95EAF70E94EC09C5CF80E28C0F89
:10482000883008F6C77081E001C0880FCA95EAF7A2
:10483000F2CF0F93DB0188519C4787309105A0F59B
:10484000FC01E65EFF4C0C94452E06E221EE41EEA3
:104850006AE17CE7CD010E94B52380E00F910895C5
:1048600007E225EE45EE6BE17CE7F4CF06E221EEB0
:1048700040EE68E17CE7EECF07E225EE44EE69E129
:104880007CE7E8CF06E221EE42EE6CE17CE7E2CF86
:1048900007E225EE46EE6DE17CE7DCCF08E221E0A1
:1048A00045EE6EE17CE7D6CF15968C91882319F002
:1048B0001092CB04D3CF81E0D1CF9093CD048093DD
:1048C000CC040895E091CC04F091CD04309729F008
:1048D0000190F081E02D0995089580E00895EF9210
:1048E000FF920F931F93CF93DF93EC01E091CC04E1
:1048F000F091CD043097E1F10280F381E02D09952C
:104900008091C20282FF34C080FF0DC088811F9257
:104910008F9389ED9BE09F938F930E9454070F9094
:104920000F900F900F907E0186E0E80EF11C03EDD2
:104930001BE08091C20280FF0BC08A811F928F937F
:104940001F930F930E9454070F900F900F900F909A
:104950002196CE15DF0569F78091C20280FF08C05D
:1049600081ED9BE09F938F930E9454070F900F90CF
:10497000CDB7DEB7E6E00C94A42E4091040150912F
:1049800005019A012E5F3F4F485F5F4F80E024177B
:10499000350709F40895F90191919F019923B9F31D
:1049A0008F5FF5CF882371F02091040130910501CC
:1049B000F9013296285F3F4F9191981729F0E2173D
:1049C000F307D1F780E0089581E008959C01FC0190
:1049D00032969FEF80E04191461751F09F3F19F4C6
:1049E000411101C0982F8F5F8630A9F79F3F09F4CE
:1049F0000895290F311D97FD3A95F90162830895B5
:104A0000FC01329608962191261303C0DF0111970D
:104A10001C92E817F907B9F70895682F80910401EF
:104A2000909105010E94E6240895682F8091040169
:104A3000909105010E9400250895E0910401F091F4
:104A40000501329686E0DF011D928A95E9F7089507
:104A500008950E942825089581110EC081E0809359
:104A60001C016091190170911A0180911B019091B4
:104A70001C010E942925089582E0F1CF83E08093F4
:104A80001C016091190170911A0180911B01909194
:104A90001C010E94292508950E942C25089581E07B
:104AA00080931C016091190170911A0180911B0182
:104AB00090911C010E94292508950E944F25089578
:104AC00091E0811101C090E090931B016091190168
:104AD00070911A0180911B0190911C010E9429255F
:104AE000089580911B01089580931A016091190126
:104AF00070911A0180911B0190911C010E9429253F
:104B0000089580911A010895809319016091190107
:104B100070911A0180911B0190911C010E9429251E
:104B20000895809119010895089508950E9495258A
:104B30000895089508950E9494250895CF930E94A2
:104B400099250E947B160E949A25C0E08C2F0E9416
:104B50005F15892B31F4CF5FC530C1F780E0CF916D
:104B6000089581E0FCCFCF93DF93EC010E942426CF
:104B70008C1B9D0BDF91CF91089585B7806885BF11
:104B800085B7806885BF08951F921FB61F921124B4
:104B90008F939F93AF93BF938091CE04811113C0E5
:104BA0008091240690912506A0912606B0912706B3
:104BB0004196A11DB11D8093240690932506A093D4
:104BC0002606B0932706BF91AF919F918F911F90BA
:104BD0001FBE1F90189580912C06843031F10E94E1
:104BE000C7081092CE0488E190E020E40FB6F89454
:104BF000A895809360000FBE2093600083B7817FEB
:104C0000846083BF83B7816083BF7894889583B7BE
:104C10008E7F83BF0FB6F894A8958091600088615D
:104C200080936000109260000FBE08950E940D0CEA
:104C30000E94D008089582E084BD93E095BD9AEF6C
:104C400097BD80936E0008952FB7F8948091240645
:104C500090912506A0912606B09127062FBF0895B2
:104C60002FB7F8946091240670912506809126064E
:104C7000909127062FBF089578941F921FB61F9218
:104C800011248F939F93AF93BF93809124069091AB
:104C90002506A0912606B09127060196A11DB11DFB
:104CA0008093240690932506A0932606B0932706AA
:104CB000BF91AF919F918F911F901FBE1F9018952C
:104CC00081E08093E00080E28093D8001092C900D8
:104CD0008FE19EE40197F1F700C0000087E090EBC0
:104CE000DC018093350690933606A0933706B09387
:104CF000380688E19CE00FB6F894A8958093600090
:104D00000FBE90936000FFCF88E19CE00FB6F8944F
:104D1000A895809360000FBE90936000FFCF089528
:104D2000089508959B01BA0190912C069430E9F4FE
:104D30008F708093E9009FEF8091E800915085FD8E
:104D400006C085ED8A95F1F700009111F5CF8091AD
:104D5000E80085FF0AC050E040E0C9010E945B29DD
:104D60008091E8008E778093E8000895CF93DF93D9
:104D7000EC010E94712548E050E0BE0181E00E94F4
:104D8000922688E0FE01A2EDB4E001900D928A9592
:104D9000E1F7DF91CF910895089588E19CE09F931A
:104DA0008F930E94540780912B060F900F908111D2
:104DB00009C00E94EB2A0E94482B8091E200846087
:104DC0008093E200089584E19CE09F938F930E947A
:104DD000540710922B060F900F90089580E19CE0ED
:104DE0009F938F930E9454070E944F2581E00E9459
:104DF00060250F900F9008958CE09CE09F938F9317
:104E00000E9454076091280681E0611101C080E092
:104E10000E943E250F900F90089588E09CE09F939C
:104E20008F930E94540790912C0681E0943009F0F2
:104E300080E0609128060E944C250F900F90089505
:104E40002091D0042F5F822F62E30E94E12D9923ED
:104E500019F02093D00408951092D0048091D104C9
:104E60008823F1F080912C068430C1F49091E90000
:104E70009F702091EC00822F817020FD80E8892BAB
:104E800092E09093E9009091EB0090FF04C0909124
:104E9000EE0097FD08C08F708093E9001092D10456
:104EA00008951092F1009091E80095FDFACF90914D
:104EB000E80090FFF0CF9091E8009E779093E80093
:104EC000EACF42E061EC81E00E94672A42E261ECB5
:104ED00082E00E94672A90912C0681E0943009F0CC
:104EE00080E0609128060E942C25089580912E066E
:104EF000833009F461C030F48130D1F1823009F49B
:104F00009EC008958A3009F48AC08B3009F46FC0BE
:104F1000893009F050C080912D06813209F04BC0D4
:104F20008091310690913206892B09F044C080911E
:104F3000E800877F8093E8008091E80082FF37C017
:104F40009091F3008091F200029731F48091F1008A
:104F5000813011F0863021F48091F1000E94742597
:104F60008091E8008B778093E8000E949B2A23C001
:104F700080912D06813AF9F48091E800877F809333
:104F8000E8008091310690913206892B61F468E047
:104F900082ED94E070E00E94AA298091E8008B776E
:104FA0008093E800089560E090E080E0F3CF809186
:104FB0002C068111C1CF089580912D06813AD9F731
:104FC0008091310690913206892BA9F78091E800F3
:104FD000877F8093E8008091E80080FFFCCF0E94EB
:104FE00071258093F1008091E8008E77BCCF80918D
:104FF0002D06813201F78091310690913206892B7E
:10500000D1F68091E800877F8093E8000E949B2A78
:1050100080912F060E9460250E940D0C08958091BA
:105020002D06813241F68091E800877F8093E80069
:105030000E949B2A809130060E94842508958091C9
:105040002D06813A09F0B7CF8091E800877F8093E1
:10505000E8008091E80080FFFCCF0E949125C1CF3D
:105060009FB7F8941092D1049FBF90912C06943072
:1050700009F048C02091E9002F703091EC00932F87
:10508000917030FD90E8922B22E02093E90020916E
:10509000EB0020FF34C02091EE0027FF30C02091AC
:1050A000CF04222321F02091E80025FF28C0109290
:1050B000CF0426E03091E80035FF14C08093F10062
:1050C0008091E80085FD27C08091E80080FFFCCF3B
:1050D0008091E8008E778093E8009F709093E900BC
:1050E00080E0089530912C06343049F43091EB0083
:1050F00035FD05C0215041F481E08093CF049F70BD
:105100009093E9008FEF0895EFE9FFE03197F1F711
:1051100000C00000CFCF8FB7F89421E02093D104D6
:105120008FBFDBCF84B7877F84BF0FB6F894A89575
:1051300080916000886180936000109260000FBED3
:1051400080E890E00FB6F89480936100909361003E
:105150000FBE0E945D2508950E94EB2A0E94482BF5
:10516000E2EEF0E080818460808378940E94C62D16
:1051700008958DE191E00E945D24089580912C06B0
:10518000853091F48091C20280FF08C082EF9BE0DD
:105190009F938F930E9454070F900F9080912C063D
:1051A000853019F00E94162608950E94EB250E9472
:1051B0009E25882399F380912A06882379F30E94FB
:1051C00045290E940D0CEACF08959A0140913306BB
:1051D000509134060E94ED280895492F55274330F9
:1051E000510519F168F44130510509F444C04230C9
:1051F000510509F445C090E080E050E040E025C052
:105200004132510549F142325105A9F784E490E059
:1052100046EA5CE061157105C1F085E190E041E985
:105220005CE06130710589F0E6CF99278130910506
:1052300081F0009729F00297F1F6ECE1FCE002C062
:10524000E0E4FCE0849190E0AF01F90151834083F8
:105250000895E6E3FCE0F6CF89E090E046E55CE007
:105260006115710591F389E090E04FE65CE06130F3
:10527000710559F3C0CF82E190E04FE75CE0E5CFE4
:105280008BE390E044E45CE0E0CF80E189BD82E123
:1052900089BD09B400FEFDCF8091D8008F7D809339
:1052A000D8008091E00082608093E0008091E0006F
:1052B00081FDFCCF0895AF92BF92CF92DF92FF9213
:1052C0000F931F93CF93DF936C01EB018A010E9430
:1052D000BA2AF82E811123C00115110539F0F80101
:1052E00080819181C81BD90BC80ED91EB12CA12C6D
:1052F0002097A9F08091E80085FD22C08091E80008
:105300008E778093E80001151105A1F0F8018081E6
:105310009181A80EB91EB182A08285E0F82E8F2D52
:10532000DF91CF911F910F91FF90DF90CF90BF90B1
:10533000AF9008950E94BA2A8823D1F2F82EEFCFB9
:10534000F60181916F018093F1002197FFEFAF1A71
:10535000BF0ACECFFC0180913306909134068617A8
:105360009707A0F06115710529F49091E8009E77E8
:105370009093E80090E06115710551F4911108C017
:105380008091E80082FF34C080E00895BC01F2CF34
:1053900080912C068823C1F18530C1F18091E8000D
:1053A00083FD30C08091E80082FDEACF8091E80063
:1053B00080FFE1CF8091F3002091F200382F61153A
:1053C000710519F02830310558F091E02830310589
:1053D00009F090E02091E8002E772093E800CBCFF1
:1053E00081918093F100615071092F5F3F4FE7CFAA
:1053F00080912C06882341F0853041F08091E800AF
:1054000083FFBECF81E0089582E0089583E0089590
:10541000FC01809133069091340686179707A0F01F
:105420006115710529F48091E8008E778093E8007A
:1054300090E06115710551F4911108C08091E80068
:1054400082FF35C080E00895BC01F2CF80912C0628
:105450008823C9F18530C9F18091E80083FD31C00E
:105460008091E80082FDEACF8091E80080FFE1CFE3
:105470008091F3002091F200382F6115710519F029
:105480002830310558F091E02830310509F090E0DE
:105490008091E8008E778093E800CBCF8491809351
:1054A000F1003196615071092F5F3F4FE6CF809137
:1054B0002C06882341F0853041F08091E80083FF7D
:1054C000BDCF81E0089582E0089583E00895982F8C
:1054D000973028F08F708093E90081E008959093D1
:1054E000E900242F762F50E0981731F07091EC00EE
:1054F0002091ED005091F00021FD02C09F5FE8CFA8
:105500003091EB003E7F3093EB003091ED003D7F1A
:105510003093ED003091EB0031603093EB007093ED
:10552000EC002093ED005093F0002091EE0027FD59
:10553000E5CF80E0089580912D0687FF13C080910C
:10554000E80082FF06C08091E8008B778093E80036
:1055500004C080912C068111F2CF089580912C0611
:105560008823D9F38091E80080FFF8CF8091E8008C
:105570008E77ECCF2091E4003091E50095E6A9010B
:105580002091EC00822F817020FF06C08091E800FE
:1055900080FF06C080E008952091E80022FD1AC037
:1055A00080912C06882389F0853089F08091EB006A
:1055B00085FD0FC02091E4003091E50042175307AC
:1055C000F9F29150E1F684E0089582E0089583E0D5
:1055D000089581E008950E945A2B0E94622BE0EE0C
:1055E000F0E0808181608083E8EDF0E080818F775A
:1055F000808319BCA7EDB0E08C918E7F8C93808165
:105600008F7E808310922B0608950F931F93CF9364
:10561000DF930E945A2B0E94622BC8EDD0E0888154
:105620008F77888388818068888388818F7D88834D
:1056300019BC10922C061092280610922A0610927D
:10564000290600EE10E0F80180818B7F808388813D
:105650008160888342E060E080E00E94672AE1EE9A
:10566000F0E080818E7F8083E2EEF0E080818160D7
:105670008083808188608083F80180818E7F808331
:10568000888180618883DF91CF911F910F91089568
:10569000E8EDF0E080818F7E8083E7EDF0E08081AF
:1056A0008160808384E082BF81E080932B060E942A
:1056B000052B0895E8EDF0E080818E7F80831092C5
:1056C000E20008951092DA001092E10008951F920E
:1056D0000F920FB60F9211242F933F934F935F9326
:1056E0006F937F938F939F93AF93BF93EF93FF93AA
:1056F0008091E10082FF0BC08091E20082FF07C031
:105700008091E1008B7F8093E1000E9420278091AF
:10571000DA0080FF19C08091D80080FF15C0809109
:10572000DA008E7F8093DA008091D90080FF96C0E6
:1057300080E189BD82E189BD09B400FEFDCF81E031
:1057400080932C060E94CD268091E10080FF19C035
:105750008091E20080FF15C08091E2008E7F8093EF
:10576000E2008091E20080618093E2008091D800A5
:1057700080628093D80019BC85E080932C060E943B
:10578000FC268091E10084FF2BC08091E20084FF21
:1057900027C080E189BD82E189BD89B5982F9170CC
:1057A00080FFFBCF8091D8008F7D8093D8008091BF
:1057B000E1008F7E8093E1008091E2008F7E8093F4
:1057C000E2008091E20081608093E20080912806EF
:1057D000882309F449C084E080932C060E940D2799
:1057E0008091E10083FF29C08091E20083FF25C002
:1057F0008091E100877F8093E10082E080932C0616
:10580000109228068091E1008E7F8093E1008091C4
:10581000E2008E7F8093E2008091E20080618093BD
:10582000E20042E060E080E00E94672A8091F000A0
:1058300088608093F0000E94EE26FF91EF91BF9167
:10584000AF919F918F917F916F915F914F913F9118
:105850002F910F900FBE0F901F90189519BC1092AA
:105860002C060E94E32670CF8091E30087FD93E031
:1058700090932C06B3CF1F920F920FB60F92112464
:105880002F933F934F935F936F937F938F939F9348
:10589000AF93BF93CF93DF93EF93FF93D091E90042
:1058A000DF708091EC00C82FC17080FDC0E81092BD
:1058B000E9008091F000877F8093F00078940E9447
:1058C0007F2C1092E9008091F00088608093F000B6
:1058D000CD2BCF70C093E900FF91EF91DF91CF9175
:1058E000BF91AF919F918F917F916F915F914F91F8
:1058F0003F912F910F900FBE0F901F901895AAE225
:10590000B0E0E5E8FCE20C948B2E8DE296E020916D
:10591000F100FC012193CF01F6E085339F07B9F731
:105920000E9476278091E80083FF1EC180912D069A
:1059300090912E069A3008F017C1E92FF0E0EF5D44
:10594000FF4C0C94452E803899F0823809F00CC138
:10595000809131068F70873008F006C18093E9008E
:105960008091EB0085FB882780F91092E90006C042
:105970008091290690912A06911182609091E80009
:10598000977F9093E8008093F1001092F10080914E
:10599000E8008E77E5C0882309F4D3C0823009F08F
:1059A000E3C080912F068111D6C0809131068F709F
:1059B0002FEF280F263008F0D7C08093E900209100
:1059C000EB0020FFC8C0933031F48091EB0080627F
:1059D0008093EB00C0C09091EB0090619093EB003E
:1059E00021E030E001C0220F8A95EAF72093EA0017
:1059F0001092EA008091EB008860EACF8111B4C078
:105A000010912F061F778091E3008078812B80937F
:105A1000E3008091E800877F8093E8000E949B2A42
:105A20008091E80080FFFCCF8091E3008068809344
:105A3000E30082E0111183E080932C0695C080582A
:105A4000823008F091C080912F06909130068C3DF5
:105A500023E09207A1F583E08A838AE289834FB726
:105A6000F894DE01139620E03EE051E2E32FF0E0EF
:105A700050935700E49120FF03C0E295EF703F5F21
:105A8000EF708E2F90E0EA30C0F0C7968D939D9313
:105A90002F5F243159F74FBF8091E800877F8093B3
:105AA000E8006AE270E0CE0101960E94AA29809186
:105AB000E8008B778093E80057C0C096E7CF6091ED
:105AC000310670913206AE014F5F5F4F0E94E528AC
:105AD000BC01892B09F448C09091E800977F90930E
