:100000000C949F010C94D9010C94D9010C94D90142
:100010000C94D9010C94D9010C94D9010C94D901F8
:100020000C94D9010C94D9010C946B1C0C94431DB5
:100030000C9493170C94D9010C94D9010C94D90108
:100040000C94D9010C94D9010C94D9010C94D901C8
:100050000C94D9010C940B180C94D9010C94D9016F
:100060000C94D9010C94D9010C94D9010C94D901A8
:100070000C94D9010C94D9010C94D9010C94D90198
:100080000C94D9010C94D9010C94D9010C94D90188
:100090000C94D9010C94D9013A003B0029001E00B0
:1000A0001F0020002100220023002400250026003C
:1000B00027002D002E0000002A004C003C003D00CF
:1000C0002B0014001A000800150017001C0018006F
:1000D0000C00120013002F003000000031004A0015
:1000E0003E003F00390004001600070009000A0026
:1000F0000B000D000E000F0033003400000028003C
:1001000000004B0040004100E10000001D001B000A
:1001100006001900050011001000360037003800F5
:10012000E500000052004E0042004300E000E30002
:10013000E2000000000000002C00000000000000B1
:10014000E60021520000500051004F000100010064
:1001500035003A003B003C003D003E003F004000BF
:10016000410042004300440045000000010001003E
:100170000100010001000100010001000100010077
:100180000100010001000100010001000100000068
:1001900001004D000100010001000100010001000B
:1001A0000100010001000100010001000100010047
:1001B000000001000000010001000100010000003A
:1001C0000100010001000100010001000100010027
:1001D0000100010001000000010001000100010018
:1001E000010001000100000000000000010000000B
:1001F00000000000010001000000010001000100FA
:1002000012035A0069006700670075007200610000
:100210007400000018034C0061006D0069006E005E
:100220006100720057006F006F006200000004035D
:10023000090409023B00020100A0FA0904000001C0
:100240000301010009211101000122440007058179
:100250000308000109040100010300000009211145
:10026000010001227B00070582032000011201002A
:1002700002000000085D8F585201000102000105D4
:10028000010902A10185020901A10005091901293D
:10029000081500250195087501810205010930093D
:1002A000311581257F95027508810609381581254C
:1002B0007F950175088106050C0A38021581257F96
:1002C000950175088106C0C005010980A10185035B
:1002D00019012AB700150126B70095017510810094
:1002E000C0050C0901A101850419012AA00215010C
:1002F00026A002950175108100C005010906A10123
:10030000050719E029E71500250195087501810207
:100310009501750881010507190029FF150026FFC1
:1003200000950675088100050819012905150025A5
:1003300001950575019102950175039101C0112484
:100340001FBECFEFD0E2DEBFCDBF04B603FE18C0A4
:100350008091B1029091B202A091B302B091B40227
:100360008730904BA740B04B59F41092B1021092D5
:10037000B2021092B3021092B402E0E0F0EF0995DD
:1003800011E0A0E0B1E0EEEFFFE300E00BBF02C040
:1003900007900D92A23AB107D9F722E0A2EAB1E0A4
:1003A00001C01D92A13BB207E1F70E947A110C94A3
:1003B000BE1F0C9400008230B8F46530A8F44231BE
:1003C00098F450E092E1699F400D511D1124FA010B
:1003D0009AE5899FE00DF11D1124EE0FFF1FE856ED
:1003E000FF4F85919491089581E090E008950E94D7
:1003F000DB01089581E008950E94FA0108950E94AA
:10040000FA01089581E008950E94FA0108950E947A
:10041000FA0108950E9407020895089508950E9420
:100420000D02089508950895A6E0B0E0EAE1F2E033
:100430000C941A1F49835A839E833091A9018981A4
:100440009A8131111AC03E81332399F0222389F019
:100450000E94EC07182F682F89819A810E94C80793
:1004600069817A81812F0E94FE0E2696E3E00C942A
:10047000361F0E94DA07182FF3CF0E94EC0769811C
:100480007A81F1CFFC01262F4081518162817381F5
:10049000848195810E9414020895CF93DF93EC012B
:1004A00061E00E944202BE010E94FC01882359F0D3
:1004B00061E0CE010E944202BE010E94FF018170F4
:1004C000DF91CF91089580E0FACF0F931F93CF93E0
:1004D000DF93EC0160E00E9442028C01BE010E94A9
:1004E0000E02BE01C8010E940F02DF91CF911F9141
:1004F0000F91089521E030E0A90102C0440F551F7B
:100500008A95E2F7CA010E94EA060895CF93C82FA0
:1005100081E090E00C2E02C0880F991F0A94E2F748
:100520000E94280C8C2F0E947A02CF91089581E0BE
:1005300008950E94970208950E9497020895CF930C
:10054000C82F0E949D068C2F0E9499028C2F0E941A
:100550009C022FEF84E39CE0215080409040E1F723
:1005600000C00000CF91089581E00E949F020E9488
:100570002F18089580E00E949F020E94531808954A
:100580000F931F93CF93DF938C0161E00E9442028F
:10059000EC01B8010E940402811106C080E0DF91E5
:1005A000CF911F910F910895B801CE010E940A02C8
:1005B0008823A1F3B801CE010E94A415882371F30A
:1005C000B801CE010E94E011882341F3B801CE01A9
:1005D0000E94B611882311F3B801CE010E940210C7
:1005E0008823E1F2F8018581882361F0C330FCE7BC
:1005F000DF07E9F058F4C115ECE7DE07A9F0C130D8
:10060000DC47B9F0C8010E940202C9CFCB358CE7A4
:10061000D807A9F0CC35ECE7DE0771F0CA35DC4726
:1006200089F70E94030CEECF0E94B402B7CF0E945C
:100630000B0C0E94BA02B2CF0E94F90BE3CF0E94CA
:10064000070CE0CF0E9412020E9463170E9446032B
:1006500008950E944A030E9413020E946817089599
:1006600081E008950895CF93DF93D82F0E9430033F
:10067000C82F882319F08D2F0E9432038C2FDF9111
:10068000CF91089508950E943303089580E00E9459
:10069000430308950E94ED150E9443030895CF93EC
:1006A0000E94ED15C82F8091A4018C1779F0C0939A
:1006B000A4010E94FF176093A5017093A601809387
:1006C000A7019093A8018C2F0E944303CF91089516
:1006D000ADE0B0E0EEE6F3E00C941B1F48875987CD
:1006E0006A877B878C879D8791110E94390B1F82B7
:1006F00086E0FE013896DE01119601900D928A95F2
:10070000E1F78D8181110DC029813A814B815C8196
:100710006D817E818F810E94830A2D96E2E00C9488
:10072000371FCE0101960E944D028111EDCFF5CF0A
:10073000FC012481213021F4808191810E941E08D6
:100740000895662329F00E9441130E94141408950D
:100750000E949B13FACFCF93C82F882399F08CEF78
:100760008C0F813A88F48C2F0E947216882329F00E
:100770008C2F0E94B5160E94A80B8C2F0E94AD16DC
:100780000E94A80BCF91089580E28C0F883048F426
:10079000C77081E001C0880FCA95EAF70E941C0B60
:1007A000EFCFEBE5EC0FE33040F4F0E0E25BFE4F1F
:1007B000808190E00E941316E5CFE8E5EC0FEB3165
:1007C00050F4F0E0EE0FFF1FE85EFE4F8081918154
:1007D0000E943816D7CF83E38C0F833198F661E0FF
:1007E0008C2F0E94A103CECF882381F19CEF980F1C
:1007F000913A28F40E94B5160E94A80B089590E241
:10080000980F983050F4877091E001C0990F8A9545
:10081000EAF7892F0E94220BEFCF9BE5980F9330C8
:1008200028F490E080E00E941316089598E5980F50
:100830009B3128F490E080E00E943816089593E3FD
:10084000980F933118F460E00E94A10308951F935C
:10085000CF93DF93182FEB010E94AB03209739F45D
:10086000812F0E94F403DF91CF911F9108958FE9AA
:100870009FE00197F1F700C000002197EFCF70E0F3
:1008800060E0893311F460E570E00E942704089568
:10089000882321F00E941C0B0E94A80B0895882336
:1008A00021F00E94220B0E94A80B0895B0E0A0E066
:1008B000ECE5F4E00C94141F6C01D62FC72FFC015B
:1008C0001581068102950F700E94120BE82E882375
:1008D000F9F0E12E1123E1F08C2F807F803461F05C
:1008E00080E28D0F883008F18C2F807E803221F4D9
:1008F000D230D8F00023C9F08091770282FF15C072
:1009000082E00E94CD0B0E94120B91E0E82EE926B6
:10091000BC2EB2949FE0B922FBE0FB15B8F1EB2DA1
:10092000F0E0E054F04E0C94021FE12CF1CF0C2FBC
:100930000F70C07F11F00295007F112399F0002302
:1009400059F080E28D0F883010F0D11107C0802F50
:100950000E941C0B0E94A80B8D2F48C0802F0E9464
:100960002C0BF8CF8D2F0E94F403002379F080E246
:100970008D0F883010F0D11104C0802F0E94220BFF
:1009800003C0802F0E94320B0E94A80BEB2DE85071
:10099000FF0B349708F06BC10E94ED150E944303D2
:1009A000CDB7DEB7E9E00C94301F2C2F2F70F22E5C
:1009B000C07FC03219F0F29480EFF822DD2341F0BD
:1009C000D130C9F1112309F443C00023E9F0C4CFA9
:1009D0008091770282FD14C0112359F0FF2029F085
:1009E0008F2D0E941C0B0E94A80B80E00E94AB037D
:1009F000CDCF80E00E94F403FF2041F28F2DBECFC7
:100A0000112369F0011104C08F2D0E944804BECF4C
:100A1000013009F0BBCF8F2D0E94500BB7CF0111D1
:100A2000B5CF8F2D0E944F048F2D0E945C0B8F2D10
:100A30000E94400BABCF112321F0063008F0A6CF67
:100A4000E3CF053008F0A2CF8F2D0E944F049ECF38
:100A50000023D1F3D93349F43FEF87EE93E03150CF
:100A600080409040E1F700C000008D2F0E94F40309
:100A70008DCF8C2F86958695837069F0813009F033
:100A800085CF8D2F9C2F9370111102C080E090E0D4
:100A90000E9438167BCF8D2F9C2F9370111102C0AE
:100AA00080E090E00E94131671CF612F8D2F0E947D
:100AB000A1036CCF8C2F8370A1F5111167CF4D2F3F
:100AC000429546954770440F440F2D2F2F7030E00C
:100AD000042E02C0220F331F0A94E2F790E080E058
:100AE000D4FF09C08FE090E002C0880F991F4A959B
:100AF000E2F780959095C695C695C370822B932B8F
:100B0000C23049F058F4C13019F00E94F6063ECFC9
:100B10000E94ED063BCF0E94FF0638CF0E94EA06F6
:100B200035CF8695112311F08C2F8170882309F41D
:100B30002DCF4D2F429546954770440F440F2D2FD2
:100B40002F7030E0042E02C0220F331F0A94E2F708
:100B500090E080E0D4FF09C08FE090E002C0880FF1
:100B6000991F4A95E2F780959095C695C695C370F2
:100B7000822B932BC23049F058F4C13019F00E94F7
:100B8000610704CF0E94580701CF0E946A07FECE7A
:100B90000E940E07FBCECF70112329F08C2F0E94EC
:100BA00026078D2F32CF8D2F0E944F048C2F0E944D
:100BB0003607ECCED23F41F160F4D03FB9F0D13FDF
:100BC00081F0112309F443C00111C6CE8C2F8F711F
:100BD0001FC0D33F01F1D43FA1F78091770282FD7E
:100BE00024C08C2F8F71112311F312C0112341F0F7
:100BF000053008F0CBCE8C2F8F710E944807C6CEEF
:100C0000063008F0C3CEF7CF8C2F8F711111CFCFE4
:100C10000E942607BBCE112329F08C2F8F710E94D2
:100C20001A07B4CE0E941507B1CE112331F063E04C
:100C30008C2F8F710E94AF0BA9CE81E00E94CD0B4B
:100C4000023008F4A3CE82E00E94CD0B9FCE002399
:100C500059F0D93309F009CFEFEFF7EE23E0E15077
:100C6000F0402040E1F7FFCE8C2F8F71A0CFEE2017
:100C700009F496CE0E940E0B80FD92CEF6011582ED
:100C80000E94080B0E942607C6010E9464060E946B
:100C9000080B0E94360784CE0F931F93CF93DF93E8
:100CA000EC01688179818D810E9429088C010E9464
:100CB00073070E94E906B801CE010E945604DF9135
:100CC000CF911F910F910895CF93DF93EC018C8109
:100CD000882399F0CE010E94C002811111C00E94A8
:100CE000120B882351F08D81882339F0809177028F
:100CF00082FF03C082E00E94CD0BDF91CF91089567
:100D0000CE010E944C06CE010E946502F6CF90E013
:100D100080E00E94131690E080E00E9438160E9446
:100D2000390B0E94A80B0E9430140E9414140895DD
:100D30000E94BD160E94870608950E94290B0E94FA
:100D40009806089592959F70963091F058F4925FAE
:100D50009F70923058F4803F19F030F4883E30F4A0
:100D600081E008959A5FF4CF843FD1F380E0089545
:100D7000883EB0F3813FD1F7F3CFFC0124812223D9
:100D800039F0808191810E941E080E94A206089578
:100D900080E00895A6E0B0E0E0EDF6E00C941B1FC3
:100DA0002696E2E00C94371FA7E0B0E0EAEDF6E00B
:100DB0000C941B1F2796E2E00C94371F08950E94A5
:100DC000DE0608950E94DF069093DD018093DC012A
:100DD000089508950E94E20608952091DC01309163
:100DE000DD01822B932B0E94E20608952091DC0105
:100DF0003091DD01822393230E94E2060895209121
:100E0000DC013091DD01822793270E94E2060895DC
:100E10000E94DE0608950E94080708950E940B07AD
:100E20009093DB018093DA01089590E080E00E94C6
:100E30000E07089521E030E0A90102C0440F551FBC
:100E40008A95E2F7CA010E940E07089521E030E07A
:100E500002C0220F331F8A95E2F78091DA01909148
:100E6000DB01822B932B0E940E07089521E030E0D6
:100E700002C0220F331F8A95E2F7209530958091AA
:100E8000DA019091DB01822393230E940E070895DB
:100E900021E030E002C0220F331F8A95E2F78091F3
:100EA000DA019091DB01822793270E940E070895B3
:100EB0002091DA013091DB01822B932B0E940E07E7
:100EC00008952091DA013091DB01822393230E945F
:100ED0000E0708952091DA013091DB0182279327D4
:100EE0000E940E0708950895262F277091E001C0F3
:100EF000990F2A95EAF723E0769567952A95E1F709
:100F0000660F771F660F771FFA01E60FF71F50E095
:100F100040E0682F70E08191DF0111979B01042E62
:100F200002C0369527950A94E2F72170219528276B
:100F3000292328272C934F5F5F4F4430510559F7E1
:100F40000895A82FA77023E0969587952A95E1F735
:100F5000880F991F880F991FFB01E80FF91F50E0B8
:100F600040E080E0219130E00A2E02C036952795BE
:100F70000A94E2F721703327042E01C0220F0A944D
:100F8000EAF7822B4F5F5F4F4430510559F70895C0
:100F9000262F953070F4823160F4682F70E082E182
:100FA000989F600D711D11244AEA51E0822F0E9422
:100FB00074070895292F953068F4823158F490E031
:100FC0006AEA71E032E1239F800D911D11240E9495
:100FD000A107089580E00895B0E0A0E0E2EFF7E017
:100FE0000C94141F7C010091DA011091DB018091B7
:100FF000DC019091DD01082B192BCFE0D0E0CC244F
:10100000C394D12CBC2EC6010C2E02C0880F991F90
:101010000A94E2F780239123892B49F4219790F7D2
:10102000B12C8B2DCDB7DEB7E9E00C94301FB701A2
:101030008C2F0E940A0F019789F3F3CFCF93DF9390
:10104000EC010E94EC07BE010E940A0FDF91CF91D4
:1010500008951F93CF93DF93EB019091A9019923FA
:1010600039F0CB010E941E08DF91CF911F910895A6
:10107000882369F0CB010E94EC07182F682FCE015E
:101080000E94C807BE01812F0E940A0FEDCFCB013D
:101090000E94DA07182FF6CF1F93CF93DF93C091EA
:1010A000DE0117E08091DF018C1304C0DF91CF9146
:1010B0001F910895D0E01C9FF0011D9FF00D112499
:1010C000E052FE4F208131814281538164817581DC
:1010D00086810E94D4062196C770E4CF2091180221
:1010E0003091190240911A0250911B0260911C022A
:1010F00070911D0280911E020E94D4060895CF9324
:10110000DF9380911E02807F09F04DC080911D0207
:10111000882309F448C0E091DE015091DF01C091BD
:101120001902D091180260911A0270911B0247E0D7
:101130005E17C9F18E2F90E0E49FF0011124E05278
:10114000FE4F2481222391F1489FF001499FF00D29
:101150001124DF01A052BE4F11962C9111972C1330
:1011600025C02C912D1322C015962C911597211175
:101170001DC012962D913C91261B370B283C310542
:10118000A8F480911E028F70806180931E02EA5144
:10119000FE4F80818F708061808388E192E00E94A1
:1011A00064060E944C08DF91CF910895FC013196AE
:1011B000E770BECF482F2091DE019091DF0157E00C
:1011C000291302C080E0089530E0529FF001539F40
:1011D000F00D1124E052FE4F8181681306C080811A
:1011E000481303C085818111EECF2F5F3F4F2770D9
:1011F000E7CFA4E1B0E0EFEFF8E00C94111F8C0111
:1012000086E0F801DE011F9601900D928A95E1F7C4
:10121000F8018481E58098E1A92E92E0B92E9091A1
:101220001C0291111FC08823D1F0EE20A9F0C80143
:101230000E94BD06F82E882379F087E0F801D501D9
:1012400001900D928A95E1F7C5010E9498030E94D2
:101250007F080E946E085FC0C8010E946406FF24D8
:10126000F39459C0C080D18082809380F0901D0299
:1012700020911A0230911B02A401421B530BFF2044
:1012800009F4F9C0483C510508F0A7C0882309F4C7
:1012900042C09091190280911E02282F207F09F0F0
:1012A0005CC09D1116C090911802C91212C0E110C5
:1012B0004EC08F70806180931E020E946E0888E18C
:1012C00092E00E94640680911E02F8018683F12C50
:1012D00022C0E1103CC06D2D8C2D0E94DA086D2DCE
:1012E0008C2D0E94DA08E82E8111F1CFCF86D88AA2
:1012F0008F8598890E941E08292F22952F702430EF
:1013000078F49F702230A8F09923B9F0F801968103
:10131000907F99F4FE2C8F2D6496ECE00C942D1F99
:101320002A5F2F70223068F0C8010E946406EF2CFB
:10133000F1CF992311F0882369F3805E883050F350
:10134000F3CF803F38F3815F833070F7E3CF809134
:101350001E02816080931E02BACF9D1113C090912E
:101360001802C9120FC0E1100DC08683C8010E9487
:10137000640687E0F801A8E1B2E001900D928A9539
:10138000E1F767CFC8010E94BD06882309F464CF46
:10139000EE2009F461CF80911E02803288F0209106
:1013A000180230911902398728879B868A86909186
:1013B0001C029C871D868E87CE0108960E946406BB
:1013C00087E0F801A8E1B2E001900D928A95E1F77B
:1013D0000E947F080E946E0842CF90911E02292F22
:1013E000207FA1F4682D9A8A898AA6017A899E2D88
:1013F0000E94CA0688E192E00E94640687E0F50137
:1014000011928A95E9F70E946E0861CF882309F44A
:1014100082CF809119028D1110C080911802C812DC
:101420000CC0E1100AC09683C8010E94640687E0E0
:10143000F50111928A95E9F76ECFC8010E94BD06A9
:10144000882309F409CFEE2009F406CF80911E020B
:10145000803208F4B5CF20911802309119023A83F6
:1014600029839C828B8290911C029D831E828F8394
:10147000CE010196A3CF483C5105B8F5882309F465
:10148000EECEFE2CEE2009F4E7CE809119028D11EC
:101490001EC080911802C8121AC080911E0280FDE1
:1014A0000DC0982F907F51F08683903F09F45ECF56
:1014B000982F907F905F8F70892B57CF87E0F8012E
:1014C000A8E1B2E001900D928A95E1F724CFC8011E
:1014D0000E94BD06811174CF80911E0281608093AD
:1014E0001E02C8010E94640616CF682D9A8A898A56
:1014F000A6017A899E2D0E94CA0687E0F501119205
:101500008A95E9F7A6CEAEE0B0E0E9E8FAE00C94FF
:101510001A1F288739874A875B876C877D878E8764
:10152000CE0108960E94F9088823B1F06C856623E5
:1015300041F0288539854A855B857D858E850E94A9
:10154000D40617E08091DE019091DF0189133DC040
:101550002E96E3E00C94361F87E0FE013896DE01FC
:10156000119601900D928A95E1F78C85882349F3B5
:101570002091DF0130E0C9010196877099274091E1
:10158000DE014817190699F097E0929FD001939FCA
:10159000B00D1124A052BE4FFE01319601900D9264
:1015A0009A95E1F78093DF010E944C08CACF0E9410
:1015B0009D061092DF011092DE0187E0E8E1F2E083
:1015C000DF011D928A95E9F7BCCF819FC0011124EC
:1015D00080529E4F0E94F908882309F4B9CFE09108
:1015E000DE011E9FF0011124E052FE4F2081318167
:1015F000428153816481758186810E94D4068091E5
:10160000DE0190E00196877099278093DE019ACFE2
:101610008091270286958695869508958091270268
:101620008770089590912702977081E009F480E017
:10163000089580913302089590913302892B80930D
:10164000330208958095909133029823909333024A
:10165000089510923302089590913202892B80935D
:10166000320208958095909132029823909332022D
:10167000089510923202089508950E943C0B089537
:1016800090912802292F282331F080958923809377
:1016900028020E943D0B089508950E944C0B089566
:1016A00090912902292F2823281729F0982B90930D
:1016B00029020E944D0B089590912902292F282379
:1016C00031F080958923809329020E944D0B089563
:1016D00080912902882329F01092290280E00E943B
:1016E0004D0B08950F931F93CF93DF93009100014B
:1016F00010910101C091330280913202C82B809178
:101700002902882331F0C82B0E945D1681110E94A6
:10171000680BF801C083C0910001D091010148E03D
:1017200050E06FE172E0CE010E94561F892B59F004
:1017300088E0FE01AFE1B2E001900D928A95E1F7F9
:10174000CE010E94FA15DF91CF911F910F9108955C
:101750000E94720B089508950E94AB0B089590911A
:10176000770292FF11C098E0899F90011124622BAB
:10177000609327020E94260780912702869586950E
:1017800086950E94AC0B08950E942607089510923A
:10179000270280E00E94AC0B08959091270280956B
:1017A000892380932702282F277069F4891759F01D
:1017B0009091770292FF07C08695869586950E9444
:1017C00036070E94C70B08959091770292FB22275B
:1017D00020F9281769F080FB92F9909377028091A5
:1017E0007602909177020E94330C82E00E94CD0B2A
:1017F00008958091770282FB882780F991E08927FC
:101800000E94E40B089581E00E94E40B089580E0BB
:101810000E94E40B08956FEF7FEF90E080E00E945C
:10182000A81F089590E080E00E94741F21E0853E8B
:101830009E4F09F020E0822F089582E090E00E9400
:101840006C1F089583E090E00E946C1F90E0089563
:10185000682F83E090E00E948A1F089584E090E062
:101860000E94741F0895BC0184E090E00E94A81FAC
:101870000895AB01BC018FE090E00E949C1F089589
:10188000AB01BC0183E190E00E949C1F089560E0E1
:1018900070E0CB010E94400C089560E070E0CB0145
:1018A0000E94390C0E94470C0895A8E0B0E0EBE5D7
:1018B000FCE00C941B1F65EE7EEF90E080E00E9440
:1018C000A81F60E082E090E00E948A1F81E090E023
:1018D0009093DD018093DC010E94280C60E074E1AC
:1018E00084E090E00E94A81F60E086E090E00E9403
:1018F0008A1F60E087E090E00E948A1F40E050E08D
:10190000BA0188E090E00E949C1F60E083E290E0D2
:101910000E948A1F60E08CE090E00E948A1F60E0D5
:101920008DE090E00E948A1F19821A821B821C821D
:101930001D821E821F82188648E050E067E170E039
:10194000CE0101960E947A1F40E050E0BA018FE17B
:1019500090E00E949C1F0E944D0C2896E2E00C949F
:10196000371F0E94550C0895682F8EE090E00E946A
:101970008A1F0895A6E0B0E0E0ECFCE00C94191F8B
:101980000E94F3178C0180913402909135028017E8
:10199000910781F019821A820E94F317682F4981FA
:1019A0005A81792F80E090E00E94680310933502FD
:1019B000009334022696E4E00C94351F0E94FF1732
:1019C00060934E0270934F028093500290935102A5
:1019D00060934A0270934B0280934C0290934D02A5
:1019E0000895089508950E94F10C089508950E94A5
:1019F000F60C0E94F30C089508950E94FC0C0895C3
:101A000008950E94000D0E94FD0C089580E090E171
:101A10000E948F110E94F20C0E94F70C089581E041
:101A200008950E940F0D08950E940F0D08950895C6
:101A3000089508950E94170D0E94180D0E94190D17
:101A400008950E94120C811102C00E94B10C0E94E4
:101A50001D0C809352020E942E0C9093770280936B
:101A600076020E94B3110E94220C0E94EA06809125
:101A7000DA019091DB010E940B0708950E94EA179A
:101A80000E94E9100E94210D0E9442030E94010D54
:101A90000895A8E0B0E0EFE4FDE00C940B1F0E9475
:101AA000110D81110AC00E94BA0C0E9452140E94AA
:101AB0004F032896E2E10C94271F0E94FF1086E353
:101AC00092E098878F837C0110E0F701419051905C
:101AD000619071907F01812F0E941C101F5F153053
:101AE00009F467C0461657066806790671F38091B7
:101AF000520281FD0E9427100E94140D282E10E032
:101B000033243394812F0E941C106B017C01EF81E0
:101B1000F8854190519061907190F887EF83C414DB
:101B2000D504E604F704F1F100E0812C912C540176
:101B300083944C245D246E247F24D301C201882128
:101B40009921AA21BB21892B8A2B8B2BE9F02220FA
:101B5000D9F009831A830E94F3179C838B833D82FB
:101B600021E0D701C60188219921AA21BB21892B17
:101B70008A2B8B2B09F420E049815A816B817C816F
:101B80008D81922F0E9468030F5F880C991CAA1CFC
:101B9000BB1C023191F6EF81F8853497C082D18267
:101BA000E282F3821F5F153009F0ACCF0E94DE0C99
:101BB0007CCF461657066806790609F098CF73CF92
:101BC0001F93CF93DF930E940F0FEC01C11580E5A7
:101BD000D807F0F5C11580E4D80708F09CC0C03ED6
:101BE000D10520F5CD3CD10508F082C0C83AD10519
:101BF00078F4C53AD10508F073C0C130D10519F1A8
:101C0000209709F1C430D105F0F4D0E0C0E01BC04A
:101C1000C33CD105D0F7C85AD0E0CC0FDD1FCF5A56
:101C2000DE4F0990D881C02DD4640DC0C11580E26B
:101C3000D80708F0D1C0C11581E0D80708F05AC014
:101C4000C83ED10510F7CE01DF91CF911F910895C5
:101C5000C03682E5D80718F5C03482E5D80708F009
:101C60006BC0C03282E5D80708F05FC0C11582E5BD
:101C7000D80708F497C02C2F2695269580E2289F38
:101C8000900111248C2F8370C1E0D0E002C0CC0FF2
:101C9000DD1F8A95E2F7C22BD32BDD68D4CFC03A83
:101CA00082E5D80760F4C03882E5D80708F459C047
:101CB000CF71D0E0DC2FCC27C46FD06AC4CFC03C3A
:101CC00082E5D80708F462C0C03E82E5D80708F074
:101CD0009CCFDC2FCC27CC27DF71C06FD06AB3CF6D
:101CE000C55AD0E0C957DE4FC881D0E0D064ABCF31
:101CF000D065A9CF8D2F0E94B10F182FCE01992743
:101D00000E940F0FC12FD0E0DC2FCC27CC27DF7132
:101D1000C82BD92B98CFCE0199270E940F0FCC2723
:101D2000DF70C82BD92BD06A8ECFCF71D0E0DC2FDB
:101D3000CC27C16FD06A87CF2C2F26952695277088
:101D400080E2289F900111248C2F8370C1E0D0E0A5
:101D500002C0CC0FDD1F8A95E2F7C22BD32BDC68C3
:101D600072CF2C2F26952695277080E2289F900110
:101D700011248C2F8370C1E0D0E002C0CC0FDD1F96
:101D80008A95E2F7C22BD32BDA685DCF8C2F8F7147
:101D90000E94B10FC82FD0E0DC2FCC27CC27DF71F9
:101DA000D06251CF8C2F8F710E94B10F55E0D69524
:101DB000C7955A95E1F7CF70D0E0DC2FCC27282FBC
:101DC00030E084FF05C044E0220F331F4A95E1F75D
:101DD000C22BD32BD06937CF8D2F8F710E94B10FBB
:101DE000182FCE0199270E940F0FC12FD0E0DC2FB2
:101DF000CC27CC27DF71C82BD92BD2CF462F7530FB
:101E000030F4623120F4672F0E94F701089590E0CA
:101E100080E008950E94FE0E0E94E00D0895823831
:101E20009105B9F1B0F48133910509F47DC048F40E
:101E30008932910509F46DC08A32910509F47BC09D
:101E400008958533910509F45FC08933910509F13F
:101E50000895833E9105D9F138F4803E910529F12A
:101E6000823E910579F10895863E9105D9F1873E2C
:101E7000910509F43EC0843E910541F52091770219
:101E800021FF24C08091760284FD19C087EE90E086
:101E9000089520917602237009F05AC020917702AC
:101EA00023FF14C089E290E008952091760220FD7E
:101EB00038C03091770230FF09C024FF43C090E062
:101EC00080E008952091760222FDF7CF08952091B9
:101ED000760222FD3AC03091770230FD39C024FFEE
:101EE000F5CFEDCF2091760223FFF0CF24FDE7CF91
:101EF000CDCF2091760223FD2EC03091770231FFA5
:101F0000EECF84EE90E008952091760225FFDECF9B
:101F1000C9CF2091760225FD21C02091770223FFB1
:101F2000D5CF89E390E0D2CF2091760226FFCECFA5
:101F30008AE290E008952091760226FFC7CF81E3E0
:101F400090E0089583EE90E0089582EE90E0089589
:101F500080EE90E0089586EE90E0089585E390E0AD
:101F600008959091760292FF10C041E0282F2471CD
:101F7000243009F040E031E0282F2871283009F0A2
:101F800030E0431711F02CE0822793FF10C041E0AE
:101F9000282F2471243109F040E031E0282F2871E6
:101FA000283109F030E0431711F02CE082273091FE
:101FB000770230FF10C051E0282F2171213009F045
:101FC00050E041E0282F2871283009F040E05417F4
:101FD00011F029E0822731FF10C041E0282F217144
:101FE000213109F040E031E0282F2871283109F033
:101FF00030E0431711F029E0822794FD877E089591
:1020000080E00895CF939C01205E3245C1E02032EC
:10201000310538F4FB01C581C11103C08F710E94E5
:1020200086028C2FCF91089508950E941410089570
:1020300008950E941810089594E0899FF0011124DA
:10204000E457FD4F608171818281938108950895E5
:1020500080EA8A95F1F7089500C008950E9428103B
:102060000895F894E82FE295EF70F0E031A1282F61
:102070002F7081E090E001C0880F2A95EAF7982F31
:102080009095932391A392A1892B82A3789408958C
:102090000F931F93CF93DF93CCE9D1E089918F3FCA
:1020A00011F00E94311081E0C13AD807B9F7CAE8AF
:1020B000D1E00CE911E089918F3F11F00E943110BD
:1020C0000C171D07C1F7DF91CF911F910F91089554
:1020D0008F929F92AF92BF92DF92EF92FF920F93F7
:1020E0001F93CF93DF938C01D62EC62FD0E0CE0165
:1020F00084569E4F7C01FC0120812F3F09F45DC076
:10210000F894E22FE295EF70F0E031A12F7081E0BA
:1021100090E001C0880F2A95EAF7932F982B91A39E
:1021200092A18095892382A378940E942C10EAE8DA
:10213000F1E041E050E060E070E0812C912C54012E
:1021400081918F3F89F0A82FA295AF70B0E0909653
:102150002C9130E08F7002C0359527958A95E2F773
:10216000DB01CA0120FF03C080E090E0DC01882A87
:10217000992AAA2ABB2A440F551F661F771F81E0A0
:10218000EC39F807E9F6F70180818F3F11F00E94E2
:10219000311061E081149104A104B10409F460E0FC
:1021A0008D2D0E942E10CC0FDD1FCC0FDD1FC00F18
:1021B000D11F88829982AA82BB82DF91CF911F9121
:1021C0000F91FF90EF90DF90BF90AF909F908F9016
:1021D00008950E94481084E1ECE8F2E0DF01982FB6
:1021E0001D929A95E9F7E8E7F2E0DF011D928A95E2
:1021F000E9F785E00E943A110E9415100895A4E1C4
:10220000B0E0E5E0F1E10C94181F8E010F5F1F4F65
:1022100084E1F80111928A95E9F7F12C6F2DC8013C
:102220000E946810F394F5E0FF12F8CF44E150E00B
:10223000B80188E792E00E94561F21E0009709F458
:1022400020E0892B41F084E1F801A8E7B2E0019099
:102250000D928A95E1F745E06CE872E088E792E03C
:102260000E943B11182F0E941910812F6496E5E0FF
:102270000C94341F0895B0E0A0E0E1E4F1E10C9487
:10228000151F6C017B01042FC22F222379F081E0FE
:10229000809355020E94F317909354028093530247
:1022A00080E0CDB7DEB7E8E00C94311FD091550245
:1022B000DD23B1F380915302909154020E94821762
:1022C000059770F384E0089F80011124A801B601EE
:1022D000C7010E94561F892B31F0A801B601C70122
:1022E0000E94631FCD2F109255028C2FDACF0E94CF
:1022F000490D08950E948C170E94A1190E94060D95
:102300000E94BB190E943E0D0E94C8190E94CD195F
:102310000E9477110E94E7190E941A0DF7CF90933F
:10232000A3018093A20108950E940B0C089580E000
:102330000E941C10862F817008950E94FF102FEFBD
:1023400086E791E0215080409040E1F700C0000016
:102350000E94FF100E949711882321F00E9494117F
:102360000E942F1808950E949D110895CF93DF9326
:10237000EB0186319C4711F50E94190B9D81992331
:1023800099F08A7A91E009F490E0909356028111D5
:1023900009C089E20E94AD160E94A80B80E0DF917F
:1023A000CF91089585E3F6CF80915602811104C044
:1023B00089E20E94B516F0CF85E3FBCF81E0EFCF35
:1023C000CF93DF93EC01FB018581882309F4D2C010
:1023D0009E0130572332310508F0B2C00E942E0C06
:1023E0009093770280937602FE01E150F047E2324B
:1023F000F10520F4E453F04E0C94021F8091760214
:1024000081608093760293C0809177028860809388
:1024100077028DC0809176028260F3CF8091760240
:102420008460EFCF809176028860EBCF8091770255
:102430008160EDCF809177028260E9CF8091760252
:102440008061DFCF809176028062DBCF809176025F
:102450008064D7CF0E949D06809176028068D1CF9C
:10246000809176028C60CDCF809177028360CFCF50
:10247000809176028E7FC5CF80917702877FC7CF0C
:10248000809176028D7FBDCF809176028B7FB9CF10
:1024900080917602877FB5CF809177028E7FB7CF0C
:1024A000809177028D7FB3CF809176028F7EA9CF06
:1024B000809176028F7DA5CF809176028F7BA1CF10
:1024C0000E949D06809176028F779BCF8091760245
:1024D000837F97CF809177028C7F99CF809176020E
:1024E00082FB992790F921E0922790FB82F990FBDB
:1024F00083F987CF80917702982F909591708E7F86
:10250000892B90FB81F983CF90917602892F8F7B65
:1025100096FF806476CF0E949D0690917602892F67
:1025200097FB87F980586DCF81E00E94B40C8091B1
:102530007602909177020E94330C0E949D0680E003
:10254000DF91CF91089580E0F0CF90917602892FAE
:102550008F7E94FF806155CF90917602892F8E7F78
:1025600090FF81604ECF90917702892F877F93FFF4
:1025700088604DCF81E0E4CF282F35EB2303C001E5
:10258000112497FF04C080589109892F089580581D
:102590009F4FFBCF80915D0280FF0DC060910701CE
:1025A00070E0660F771F6038710570F56115710571
:1025B00069F1862F089581FF07C06091070184E0CB
:1025C000689FB0011124EFCF6091070182FD0AC01E
:1025D00080915C028823A9F0209106016091070197
:1025E000821710F088E0ECCF869FC001112433E001
:1025F000880F991F3A95E1F7622F70E00E94EE1E56
:10260000D2CF68E070E0D5CF8FE7089581E00895DC
:1026100080915D0280FF0CC06091030170E07595B0
:102620006795759567956115710549F1862F089530
:1026300081FF06C06091030170E075956795F3CF47
:102640006091030182FD0BC090915B029923A1F080
:102650006091020180910301961738F0682F70E0B5
:102660006038710500F38FE70895899FC001112438
:1026700070E00E94EE1EF4CF61E070E0D7CF81E001
:1026800008958D3C31F40E94CA12819580936102B5
:1026900008958E3C19F40E94CA12F8CF8F3C31F491
:1026A0000E94CA128195809360020895803D19F4BA
:1026B0000E94CA12F8CF893D29F40E940813809322
:1026C000620208958A3D21F40E9408138195F7CF94
:1026D0008B3D31F40E940813819580936302089525
:1026E0008C3D19F40E940813F8CF9FE2980F9830A0
:1026F00070F4815D990B21E030E001C0220F8A95D2
:10270000EAF780915F02822B80935F0208958D3DEE
:1027100031F480915D02816080935D0208958E3D69
:1027200021F480915D028260F7CF8F3DB9F78091EF
:102730005D028460F1CF409160028D3C59F480913C
:10274000610287FF0DC01092610241110BC010920F
:102750005C0208C08E3C81F48091610218169CF3E3
:10276000442381F08091620290916302892B09F0E9
:102770005AC010925B0208958F3C49F447FFF0CF96
:1027800010926002809161028111ECCFE0CF803D18
:1027900019F41416ACF3E4CF90916202893D29F448
:1027A0001916F4F610926202DBCF8A3D19F497FFF6
:1027B000D7CFF8CF909163028B3D29F497FFD0CF0C
:1027C00010926302CDCF8C3D19F41916CCF3C8CF0B
:1027D0009FE2980F983090F4815D990B21E030E0F2
:1027E000B90102C0660F771F8A95E2F7CB01809589
:1027F00090915F02892380935F02B2CF8D3D31F4C7
:1028000080915D028E7F80935D02AACF8E3D21F480
:1028100080915D028D7FF7CF8F3D09F0A1CF809130
:102820005D028B7FF0CF08950E94F3179C01909179
:10283000600280916102982B21F030935A0220931C
:1028400059029091620280916302982B21F030939B
:102850005802209357028EE592E00E9405160895D3
:1028600086E0EEE5F2E0DF011D928A95E9F710922D
:102870005C0210925B0210925D020895FC0182815D
:1028800081110EC0838181110BC08481811108C028
:1028900091E08581811101C090E0892F81700895B8
:1028A00081E0FCCFA6E0B0E0E8E5F4E10C941A1F6B
:1028B00086E0EEE5F2E0DE01119601900D928A9538
:1028C000E1F710926002109261021092620210927F
:1028D00063028B819C81892B89F0809159029091B0
:1028E0005A020E948217AC0190915C029923C9F1AF
:1028F000809108018417150608F440C08D819E81DF
:10290000892B91F080915702909158020E94821772
:10291000AC0190915B02992309F46AC08091040193
:102920008417150608F472C0BE016F5F7F4F8EE5F5
:1029300092E00E94C816811105C08EE592E00E94C7
:102940003E1481110E94141486E0FE013196AEE51A
:10295000B2E001900D928A95E1F72696E3E00C949F
:10296000361F209109018AE0289F90011124241725
:10297000350720F69F5F90935C0202C09F3FD1F71E
:102980001B81112359F00E94CA129FEF11160CF4FB
:1029900091E0899F802D1124809360021C81112376
:1029A00059F00E94CA129FEF11160CF491E0899F12
:1029B000802D11248093610280916002882309F4A4
:1029C0009DCF10916102112309F498CF0E94BC128F
:1029D000882351F080936002812F0E94BC128823CB
:1029E00029F0809361028ACF81E0F4CF81E0F9CFB2
:1029F000209105018AE0289F9001112424173507B2
:102A000008F092CF9F5F90935B0202C09F3FD1F787
:102A10001D81112359F00E9408139FEF11160CF429
:102A200091E0899F802D1124809362021E811123E1
:102A300059F00E9408139FEF11160CF491E0899F42
:102A4000802D11248093630280916202882309F40F
:102A50006BCF10916302112309F466CF0E94BC1260
:102A6000882351F080936202812F0E94BC12882338
:102A700029F08093630258CF81E0F4CF81E0F9CF51
:102A80000F931F93CF93DF93C42FD22FFC01858127
:102A90008823C9F0409366020E94F3179093650261
:102AA0008093640280E28C0F883040F4C77081E02C
:102AB00001C0880FCA95EAF70E944804DF91CF91C0
:102AC0001F910F91089510916602141332C08091E6
:102AD0006402909165020E948217883C910548F536
:102AE000C0E2CD0F1D17B9F080E2810F883040F4AD
:102AF000177081E001C0880F1A95EAF70E944F0411
:102B0000C83048F481E09D2F977001C0880F9A95D6
:102B1000EAF70E944804802F0E943F04C83070F6F4
:102B2000D77081E001C0880FDA95EAF70E944F0460
:102B3000C5CF80E28C0F883008F6C77081E001C0F5
:102B4000880FCA95EAF7F2CF0F93DB0188519C47B3
:102B500087309105A0F5FC01E251F04E0C94021F64
:102B600006E221EE41EE6AE17CE7CD010E944015CC
:102B700080E00F91089507E225EE45EE6BE17CE7DA
:102B8000F4CF06E221EE40EE68E17CE7EECF07E20B
:102B900025EE44EE69E17CE7E8CF06E221EE42EE65
:102BA0006CE17CE7E2CF07E225EE46EE6DE17CE7E3
:102BB000DCCF08E221E045EE6EE17CE7D6CF15964A
:102BC0008C91882319F010926602D3CF81E0D1CF87
:102BD00090936C0280936B020895E0916B02F091E8
:102BE0006C02309729F00190F081E02D099508954D
:102BF00080E00895E0916B02F0916C02309721F033
:102C00000280F381E02D09950895E0916B02F09127
:102C10006C02309739F022E0DC012C930680F781BA
:102C2000E02D09950895A3E0B0E0E9E1F6E10C9408
:102C30001B1F2091690230916A0228173907A1F001
:102C400090936A0280936902E0916B02F0916C02AA
:102C5000309751F023E029839B838A830084F18598
:102C6000E02DCE01019609952396E2E00C94371FE2
:102C7000A3E0B0E0EEE3F6E10C941B1F20916702A5
:102C80003091680228173907A1F090936802809369
:102C90006702E0916B02F0916C02309751F024E0F2
:102CA00029839B838A830084F185E02DCE010196E0
:102CB00009952396E2E00C94371F40910001509152
:102CC00001019A012E5F3F4F485F5F4F80E024175C
:102CD000350709F40895F90191919F019923B9F3FA
:102CE0008F5FF5CF882371F02091000130910101B1
:102CF000F9013296285F3F4F9191981729F0E2171A
:102D0000F307D1F780E0089581E008959C01FC016C
:102D100032969FEF80E04191461751F09F3F19F4A2
:102D2000411101C0982F8F5F8630A9F79F3F09F4AA
:102D30000895290F311D97FD3A95F9016283089591
:102D4000FC01329608962191261303C0DF011197EA
:102D50001C92E817F907B9F70895682F80910001D0
:102D6000909101010E9486160895682F80910001BC
:102D7000909101010E94A0160895E0910001F09148
:102D80000101329686E0DF011D928A95E9F70895E8
:102D9000DC01FB0111969C9111978181981322C04F
:102DA00012968C911297882319F0928189131AC078
:102DB00013968C911397882319F09381891312C06D
:102DC00015968C911597882319F0958189130AC05F
:102DD00014969C91992321F081E02481291303C04A
:102DE00080E001C081E08170089508950E94F51689
:102DF000089581110EC081E080930D0160910A0158
:102E000070910B0180910C0190910D010E94F616BA
:102E1000089582E0F1CF83E080930D0160910A0173
:102E200070910B0180910C0190910D010E94F6169A
:102E300008950E94F916089581E080930D01609134
:102E40000A0170910B0180910C0190910D010E947B
:102E5000F61608950E941C17089591E0811101C093
:102E600090E090930C0160910A0170910B018091A8
:102E70000C0190910D010E94F616089580910C01AD
:102E8000089580930B0160910A0170910B0180916C
:102E90000C0190910D010E94F616089580910B018E
:102EA000089580930A0160910A0170910B0180914D
:102EB0000C0190910D010E94F616089580910A016F
:102EC0000895089508950E94621708950895089539
:102ED0000E9461170895CF930E9466170E94FF1009
:102EE0000E946717C0E08C2F0E941C10672B682B74
:102EF000692B31F4CF5FC530B1F780E0CF910895F1
:102F000081E0FCCFCF93DF93EC010E94F3178C1B81
:102F10009D0BDF91CF91089585B7806885BF85B7F8
:102F2000806885BF08951F921FB61F9211248F934A
:102F30009F93AF93BF9380916D02811113C08091D5
:102F4000A0029091A102A091A202B091A302419689
:102F5000A11DB11D8093A0029093A102A093A20293
:102F6000B093A302BF91AF919F918F911F901FBE0D
:102F70001F9018958091A802843031F10E9422039D
:102F800010926D0288E190E020E40FB6F894A895C5
:102F9000809360000FBE2093600083B7817F8460C0
:102FA00083BF83B7816083BF7894889583B78E7F12
:102FB00083BF0FB6F894A8958091600088618093D4
:102FC0006000109260000FBE08950E949D060E944E
:102FD0002903089582E084BD93E095BD9AEF97BDE3
:102FE00080936E0008952FB7F8948091A00290917D
:102FF000A102A091A202B091A3022FBF08952FB702
:10300000F8946091A0027091A1028091A202909127
:10301000A3022FBF089578941F921FB61F92112408
:103020008F939F93AF93BF938091A0029091A10241
:10303000A091A202B091A3020196A11DB11D80939F
:10304000A0029093A102A093A202B093A302BF9109
:10305000AF919F918F911F901FBE1F90189581E097
:103060008093E00080E28093D8001092C9008FE145
:103070009EE40197F1F700C0000087E090EBDC01CF
:103080008093B1029093B202A093B302B093B402C2
:1030900088E19CE00FB6F894A895809360000FBE7D
:1030A00090936000FFCF88E19CE00FB6F894A8955C
:1030B000809360000FBE90936000FFCF08959B0146
:1030C000BA019091A8029430E9F48F708093E900DE
:1030D0009FEF8091E800915085FD06C085ED8A95AF
:1030E000F1F700009111F5CF8091E80085FF0AC04B
:1030F00050E040E0C9010E945E1A8091E8008E779E
:103100008093E800089543E050E0BC0182E00E9413
:103110005F18089546E050E0BC0182E00E945F180D
:103120000895CF93DF93EC010E943E1748E050E0F2
:10313000BE0181E00E945F1888E0FE01AEE6B2E0C9
:1031400001900D928A95E1F7DF91CF9108958091DA
:10315000A702811109C00E94EC1B0E944E1C8091A5
:10316000E20084608093E20008951092A70208951F
:103170000E941C1781E00E942D1708956091A402FF
:1031800081E0611101C080E00E940B1708959091C9
:10319000A80281E0943009F080E06091A4020E94CE
:1031A0001917089542E061EC81E00E94681B42E239
:1031B00061EC82E00E94681B9091A80281E094304B
:1031C00009F080E06091A4020E94F91608958091B0
:1031D000AA02833009F461C030F48130D1F1823029
:1031E00009F49EC008958A3009F48AC08B3009F42E
:1031F0006FC0893009F050C08091A902813209F076
:103200004BC08091AD029091AE02029708F044C08D
:103210008091E800877F8093E8008091E80082FF3A
:1032200037C08091F2009091F300029731F48091C1
:10323000F100813011F0863021F48091F1000E947C
:1032400041178091E8008B778093E8000E949C1BD7
:1032500023C08091A902813AF9F48091E800877F28
:103260008093E8008091AD029091AE02892B61F4C9
:1032700068E08EE692E070E00E94AD1A8091E8006E
:103280008B778093E800089560E090E080E0F3CFD2
:103290008091A8028111C1CF08958091A902813A3D
:1032A000D9F78091AD029091AE02892BA9F7809158
:1032B000E800877F8093E8008091E80080FFFCCFE2
:1032C0000E943E178093F1008091E8008E77BCCF7A
:1032D0008091A902813201F78091AD029091AE02F6
:1032E000892BD1F68091E800877F8093E8000E94C7
:1032F0009C1B8091AB020E942D170E949D06089591
:103300008091A902813241F68091E800877F809305
:10331000E8000E949C1B8091AC020E945117089506
:103320008091A902813A09F0B7CF8091E800877FA8
:103330008093E8008091E80080FFFCCF0E945E1738
:10334000C1CF84B7877F84BF0FB6F894A8958091CA
:103350006000886180936000109260000FBE80E87A
:1033600090E00FB6F89480936100909361000FBED7
:103370000E942A1708950E94EC1B0E944E1CE2EE48
:10338000F0E080818460808378940E94D31E089549
:103390008EE091E00E94E81508958091A8028530A2
:1033A00031F48091A802853019F00E94E517089544
:1033B0000E94BA170E946B17882399F38091A60286
:1033C000882379F30E94481A0E949D06EACF089547
:1033D0009A014091AF025091B0020E94F0190895F5
:1033E000492F55274330510519F168F441305105F3
:1033F00009F444C04230510509F445C090E080E032
:1034000050E040E025C04132510549F142325105BA
:10341000A9F784E490E04AEF52E061157105C1F02C
:103420008BE790E04FE752E06130710589F0E6CF1D
:1034300099278130910581F0009729F00297F1F6E4
:10344000E0E0F2E002C0EEE2F2E0849190E0AF0151
:10345000F901518340830895E4E1F2E0F6CF89E079
:1034600090E044E452E06115710591F389E090E049
:103470004DE552E06130710559F3C0CF82E190E033
:103480004DE652E0E5CF8BE390E042E352E0E0CF3F
:1034900084E189BD86E189BD09B400FEFDCF80913C
:1034A000D8008F7D8093D8008091E0008260809367
:1034B000E0008091E00081FDFCCF0895AF92BF92C3
:1034C000CF92DF92FF920F931F93CF93DF936C0104
:1034D000EB018A010E94BB1BF82E811123C001154C
:1034E000110539F0F80180819181C81BD90BC80EF4
:1034F000D91EB12CA12C2097A9F08091E80085FD60
:1035000022C08091E8008E778093E80001151105B4
:10351000A1F0F80180819181A80EB91EB182A0822C
:1035200085E0F82E8F2DDF91CF911F910F91FF90A5
:10353000DF90CF90BF90AF9008950E94BB1B88236F
:10354000D1F2F82EEFCFF60181916F018093F10057
:103550002197FFEFAF1ABF0ACECFFC018091AF02D7
:103560009091B00286179707A0F06115710529F4B4
:103570009091E8009E779093E80090E061157105C6
:1035800051F4911108C08091E80082FF33C080E0BF
:103590000895BC01F2CF8091A8028823B9F185304B
:1035A000B9F18091E80083FD2FC08091E80082FD91
:1035B000EACF8091E80080FFE1CF2091F2003091C6
:1035C000F3006115710519F02830310558F091E0CC
:1035D0002830310509F090E02091E8002E77209303
:1035E000E800CCCF81918093F100615071092F5F89
:1035F0003F4FE7CF8091A802882341F0853041F00A
:103600008091E80083FFBFCF81E0089582E00895B4
:1036100083E00895FC018091AF029091B00286177B
:103620009707A0F06115710529F48091E8008E7765
:103630008093E80090E06115710551F4911108C084
:103640008091E80082FF34C080E00895BC01F2CF91
:103650008091A8028823C1F18530C1F18091E800F2
:1036600083FD30C08091E80082FDEACF8091E800C0
:1036700080FFE1CF2091F2003091F30061157105D8
:1036800019F02830310558F091E02830310509F063
:1036900090E08091E8008E778093E800CCCF849111
:1036A0008093F1003196615071092F5F3F4FE6CF53
:1036B0008091A802882341F0853041F08091E80094
:1036C00083FFBECF81E0089582E0089583E00895EE
:1036D000982F973028F08F708093E90081E008954B
:1036E0009093E900242F762F50E0981731F07091D5
:1036F000EC002091ED005091F00021FD02C09F5F91
:10370000E8CF3091EB003E7F3093EB003091ED003D
:103710003D7F3093ED003091EB0031603093EB0052
:103720007093EC002093ED005093F0002091EE0098
:1037300027FDE5CF80E008958091A90287FF13C09F
:103740008091E80082FF06C08091E8008B7780932B
:10375000E80004C08091A8028111F2CF0895809101
:10376000A8028823D9F38091E80080FFF8CF8091E8
:10377000E8008E77ECCF2091E4003091E50095E6EB
:10378000A9012091EC00822F817020FF06C080915A
:10379000E80080FF06C080E008952091E80022FD47
:1037A0001AC08091A802882389F0853089F0809121
:1037B000EB0085FD0FC02091E4003091E500421739
:1037C0005307F9F29150E1F684E0089582E00895FC
:1037D00083E0089581E008950E945E1C0E94661CAB
:1037E000E0EEF0E0808181608083E8EDF0E08081B0
:1037F0008F77808319BCA7EDB0E08C918E7F8C937E
:1038000080818F7E80831092A70208950F931F936B
:10381000CF93DF930E945E1C0E94661CC8EDD0E02F
:1038200088818F77888388818068888388818F7D6D
:103830008883E7EDF0E080818068808319BC109276
:10384000A8021092A4021092A6021092A50200EE05
:1038500010E0F80180818B7F80838881816088837C
:1038600042E060E080E00E94681BE1EEF0E08081D1
:103870008E7F8083E2EEF0E08081816080838081B2
:1038800088608083F80180818E7F80838881806159
:103890008883DF91CF911F910F910895E8EDF0E0BB
:1038A00080818F7E8083E7EDF0E08081816080837E
:1038B00081E08093A7020E94061C0895E8EDF0E0E5
:1038C00080818C7F80831092E20008951092DA004C
:1038D0001092E10008951F920F920FB60F921124DB
:1038E0000BB60F922F933F934F935F936F937F93FA
:1038F0008F939F93AF93BF93EF93FF938091E100DA
:1039000082FF0BC08091E20082FF07C08091E1003E
:103910008B7F8093E1000E94D21E8091DA0080FFAD
:1039200019C08091D80080FF15C08091DA008E7F89
:103930008093DA008091D90080FF98C084E189BD2E
:1039400086E189BD09B400FEFDCF81E08093A80225
:103950000E94A7188091E10080FF19C08091E200C9
:1039600080FF15C08091E2008E7F8093E2008091FD
:10397000E20080618093E2008091D80080628093B1
:10398000D80019BC85E08093A8020E94BE188091DF
:10399000E10084FF2BC08091E20084FF27C084E116
:1039A00089BD86E189BD89B5982F917080FFFBCFD5
:1039B0008091D8008F7D8093D8008091E1008F7E28
:1039C0008093E1008091E2008F7E8093E2008091FD
:1039D000E20081608093E2008091A402882309F4D0
:1039E0004BC084E08093A8020E94C7188091E10038
:1039F00083FF29C08091E20083FF25C08091E10010
:103A0000877F8093E10082E08093A8021092A40255
:103A10008091E1008E7F8093E1008091E2008E7FB3
:103A20008093E2008091E20080618093E20042E0B6
:103A300060E080E00E94681B8091F00088608093C5
:103A4000F0000E94B818FF91EF91BF91AF919F9144
:103A50008F917F916F915F914F913F912F910F9037
:103A60000BBE0F900FBE0F901F90189519BC1092AF
:103A7000A8020E94B5186ECF8091E30087FD93E005
:103A80009093A802B1CF1F920F920FB60F921124FC
:103A90000BB60F922F933F934F935F936F937F9348
:103AA0008F939F93AF93BF93CF93DF93EF93FF9346
:103AB000D091E900DF708091EC00C82FC17080FDCB
:103AC000C0E81092E9008091F000877F8093F000B9
:103AD00078940E948B1D1092E9008091F00088601C
:103AE0008093F000CD2BCF70C093E900FF91EF9150
:103AF000DF91CF91BF91AF919F918F917F916F9106
:103B00005F914F913F912F910F900BBE0F900FBE81
:103B10000F901F901895AAE2B0E0E1E9FDE10C9446
:103B20001A1F89EA92E02091F100FC012193CF0154
:103B3000F2E0813B9F07B9F70E94E7188091E80007
:103B400083FF1EC18091A9029091AA029A3008F0C9
:103B500017C1E92FF0E0EB50F04E0C94021F8038B3
:103B600099F0823809F00CC18091AD028F708730D6
:103B700008F006C18093E9008091EB0085FB88275F
:103B800080F91092E90006C08091A5029091A602EA
:103B9000911182609091E800977F9093E800809364
:103BA000F1001092F1008091E8008E77E5C0882343
:103BB00009F4D3C0823009F0E3C08091AB028111D7
:103BC000D6C08091AD028F702FEF280F263008F0FD
:103BD000D7C08093E9002091EB0020FFC8C093304C
:103BE00031F48091EB0080628093EB00C0C0909133
:103BF000EB0090619093EB0021E030E001C0220FD8
:103C00008A95EAF72093EA001092EA008091EB008F
:103C10008860EACF8111B4C01091AB021F77809108
:103C2000E3008078812B8093E3008091E800877F18
:103C30008093E8000E949C1B8091E80080FFFCCFED
:103C40008091E30080688093E30082E0111183E0BB
:103C50008093A80295C08058823008F091C080916E
:103C6000AB029091AC028C3D23E09207A1F583E07A
:103C70008A838AE289834FB7F894DE01139620E0A5
:103C80003EE051E2E32FF0E050935700E49120FF33
:103C900003C0E295EF703F5FEF708E2F90E0EA3047
:103CA000C0F0C7968D939D932F5F243159F74FBF76
:103CB0008091E800877F8093E8006AE270E0CE019F
:103CC00001960E94AD1A8091E8008B778093E800FE
:103CD00057C0C096E7CF6091AD027091AE02AE01C1
:103CE0004F5F5F4F0E94E819BC01892B09F448C05F
:103CF0009091E800977F9093E80089819A810E94D3
:103D00000A1BE1CF8038E1F58091E800877F80933E
:103D1000E8008091A4028093F10045CF811130C06A
:103D20009091AB02923060F58091E800877F80939C
:103D3000E8009093A4020E949C1B8091A402882317
:103D400011F084E005C08091E30087FDFACF81E0A7
:103D50008093A8020E94D21813C08091AB028130D8
:103D600079F481E0933009F080E08093A60210920C
:103D7000E9008091E800877F8093E8000E949C1B07
:103D80008091E80083FF0AC08091E800877F8093DC
:103D9000E8008091EB0080628093EB00AA96E3E05C
:103DA0000C94361F0895CF938091A8028823A1F028
:103DB000C091E900CF709091EC00892F817090FD47
:103DC00080E8C82B1092E9008091E80083FD0E94F2
:103DD0008B1DCF70C093E900CF91089597FB072EFC
:103DE00016F4009407D077FD09D00E94421F07FC0B
:103DF00005D03EF4909581959F4F089570956195FB
:103E00007F4F0895EE0FFF1F0024001C0BBE07908C
:103E1000F691E02D09942F923F924F925F926F920C
:103E20007F928F929F92AF92BF92CF92DF92EF924A
:103E3000FF920F931F93CF93DF93CDB7DEB7CA1BCB
:103E4000DB0B0FB6F894DEBF0FBECDBF09942A88F6
:103E5000398848885F846E847D848C849B84AA849E
:103E6000B984C884DF80EE80FD800C811B81AA812B
:103E7000B981CE0FD11D0FB6F894DEBF0FBECDBFF6
:103E8000ED010895AA1BBB1B51E107C0AA1FBB1F70
:103E9000A617B70710F0A61BB70B881F991F5A95D6
:103EA000A9F780959095BC01CD010895FB01DC0137
:103EB00004C08D910190801921F441505040C8F701
:103EC000881B990B0895FB01DC0102C001900D9243
:103ED00041505040D8F70895F999FECF92BD81BD69
:103EE000F89A992780B50895A8E1B0E042E050E043
:103EF0000C94B01FDC01A40FB51F4150504048F096
:103F0000CB01840F951F2E910E948B1F4150504072
:103F1000D0F70895262FF999FECF92BD81BDF89A6A
:103F2000019700B4021639F01FBA20BD0FB6F894FD
:103F3000FA9AF99A0FBE08950396272F0E948B1FB5
:103F40000E948A1F252F0E948B1F242F0C948B1FE9
:103F50000196272F0E948B1F0C948A1FDC01CB0136
:103F6000FC01F999FECF06C0F2BDE1BDF89A319689
:103F700000B40D9241505040B8F70895F894FFCF27
:103F800097049704D504D50439055505C604C6041D
:103F90005A05CB05DA05DA053812AC1240120A12BE
:103FA0000E1244121212481254121E12A51222129C
:103FB000581226125C1284122A1260128B123012CE
:103FC00066126E1216124C121A12501234126A1223
:103FD0007A129412A31204123C12B312C115C7151F
:103FE000B015BB15CD15D315D915AF1DD71DC01EE6
:0E3FF000D71DC01E0A1E2B1EC01E821E8E1E56
:103FFE002A02280850011E0A1401000001004E1763
:10400E0091185E188A188318E200E900EA00B500DC
:10401E00B600B700CD008301CC008A019201940155
:10402E002102230224022502260227022A02B300BD
:10403E00B4006F0070009F01CB019F02A00281822D
:10404E0083E200E900EA00B500B600B700CD0083B8
:10405E0001CC008A0192019401210223022402253F
:10406E0002260227022A02B300B4006F0070009FDE
:10407E0001CB019F02A002818283F6F5F4F3F2F1E7
:10408E00353662636465666707060504020100F74C
:02409E0003001D
:00000001FF
