:100000000C94D6020C940E030C940E030C940E0365
:100010000C940E030C940E030C940E030C940E031C
:100020000C940E030C940E030C94691C0C94251C68
:100030000C94741D0C940E030C940E030C940E037C
:100040000C940E030C940E030C940E030C940E03EC
:100050000C940E030C94501D0C940E030C940E0380
:100060000C940E030C940E030C940E030C940E03CC
:100070000C940E030C940E030C940E030C940E03BC
:100080000C940E030C940E030C940E030C940E03AC
:100090000C940E030C940E030C940E030C940E039C
:1000A0000C940E030C940E030C940E0329003A00DA
:1000B0003B003C003D003E003F004000410042004C
:1000C0004300440045004600470035001E001F0065
:1000D0002000210022002300240025002600270004
:1000E0002D002E0000002A002B0014001A0008002A
:1000F000150017001C0018000C00120013002F0040
:10010000300031004C0039000400160007000900DF
:100110000A000B000D000E000F0033003400280011
:1001200048004B00E10000001D001B000600190004
:10013000050011001000360037003800E50000000F
:100140005200E000E300E2002C00E600E70021524C
:10015000E400500051004F0049004A004D004E009D
:100160000100010001000100010001000100010087
:100170000100010001000100010001000100010077
:100180000100010001000100010001000100010067
:1001900001000100010001000000010001002178C0
:1001A0002378257827780100010001000100010073
:1001B0000100010001000100007C0100207824788A
:1001C00026782878010001000100010001000100EB
:1001D0000100010001000100010000000100010018
:1001E0000100010001000100010001000100010007
:1001F00001000000010001000100010001000100F8
:1002000001000100010001000100010001000100E6
:10021000010001001E0F0500047F3F1F64321464BB
:100220003214783C1E1E140A05000101010101016F
:10023000010101020202020202020202030303039D
:10024000030303030404040404040405050505056D
:10025000060606060607070707070808080809092B
:1002600009090A0A0A0B0B0B0C0C0C0D0D0D0E0ED6
:100270000E0F0F0F10101111111212131314141569
:100280001516161717181819191A1A1B1B1C1D1DDD
:100290001E1E1F2020212222232424252626272833
:1002A00029292A2B2C2D2D2E2F3031323233343563
:1002B000363738393A3B3C3D3E3F40414243444566
:1002C000464748494A4C4D4E4F5051535455565845
:1002D000595A5B5D5E5F616264656668696B6C6DEF
:1002E0006F7072737577787A7B7D7E808283858765
:1002F000888A8C8E8F91939596989A9C9EA0A2A3A3
:10030000A5A7A9ABADAFB1B3B5B7BABCBEC0C2C4A7
:10031000C6C9CBCDCFD1D4D6D8DBDDDFE2E4E7E967
:10032000EBEEF0F3F5F8FAFDFFFFAA7F554022232C
:10033000252628292A2C2D2F3032333536383A3BC2
:100340003D3E4042434547494A4C4E505153555714
:10035000595A5C5E6062646668696B6D6F71737533
:1003600077797B7D7F81838587898A8C8E90929433
:1003700096989A9C9E9FA1A3A5A7A8AAACAEAFB140
:10038000B3B4B6B8B9BBBCBEBFC1C2C3C5C6C7C98A
:10039000CACBCCCDCED0D1D2D2D3D4D5D6D7D7D844
:1003A000D9D9DADADBDBDBDCDCDCDCDCDDDDDDDD96
:1003B000DCDCDCDCDCDBDBDBDADAD9D9D8D7D7D69E
:1003C000D5D4D3D2D2D1D0CECDCCCBCAC9C7C6C555
:1003D000C3C2C1BFBEBCBBB9B8B6B4B3B1AFAEAC9B
:1003E000AAA8A7A5A3A19F9E9C9A98969492908E46
:1003F0008C8A89878583817F7D7B79777573716F1F
:100400006D6B6968666462605E5C5A5957555351FA
:10041000504E4C4A4947454342403E3D3B3A3836B0
:10042000353332302F2D2C2A292826252322050169
:100430000902A10185020901A10005091901290884
:100440001500250195087501810205010930093162
:100450001581257F95027508810609381581257F4C
:10046000950175088106050C0A38021581257F95CE
:100470000175088106C0C005010980A10185031925
:10048000012AB700150126B700950175108100C03B
:10049000050C0901A101850419012AA002150126F4
:1004A000A002950175108100C005010906A1018512
:1004B00006050719E029E715002501950875018152
:1004C000020507190029EF1500250195F075018136
:1004D0000205081901290595057501910295017517
:1004E000039101C005010906A101050719E029E7EB
:1004F0001500250195087501810295017508810196
:100500000507190029FF150026FF009506750881CB
:1005100000050819012905150025019505750191AA
:1005200002950175039101C009023B00020100A080
:10053000FA09040000010301010009211101000171
:10054000224400070581030800010904010001039A
:1005500000000009211101000122B60007058203F5
:1005600020000112010002000000086B70454801E4
:1005700000010200011203480065006C0065006E76
:100580000020003800300000001C0350006C0061A7
:1005900000790020004B006500790062006F006167
:1005A00000720064000000040309040011241FBE4F
:1005B000CFEFDAE0DEBFCDBF04B603FE18C08091F6
:1005C000910590919205A0919305B0919405873083
:1005D000904BA740B04B59F41092910510929205A0
:1005E0001092930510929405E0E0F8E3099525E058
:1005F000AAE9B1E001C01D92A139B207E1F711E00B
:10060000A0E0B1E0ECE5F8E402C005900D92AA3953
:10061000B107D9F70E949B1D0C94E2230C940000B3
:10062000482F20918D059091540557E0291302C061
:1006300080E0089530E0529FF001539FF00D1124A7
:10064000EB5AFA4F8181681306C08081481303C0BA
:1006500085818111EECF2F5F3F4F2770E7CFE8ED07
:10066000F0E080818E7F80831092E2001092DA00A9
:100670001092E100A0EEB0E08C9181608C938081BB
:100680008F77808319BCA7EDB0E08C918E7F8C931F
:1006900080818F7E808310923F0508952091E40031
:1006A0003091E50095E6A9012091EC00822F817040
:1006B00020FF06C08091E80080FF06C080E008951A
:1006C0002091E80022FD1AC080914A05882389F014
:1006D000853089F08091EB0085FD0FC02091E4000A
:1006E0003091E50042175307F9F29150E1F684E0AA
:1006F000089582E0089583E0089581E0089580914F
:100700004C0587FF13C08091E80082FF06C08091EE
:10071000E8008B778093E80004C080914A0581113E
:10072000F2CF089580914A058823D9F38091E8009B
:1007300080FFF8CF8091E8008E77ECCF982F9093D0
:10074000E900242F762F50E0891731F07091EC00EA
:100750002091ED005091F00021FD07C09F5F973080
:1007600071F78093E90081E008953091EB003E7FBE
:100770003093EB003091ED003D7F3093ED003091F0
:10078000EB0031603093EB007093EC002093ED00B0
:100790005093F0002091EE0027FDE0CF80E0089517
:1007A000B0E0A0E0E6EDF3E00C944E22C8EDD0E01E
:1007B00088818F7E8883E7EDF0E08081816080838F
:1007C00084E082BF81E080933F0588818E7F8883AB
:1007D00002EE10E0F80110821092DA0081EEC82ECD
:1007E000D12CF601108288818F7788838881806878
:1007F000888388818F7D888319BC10924A05109266
:100800004B05109249051092480590EEE92EF12C07
:10081000F70180818B7F808388818160888342E0BB
:1008200060E080E00E949E03F60180818E7F8083DD
:10083000F801808181608083808188608083F701F6
:1008400080818E7F8083888180618883CDB7DEB789
:10085000E8E00C946A22FC018091520590915305C6
:1008600086179707A0F06115710529F49091E800AB
:100870009E779093E80090E06115710551F4911115
:1008800008C08091E80082FF34C080E00895BC0178
:10089000F2CF80914A058823C1F18530C1F1809162
:1008A000E80083FD30C08091E80082FDEACF8091AE
:1008B000E80080FFE1CF8091F3002091F200382F13
:1008C0006115710519F02830310558F091E0283094
:1008D000310509F090E02091E8002E772093E800A0
:1008E000CBCF81918093F100615071092F5F3F4F11
:1008F000E7CF80914A05882341F0853041F080910F
:10090000E80083FFBECF81E0089582E0089583E090
:1009100008952FB7F89480913B0590913C05A091E4
:100920003D05B0913E052FBF089580911D010895AA
:1009300090911E019130D1F49091380597FF16C027
:10094000E82FE695E695E695EE31E0F4F0E0EC551B
:10095000FE4F282F277081E090E001C0880F2A9574
:10096000EAF780959281892382830895EEE9F1E088
:100970009191891303C0DF0111971C9291E0E43A31
:10098000F907B1F7089590911E019130C1F490914B
:10099000380597FF14C0E82FE695E695E695EE3109
:1009A000F8F4F0E0EC55FE4F877021E030E001C034
:1009B000220F8A95EAF78281822B82830895AEE91D
:1009C000B1E0EFEF90E02D91821751F0EF3F19F475
:1009D000211101C0E92F9F5F9630A9F7EF3F09F47D
:1009E00008950E2E000CFF0BE456FE4FE6CFA3E059
:1009F000B0E0EDEFF4E00C945422209136053091F4
:100A0000370528173907A1F09093370580933605ED
:100A1000E0913405F0913505309751F024E02983B9
:100A20009B838A830084F185E02DCE010196099590
:100A30002396E2E00C947022A3E0B0E0E2E2F5E05D
:100A40000C94542220913205309133052817390730
:100A5000A1F09093330580933205E0913405F09135
:100A60003505309751F023E029839B838A830084E6
:100A7000F185E02DCE01019609952396E2E00C94D4
:100A80007022E0913405F0913505309729F00190FE
:100A9000F081E02D0995089580E008950E94890471
:100AA0009C0190912E0580912F05982B21F0309379
:100AB0002B0520932A059091300580913105982BC4
:100AC00021F03093290520932805E0913405F09119
:100AD0003505309749F082E080932C050680F78138
:100AE000E02D8CE295E0099508958091270580FD21
:100AF00016C081FD16C082FD16C080912605882390
:100B0000A1F0883280F428E0829FC001112468E2BD
:100B100070E00E941B22862F672B39F0089582E037
:100B2000089584E0089588E0089581E00895809113
:100B3000270580FD14C081FD14C082FD16C0809180
:100B40002505882381F08E3180F420E5829FC00145
:100B500011246EE170E00E941B22862F089584E12B
:100B6000089588E2089588E0089580E50895282F83
:100B700035EB2303C001112497FF04C0805891096D
:100B8000892F089580589F4FFBCFFC01EE0FFF1F68
:100B9000E80FF91FE05EFB4F6183408322830895D5
:100BA0006A9A08950895CF93DF938091180480FD89
:100BB0000CC0D0E0C0E020E040E060E0CE010E9448
:100BC000C5052196C735D105B1F70E94B90DDF9152
:100BD000CF910895FF920F931F93CF93DF93182F18
:100BE000062FF42E8091180480FF0EC0D0E0C0E0E4
:100BF0002F2D402F612FCE010E94C5052196C735AC
:100C0000D105B1F70E94D305CDB7DEB7E5E00C946E
:100C10006D22CF93DF93EC0140911B049C81892FBF
:100C2000817090FD842F692F627091FD642F92FF77
:100C300040E00E94EA058C8190E001968770992738
:100C40008C83DF91CF91089580911804982F9C7F19
:100C500061F4837084608093180480911B04853B49
:100C600018F084EB80931B0408958C3AB0F38370E2
:100C7000886AF1CFB0E0A0E0E0E4F6E00C944E2208
:100C80009B01E82FF0E0E75DFD4F311109C0E491D1
:100C90008E2F7E2F6E2FCDB7DEB7E8E00C946A2240
:100CA000E32EF12CE491FE2F0E2F10E046E0649F1E
:100CB000C0011124CFEFD0E0BE010E940722AB019A
:100CC000822F90E0880F991F25E5249FB001259F72
:100CD000700D1124861B970B982F990F980FBE014A
:100CE0006E197F09609FD001619FB00D709FB00D9C
:100CF00011248B2F399F90011124232F3327BE01FC
:100D0000621B730B609F9001619F300D709F300DCF
:100D100011246E01C91AD108CE9CB001CF9C700D70
:100D2000DE9C700D1124672F7727C61BD70BC09F41
:100D30007001C19FF00CD09FF00C11247F2D423028
:100D40005105A1F050F44115510509F4A3CF4130EC
:100D5000510581F07B2F832F9DCF4430510569F0E1
:100D600080F04630510509F495CFF4CFEB2F8F2D4D
:100D70007F2F90CF7E2FE32F8DCFEF2D7B2F8F2FC7
:100D800089CF732FEB2FFBCF762F9091180490FF14
:100D90000DC0453B08F044EB682F842F0E943A06B3
:100DA000962F672F482F892F0E94EA050895CF9329
:100DB000DF93EC01E8E1F4E0438162818C810E94E1
:100DC000C4068C818F5F8C83DF91CF910895CF9380
:100DD000DF93EC01EC81F0E0E25DFC4F4491E8E14F
:100DE000F4E0628181810E94C4068C818F5F8C83D4
:100DF000DF91CF910895CF93762FC22F682F842F44
:100E00000E943A06472F282F8C2F90E00E94C5059C
:100E1000CF9108950F931F93CF93DF938C01D0E070
:100E2000C0E0F801948160911A0480911904CB32DA
:100E3000D105E4F49923E1F040911B04453B08F00F
:100E400044EB9E010E94FB062196C735D10549F768
:100E50000E94D305F801848190E001968170992762
:100E60008483DF91CF911F910F910895992321F3EE
:100E70009E0140E0E7CFB0E0A0E0E1E4F7E00C94B1
:100E80004A22EC014C81042F10E09801D8010E9405
:100E9000D3239B01AC010E949E234B015C01E0E245
:100EA000F0E0E01BF10BA5E5B0E0AC019B010E9476
:100EB0009E236B017C019F01DF010E9435229B0173
:100EC000AC010E94A9239B01AC01280D391D4A1DCC
:100ED0005B1DC701B6010E94B123022F822F90E053
:100EE0002A32A0F543E0249F9001112435952795DF
:100EF000122F1095F12CE12C85E5D82ED01A8D2DCE
:100F0000E1FC802F412F153B08F044EB97016091E5
:100F10001A040E94FB065FEFE51AF50A87E5E8165A
:100F2000F10469F70E94D3059C8181E0992319F0AF
:100F3000903219F48FEF80931B0180911B01890F70
:100F40008C83CDB7DEB7ECE00C94662225E530E06B
:100F5000A901481B590BCA019A01220F331F280F00
:100F6000391F37FFC3CF2F5F3F4FC0CFCF93DF93E2
:100F7000D0E0C0E020E040E060E0CE010E94C50586
:100F80002196C735D105B1F7D0E0C0E08091640269
:100F9000082E000C990BC817D90784F180911A010B
:100FA000082E000C990B8C179D0744F140911B04EF
:100FB000453B08F044EB9E0160911A0480911904AE
:100FC0000E94FB062196C735D10501F70E94D30583
:100FD0008091190190916402980F9093640220917E
:100FE0001A01280F20931A01121614F496351CF0DA
:100FF000819580931901DF91CF91089520E040E021
:1010000060E0CE010E94C505DDCFB0E0A0E0EBE0DE
:10101000F8E00C944F22FC018281FF24FA9480FDB9
:1010200002C0FF24F394D0E0C0E097E5D92E20E081
:1010300040E060E0CE010E94C50504E010E0E12C34
:10104000809163028E0D8835C4F16D2D0E94F921C7
:10105000892F082E000C990BC817D907A9F4809185
:101060001B04809FA001819F500D11245595479529
:1010700055954795453B08F044EB9E0160911A0455
:10108000809119040E94FB06EF0C01501109C1F672
:101090002196C735D10559F60E94D3058091630288
:1010A000F1E0FF1210C081110CC086E5809363024D
:1010B000CDB7DEB7E7E00C946B2287FFCACF895A21
:1010C000C8CF8150F3CF90E00196BE010E941B2251
:1010D000EDCF0F931F93CF93DF93EC0110E000E06F
:1010E00040911B04453B08F044EB902F990F8C81F5
:1010F000980160911A04890F0E94FB060F5F1F4F31
:101100000735110569F70E94D3059A818C8190FFFC
:1011100007C08F5F8C83DF91CF911F910F9108954E
:101120008150F8CF80E00895F894E82FE295EF70B1
:10113000F0E031A1282F2F7081E090E001C0880FEE
:101140002A95EAF7982F9095932391A392A1892B42
:1011500082A3789408959091380592FF10C041E0E1
:10116000282F2471243009F040E031E0282F287125
:10117000283009F030E0431711F02CE0822793FF6C
:1011800010C041E0282F2471243109F040E031E003
:10119000282F2871283109F030E0431711F02CE096
:1011A00082273091390530FF10C051E0282F21717E
:1011B000213009F050E041E0282F2871283009F053
:1011C00040E0541711F029E0822731FF10C041E0C0
:1011D000282F2171213109F040E031E0282F2871BA
:1011E000283109F030E0431711F029E0822794FDFF
:1011F000877E089582389105B9F1B0F48133910565
:1012000009F47DC048F48932910509F46DC08A3231
:10121000910509F47BC008958533910509F45FC0F9
:101220008933910509F10895833E9105D9F138F488
:10123000803E910529F1823E910579F10895863E1F
:101240009105D9F1873E910509F43EC0843E910590
:1012500041F52091390521FF24C08091380584FD96
:1012600019C087EE90E0089520913805237009F0A9
:101270005AC02091390523FF14C089E290E00895F7
:101280002091380520FD38C03091390530FF09C064
:1012900024FF43C090E080E008952091380522FDAE
:1012A000F7CF08952091380522FD3AC030913905D5
:1012B00030FD39C024FFF5CFEDCF2091380523FF55
:1012C000F0CF24FDE7CFCDCF2091380523FD2EC0F0
:1012D0003091390531FFEECF84EE90E008952091F2
:1012E000380525FFDECFC9CF2091380525FD21C067
:1012F0002091390523FFD5CF89E390E0D2CF20910B
:10130000380526FFCECF8AE290E008952091380577
:1013100026FFC7CF81E390E0089583EE90E0089523
:1013200082EE90E0089580EE90E0089586EE90E0E1
:10133000089585E390E00895972F7630B8F46F30E4
:10134000A8F48230B0F470E02FE0929F600D711D20
:101350001124FB019AE5899FE00DF11D1124EE0F88
:10136000FF1FE455FF4F85919491089580E090E030
:10137000089581E0FCCF1F93CF93DF930E94FA087A
:10138000EC01C11580E5D807F0F5C11580E4D80758
:1013900008F09CC0C03ED10520F5CD3CD10508F039
:1013A00082C0C83AD10578F4C53AD10508F073C0B7
:1013B000C130D10519F1209709F1C430D105F0F4FD
:1013C000D0E0C0E01BC0C33CD105D0F7C85AD0E084
:1013D000CC0FDD1FCD5DDE4F0990D881C02DD464C8
:1013E0000DC0C11580E2D80708F0D1C0C11581E059
:1013F000D80708F05AC0C83ED10510F7CE01DF91DA
:10140000CF911F910895C03682E5D80718F5C034F2
:1014100082E5D80708F06BC0C03282E5D80708F033
:101420005FC0C11582E5D80708F497C02C2F269518
:10143000269580E2289F900111248C2F8370C1E0B3
:10144000D0E002C0CC0FDD1F8A95E2F7C22BD32B70
:10145000DD68D4CFC03A82E5D80760F4C03882E5B1
:10146000D80708F459C0CF71D0E0DC2FCC27C46F67
:10147000D06AC4CFC03C82E5D80708F462C0C03E41
:1014800082E5D80708F09CCFDC2FCC27CC27DF7172
:10149000C06FD06AB3CFC55AD0E0C05EDE4FC881FE
:1014A000D0E0D064ABCFD065A9CF8D2F0E94AB0820
:1014B000182FCE0199270E94FA08C12FD0E0DC2F07
:1014C000CC27CC27DF71C82BD92B98CFCE019927F9
:1014D0000E94FA08CC27DF70C82BD92BD06A8ECF98
:1014E000CF71D0E0DC2FCC27C16FD06A87CF2C2FF3
:1014F00026952695277080E2289F900111248C2F35
:101500008370C1E0D0E002C0CC0FDD1F8A95E2F706
:10151000C22BD32BDC6872CF2C2F269526952770F3
:1015200080E2289F900111248C2F8370C1E0D0E0CD
:1015300002C0CC0FDD1F8A95E2F7C22BD32BDA68ED
:101540005DCF8C2F8F710E94AB08C82FD0E0DC2FAD
:10155000CC27CC27DF71D06251CF8C2F8F710E94A6
:10156000AB0855E0D695C7955A95E1F7CF70D0E016
:10157000DC2FCC27282F30E084FF05C044E0220F69
:10158000331F4A95E1F7C22BD32BD06937CF8D2F6C
:101590008F710E94AB08182FCE0199270E94FA087C
:1015A000C12FD0E0DC2FCC27CC27DF71C82BD92B63
:1015B000D2CF809590912802982390932802089585
:1015C000809128029091FF01892B9091FE0199232F
:1015D00091F0892B90911E01913071F49091380512
:1015E00097FF0AC09EE126EA31E040E0915040F4C6
:1015F00041111092FE01089596E02EE931E0F5CFF9
:10160000F90151919F01552389F34F5FEFCF8091ED
:101610008D0590915405981301C008958F5F8770D0
:10162000FACFB0E0A0E0E7E1FBE00C944D227C01B2
:1016300000913C0210913D0280913A0290913B0250
:10164000082B192BCFE0D0E0CC24C394D12CBC2E96
:10165000C6010C2E02C0880F991F0A94E2F780235E
:101660009123892B49F4219790F7B12C8B2DCDB77D
:10167000DEB7E9E00C946922B7018C2F0E949C0927
:101680000E94BB09019779F3F1CFCF93DF93EC016F
:101690000E94110BBE010E949C090E94BB09DF91B0
:1016A000CF910895963078F58F3068F5E82FF0E007
:1016B0008FE0989FE00DF11D11249E2F977083E01D
:1016C000F695E7958A95E1F7EE0FFF1FEE0FFF1FE6
:1016D000EA53FE4F50E040E080E0219130E0092ED7
:1016E00002C0369527950A94E2F721703327042E1D
:1016F00001C0220F0A94EAF7822B4F5F5F4F4430FC
:10170000510559F7089580E00895963098F58F3087
:1017100088F5E82FF0E08FE0989FE00DF11D11248F
:101720008E2F877041E001C0440F8A95EAF783E06D
:10173000F695E7958A95E1F7EE0FFF1FEE0FFF1F75
:10174000EA53FE4F30E020E070E05191DF01119745
:10175000CB01022E02C0969587950A94E2F781701C
:1017600081958527842385278C932F5F3F4F2430D5
:10177000310559F7089590933D0280933C020895F6
:1017800021E030E002C0220F331F8A95E2F7209556
:10179000309580913C0290913D02822393230E94D8
:1017A000BB0B08959091FD01809589238093FD01E5
:1017B000282F277069F4891759F09091390592FF05
:1017C00007C08695869586950E94C00B1092FD01F4
:1017D000089521E030E002C0220F331F8A95E2F71E
:1017E00080913C0290913D02822B932B0E94BB0B77
:1017F000089590933B0280933A020895FC0124815E
:101800002223C1F0808191810E94450B92959F70A7
:10181000963091F058F4925F9F70923058F4803F68
:1018200019F030F4883E30F481E008959A5FF4CFE7
:10183000843FD1F380E00895883EB0F3813FD1F733
:10184000F3CF662309F45DC08D3C41F40E949705F7
:10185000819580932F050E944E0508958E3C19F4C2
:101860000E949705F6CF8F3C31F40E949705819531
:1018700080932E05F0CF803D19F40E949705F8CF94
:10188000893D29F40E94750580933005E4CF8A3D97
:1018900021F40E9475058195F7CF8B3D31F40E94AC
:1018A0007505819580933105D6CF8C3D19F40E9442
:1018B0007505F8CF9FE2980F983070F4815D990B11
:1018C00021E030E001C0220F8A95EAF780912D05D2
:1018D000822B80932D05BFCF8D3D31F4809127055C
:1018E000816080932705B7CF8E3D21F48091270535
:1018F0008260F7CF8F3D09F0AECF809127058460DD
:10190000F0CF40912E058D3C59F480912F0587FF33
:101910000DC010922F0541110BC01092250508C073
:101920008E3C81F480912F0518169CF3442381F09E
:101930008091300590913105892B09F08CCF109260
:10194000260589CF8F3C49F447FFF0CF10922E0532
:1019500080912F058111ECCFE0CF803D19F4141652
:10196000ACF3E4CF90913005893D29F41916F4F6D3
:1019700010923005DBCF8A3D19F497FFD7CFF8CF0F
:10198000909131058B3D29F497FFD0CF109231050E
:10199000CDCF8C3D19F41916CCF3C8CF9FE2980F28
:1019A000983090F4815D990B21E030E0B90102C0DC
:1019B000660F771F8A95E2F7CB01809590912D05F0
:1019C000892380932D05B2CF8D3D31F48091270579
:1019D0008E7F80932705AACF8E3D21F48091270525
:1019E0008D7FF7CF8F3D09F0A1CF809127058B7FA9
:1019F000F0CF809581FF06C02B9A82FF05C02A9AFE
:101A000081E008952B98F9CF2A98FACFA6E0B0E0AC
:101A1000ECE0FDE00C94532226E0FC01DE0111967F
:101A200001900D922A95E1F7FC01258189819A8127
:101A3000222399F0662389F00E94110B182F682F3A
:101A400089819A810E94850B69817A81812F0E9408
:101A50009C092696E3E00C946F220E94520B182FEB
:101A6000F3CF0F931F93CF93DF938B01EA019091F4
:101A70004A05943061F58093E9008FEF9091E8007A
:101A8000815095FD06C095ED9A95F1F70000811102
:101A9000F5CF8091E80085FF1AC00E944E038111A6
:101AA00011C08091E80085FD06C08091E8008E7726
:101AB0008093E800F2CFF80181918F018093F100CB
:101AC000219779F78091E8008E778093E800DF9185
:101AD000CF911F910F91089543E050E0BC0182E047
:101AE0000E94310D089546E050E0BC0182E00E9462
:101AF000310D089540E250E0BC0182E00E94310DBA
:101B00000895CF93DF93EC0148E050E0BC0181E001
:101B10000E94310D88E0FE01A0E4B5E001900D9235
:101B20008A95E1F7DF91CF91089581E08093E000FD
:101B300080E28093D8001092C9008FE19EE4019763
:101B4000F1F700C0000087E090EBDC018093910585
:101B500090939205A0939305B093940588E19CE03F
:101B60000FB6F894A895809360000FBE9093600024
:101B7000FFCF3EB13B7F2EB124604FB7F89480E297
:101B800094E0FC015191CF0168E02EB9000000C043
:101B900057FF3EB9550F000000C000C000C03EB95D
:101BA00000C06A9591F7F5E085329F0751F74FBF66
:101BB0008FE594E00197F1F700C000000895B0E0D0
:101BC000A0E0E5EEFDE00C944822FC0182806480F8
:101BD00081E08483EEE2F3E09490EDEAF3E0E491B7
:101BE00000911B040695015810E0000F111F012FF2
:101BF0001127C5E6D2E0D12CC12CAA24AA94B12C7D
:101C000077247A94E919EE2EF12C82E0881530F0D1
:101C100080911904888380911A04898361101AC005
:101C20001B821A824A81453B08F044EB9601698188
:101C300088810E94FB068FEFC81AD80A259687E58F
:101C4000C816D10411F70E94D305CDB7DEB7EEE078
:101C50000C9464228B818823E9F081508B83879DCB
:101C6000C00111246C8170E00E940722FB01FF2754
:101C7000E25DFC4F8491E82FE919E79DC001112432
:101C8000B7010E94072280911B04689FB0011124B4
:101C90007A83C8CF0E94FD22B5010E941B228017C3
:101CA00091070CF0BFCF82E0881588F40E94FD22D6
:101CB000B5010E941B2288830E94FD2220911A04F4
:101CC0002695622F70E00E941B22280F29831A821A
:101CD00080911B04893C20F088EC8C838B83A2CFFD
:101CE0008431D8F784E1F9CF609118046695669540
:101CF00070E04BE050E08EE091E00E940D23892BD4
:101D000019F481E0809362020E94890490935C023E
:101D100080935B020895B0E0A0E0E1E9FEE00C945E
:101D20004A2249015A016B017C010E942406840168
:101D3000A4016A2D7B2D88E090E00E945D23940130
:101D40004A2D5B2DB601C70100E20E949622622F48
:101D500083E290E00E944B23CDB7DEB7ECE00C9419
:101D60006622B0E0A0E0E7EBFEE00C944922082FE9
:101D7000F62E142FE22E9091180490FF32C0E92F16
:101D8000E695E695AE2FB0E0A259BE4F8C918093B8
:101D900061029C7F943051F5842F453B08F084EB21
:101DA000602F7F2D0E943A06962F672F482F892F8C
:101DB0000E94EA0500931904F0921A0410931B0480
:101DC000EE2079F02091180460911C0470911D049C
:101DD000302F4F2D512F80911E0490911F040E948F
:101DE0008B0ECDB7DEB7EDE00C946522823019F48E
:101DF00010911B04DFCF863019F400911904DACF5B
:101E00008930D9F38931B1F6E9518E2F8170782E5E
:101E1000E695F0E0E75DFC4FE491CE2FD0E0B12CE9
:101E2000A12CD12CC12C87E5882E912CC501B401A1
:101E30000E940722802F711015C0860F412F153B7D
:101E400008F044EB96016F2D0E94FB068FEFC81A35
:101E5000D80AAC0EBD1E87E5C816D10439F70E941A
:101E6000D305A8CF861BEACFE8E1F4E0438128E060
:101E7000421B08F440E021E0628181810E94B10EA2
:101E80000895E8E1F4E0438128E0420F08F44FEFC1
:101E900021E0628181810E94B10E0895E8E1F4E0C1
:101EA000628128E0621B08F460E021E043818181C7
:101EB0000E94B10E0895E8E1F4E0628128E0620F2B
:101EC00008F46FEF21E0438181810E94B10E0895F3
:101ED000E8E1F4E0818121E04381628188500E9441
:101EE000B10E0895E8E1F4E0818121E0438162814F
:101EF000885F0E94B10E089580911C04882319F018
:101F0000815080931C042091180430911904409151
:101F10001A0450911B0460911C0470911D0480915F
:101F20001E0490911F040E948B0E089580911C0442
:101F3000833018F48F5F80931C0420911804309133
:101F4000190440911A0450911B0460911C04709173
:101F50001D0480911E0490911F040E948B0E089511
:101F60009091180490FF35C09370811133C0946034
:101F700090931804662391F020911804309119046D
:101F800040911A0450911B0460911C0470911D042F
:101F900080911E0490911F040E948B0E6091180482
:101FA0006695669570E04BE050E08EE091E00E940F
:101FB0000D23892BB9F01092620281E080935E02BA
:101FC00020E040911B0460911A04809119040E9442
:101FD000B10E08958B3210F0986ACACF880F880F1F
:101FE000982BC6CF0E94740EE8CF80911804869576
:101FF0008695815009F48AE261E00E94B00F08954D
:1020000080911804869586958F5F8B3208F081E069
:1020100061E00E94B00F08959091390592FB22274C
:1020200020F9281779F080FB92F990933905609197
:1020300038057091390584E090E00E94692382E0C0
:102040000E94D20B089580911E01813059F5809134
:10205000380587FF27C00E94E00A8093A50140E26F
:1020600050E060E072E084EA91E00E941A23892B3C
:10207000C1F080E2E4EAF1E0A0E0B2E001900D926C
:102080008A95E1F7E0913405F0913505309749F0F4
:1020900086E08093A4010480F581E02D84EA91E03C
:1020A000099508950E94E00A80939C0148E050E061
:1020B00060E272E08CE991E00E941A23892B89F397
:1020C00088E0ECE9F1E0A0E2B2E001900D928A959F
:1020D000E1F7E0913405F0913505309711F3028076
:1020E000F381E02D8CE991E0DBCF10922802809102
:1020F0001E01813039F58091380587FF23C0E6EA5B
:10210000F1E08EE1DF011D928A95E9F790E080E031
:102110000E941C0590E080E00E94F7041092FF01ED
:102120000E94231086E0ECE2F5E0DF011D928A9523
:10213000E9F71092250510922605109227050E94B6
:102140004E050895EEE9F1E086E0DCCFAAE2B0E0CA
:10215000ECEAF0E10C9453228CE495E02091F1003C
:10216000FC012193CF01F5E084359F07B9F78091F9
:102170004D05833009F470C0B8F4813009F447C0CC
:10218000823009F4B5C08091E80083FF89C2809154
:102190004C0590914D059A3008F082C2E92FF0E08D
:1021A000EC51FC4D0C942F228A3009F490C08B30F6
:1021B00009F46FC0893039F780914C05813219F7E5
:1021C00080915005909151050297E8F68091E800C2
:1021D000877F8093E8008091E80082FF38C090916B
:1021E000F3008091F200029731F48091F100813088
:1021F00011F0863021F48091F10080931D018091CF
:10220000E8008B778093E8000E947F03BCCF809129
:102210004C05813A09F0B7CF8091E800877F809321
:10222000E8008091500590915105892B61F468E098
:1022300080E495E070E00E942B048091E8008B77A9
:102240008093E800A0CF60E090E080E0F3CF809141
:102250004A058111C0CF97CF80914C05813A09F092
:1022600092CF8091500590915105892B09F08BCF29
:102270008091E800877F8093E8008091E80080FFEC
:10228000FCCF80911E018093F1008091E8008E7751
:10229000B9CF80914C05813209F075CF80915005FE
:1022A00090915105892B09F06ECF8091E800877FCE
:1022B0008093E8000E947F0381E090914E05911188
:1022C00001C080E080931E010E9475105CCF809158
:1022D0004C05813209F057CF8091E800877F8093C9
:1022E000E8000E947F0380914F0580931C014BCF33
:1022F00080914C05813A09F046CF8091E800877FB4
:102300008093E8008091E80080FFFCCF80911C0161
:10231000BACF803899F0823809F0C2C18091500557
:102320008F70873008F0BCC18093E9008091EB008A
:1023300085FB882780F91092E90006C08091480546
:1023400090914905911182609091E800977F909358
:10235000E8008093F1001092F1008091E8008E7700
:102360009BC1882309F489C1823009F099C1809109
:102370004E0581118CC1809150058F702FEF280F71
:10238000263008F08DC18093E9002091EB0020FFFA
:102390007EC1933031F48091EB0080628093EB003A
:1023A00076C19091EB0090619093EB0021E030E0DA
:1023B00001C0220F8A95EAF72093EA001092EA0002
:1023C0008091EB008860EACF81116AC110914E05BF
:1023D0001F778091E3008078812B8093E3008091C8
:1023E000E800877F8093E8000E947F038091E800E7
:1023F00080FFFCCF8091E30080688093E30082E05F
:10240000111183E080934A054BC18058823008F057
:1024100047C180914E0590914F058C3D23E0920776
:10242000A1F583E08A838AE289834FB7F894DE01BD
:10243000139620E03EE051E2E32FF0E05093570086
:10244000E49120FF03C0E295EF703F5FEF708E2FA5
:1024500090E0EA30C0F0C7968D939D932F5F2431B2
:1024600059F74FBF8091E800877F8093E8006AE2C8
:1024700070E0CE0101960E942B048091E8008B77DA
:102480008093E8000DC1C096E7CF40915005509170
:102490005105292F33272330310509F444C078F53D
:1024A0002130310509F46FC08BE390E0E8E2F5E0FC
:1024B0002230310509F0F4C02091E800277F2093F5
:1024C000E80020915205309153058217930708F4D4
:1024D0009C0140E02115310509F064C0411162C042
:1024E0008091E80082FDC9CF80914A05882329F2B6
:1024F000853019F28091E80083FFF2CFBECF213200
:102500003105A9F12232310509F0CAC04115510542
:1025100009F443C04130510509F0C2C086EB90E098
:10252000EEE2F4E0C9CF992781309105C1F0009720
:1025300059F0029709F0B4C0E5E7F5E0E4918E2F79
:1025400090E0E5E7F5E007C0E7EAF5E0E4918E2FDB
:1025500090E0E7EAF5E0009709F4A2C0ADCFE9E822
:10256000F5E0E4918E2F90E0E9E8F5E0F4CF411535
:10257000510571F04130510509F092C089E090E0B9
:10258000E3E5F5E099CF82E190E0E3E6F5E094CF72
:1025900089E090E0EAE3F5E08FCF84E490E0E4EEB8
:1025A000F4E08ACF80914A05882309F466CF85300C
:1025B00009F463CF8091E80083FD5FCF8091E8004C
:1025C00082FD8ECF8091E80080FF84CF9091F30050
:1025D0008091F2002115310519F08830910550F0F5
:1025E00041E0089709F040E08091E8008E77809301
:1025F000E80070CF44914093F100319621503109A9
:102600000196E8CF803809F04BC08091E800877FC1
:102610008093E80080914B058093F1009ECE81115C
:102620003FC010914E051230D8F58091E800877FA9
:102630008093E80010934B050E947F03112311F053
:1026400084E005C08091E30087FDFACF81E08093AC
:102650004A0542E061EC81E00E949E0342E261ECA7
:1026600082E00E949E0380914A05843021F081E03F
:1026700080931F0115C082E0FBCF80914E05813011
:1026800079F481E0933009F080E08093490510925D
:10269000E9008091E800877F8093E8000E947F0333
:1026A0008091E80083FF0AC08091E800877F8093D3
:1026B000E8008091EB0080628093EB00AA96E3E053
:1026C0000C946F220E9475102FEF84E39CE0215040
:1026D00080409040E1F700C0000088E19CE00FB628
:1026E000F894A895809360000FBE90936000FFCF90
:1026F000882321F00E94D90A0E942310089588237C
:1027000039F090912802982B909328020E94231070
:102710000895882381F19CEF980F913A28F40E9444
:1027200098040E942310089590E2980F983050F476
:10273000877091E001C0990F8A95EAF7892F0E946E
:10274000D90AEFCF9BE5980F933028F490E080E012
:102750000E941C05089598E5980F9B3128F490E09D
:1027600080E00E94F704089593E3980F933118F4E2
:1027700060E00E94210C0895CF93C82F8823B9F1FF
:102780008CEF8C0F813AA8F580911E01813001F504
:102790008091380587FF1CC0EC2FE695E695E695FD
:1027A000F0E0EC55FE4F828190E04C2F477021E025
:1027B00030E002C0220F331F4A95E2F782239323B1
:1027C000892B81F08C2F0E9498040E9423100AC04C
:1027D000EEE9F1E084EA91E02191C21799F38E17B6
:1027E0009F07D1F78C2F0E94C3040E942310CF9122
:1027F000089580E28C0F883068F4C77021E030E0E3
:1028000001C0220FCA95EAF780912802822B80939B
:102810002802EBCFEBE5EC0FE33040F4F0E0E05EB4
:10282000FE4F808190E00E941C05E1CFE8E5EC0FAF
:10283000EB3150F4F0E0EE0FFF1FED5DFE4F8081B5
:1028400091810E94F704D3CF83E38C0F833178F614
:1028500061E08C2F0E94210CCACFEF92FF920F9360
:102860001F93CF93DF93C62FD42F022FFC018581B6
:102870008823A9F0609390050E94890490938F05A6
:1028800080938E05C77081E001C0880FCA95EAF772
:102890000E947F13CDB7DEB7E6E00C946C228091E6
:1028A0009005681337C0E0908E05F0908F050E9468
:1028B00089048E199F09883C910560F510E21D0F6F
:1028C000CD17B9F080E28C0F883040F4C77081E0FA
:1028D00001C0880FCA95EAF70E947813183048F4AF
:1028E00081E09D2F977001C0880F9A95EAF70E94AA
:1028F0007F13802F0E94BC13802F0E9489131830F1
:1029000048F6D77081E001C0880FDA95EAF70E9497
:102910007813C0CFC77081E001C0880FCA95EAF76D
:10292000F6CFB0E0A0E0E7E9F4E10C944C228C0192
:10293000FC018481882321F161E0C8010E94060D19
:10294000EC01FC01E851FC47E730F105A8F5E25144
:10295000FC4D0C942F2226E241EE61EEC8010E944C
:102960002D148091FD01877059F0F801858188232D
:1029700039F08091390582FF03C082E00E94D20BBA
:10298000CDB7DEB7EAE00C94682227E245EE65EEAB
:10299000E5CF26E241EE60EEE1CF27E245EE64EEC0
:1029A000DDCF26E241EE62EED9CF27E245EE66EEBC
:1029B000D5CF28E241E0EBCFF8019581992309F4C6
:1029C00004C4109290059E0130572332310508F05F
:1029D000E8C384E090E00E9435239093390580930A
:1029E0003805FE01E150F047E232F10520F4EB50EA
:1029F000FC4D0C942F22809138058160809338051E
:102A000095C0809139058860809339058FC0809189
:102A100038058260F3CF809138058460EFCF8091D4
:102A200038058860EBCF809139058160EDCF8091CA
:102A300039058260E9CF809138058061DFCF8091D0
:102A400038058062DBCF809138058064D7CF0E9443
:102A50007510809138058068D1CF809138058C60E1
:102A6000CDCF809139058360CFCF809138058E7F9F
:102A7000C5CF80913905877FC7CF809138058D7F7D
:102A8000BDCF809138058B7FB9CF80913805877F86
:102A9000B5CF809139058E7FB7CF809139058D7F75
:102AA000B3CF809138058F7EA9CF809138058F7D77
:102AB000A5CF809138058F7BA1CF0E9475108091A2
:102AC00038058F779BCF80913805837F97CF809192
:102AD00039058C7F99CF8091380582FB992790F931
:102AE00021E0922790FB82F990FB83F987CF8091B8
:102AF0003905982F909591708E7F892B90FB81F9E5
:102B000083CF90913805892F8F7B96FF806476CF95
:102B10000E94751090913805892F97FB87F980588E
:102B20006DCF61E08EE090E00E944B23609138050C
:102B30007091390584E090E00E9469230E9475102D
:102B400010CF60E0EFCF90913805892F8F7E94FFF2
:102B5000806154CF90913805892F8E7F90FF8160DE
:102B60004DCF90913905892F877F93FF88604CCF97
:102B700085E326C385E333C38091180480FF19C021
:102B8000282F2E7F209318043091190440911A04A5
:102B900050911B0460911C0470911D0480911E04CF
:102BA00090911F040E948B0E109262020E94D30526
:102BB000D8CE81608093180461E0869586950E9446
:102BC000B00FCFCE882329F00E94F50FCACE8823FC
:102BD000D9F30E940010C5CE882329F00E94680F07
:102BE000C0CE8823D9F30E94720FBBCE882329F070
:102BF0000E944E0FB6CE8823D9F30E945B0FB1CE50
:102C0000882329F00E94340FACCE8823D9F30E9488
:102C1000410FA7CE882329F00E947C0FA2CE8823E3
:102C2000D9F30E94960F9DCE9E01205E3245203240
:102C30003105A8F4911115C0CF7181E090E09C019D
:102C400002C0220F331FCA95E2F7E901622F83E029
:102C500090E00E944B23CE010E94F90B82CE992373
:102C600081F0C3303CE7D30709F478C008F05BC0BB
:102C7000C1159CE7D90709F464C0C130DC4709F4E9
:102C800073C0F8018581C081D181882309F47AC09D
:102C9000CE010E94110BF82E682FCE010E94850BE9
:102CA000BE018F2D0E949C090E94BB09D82FC92FFD
:102CB000A82EF801C580B680B2943FE0B32280917F
:102CC000FD01877009F1FC2CCC20F9F0892F807F61
:102CD000803469F080E28D0F8830B0F0892F807EDB
:102CE000803229F4F1E0FD1778F4BB2069F080917F
:102CF000390582FF09C082E00E94D20B8091FD015C
:102D00008770FF24F3948111F12CEC2EE2942FE0D4
:102D1000E2222BE02E1508F499C0EE2DF0E0E95EDA
:102D2000FB4D0C942F22CB35FCE7DF0749F1CC3566
:102D30002CE7D207D9F0CA35DC4709F0A2CF81E0F1
:102D40001CC00E9475108FEF94E3ECE0815090401E
:102D5000E040E1F700C000000E94950D6FEF7FEFAB
:102D600090E080E00E9469230E94621380913905FF
:102D700082FB882780F991E089270E940C1081CF7F
:102D800080E0FBCFCE010E94520BF82E89CF3C2F62
:102D90003F70D32EC07F19F0D29490EFD922CC206F
:102DA000B9F0DD2069F080E28D0F883010F0A110BD
:102DB00009C080912802D82AD09228020E942310AC
:102DC0008D2F42C08091FF01D82AD092FF01F6CF0B
:102DD0008D2F0E948913DD20C9F1D05ED83010F00C
:102DE000A11004C08D2D0E94D90A06C0D0948091F4
:102DF000FF01D822D092FF010E94231027C08C2F00
:102E00008F70D82EC07FC03219F0D29480EFD822B4
:102E1000AA2051F091E0A91609F45CC0CC2009F475
:102E200068C0BB2061F1CCCF8091390582FD23C001
:102E3000CC20D9F0DD2039F080912802D82AD09218
:102E400028020E94231080E00E94BC13EE2DE8505F
:102E5000FF0B349708F08CC10E9441050E94F90CC9
:102E600060E0C8010E94060D8BCD80E00E948913AE
:102E7000DD2061F3B7CFCC2099F0B11004C08D2DC7
:102E80000E947F13E3CFE1E0BE12E0CF8091FE010C
:102E90009D2D9823D916D1F2D82AD092FE01D6CFF3
:102EA000B110D4CF8D2D0E9478139091FE018D2DFD
:102EB000892329F08D2D809589238093FE018091AF
:102EC000C5019D2D982309F4C1CFD094D822D0926A
:102ED000C501BCCFCC2029F0F5E0FB1508F4B6CF36
:102EE000CECF24E02B1508F4B1CF8D2D0E9478139E
:102EF000ADCFBB20D1F339E3A31209C08FEF97EE1A
:102F0000E3E081509040E040E1F700C000008D2FE9
:102F10000E9489139BCF8C2F86958695837069F0CC
:102F2000813009F093CF8D2F9C2F9370C11002C078
:102F300080E090E00E94F70489CF8D2F9C2F937042
:102F4000C11002C080E090E00E941C057FCF6C2D74
:102F50008D2F0E94210C7ACF8C2F837009F03FC0F7
:102F6000C11074CF4D2F429546954770440F440FC2
:102F70002D2F2F7030E0042E02C0220F331F0A9431
:102F8000E2F790E080E0D4FF09C08FE090E002C05B
:102F9000880F991F4A95E2F780959095C695C6953A
:102FA000C370C23099F078F440913A0250913B02DC
:102FB000C13039F0822B932B842395230E94F90B87
:102FC00045CF242B352B822B932BF8CF822B932BA1
:102FD00020913A0230913B0282279327EFCF8695CA
:102FE000CC2011F08C2F8170882309F42FCF4D2F26
:102FF000429546954770440F440F2D2F2F7030E0B7
:10300000042E02C0220F331F0A94E2F790E080E002
:10301000D4FF09C08FE090E002C0880F991F4A9545
:10302000E2F780959095C695C695C370C23099F029
:1030300078F440913C0250913D02C13039F0822B2E
:10304000932B842395230E94BB0B00CF242B352B7D
:10305000822B932BF8CF822B932B20913C02309123
:103060003D0282279327EFCFCF70CC2029F08C2F01
:103070000E94E90B8D2F04CF8D2F0E9478138C2F87
:103080000E94C00BE3CE8D2FF2EFAF1699F1FA1527
:1030900070F020EFA216D1F031EFA31691F0CC2002
:1030A00009F456C0B1108CCE8C2F8F7127C093EFCE
:1030B000A91639F1E4EFAE12F2CF9091390592FDE5
:1030C0002EC08C2F8F71CC20D9F218C0CC2069F083
:1030D000F4E0FB1508F4BACECF7181E090E002C0B5
:1030E000880F991FCA95E2F7B8CF25E02B1508F491
:1030F000ADCEF2CF8C2F8F71C110C2CF0E94E90BE1
:10310000A5CE90E080E0CC2009F49DCFCF7181E086
:1031100090E002C0880F991FCA95E2F794CFCC20A7
:1031200061F08C2F8F7192FFE9CF98E0899F900119
:10313000112423602093FD01E1CF81E00E94D20B96
:10314000E1E0EB1508F082CE82E00E94D20B7ECE49
:10315000BB2059F0893309F0DACEFFEF27EE33E0D8
:10316000F15020403040E1F7D0CE8C2F8F7188CFC6
:10317000FF2009F475CE8091FD0180FD71CEF8012C
:1031800015828695869586950E94E90BC8010E9456
:1031900091148091FD018695869586950E94C00BBD
:1031A0005FCE80912802C631FCE7DF07D9F48A7A26
:1031B00091E009F490E09093C4018111D9CC89E2A7
:1031C0000E94C3040E942310CCCBC6312CE7D20747
:1031D00009F02ACD8091C4018111CCCC89E20E94F2
:1031E0009804F0CF8272FE01E052F847EB30F1050F
:1031F00008F01ACDED5DFB4D0C942F22CF93DF9399
:103200008091FC01807F09F04DC08091FB018823F3
:1032100009F448C0E0918D0550915405C091F70123
:10322000D091F6016091F8017091F90147E05E17C5
:10323000C9F18E2F90E0E49FF0011124EB5AFA4F70
:103240002481222391F1489FF001499FF00D112420
:10325000DF01AB5ABA4F11962C9111972C1325C050
:103260002C912D1322C015962C91159721111DC05C
:1032700012962D913C91261B370B283C3105A8F462
:103280008091FC018F7080618093FC01E55AFA4FB8
:1032900080818F708061808386EF91E00E9491141D
:1032A0000E94070BDF91CF910895FC013196E770E2
:1032B000BECFA4E1B0E0EFE5F9E10C944A228C0125
:1032C00086E0F801DE011F9601900D928A95E1F7E4
:1032D000F8018481E58096EFA92E91E0B92E9091B6
:1032E000FA01911128C0882319F1EE20F1F0C801EC
:1032F0000E94FE0BF82E8823C1F087E0F801D5016B
:1033000001900D928A95E1F78091FA01813031F4B4
:103310008091F6019091F7010E94450B0E94FE18E2
:103320008F2D6496ECE00C946622C8010E949114E3
:10333000FF24F394F5CFD080C18082809380F090F9
:10334000FB012091F8013091F901A401421B530BBC
:10335000FF2009F4D9C0483C510508F092C08823E9
:10336000F9F29091F7018091FC01282F207F09F05C
:1033700056C0C91214C09091F601D91210C0E110C4
:1033800048C08F7080618093FC0186EF91E00E94BD
:1033900091148091FC01F8018683F12CC1CFE110DA
:1033A00038C06C2D8D2D0E9410036C2D8D2D0E9428
:1033B0001003E82E8111F1CFDF86C88A8F859889A6
:1033C0000E94450B292F22952F70243058F49F70AE
:1033D000223088F0992399F0F8019681907F79F452
:1033E000FE2C9ECF2A5F2F70223068F0C8010E9409
:1033F0009114EF2CF5CF992311F0882389F3805E87
:10340000883070F3F3CF803F58F3815F833070F7DB
:10341000E7CF8091FC0181608093FC01BECFC9128F
:1034200007C09091F601D91203C0EE2009F48DC0B7
:10343000C8010E94FE0B882309F477CFEE2009F41F
:1034400074CF8091FC01803288F02091F601309198
:10345000F701398728879B868A869091FA019C8795
:103460001D868E87CE0108960E94911487E0F80190
:10347000A6EFB1E001900D928A95E1F70E94FE1847
:1034800057CF9091FC01292F207F51F486EF91E0D6
:103490000E94911487E0F50111928A95E9F77DCF9A
:1034A000882309F43DCF8091F7018C1110C08091E1
:1034B000F601D8120CC0E1100AC09683C8010E9420
:1034C000911487E0F50111928A95E9F729CFC80197
:1034D0000E94FE0B882309F428CFEE2009F425CFA3
:1034E0008091FC01803210F22091F6013091F701B9
:1034F0003A8329839C828B829091FA019D831E825C
:103500008F83CE010196B0CF483C5105D0F6882379
:1035100009F40ECFFE2CEE2009F407CF8091F701BD
:103520008C1120C08091F601D8121CC08091FC0142
:1035300080FD0FC0982F907F61F08683903F31F01F
:10354000982F907F905F8F70892B8683C8010E948F
:10355000911487E0F801A6EFB1E001900D928A95F1
:10356000E1F7DECEC8010E94FE0B81117FCF809172
:10357000FC0181608093FC01C8010E949114D0CEAF
:10358000ABE1B0E0E6ECFAE10C9453224E8B5F8B9A
:10359000688F798F8A8F9B8F91111092FF011D8AFE
:1035A00086E0FE017696DE011F9601900D928A95C7
:1035B000E1F78B89882351F061E0CE010F960E94DC
:1035C000060D61E0CE010F960E94060D87E0FE0118
:1035D0003F96DE01189601900D928A95E1F7CE0193
:1035E00008960E94591981112AC087E0FE01389679
:1035F000DE01119601900D928A95E1F78C85882362
:10360000F1F02091540530E0C901019687709927A7
:1036100040918D0548171906E9F097E0929FD00177
:10362000939FB00D1124AB5ABA4FFE013196019011
:103630000D929A95E1F7809354050E94070B17E0CD
:1036400080918D0590915405891312C06B96E3E02B
:103650000C946F220E9475101092540510928D05E3
:1036600087E0E6EFF1E0DF011D928A95E9F7E7CF09
:10367000819FC00111248B5A9A4F0E9459198823A7
:1036800029F380918D0590E00196877099278093AA
:103690008D05D6CFA6E0B0E0E0E5FBE10C94522228
:1036A0000E9489048C018091290290912A0280173E
:1036B000910781F019821A820E948904682F49813A
:1036C0005A81792F80E090E00E94C01A10932A025C
:1036D000009329022696E4E00C946E22ACE0B0E060
:1036E000E4E7FBE10C9448228E010F5F1F4F8CE052
:1036F000F80111928A95E9F799E5E92E91E0F92E02
:10370000680166246394712C3EE6832E31E0932E8B
:10371000F70181917F018F3F09F445C0F894E82FAC
:10372000E295EF70F0E021A18F70A30102C0440F79
:10373000551F8A95E2F7CA01922F982B91A392A167
:103740008095892382A3789400C0EFE5F1E021E021
:1037500030E0B12CA12C41914F3F09F44DC0A42F72
:10376000A295AF70B0E090968C9190E04F7002C03F
:10377000959587954A95E2F780FD3EC0C901A82A34
:10378000B92A220F331F8E169F0629F7F7013197AA
:1037900080818F3F11F00E94940850EA5A95F1F70A
:1037A000F601B182A082F2E0CF0ED11C4FE5E41603
:1037B00041E0F40609F0ACCF4CE050E0B8018EE2F5
:1037C00092E00E941A23892BE1F08CE0F801AEE22E
:1037D000B2E001900D928A95E1F781E080932D028D
:1037E0000E94890490932C0280932B0210E0812F79
:1037F0002C96EEE00C94642290E080E0C0CF10E0C4
:1038000021C010912D02112389F3E0902B02F0903A
:103810002C020E9489048E199F09059738F34CE009
:1038200050E06EE272E081E492E00E941A23892B5C
:1038300031F38CE0EEE2F2E0A1E4B2E001900D920F
:103840008A95E1F710922D02D2CF1F920F920FB6F8
:103850000F9211242F933F934F935F936F937F9316
:103860008F939F93AF93BF93CF93DF93EF93FF9388
:10387000D091E900DF708091EC00C82FC17080FD0D
:10388000C0E81092E9008091F000877F8093F000FB
:1038900078940E94A6101092E9008091F000886050
:1038A0008093F000CD2BCF70C093E900FF91EF9192
:1038B000DF91CF91BF91AF919F918F917F916F9148
:1038C0005F914F913F912F910F900FBE0F901F90DE
:1038D00018951F920F920FB60F9211242F933F93BA
:1038E0004F935F936F937F938F939F93AF93BF9308
:1038F000EF93FF938091E10082FF09C08091E20085
:1039000082FF05C08091E1008B7F8093E100809170
:10391000DA0080FF24C08091D80080FF20C0809111
:10392000DA008E7F8093DA008091D90080FFAAC0F0
:1039300080E189BD82E189BD09B400FEFDCF81E04F
:1039400080934A0580913F05811109C00E942F0391
:103950000E94D0038091E20084608093E200809115
:10396000E10080FF1AC08091E20080FF16C08091C4
:10397000E2008E7F8093E2008091E200806180937C
:10398000E2008091D80080628093D80019BC85E065
:1039900080934A0583E080931F018091E10084FFBA
:1039A00030C08091E20084FF2CC080E189BD82E1BB
:1039B00089BD99B5892F817090FFFBCF9091D80078
:1039C0009F7D9093D8009091E1009F7E9093E100BD
:1039D0009091E2009F7E9093E2009091E2009160CE
:1039E0009093E20090914B05992309F451C094E023
:1039F00090934A0590914A05943009F482E08093AF
:103A00001F018091E10083FF2CC08091E20083FFC1
:103A100028C08091E100877F8093E10082E080935D
:103A20004A0510924B058091E1008E7F8093E10062
:103A30008091E2008E7F8093E2008091E2008061BD
:103A40008093E20042E060E080E00E949E0380916B
:103A5000F00088608093F00081E080931F018093E4
:103A60001E01FF91EF91BF91AF919F918F917F9137
:103A70006F915F914F913F912F910F900FBE0F90DB
:103A80001F90189519BC10924A0510923F0567CFF8
:103A90009091E30097FD02C0982FAACF93E0A8CFA2
:103AA00078941F921FB61F9211248F939F93AF9308
:103AB000BF9380913B0590913C05A0913D05B0914D
:103AC0003E050196A11DB11D80933B0590933C05D9
:103AD000A0933D05B0933E05BF91AF919F918F910B
:103AE0001F901FBE1F9018951F921FB61F92112482
:103AF0008F939F93AF93BF9380913A05811113C029
:103B000080913B0590913C05A0913D05B0913E050B
:103B10004196A11DB11D80933B0590933C05A09358
:103B20003D05B0933E05BF91AF919F918F911F903E
:103B30001FBE1F901895CDB7DEB72E970FB6F8941D
:103B4000DEBF0FBECDBF85B7806885BF85B78068F3
:103B500085BF84B7877F84BF0FB6F894A8958091FE
:103B60006000886180936000109260000FBE80E862
:103B700090E00FB6F89480936100909361000FBEBF
:103B800081E080931F0182E998E090939B018093EC
:103B90009A010E942F030E94D0038091E20084606A
:103BA0008093E200789480914A058823A1F01091D7
:103BB000E9001F709091EC00892F817090FD80E8E2
:103BC000182B1092E9008091E80083FD0E94A61056
:103BD0001F701093E90082E084BD93E095BD9AEFD9
:103BE00097BD80936E0009E511E0D8018D918D019C
:103BF0008F3F11F00E949408B1E00F351B07A9F721
:103C00000FE511E09EE6E92E91E0F92EF801819191
:103C10008F018F3F11F00E949408E016F106B1F772
:103C20008CE0E1E4F2E0DF01282F1D922A95E9F70C
:103C3000EEE2F2E0DF011D928A95E9F790E080E084
:103C40000E943523853E9E4F09F461C065EE7EEFEC
:103C500090E080E00E94692360E082E090E00E94B2
:103C60004B2381E090E090933B0280933A0261E025
:103C700083E090E00E944B2360E074E184E090E0F8
:103C80000E94692360E086E090E00E944B2360E0A0
:103C900087E090E00E944B2340E050E0BA0188E0CA
:103CA00090E00E945D2360E083E290E00E944B235D
:103CB00060E08CE090E00E944B2360E08DE090E0BB
:103CC0000E944B2319821A821B821C821D821E8233
:103CD0001F82188648E050E067E170E0CE0101964F
:103CE0000E943B2340E050E0BA018FE190E00E9447
:103CF0005D2340E050E0BA018FE090E00E945D2338
:103D000040E050E0BA0183E190E00E945D2382E050
:103D100090E00E94272380934D0284E090E00E946F
:103D2000352390933905809338050E946E1BEFEF81
:103D3000F6E721E0E150F0402040E1F700C000004C
:103D40000E946E1B8091410280FF08C06FEF7FEFE1
:103D500090E080E00E9469230E94950D83E090E04E
:103D60000E94272390E00E94F90B239A2B9A229A13
:103D70002A9A80913E02811181C088E090E00E94E1
:103D80002F234B015C0183E290E00E942723282F20
:103D900030E040E050E060E070E080E090E000E281
:103DA0000E947B22282939294A295B29209318045B
:103DB0003093190440931A0450931B0460931C041D
:103DC00070931D0480931E0490931F042C7F09F0B0
:103DD00043C025E020931804109219042FEF20937C
:103DE0001A0424EB20931B0410921C0425E030E0FD
:103DF0004FEF54EB60E00E948B0E88E090E00E9451
:103E00002F236B017C0183E290E00E942723282F5F
:103E100030E040E050E060E070E080E090E00E9440
:103E20007B22B22FA32FF42FE52F5B019701860190
:103E3000BC29A12BFE29E32BB0931804A0931904ED
:103E4000F0931A04E0931B0460931C04B0921D04C9
:103E500080931E0490931F040E9424061092620215
:103E60000E94D0058091180480FF05C060E086950F
:103E700086950E94B00F81E080933E0284E091E03D
:103E8000909335058093340588E1682E712C552474
:103E900053942224239480914A058530E9F480913B
:103EA0004A05853009F477C00E9475100E944105CB
:103EB0000E94F90C1092400280913F02882351F039
:103EC0008091180481608093180460E0869586953F
:103ED0000E94B00F0E94740E0E946E1B1EE4A12E61
:103EE00012E0B12E01E4802E02E0902ED401F50103
:103EF000219131918D919D9142E0EA35F40709F4C9
:103F000095C028173907A1F3412CD4010D911D91BB
:103F10004D01F501C190D1905F01C016D10659F154
:103F2000312CEE24E394F12CC026D126C6018E213B
:103F30009F21892BB1F039864A860E9489049C878B
:103F40008B872D8691E098012E213F21232B09F4A8
:103F500090E09E8749855A856B857C858D850E947A
:103F6000C01A3394EE0CFF1CFFE03F12DFCFF501C7
:103F7000329711830083439426E04212C6CF8FB755
:103F8000F89440913B0550913C0560913D0570913E
:103F90003E058FBF51C080914A05843009F438C076
:103FA00080E00E94F90C109262028091400281111F
:103FB0000DC05092400280911804982F91709093F8
:103FC0003F028E7F809318040E94D30510923A0519
:103FD00040E40FB6F894A895609260000FBE40933D
:103FE000600083B7817F846083BF83B7816083BFB4
:103FF0007894889583B78E7F83BF0FB6F894A89581
:1040000080916000886180936000109260000FBE14
:104010000E946E1BE1E4F2E081919191892B09F0FD
:10402000B0C182E0ED34F807B9F739CF2817390766
:1040300009F06ACF0E944A1B809162028823D9F15D
:1040400080916102E0911804E695E695E81BE09303
:104050005D02823009F01DC1F0E0EB5DFD4FE4919F
:104060000E2F10E0F7EEEF2EF6E0FF2E80915E02AD
:10407000882361F010925E020E94890490935C0292
:1040800080935B021092600210925F020E9489048A
:10409000E0915B02F0915C028E1B9F0B8F3F9F476C
:1040A00050F4E00FF11FF0935C02E0935B028BE5AC
:1040B00092E0F701099586E0ECE2F5E0DE01119669
:1040C00001900D928A95E1F7B0902D05E0902E05B4
:1040D000D0902F05C0903005F090310510922E053C
:1040E00010922F0510923005109231058E2D8D29DA
:1040F00009F447C000912A0510912B050E948904FC
:104100009C01201B310B90912505992309F460C176
:1041100025313105B0F19F3F19F09F5F9093250540
:10412000EE2059F00E9497059FEF1E140CF491E0C9
:10413000899F802D112480932E05DD2059F00E9447
:10414000970591E01D140CF09FEF899F802D11249D
:1041500080932F0580912E05882399F010912F05CB
:10416000112379F00E94B705882309F4FEC08093DB
:104170002E05812F0E94B705882309F4F9C080938A
:104180002F058C2D8F2909F447C000912805109127
:1041900029050E9489049C01201B310B9091260562
:1041A000992309F410C121353105B0F19F3F19F071
:1041B0009F5F90932605CC2059F00E9475059FEFD4
:1041C0001C140CF491E0899F802D112480933005FC
:1041D000FF2059F00E94750591E01F140CF09FEF2D
:1041E000899F802D1124809331058091300588238B
:1041F00099F010913105112379F00E94B7058823B9
:1042000009F4B9C080933005812F0E94B705882337
:1042100009F4B4C08093310580912D058B1117C02E
:1042200080912E05882311F0E81211C020912F05EE
:10423000222311F02D110BC090913105992311F01B
:10424000F91205C030913005332309F4B7C00E943C
:104250004E0586E0FE013196ACE2B5E001900D928C
:104260008A95E1F70E94410590915A02891709F455
:1042700012CE80935A029FB7F89440913B0550911B
:104280003C0560913D0570913E059FBF0E94F90C71
:1042900002CE863059F4F0E0EE5DFD4FE4910E2F32
:1042A00010E0E7EDEE2EE6E0FE2EE0CE893061F480
:1042B000E695F0E0E15EFD4FE4910E2F10E079E627
:1042C000E72E78E0F72ED2CE8F3061F4E695F0E05D
:1042D000E45EFD4FE4910E2F10E065E0E62E68E00D
:1042E000F62EC4CE853159F4F0E0E75EFD4FE4913F
:1042F0000E2F10E056EBE52E57E0F52EB7CE08E274
:1043000010E02BE3E22E27E0F22E883109F4AECE46
:10431000833249F4E7E1F2E00591149149E0E42E9B
:1043200046E0F42EA3CE04EF11E09AE0E92E97E0E8
:10433000F92E843209F49ACE853281F48E2F63E00F
:104340000E94ED21E92FF0E0EC5EFD4FE4910E2F8D
:1043500010E03FEDE32E3DE0F32E88CE00ED17E0B8
:1043600082EDE82E85E0F82E81CE50922E0501CF09
:1043700050922F0506CF5092300546CF509231050E
:104380004BCF80914905882309F489CD90E199BDEF
:10439000A2E1A9BD09B400FEFDCF8091D8008F7DB8
:1043A0008093D8008091E00082608093E00080914B
:1043B000E00081FDFCCF0E94751071CD822B892B0E
:1043C00009F447CF44CF2B30310508F0F1CE24CF8C
:1043D0002B30310508F0A1CED4CE991B79E004C072
:1043E000991F961708F0961B881F7A95C9F7809534
:1043F000089587FB082E062687FD819567FD619548
:104400000E94ED210EF4919507FC81950895AA1B59
:10441000BB1B51E107C0AA1FBB1FA617B70710F0AF
:10442000A61BB70B881F991F5A95A9F780959095E1
:10443000BC01CD01089597FB072E16F4009407D018
:1044400077FD09D00E94072207FC05D03EF4909525
:1044500081959F4F0895709561957F4F0895EE0F58
:10446000FF1F0590F491E02D09940E94D32333237C
:1044700012F48A1B9B0B0C943F220E94D323B7FF9C
:104480000895821B930B08952F923F924F925F9253
:104490006F927F928F929F92AF92BF92CF92DF9254
:1044A000EF92FF920F931F93CF93DF93CDB7DEB7B9
:1044B000CA1BDB0B0FB6F894DEBF0FBECDBF09944D
:1044C0002A88398848885F846E847D848C849B84A4
:1044D000AA84B984C884DF80EE80FD800C811B81B2
:1044E000AA81B981CE0FD11D0FB6F894DEBF0FBEE1
:1044F000CDBFED010895002E083090F0982F872F42
:10450000762F652F542F432F322F22270850F4CFB8
:10451000220F331F441F551F661F771F881F991FC7
:104520000A95B2F7002D089597FD1094002E0830DB
:1045300098F00850232F342F452F562F672F782FB0
:10454000892F912DF4CF1594979587957795679539
:1045500057954795379527950A95AAF71124002D69
:1045600008958F929F92AF92BF92CF92DF92EF9277
:10457000FF92CF93DF93EC01688179818A819B81DF
:10458000611571058105910521F464E279ED8BE5F2
:1045900097E02DE133EF41E050E00E947F23490195
:1045A0005A019B01AC01A7EAB1E40E949E236B0172
:1045B0007C01ACEEB4EFA50194010E94AC23DC01B8
:1045C000CB018C0D9D1DAE1DBF1DB7FF03C0019714
:1045D000A109B04888839983AA83BB839F77DF9121
:1045E000CF91FF90EF90DF90CF90BF90AF909F90D2
:1045F0008F9008950E94B122089580E091E00E947A
:10460000B1220895B0E0A0E08093000190930101F1
:10461000A0930201B09303010895FC014150504062
:1046200030F001900616D1F73197CF010895882711
:1046300099270895FB01DC0104C08D910190801938
:1046400021F441505040C8F7881B990B0895F999FF
:10465000FECF92BD81BDF89A992780B50895A6E155
:10466000B0E044E050E00C947123A8E1B0E042E0F7
:1046700050E00C947123DC01A40FB51F4150504051
:1046800048F0CB01840F951F2E910E944C2341507E
:104690005040D0F70895262FF999FECF92BD81BDE5
:1046A000F89A019700B4021639F01FBA20BD0FB670
:1046B000F894FA9AF99A0FBE08950396272F0E944C
:1046C0004C230E944B23252F0E944C23242F0C9413
:1046D0004C230196272F0E944C230C944B23DC0182
:1046E000CB01FC01F999FECF06C0F2BDE1BDF89AFD
:1046F000319600B40D9241505040B8F70895052E00
:1047000097FB1EF400940E94962357FD07D00E9449
:10471000B12307FC03D04EF40C949623509540959A
:10472000309521953F4F4F4F5F4F0895909580955D
:10473000709561957F4F8F4F9F4F08950E94D323AF
:10474000A59F900DB49F900DA49F800D911D1124E5
:104750000895B7FF0C949E230E949E23821B930B07
:104760000895A1E21A2EAA1BBB1BFD010DC0AA1FB2
:10477000BB1FEE1FFF1FA217B307E407F50720F0CA
:10478000A21BB30BE40BF50B661F771F881F991F45
:104790001A9469F760957095809590959B01AC018E
:1047A000BD01CF010895A29FB001B39FC001A39F97
:1047B000700D811D1124911DB29F700D811D11245A
:1047C000911D0895F894FFCF8911B1115013B111C3
:1047D0005013E4110512501302130F13C914CD1412
:1047E000AB14C514D114D514D9143515AA153D151B
:1047F00007150B1541150F15451551151B15A3155B
:104800001F15551523155915811527155D15881583
:104810002D1563156B151315491517154D15311504
:10482000671577159115A11501153915B115C7161D
:10483000C716FF16FF168B17A71726172617AC17D4
:10484000341843184318BC15E215E715EC15F1159B
:0C485000F615FB15001605160A160F16CB
:10485C00010000009504810D7A0D730D6C0D01198A
:10486C001A1B1C1D1E1F2021220102010000010029
:10487C00818283E200E900EA00B500B600B700CD02
:10488C00008301CC008A01920194012102230224AD
:10489C00022502260227022A02B300B4006F007020
:1048AC00009F01CB019F02A002C63794F09697910E
:1048BC0090F7F6F5959392676635F4F13430000174
:1048CC00020202020606060909090909090F0F0F5F
:1048DC000F0F0F1515151819191919191919191967
:0A48EC001923242525252525250084
:00000001FF
