:100000000C94BA010C94D51E0C94D7010C94D70112
:100010000C94D7010C94D7010C94D7010C94D70100
:100020000C94D7010C94D7010C9403240C94D7247E
:100030000C947F1D0C94D7010C94D7010C94D7011C
:100040000C94D7010C94D7010C94D7010C94D701D0
:100050000C94D7010C94F71D0C94D7010C94D70184
:100060000C94D7010C94D7010C94D7010C94D701B0
:100070000C94D7010C94D7010C94D7010C94D701A0
:100080000C94D7010C94D7010C94D7010C94D70190
:100090000C94D7010C94D7010C94D7010C94D70180
:1000A0000C94D7010C94D7010C94D70129001E00A1
:1000B0001F0020002100220064002B0014001A0001
:1000C0000800150017002E00390004001600070074
:1000D00009000A004E00E1001D001B000600190087
:1000E00005004B00E0002152E20035004C00E30027
:1000F0002C00000000000000000000000000A8002C
:100100002A00270026002500240023002D002F00B0
:10011000130012000C0018001C00300034003300E3
:100120000F000E000D000B004D00E50038003700F9
:100130003600100011004A004F00510052005000DC
:10014000E6002C0028000000000000000000000075
:10015000AB00AE00007C3A003B003C003D003E009E
:10016000450000000000000000000000000000004A
:10017000000000003100000000000000000000004E
:10018000000000000000000000000000000000006F
:10019000000000000000000000000000000000005F
:1001A000000000000000AC00440043004200410099
:1001B00040003F000000000000000000520000006E
:1001C00000000000000000004F005100500000003F
:1001D00000000000000000000000000035020000E8
:1001E000000000000000000000000000000000000F
:1001F0000000000000000000000000001803520092
:10020000650064006F00780020004D006500640008
:100210006900610000001003730068006900660057
:1002200074007500780000000403090409023B0013
:10023000020100A0FA0904000001030101000921E4
:10024000110100012244000705810308000109048F
:100250000100010300000009211101000122B60084
:10026000070582032000011201000200000008EDD2
:10027000FE000000010102000105010902A1018543
:10028000020901A100050919012908150025019598
:1002900008750181020501093009311581257F9515
:1002A000027508810609381581257F950175088139
:1002B00006050C0A38021581257F9501750881060F
:1002C000C0C005010980A101850319012AB70015E5
:1002D0000126B700950175108100C0050C0901A128
:1002E00001850419012AA002150126A002950175B5
:1002F000108100C005010906A1018506050719E066
:1003000029E71500250195087501810205071900E7
:1003100029EF1500250195F07501810205081901E5
:100320002905950575019102950175039101C00597
:10033000010906A101050719E029E7150025019526
:1003400008750181029501750881010507190029C9
:10035000FF150026FF0095067508810005081901A4
:100360002905150025019505750191029501750373
:100370009101C00011241FBECFEFDAE0DEBFCDBF78
:1003800011E0A0E0B1E0ECE3FFE402C005900D92C3
:10039000AC3DB107D9F723E0ACEDB1E001C01D924F
:1003A000AA35B207E1F70E9425150C945D270C943D
:1003B00000001F93CF93DF93182FC62F0E94B6150E
:1003C000D82F882389F0111107C08AEAC11109C00A
:1003D00089EA0E94CB0408C0113031F4CC2349F0E3
:1003E0008AED0E94CB04DC2F8D2FDF91CF911F91DE
:1003F000089589EDEECF8230B8F46C30A8F4473020
:1004000098F450E097E0699F400D511D1124FA01C6
:1004100094E5899FE00DF11D1124EE0FFF1FE455B7
:10042000FF4F85919491089581E090E008950E9496
:10043000FB01089581E008950E941A0208950E9428
:100440001A02089581E008950E941A0208950E94F8
:100450001A0208950E9427020895089508950E949F
:100460002D02089508950895A6E0B0E0EAE3F2E0D1
:100470000C94B92649835A839E833091E301898184
:100480009A8131111AC03E81332399F0222389F0D9
:100490000E947808182F682F89819A810E94540839
:1004A00069817A81812F0E94B80F2696E3E00C942F
:1004B000D5260E946608182FF3CF0E94780869811C
:1004C0007A81F1CFFC01262F4081518162817381B5
:1004D000848195810E9434020895CF93DF93EC01CB
:1004E00061E00E946202BE010E941C02882359F052
:1004F00061E0CE010E946202BE010E941F02817073
:10050000DF91CF91089580E0FACF0F931F93CF939F
:10051000DF93EC0160E00E9462028C01BE010E9448
:100520002E02BE01C8010E942F02DF91CF911F91C0
:100530000F91089521E030E0A90102C0440F551F3A
:100540008A95E2F7CA010E9476070895CF93C82FD3
:1005500081E090E00C2E02C0880F991F0A94E2F708
:100560000E94E40C8C2F0E949A02CF91089581E0A2
:1005700008950E94B70208950E94B7020895CF938C
:10058000C82F0E9429078C2F0E94B9028C2F0E942D
:10059000BC022FEF84E39CE0215080409040E1F7C3
:1005A00000C00000CF91089581E00E94BF020E9428
:1005B0001B1E089580E00E94BF020E942C1E089519
:1005C0000F931F93CF93DF938C0161E00E9462022F
:1005D000EC01B8010E942402811106C080E0DF9185
:1005E000CF911F910F910895B801CE010E942A0268
:1005F0008823A1F3B801CE010E94D91A882371F390
:10060000B801CE010E941517882341F3B801CE012D
:100610000E94EB16882311F3B801CE010E94FC1052
:100620008823E1F2F8018581882361F0C330FCE77B
:10063000DF07E9F058F4C115ECE7DE07A9F0C13097
:10064000DC47B9F0C8010E942202C9CFCB358CE744
:10065000D807A9F0CC35ECE7DE0771F0CA35DC47E6
:1006600089F70E94BF0CEECF0E94D402B7CF0E9440
:10067000C70C0E94DA02B2CF0E94B50CE3CF0E94F1
:10068000C30CE0CF0E9432020E94411D0E9466030B
:1006900008950E946A030E9433020E94461D089535
:1006A00081E008950895CF93DF93D82F0E945003DF
:1006B000C82F882319F08D2F0E9452038C2FDF91B1
:1006C000CF91089508950E945303089580E00E94F9
:1006D000630308950E94221B0E9463030895CF9331
:1006E0000E94221BC82F8091DE018C1779F0C093E5
:1006F000DE010E94EB1D6093DF017093E0018093A7
:10070000E1019093E2018C2F0E946303CF91089541
:10071000ADE0B0E0EEE8F3E00C94BA2648875987E4
:100720006A877B878C879D8791110E94C50B1F82EA
:1007300086E0FE013896DE01119601900D928A95B1
:10074000E1F78D8181110DC029813A814B815C8156
:100750006D817E818F810E940F0B2D96E2E00C94BB
:10076000D626CE0101960E946D028111EDCFF5CF04
:10077000FC012481213021F4808191810E94AA080A
:100780000895662329F00E9476180E944919089559
:100790000E94D018FACFCF93C82F8823C9F082388F
:1007A000C9F40E94361B81FD13C089E30E94581CC6
:1007B0000E94590C2FEF87EE93E02150804090402B
:1007C000E1F700C0000089E30E94721C0E94590CEE
:1007D000CF9108958338A1F40E94361B80FDF8CF95
:1007E00083E50E94581C0E94590C2FEF81EE94E083
:1007F000215080409040E1F700C0000083E5E4CF45
:100800008438A1F40E94361B82FDE2CF87E40E9467
:10081000581C0E94590C2FEF81EE94E0215080402B
:100820009040E1F700C0000087E4CECF8CEF8C0F42
:10083000813A70F48C2F0E94CC1B882329F08C2FD6
:100840000E94721C0E94590C8C2F0E94581CBECF13
:1008500080E28C0F883048F4C77081E001C0880FB7
:10086000CA95EAF70E94A80BB1CFEBE5EC0FE33095
:1008700040F4F0E0EF57FE4F808190E00E94601B53
:10088000A7CFE8E5EC0FEB3150F4F0E0EE0FFF1FDF
:10089000E55BFE4F808191810E94851B99CF83E3A8
:1008A0008C0F833108F094CF61E08C2F0E94C1033C
:1008B0008FCF882309F456C0823879F40E94361B02
:1008C00081FF50C089E30E94581C0E94590C89E3A3
:1008D0000E94721C0E94590C0895833859F40E949A
:1008E000361B80FF3FC083E50E94581C0E94590CB4
:1008F00083E5EECF843859F40E94361B82FF32C064
:1009000087E40E94581C0E94590C87E4E1CF9CEFB9
:10091000980F913AE8F290E2980F983050F487706F
:1009200091E001C0990F8A95EAF7892F0E94AE0BDA
:10093000D1CF9BE5980F933028F490E080E00E949F
:10094000601B089598E5980F9B3128F490E080E0B3
:100950000E94851B089593E3980F933118F460E08B
:100960000E94C10308951F93CF93DF93182FEB01CB
:100970000E94CB03209739F4812F0E945904DF9104
:10098000CF911F9108958FE99FE00197F1F700C083
:1009900000002197EFCF70E060E0893311F460E54B
:1009A00070E00E94B3040895882321F00E94A80BF0
:1009B0000E94590C0895882321F00E94AE0B0E94DA
:1009C000590C0895B0E0A0E0E8EEF4E00C94B326F2
:1009D0006C01D62FC72FFC011581068102950F707F
:1009E0000E949E0BE82E8823F9F0E12E1123E1F0FE
:1009F0008C2F807F803461F080E28D0F883008F189
:100A00008C2F807E803221F4D230D8F00023C9F0C0
:100A100080912A0382FF15C082E00E94890C0E9407
:100A20009E0B91E0E82EE926BC2EB2949FE0B922FD
:100A3000FBE0FB15B8F1EB2DF0E0E15AF84D0C941A
:100A4000A426E12CF1CF0C2F0F70C07F11F002957E
:100A5000007F112399F0002359F080E28D0F883038
:100A600010F0D11107C0802F0E94A80B0E94590CD2
:100A70008D2F48C0802F0E94B80BF8CF8D2F0E9479
:100A80005904002379F080E28D0F883010F0D111E5
:100A900004C0802F0E94AE0B03C0802F0E94BE0BAB
:100AA0000E94590CEB2DE850FF0B349708F06BC1F6
:100AB0000E94221B0E946303CDB7DEB7E9E00C94CD
:100AC000CF262C2F2F70F22EC07FC03219F0F29457
:100AD00080EFF822DD2341F0D130C9F1112309F470
:100AE00043C00023E9F0C4CF80912A0382FD14C0E3
:100AF000112359F0FF2029F08F2D0E94A80B0E948E
:100B0000590C80E00E94CB03CDCF80E00E945904B5
:100B1000FF2041F28F2DBECF112369F0011104C0D7
:100B20008F2D0E94D404BECF013009F0BBCF8F2D92
:100B30000E94DC0BB7CF0111B5CF8F2D0E94DB04D3
:100B40008F2D0E94E80B8F2D0E94CC0BABCF112371
:100B500021F0063008F0A6CFE3CF053008F0A2CF91
:100B60008F2D0E94DB049ECF0023D1F3D93349F4AB
:100B70003FEF87EE93E0315080409040E1F700C0B6
:100B800000008D2F0E9459048DCF8C2F869586955D
:100B9000837069F0813009F085CF8D2F9C2F937081
:100BA000111102C080E090E00E94851B7BCF8D2F49
:100BB0009C2F9370111102C080E090E00E94601B96
:100BC00071CF612F8D2F0E94C1036CCF8C2F83704A
:100BD000A1F5111167CF4D2F429546954770440FEF
:100BE000440F2D2F2F7030E0042E02C0220F331F30
:100BF0000A94E2F790E080E0D4FF09C08FE090E033
:100C000002C0880F991F4A95E2F780959095C69586
:100C1000C695C370822B932BC23049F058F4C13073
:100C200019F00E9482073ECF0E9479073BCF0E94B5
:100C30008B0738CF0E94760735CF8695112311F0A8
:100C40008C2F8170882309F42DCF4D2F4295469526
:100C50004770440F440F2D2F2F7030E0042E02C038
:100C6000220F331F0A94E2F790E080E0D4FF09C01E
:100C70008FE090E002C0880F991F4A95E2F78095B7
:100C80009095C695C695C370822B932BC23049F0C0
:100C900058F4C13019F00E94ED0704CF0E94E40718
:100CA00001CF0E94F607FECE0E949A07FBCECF70BE
:100CB000112329F08C2F0E94B2078D2F32CF8D2F58
:100CC0000E94DB048C2F0E94C207ECCED23F41F180
:100CD00060F4D03FB9F0D13F81F0112309F443C053
:100CE0000111C6CE8C2F8F711FC0D33F01F1D43FAD
:100CF000A1F780912A0382FD24C08C2F8F711123CC
:100D000011F312C0112341F0053008F0CBCE8C2F27
:100D10008F710E94D407C6CE063008F0C3CEF7CF3D
:100D20008C2F8F711111CFCF0E94B207BBCE112330
:100D300029F08C2F8F710E94A607B4CE0E94A107C4
:100D4000B1CE112331F063E08C2F8F710E946B0CB8
:100D5000A9CE81E00E94890C023008F4A3CE82E083
:100D60000E94890C9FCE002359F0D93309F009CF96
:100D7000EFEFF7EE23E0E150F0402040E1F7FFCE47
:100D80008C2F8F71A0CFEE2009F496CE0E949A0B83
:100D900080FD92CEF60115820E94940B0E94B2074C
:100DA000C6010E94F0060E94940B0E94C20784CEE6
:100DB0000F931F93CF93DF93EC01688179818D812D
:100DC0000E94B5088C010E94FF070E947507B801B8
:100DD000CE010E94E204DF91CF911F910F910895FF
:100DE000CF93DF93EC018C81882399F0CE010E9490
:100DF000E002811111C00E949E0B882351F08D8169
:100E0000882339F080912A0382FF03C082E00E9488
:100E1000890CDF91CF910895CE010E94D806CE01B2
:100E20000E948502F6CF90E080E00E94601B90E077
:100E300080E00E94851B0E94C50B0E94590C0E94F5
:100E400065190E94491908950E948C1C0E9413077D
:100E500008950E94B50B0E942407089592959F70F3
:100E6000963091F058F4925F9F70923058F4803F22
:100E700019F030F4883E30F481E008959A5FF4CFA1
:100E8000843FD1F380E00895883EB0F3813FD1F7ED
:100E9000F3CFFC012481222339F0808191810E94CB
:100EA000AA080E942E07089580E00895A6E0B0E009
:100EB000ECE5F7E00C94BA262696E2E00C94D626F0
:100EC000A7E0B0E0E6E6F7E00C94BA262796E2E069
:100ED0000C94D62608950E946A0708950E946B0715
:100EE0009093130280931202089508950E946E0752
:100EF00008952091120230911302822B932B0E94AD
:100F00006E070895209112023091130282239323D9
:100F10000E946E07089520911202309113028227D9
:100F200093270E946E0708950E946A0708950E9401
:100F3000940708950E9497079093110280931002DE
:100F4000089590E080E00E949A07089521E030E043
:100F5000A90102C0440F551F8A95E2F7CA010E94F9
:100F60009A07089521E030E002C0220F331F8A95CE
:100F7000E2F78091100290911102822B932B0E9434
:100F80009A07089521E030E002C0220F331F8A95AE
:100F9000E2F7209530958091100290911102822302
:100FA00093230E949A07089521E030E002C0220FA7
:100FB000331F8A95E2F780911002909111028227E7
:100FC00093270E949A0708952091100230911102F0
:100FD000822B932B0E949A07089520911002309142
:100FE0001102822393230E949A07089520911002F0
:100FF00030911102822793270E949A07089508953D
:10100000262F277091E001C0990F2A95EAF723E077
:10101000769567952A95E1F7660F771F660F771F1C
:10102000FA01E60FF71F50E040E0682F70E0819171
:10103000DF0111979B01042E02C0369527950A9473
:10104000E2F7217021952827292328272C934F5F29
:101050005F4F4430510559F70895A82FA77023E03A
:10106000969587952A95E1F7880F991F880F991F04
:10107000FB01E80FF91F50E040E080E0219130E0F3
:101080000A2E02C0369527950A94E2F7217033277D
:10109000042E01C0220F0A94EAF7822B4F5F5F4FA4
:1010A0004430510559F70895262F9C3070F487304D
:1010B00060F4682F70E087E0989F600D711D112427
:1010C00044EE51E0822F0E9400080895292F9C30A1
:1010D00068F4873058F490E064EE71E037E0239FC5
:1010E000800D911D11240E942D08089580E008951F
:1010F000B0E0A0E0EEE7F8E00C94B3267C010091AC
:101100001002109111028091120290911302082B8B
:10111000192BCFE0D0E0CC24C394D12CBC2EC60137
:101120000C2E02C0880F991F0A94E2F780239123A6
:10113000892B49F4219790F7B12C8B2DCDB7DEB7D1
:10114000E9E00C94CF26B7018C2F0E94C40F0197C1
:1011500089F3F3CFCF93DF93EC010E947808BE01AF
:101160000E94C40FDF91CF9108951F93CF93DF9317
:10117000EB019091E301992339F0CB010E94AA0879
:10118000DF91CF911F910895882369F0CB010E94D0
:101190007808182F682FCE010E945408BE01812FB5
:1011A0000E94C40FEDCFCB010E946608182FF6CF26
:1011B0001F93CF93DF93C091140217E08091150223
:1011C0008C1304C0DF91CF911F910895D0E01C9F34
:1011D000F0011D9FF00D1124EA5EFD4F2081318149
:1011E000428153816481758186810E9460072196C6
:1011F000C770E4CF20914E0230914F0240915002CF
:1012000050915102609152027091530280915402A8
:101210000E9460070895CF93DF9380915402807FEE
:1012200009F04DC080915302882309F448C0E09131
:10123000140250911502C0914F02D0914E0260915C
:1012400050027091510247E05E17C9F18E2F90E075
:10125000E49FF0011124EA5EFD4F2481222391F1E5
:10126000489FF001499FF00D1124DF01AA5EBD4F98
:1012700011962C9111972C1325C02C912D1322C05F
:1012800015962C91159721111DC012962D913C9108
:10129000261B370B283C3105A8F4809154028F702F
:1012A000806180935402E45EFD4F80818F70806185
:1012B00080838EE492E00E94F0060E94D808DF91BD
:1012C000CF910895FC013196E770BECF482F209151
:1012D00014029091150257E0291302C080E008958E
:1012E00030E0529FF001539FF00D1124EA5EFD4F54
:1012F0008181681306C08081481303C085818111F4
:10130000EECF2F5F3F4F2770E7CFA4E1B0E0EBE8CF
:10131000F9E00C94B0268C0186E0F801DE011F96FE
:1013200001900D928A95E1F7F8018481E5809EE4B1
:10133000A92E92E0B92E9091520291111FC08823DC
:10134000D1F0EE20A9F0C8010E944907F82E8823A9
:1013500079F087E0F801D50101900D928A95E1F7C7
:10136000C5010E94B8030E940B090E94FA085FC0E1
:10137000C8010E94F006FF24F39459C0C080D180B8
:1013800082809380F090530220915002309151025C
:10139000A401421B530BFF2009F4F9C0483C51053E
:1013A00008F0A7C0882309F442C090914F028091B1
:1013B0005402282F207F09F05CC09D1116C0909127
:1013C0004E02C91212C0E1104EC08F70806180932E
:1013D00054020E94FA088EE492E00E94F006809186
:1013E0005402F8018683F12C22C0E1103CC06D2D1F
:1013F0008C2D0E9466096D2D8C2D0E946609E82EA9
:101400008111F1CFCF86D88A8F8598890E94AA084A
:10141000292F22952F70243078F49F702230A8F065
:101420009923B9F0F8019681907F99F4FE2C8F2DC5
:101430006496ECE00C94CC262A5F2F70223068F082
:10144000C8010E94F006EF2CF1CF992311F08823F8
:1014500069F3805E883050F3F3CF803F38F3815FCB
:10146000833070F7E3CF80915402816080935402FF
:10147000BACF9D1113C090914E02C9120FC0E11056
:101480000DC08683C8010E94F00687E0F801AEE433
:10149000B2E001900D928A95E1F767CFC8010E94F2
:1014A0004907882309F464CFEE2009F461CF8091C5
:1014B0005402803288F020914E0230914F023987D9
:1014C00028879B868A86909152029C871D868E87EC
:1014D000CE0108960E94F00687E0F801AEE4B2E083
:1014E00001900D928A95E1F70E940B090E94FA087B
:1014F00042CF90915402292F207FA1F4682D9A8A1F
:10150000898AA6017A899E2D0E9456078EE492E070
:101510000E94F00687E0F50111928A95E9F70E9492
:10152000FA0861CF882309F482CF80914F028D1190
:1015300010C080914E02C8120CC0E1100AC0968300
:10154000C8010E94F00687E0F50111928A95E9F73B
:101550006ECFC8010E944907882309F409CFEE2005
:1015600009F406CF80915402803208F4B5CF20915F
:101570004E0230914F023A8329839C828B82909154
:1015800052029D831E828F83CE010196A3CF483CD9
:101590005105B8F5882309F4EECEFE2CEE2009F4AF
:1015A000E7CE80914F028D111EC080914E02C8126D
:1015B0001AC08091540280FD0DC0982F907F51F089
:1015C0008683903F09F45ECF982F907F905F8F7055
:1015D000892B57CF87E0F801AEE4B2E001900D927D
:1015E0008A95E1F724CFC8010E944907811174CF81
:1015F00080915402816080935402C8010E94F006D9
:1016000016CF682D9A8A898AA6017A899E2D0E9412
:10161000560787E0F50111928A95E9F7A6CEAEE06C
:10162000B0E0E5E1FBE00C94B926288739874A87CA
:101630005B876C877D878E87CE0108960E9485091F
:101640008823B1F06C85662341F0288539854A8569
:101650005B857D858E850E94600717E0809114026E
:101660009091150289133DC02E96E3E00C94D52687
:1016700087E0FE013896DE01119601900D928A9561
:10168000E1F78C85882349F32091150230E0C901E8
:10169000019687709927409114024817190699F00E
:1016A00097E0929FD001939FB00D1124AA5EBD4F89
:1016B000FE01319601900D929A95E1F78093150203
:1016C0000E94D808CACF0E942907109215021092D2
:1016D000140287E0EEE4F2E0DF011D928A95E9F75B
:1016E000BCCF819FC00111248A5E9D4F0E94850955
:1016F000882309F4B9CFE09114021E9FF001112450
:10170000EA5EFD4F20813181428153816481758180
:1017100086810E9460078091140290E00196877094
:101720009927809314029ACF80917D0286958695A1
:101730008695089580917D028770089590917D022D
:10174000977081E009F480E008958091A9020895DE
:101750009091A902892B8093A90208958095909178
:10176000A90298239093A90208951092A9020895BE
:101770009091A802892B8093A8020895809590915A
:10178000A80298239093A80208951092A8020895A1
:1017900008950E94C80B089590917E02292F282356
:1017A00031F08095892380937E020E94C90B0895B1
:1017B00008950E94D80B089590917F02292F282325
:1017C000281729F0982B90937F020E94D90B089537
:1017D00090917F02292F282331F0809589238093CF
:1017E0007F020E94D90B089580917F02882329F0FF
:1017F00010927F0280E00E94D90B0895CF93C09190
:10180000A9028091A802C82B80917F02882331F021
:10181000C82B0E94AA1B81110E94F40B8C2FCF9120
:101820000895CF93DF93C0910201D09103010E94EC
:10183000FE0B8883C0910201D091030148E050E083
:1018400065E772E0CE010E94F526892B59F088E009
:10185000FE01A5E7B2E001900D928A95E1F7CE0175
:101860000E94391BDF91CF910895CF93DF93C091F0
:101870000001D09101010E94FE0B8983C0910001FB
:10188000D091010140E250E065E572E0CE010E9496
:10189000F526892B59F080E2FE01A5E5B2E0019022
:1018A0000D928A95E1F7CE010E94441BDF91CF9102
:1018B00008950E941C1D813039F48091290387FF0F
:1018C00003C00E94350C08950E94110C08950895DC
:1018D0000E94670C089590912A0392FF11C098E02E
:1018E000899F90011124622B60937D020E94B207B0
:1018F00080917D028695869586950E94680C089554
:101900000E94B207089510927D0280E00E94680C48
:10191000089590917D028095892380937D02282FE0
:10192000277069F4891759F090912A0392FF07C034
:101930008695869586950E94C2070E94830C08951D
:1019400090912A0392FB222720F9281769F080FB47
:1019500092F990932A038091290390912A030E947F
:10196000EF0C82E00E94890C089580912A0382FB8B
:10197000882780F991E089270E94A00C089581E0D2
:101980000E94A00C089580E00E94A00C08956FEFC3
:101990007FEF90E080E00E944727089590E080E08C
:1019A0000E94132721E0853E9E4F09F020E0822F00
:1019B000089582E090E00E940B27089583E090E074
:1019C0000E940B2790E00895682F83E090E00E942A
:1019D0002927089584E090E00E9413270895BC0110
:1019E00084E090E00E9447270895AB01BC018FE09E
:1019F00090E00E943B270895AB01BC0183E190E099
:101A00000E943B27089560E070E0CB010E94FC0C2F
:101A1000089560E070E0CB010E94F50C0E94030D78
:101A20000895A8E0B0E0E7E1FDE00C94BA2665EE89
:101A30007EEF90E080E00E94472760E082E090E047
:101A40000E94292781E090E0909313028093120274
:101A50000E94E40C60E074E184E090E00E9447277B
:101A600060E086E090E00E94292760E087E090E057
:101A70000E94292740E050E0BA0188E090E00E94EF
:101A80003B2760E083E290E00E94292760E08CE041
:101A900090E00E94292760E08DE090E00E942927D5
:101AA00019821A821B821C821D821E821F82188646
:101AB00048E050E067E170E0CE0101960E941927EE
:101AC00040E050E0BA018FE190E00E943B270E9485
:101AD000090D2896E2E00C94D6260E94110D089577
:101AE0008EE090E00E940B2791E0811101C090E010
:101AF000892F0895682F8EE090E00E94292708958D
:101B0000A6E0B0E0E6E8FDE00C94B8260E94DF1DF8
:101B10008C018091AA029091AB028017910781F00D
:101B200019821A820E94DF1D682F49815A81792FFC
:101B300080E090E00E9488031093AB020093AA0219
:101B40002696E4E00C94D4260E94E0106093C00234
:101B50007093C1028093C2029093C3026093BC024F
:101B60007093BD028093BE029093BF0208950E94BD
:101B7000E0106093C0027093C1028093C202909300
:101B8000C3026093B8027093B9028093BA02909333
:101B9000BB020895089508950E94CA0D08950895FE
:101BA0000E94CF0D0E94CC0D089508950E94D50D7E
:101BB000089508950E94D90D0E94D60D089581E0E0
:101BC00008958AEF90E10E943A150E94CB0D0E9481
:101BD000D00D08950E94CC12089508950895089597
:101BE0000E94ED0D0E94EE0D0E94EF0D08950E94DF
:101BF000CE0C811102C00E946D0D0E94D90C809301
:101C0000C4020E94EA0C90932A03809329030E9445
:101C1000D0160E94DE0C0E947607809110029091EF
:101C200011020E94970708950E94D61D0E94BA10C3
:101C30000E94CF120E9442150E941A120E94F70DB4
:101C40000E9462030E94D3160E94E1120E94DA0DE4
:101C50000895A6E0B0E0EFE2FEE00C94B1260E9409
:101C6000DF0D811111C00E94800D0E94CC120E94D4
:101C7000D41581110E94B70D0E9487190E946F032D
:101C80002696EBE00C94CD260E943D128CEAA82EFD
:101C900082E0B82E750110E0F70101917F01812FDC
:101CA0000E9416111F5F1C3009F441C00817A1F3F0
:101CB0008091C40281FD0E941C110E94EA0DC82E71
:101CC00010E099249394812F0E941611082FF5019A
:101CD00081915F01081729F1F12CEE24E394D02EB5
:101CE000D8268D2D8E21A9F0CC2099F0F9821A8367
:101CF0000E94DF1D9C838B839D8291E0802F8E212B
:101D000009F490E049815A816B817C818D810E9428
:101D10008803F394EE0CF7E0FF12E3CFF50131975F
:101D200000831F5F1C3079F60E94A40D9ECF08131C
:101D3000BFCF99CF1F93CF93DF930E94C90FEC01C0
:101D4000C11580E5D807F0F5C11580E4D80708F083
:101D50009CC0C03ED10520F5CD3CD10508F082C025
:101D6000C83AD10578F4C53AD10508F073C0C1303E
:101D7000D10519F1209709F1C430D105F0F4D0E074
:101D8000C0E01BC0C33CD105D0F7C85AD0E0CC0F8F
:101D9000DD1FCC57DE4F0990D881C02DD4640DC013
:101DA000C11580E2D80708F0D1C0C11581E0D8077D
:101DB00008F05AC0C83ED10510F7CE01DF91CF918F
:101DC0001F910895C03682E5D80718F5C03482E522
:101DD000D80708F06BC0C03282E5D80708F05FC0B2
:101DE000C11582E5D80708F497C02C2F26952695B3
:101DF00080E2289F900111248C2F8370C1E0D0E0F5
:101E000002C0CC0FDD1F8A95E2F7C22BD32BDD6811
:101E1000D4CFC03A82E5D80760F4C03882E5D8074D
:101E200008F459C0CF71D0E0DC2FCC27C46FD06A42
:101E3000C4CFC03C82E5D80708F462C0C03E82E54A
:101E4000D80708F09CCFDC2FCC27CC27DF71C06FE0
:101E5000D06AB3CFC55AD0E0C654DE4FC881D0E0B7
:101E6000D064ABCFD065A9CF8D2F0E946B10182FF7
:101E7000CE0199270E94C90FC12FD0E0DC2FCC27BB
:101E8000CC27DF71C82BD92B98CFCE0199270E9480
:101E9000C90FCC27DF70C82BD92BD06A8ECFCF715A
:101EA000D0E0DC2FCC27C16FD06A87CF2C2F2695AE
:101EB0002695277080E2289F900111248C2F837033
:101EC000C1E0D0E002C0CC0FDD1F8A95E2F7C22B43
:101ED000D32BDC6872CF2C2F26952695277080E2B5
:101EE000289F900111248C2F8370C1E0D0E002C0A4
:101EF000CC0FDD1F8A95E2F7C22BD32BDA685DCFBA
:101F00008C2F8F710E946B10C82FD0E0DC2FCC2754
:101F1000CC27DF71D06251CF8C2F8F710E946B1054
:101F200055E0D695C7955A95E1F7CF70D0E0DC2FF4
:101F3000CC27282F30E084FF05C044E0220F331F58
:101F40004A95E1F7C22BD32BD06937CF8D2F8F71F4
:101F50000E946B10182FCE0199270E94C90FC12F24
:101F6000D0E0DC2FCC27CC27DF71C82BD92BD2CFE8
:101F7000462F7C3030F4673020F4672F0E94170220
:101F8000089590E080E008950E94B80F0E949A0E94
:101F9000089582389105B9F1B0F48133910509F4BF
:101FA0007DC048F48932910509F46DC08A329105EB
:101FB00009F47BC008958533910509F45FC0893326
:101FC000910509F10895833E9105D9F138F4803ED9
:101FD000910529F1823E910579F10895863E91059A
:101FE000D9F1873E910509F43EC0843E910541F543
:101FF00020912A0321FF24C08091290384FD19C068
:1020000087EE90E0089520912903237009F05AC0CB
:1020100020912A0323FF14C089E290E008952091C3
:10202000290320FD38C030912A0330FF09C024FF66
:1020300043C090E080E008952091290322FDF7CF6E
:1020400008952091290322FD3AC030912A0330FDE2
:1020500039C024FFF5CFEDCF2091290323FFF0CF26
:1020600024FDE7CFCDCF2091290323FD2EC0309151
:102070002A0331FFEECF84EE90E0089520912903EA
:1020800025FFDECFC9CF2091290325FD21C0209156
:102090002A0323FFD5CF89E390E0D2CF20912903F3
:1020A00026FFCECF8AE290E008952091290326FFF3
:1020B000C7CF81E390E0089583EE90E0089582EE2B
:1020C00090E0089580EE90E0089586EE90E0089507
:1020D00085E390E008959091290392FF10C041E0BC
:1020E000282F2471243009F040E031E0282F287196
:1020F000283009F030E0431711F02CE0822793FFDD
:1021000010C041E0282F2471243109F040E031E073
:10211000282F2871283109F030E0431711F02CE006
:10212000822730912A0330FF10C051E0282F2171FF
:10213000213009F050E041E0282F2871283009F0C3
:1021400040E0541711F029E0822731FF10C041E030
:10215000282F2171213109F040E031E0282F28712A
:10216000283109F030E0431711F029E0822794FD6F
:10217000877E089510922B0310922C0310922D034A
:1021800010922E030895CF92DF92EF92FF926B018F
:102190007C010E94CC1281110EC00E94EB1DC61A58
:1021A000D70AE80AF90AC0922B03D0922C03E092D6
:1021B0002D03F0922E03FF90EF90DF90CF900895C3
:1021C0000F931F930E94CC12882329F00E94EB1DCD
:1021D0001F910F9108950E94EB1D00912B03109108
:1021E0002C0320912D0330912E03600F711F821F4D
:1021F000931FEECF80E00895CF939C01205E32457F
:10220000C1E02032310538F4FB01C581C11103C0A2
:102210008F710E94A6028C2FCF91089508950E947D
:102220000E11089508950E9412110895E82FF0E00C
:10223000E45CFC4F80810895089580EA8A95F1F767
:10224000089500C008950E941D11089508950E94E8
:1022500026110895A6E0B0E0E0E3F1E10C94B62683
:102260000E94CC12F82E60914803882309F440C0E4
:1022700086E0E82E8E010F5F1F4FF8018E2D119220
:102280008A95E9F7862F90E0B801845C9C4F0E9404
:10229000EF128823B9F080912F0390E046E050E0E0
:1022A000B801845C9C4F0E94F52621E02093C50272
:1022B000892B91F4F12C0E9413118F2D2696E6E0C4
:1022C0000C94D2268091C5028823A1F3F8011192C3
:1022D000EA94E9F71092C502A0912F03B0E0A45C44
:1022E000BC4F86E0F80101900D928A95E1F7E3CFAB
:1022F00070E0645C7C4F80912F0390E0845C9C4F85
:102300000E9476130E942711D8CFF894E82FE29507
:10231000EF70F0E031A1282F2F7081E090E001C034
:10232000880F2A95EAF7982F9095932391A392A16D
:10233000892B82A3789408950F931F93CF93DF93F3
:10234000C4ECD1E089918F3F11F00E94851181E0AA
:10235000CA3CD807B9F7CDEBD1E004EC11E0899184
:102360008F3F11F00E9485110C171D07C1F7DF91F7
:10237000CF911F910F910895B0E0A0E0E2ECF1E160
:102380000C94B426EC01D62E062F10E0C8018C5315
:102390009E4F7C01FC0180818F3F09F444C0F8947A
:1023A000E82FE295EF70F0E091A18F7021E030E02E
:1023B00001C0220F8A95EAF7892F822B81A382A17F
:1023C0002095282322A378940E942111EDEBF1E0BF
:1023D00031E0C12C21912F3F59F1A22FA295AF706E
:1023E000B0E090968C9190E02F7002C09595879503
:1023F0002A95E2F780FD1CC0832FC82A330F81E0A5
:10240000E43CF80739F7F70180818F3F11F00E9413
:10241000851161E0C11001C060E08D2D0E94231183
:10242000C00FD11FC882CDB7DEB7E8E00C94D0262C
:1024300080E0E3CF809104018091040196E0811156
:1024400090E09093480386E0891B80932F030E94BD
:102450009C118CE0ECE3F3E0DF01982F1D929A953C
:10246000E9F7E0E3F3E0DF011D928A95E9F786E002
:102470000E947B120E940F110895ACE0B0E0E3E4EB
:10248000F2E10C94B7268E010F5F1F4F8CE0F8012C
:1024900011928A95E9F7F12C6F2DC8010E94BC11A9
:1024A000F394F6E0FF12F8CF4CE050E0B80180E37F
:1024B00093E00E94F52621E0009709F420E0892BA3
:1024C00041F08CE0F801A0E3B3E001900D928A9511
:1024D000E1F76091480370E0645C7C4F46E080E384
:1024E00093E00E947C12182F0E942A11812B2C96B7
:1024F000E5E00C94D3260895B0E0A0E0E2E8F2E134
:102500000C94B4266C017B01042FC22F222379F096
:1025100081E08093C8020E94DF1D9093C7028093E0
:10252000C60280E0CDB7DEB7E8E00C94D026D091AB
:10253000C802DD23B1F38091C6029091C7020E94C8
:102540005D1D059770F310E0A801B601C7010E9458
:10255000F526892B31F0A801B601C7010E94022798
:10256000CD2F1092C8028C2FDDCF0E94CE0C81118E
:1025700002C00E946D0D0E94700D0895CF930E94BD
:102580008326C82F811102C00E947E268C2FCF91F6
:1025900008958091CC0208958091CB0208950E9405
:1025A000BE128093CB020E94B5128093CC020E948F
:1025B000C912809304010E94CC1281110E9425133C
:1025C00008950E94CC12811102C00E942813089520
:1025D00081E09091CD029A3008F080E008950F9349
:1025E0001F93CF93DF93EC018B018091CD028A3052
:1025F000B8F4B801CE010E947313C82F811122C014
:102600008091CD028F3FB9F40E94DF1D9093CA02E2
:102610008093C9028C2FDF91CF911F910F91089564
:102620008091C9029091CA020E945D1D843F914031
:1026300000F7C0E0EFCF8F5F8093CD028A3020F7A4
:10264000C1E0E8CF1092CD02E5CF0E948F1E089521
:102650000E94921E0895B0E0A0E0E1E3F3E10C9443
:10266000B5267901C82F880FDD0B41155105A9F05A
:10267000FE0193E0EE0FFF1F9A95E1F7EB5FFE4F2F
:102680008181928182539D4F208130E04217530710
:1026900008F49A01A9010E940227CE010E947B1F23
:1026A000D82E8823D1F001151105B9F083E0CC0FA5
:1026B000DD1F8A95E1F7FE01EB5FFE4F438150E09D
:1026C0000417150708F4A801CB5FDE4F6C817D81EC
:1026D00062537D4FC7010E9402278D2DCDB7DEB713
:1026E000E7E00C94D1260E94BF1408950E94E014E4
:1026F00008950E94B2150895A4E0B0E0E2E8F3E185
:102700000C94B8266091F5027091F6028091F70260
:102710009091F8020E94671D11E0643671058105F1
:10272000910518F10E94E0106E5F7F4F8F4F9F4F11
:1027300069837A838B839C8310E000E030E020E0A3
:1027400044E050E0BE016F5F7F4F85E00E942B1395
:10275000182F882351F00E94EB1D6093F5027093AF
:10276000F6028093F7029093F802812F2496E4E01A
:102770000C94D426A1E0B0E0E0ECF3E10C94AF2699
:10278000762E4A015901680101E010E09E012F5F99
:102790003F4F50E040E070E060E00E942B13182FA4
:1027A000882399F1F40160817181828193810E9473
:1027B000671D643671058105910500F1870195015A
:1027C00050E040E070E060E0872D0E942B13B82EAF
:1027D000B701C6010E94D41611E09981981310E048
:1027E0001B2139F00E94EB1DF40160837183828309
:1027F0009383812F2196EDE00C94CB26B701C6017F
:102800000E94D41699818913D9CFA701B601C501B9
:102810000E940227EECFAAE0B0E0E1E1F4E10C94DF
:10282000B226C090CA01D090CB01560188E0A80E14
:10283000B11C88E0E82EF12C85019E012F5F3F4FEF
:1028400041EF52E063E082E00E94BA13182F882320
:1028500031F0F60197818091F00298131AC0812F10
:102860002A96EAE00C94CE2669858A850E949B15FB
:10287000F82E81110FC010E000E030E020E050E0C1
:1028800040E070E060E084E00E942B13182F1F21CD
:102890000EC0F12CAE01475F5F4FBE01665F7F4FF8
:1028A000C5010E947E158111DFCFF110E4CFF60142
:1028B00087818093F002D3CFA6E0B0E0E2E6F4E1B6
:1028C0000C94B4266B010091CA011091CB010F5FEB
:1028D0001F4F86E0E82EF12C9E012F5F3F4F4CEEFC
:1028E00052E061E080E00E94BA13882349F096E04C
:1028F000FE013196A6EEB2E001900D929A95E1F7B5
:1029000096E0E6EEF2E0D60101900D929A95E1F79D
:102910002696E8E00C94D026B0E0A0E0E2E9F4E1ED
:102920000C94B2267C015B016A010E94E81201E06E
:1029300010E0882311F00AE010E0C1E0D0E0B5011A
:10294000C701F6010995811104C021960C171D07D6
:102950002CF4CDB7DEB7EAE00C94CE26CC9F9001E4
:10296000CD9F300D300D112490E080E045E34A9575
:10297000F1F70000019682179307C1F7E0CF0F939C
:102980001F93CF93DF93EC018B014CE554E10E9440
:102990008C14811106C080E0DF91CF911F910F91BF
:1029A00008954BE054E1B801CE010E948C148823B5
:1029B00091F34CE753E1B801CE010E948C14ECCFA7
:1029C0000F931F93CF93DF93C091CA01D091CB0196
:1029D000CE01019626E0FB01DC0101900D922A95C3
:1029E000E1F766E070E00E94D41688838E01085FEC
:1029F0001F4FC8010E94A91568E070E0C8010E943D
:102A0000D4168F83688979898A899B890091E2022B
:102A10001091E3022091E4023091E5026017710702
:102A20008207930751F06093E2027093E302809370
:102A3000E4029093E5020E94C310DF91CF911F91B1
:102A40000F9108950E94290E08950E94781D0E94FA
:102A50003A210E94E10D0E9454210E94140E0E940E
:102A600061210E9466210E9422150E9480210E94FD
:102A7000F00DF7CF9093DD018093DC0108950E9463
:102A8000CC120895EAEFF2E088E0DF011D928A950A
:102A9000E9F70E944E160895FC01228130E02F5F75
:102AA0003F4F23703327938181E09217130609F07B
:102AB00080E008950F931F93CF93DF93EC01162FBF
:102AC000042F0E944C15811117C08A81FE01E80F66
:102AD000F11D1F7764816078612B00FB67F96483C7
:102AE0008F5F83708A8388818F5F888381E0DF9125
:102AF000CF911F910F91089580E0F9CFFC01A38140
:102B000082818A17B1F0AE0FBF2FB11D14968C9140
:102B100087FB992790F98F77DB018C93DA019C93DF
:102B200083818F5F8370838381818F5F818381E065
:102B3000089580E00895462F682F8AEF92E00E9462
:102B40005A150895AB01BC018AEF92E00E947E15F0
:102B50000895DC0198E0EAEFF2E001900D929A9579
:102B6000E1F7089581E08093F902089581E00895E6
:102B7000A2E0B0E0EEEBF5E10C94B82610E0BE0167
:102B80006F5F7F4FCE0102960E94A215082F811120
:102B900005C0812F2296E4E00C94D42669818A81B5
:102BA0000E94D901102FEBCFCF930E943F15C82F61
:102BB000882319F00E94B815C82F8091F902882344
:102BC00051F01092F9028091FC028093FD028091F5
:102BD000FA028093FB020E9498160E943F158823F8
:102BE00019F00E94B815C82B8C2FCF9108958FE84B
:102BF00091E00197F1F700C00000089524EF611102
:102C000025EF30B32F7081E090E001C0880F2A9546
:102C1000EAF7982F9095932390BB91B3892B81BBB2
:102C2000089524EF611125EF8FB190E02F7002C05D
:102C3000959587952A95E2F7817008950895CF9329
:102C4000DF93C0E080910303C81760F00E94F7157E
:102C5000C0E080910303C81778F00E941E16DF9130
:102C6000CF91089560E08C2F0E94FE1561E08C2FBB
:102C70000E94FE15CF5FE6CF60E08C2F0E941116F8
:102C8000D82F61E08C2F0E941116EC2FF0E0EA5F44
:102C9000FC4F880F8D2B8083CF5FDBCF80910401A9
:102CA00091E08927809302038091040190930303AC
:102CB000809104010E941F1608951F93CF93DF9304
:102CC000E42FEE0F6E2BC82FD0E0DE01AA5FBC4FC1
:102CD000EC919E2F9370691739F1EE0FEE0FE62BF2
:102CE000EC9310910203180FEF70F0E0E453FE4FE5
:102CF000CC5FDC4F80819881890F8883843024F0F9
:102D000060E0812F0E949B1588818D3F24F461E053
:102D1000812F0E949B158881082E000C990B64E07E
:102D200070E00E9490268883DF91CF911F910895D3
:102D3000CF93DF93C0E080910303C81718F0DF91B1
:102D4000CF91089561E08C2F0E941116D82F60E07A
:102D50008C2F0E9411164D2F682F8C2F0E945D160C
:102D6000CF5FE9CF0E94C70C089580E00E94161142
:102D7000817008950E943D122FEF86E791E0215067
:102D800080409040E1F700C000000E943D120E9488
:102D9000B516882321F00E94B2160E941B1E0895CA
:102DA0000E94BA1608950895FC01680F791F8FEFED
:102DB00091E3E617F70709F408952191822728E0A7
:102DC00030E087FF06C0880F892721503109C9F7F5
:102DD000F0CF880FFACFCF93DF93EB0186319C477A
:102DE00011F50E94A50B9D81992399F08A7A91E0B3
:102DF00009F490E090930803811109C089E20E94D0
:102E0000581C0E94590C80E0DF91CF91089585E312
:102E1000F6CF80910803811104C089E20E94721CE0
:102E2000F0CF85E3FBCF81E0EFCFCF93DF93EC01D1
:102E3000FB018581882309F4D2C09E0130572332DB
:102E4000310508F0B2C00E94EA0C90932A038093E7
:102E50002903FE01E150F047E232F10520F4E55983
:102E6000F84D0C94A4268091290381608093290356
:102E700093C080912A03886080932A038DC080913B
:102E800029038260F3CF809129038460EFCF809182
:102E900029038860EBCF80912A038160EDCF809178
:102EA0002A038260E9CF809129038061DFCF80917E
:102EB00029038062DBCF809129038064D7CF0E94F1
:102EC0002907809129038068D1CF809129038C60E4
:102ED000CDCF80912A038360CFCF809129038E7F4D
:102EE000C5CF80912A03877FC7CF809129038D7F2B
:102EF000BDCF809129038B7FB9CF80912903877F34
:102F0000B5CF80912A038E7FB7CF80912A038D7F22
:102F1000B3CF809129038F7EA9CF809129038F7D24
:102F2000A5CF809129038F7BA1CF0E942907809193
:102F300029038F779BCF80912903837F97CF80913F
:102F40002A038C7F99CF8091290382FB992790F9DE
:102F500021E0922790FB82F990FB83F987CF809143
:102F60002A03982F909591708E7F892B90FB81F981
:102F700083CF90912903892F8F7B96FF806476CF32
:102F80000E94290790912903892F97FB87F9805880
:102F90006DCF81E00E947A0D8091290390912A03E0
:102FA0000E94EF0C0E94290780E0DF91CF910895E5
:102FB00080E0F0CF90912903892F8F7E94FF80616C
:102FC00055CF90912903892F8E7F90FF81604ECF3E
:102FD00090912A03892F877F93FF88604DCF81E0EE
:102FE000E4CF282F35EB2303C001112497FF04C041
:102FF00080589109892F089580589F4FFBCF809169
:103000000F0380FF0DC060913A0170E0660F771FDB
:103010006038710570F56115710569F1862F0895A5
:1030200081FF07C060913A0184E0689FB0011124DC
:10303000EFCF60913A0182FD0AC080910E03882390
:10304000A9F02091390160913A01821710F088E0CF
:10305000ECCF869FC001112433E0880F991F3A9569
:10306000E1F7622F70E00E949026D2CF68E070E016
:10307000D5CF8FE7089581E0089580910F0380FFF9
:103080000CC06091360170E07595679575956795F0
:103090006115710549F1862F089581FF06C0609181
:1030A000360170E075956795F3CF6091360182FD2A
:1030B0000BC090910D039923A1F06091350180918F
:1030C0003601961738F0682F70E06038710500F30C
:1030D0008FE70895899FC001112470E00E94902617
:1030E000F4CF61E070E0D7CF81E008958D3C31F4FA
:1030F0000E94FF1781958093130308958E3C19F465
:103100000E94FF17F8CF8F3C31F40E94FF17819582
:10311000809312030895803D19F40E94FF17F8CFA1
:10312000893D29F40E943D188093140308958A3D37
:1031300021F40E943D188195F7CF8B3D31F40E9418
:103140003D1881958093150308958C3D19F40E94D4
:103150003D18F8CF9FE2980F983070F4815D990B7D
:1031600021E030E001C0220F8A95EAF78091110337
:10317000822B8093110308958D3D31F480910F03CC
:10318000816080930F0308958E3D21F480910F0399
:103190008260F7CF8F3DB9F780910F038460F1CF44
:1031A000409112038D3C59F48091130387FF0DC0A9
:1031B0001092130341110BC010920E0308C08E3CF5
:1031C00081F48091130318169CF3442381F08091BD
:1031D000140390911503892B09F05AC010920D0326
:1031E00008958F3C49F447FFF0CF1092120380916D
:1031F00013038111ECCFE0CF803D19F41416ACF32A
:10320000E4CF90911403893D29F41916F4F6109235
:103210001403DBCF8A3D19F497FFD7CFF8CF9091F5
:1032200015038B3D29F497FFD0CF10921503CDCF16
:103230008C3D19F41916CCF3C8CF9FE2980F983043
:1032400090F4815D990B21E030E0B90102C0660F76
:10325000771F8A95E2F7CB0180959091110389231E
:1032600080931103B2CF8D3D31F480910F038E7F97
:1032700080930F03AACF8E3D21F480910F038D7FA1
:10328000F7CF8F3D09F0A1CF80910F038B7FF0CF57
:1032900008950E94DF1D9C019091120380911303F9
:1032A000982B21F030930C0320930B03909114037F
:1032B00080911503982B21F030930A032093090382
:1032C00080E193E00E94521B089586E0E0E1F3E084
:1032D000DF011D928A95E9F710920E0310920D03FB
:1032E00010920F030895FC01828181110EC0838129
:1032F00081110BC08481811108C091E08581811109
:1033000001C090E0892F8170089581E0FCCFA6E094
:10331000B0E0EDE8F9E10C94B92686E0E0E1F3E0F5
:10332000DE01119601900D928A95E1F71092120339
:103330001092130310921403109215038B819C8139
:10334000892B89F080910B0390910C030E945D1DE5
:10335000AC0190910E039923C9F180913B01841730
:10336000150608F440C08D819E81892B91F08091D3
:10337000090390910A030E945D1DAC0190910D0319
:10338000992309F46AC0809137018417150608F45F
:1033900072C0BE016F5F7F4F80E193E00E94A61C68
:1033A000811105C080E193E00E94731981110E9490
:1033B000491986E0FE013196A0E1B3E001900D923B
:1033C0008A95E1F72696E3E00C94D52620913C01FE
:1033D0008AE0289F900111242417350720F69F5F6B
:1033E00090930E0302C09F3FD1F71B81112359F028
:1033F0000E94FF179FEF11160CF491E0899F802D1A
:103400001124809312031C81112359F00E94FF178D
:103410009FEF11160CF491E0899F802D1124809369
:10342000130380911203882309F49DCF1091130395
:10343000112309F498CF0E94F117882351F080934B
:103440001203812F0E94F117882329F08093130320
:103450008ACF81E0F4CF81E0F9CF209138018AE072
:10346000289F900111242417350708F092CF9F5F01
:1034700090930D0302C09F3FD1F71D81112359F096
:103480000E943D189FEF11160CF491E0899F802D4A
:103490001124809314031E81112359F00E943D18BA
:1034A0009FEF11160CF491E0899F802D11248093D9
:1034B000150380911403882309F46BCF1091150331
:1034C000112309F466CF0E94F117882351F08093ED
:1034D0001403812F0E94F117882329F0809315038C
:1034E00058CF81E0F4CF81E0F9CF0F931F93CF93B2
:1034F000DF93C42FD22FFC0185818823C9F040932C
:1035000018030E94DF1D909317038093160380E237
:103510008C0F883040F4C77081E001C0880FCA95D5
:10352000EAF70E94D404DF91CF911F910F91089583
:1035300010911803141332C0809116039091170351
:103540000E945D1D883C910548F5C0E2CD0F1D1716
:10355000B9F080E2810F883040F4177081E001C03B
:10356000880F1A95EAF70E94DB04C83048F481E01E
:103570009D2F977001C0880F9A95EAF70E94D40496
:10358000802F0E94CB04C83070F6D77081E001C054
:10359000880FDA95EAF70E94DB04C5CF80E28C0F32
:1035A000883008F6C77081E001C0880FCA95EAF735
:1035B000F2CF0F93DB0188519C4787309105A0F52E
:1035C000FC01E357F84D0C94A42606E221EE41EEEF
:1035D0006AE17CE7CD010E94751A80E00F910895A1
:1035E00007E225EE45EE6BE17CE7F4CF06E221EE43
:1035F00040EE68E17CE7EECF07E225EE44EE69E1BC
:103600007CE7E8CF06E221EE42EE6CE17CE7E2CF18
:1036100007E225EE46EE6DE17CE7DCCF08E221E033
:1036200045EE6EE17CE7D6CF15968C91882319F094
:1036300010921803D3CF81E0D1CF90931F038093D2
:103640001E0308950E94CC12811103C080911903BA
:103650000895E0911E03F0911F03309729F0019027
:10366000F081E02D0995089580E008950E94221BC5
:103670000895E0911E03F0911F03309721F002801E
:10368000F381E02D09950895E0911E03F0911F0349
:10369000309739F026E0DC012C930480F581E02D91
:1036A00009950895E0911E03F0911F03309739F0BA
:1036B00022E0DC012C930680F781E02D0995089526
:1036C000A3E0B0E0E6E6FBE10C94BA2620911C03EF
:1036D00030911D0328173907A1F090931D038093A3
:1036E0001C03E0911E03F0911F03309751F023E07B
:1036F00029839B838A830084F185E02DCE01019686
:1037000009952396E2E00C94D626A3E0B0E0EBE81E
:10371000FBE10C94BA2620911A0330911B03281761
:103720003907A1F090931B0380931A03E0911E03C5
:10373000F0911F03309751F024E029839B838A8303
:103740000084F185E02DCE01019609952396E2E0F3
:103750000C94D626CF93DF93C0910201D091030140
:1037600022960E941C1D813081F48091290387FFDD
:103770000CC0C0910001D091010122969EE180E031
:10378000915028F4DF91CF91089596E0F8CF2991D8
:103790002223B1F38F5FF4CFCF93C82F811102C0E2
:1037A00080E024C00E941C1D813011F58091290306
:1037B00087FF1EC0EC2FE695E695E695EE3180F783
:1037C0008091000190910101E80FF92FF11D2281F4
:1037D00030E0C77081E090E002C0880F991FCA9561
:1037E000E2F72823392381E0232BD1F2CF910895EA
:1037F0008091020190910301FC013296089621917B
:103800002C1721F0E817F907D1F7CACF81E0EECFE6
:103810009C01FC0132969FEF80E04191461751F0E8
:103820009F3F19F4411101C0982F8F5F8630A9F78F
:103830009F3F09F40895290F311D97FD3A95F9012D
:1038400062830895FC01329608962191261303C0E5
:10385000DF0111971C92E817F907B9F70895E62FD1
:10386000E695E695E695EE3168F4E80FF92FF11D3F
:10387000677021E030E001C0220F6A95EAF782818B
:10388000822B82830895E62FE695E695E695EE3144
:1038900070F4E80FF92FF11D677021E030E001C0EE
:1038A000220F6A95EAF720958281282322830895C2
:1038B000CF93C82F0E941C1D6C2F813061F4809122
:1038C000290387FF08C080910001909101010E94A7
:1038D0002F1CCF91089580910201909103010E94C5
:1038E000081CF7CFCF93C82F0E941C1D6C2F81306E
:1038F00061F48091290387FF08C0809100019091B5
:1039000001010E94431CCF91089580910201909182
:1039100003010E94221CF7CF0E941C1D813079F404
:103920008091290387FF0BC0E0910001F091010114
:1039300032968EE1DF011D928A95E9F70895E091B4
:103940000201F0910301329686E0F4CFDC01FB0125
:1039500011969C9111978181981322C012968C9197
:103960001297882319F0928189131AC013968C91AB
:103970001397882319F09381891312C015968C919F
:103980001597882319F0958189130AC014969C9184
:10399000992321F081E02481291303C080E001C034
:1039A00081E08170089508950E94D31C08958111CB
:1039B0000EC081E08093400160913D0170913E0115
:1039C00080913F01909140010E94D41C089582E0B3
:1039D000F1CF83E08093400160913D0170913E0101
:1039E00080913F01909140010E94D41C08950E9453
:1039F000D71C089581E08093400160913D01709152
:103A00003E0180913F01909140010E94D41C089595
:103A10000E94FA1C089591E0811101C090E09093FA
:103A20003F0160913D0170913E0180913F01909175
:103A300040010E94D41C089580913F010895809315
:103A40003E0160913D0170913E0180913F01909156
:103A500040010E94D41C089580913E0108958093F6
:103A60003D0160913D0170913E0180913F01909137
:103A700040010E94D41C089580913D01089508954D
:103A800008950E94401D0895089508950E943F1DC5
:103A90000895CF930E94441D0E943D120E94451D2F
:103AA000C0E08C2F0E941611811105C0CF5FCC3071
:103AB000C1F7CF91089581E0FCCFCF93DF93EC0164
:103AC0000E94DF1D8C1B9D0BDF91CF910895CF923B
:103AD000DF92EF92FF926B017C010E94EB1D6C194B
:103AE0007D098E099F09FF90EF90DF90CF90089598
:103AF00085B7806885BF85B7806885BF08951F92A8
:103B00001FB61F9211248F939F93AF93BF93809101
:103B10002003811113C08091490390914A03A09121
:103B20004B03B0914C034196A11DB11D80934903F5
:103B300090934A03A0934B03B0934C03BF91AF9172
:103B40009F918F911F901FBE1F90189580915103D8
:103B5000843031F10E9442031092200388E190E00A
:103B600020E40FB6F894A895809360000FBE2093D0
:103B7000600083B7817F846083BF83B7816083BF28
:103B80007894889583B78E7F83BF0FB6F894A895F5
:103B900080916000886180936000109260000FBE89
:103BA00008950E9429070E944903089582E084BD78
:103BB00093E095BD9AEF97BD80936E0008952FB75F
:103BC000F8948091490390914A03A0914B03B091DE
:103BD0004C032FBF08952FB7F8946091490370915B
:103BE0004A0380914B0390914C032FBF0895789422
:103BF0001F921FB61F9211248F939F93AF93BF9371
:103C00008091490390914A03A0914B03B0914C03DA
:103C10000196A11DB11D8093490390934A03A0937F
:103C20004B03B0934C03BF91AF919F918F911F9025
:103C30001FBE1F90189587E797E790930108809320
:103C4000000888E19AE00FB6F894A8958093600088
:103C50000FBE90936000FFCF88E19AE00FB6F89412
:103C6000A895809360000FBE90936000FFCF8EE117
:103C7000489B02C08150E1F7489BFECF08955898B9
:103C800080E28A95F1F7589A0895FC013BE03A9555
:103C9000F1F798E020E080E031E040E14A95F1F76B
:103CA000880F489B02C08160232742E04A95F1F7C4
:103CB000000040E14A95F1F7915079F790E19A952B
:103CC000F1F799B132E03A95F1F7000040E14A95F9
:103CD000F1F7917092272081920F90830895A1E0CF
:103CE000B0E0E5E7FEE10C94B62619828C017C0178
:103CF000E60EF11C0E151F0541F481E0998191112A
:103D000080E02196E6E00C94D2260E94371ECE0178
:103D100001960E94451EF80181938F01EBCF509AC6
:103D2000589A08955098589AE89AE9E6F0E0808108
:103D30008C7F808308956150770B91E001C0990FCB
:103D40006A95EAF720E031E0911108C0222391F052
:103D5000589A80E28A95F1F758980895492F482398
:103D600039F0589A232740E24A95F1F79695ECCF1F
:103D70005898F9CF5898EDCFFF920F931F93CF9398
:103D8000DF93EC018C01060F111DC017D10729F438
:103D9000CDB7DEB7E5E00C94D326F9900E943F1E24
:103DA00068E08F2D0E949B1EF0CF1F920F920FB6DE
:103DB0000F9211240F931F932F933F934F935F9371
:103DC0006F937F938F939F93AF93BF93EF93FF93E3
:103DD000CF93DF930F92CDB7DEB719820E94371EC3
:103DE000CE0101960E94451E082F06950695069560
:103DF000282F22952570902F9570290F922F937060
:103E000026952695920F982797708981982B09F00F
:103E10005CC0073008F059C080E18A95F1F7589AE4
:103E2000509A82E08A95F1F700C0589888E0089F80
:103E300080011124D801AB5FBE4F1696ED91FC9125
:103E400017973097A9F06091CA017091CB01149631
:103E50002D913C911597260F371F11968D919C91AE
:103E60001297680F791F13964C9113978C910995AF
:103E7000F801EB5FFE4F6381662351F02091CA0188
:103E80003091CB0184819581820F931F0E94BC1ECB
:103E90000E943F1E80E18A95F1F758985098589AF1
:103EA00080E18A95F1F7F801EB5FFE4F60816623B0
:103EB00051F02091CA013091CB0181819281820F12
:103EC000931F0E946F1E0E94371E0F90DF91CF91AB
:103ED000FF91EF91BF91AF919F918F917F916F91E2
:103EE0005F914F913F912F911F910F910F900FBEB6
:103EF0000F901F9018950F931F93CF93DF93EC01B2
:103F000007970CF04CC0F894509A589885E08A9521
:103F1000F1F700009C2F969595708C2F8570980F67
:103F2000892F83709695969523E0CC0FDD1F2A95F7
:103F3000E1F7980F8E01092B0E943F1E00C068E038
:103F4000802F0E949B1E80E18A95F1F75098589A25
:103F5000489B1EC087E090E048991CC0FE01EB5FC3
:103F6000FE4F63816623F9F02091CA013091CB01A5
:103F700084819581820F931F0E946F1E811113C04F
:103F8000509A589A7894DF91CF911F910F9108958C
:103F900000C0DECF019729F4509A589A789480E0B7
:103FA000F2CF00C0D9CF0E94371E80E28A95F1F788
:103FB0005898509A80E18A95F1F7CB5FDE4F68817F
:103FC000662351F02091CA013091CB0189819A81F9
:103FD000820F931F0E94BC1E0E943F1E789481E0B6
:103FE000D2CF9B01BA01909151039430E9F48F70C4
:103FF0008093E9009FEF8091E800915085FD06C015
:1040000085ED8A95F1F700009111F5CF8091E800D8
:1040100085FF0AC050E040E0C9010E94F72180916D
:10402000E8008E778093E800089543E050E0BC01FB
:1040300082E00E94F11F089546E050E0BC0182E05A
:104040000E94F11F089540E250E0BC0182E00E940E
:10405000F11F0895CF93DF93EC010E941C1D48E0EF
:1040600050E0BE0181E00E94F11F88E0FE01A1E264
:10407000B3E001900D928A95E1F7DF91CF91089519
:1040800080915003811109C00E9487230E94E4237C
:104090008091E20084608093E200089510925003C2
:1040A00008950E94FA1C81E00E940B1D0895609102
:1040B0004D0381E0611101C080E00E94E91C089578
:1040C0009091510381E0943009F080E060914D03BC
:1040D0000E94F71C089542E061EC81E00E940323F6
:1040E00042E261EC82E00E9403239091510381E05F
:1040F000943009F080E060914D030E94D71C089530
:1041000080915303833009F461C030F48130D1F1E0
:10411000823009F49EC008958A3009F48AC08B3039
:1041200009F46FC0893009F050C080915203813288
:1041300009F04BC08091560390915703029708F005
:1041400044C08091E800877F8093E8008091E80078
:1041500082FF37C09091F3008091F200029731F412
:104160008091F100813011F0863021F48091F100CE
:104170000E941F1D8091E8008B778093E8000E94C9
:10418000372323C080915203813AF9F48091E800EB
:10419000877F8093E8008091560390915703892B85
:1041A00061F468E081E293E070E00E944622809131
:1041B000E8008B778093E800089560E090E080E06D
:1041C000F3CF809151038111C1CF089580915203A3
:1041D000813AD9F78091560390915703892BA9F71B
:1041E0008091E800877F8093E8008091E80080FF5D
:1041F000FCCF0E941C1D8093F1008091E8008E7717
:10420000BCCF80915203813201F780915603909187
:104210005703892BD1F68091E800877F8093E800CF
:104220000E943723809154030E940B1D0E9429078E
:10423000089580915203813241F68091E800877F92
:104240008093E8000E943723809155030E942F1D20
:10425000089580915203813A09F0B7CF8091E80028
:10426000877F8093E8008091E80080FFFCCF0E9468
:104270003C1DC1CF84B7877F84BF0FB6F894A89543
:1042800080916000886180936000109260000FBE92
:1042900080E890E00FB6F8948093610090936100FD
:1042A0000FBE0E94081D08950E9487230E94E423E8
:1042B000E2EEF0E080818460808378940E9463263F
:1042C000089581E491E00E941D1B0895809151039F
:1042D000853031F480915103853019F00E94D11D51
:1042E00008950E94A61D0E94491D882399F380917C
:1042F0004F03882379F30E94E1210E942907EACF26
:1043000008959A0140915803509159030E948921C0
:104310000895492F55274330510519F168F441306C
:10432000510509F444C04230510509F445C090E0FC
:1043300080E050E040E025C04132510549F1423271
:104340005105A9F784E490E04FE253E0611571054F
:10435000C1F086EB90E049E752E06130710589F0E9
:10436000E6CF99278130910581F0009729F00297D7
:10437000F1F6ECEFF1E002C0E8E2F2E0849190E0C7
:10438000AF01F901518340830895E6E1F2E0F6CFF1
:1043900089E090E04EE352E06115710591F389E008
:1043A00090E047E552E06130710559F3C0CF82E1FA
:1043B00090E047E652E0E5CF8BE390E04CE252E03C
:1043C000E0CF80E189BD82E189BD09B400FEFDCF67
:1043D0008091D8008F7D8093D8008091E00082602A
:1043E0008093E0008091E00081FDFCCF0895AF92C2
:1043F000BF92CF92DF92FF920F931F93CF93DF93E1
:104400006C01EB018A010E945623F82E811123C012
:104410000115110539F0F80180819181C81BD90B74
:10442000C80ED91EB12CA12C2097A9F08091E800CC
:1044300085FD22C08091E8008E778093E800011509
:104440001105A1F0F80180819181A80EB91EB182F9
:10445000A08285E0F82E8F2DDF91CF911F910F91D3
:10446000FF90DF90CF90BF90AF9008950E945623A9
:104470008823D1F2F82EEFCFF60181916F0180935E
:10448000F1002197FFEFAF1ABF0ACECFFC01809158
:1044900058039091590386179707A0F0611571058D
:1044A00029F49091E8009E779093E80090E06115E0
:1044B000710551F4911108C08091E80082FF34C069
:1044C00080E00895BC01F2CF809151038823C1F1AF
:1044D0008530C1F18091E80083FD30C08091E80013
:1044E00082FDEACF8091E80080FFE1CF8091F30068
:1044F0002091F200382F6115710519F0283031052F
:1045000058F091E02830310509F090E02091E80062
:104510002E772093E800CBCF81918093F1006150FA
:1045200071092F5F3F4FE7CF80915103882341F0FE
:10453000853041F08091E80083FFBECF81E008958F
:1045400082E0089583E00895FC01809158039091E2
:10455000590386179707A0F06115710529F480911A
:10456000E8008E778093E80090E06115710551F4C2
:10457000911108C08091E80082FF35C080E0089565
:10458000BC01F2CF809151038823C9F18530C9F174
:104590008091E80083FD31C08091E80082FDEACF80
:1045A0008091E80080FFE1CF8091F3002091F2003C
:1045B000382F6115710519F02830310558F091E058
:1045C0002830310509F090E08091E8008E778093E3
:1045D000E800CBCF84918093F1003196615071094E
:1045E0002F5F3F4FE6CF80915103882341F0853004
:1045F00041F08091E80083FFBDCF81E0089582E023
:10460000089583E00895982F973028F08F70809355
:10461000E90081E008959093E900242F762F50E07F
:10462000981731F07091EC002091ED005091F0005E
:1046300021FD02C09F5FE8CF3091EB003E7F3093B9
:10464000EB003091ED003D7F3093ED003091EB00B9
:1046500031603093EB007093EC002093ED005093A9
:10466000F0002091EE0027FDE5CF80E008958091D5
:10467000520387FF13C08091E80082FF06C080913B
:10468000E8008B778093E80004C08091510381118A
:10469000F2CF0895809151038823D9F38091E800E7
:1046A00080FFF8CF8091E8008E77ECCF2091E40076
:1046B0003091E50095E6A9012091EC00822F8170F0
:1046C00020FF06C08091E80080FF06C080E00895CA
:1046D0002091E80022FD1AC080915103882389F0BF
:1046E000853089F08091EB0085FD0FC02091E400BA
:1046F0003091E50042175307F9F29150E1F684E05A
:10470000089582E0089583E0089581E008950E946D
:10471000F6230E94FE23E0EEF0E08081816080833A
:10472000E8EDF0E080818F77808319BCA7EDB0E0E1
:104730008C918E7F8C9380818F7E8083109250032A
:1047400008950F931F93CF93DF930E94F6230E9447
:10475000FE23C8EDD0E088818F77888388818068C8
:10476000888388818F7D888319BC109251031092B1
:104770004D0310924F0310924E0300EE10E0F8012B
:1047800080818B7F808388818160888342E060E0C4
:1047900080E00E940323E1EEF0E080818E7F808341
:1047A000E2EEF0E080818160808380818860808398
:1047B000F80180818E7F8083888180618883DF918A
:1047C000CF911F910F910895E8EDF0E080818F7EE9
:1047D0008083E7EDF0E080818160808384E082BFA8
:1047E00081E0809350030E94A1230895E8EDF0E05A
:1047F00080818E7F80831092E20008951092DA000B
:104800001092E10008951F920F920FB60F9211249B
:104810002F933F934F935F936F937F938F939F93C8
:10482000AF93BF93EF93FF938091E10082FF0BC0A2
:104830008091E20082FF07C08091E1008B7F80932E
:10484000E1000E9462268091DA0080FF19C0809109
:10485000D80080FF15C08091DA008E7F8093DA0047
:104860008091D90080FF96C080E189BD82E189BD39
:1048700009B400FEFDCF81E0809351030E944020E7
:104880008091E10080FF19C08091E20080FF15C097
:104890008091E2008E7F8093E2008091E20080614F
:1048A0008093E2008091D80080628093D80019BC88
:1048B00085E0809351030E9457208091E10084FF9E
:1048C0002BC08091E20084FF27C080E189BD82E196
:1048D00089BD89B5982F917080FFFBCF8091D8005A
:1048E0008F7D8093D8008091E1008F7E8093E100DE
:1048F0008091E2008F7E8093E2008091E2008160EF
:104900008093E20080914D03882309F449C084E03C
:10491000809351030E9460208091E10083FF29C0B1
:104920008091E20083FF25C08091E100877F809322
:10493000E10082E08093510310924D038091E100E9
:104940008E7F8093E1008091E2008E7F8093E20071
:104950008091E20080618093E20042E060E080E0CC
:104960000E9403238091F00088608093F0000E94F1
:104970005120FF91EF91BF91AF919F918F917F91C6
:104980006F915F914F913F912F910F900FBE0F90BC
:104990001F90189519BC109251030E944E2070CFA1
:1049A0008091E30087FD93E090935103B3CF1F9272
:1049B0000F920FB60F9211242F933F934F935F9353
:1049C0006F937F938F939F93AF93BF93CF93DF9317
:1049D000EF93FF93D091E900DF708091EC00C82F36
:1049E000C17080FDC0E81092E9008091F000877FDF
:1049F0008093F00078940E941B251092E90080912A
:104A0000F00088608093F000CD2BCF70C093E90058
:104A1000FF91EF91DF91CF91BF91AF919F918F91D6
:104A20007F916F915F914F913F912F910F900FBEAA
:104A30000F901F901895AAE2B0E0E1E2F5E20C9425
:104A4000B92682E593E02091F100FC012193CF018A
:104A5000F3E08A359F07B9F70E9480208091E80033
:104A600083FF1EC180915203909153039A3008F046
:104A700017C1E92FF0E0EC56F84D0C94A4268038CD
:104A800099F0823809F00CC1809156038F708730FD
:104A900008F006C18093E9008091EB0085FB882730
:104AA00080F91092E90006C080914E0390914F0367
:104AB000911182609091E800977F9093E800809335
:104AC000F1001092F1008091E8008E77E5C0882314
:104AD00009F4D3C0823009F0E3C0809154038111FE
:104AE000D6C0809156038F702FEF280F263008F024
:104AF000D7C08093E9002091EB0020FFC8C093301D
:104B000031F48091EB0080628093EB00C0C0909103
:104B1000EB0090619093EB0021E030E001C0220FA8
:104B20008A95EAF72093EA001092EA008091EB0060
:104B30008860EACF8111B4C0109154031F7780912F
:104B4000E3008078812B8093E3008091E800877FE9
:104B50008093E8000E9437238091E80080FFFCCF1B
:104B60008091E30080688093E30082E0111183E08C
:104B70008093510395C08058823008F091C0809195
:104B80005403909155038C3D23E09207A1F583E0F7
:104B90008A838AE289834FB7F894DE01139620E076
:104BA0003EE051E2E32FF0E050935700E49120FF04
:104BB00003C0E295EF703F5FEF708E2F90E0EA3018
:104BC000C0F0C7968D939D932F5F243159F74FBF47
:104BD0008091E800877F8093E8006AE270E0CE0170
:104BE00001960E9446228091E8008B778093E8002E
:104BF00057C0C096E7CF6091560370915703AE013E
:104C00004F5F5F4F0E948121BC01892B09F448C08E
:104C10009091E800977F9093E80089819A810E94A3
:104C2000A422E1CF8038E1F58091E800877F80936E
:104C3000E80080914D038093F10045CF811130C091
:104C400090915403923060F58091E800877F8093C3
:104C5000E80090934D030E94372380914D038823F1
:104C600011F084E005C08091E30087FDFACF81E078
:104C7000809351030E946B2013C0809154038130B4
:104C800079F481E0933009F080E080934F03109233
:104C9000E9008091E800877F8093E8000E94372335
:104CA0008091E80083FF0AC08091E800877F8093AD
:104CB000E8008091EB0080628093EB00AA96E3E02D
:104CC0000C94D5260895CF93809151038823A1F0A9
:104CD000C091E900CF709091EC00892F817090FD18
:104CE00080E8C82B1092E9008091E80083FD0E94C3
:104CF0001B25CF70C093E900CF9108950E948723B0
:104D0000109251030895E8EDF0E080818061808386
:104D10008AE18A95F1F700C08091D90081700895E9
:104D200097FB072E16F4009407D077FD09D00E9458
:104D3000E12607FC05D03EF4909581959F4F08959C
:104D4000709561957F4F0895EE0FFF1F0590F491C8
:104D5000E02D09942F923F924F925F926F927F9233
:104D60008F929F92AF92BF92CF92DF92EF92FF927B
:104D70000F931F93CF93DF93CDB7DEB7CA1BDB0B27
:104D80000FB6F894DEBF0FBECDBF09942A883988CC
:104D900048885F846E847D848C849B84AA84B984D3
:104DA000C884DF80EE80FD800C811B81AA81B981DF
:104DB000CE0FD11D0FB6F894DEBF0FBECDBFED01F3
:104DC0000895AA1BBB1B51E107C0AA1FBB1FA61752
:104DD000B70710F0A61BB70B881F991F5A95A9F7A4
:104DE00080959095BC01CD010895FB01DC0104C0C4
:104DF0008D910190801921F441505040C8F7881BD3
:104E0000990B0895FB01DC0102C001900D92415005
:104E10005040D8F70895F999FECF92BD81BDF89A18
:104E2000992780B50895A8E1B0E042E050E00C94E5
:104E30004F27DC01A40FB51F4150504048F0CB0173
:104E4000840F951F2E910E942A2741505040D0F781
:104E50000895262FF999FECF92BD81BDF89A01974A
:104E600000B4021639F01FBA20BD0FB6F894FA9AB2
:104E7000F99A0FBE08950396272F0E942A270E94B1
:104E80002927252F0E942A27242F0C942A270196B0
:104E9000272F0E942A270C942927DC01CB01FC0133
:104EA000F999FECF06C0F2BDE1BDF89A319600B483
:104EB0000D9241505040B8F70895F894FFCF230564
:104EC000230561056105C505E10552055205E605A5
:104ED0005706660666066D17E11775173F174317E5
:104EE000791747177D1789175317DA1757178D1733
:104EF0005B179117B9175F179517C01765179B17A1
:104F0000A3174B1781174F17851769179F17AF17EF
:104F1000C917D81739177117E817F61AFC1AE51AC6
:104F2000F01A021B081B0E1B3F256725502667251C
:0C4F300050269A25BB25502612261E266E
:104F3C008002A0020100000001000000000000003F
:104F4C000601000000000000010700000000000046
:104F5C000808000000000000000000791304100095
:104F6C000000000000280850011E0A140100000176
:104F7C00002C1D2A2023201C201520E200E900EA29
:104F8C0000B500B600B700CD008301CC008A0192B9
:104F9C000194012102230224022502260227022A5F
:104FAC0002B300B4006F0070009F01CB019F02A000
:104FBC0002818283E200E900EA00B500B600B70086
:104FCC00CD008301CC008A019201940121022302BD
:104FDC0024022502260227022A02B300B4006F0025
:104FEC0070009F01CB019F02A002818283F6F731F2
:104FFC0033323691946697C63435CE0200FF0100E9
:0C500C00010000FFFF0000010001FF0098
:00000001FF
