:100000000C9441010C945E010C945E010C945E0111
:100010000C945E010C945E010C945E010C945E01E4
:100020000C945E010C945E010C94C41C0C94981DFD
:100030000C94FA170C945E010C945E010C945E0112
:100040000C945E010C945E010C945E010C945E01B4
:100050000C945E010C9472180C945E010C945E0179
:100060000C945E010C945E010C945E010C945E0194
:100070000C945E010C945E010C945E010C945E0184
:100080000C945E010C945E010C945E010C945E0174
:100090000C945E010C945E010C945E010C945E0164
:1000A0000C945E010C945E010C945E0101005300FF
:1000B00054005500560001005F00600061005700C9
:1000C00001005C005D005E000000010059005A0064
:1000D0005B005800000062000000630000000100A7
:1000E0000100010001000100010001000100010008
:1000F00001000100010001000100010001000100F8
:1001000001000100010000000100010001000100E8
:1001100012034E0075006D006200720065007200EF
:100120006F000000100346006C006500680072005C
:100130006100640000000403090409023B0002019D
:1001400000A0FA09040000010301010009211101C6
:100150000001224400070581030800010904010091
:10016000010300000009211101000122B60007056A
:1001700082032000011201000200000008EDFE6071
:100180006001000102000105010902A101850209C7
:1001900001A1000509190129081500250195087517
:1001A0000181020501093009311581257F9502750C
:1001B00008810609381581257F9501750881060596
:1001C0000C0A38021581257F950175088106C0C08B
:1001D00005010980A101850319012AB7001501262F
:1001E000B700950175108100C0050C0901A10185BA
:1001F0000419012AA002150126A00295017510819B
:1002000000C005010906A1018506050719E029E7D7
:10021000150025019508750181020507190029EFD0
:100220001500250195F075018102050819012905C0
:10023000950575019102950175039101C0050109AC
:1002400006A101050719E029E715002501950875A4
:100250000181029501750881010507190029FF1523
:100260000026FF009506750881000508190129057B
:100270001500250195057501910295017503910100
:10028000C00011241FBECFEFDAE0DEBFCDBF11E00A
:10029000A0E0B1E0EAE9F0E402C005900D92A639D1
:1002A000B107D9F722E0A6E9B1E001C01D92A83953
:1002B000B207E1F70E9443110C940C200C9400004B
:1002C0008230B8F46530A8F4453098F450E095E0F9
:1002D000699F400D511D1124FA0199E1899FE00D9C
:1002E000F11D1124EE0FFF1FE455FF4F85919491EE
:1002F000089581E090E008950E946001089581E0F2
:1003000008950E947F0108950E947F01089581E071
:1003100008950E947F0108950E947F0108950E9420
:100320008C010895089508950E94920108950895FA
:100330000895A6E0B0E0EFE9F1E00C94681F49836E
:100340005A839E8330919D0189819A8131111AC00F
:100350003E81332399F0222389F00E94DD07182F74
:10036000682F89819A810E94B90769817A81812FDA
:100370000E94F20E2696E3E00C94841F0E94CB07A5
:10038000182FF3CF0E94DD0769817A81F1CFFC013C
:10039000262F4081518162817381848195810E94E1
:1003A00099010895CF93DF93EC0161E00E94C701AA
:1003B000BE010E948101882359F061E0CE010E94B4
:1003C000C701BE010E9484018170DF91CF91089521
:1003D00080E0FACF0F931F93CF93DF93EC0160E09F
:1003E0000E94C7018C01BE010E949301BE01C80199
:1003F0000E949401DF91CF911F910F91089521E008
:1004000030E0A90102C0440F551F8A95E2F7CA01E6
:100410000E94DB060895CF93C82F81E090E00C2E58
:1004200002C0880F991F0A94E2F70E94490C8C2F92
:100430000E94FF01CF91089581E008950E941C025F
:1004400008950E941C020895CF93C82F0E948E0623
:100450008C2F0E941E028C2F0E9421022FEF84E31A
:100460009CE0215080409040E1F700C00000CF9117
:10047000089581E00E9424020E949618089580E069
:100480000E9424020E94A71808950F931F93CF93F0
:10049000DF938C0161E00E94C701EC01B8010E946A
:1004A0008901811106C080E0DF91CF911F910F91EA
:1004B0000895B801CE010E948F018823A1F3B801ED
:1004C000CE010E946C15882371F3B801CE010E9401
:1004D000A811882341F3B801CE010E947E11882320
:1004E00011F3B801CE010E94F60F8823E1F2F80162
:1004F0008581882361F0C330FCE7DF07E9F058F419
:10050000C115ECE7DE07A9F0C130DC47B9F0C8013E
:100510000E948701C9CFCB358CE7D807A9F0CC352D
:10052000ECE7DE0771F0CA35DC4789F70E94240C3E
:10053000EECF0E943902B7CF0E942C0C0E943F02DE
:10054000B2CF0E941A0CE3CF0E94280CE0CF0E9489
:1005500097010E94CD170E94CB0208950E94CF02FE
:100560000E9498010E94D217089581E0089508958D
:10057000CF93DF93D82F0E94B502C82F882319F09C
:100580008D2F0E94B7028C2FDF91CF91089508958F
:100590000E94B802089580E00E94C80208950E9457
:1005A000B5150E94C8020895CF930E94B515C82FB3
:1005B000809198018C1779F0C09398010E94661879
:1005C0006093990170939A0180939B0190939C0191
:1005D0008C2F0E94C802CF910895ADE0B0E0E3EF08
:1005E000F2E00C94691F488759876A877B878C875C
:1005F0009D8791110E942A0B1F8286E0FE0138968A
:10060000DE01119601900D928A95E1F78D8181119D
:100610000DC029813A814B815C816D817E818F8102
:100620000E94740A2D96E2E00C94851FCE0101967B
:100630000E94D2018111EDCFF5CFFC012481213040
:1006400021F4808191810E940F080895662329F08A
:100650000E9409130E94DC1308950E946313FACFCD
:10066000CF93C82F8823C9F08238C9F40E94C215DD
:1006700081FD13C089E30E94E4160E94BE0B2FEF98
:1006800087EE93E0215080409040E1F700C00000E9
:1006900089E30E94FE160E94BE0BCF910895833815
:1006A000A1F40E94C21580FDF8CF83E50E94E416F4
:1006B0000E94BE0B2FEF81EE94E0215080409040CD
:1006C000E1F700C0000083E5E4CF8438A1F40E9484
:1006D000C21582FDE2CF87E40E94E4160E94BE0BA1
:1006E0002FEF81EE94E0215080409040E1F700C070
:1006F000000087E4CECF8CEF8C0F813A70F48C2F02
:100700000E945816882329F08C2F0E94FE160E9402
:10071000BE0B8C2F0E94E416BECF80E28C0F883077
:1007200048F4C77081E001C0880FCA95EAF70E94BB
:100730000D0BB1CFEBE5EC0FE33040F4F0E0E05B04
:10074000FE4F808190E00E94EC15A7CFE8E5EC0F0A
:10075000EB3150F4F0E0EE0FFF1FE65EFE4F8081BC
:1007600091810E94111699CF83E38C0F833108F099
:1007700094CF61E08C2F0E9426038FCF882309F449
:1007800056C0823879F40E94C21581FF50C089E3B7
:100790000E94E4160E94BE0B89E30E94FE160E948E
:1007A000BE0B0895833859F40E94C21580FF3FC0E4
:1007B00083E50E94E4160E94BE0B83E5EECF8438E9
:1007C00059F40E94C21582FF32C087E40E94E416E9
:1007D0000E94BE0B87E4E1CF9CEF980F913AE8F2BC
:1007E00090E2980F983050F4877091E001C0990F13
:1007F0008A95EAF7892F0E94130BD1CF9BE5980FBA
:10080000933028F490E080E00E94EC15089598E57C
:10081000980F9B3128F490E080E00E941116089513
:1008200093E3980F933118F460E00E942603089533
:100830001F93CF93DF93182FEB010E943003209773
:1008400039F4812F0E94BE03DF91CF911F9108954B
:100850008FE99FE00197F1F700C000002197EFCFEB
:1008600070E060E0893311F460E570E00E941804E4
:100870000895882321F00E940D0B0E94BE0B08955D
:10088000882321F00E94130B0E94BE0B0895B0E054
:10089000A0E0EDE4F4E00C94621F6C01D62FC72FAA
:1008A000FC011581068102950F700E94030BE82E52
:1008B0008823F9F0E12E1123E1F08C2F807F803422
:1008C00061F080E28D0F883008F18C2F807E8032BD
:1008D00021F4D230D8F00023C9F080917C0282FF4D
:1008E00015C082E00E94EE0B0E94030B91E0E82EFF
:1008F000E926BC2EB2949FE0B922FBE0FB15B8F1CB
:10090000EB2DF0E0E25FFF4D0C94531FE12CF1CF93
:100910000C2F0F70C07F11F00295007F112399F00A
:10092000002359F080E28D0F883010F0D11107C0FC
:10093000802F0E940D0B0E94BE0B8D2F48C0802F70
:100940000E941D0BF8CF8D2F0E94BE03002379F06B
:1009500080E28D0F883010F0D11104C0802F0E94EA
:10096000130B03C0802F0E94230B0E94BE0BEB2DA4
:10097000E850FF0B349708F06BC10E94B5150E9438
:10098000C802CDB7DEB7E9E00C947E1F2C2F2F7084
:10099000F22EC07FC03219F0F29480EFF822DD23EE
:1009A00041F0D130C9F1112309F443C00023E9F02B
:1009B000C4CF80917C0282FD14C0112359F0FF2026
:1009C00029F08F2D0E940D0B0E94BE0B80E00E942B
:1009D0003003CDCF80E00E94BE03FF2041F28F2D77
:1009E000BECF112369F0011104C08F2D0E9439047C
:1009F000BECF013009F0BBCF8F2D0E94410BB7CF86
:100A00000111B5CF8F2D0E9440048F2D0E944D0BF8
:100A10008F2D0E94310BABCF112321F0063008F04F
:100A2000A6CFE3CF053008F0A2CF8F2D0E9440045F
:100A30009ECF0023D1F3D93349F43FEF87EE93E003
:100A4000315080409040E1F700C000008D2F0E949F
:100A5000BE038DCF8C2F86958695837069F081308B
:100A600009F085CF8D2F9C2F9370111102C080E06B
:100A700090E00E9411167BCF8D2F9C2F9370111147
:100A800002C080E090E00E94EC1571CF612F8D2FA5
:100A90000E9426036CCF8C2F8370A1F5111167CFB4
:100AA0004D2F429546954770440F440F2D2F2F70C0
:100AB00030E0042E02C0220F331F0A94E2F790E0C8
:100AC00080E0D4FF09C08FE090E002C0880F991F3A
:100AD0004A95E2F780959095C695C695C370822B8E
:100AE000932BC23049F058F4C13019F00E94E70648
:100AF0003ECF0E94DE063BCF0E94F00638CF0E9418
:100B0000DB0635CF8695112311F08C2F8170882359
:100B100009F42DCF4D2F429546954770440F440F51
:100B20002D2F2F7030E0042E02C0220F331F0A94A5
:100B3000E2F790E080E0D4FF09C08FE090E002C0CF
:100B4000880F991F4A95E2F780959095C695C695AE
:100B5000C370822B932BC23049F058F4C13019F086
:100B60000E94520704CF0E94490701CF0E945B07F1
:100B7000FECE0E94FF06FBCECF70112329F08C2FF2
:100B80000E9417078D2F32CF8D2F0E9440048C2F8B
:100B90000E942707ECCED23F41F160F4D03FB9F07C
:100BA000D13F81F0112309F443C00111C6CE8C2F2F
:100BB0008F711FC0D33F01F1D43FA1F780917C0218
:100BC00082FD24C08C2F8F71112311F312C01123C9
:100BD00041F0053008F0CBCE8C2F8F710E94390781
:100BE000C6CE063008F0C3CEF7CF8C2F8F7111110F
:100BF000CFCF0E941707BBCE112329F08C2F8F7106
:100C00000E940B07B4CE0E940607B1CE112331F02B
:100C100063E08C2F8F710E94D00BA9CE81E00E94DF
:100C2000EE0B023008F4A3CE82E00E94EE0B9FCEC2
:100C3000002359F0D93309F009CFEFEFF7EE23E0A5
:100C4000E150F0402040E1F7FFCE8C2F8F71A0CF14
:100C5000EE2009F496CE0E94FF0A80FD92CEF601A6
:100C600015820E94F90A0E941707C6010E945506C4
:100C70000E94F90A0E94270784CE0F931F93CF93F7
:100C8000DF93EC01688179818D810E941A088C01C3
:100C90000E9464070E94DA06B801CE010E94470450
:100CA000DF91CF911F910F910895CF93DF93EC01C6
:100CB0008C81882399F0CE010E944502811111C0D8
:100CC0000E94030B882351F08D81882339F0809195
:100CD0007C0282FF03C082E00E94EE0BDF91CF9185
:100CE0000895CE010E943D06CE010E94EA01F6CF92
:100CF00090E080E00E94EC1590E080E00E941116E8
:100D00000E942A0B0E94BE0B0E94F8130E94DC1363
:100D100008950E9418170E94780608950E941A0BE1
:100D20000E948906089592959F70963091F058F42C
:100D3000925F9F70923058F4803F19F030F4883EF3
:100D400030F481E008959A5FF4CF843FD1F380E0DE
:100D50000895883EB0F3813FD1F7F3CFFC012481A1
:100D6000222339F0808191810E940F080E9493060E
:100D7000089580E00895A6E0B0E0E1ECF6E00C9480
:100D8000691F2696E2E00C94851FA7E0B0E0EBEC2B
:100D9000F6E00C94691F2796E2E00C94851F0895F5
:100DA0000E94CF0608950E94D0069093B1018093CF
:100DB000B001089508950E94D30608952091B001CE
:100DC0003091B101822B932B0E94D306089520917C
:100DD000B0013091B101822393230E94D30608957C
:100DE0002091B0013091B101822793270E94D30650
:100DF00008950E94CF0608950E94F90608950E9462
:100E0000FC069093AF018093AE01089590E080E0DE
:100E10000E94FF06089521E030E0A90102C0440FBE
:100E2000551F8A95E2F7CA010E94FF06089521E046
:100E300030E002C0220F331F8A95E2F78091AE01A5
:100E40009091AF01822B932B0E94FF06089521E021
:100E500030E002C0220F331F8A95E2F720953095CB
:100E60008091AE019091AF01822393230E94FF06EF
:100E7000089521E030E002C0220F331F8A95E2F787
:100E80008091AE019091AF01822793270E94FF06C7
:100E900008952091AE013091AF01822B932B0E94D7
:100EA000FF0608952091AE013091AF018223932374
:100EB0000E94FF0608952091AE013091AF01822774
:100EC00093270E94FF0608950895262F277091E02A
:100ED00001C0990F2A95EAF723E0769567952A9540
:100EE000E1F7660F771F660F771FFA01E60FF71F0E
:100EF00050E040E0682F70E08191DF0111979B0185
:100F0000042E02C0369527950A94E2F721702195A8
:100F10002827292328272C934F5F5F4F4430510502
:100F200059F70895A82FA77023E0969587952A95DD
:100F3000E1F7880F991F880F991FFB01E80FF91F30
:100F400050E040E080E0219130E00A2E02C036956A
:100F500027950A94E2F721703327042E01C0220F4F
:100F60000A94EAF7822B4F5F5F4F4430510559F7DF
:100F70000895262F953070F4853060F4682F70E066
:100F800085E0989F600D711D11244EE951E0822F7C
:100F90000E9465070895292F953068F4853058F42C
:100FA00090E06EE971E035E0239F800D911D1124E2
:100FB0000E949207089580E00895B0E0A0E0E3EE7B
:100FC000F7E00C94621F7C010091AE011091AF011B
:100FD0008091B0019091B101082B192BCFE0D0E0A6
:100FE000CC24C394D12CBC2EC6010C2E02C0880F79
:100FF000991F0A94E2F780239123892B49F42197C2
:1010000090F7B12C8B2DCDB7DEB7E9E00C947E1FA5
:10101000B7018C2F0E94FE0E019789F3F3CFCF9377
:10102000DF93EC010E94DD07BE010E94FE0EDF91FE
:10103000CF9108951F93CF93DF93EB0190919D0182
:10104000992339F0CB010E940F08DF91CF911F91B6
:101050000895882369F0CB010E94DD07182F682FBF
:10106000CE010E94B907BE01812F0E94FE0EEDCF76
:10107000CB010E94CB07182FF6CF1F93CF93DF939E
:10108000C091B20117E08091B3018C1304C0DF91CD
:10109000CF911F910895D0E01C9FF0011D9FF00D8E
:1010A0001124EC54FE4F20813181428153816481AF
:1010B000758186810E94C5062196C770E4CF209174
:1010C000EC013091ED014091EE015091EF01609102
:1010D000F0017091F1018091F2010E94C50608951E
:1010E000CF93DF938091F201807F09F04DC0809112
:1010F000F101882309F448C0E091B2015091B30195
:10110000C091ED01D091EC016091EE017091EF0181
:1011100047E05E17C9F18E2F90E0E49FF0011124A3
:10112000EC54FE4F2481222391F1489FF001499F06
:10113000F00D1124DF01AC54BE4F11962C91119784
:101140002C1325C02C912D1322C015962C91159788
:1011500021111DC012962D913C91261B370B283C66
:101160003105A8F48091F2018F7080618093F201C3
:10117000E654FE4F80818F70806180838CEE91E019
:101180000E9455060E943D08DF91CF910895FC0111
:101190003196E770BECF482F2091B2019091B301F4
:1011A00057E0291302C080E0089530E0529FF0011B
:1011B000539FF00D1124EC54FE4F8181681306C03B
:1011C0008081481303C085818111EECF2F5F3F4F8F
:1011D0002770E7CFA4E1B0E0E0EFF8E00C945F1FE8
:1011E0008C0186E0F801DE011F9601900D928A9530
:1011F000E1F7F8018481E5809CEEA92E91E0B92EFB
:101200009091F00191111FC08823D1F0EE20A9F038
:10121000C8010E94AE06F82E882379F087E0F80115
:10122000D50101900D928A95E1F7C5010E941D0339
:101230000E9470080E945F085FC0C8010E945506A6
:10124000FF24F39459C0C080D18082809380F090B5
:10125000F1012091EE013091EF01A401421B530BEB
:10126000FF2009F4F9C0483C510508F0A7C08823C5
:1012700009F442C09091ED018091F201282F207F66
:1012800009F05CC09D1116C09091EC01C91212C00A
:10129000E1104EC08F7080618093F2010E945F0860
:1012A0008CEE91E00E9455068091F201F801868350
:1012B000F12C22C0E1103CC06D2D8C2D0E94CB087A
:1012C0006D2D8C2D0E94CB08E82E8111F1CFCF8699
:1012D000D88A8F8598890E940F08292F22952F7010
:1012E000243078F49F702230A8F09923B9F0F801E7
:1012F0009681907F99F4FE2C8F2D6496ECE00C94EF
:101300007B1F2A5F2F70223068F0C8010E945506AB
:10131000EF2CF1CF992311F0882369F3805E883098
:1013200050F3F3CF803F38F3815F833070F7E3CF22
:101330008091F20181608093F201BACF9D1113C0B8
:101340009091EC01C9120FC0E1100DC08683C80155
:101350000E94550687E0F801ACEEB1E001900D92D5
:101360008A95E1F767CFC8010E94AE06882309F489
:1013700064CFEE2009F461CF8091F201803288F0D1
:101380002091EC013091ED01398728879B868A8670
:101390009091F0019C871D868E87CE0108960E9451
:1013A000550687E0F801ACEEB1E001900D928A9508
:1013B000E1F70E9470080E945F0842CF9091F2010D
:1013C000292F207FA1F4682D9A8A898AA6017A891B
:1013D0009E2D0E94BB068CEE91E00E94550687E090
:1013E000F50111928A95E9F70E945F0861CF882381
:1013F00009F482CF8091ED018D1110C08091EC0134
:10140000C8120CC0E1100AC09683C8010E9455069C
:1014100087E0F50111928A95E9F76ECFC8010E9425
:10142000AE06882309F409CFEE2009F406CF809197
:10143000F201803208F4B5CF2091EC013091ED013A
:101440003A8329839C828B829091F0019D831E8236
:101450008F83CE010196A3CF483C5105B8F5882370
:1014600009F4EECEFE2CEE2009F4E7CE8091ED01DA
:101470008D111EC08091EC01C8121AC08091F2013A
:1014800080FD0DC0982F907F51F08683903F09F426
:101490005ECF982F907F905F8F70892B57CF87E01A
:1014A000F801ACEEB1E001900D928A95E1F724CFFE
:1014B000C8010E94AE06811174CF8091F201816053
:1014C0008093F201C8010E94550616CF682D9A8AB2
:1014D000898AA6017A899E2D0E94BB0687E0F501C4
:1014E00011928A95E9F7A6CEAEE0B0E0EAE7FAE01D
:1014F0000C94681F288739874A875B876C877D87AC
:101500008E87CE0108960E94EA088823B1F06C8588
:10151000662341F0288539854A855B857D858E85E2
:101520000E94C50617E08091B2019091B301891322
:101530003DC02E96E3E00C94841F87E0FE013896B0
:10154000DE01119601900D928A95E1F78C85882332
:1015500049F32091B30130E0C901019687709927C2
:101560004091B2014817190699F097E0929FD00177
:10157000939FB00D1124AC54BE4FFE0131960190E3
:101580000D929A95E1F78093B3010E943D08CACF6E
:101590000E948E061092B3011092B20187E0ECEE29
:1015A000F1E0DF011D928A95E9F7BCCF819FC00170
:1015B00011248C549E4F0E94EA08882309F4B9CF65
:1015C000E091B2011E9FF0011124EC54FE4F2081E6
:1015D0003181428153816481758186810E94C50673
:1015E0008091B20190E00196877099278093B201B3
:1015F0009ACF80911B028695869586950895809155
:101600001B028770089590911B02977081E009F486
:1016100080E0089580914702089590914702892BB8
:101620008093470208958095909147029823909364
:101630004702089510924702089590914602892B1F
:101640008093460208958095909146029823909346
:101650004602089510924602089508950E942D0BA7
:10166000089590911C02292F282331F08095892319
:1016700080931C020E942E0B089508950E943D0B3A
:10168000089590911D02292F2823281729F0982BBF
:1016900090931D020E943E0B089590911D02292FE8
:1016A000282331F08095892380931D020E943E0BF0
:1016B000089580911D02882329F010921D0280E078
:1016C0000E943E0B0895CF93C0914702809146023D
:1016D000C82B80911D02882331F0C82B0E9436163A
:1016E00081110E94590B8C2FCF910895CF93DF93D6
:1016F000C0910201D09103010E94630B8883C091C5
:101700000201D091030148E050E063E172E0CE01B4
:101710000E94A41F892B59F088E0FE01A3E1B2E0EA
:1017200001900D928A95E1F7CE010E94C515DF91D7
:10173000CF910895CF93DF93C0910001D091010123
:101740000E94630B8983C0910001D091010140E2A6
:1017500050E063EF71E0CE010E94A41F892B59F085
:1017600080E2FE01A3EFB1E001900D928A95E1F7CE
:10177000CE010E94D015DF91CF9108950E94A81745
:10178000813039F480917B0287FF03C00E949A0B5D
:1017900008950E94760B089508950E94CC0B089539
:1017A00090917C0292FF11C098E0899F90011124D2
:1017B000622B60931B020E94170780911B02869583
:1017C000869586950E94CD0B08950E94170708956F
:1017D00010921B0280E00E94CD0B089590911B0295
:1017E0008095892380931B02282F277069F489171D
:1017F00059F090917C0292FF07C086958695869558
:101800000E9427070E94E80B089590917C0292FBAA
:10181000222720F9281769F080FB92F990937C0227
:1018200080917B0290917C020E94540C82E00E9485
:10183000EE0B089580917C0282FB882780F991E06D
:1018400089270E94050C089581E00E94050C0895E7
:1018500080E00E94050C08956FEF7FEF90E080E03C
:101860000E94F61F089590E080E00E94C21F21E0D0
:10187000853E9E4F09F020E0822F089582E090E09F
:101880000E94BA1F089583E090E00E94BA1F90E082
:101890000895682F83E090E00E94D81F089584E0A7
:1018A00090E00E94C21F0895BC0184E090E00E9475
:1018B000F61F0895AB01BC018FE090E00E94EA1F83
:1018C0000895AB01BC0183E190E00E94EA1F0895F6
:1018D00060E070E0CB010E94610C089560E070E070
:1018E000CB010E945A0C0E94680C0895A8E0B0E059
:1018F000ECE7FCE00C94691F65EE7EEF90E080E081
:101900000E94F61F60E082E090E00E94D81F81E014
:1019100090E09093B1018093B0010E94490C60E087
:1019200074E184E090E00E94F61F60E086E090E0C1
:101930000E94D81F60E087E090E00E94D81F40E03E
:1019400050E0BA0188E090E00E94EA1F60E083E284
:1019500090E00E94D81F60E08CE090E00E94D81FC9
:1019600060E08DE090E00E94D81F19821A821B82ED
:101970001C821D821E821F82188648E050E067E1AB
:1019800070E0CE0101960E94C81F40E050E0BA010D
:101990008FE190E00E94EA1F0E946E0C2896E2E020
:1019A0000C94851F0E94760C0895682F8EE090E0BD
:1019B0000E94D81F0895A6E0B0E0E1EEFCE00C9490
:1019C000671F0E945A188C01809148029091490229
:1019D0008017910781F019821A820E945A18682F85
:1019E00049815A81792F80E090E00E94ED021093A6
:1019F0004902009348022696E4E00C94831F0E945B
:101A0000661860935302709354028093550290932A
:101A1000560260934F02709350028093510290934C
:101A200052020895089508950E94120D0895089590
:101A30000E94170D0E94140D089508950E941D0D17
:101A4000089508950E94210D0E941E0D089584EFAF
:101A50009FE00E9458110E94130D0E94180D0895D6
:101A600081E008950E94300D08950E94300D089580
:101A70000895089508950E94380D0E94390D0E941E
:101A80003A0D08950E94330C811102C00E94D20CBD
:101A90000E943E0C809357020E944F0C90937C0250
:101AA00080937B020E947B110E94430C0E94DB0604
:101AB0008091AE019091AF010E94FC0608950E94B2
:101AC00051180E94B5100E94420D0E94C7020E9448
:101AD000220D0895A6E0B0E0E0E7FDE00C94601F61
:101AE0000E94320D81110AC00E94DB0C0E941A1460
:101AF0000E94D4022696EBE00C947C1F0E94CB102F
:101B00008AE4A82E82E0B82E750110E0F701019159
:101B10007F01812F0E9410101F5F153009F441C012
:101B20000817A1F38091570281FD0E9416100E94B0
:101B3000350DC82E10E099249394812F0E94101027
:101B4000082FF50181915F01081729F1F12CEE248E
:101B5000E394D02ED8268D2D8E21A9F0CC2099F09B
:101B6000F9821A830E945A189C838B839D8291E08C
:101B7000802F8E2109F490E049815A816B817C810C
:101B80008D810E94ED02F394EE0CF5E0FF12E3CF9D
:101B9000F501319700831F5F153079F60E94FF0C25
:101BA000A5CF0813BFCFA0CF1F93CF93DF930E9481
:101BB000030FEC01C11580E5D807F0F5C11580E4ED
:101BC000D80708F09CC0C03ED10520F5CD3CD1051A
:101BD00008F082C0C83AD10578F4C53AD10508F0BA
:101BE00073C0C130D10519F1209709F1C430D10576
:101BF000F0F4D0E0C0E01BC0C33CD105D0F7C85A18
:101C0000D0E0CC0FDD1FCD5ADE4F0990D881C02D1A
:101C1000D4640DC0C11580E2D80708F0D1C0C11549
:101C200081E0D80708F05AC0C83ED10510F7CE01B0
:101C3000DF91CF911F910895C03682E5D80718F53E
:101C4000C03482E5D80708F06BC0C03282E5D807FF
:101C500008F05FC0C11582E5D80708F497C02C2FA3
:101C60002695269580E2289F900111248C2F837061
:101C7000C1E0D0E002C0CC0FDD1F8A95E2F7C22B95
:101C8000D32BDD68D4CFC03A82E5D80760F4C038E2
:101C900082E5D80708F459C0CF71D0E0DC2FCC27FB
:101CA000C46FD06AC4CFC03C82E5D80708F462C0D4
:101CB000C03E82E5D80708F09CCFDC2FCC27CC278C
:101CC000DF71C06FD06AB3CFC55AD0E0C757DE4FBF
:101CD000C881D0E0D064ABCFD065A9CF8D2F0E9452
:101CE000A50F182FCE0199270E94030FC12FD0E016
:101CF000DC2FCC27CC27DF71C82BD92B98CFCE0176
:101D000099270E94030FCC27DF70C82BD92BD06AEC
:101D10008ECFCF71D0E0DC2FCC27C16FD06A87CFB8
:101D20002C2F26952695277080E2289F900111245C
:101D30008C2F8370C1E0D0E002C0CC0FDD1F8A95EC
:101D4000E2F7C22BD32BDC6872CF2C2F2695269579
:101D5000277080E2289F900111248C2F8370C1E0AE
:101D6000D0E002C0CC0FDD1F8A95E2F7C22BD32B47
:101D7000DA685DCF8C2F8F710E94A50FC82FD0E03D
:101D8000DC2FCC27CC27DF71D06251CF8C2F8F7105
:101D90000E94A50F55E0D695C7955A95E1F7CF70EB
:101DA000D0E0DC2FCC27282F30E084FF05C044E0B2
:101DB000220F331F4A95E1F7C22BD32BD06937CFBF
:101DC0008D2F8F710E94A50F182FCE0199270E9489
:101DD000030FC12FD0E0DC2FCC27CC27DF71C82B1D
:101DE000D92BD2CF462F753030F4653020F4672FD1
:101DF0000E947C01089590E080E008950E94F20E18
:101E00000E94D40D089582389105B9F1B0F4813360
:101E1000910509F47DC048F48932910509F46DC03B
:101E20008A32910509F47BC008958533910509F440
:101E30005FC08933910509F10895833E9105D9F179
:101E400038F4803E910529F1823E910579F108959B
:101E5000863E9105D9F1873E910509F43EC0843E46
:101E6000910541F520917C0221FF24C080917B02E5
:101E700084FD19C087EE90E0089520917B022370C5
:101E800009F05AC020917C0223FF14C089E290E03F
:101E9000089520917B0220FD38C030917C0230FFF4
:101EA00009C024FF43C090E080E0089520917B02A8
:101EB00022FDF7CF089520917B0222FD3AC0309198
:101EC0007C0230FD39C024FFF5CFEDCF20917B029D
:101ED00023FFF0CF24FDE7CFCDCF20917B0223FD60
:101EE0002EC030917C0231FFEECF84EE90E0089559
:101EF00020917B0225FFDECFC9CF20917B0225FDFB
:101F000021C020917C0223FFD5CF89E390E0D2CF7E
:101F100020917B0226FFCECF8AE290E008952091A7
:101F20007B0226FFC7CF81E390E0089583EE90E027
:101F3000089582EE90E0089580EE90E0089586EE98
:101F400090E0089585E390E0089590917B0292FFE0
:101F500010C041E0282F2471243009F040E031E026
:101F6000282F2871283009F030E0431711F02CE0B9
:101F7000822793FF10C041E0282F2471243109F0FB
:101F800040E031E0282F2871283109F030E0431774
:101F900011F02CE0822730917C0230FF10C051E01C
:101FA000282F2171213009F050E041E0282F2871BD
:101FB000283009F040E0541711F029E0822731FF62
:101FC00010C041E0282F2171213109F040E031E0BB
:101FD000282F2871283109F030E0431711F029E04B
:101FE000822794FD877E089580E00895CF939C0119
:101FF000205E3245C1E02032310538F4FB01C58155
:10200000C11103C08F710E940B028C2FCF910895D4
:1020100008950E940810089508950E940C100895D4
:10202000E82FF0E0EE57FD4F80810895089580EA93
:102030008A95F1F7089500C008950E941710089539
:10204000F894E82FE295EF70F0E031A1282F2F707F
:1020500081E090E001C0880F2A95EAF7982F9095CB
:10206000932391A392A1892B82A3789408950F932F
:102070001F93CF93DF93C1E9D1E089918F3F11F096
:102080000E94201081E0C639D807B9F7CCE8D1E02A
:1020900001E911E089918F3F11F00E9420100C1787
:1020A0001D07C1F7DF91CF911F910F910895B0E007
:1020B000A0E0EDE5F0E10C94631FEC01D62E062FB5
:1020C00010E0C8018F569E4F7C01FC0180818F3F3C
:1020D00009F444C0F894E82FE295EF70F0E091A184
:1020E0008F7021E030E001C0220F8A95EAF7892F36
:1020F000822B81A382A12095282322A378940E9479
:102100001B10ECE8F1E031E0C12C21912F3F59F197
:10211000A22FA295AF70B0E090968C9190E02F70B6
:1021200002C0959587952A95E2F780FD1CC0832F04
:10213000C82A330F81E0E139F80739F7F7018081C8
:102140008F3F11F00E94201061E0C11001C060E0DB
:102150008D2D0E941D10C00FD11FC882CDB7DEB7D4
:10216000E8E00C947F1F80E0E3CF0E94371085E009
:10217000E2E8F2E0DF01982F1D929A95E9F7EDE78A
:10218000F2E0DF011D928A95E9F785E00E940611D1
:102190000E9409100895A5E0B0E0E1EDF0E10C9493
:1021A000661F8E010F5F1F4F85E0F80111928A951F
:1021B000E9F7F12C6F2DC8010E945710F394F5E058
:1021C000FF12F8CF45E050E0B8018DE792E00E94A1
:1021D000A41F21E0009709F420E0892B41F085E05D
:1021E000F801ADE7B2E001900D928A95E1F745E084
:1021F00062E872E08DE792E00E940711182F0E94BA
:102200000D10812F2596E5E00C94821F0895B0E013
:10221000A0E0EDE0F1E10C94631F6C017B01042F61
:10222000C22F222379F081E080935A020E945A182B
:10223000909359028093580280E0CDB7DEB7E8E072
:102240000C947F1FD0915A02DD23B1F38091580284
:10225000909159020E94E917059770F310E0A801C8
:10226000B601C7010E94A41F892B31F0A801B60155
:10227000C7010E94B11FCD2F10925A028C2FDDCFC3
:102280000E946A0D08950E94F3170E94FB190E9494
:10229000270D0E94151A0E945F0D0E94221A0E94AB
:1022A000271A0E9440110E94411A0E943B0DF7CF4D
:1022B000909397018093960108950E942C0C0895A5
:1022C00080E00E941010817008950E94CB102FEFC3
:1022D00086E791E0215080409040E1F700C0000087
:1022E0000E94CB100E946011882321F00E945D1192
:1022F0000E94961808950E9465110895CF93DF9368
:10230000EB0186319C4711F50E940A0B9D819923B0
:1023100099F08A7A91E009F490E090935B02811140
:1023200009C089E20E94E4160E94BE0B80E0DF91A2
:10233000CF91089585E3F6CF80915B02811104C0AF
:1023400089E20E94FE16F0CF85E3FBCF81E0EFCF5C
:10235000CF93DF93EC01FB018581882309F4D2C080
:102360009E0130572332310508F0B2C00E944F0C55
:1023700090937C0280937B02FE01E150F047E232B1
:10238000F10520F4E65EFF4D0C94531F80917B0213
:10239000816080937B0293C080917C0288608093EF
:1023A0007C028DC080917B028260F3CF80917B02A2
:1023B0008460EFCF80917B028860EBCF80917C02BC
:1023C0008160EDCF80917C028260E9CF80917B02B9
:1023D0008061DFCF80917B028062DBCF80917B02C6
:1023E0008064D7CF0E948E0680917B028068D1CF17
:1023F00080917B028C60CDCF80917C028360CFCFB7
:1024000080917B028E7FC5CF80917C02877FC7CF72
:1024100080917B028D7FBDCF80917B028B7FB9CF76
:1024200080917B02877FB5CF80917C028E7FB7CF72
:1024300080917C028D7FB3CF80917B028F7EA9CF6C
:1024400080917B028F7DA5CF80917B028F7BA1CF76
:102450000E948E0680917B028F779BCF80917B02BA
:10246000837F97CF80917C028C7F99CF80917B0274
:1024700082FB992790F921E0922790FB82F990FB4B
:1024800083F987CF80917C02982F909591708E7FF1
:10249000892B90FB81F983CF90917B02892F8F7BD1
:1024A00096FF806476CF0E948E0690917B02892FE2
:1024B00097FB87F980586DCF81E00E94D50C809101
:1024C0007B0290917C020E94540C0E948E0680E058
:1024D000DF91CF91089580E0F0CF90917B02892F1A
:1024E0008F7E94FF806155CF90917B02892F8E7FE4
:1024F00090FF81604ECF90917C02892F877F93FF60
:1025000088604DCF81E0E4CF282F35EB2303C00155
:10251000112497FF04C080589109892F089580588D
:102520009F4FFBCF8091620280FF0DC06091090137
:1025300070E0660F771F6038710570F561157105E1
:1025400069F1862F089581FF07C06091090184E039
:10255000689FB0011124EFCF6091090182FD0AC08C
:10256000809161028823A9F02091080160910901FE
:10257000821710F088E0ECCF869FC001112433E071
:10258000880F991F3A95E1F7622F70E00E943F1F74
:10259000D2CF68E070E0D5CF8FE7089581E008954D
:1025A0008091620280FF0CC06091050170E075951A
:1025B0006795759567956115710549F1862F0895A1
:1025C00081FF06C06091050170E075956795F3CFB6
:1025D0006091050182FD0BC0909160029923A1F0EA
:1025E0006091040180910501961738F0682F70E022
:1025F0006038710500F38FE70895899FC0011124A9
:1026000070E00E943F1FF4CF61E070E0D7CF81E01F
:1026100008958D3C31F40E94921281958093660258
:1026200008958E3C19F40E949212F8CF8F3C31F439
:102630000E9492128195809365020895803D19F45D
:102640000E949212F8CF893D29F40E94D012809303
:10265000670208958A3D21F40E94D0128195F7CF38
:102660008B3D31F40E94D0128195809368020895C9
:102670008C3D19F40E94D012F8CF9FE2980F983049
:1026800070F4815D990B21E030E001C0220F8A9542
:10269000EAF780916402822B8093640208958D3D55
:1026A00031F48091620281608093620208958E3DD0
:1026B00021F4809162028260F7CF8F3DB9F780915B
:1026C00062028460F1CF409165028D3C59F48091A3
:1026D000660287FF0DC01092660241110BC0109276
:1026E000610208C08E3C81F48091660218169CF34A
:1026F000442381F08091670290916802892B09F050
:102700005AC01092600208958F3C49F447FFF0CF01
:1027100010926502809166028111ECCFE0CF803D7E
:1027200019F41416ACF3E4CF90916702893D29F4B3
:102730001916F4F610926702DBCF8A3D19F497FF61
:10274000D7CFF8CF909168028B3D29F497FFD0CF77
:1027500010926802CDCF8C3D19F41916CCF3C8CF76
:102760009FE2980F983090F4815D990B21E030E062
:10277000B90102C0660F771F8A95E2F7CB018095F9
:1027800090916402892380936402B2CF8D3D31F42D
:10279000809162028E7F80936202AACF8E3D21F4E7
:1027A000809162028D7FF7CF8F3D09F0A1CF80919C
:1027B00062028B7FF0CF08950E945A189C0190917D
:1027C000650280916602982B21F030935F0220937E
:1027D0005E029091670280916802982B21F03093FD
:1027E0005D0220935C0283E692E00E94DE1508956C
:1027F00086E0E3E6F2E0DF011D928A95E9F71092A8
:10280000610210926002109262020895FC018281BE
:1028100081110EC0838181110BC08481811108C098
:1028200091E08581811101C090E0892F8170089528
:1028300081E0FCCFA6E0B0E0E0E2F4E10C94681F98
:1028400086E0E3E6F2E0DE01119601900D928A95B2
:10285000E1F71092650210926602109267021092E0
:1028600068028B819C81892B89F080915E02909116
:102870005F020E94E917AC01909161029923C9F1AE
:1028800080910A018417150608F440C08D819E814D
:10289000892B91F080915C0290915D020E94E91772
:1028A000AC0190916002992309F46AC080910601FD
:1028B0008417150608F472C0BE016F5F7F4F83E670
:1028C00092E00E943217811105C083E692E00E94D7
:1028D000061481110E94DC1386E0FE013196A3E606
:1028E000B2E001900D928A95E1F72696E3E00C9410
:1028F000841F20910B018AE0289F90011124241746
:10290000350720F69F5F9093610202C09F3FD1F789
:102910001B81112359F00E9492129FEF11160CF4A3
:1029200091E0899F802D1124809365021C811123E1
:1029300059F00E9492129FEF11160CF491E0899FBA
:10294000802D11248093660280916502882309F40A
:102950009DCF10916602112309F498CF0E94841232
:10296000882351F080936502812F0E94841288236E
:1029700029F0809366028ACF81E0F4CF81E0F9CF1D
:10298000209107018AE0289F900111242417350720
:1029900008F092CF9F5F9093600202C09F3FD1F7F3
:1029A0001D81112359F00E94D0129FEF11160CF4D3
:1029B00091E0899F802D1124809367021E8111234D
:1029C00059F00E94D0129FEF11160CF491E0899FEC
:1029D000802D11248093680280916702882309F476
:1029E0006BCF10916802112309F466CF0E94841204
:1029F000882351F080936702812F0E9484128823DC
:102A000029F08093680258CF81E0F4CF81E0F9CFBC
:102A10000F931F93CF93DF93C42FD22FFC01858197
:102A20008823C9F040936B020E945A1890936A025F
:102A30008093690280E28C0F883040F4C77081E097
:102A400001C0880FCA95EAF70E943904DF91CF913F
:102A50001F910F91089510916B02141332C0809151
:102A6000690290916A020E94E917883C910548F535
:102A7000C0E2CD0F1D17B9F080E2810F883040F41D
:102A8000177081E001C0880F1A95EAF70E94400490
:102A9000C83048F481E09D2F977001C0880F9A9547
:102AA000EAF70E943904802F0E943004C83070F683
:102AB000D77081E001C0880FDA95EAF70E944004E0
:102AC000C5CF80E28C0F883008F6C77081E001C066
:102AD000880FCA95EAF7F2CF0F93DB0188519C4724
:102AE00087309105A0F5FC01E45CFF4D0C94531F69
:102AF00006E221EE41EE6AE17CE7CD010E94081575
:102B000080E00F91089507E225EE45EE6BE17CE74A
:102B1000F4CF06E221EE40EE68E17CE7EECF07E27B
:102B200025EE44EE69E17CE7E8CF06E221EE42EED5
:102B30006CE17CE7E2CF07E225EE46EE6DE17CE753
:102B4000DCCF08E221E045EE6EE17CE7D6CF1596BA
:102B50008C91882319F010926B02D3CF81E0D1CFF2
:102B600090937102809370020895E0917002F09149
:102B70007102309729F00190F081E02D09950895B8
:102B800080E008950E94B5150895E0917002F091DB
:102B90007102309721F00280F381E02D09950895AC
:102BA000E0917002F0917102309739F026E0DC017B
:102BB0002C930480F581E02D09950895E091700231
:102BC000F0917102309739F022E0DC012C930680FD
:102BD000F781E02D09950895A3E0B0E0E2EFF5E17B
:102BE0000C94691F20916E0230916F0228173907EB
:102BF000A1F090936F0280936E02E0917002F091C9
:102C00007102309751F023E029839B838A830084EB
:102C1000F185E02DCE01019609952396E2E00C9412
:102C2000851FA3E0B0E0E7E1F6E10C94691F209175
:102C30006C0230916D0228173907A1F090936D0254
:102C400080936C02E0917002F0917102309751F024
:102C500024E029839B838A830084F185E02DCE01C3
:102C6000019609952396E2E00C94851FCF93DF939C
:102C7000C0910201D091030122960E94A8178130D1
:102C800081F480917B0287FF0CC0C0910001D0913C
:102C9000010122969EE180E0915028F4DF91CF91CE
:102CA000089596E0F8CF29912223B1F38F5FF4CFF6
:102CB000CF93C82F811102C080E024C00E94A817C2
:102CC000813011F580917B0287FF1EC0EC2FE695C5
:102CD000E695E695EE3180F7809100019091010133
:102CE000E80FF92FF11D228130E0C77081E090E0FC
:102CF00002C0880F991FCA95E2F72823392381E083
:102D0000232BD1F2CF91089580910201909103017C
:102D1000FC013296089621912C1721F0E817F9074B
:102D2000D1F7CACF81E0EECF9C01FC0132969FEF34
:102D300080E04191461751F09F3F19F4411101C0C5
:102D4000982F8F5F8630A9F79F3F09F40895290FC8
:102D5000311D97FD3A95F90162830895FC01329681
:102D600008962191261303C0DF0111971C92E817E2
:102D7000F907B9F70895E62FE695E695E695EE3161
:102D800068F4E80FF92FF11D677021E030E001C011
:102D9000220F6A95EAF78281822B82830895E62FBB
:102DA000E695E695E695EE3170F4E80FF92FF11D02
:102DB000677021E030E001C0220F6A95EAF72095A4
:102DC0008281282322830895CF93C82F0E94A817B9
:102DD0006C2F813061F480917B0287FF08C0809165
:102DE0000001909101010E94BB16CF91089580913E
:102DF0000201909103010E949416F7CFCF93C82F40
:102E00000E94A8176C2F813061F480917B0287FFAC
:102E100008C080910001909101010E94CF16CF91CE
:102E2000089580910201909103010E94AE16F7CFA0
:102E30000E94A817813079F480917B0287FF0BC034
:102E4000E0910001F091010132968EE1DF011D92C7
:102E50008A95E9F70895E0910201F0910301329615
:102E600086E0F4CFDC01FB0111969C9111978181E2
:102E7000981322C012968C911297882319F0928190
:102E800089131AC013968C911397882319F0938194
:102E9000891312C015968C911597882319F0958186
:102EA00089130AC014969C91992321F081E0248112
:102EB000291303C080E001C081E081700895089566
:102EC0000E945F17089581110EC081E080930F0169
:102ED00060910C0170910D0180910E0190910F0194
:102EE0000E946017089582E0F1CF83E080930F0184
:102EF00060910C0170910D0180910E0190910F0174
:102F00000E94601708950E946317089581E08093DE
:102F10000F0160910C0170910D0180910E01909153
:102F20000F010E94601708950E948617089591E08E
:102F3000811101C090E090930E0160910C0170919D
:102F40000D0180910E0190910F010E94601708956C
:102F500080910E01089580930D0160910C01709194
:102F60000D0180910E0190910F010E94601708954C
:102F700080910D01089580930C0160910C01709176
:102F80000D0180910E0190910F010E94601708952C
:102F900080910C010895089508950E94CC1708951A
:102FA000089508950E94CB170895CF930E94D017DB
:102FB0000E94CB100E94D117C0E08C2F0E941010ED
:102FC000811105C0CF5FC530C1F7CF91089581E071
:102FD000FCCFCF93DF93EC010E945A188C1B9D0B02
:102FE000DF91CF91089585B7806885BF85B78068E8
:102FF00085BF08951F921FB61F9211248F939F9330
:10300000AF93BF9380917202811113C080918702A8
:1030100090918802A0918902B0918A024196A11DE7
:10302000B11D8093870290938802A0938902B09388
:103030008A02BF91AF919F918F911F901FBE1F90E9
:10304000189580918F02843031F10E94A70210926E
:10305000720288E190E020E40FB6F894A89580937E
:1030600060000FBE2093600083B7817F846083BFC0
:1030700083B7816083BF7894889583B78E7F83BF41
:103080000FB6F894A89580916000886180936000E5
:10309000109260000FBE08950E948E060E94AE023C
:1030A000089582E084BD93E095BD9AEF97BD80932B
:1030B0006E0008952FB7F89480918702909188024E
:1030C000A0918902B0918A022FBF08952FB7F8947A
:1030D00060918702709188028091890290918A02A2
:1030E0002FBF089578941F921FB61F9211248F93BB
:1030F0009F93AF93BF938091870290918802A09194
:103100008902B0918A020196A11DB11D80938702A8
:1031100090938802A0938902B0938A02BF91AF91E5
:103120009F918F911F901FBE1F90189587E797E77B
:10313000909301088093000888E19AE00FB6F89414
:10314000A895809360000FBE90936000FFCF88E148
:103150009AE00FB6F894A895809360000FBE909304
:103160006000FFCF9B01BA0190918F029430E9F487
:103170008F708093E9009FEF8091E800915085FD6A
:1031800006C085ED8A95F1F700009111F5CF809189
:10319000E80085FF0AC050E040E0C9010E94B81A6B
:1031A0008091E8008E778093E800089543E050E036
:1031B000BC0182E00E94B218089546E050E0BC01D4
:1031C00082E00E94B218089540E250E0BC0182E023
:1031D0000E94B2180895CF93DF93EC010E94A817C4
:1031E00048E050E0BE0181E00E94B21888E0FE0194
:1031F000A3E7B2E001900D928A95E1F7DF91CF91BC
:10320000089580918E02811109C00E94481C0E947D
:10321000A51C8091E20084608093E20008951092E2
:103220008E0208950E94861781E00E9497170895E4
:1032300060918B0281E0611101C080E00E947517EE
:10324000089590918F0281E0943009F080E06091C0
:103250008B020E948317089542E061EC81E00E9496
:10326000C41B42E261EC82E00E94C41B90918F0279
:1032700081E0943009F080E060918B020E94631736
:10328000089580919102833009F461C030F4813057
:10329000D1F1823009F49EC008958A3009F48AC0C1
:1032A0008B3009F46FC0893009F050C080919002D2
:1032B000813209F04BC0809194029091950202975F
:1032C00008F044C08091E800877F8093E8008091F7
:1032D000E80082FF37C09091F3008091F2000297DE
:1032E00031F48091F100813011F0863021F4809129
:1032F000F1000E94AB178091E8008B778093E80083
:103300000E94F81B23C080919002813AF9F48091C9
:10331000E800877F8093E800809194029091950265
:10332000892B61F468E083E792E070E00E94071B5C
:103330008091E8008B778093E800089560E090E04A
:1033400080E0F3CF80918F028111C1CF08958091E9
:103350009002813AD9F78091940290919502892B3D
:10336000A9F78091E800877F8093E8008091E800CA
:1033700080FFFCCF0E94A8178093F1008091E800A5
:103380008E77BCCF80919002813201F780919402B8
:1033900090919502892BD1F68091E800877F8093E8
:1033A000E8000E94F81B809192020E9497170E94E9
:1033B0008E06089580919002813241F68091E80056
:1033C000877F8093E8000E94F81B809193020E94FF
:1033D000BB17089580919002813A09F0B7CF809190
:1033E000E800877F8093E8008091E80080FFFCCFB1
:1033F0000E94C817C1CF84B7877F84BF0FB6F894E7
:10340000A8958091600088618093600010926000B0
:103410000FBE80E890E00FB6F8948093610090931F
:1034200061000FBE0E94941708950E94481C0E94DC
:10343000A51CE2EEF0E080818460808378940E9495
:10344000241F089580E191E00E94B01508958091B5
:103450008F02853031F480918F02853019F00E94FF
:103460004C1808950E9421180E94D517882399F3BB
:1034700080918D02882379F30E94A21A0E948E0601
:10348000EACF08959A0140919602509197020E94C6
:103490004A1A0895492F55274330510519F168F408
:1034A0004130510509F444C04230510509F445C08A
:1034B00090E080E050E040E025C04132510549F104
:1034C00042325105A9F784E490E04DE352E06115E2
:1034D0007105C1F086EB90E047E851E0613071057D
:1034E00089F0E6CF99278130910581F0009729F086
:1034F0000297F1F6E0E1F1E002C0E6E3F1E0849149
:1035000090E0AF01F901518340830895E4E2F1E0D6
:10351000F6CF89E090E04CE451E06115710591F33C
:1035200089E090E045E651E06130710559F3C0CF84
:1035300082E190E045E751E0E5CF8BE390E04AE39C
:1035400051E0E0CF80E189BD82E189BD09B400FE90
:10355000FDCF8091D8008F7D8093D8008091E000CE
:1035600082608093E0008091E00081FDFCCF0895AF
:10357000AF92BF92CF92DF92FF920F931F93CF93A0
:10358000DF936C01EB018A010E94171CF82E811158
:1035900023C00115110539F0F80180819181C81B04
:1035A000D90BC80ED91EB12CA12C2097A9F080915F
:1035B000E80085FD22C08091E8008E778093E800C6
:1035C00001151105A1F0F80180819181A80EB91EA5
:1035D000B182A08285E0F82E8F2DDF91CF911F91CF
:1035E0000F91FF90DF90CF90BF90AF9008950E9411
:1035F000171C8823D1F2F82EEFCFF60181916F01CD
:103600008093F1002197FFEFAF1ABF0ACECFFC01E4
:10361000809196029091970286179707A0F0611506
:10362000710529F49091E8009E779093E80090E06E
:103630006115710551F4911108C08091E80082FF75
:1036400034C080E00895BC01F2CF80918F028823BE
:10365000C1F18530C1F18091E80083FD30C08091D7
:10366000E80082FDEACF8091E80080FFE1CF809101
:10367000F3002091F200382F6115710519F0283000
:10368000310558F091E02830310509F090E02091A3
:10369000E8002E772093E800CBCF81918093F10052
:1036A000615071092F5F3F4FE7CF80918F028823D0
:1036B00041F0853041F08091E80083FFBECF81E08A
:1036C000089582E0089583E00895FC0180919602B8
:1036D0009091970286179707A0F06115710529F45C
:1036E0008091E8008E778093E80090E06115710585
:1036F00051F4911108C08091E80082FF35C080E04C
:103700000895BC01F2CF80918F028823C9F18530E2
:10371000C9F18091E80083FD31C08091E80082FD0D
:10372000EACF8091E80080FFE1CF8091F300209103
:10373000F200382F6115710519F02830310558F065
:1037400091E02830310509F090E08091E8008E7713
:103750008093E800CBCF84918093F1003196615043
:1037600071092F5F3F4FE6CF80918F02882341F090
:10377000853041F08091E80083FFBDCF81E008955E
:1037800082E0089583E00895982F973028F08F7095
:103790008093E90081E008959093E900242F762F2B
:1037A00050E0981731F07091EC002091ED005091AD
:1037B000F00021FD02C09F5FE8CF3091EB003E7F1B
:1037C0003093EB003091ED003D7F3093ED00309170
:1037D000EB0031603093EB007093EC002093ED0030
:1037E0005093F0002091EE0027FDE5CF80E0089592
:1037F0008091900287FF13C08091E80082FF06C08D
:103800008091E8008B778093E80004C080918F025C
:103810008111F2CF089580918F028823D9F380918E
:10382000E80080FFF8CF8091E8008E77ECCF209100
:10383000E4003091E50095E6A9012091EC00822F8B
:10384000817020FF06C08091E80080FF06C080E004
:1038500008952091E80022FD1AC080918F028823EC
:1038600089F0853089F08091EB0085FD0FC02091B3
:10387000E4003091E50042175307F9F29150E1F668
:1038800084E0089582E0089583E0089581E008953A
:103890000E94B71C0E94BF1CE0EEF0E080818160B6
:1038A0008083E8EDF0E080818F77808319BCA7EDFD
:1038B000B0E08C918E7F8C9380818F7E808310927C
:1038C0008E0208950F931F93CF93DF930E94B71C2E
:1038D0000E94BF1CC8EDD0E088818F7788838881E3
:1038E0008068888388818F7D888319BC10928F02BD
:1038F00010928B0210928D0210928C0200EE10E05A
:10390000F80180818B7F808388818160888342E099
:1039100060E080E00E94C41BE1EEF0E080818E7FD9
:103920008083E2EEF0E08081816080838081886026
:103930008083F80180818E7F808388818061888385
:10394000DF91CF911F910F910895E8EDF0E0808114
:103950008F7E8083E7EDF0E080818160808384E06A
:1039600082BF81E080938E020E94621C0895E8ED80
:10397000F0E080818E7F80831092E20008951092A3
:10398000DA001092E10008951F920F920FB60F9285
:1039900011242F933F934F935F936F937F938F9354
:1039A0009F93AF93BF93EF93FF938091E10082FFCA
:1039B0000BC08091E20082FF07C08091E1008B7F05
:1039C0008093E1000E94231F8091DA0080FF19C0DC
:1039D0008091D80080FF15C08091DA008E7F80939F
:1039E000DA008091D90080FF96C080E189BD82E134
:1039F00089BD09B400FEFDCF81E080938F020E9453
:103A000001198091E10080FF19C08091E20080FFE0
:103A100015C08091E2008E7F8093E2008091E200E9
:103A200080618093E2008091D80080628093D8000A
:103A300019BC85E080938F020E9418198091E100E3
:103A400084FF2BC08091E20084FF27C080E189BD04
:103A500082E189BD89B5982F917080FFFBCF80915D
:103A6000D8008F7D8093D8008091E1008F7E809375
:103A7000E1008091E2008F7E8093E2008091E2007D
:103A800081608093E20080918B02882309F449C011
:103A900084E080938F020E9421198091E10083FFCE
:103AA00029C08091E20083FF25C08091E100877FDB
:103AB0008093E10082E080938F0210928B028091CC
:103AC000E1008E7F8093E1008091E2008E7F809301
:103AD000E2008091E20080618093E20042E060E0D9
:103AE00080E00E94C41B8091F00088608093F00009
:103AF0000E941219FF91EF91BF91AF919F918F9109
:103B00007F916F915F914F913F912F910F900FBED9
:103B10000F901F90189519BC10928F020E940F19D8
:103B200070CF8091E30087FD93E090938F02B3CF35
:103B30001F920F920FB60F9211242F933F934F9322
:103B40005F936F937F938F939F93AF93BF93CF9325
:103B5000DF93EF93FF93D091E900DF708091EC0049
:103B6000C82FC17080FDC0E81092E9008091F0007C
:103B7000877F8093F00078940E94DC1D1092E9000A
:103B80008091F00088608093F000CD2BCF70C093BF
:103B9000E900FF91EF91DF91CF91BF91AF919F919C
:103BA0008F917F916F915F914F913F912F910F90E6
:103BB0000FBE0F901F901895AAE2B0E0E2EEFDE173
:103BC0000C94681F80E992E02091F100FC012193A0
:103BD000CF01F2E088399F07B9F70E94411980911F
:103BE000E80083FF1EC180919002909191029A306B
:103BF00008F017C1E92FF0E0ED5BFF4D0C94531F67
:103C0000803899F0823809F00CC1809194028F704D
:103C1000873008F006C18093E9008091EB0085FBB6
:103C2000882780F91092E90006C080918C0290915B
:103C30008D02911182609091E800977F9093E80047
:103C40008093F1001092F1008091E8008E77E5C03A
:103C5000882309F4D3C0823009F0E3C08091920236
:103C60008111D6C0809194028F702FEF280F2630DB
:103C700008F0D7C08093E9002091EB0020FFC8C076
:103C8000933031F48091EB0080628093EB00C0C0F0
:103C90009091EB0090619093EB0021E030E001C047
:103CA000220F8A95EAF72093EA001092EA008091A9
:103CB000EB008860EACF8111B4C0109192021F77A7
:103CC0008091E3008078812B8093E3008091E8006D
:103CD000877F8093E8000E94F81B8091E80080FFB6
:103CE000FCCF8091E30080688093E30082E01111B3
:103CF00083E080938F0295C08058823008F091C095
:103D000080919202909193028C3D23E09207A1F55D
:103D100083E08A838AE289834FB7F894DE011396A1
:103D200020E03EE051E2E32FF0E050935700E491B1
:103D300020FF03C0E295EF703F5FEF708E2F90E0A1
:103D4000EA30C0F0C7968D939D932F5F243159F7C9
:103D50004FBF8091E800877F8093E8006AE270E0BF
:103D6000CE0101960E94071B8091E8008B7780931B
:103D7000E80057C0C096E7CF609194027091950219
:103D8000AE014F5F5F4F0E94421ABC01892B09F4BC
:103D900048C09091E800977F9093E80089819A81CC
:103DA0000E94651BE1CF8038E1F58091E800877FB4
:103DB0008093E80080918B028093F10045CF8111C0
:103DC00030C090919202923060F58091E800877F38
:103DD0008093E80090938B020E94F81B80918B02E5
:103DE000882311F084E005C08091E30087FDFACFBD
:103DF00081E080938F020E942C1913C0809192025F
:103E0000813079F481E0933009F080E080938D0275
:103E10001092E9008091E800877F8093E8000E947B
:103E2000F81B8091E80083FF0AC08091E800877F3B
:103E30008093E8008091EB0080628093EB00AA966B
:103E4000E3E00C94841F0895CF9380918F02882320
:103E5000A1F0C091E900CF709091EC00892F8170A2
:103E600090FD80E8C82B1092E9008091E80083FD66
:103E70000E94DC1DCF70C093E900CF91089597FB9D
:103E8000072E16F4009407D077FD09D00E94901FEA
:103E900007FC05D03EF4909581959F4F089570954D
:103EA00061957F4F0895EE0FFF1F0590F491E02D6F
:103EB00009942F923F924F925F926F927F928F92CE
:103EC0009F92AF92BF92CF92DF92EF92FF920F93A9
:103ED0001F93CF93DF93CDB7DEB7CA1BDB0B0FB6B3
:103EE000F894DEBF0FBECDBF09942A883988488870
:103EF0005F846E847D848C849B84AA84B984C88406
:103F0000DF80EE80FD800C811B81AA81B981CE0FFC
:103F1000D11D0FB6F894DEBF0FBECDBFED010895E1
:103F2000AA1BBB1B51E107C0AA1FBB1FA617B707DF
:103F300010F0A61BB70B881F991F5A95A9F78095FB
:103F40009095BC01CD010895FB01DC0104C08D9169
:103F50000190801921F441505040C8F7881B990BFB
:103F60000895FB01DC0102C001900D9241505040C8
:103F7000D8F70895F999FECF92BD81BDF89A992797
:103F800080B50895A8E1B0E042E050E00C94FE1F37
:103F9000DC01A40FB51F4150504048F0CB01840F05
:103FA000951F2E910E94D91F41505040D0F708957F
:103FB000262FF999FECF92BD81BDF89A019700B4E2
:103FC000021639F01FBA20BD0FB6F894FA9AF99A82
:103FD0000FBE08950396272F0E94D91F0E94D81F55
:103FE000252F0E94D91F242F0C94D91F0196272F0B
:103FF0000E94D91F0C94D81FDC01CB01FC01F99958
:10400000FECF06C0F2BDE1BDF89A319600B40D9224
:1040100041505040B8F70895F894FFCF88048804C1
:10402000C604C6042A054605B704B7044B05BC05FB
:10403000CB05CB05001274120812D211D6110C1246
:10404000DA1110121C12E6116D12EA112012EE1193
:1040500024124C12F21128125312F8112E12361299
:10406000DE111412E2111812FC11321242125C120B
:104070006B12CC1104127B1289158F1578158315DC
:1040800095159B15A115001E281E111F281E111F16
:0A4090005B1E7C1E111FD31EDF1EF5
:10409A001E023E02280850011E0A140100000100F7
:1040AA00B817EB18E418DD18D618E200E900EA00A0
:1040BA00B500B600B700CD008301CC008A01920199
:1040CA0094012102230224022502260227022A023F
:1040DA00B300B4006F0070009F01CB019F02A002E1
:1040EA00818283E200E900EA00B500B600B700CD9C
:1040FA00008301CC008A0192019401210223022447
:10410A00022502260227022A02B300B4006F0070B9
:10411A00009F01CB019F02A002818283919094F5B6
:06412A00F4F63534C6F77F
:00000001FF
