:100000000C944C040C9484040C9484040C94840488
:100010000C9484040C9484040C9484040C94840440
:100020000C9484040C9484040C9414240C94E824FC
:100030000C94671E0C9484040C9484040C94840423
:100040000C9484040C94AC170C9484040C948404D5
:100050000C94D0170C94DF1E0C9484040C9484042C
:100060000C9484040C9484040C9484040C948404F0
:100070000C9484040C9484040C9484040C948404E0
:100080000C9484040C9484040C9484040C948404D0
:100090000C9484040C9484040C9484040C948404C0
:1000A0000C9484040C9484040C94840429000000AF
:1000B0003A003B003C003D003E003F004000410054
:1000C0004200430044004500460047004800350018
:1000D0001E001F0020002100220023002400250014
:1000E000260027002D002E002A0049004A004B0060
:1000F0002B0014001A000800150017001C0018003F
:100100000C00120013002F00300000004C004D00C6
:100110004E00390004001600070009000A000B0019
:100120000D000E000F0033003400320028000000E4
:1001300000000000E10064001D001B000600190023
:10014000050011001000360037003800E5000000FF
:10015000000052000000E000E300E20000000000A8
:100160000000000000002C000000E600E700650031
:10017000E400500051004F0044454255473A206486
:10018000697361626C65642E0A0044454255473AC2
:1001900020656E61626C65642E0A006C65645F7434
:1001A00061736B3A20253032580A004F6E657368D0
:1001B0006F743A206163746976653A2025640A0099
:1001C0000A00253033326C62003A20002530325864
:1001D000000A722F632030313233343536373839E4
:1001E000414243444546303132333435363738396D
:1001F0004142434445460A006261636B6C6967682B
:100200007420737465703A2025750A006261636B0F
:100210006C696768742064697361626C650A006266
:1002200061636B6C6967687420656E61626C650AF6
:10023000006261636B6C6967687420746F67676CD8
:10024000653A2025750A006261636B6C69676874A2
:100250002064656372656173653A2025750A0062E2
:1002600061636B6C6967687420696E637265617342
:10027000653A2025750A006261636B6C6967687472
:100280005F696E6974206261636B6C696768745F33
:10029000636F6E6669672E76616C6964203D2030FD
:1002A0002E2057726974652064656661756C7420D0
:1002B00076616C75657320746F20454550524F4DC3
:1002C0002E0A003F00433E20004C25640A000A0924
:1002D0002D20537461747573202D0A686F73745FD9
:1002E0006B6579626F6172645F6C65647328293A2B
:1002F00020253032580A6B6579626F6172645F70D5
:10030000726F746F636F6C3A20253032580A6B65D8
:1003100079626F6172645F69646C653A202530327E
:10032000580A74696D65725F726561643332282999
:100330003A202530386C580A002573000A092D2010
:10034000436F6E736F6C65202D0A4553432F713ACE
:1003500009717569740A000A092D204D6167696386
:10036000202D0A443A094465627567204D65737310
:1003700061676520546F67676C650A583A094D617B
:1003800074726978204465627567204D6F646520DA
:10039000546F67676C65202D2053686F77206B65FD
:1003A000797072657373657320696E206D61747204
:1003B000697820677269640A4B3A094B6579626F04
:1003C00061726420446562756720546F67676C656D
:1003D000202D2053686F77206B6579707265737379
:1003E000207265706F72740A4D3A094465627567D0
:1003F000204D6F75736520546F67676C650A563AB8
:100400000956657273696F6E0A533A0953746174C1
:1004100075730A433A0941637469766174652043D0
:100420006F6E736F6C65204D6F64650A46312D46A3
:1004300031303A0953776974636820746F204C61D6
:1004400079657220302D392028463130203D204CEE
:1004500030290A302D393A0953776974636820745A
:100460006F204C6179657220302D390A4752415610
:10047000453A0953776974636820746F204C617939
:10048000657220302028616C7465726E6174652914
:100490000A423A094A756D7020746F20426F6F747A
:1004A0006C6F616465720A4553433A094A756D7011
:1004B00020746F20426F6F746C6F616465722028C6
:1004C000616C7465726E617465290A453A095072EF
:1004D000696E7420454550524F4D205365747469C0
:1004E0006E67730A4241434B53504143453A0943B7
:1004F0006C65617220454550524F4D0A0062616340
:100500006B6C696768745F636F6E6669672E726192
:10051000773A20253032580A2E656E61626C653A52
:100520002025750A2E6C6576656C3A2025750A00C3
:100530006B65796D61705F636F6E6669672E72615E
:10054000773A20253032580A2E737761705F636FD7
:100550006E74726F6C5F636170736C6F636B3A2063
:1005600025750A2E636170736C6F636B5F746F5FC8
:10057000636F6E74726F6C3A2025750A2E73776103
:10058000705F6C63746C5F6C6775693A2025750ADF
:100590002E737761705F7263746C5F726775693A0E
:1005A0002025750A2E737761705F6C616C745F6CC7
:1005B0006775693A2025750A2E737761705F7261DD
:1005C0006C745F726775693A2025750A2E6E6F5FCD
:1005D0006775693A2025750A2E737761705F6772B7
:1005E0006176655F6573633A2025750A2E737761BE
:1005F000705F6261636B736C6173685F6261636B90
:1006000073706163653A2025750A2E6E6B726F3ABE
:100610002025750A2E737761705F6573636170655D
:100620005F636170736C6F636B3A2025750A0064B9
:10063000656275675F636F6E6669672E7261773A90
:1006400020253032580A2E656E61626C653A20258D
:10065000750A2E6D61747269783A2025750A2E6BC1
:100660006579626F6172643A2025750A2E6D6F7527
:1006700073653A2025750A006565636F6E66696764
:100680003A0A64656661756C745F6C617965723A8B
:100690002025750A003F000A6D6F7573653A206F5B
:1006A00066660A000A6D6F7573653A206F6E0A0000
:1006B0000A6B6579626F6172643A206F66660A0040
:1006C0000A6B6579626F6172643A206F6E0A000A84
:1006D0006D61747269783A206F66660A000A6D610E
:1006E000747269783A206F6E0A000A6465627567F1
:1006F0003A206F66660A000A64656275673A206F81
:100700006E0A000A0A4A756D70696E6720746F2060
:10071000626F6F746C6F616465722E2E2E200043C1
:100720003E2000436C656172696E672045455052FA
:100730004F4D0A000A002530325820006B6579625F
:100740006F6172645F7265706F72743A2025303227
:1007500058207C200073757370656E64696E672025
:100760006B6579626F6172640D0A005B575D005BB7
:10077000535D005B525D005B445D005B435D000ABE
:10078000035800440038003700000016034B0050A7
:1007900000720065007000750062006C0069006303
:1007A0000000000403090409025400030100A0FA38
:1007B00009040000010301010009211101000122C7
:1007C000440007058103080001090401000103003A
:1007D00000000921110100012232000705820320D7
:1007E00000010904020001030000000921110100B9
:1007F00001221500070583032000011201000200F9
:10080000000008447887870100010200010631FFDB
:100810000974A1010975150026FF0095207508814E
:1008200002C005010980A101850319012AB700153D
:100830000126B700950175108100C0050C0901A1C2
:1008400001850419012AA002150126A0029501754F
:10085000108100C005010906A101050719E029E77B
:100860001500250195087501810295017508810122
:100870000507190029FF150026FF00950675088158
:100880000005081901290515002501950575019137
:1008900002950175039101C011241FBECFEFDAE06C
:1008A000DEBFCDBF04B603FE18C080917F039091D8
:1008B0008003A0918103B09182038730904BA740C1
:1008C000B04B59F410927F03109280031092810371
:1008D00010928203E0E0F8E3099512E0A0E0B1E0B5
:1008E000E0ECFFE402C005900D92A836B107D9F7FD
:1008F00023E0A8E6B2E001C01D92AF37B207E1F7EE
:100900000E9400160C949F270C940000FF93EF9315
:10091000E0916802F0916902309709F00995EF9132
:10092000FF910895FC018591803011F0EFDFFBCF3E
:100930000895FF27E0E230E247FF0CC0419597FFA2
:1009400009C0EDE26095709580959095611D711DCF
:10095000811D911D27FF02C0219530E350E2AA2797
:10096000660F771F881F991FAA1FA41710F0A41BDA
:1009700063955A95A9F7AA3008F0A95FA05DAF93D7
:10098000F395611571058105910541F7ED3211F47B
:10099000EF93F395F21718F43F93F395FBCF8F91F4
:1009A000B5DFFA95E1F70895E991F99185918030E5
:1009B00021F0853219F0AADFF9CF089520E0E894FC
:1009C00055915532C1F3503311F4689455915A330F
:1009D00048F4505390F3220F022E220F220F200DC5
:1009E000250FF4CF0EF4219589919991533619F37F
:1009F000533729F1533559F1BC0188279927E894D9
:100A00005C3621F48991999168945591543639F462
:100A100046EF7EF077FF0DC08FEF9FEF0AC055378E
:100A20004AE039F0583540E121F0523642E009F011
:100A30000895FF93EF937DDFEF91FF91B7CFFF9381
:100A4000EF93FC0181918030B9F360DFFBCFFF931E
:100A5000EF9368DFF1CFDF93CF93CDB7DEB7259665
:100A6000A3DFCF91DF910895811112C0663080F429
:100A7000413170F4E42FF0E081E1689FE00DF11D59
:100A80001124EE0FFF1FE455FF4F859194910895B7
:100A900081E090E008950E943405089581E0089572
:100AA0000E944E0508950E944E05089581E0089524
:100AB0000E944E0508950E944E0508950E945B0510
:100AC0000895089508950E94610508950895089570
:100AD000A6E0B0E0EEE6F5E00C940F2749835A83D8
:100AE0009E8330916F0289819A8131111AC03E81B3
:100AF000332399F0222389F00E940C0C182F682FC1
:100B000089819A810E94E80B69817A81812F0E94F4
:100B100035132696E3E00C942B270E94FA0B182F2E
:100B2000F3CF0E940C0C69817A81F1CFFC01262F52
:100B30004081518162817381848195810E94680521
:100B40000895CF93DF93EC0161E00E949605BE010A
:100B50000E945005882359F061E0CE010E9496055D
:100B6000BE010E9453058170DF91CF91089580E00E
:100B7000FACF0F931F93CF93DF93EC0160E00E94B5
:100B800096058C01BE010E946205BE01C8010E944B
:100B90006305DF91CF911F910F91089521E030E01F
:100BA000A90102C0440F551F8A95E2F7CA010E94AD
:100BB0000A0B0895CF93C82F81E090E00C2E02C05D
:100BC000880F991F0A94E2F70E945B108C2F0E94F5
:100BD000CE05CF91089581E008950E94EB05089518
:100BE0000E94EB050895CF93C82F0E94BD0A8C2F59
:100BF0000E94ED058C2F0E94F0052FEF84E39CE00E
:100C0000215080409040E1F700C00000CF9108954E
:100C100081E00E94F3050E94031F089580E00E9476
:100C2000F3050E94271F08950F931F93CF93DF931F
:100C30008C0161E00E949605EC01B8010E94580504
:100C4000811106C080E0DF91CF911F910F9108952F
:100C5000B801CE010E945E058823A1F3B801CE0140
:100C60000E947517882371F3B801CE010E946D1C94
:100C7000882341F3B801CE010E942D1B882311F374
:100C8000B801CE010E94031B8823E1F2B801CE0116
:100C90000E9437148823B1F2F8018581882369F016
:100CA000C330FCE7DF07A1F160F4C130ECE7DE07F9
:100CB00089F1C0F4C115DC4791F0C8010E945605C6
:100CC000C2CFCB35ECE7DE0759F1CC35FCE7DF07C7
:100CD00021F1CA35DC4789F70E943610EECF0E9419
:100CE0000806B0CF90912003892F8E7F90FF8160FE
:100CF0008093200380FF09C08AE891E09F938F933F
:100D00000E942B050F900F909DCF88E791E0F6CFC2
:100D10000E943E100E940E0695CF0E942C10CDCF4F
:100D20000E943A10CACF0E9466050E94371E80E0DA
:100D30000E9454170E94090708950E942D160E94D0
:100D40000D070E9467050E943C1E0895829590E061
:100D50009C01220F331F220F331F2C7C9595879502
:100D6000959587958373282B30E0C901880F991FCB
:100D70008A7A359527952575822B0895CF93DF9331
:100D8000D92F0E94A606C82F8D2F0E94A6069C2F41
:100D9000DF91CF910895B0E0A0E0E1EDF6E00C9492
:100DA0000A276B017C01CB010E94BE06EC01C70142
:100DB0000E94BE068C01BE0190E080E0CB01772747
:100DC000662730E020E0602B712B822B932BCDB770
:100DD000DEB7E8E00C94262781E0089581FD02C08B
:100DE000729A089572980895CF93DF93D82F0E9436
:100DF000EC06C82F882319F08D2F0E94EE068C2F49
:100E0000DF91CF9108956A9A729A08950E94F4062C
:100E1000089580E00E94060708950E94B61C0E9473
:100E200006070895CF930E94B61CC82F80916A02CE
:100E30008C1701F1C0936A020E94D31E60936B026B
:100E400070936C0280936D0290936E0280912003E8
:100E50008570853061F41F92CF938BE991E09F9369
:100E60008F930E942B050F900F900F900F908C2F57
:100E70000E940607CF910895ADE0B0E0E2E4F7E00C
:100E80000C941027488759876A877B878C879D87B2
:100E900091110E94590F1F8286E0FE013896DE01F3
:100EA000119601900D928A95E1F78D8181110DC007
:100EB00029813A814B815C816D817E818F810E9485
:100EC000A30E2D96E2E00C942C27CE0101960E94F1
:100ED000A1058111EDCFF5CFFC012481213021F452
:100EE000808191810E943E0C0895CF93C82F882362
:100EF000C9F08238C9F40E94C31C81FD13C089E384
:100F00000E94AE1D0E94C80F2FEF87EE93E0215084
:100F100080409040E1F700C0000089E30E94B61DC8
:100F20000E94C80FCF9108958338A1F40E94C31C7A
:100F300080FDF8CF83E50E94AE1D0E94C80F2FEF01
:100F400081EE94E0215080409040E1F700C0000025
:100F500083E5E4CF8438A1F40E94C31C82FDE2CF74
:100F600087E40E94AE1D0E94C80F2FEF81EE94E02F
:100F7000215080409040E1F700C0000087E4CECFD0
:100F80008CEF8C0F813A98F48C2F0E94B41A811147
:100F9000C9CF8C2F0E94731D882329F08C2F0E94AB
:100FA000B61D0E94C80F8C2F0E94AE1DB9CF80E2E3
:100FB0008C0F883048F4C77081E001C0880FCA9553
:100FC000EAF70E943C0FACCFEBE5EC0FE33040F4C6
:100FD000F0E0EA5BFE4F808190E00E94141DA2CFFA
:100FE000C85ACB3108F09ECFEC2FF0E0EE0FFF1F78
:100FF000E05FFE4F808191810E94391D93CF88234D
:1010000009F44DC0823879F40E94C31C81FF47C0A7
:1010100089E30E94AE1D0E94C80F89E30E94B61D9D
:101020000E94C80F0895833859F40E94C31C80FFA2
:1010300036C083E50E94AE1D0E94C80F83E5EECF47
:10104000843859F40E94C31C82FF29C087E40E949F
:10105000AE1D0E94C80F87E4E1CF9CEF980F913A34
:10106000E8F290E2980F983050F4877091E001C058
:10107000990F8A95EAF7892F0E94420FD1CF9BE5FD
:10108000980F933028F490E080E00E94141D08959A
:10109000885A8B3120F490E080E00E94391D089539
:1010A0001F93CF93DF93182FEB010E9475072097B2
:1010B00039F4812F0E94FF07DF91CF911F9108958E
:1010C0008FE99FE00197F1F700C000002197EFCF73
:1010D00070E060E0893311F460E570E00E94500830
:1010E0000895882321F00E943C0F0E94C80F0895A4
:1010F000882321F00E94420F0E94C80F0895B0E09B
:10110000A0E0E5E8F8E00C9409276C01D62FC72F82
:10111000FC011581068102950F700E94320FE82EA6
:101120008823F9F0E12E1123E1F08C2F807F8034A9
:1011300061F080E28D0F883008F18C2F807E803244
:1011400021F4D230D8F00023C9F080913C0382FF13
:1011500015C082E00E94ED0F0E94320F91E0E82E50
:10116000E926BC2EB2949FE0B922FBE0FB15B8F152
:10117000EB2DF0E0EF55F84D0C94E026E12CF1CF8B
:101180000C2F0F70C07F11F00295007F112399F092
:10119000002359F080E28D0F883010F0D11107C084
:1011A000802F0E943C0F0E94C80F8D2F48C0802FB7
:1011B0000E944C0FF8CF8D2F0E94FF07002379F07B
:1011C00080E28D0F883010F0D11104C0802F0E9472
:1011D000420F03C0802F0E94520F0E94C80FEB2DB8
:1011E000E850FF0B349708F066C10E94B61C0E94BD
:1011F0000607CDB7DEB7E9E00C9425272C2F2F701A
:10120000F22EC07FC03219F0F29480EFF822DD2375
:1012100041F0D130C9F1112309F443C00023E9F0B2
:10122000C4CF80913C0382FD14C0112359F0FF20EC
:1012300029F08F2D0E943C0F0E94C80F80E00E9471
:101240007507CDCF80E00E94FF07FF2041F28F2D70
:10125000BECF112369F0011104C08F2D0E947108C7
:10126000BECF013009F0BBCF8F2D0E94700FB7CFDA
:101270000111B5CF8F2D0E9478088F2D0E947C0F11
:101280008F2D0E94600FABCF112321F0063008F0A4
:10129000A6CFE3CF053008F0A2CF8F2D0E947808AB
:1012A0009ECF0023D1F3D93349F43FEF87EE93E08B
:1012B000315080409040E1F700C000008D2F0E9427
:1012C000FF078DCF8C2F86958695837069F08130CE
:1012D00009F085CF8D2F9C2F9370111102C080E0F3
:1012E00090E00E94391D7BCF8D2F9C2F93701111A0
:1012F00002C080E090E00E94141D71CF8C2F83709B
:10130000A1F511116CCF4D2F429546954770440FB2
:10131000440F2D2F2F7030E0042E02C0220F331FF8
:101320000A94E2F790E080E0D4FF09C08FE090E0FB
:1013300002C0880F991F4A95E2F780959095C6954F
:10134000C695C370822B932BC23049F058F4C1303C
:1013500019F00E94160B43CF0E940D0B40CF0E9444
:101360001F0B3DCF0E940A0B3ACF8695112311F037
:101370008C2F8170882309F432CF4D2F42954695EA
:101380004770440F440F2D2F2F7030E0042E02C001
:10139000220F331F0A94E2F790E080E0D4FF09C0E7
:1013A0008FE090E002C0880F991F4A95E2F7809580
:1013B0009095C695C695C370822B932BC23049F089
:1013C00058F4C13019F00E94810B09CF0E94780BAC
:1013D00006CF0E948A0B03CF0E942E0B00CFCF7046
:1013E000112329F08C2F0E94460B8D2F37CF8D2F84
:1013F0000E9478088C2F0E94560BF1CED23F41F10B
:1014000060F4D03FB9F0D13F81F0112309F443C01B
:101410000111CBCE8C2F8F711FC0D33F01F1D43F70
:10142000A1F780913C0382FD24C08C2F8F71112382
:1014300011F312C0112341F0053008F0D0CE8C2FEB
:101440008F710E94680BCBCE063008F0C8CEF7CF64
:101450008C2F8F711111CFCF0E94460BC0CE11235C
:1014600029F08C2F8F710E943A0BB9CE0E94350B58
:10147000B6CE112331F063E08C2F8F710E94CF0F15
:10148000AECE81E00E94ED0F023008F4A8CE82E0DB
:101490000E94ED0FA4CE002359F0D93309F00ECFEE
:1014A000EFEFF7EE23E0E150F0402040E1F704CF0A
:1014B0008C2F8F71A0CFEE2009F49BCE0E942E0FAF
:1014C00080FD97CEF60115820E94280F0E94460BE0
:1014D000C6010E94880A0E94280F0E94560B89CEDE
:1014E0000F931F93CF93DF93EC01688179818D81F6
:1014F0000E94490C8C010E94930B0E94090BB801B9
:10150000CE010E947F08DF91CF911F910F91089526
:10151000CF93DF93EC018C81882399F0CE010E9458
:101520001406811111C00E94320F882351F08D8161
:10153000882339F080913C0382FF03C082E00E943F
:10154000ED0FDF91CF910895CE010E94700ACE0178
:101550000E94B905F6CF90E080E00E94141D90E053
:1015600080E00E94391D0E94590F0E94C80F089503
:101570000E94BE1D0E94AB0A08950E94490F0E945E
:10158000B80A089592959F70963091F058F4925F42
:101590009F70923058F4803F19F030F4883E30F458
:1015A00081E008959A5FF4CF843FD1F380E00895FD
:1015B000883EB0F3813FD1F7F3CFFC012481222391
:1015C00039F0808191810E943E0C0E94C20A0895E8
:1015D00080E00895A6E0B0E0E0EFFAE00C94102778
:1015E0002696E2E00C942C27A7E0B0E0EAEFFAE0C0
:1015F0000C9410272796E2E00C942C2708950E9463
:10160000FE0A08950E94FF0A9093A7028093A60203
:10161000089508950E94020B08952091A60230912A
:10162000A702822B932B0E94020B08952091A60201
:101630003091A702822393230E94020B08952091E8
:10164000A6023091A702822793270E94020B0895D9
:101650000E94FE0A08950E94280B08950E942B0BF9
:101660009093A5028093A402089590E080E00E94E8
:101670002E0B089521E030E0A90102C0440F551F50
:101680008A95E2F7CA010E942E0B089521E030E00E
:1016900002C0220F331F8A95E2F78091A402909135
:1016A000A502822B932B0E942E0B089521E030E09F
:1016B00002C0220F331F8A95E2F720953095809162
:1016C000A4029091A502822393230E942E0B0895D9
:1016D00021E030E002C0220F331F8A95E2F78091AB
:1016E000A4029091A502822793270E942E0B0895B1
:1016F0002091A4023091A502822B932B0E942E0BE5
:1017000008952091A4023091A502822393230E9480
:101710002E0B08952091A4023091A50282279327D1
:101720000E942E0B08950895262F277091E001C086
:10173000990F2A95EAF723E0769567952A95E1F7C0
:10174000660F771F660F771FFA01E60FF71F50E04D
:1017500040E0682F70E08191DF0111979B01042E1A
:1017600002C0369527950A94E2F721702195282723
:10177000292328272C934F5F5F4F4430510559F799
:101780000895A82FA77023E0969587952A95E1F7ED
:10179000880F991F880F991FFB01E80FF91F50E070
:1017A00040E080E0219130E00A2E02C03695279576
:1017B0000A94E2F721703327042E01C0220F0A9405
:1017C000EAF7822B4F5F5F4F4430510559F7089578
:1017D000262F963070F4813160F4682F70E081E13B
:1017E000989F600D711D112440E752E0822F0E94E6
:1017F000940B0895292F963068F4813158F490E0C5
:1018000060E772E031E1239F800D911D11240E9459
:10181000C10B089580E00895B0E0A0E0E2E1FCE0B3
:101820000C9409277C010091A4021091A5028091DB
:10183000A6029091A702082B192BCFE0D0E0CC2470
:10184000C394D12CBC2EC6010C2E02C0880F991F48
:101850000A94E2F780239123892B49F4219790F78A
:10186000B12C8B2DCDB7DEB7E9E00C942527B7015D
:101870008C2F0E944113019789F3F3CFCF93DF930D
:10188000EC010E940C0CBE010E944113DF91CF912C
:1018900008951F93CF93DF93EB0190916F029923EB
:1018A00039F0CB010E943E0CDF91CF911F9108953A
:1018B000882369F0CB010E940C0C182F682FCE01F1
:1018C0000E94E80BBE01812F0E944113EDCFCB0196
:1018D0000E94FA0B182FF6CF1F93CF93DF93C0917E
:1018E000A80217E08091A9028C1304C0DF91CF9168
:1018F0001F910895D0E01C9FF0011D9FF00D112451
:10190000E655FD4F2081318142815381648175818B
:1019100086810E94F40A2196C770E4CF2091E202EA
:101920003091E3024091E4025091E5026091E602B9
:101930007091E7028091E8020E94F40A0895CF9323
:10194000DF938091E802807F09F04DC08091E7022B
:10195000882309F448C0E091A8025091A902C091DF
:10196000E302D091E2026091E4027091E50247E067
:101970005E17C9F18E2F90E0E49FF0011124E65527
:10198000FD4F2481222391F1489FF001499FF00DE2
:101990001124DF01A655BD4F11962C9111972C13E0
:1019A00025C02C912D1322C015962C91159721112D
:1019B0001DC012962D913C91261B370B283C3105FA
:1019C000A8F48091E8028F7080618093E802E0556E
:1019D000FD4F80818F708061808382EE92E00E9453
:1019E000880A0E946C0CDF91CF910895FC0131961A
:1019F000E770BECF482F2091A8029091A90257E02E
:101A0000291302C080E0089530E0529FF001539FF7
:101A1000F00D1124E655FD4F8181681306C08081C9
:101A2000481303C085818111EECF2F5F3F4F277090
:101A3000E7CFA4E1B0E0EFE1FDE00C9406278C01D4
:101A400086E0F801DE011F9601900D928A95E1F77C
:101A5000F8018481E58092EEA92E92E0B92E909152
:101A6000E60291111FC08823D1F0EE20A9F0C80131
:101A70000E94DD0AF82E882379F087E0F801D5016D
:101A800001900D928A95E1F7C5010E946C070E94B2
:101A90009F0C0E948E0C5FC0C8010E94880AFF2420
:101AA000F39459C0C080D18082809380F090E70287
:101AB0002091E4023091E502A401421B530BFF2068
:101AC00009F4F9C0483C510508F0A7C0882309F47F
:101AD00042C09091E3028091E802282F207F09F014
:101AE0005CC09D1116C09091E202C91212C0E110B3
:101AF0004EC08F7080618093E8020E948E0C82EE4F
:101B000092E00E94880A8091E802F8018683F12C15
:101B100022C0E1103CC06D2D8C2D0E94FA0C6D2D61
:101B20008C2D0E94FA0CE82E8111F1CFCF86D88A35
:101B30008F8598890E943E0C292F22952F70243082
:101B400078F49F702230A8F09923B9F0F8019681BB
:101B5000907F99F4FE2C8F2D6496ECE00C94222754
:101B60002A5F2F70223068F0C8010E94880AEF2C8B
:101B7000F1CF992311F0882369F3805E883050F308
:101B8000F3CF803F38F3815F833070F7E3CF8091EC
:101B9000E80281608093E802BACF9D1113C0909152
:101BA000E202C9120FC0E1100DC08683C8010E9475
:101BB000880A87E0F801A2EEB2E001900D928A95C2
:101BC000E1F767CFC8010E94DD0A882309F464CFDA
:101BD000EE2009F461CF8091E802803288F02091F4
:101BE000E2023091E302398728879B868A869091AA
:101BF000E6029C871D868E87CE0108960E94880A81
:101C000087E0F801A2EEB2E001900D928A95E1F72B
:101C10000E949F0C0E948E0C42CF9091E802292FC7
:101C2000207FA1F4682D9A8A898AA6017A899E2D3F
:101C30000E94EA0A82EE92E00E94880A87E0F5019B
:101C400011928A95E9F70E948E0C61CF882309F4DE
:101C500082CF8091E3028D1110C08091E202C81200
:101C60000CC0E1100AC09683C8010E94880A87E070
:101C7000F50111928A95E9F76ECFC8010E94DD0A3D
:101C8000882309F409CFEE2009F406CF8091E802F9
:101C9000803208F4B5CF2091E2023091E3023A831A
:101CA00029839C828B829091E6029D831E828F8382
:101CB000CE010196A3CF483C5105B8F5882309F41D
:101CC000EECEFE2CEE2009F4E7CE8091E3028D11DA
:101CD0001EC08091E202C8121AC08091E80280FD05
:101CE0000DC0982F907F51F08683903F09F45ECF0E
:101CF000982F907F905F8F70892B57CF87E0F801E6
:101D0000A2EEB2E001900D928A95E1F724CFC801CE
:101D10000E94DD0A811174CF8091E8028160809376
:101D2000E802C8010E94880A16CF682D9A8A898A1B
:101D3000A6017A899E2D0E94EA0A87E0F501119298
:101D40008A95E9F7A6CEAEE0B0E0E9EAFEE00C94B1
:101D50000F27288739874A875B876C877D878E871F
:101D6000CE0108960E94190D8823B1F06C85662378
:101D700041F0288539854A855B857D858E850E9461
:101D8000F40A17E08091A8029091A90289133DC03E
:101D90002E96E3E00C942B2787E0FE013896DE01B7
:101DA000119601900D928A95E1F78C85882349F36D
:101DB0002091A90230E0C9010196877099274091CE
:101DC000A8024817190699F097E0929FD001939FB7
:101DD000B00D1124A655BD4FFE01319601900D9214
:101DE0009A95E1F78093A9020E946C0CCACF0E94D9
:101DF000BD0A1092A9021092A80287E0E2EEF2E07A
:101E0000DF011D928A95E9F7BCCF819FC0011124A3
:101E100086559D4F0E94190D882309F4B9CFE09192
:101E2000A8021E9FF0011124E655FD4F208131814B
:101E3000428153816481758186810E94F40A809178
:101E4000A80290E00196877099278093A8029ACF04
:101E50008091F10286958695869508958091F1028C
:101E6000877008959091F102977081E009F480E005
:101E700008958091FD0208959091FD02892B809331
:101E8000FD02089580959091FD0298239093FD02A4
:101E900008951092FD0208959091FC02892B809381
:101EA000FC02089580959091FC0298239093FC0287
:101EB00008951092FC02089508950E945C0F089501
:101EC0009091F202292F282331F080958923809365
:101ED000F2020E945D0F089508950E946C0F08950C
:101EE0009091F302292F2823281729F0982B9093FB
:101EF000F3020E946D0F08959091F302292F282379
:101F000031F0809589238093F3020E946D0F08952C
:101F10008091F302882329F01092F30280E00E945E
:101F20006D0F08950F931F93CF93DF9300910001DE
:101F300010910101C091FD028091FC02C82B80919B
:101F4000F302882331F0C82B0E945E1D81110E948C
:101F5000880FF801C083C0910001D091010148E0D1
:101F600050E069EE72E0CE010E943727892B59F0CC
:101F700088E0FE01A9EEB2E001900D928A95E1F7AA
:101F8000CE010E94C61CDF91CF911F910F91089541
:101F90000E94920F089508950E94CB0F089590918A
:101FA0003C0392FF11C098E0899F90011124622B9D
:101FB0006093F1020E94460B8091F102869586950E
:101FC00086950E94CC0F08950E94460B08951092AA
:101FD000F10280E00E94CC0F08959091F10280956B
:101FE00089238093F102282F277069F4891759F00B
:101FF00090913C0392FF07C08695869586950E9436
:10200000560B0E94E70F0895CF93C82F80913C0391
:1020100082FB992790F99C17E9F0C0FB82F9809325
:102020003C0380913B0390913C030E94661082E048
:102030000E94ED0F8091200380FF0CC01F92CF9370
:102040008BEA91E09F938F930E942B050F900F9046
:102050000F900F90CF91089580913C0382FB8827C9
:1020600080F991E089270E940410089581E00E9480
:102070000410089580E00E94041008956FEF7FEF30
:1020800090E080E00E948927089590E080E00E941F
:10209000552721E0853E9E4F09F020E0822F0895CC
:1020A00082E090E00E944D27089583E090E00E9436
:1020B0004D2790E00895682F83E090E00E946B2701
:1020C000089584E090E00E9455270895BC0184E0C3
:1020D00090E00E9489270895AB01BC018FE090E059
:1020E0000E947D270895AB01BC0183E190E00E942E
:1020F0007D27089560E070E0CB010E947310089581
:1021000060E070E0CB010E946C100E947A1008958C
:10211000A8E0B0E0EEE8F0E10C94102765EE7EEF69
:1021200090E080E00E94892760E082E090E00E94D9
:102130006B2781E090E09093A7028093A6020E9413
:102140005B1060E074E184E090E00E94892760E029
:1021500086E090E00E946B2760E087E090E00E94BC
:102160006B2740E050E0BA0188E090E00E947D27B4
:1021700060E083E290E00E946B2760E08CE090E0FA
:102180000E946B2760E08DE090E00E946B2719822F
:102190001A821B821C821D821E821F82188648E0C2
:1021A00050E067E170E0CE0101960E945B2740E0BD
:1021B00050E0BA018FE190E00E947D270E948010DC
:1021C0002896E2E00C942C270E9488100895682F2E
:1021D0008EE090E00E946B270895A6E0B0E0E3EF68
:1021E000F0E10C940E270E94C71E8C018091FE0224
:1021F0009091FF028017910781F019821A820E9444
:10220000C71E682F49815A81792F80E090E00E9493
:102210003C071093FF020093FE022696E4E00C9424
:102220002A270E94D31E60931C0370931D03809382
:102230001E0390931F0360931803709319038093F8
:102240001A0390931B030895089508950E94241182
:10225000089508950E9429110E9426110895089555
:102260000E942F11089508950E9433110E94301189
:1022700008958EED90E20E9417160E9425110E948B
:102280002A11089581E008950E94421108950E9444
:10229000421108950895089508950E944A110E94D8
:1022A0004B110E944C1108950E944510811102C0EB
:1022B0000E94E4100E945010809320030E9461103D
:1022C00090933C0380933B030E94F3180E945510A7
:1022D0000E940A0B8091A4029091A5020E942B0BF0
:1022E00008950E94BE1E0E946F150E9454110E9404
:1022F00003070E94C3180E942D160E9434110895EE
:10230000A8E0B0E0E6E8F1E10C9400270E94441157
:1023100081110AC00E94ED100E94C2180E9412078B
:102320002896E2E10C941C270E94851580E093E03A
:1023300098878F837C0110E0F70141905190619064
:1023400071907F01812F0E9451141F5F163009F494
:1023500067C0461657066806790671F38091200318
:1023600081FD0E945C140E944711282E10E0332446
:102370003394812F0E9451146B017C01EF81F88509
:102380004190519061907190F887EF83C414D50407
:10239000E604F704F1F100E0812C912C54018394C0
:1023A0004C245D246E247F24D301C201882199210D
:1023B000AA21BB21892B8A2B8B2BE9F02220D9F073
:1023C00009831A830E94C71E9C838B833D8221E070
:1023D000D701C60188219921AA21BB21892B8A2BEB
:1023E0008B2B09F420E049815A816B817C818D819E
:1023F000922F0E943C070F5F880C991CAA1CBB1CE3
:10240000013191F6EF81F8853497C082D182E28262
:10241000F3821F5F163009F0ACCF0E9411117CCF00
:10242000461657066806790609F098CF73CF1F93B2
:10243000CF93DF930E944613EC01C11580E5D807C6
:10244000F0F5C11580E4D80708F09CC0C03ED10566
:1024500020F5CD3CD10508F082C0C83AD10578F40A
:10246000C53AD10508F073C0C130D10519F12097E4
:1024700009F1C430D105F0F4D0E0C0E01BC0C33C8A
:10248000D105D0F7C85AD0E0CC0FDD1FC75BDE4FB7
:102490000990D881C02DD4640DC0C11580E2D80741
:1024A00008F0D1C0C11581E0D80708F05AC0C83E75
:1024B000D10510F7CE01DF91CF911F910895C0365D
:1024C00082E5D80718F5C03482E5D80708F06BC05C
:1024D000C03282E5D80708F05FC0C11582E5D80791
:1024E00008F497C02C2F2695269580E2289F90010E
:1024F00011248C2F8370C1E0D0E002C0CC0FDD1F0F
:102500008A95E2F7C22BD32BDD68D4CFC03A82E59F
:10251000D80760F4C03882E5D80708F459C0CF71F5
:10252000D0E0DC2FCC27C46FD06AC4CFC03C82E59A
:10253000D80708F462C0C03E82E5D80708F09CCFF7
:10254000DC2FCC27CC27DF71C06FD06AB3CFC55A40
:10255000D0E0C158DE4FC881D0E0D064ABCFD065A9
:10256000A9CF8D2F0E94E813182FCE0199270E9422
:102570004613C12FD0E0DC2FCC27CC27DF71C82B2E
:10258000D92B98CFCE0199270E944613CC27DF7014
:10259000C82BD92BD06A8ECFCF71D0E0DC2FCC27BF
:1025A000C16FD06A87CF2C2F26952695277080E2A1
:1025B000289F900111248C2F8370C1E0D0E002C0CD
:1025C000CC0FDD1F8A95E2F7C22BD32BDC6872CFCC
:1025D0002C2F26952695277080E2289F90011124A4
:1025E0008C2F8370C1E0D0E002C0CC0FDD1F8A9534
:1025F000E2F7C22BD32BDA685DCF8C2F8F710E944C
:10260000E813C82FD0E0DC2FCC27CC27DF71D062B5
:1026100051CF8C2F8F710E94E81355E0D695C79546
:102620005A95E1F7CF70D0E0DC2FCC27282F30E08F
:1026300084FF05C044E0220F331F4A95E1F7C22B07
:10264000D32BD06937CF8D2F8F710E94E813182FAD
:10265000CE0199270E944613C12FD0E0DC2FCC2752
:10266000CC27DF71C82BD92BD2CF462F763030F450
:10267000613120F4672F0E944B05089590E080E0BF
:1026800008950E9435130E9417120895823891050B
:10269000B9F1B0F48133910509F47DC048F4893271
:1026A000910509F46DC08A32910509F47BC0089543
:1026B0008533910509F45FC08933910509F10895C7
:1026C000833E9105D9F138F4803E910529F1823E8F
:1026D000910579F10895863E9105D9F1873E9105DE
:1026E00009F43EC0843E910541F520913C0321FF51
:1026F00024C080913B0384FD19C087EE90E00895CB
:1027000020913B03237009F05AC020913C0323FF22
:1027100014C089E290E0089520913B0320FD38C069
:1027200030913C0330FF09C024FF43C090E080E0BB
:10273000089520913B0322FDF7CF089520913B039C
:1027400022FD3AC030913C0330FD39C024FFF5CF63
:10275000EDCF20913B0323FFF0CF24FDE7CFCDCF7A
:1027600020913B0323FD2EC030913C0331FFEECF7F
:1027700084EE90E0089520913B0325FFDECFC9CF82
:1027800020913B0325FD21C020913C0323FFD5CFA1
:1027900089E390E0D2CF20913B0326FFCECF8AE29F
:1027A00090E0089520913B0326FFC7CF81E390E09E
:1027B000089583EE90E0089582EE90E0089580EE13
:1027C00090E0089586EE90E0089585E390E0089506
:1027D00090913B0392FF10C041E0282F24712430D8
:1027E00009F040E031E0282F2871283009F030E06E
:1027F000431711F02CE0822793FF10C041E0282FEF
:102800002471243109F040E031E0282F287128316B
:1028100009F030E0431711F02CE0822730913C039F
:1028200030FF10C051E0282F2171213009F050E015
:1028300041E0282F2871283009F040E0541711F0AA
:1028400029E0822731FF10C041E0282F217121317A
:1028500009F040E031E0282F2871283109F030E0FC
:10286000431711F029E0822794FD877E0895CF93C6
:102870009C01205E3245C1E02032310538F4FB0175
:10288000C581C11103C08F710E94DA058C2FCF91D1
:10289000089508950E944914089508950E944D14C2
:1028A000089594E0899FF0011124EB5AFC4F608158
:1028B0007181828193810895B0E0A0E0E2E6F4E1C5
:1028C0000C94062781ED91E09F938F930E942B0536
:1028D00085E5E82E83E0F82E0F900F90912C812C47
:1028E0009CECA92E91E0B92E29ECC22E21E0D22E2B
:1028F00002EC11E0C0ECD1E09F928F92BF92AF92B8
:102900000E942B05DF92CF920E942B05F701619167
:102910007191819191917F010E94CB069F938F933A
:102920007F936F931F930F930E942B05DF93CF9399
:102930000E942B059FEF891A990AEDB7FEB73E96C4
:102940000FB6F894FEBF0FBEEDBFF6E08F169104F0
:1029500099F6CDB7DEB7ECE00C94222780EA8A9591
:10296000F1F7089500C008950E94AE140895F894F8
:10297000E82FE295EF70F0E031A1282F2F7081E071
:1029800090E001C0880F2A95EAF7982F909593233D
:1029900091A392A1892B82A3789408950F931F93FA
:1029A000CF93DF93C3E9D1E089918F3F11F00E946B
:1029B000B71481E0C939D807B9F7C2E8D1E003E913
:1029C00011E089918F3F11F00E94B7140C171D0779
:1029D000C1F7DF91CF911F910F9108958F929F9230
:1029E000AF92BF92DF92EF92FF920F931F93CF931C
:1029F000DF938C01D62EC62FD0E0CE018D569E4F90
:102A00007C01FC0120812F3F09F45DC0F894E22F86
:102A1000E295EF70F0E031A12F7081E090E001C00D
:102A2000880F2A95EAF7932F982B91A392A180956E
:102A3000892382A378940E94B214E2E8F1E041E095
:102A400050E060E070E0812C912C540181918F3F27
:102A500089F0A82FA295AF70B0E090962C9130E04D
:102A60008F7002C0359527958A95E2F7DB01CA0180
:102A700020FF03C080E090E0DC01882A992AAA2A7E
:102A8000BB2A440F551F661F771F81E0E339F80703
:102A9000E9F6F70180818F3F11F00E94B71461E0E1
:102AA00081149104A104B10409F460E08D2D0E9409
:102AB000B414CC0FDD1FCC0FDD1FC00FD11F8882D7
:102AC0009982AA82BB82DF91CF911F910F91FF90D3
:102AD000EF90DF90BF90AF909F908F9008950E94ED
:102AE000CE1488E1E5E5F3E0DF01982F1D929A9579
:102AF000E9F7EDE3F3E0DF011D928A95E9F786E05F
:102B00000E94C0150E944A140895A8E1B0E0EBE8C5
:102B1000F5E10C940D278E010F5F1F4F88E1F8013E
:102B200011928A95E9F7F12C6F2DC8010E94EE14DD
:102B3000F394F6E0FF12F8CF48E150E0B8018DE3DE
:102B400093E00E94372721E0009709F420E0892BC9
:102B500041F088E1F801ADE3B3E001900D928A9570
:102B6000E1F746E065E573E08DE393E00E94C1156F
:102B7000182F0E944E14812F6896E5E00C942927A7
:102B80000895B0E0A0E0E7ECF5E10C940A276C01B1
:102B90007B01042FC22F222379F081E0809323034D
:102BA0000E94C71E909322038093210380E0CDB73B
:102BB000DEB7E8E00C942627D0912303DD23B1F3A0
:102BC00080912103909122030E94561E059770F375
:102BD00084E0089F80011124A801B601C7010E946A
:102BE0003727892B31F0A801B601C7010E9444277D
:102BF000CD2F109223038C2FDACF0E9480110895DD
:102C00000E94601E0E9440210E9439110E945A2198
:102C10000E9471110E9467210E946C210E94FD1583
:102C20000E9492210E94751F0E944D11F5CF909332
:102C3000690280936802089586E090E00E944D2723
:102C40000895682F86E090E00E946B2708958DE13B
:102C500080936D030E94211608950E941C16809394
:102C60006D0382FD0EC08091200380FF08C087E7BE
:102C700092E09F938F930E942B050F900F900E94DC
:102C8000271680916D03803220F0877088618093D1
:102C90006D0390916D03892F817090FF04C0892F7F
:102CA0008695869586950E940518089580916D03F6
:102CB000982F969596959695933040F49F5F990F2F
:102CC000990F990F8770892B80936D0380916D0305
:102CD000816080936D030E9421168091200380FF04
:102CE00011C080916D038695869586951F928F936E
:102CF0008FE592E09F938F930E942B050F900F908A
:102D00000F900F9080916D038695869586950E9411
:102D10000518089580916D03982F987F79F0885059
:102D200080936D03887F91E009F490E080916D03BA
:102D300090FB80F980936D030E94211680912003FF
:102D400080FF11C080916D038695869586951F92B0
:102D50008F9387E492E09F938F930E942B050F90AF
:102D60000F900F900F9080916D03869586958695B4
:102D70000E940518089580916D0380FD1FC0816039
:102D800080936D03813019F489E080936D03809105
:102D90006D030E9421168091200380FF08C08FE1FF
:102DA00092E09F938F930E942B050F900F9080913C
:102DB0006D038695869586950E94051808958091E5
:102DC0006D0380FF14C08E7F80936D030E942116D7
:102DD0008091200380FF08C08CE092E09F938F9346
:102DE0000E942B050F900F9080E00E940518089517
:102DF000CF93C0916D03C1708091200380FF0CC000
:102E00001F92CF9381E392E09F938F930E942B05B3
:102E10000F900F900F900F90CC2321F00E94DF169F
:102E2000CF9108950E94BB16FBCF90916D03892F1F
:102E30008695869586958F5F8F719770843088F51B
:102E4000880F880F880F892B80936D0380916D0305
:102E5000887F91E009F490E080916D0390FB80F908
:102E600080936D030E9421168091200380FF11C082
:102E700080916D038695869586951F928F9388EF36
:102E800091E09F938F930E942B050F900F900F90CE
:102E90000F9080916D038695869586950E94051802
:102EA000089590936D03D2CF843008F083E0909121
:102EB0006D039770282F220F220F220F922B9093D1
:102EC0006D03987F21E009F420E090916D0320FBD1
:102ED00090F990936D030E94051808950E9454176D
:102EE00080916D030E94211608959C01FB0185814C
:102EF000882349F12230F8E73F07F9F040F4211523
:102F0000E8E73E0769F02130384779F0089524302A
:102F100098E7390779F058F02530384789F0089557
:102F200083E00E946E1780E0089580E0FACF0E944F
:102F30008A16F9CF0E945616F6CF0E94F816F3CFE4
:102F40000E941517F0CF81E00895509A589A08957D
:102F500058980895589A08951F920F920FB60F929D
:102F600011242F933F934F935F936F937F938F938E
:102F70009F93AF93BF93EF93FF930E94AA17FF9184
:102F8000EF91BF91AF919F918F917F916F915F91E1
:102F90004F913F912F910F900FBE0F901F9018955A
:102FA0001F920F920FB60F9211242F933F934F93BE
:102FB0005F936F937F938F939F93AF93BF93EF93A1
:102FC000FF93209188003091890080918600909134
:102FD00087006AEF70E00E94AA266B5F7F4F62173E
:102FE000730710F40E94A817FF91EF91BF91AF9162
:102FF0009F918F917F916F915F914F913F912F9111
:103000000F900FBE0F901F9018958F929F92AF92C6
:10301000BF92EF92FF920F931F93CF93DF93C82F2E
:10302000843008F043C0811142C0809188009091A3
:103030008900892B51F080916F008D7F80936F0004
:1030400080916F008E7F80936F000E94AA17A091DD
:103050008600B09187002C2F30E00E94E62623E006
:1030600030E040E050E00E94BE2689019A01809144
:103070008600909187006CE070E00E94AA2660179D
:10308000710730F1C80169E070E00E94AA267093D0
:10309000890060938800DF91CF911F910F91FF907D
:1030A000EF90BF90AF909F908F900895C3E0809174
:1030B000880090918900892B51F680916F00826081
:1030C00080936F0080916F00816080936F00BFCF0D
:1030D0008091860090918700E0908600F0908700B4
:1030E000E0918600F0918700C6E0D0E0BE010E942A
:1030F000AA26060F171F211D311D4801590185E021
:10310000880C991CAA1CBB1C8A95D1F7C701BE016B
:103110000E94AA269F0150E040E0260F371F411D64
:10312000511DC501B4010E94BE2649015A01E0911A
:103130008600F0918700CA01B9010E948E269B018A
:10314000AC01DF010E94F5269B01AC01C501B40171
:103150000E948E262FE096958795779567952A95FC
:10316000D1F7009186001091870030E020E006172B
:1031700017072807390708F08ACF609186007091F9
:10318000870085CF08950E94A51782E08093800074
:1031900089E1809381008FEF9FEF90938700809368
:1031A00086000E942D1608950E943E10089580E02A
:1031B0000E945114862F817008950E9485152FEF6B
:1031C00086E791E0215080409040E1F700C0000088
:1031D0000E9485150E94D718882321F00E94D418D8
:1031E0000E94031F08950E94DD180895CF93C82FF1
:1031F0001F928F9389EC92E09F938F930E942B05EF
:1032000081E090E002C0880F991FCA95E2F70E9402
:103210000A0B0E94BD0A0F900F900F900F90CF9154
:103220000895EF92FF920F931F93CF93DF938B310B
:1032300009F442C108F0D0C08B3009F4EEC008F0A8
:10324000A2C0863009F402C168F4853009F4D2C006
:1032500085E996E09F938F930E942B050F900F9026
:1032600080E00CC1873009F40EC1883089F70E94D4
:1032700055109F938F9388E796E09F938F930E94BA
:103280002B050E94501083FB992790F91F929F9362
:1032900082FB992790F91F929F9381FB992790F9C0
:1032A0001F929F93982F91701F929F931F928F93BD
:1032B0008FE296E09F938F930E942B050E946110EE
:1032C00093FB222720F91F922F9387FB222720F9B7
:1032D0001F922F9386FB222720F91F922F9385FBA5
:1032E000222720F91F922F9384FB222720F91F9277
:1032F0002F9383FB222720F91F922F9382FB2227F3
:1033000020F91F922F9391FB222720F91F922F93D0
:10331000292F21701F922F9381FB222720F91F92C2
:103320002F93282F21701F922F939F938F9380E3C9
:1033300095E09F938F930E942B058DB79EB78A9639
:103340000FB6F8949EBF0FBE8DBF0E941C16982F1B
:103350009695969596951F929F93982F91701F9290
:103360009F931F928F938DEF94E09F938F930E9472
:103370002B058DB79EB708960FB6F8949EBF0FBE6B
:103380008DBF81E07BC0803109F4B0C080F48E3005
:1033900009F05ECF90912003892F8B7F92FF84608C
:1033A0008093200382FF9FC080EC96E091C086311D
:1033B00009F4ACC0893109F04BCF89E991E09F93C2
:1033C0008F9389E393E09F938F930E942B050F9037
:1033D0000F900F900F90D5CF8A3269F1A0F4873209
:1033E00031F128F48E3108F433CF8D5121C0893268
:1033F00009F02ECF83E097E09F938F930E942B05D7
:103400000E94080620C0833478F48A3308F0A5C0EF
:10341000853369F0883309F01BCF87E593E09F93EC
:103420008F930E942B050FC0833409F011CF80E0E9
:103430000E94F618A6CF83E297E09F938F930E9495
:103440002B050E94E4100F900F909BCF80912003DA
:10345000807F809320038CE393E09F938F930E945F
:103460002B058FE197E09F938F930E942B0581E0BE
:10347000809324030F900F900F900F90CDB7DEB77D
:10348000E6E00C94282790912003892F8E7F90FFEF
:1034900081608093200380FF03C087EF96E0BFCF59
:1034A0008AEE96E09F938F930E942B0580912003D4
:1034B000817F80932003C7CF90912003892F8D7F38
:1034C00091FF82608093200381FF0AC08DED96E01A
:1034D0009F938F930E942B05809120038160E9CFF9
:1034E0008FEC96E09CCF80EB96E099CF90912003F3
:1034F000892F877F93FF88608093200383FF03C019
:1035000084EA96E0E5CF87E996E089CF0E94D31E52
:10351000162F072FF82EE92E0E94321ED82F0E9458
:10352000121EC82F0E94B61CEF92FF920F931F939A
:103530001F92DF931F92CF931F928F938EEC92E096
:103540009F938F930E942B058DB79EB70C960FB655
:10355000F8949EBF0FBE8DBF14CF895369CF80E012
:1035600008950E94AF1A0895CF93C82F8091240325
:10357000882331F0813099F01092240380E00DC04F
:103580000E94390F8232D1F78C2F0E94AF1A81111D
:103590001DC08C2F0E9411198170CF9108950E9437
:1035A000390F823289F38C2F0E94B11A811125C004
:1035B000C43129F170F4CB3081F083EC92E09F9319
:1035C0008F930E942B050F900F901BC081E090E01D
:1035D000E3CFC932A1F0C83381F78CE393E09F9326
:1035E0008F930E942B0585EC92E09F938F930E940E
:1035F0002B050F900F900F900F9081E0CDCF109280
:10360000240380E0C9CFCF93DF93EB0186319C4741
:1036100011F50E94390F9D81992399F08A7A91E0E2
:1036200009F490E090932503811109C089E20E947A
:10363000AE1D0E94C80F80E0DF91CF91089585E311
:10364000F6CF80912503811104C089E20E94B61D46
:10365000F0CF85E3FBCF81E0EFCFCF93DF93EC0199
:10366000FB018581882309F4D2C09E0130572332A3
:10367000310508F0B2C00E94611090933C03809322
:103680003B03FE01E150F047E232F10520F4E3553F
:10369000F84D0C94E02680913B03816080933B03BE
:1036A00093C080913C03886080933C038DC08091DF
:1036B0003B038260F3CF80913B038460EFCF809126
:1036C0003B038860EBCF80913C038160EDCF80911C
:1036D0003C038260E9CF80913B038061DFCF809122
:1036E0003B038062DBCF80913B038064D7CF0E9495
:1036F000BD0A80913B038068D1CF80913B038C60F1
:10370000CDCF80913C038360CFCF80913B038E7FF0
:10371000C5CF80913C03877FC7CF80913B038D7FCE
:10372000BDCF80913B038B7FB9CF80913B03877FD7
:10373000B5CF80913C038E7FB7CF80913C038D7FC6
:10374000B3CF80913B038F7EA9CF80913B038F7DC8
:10375000A5CF80913B038F7BA1CF0E94BD0A8091B2
:103760003B038F779BCF80913B03837F97CF8091E3
:103770003C038C7F99CF80913B0382FB992790F982
:1037800021E0922790FB82F990FB83F987CF80910B
:103790003C03982F909591708E7F892B90FB81F937
:1037A00083CF90913B03892F8F7B96FF806476CFE8
:1037B0000E94BD0A90913B03892F97FB87F980589F
:1037C0006DCF81E00E94E71080913B0390913C0314
:1037D0000E9466100E94BD0A80E0DF91CF9108959B
:1037E00080E0F0CF90913B03892F8F7E94FF806122
:1037F00055CF90913B03892F8E7F90FF81604ECFF4
:1038000090913C03892F877F93FF88604DCF81E0A3
:10381000E4CF0F931F93CF93DF93C42FD22FFC01DC
:1038200085818823C9F0409328030E94C71E909386
:1038300027038093260380E28C0F883040F4C77002
:1038400081E001C0880FCA95EAF70E947108DF91F4
:10385000CF911F910F91089510912803141332C036
:1038600080912603909127030E94561E883C910563
:1038700048F5C0E2CD0F1D17B9F080E2810F883006
:1038800040F4177081E001C0880F1A95EAF70E9492
:103890007808C83048F481E09D2F977001C0880FE8
:1038A0009A95EAF70E947108802F0E946808C83034
:1038B00070F6D77081E001C0880FDA95EAF70E94B0
:1038C0007808C5CF80E28C0F883008F6C77081E099
:1038D00001C0880FCA95EAF7F2CF0F93DB01885138
:1038E0009C4787309105A0F5FC01E153F84D0C94FD
:1038F000E02606E221EE41EE6AE17CE7CD010E947E
:10390000091C80E00F91089507E225EE45EE6BE17A
:103910007CE7F4CF06E221EE40EE68E17CE7EECFF3
:1039200007E225EE44EE69E17CE7E8CF06E221EE0E
:1039300042EE6CE17CE7E2CF07E225EE46EE6DE178
:103940007CE7DCCF08E221E045EE6EE17CE7D6CFF4
:1039500015968C91882319F010922803D3CF81E01B
:10396000D1CF90932E0380932D030895E0912D03E2
:10397000F0912E03309729F00190F081E02D099508
:10398000089580E008950E94B61C0895EF92FF927A
:103990000F931F93CF93DF93EC01E0912D03F091F0
:1039A0002E033097E1F10280F381E02D099580919B
:1039B000200382FF34C080FF0DC088811F928F9347
:1039C0008CE397E09F938F930E942B050F900F90AD
:1039D0000F900F907E0186E0E80EF11C06E317E0E1
:1039E0008091200380FF0BC08A811F928F931F93C9
:1039F0000F930E942B050F900F900F900F90219620
:103A0000CE15DF0569F78091200380FF08C084E3AD
:103A100097E09F938F930E942B050F900F90CDB747
:103A2000DEB7E6E00C942827A3E0B0E0EAE1FDE190
:103A30000C94102720912B0330912C032817390761
:103A4000A1F090932C0380932B03E0912D03F09130
:103A50002E03309751F023E029839B838A830084CF
:103A6000F185E02DCE01019609952396E2E00C94B4
:103A70002C27A3E0B0E0EFE3FDE10C9410272091A8
:103A8000290330912A0328173907A1F090932A03BC
:103A900080932903E0912D03F0912E03309751F08C
:103AA00024E029839B838A830084F185E02DCE0165
:103AB000019609952396E2E00C942C274091000191
:103AC000509101019A012E5F3F4F485F5F4F80E0A8
:103AD0002417350709F40895F90191919F0199235D
:103AE000B9F38F5FF5CF882371F0209100013091F9
:103AF0000101F9013296285F3F4F9191981729F003
:103B0000E217F307D1F780E0089581E008959C0162
:103B1000FC0132969FEF80E04191461751F09F3FA4
:103B200019F4411101C0982F8F5F8630A9F79F3F8C
:103B300009F40895290F311D97FD3A95F901628323
:103B40000895FC01329608962191261303C0DF01E7
:103B500011971C92E817F907B9F70895682F80911B
:103B60000001909101010E94871D0895682F8091A6
:103B70000001909101010E94A11D0895E0910001B2
:103B8000F0910101329686E0DF011D928A95E9F7F6
:103B9000089508950E94C91D089581110EC081E005
:103BA00080930501609102017091030180910401ED
:103BB000909105010E94CA1D089582E0F1CF83E033
:103BC00080930501609102017091030180910401CD
:103BD000909105010E94CA1D08950E94CD1D08956F
:103BE00081E0809305016091020170910301809151
:103BF0000401909105010E94CA1D08950E94F01DC4
:103C0000089591E0811101C090E0909304016091CA
:103C100002017091030180910401909105010E94BD
:103C2000CA1D089580910401089580930301609155
:103C300002017091030180910401909105010E949D
:103C4000CA1D089580910301089580930201609137
:103C500002017091030180910401909105010E947D
:103C6000CA1D0895809102010895089508950E9443
:103C7000361E0895089508950E94351E0895CF9325
:103C80000E943A1E0E9485150E943B1EC0E08C2FA8
:103C90000E945114672B682B692B31F4CF5FC6301B
:103CA000B1F780E0CF91089581E0FCCFCF93DF930F
:103CB000EC010E94C71E8C1B9D0BDF91CF910895D4
:103CC00085B7806885BF85B7806885BF08951F92D6
:103CD0001FB61F9211248F939F93AF93BF93809130
:103CE0002F03811113C080916E0390916F03A091F7
:103CF0007003B09171034196A11DB11D80936E03B5
:103D000090936F03A0937003B0937103BF91AF9131
:103D10009F918F911F901FBE1F90189580917603E1
:103D2000843031F10E94930610922F0388E190E0D5
:103D300020E40FB6F894A895809360000FBE2093FE
:103D4000600083B7817F846083BF83B7816083BF56
:103D50007894889583B78E7F83BF0FB6F894A89523
:103D600080916000886180936000109260000FBEB7
:103D700008950E94BD0A0E949D06089582E084BDB8
:103D800093E095BD9AEF97BD80936E0008952FB78D
:103D9000F89480916E0390916F03A0917003B0919D
:103DA00071032FBF08952FB7F89460916E0370913F
:103DB0006F0380917003909171032FBF08957894E1
:103DC0001F921FB61F9211248F939F93AF93BF939F
:103DD00080916E0390916F03A0917003B091710375
:103DE0000196A11DB11D80936E0390936F03A09364
:103DF0007003B0937103BF91AF919F918F911F900A
:103E00001FBE1F90189581E08093E00080E28093B0
:103E1000D8001092C9008FE19EE40197F1F700C02D
:103E2000000087E090EBDC0180937F039093800398
:103E3000A0938103B093820388E19CE00FB6F894CD
:103E4000A895809360000FBE90936000FFCF88E13B
:103E50009CE00FB6F894A895809360000FBE9093F5
:103E60006000FFCF089508959B01BA0190917603F9
:103E70009430E9F48F708093E9009FEF8091E8001F
:103E8000915085FD06C085ED8A95F1F700009111EE
:103E9000F5CF8091E80085FF0AC050E040E0C901FD
:103EA0000E9408228091E8008E778093E8000895B0
:103EB00043E050E0BC0182E00E94341F0895CF939C
:103EC000DF93EC010E94121E48E050E0BE0181E049
:103ED0000E94341F88E0FE01A3E3B3E001900D923D
:103EE0008A95E1F7DF91CF91089508958BE797E0E8
:103EF0009F938F930E942B05809175030F900F90D5
:103F0000811109C00E9498230E94F5238091E2004C
:103F100084608093E200089587E797E09F938F93F2
:103F20000E942B05109275030F900F90089583E760
:103F300097E09F938F930E942B050E94F01D81E0D4
:103F40000E94011E0F900F9008958FE697E09F93B7
:103F50008F930E942B056091720381E0611101C073
:103F600080E00E94DF1D0F900F9008958BE697E090
:103F70009F938F930E942B059091760381E094305C
:103F800009F080E0609172030E94ED1D0F900F9088
:103F90000895209131032F5F822F62E30E949E26B5
:103FA000992319F0209331030895109231038091E1
:103FB00032038823F1F0809176038430C1F490912C
:103FC000E9009F702091EC00822F817020FD80E835
:103FD000892B93E09093E9009091EB0090FF04C04F
:103FE0009091EE0097FD08C08F708093E9001092C9
:103FF000320308951092F1009091E80095FDFACFF8
:104000009091E80090FFF0CF9091E8009E77909318
:10401000E800EACF42E061EC81E00E94142342E232
:1040200061EC82E00E94142342E261EC83E00E9492
:1040300014239091760381E0943009F080E0609140
:1040400072030E94CD1D089580917803833009F496
:1040500061C030F48130D1F1823009F49EC00895FE
:104060008A3009F48AC08B3009F46FC0893009F0B6
:1040700050C080917703813209F04BC080917B035F
:1040800090917C03029708F044C08091E800877FFC
:104090008093E8008091E80082FF37C09091F300A0
:1040A0008091F200029731F48091F100813011F09B
:1040B000863021F48091F1000E94151E8091E80065
:1040C0008B778093E8000E94482323C08091770378
:1040D000813AF9F48091E800877F8093E80080912D
:1040E0007B0390917C03892B61F468E083E393E088
:1040F00070E00E9457228091E8008B778093E8005F
:10410000089560E090E080E0F3CF80917603811124
:10411000C1CF089580917703813AD9F780917B03CD
:1041200090917C03892BA9F78091E800877F809389
:10413000E8008091E80080FFFCCF0E94121E80936F
:10414000F1008091E8008E77BCCF809177038132B7
:1041500001F780917B0390917C03892BD1F68091AC
:10416000E800877F8093E8000E94482380917903CC
:104170000E94011E0E94BD0A08958091770381323A
:1041800041F68091E800877F8093E8000E944823F1
:1041900080917A030E94251E089580917703813AC9
:1041A00009F0B7CF8091E800877F8093E800809185
:1041B000E80080FFFCCF0E94321EC1CF9FB7F89469
:1041C000109232039FBF90917603943009F048C05B
:1041D0002091E9002F703091EC00932F917030FD09
:1041E00090E8922B23E02093E9002091EB0020FF40
:1041F00034C02091EE0027FF30C0209130032223ED
:1042000021F02091E80025FF28C01092300326E01D
:104210003091E80035FF14C08093F1008091E800F0
:1042200085FD27C08091E80080FFFCCF8091E800E9
:104230008E778093E8009F709093E90080E0089566
:1042400030917603343049F43091EB0035FD05C0F0
:10425000215041F481E0809330039F709093E900F6
:104260008FEF0895EFE9FFE03197F1F700C000000C
:10427000CFCF8FB7F89421E0209332038FBFDBCFED
:1042800084B7877F84BF0FB6F894A89580916000AB
:10429000886180936000109260000FBE80E890E01B
:1042A0000FB6F89480936100909361000FBE0E9456
:1042B000FE1D08950E9498230E94F523E2EEF0E08F
:1042C00080818460808378940E947326089586E0BC
:1042D00091E00E94B11C089580917603853091F49D
:1042E0008091200380FF08C085E597E09F938F931E
:1042F0000E942B050F900F9080917603853019F066
:104300000E94B91E08950E948E1E0E943F1E88239F
:1043100099F380917403882379F30E94F2210E941B
:10432000BD0AEACF08959A0140917D0350917E0322
:104330000E949B210895492F55274330510521F1B3
:1043400068F44130510509F443C04230510509F485
:1043500044C090E080E050E040E026C0413251058A
:1043600051F142325105A9F76330710590F7FB0115
:10437000EE0FFF1FE55AFD4F40815181685A7D4F76
:10438000FB01808190E010C099278130910581F078
:10439000009729F00297E9F6EFE7F7E002C0E3EAB9
:1043A000F7E0849190E0AF01F901518340830895D3
:1043B000EBE8F7E0F6CF6330710558F6660F771F2C
:1043C000FB01EF59FD4F4081518189E090E0ECCF36
:1043D00082E190E04BEF57E0E7CF84E590E047EAD9
:1043E00057E0E2CF80E189BD82E189BD09B400FEDA
:1043F000FDCF8091D8008F7D8093D8008091E00020
:1044000082608093E0008091E00081FDFCCF089500
:10441000AF92BF92CF92DF92FF920F931F93CF93F1
:10442000DF936C01EB018A010E946723F82E811152
:1044300023C00115110539F0F80180819181C81B55
:10444000D90BC80ED91EB12CA12C2097A9F08091B0
:10445000E80085FD22C08091E8008E778093E80017
:1044600001151105A1F0F80180819181A80EB91EF6
:10447000B182A08285E0F82E8F2DDF91CF911F9120
:104480000F91FF90DF90CF90BF90AF9008950E9462
:1044900067238823D1F2F82EEFCFF60181916F01C7
:1044A0008093F1002197FFEFAF1ABF0ACECFFC0136
:1044B00080917D0390917E0386179707A0F0611588
:1044C000710529F49091E8009E779093E80090E0C0
:1044D0006115710551F4911108C08091E80082FFC7
:1044E00034C080E00895BC01F2CF80917603882328
:1044F000C1F18530C1F18091E80083FD30C0809129
:10450000E80082FDEACF8091E80080FFE1CF809152
:10451000F3002091F200382F6115710519F0283051
:10452000310558F091E02830310509F090E02091F4
:10453000E8002E772093E800CBCF81918093F100A3
:10454000615071092F5F3F4FE7CF80917603882339
:1045500041F0853041F08091E80083FFBECF81E0DB
:10456000089582E0089583E00895FC0180917D0321
:1045700090917E0386179707A0F06115710529F4C5
:104580008091E8008E778093E80090E061157105D6
:1045900051F4911108C08091E80082FF35C080E09D
:1045A0000895BC01F2CF809176038823C9F185304C
:1045B000C9F18091E80083FD31C08091E80082FD5F
:1045C000EACF8091E80080FFE1CF8091F300209155
:1045D000F200382F6115710519F02830310558F0B7
:1045E00091E02830310509F090E08091E8008E7765
:1045F0008093E800CBCF84918093F1003196615095
:1046000071092F5F3F4FE6CF80917603882341F0F9
:10461000853041F08091E80083FFBDCF81E00895AF
:1046200082E0089583E00895982F973028F08F70E6
:104630008093E90081E008959093E900242F762F7C
:1046400050E0981731F07091EC002091ED005091FE
:10465000F00021FD02C09F5FE8CF3091EB003E7F6C
:104660003093EB003091ED003D7F3093ED003091C1
:10467000EB0031603093EB007093EC002093ED0081
:104680005093F0002091EE0027FDE5CF80E00895E3
:104690008091770387FF13C08091E80082FF06C0F6
:1046A0008091E8008B778093E80004C080917603C6
:1046B0008111F2CF0895809176038823D9F38091F8
:1046C000E80080FFF8CF8091E8008E77ECCF209152
:1046D000E4003091E50095E6A9012091EC00822FDD
:1046E000817020FF06C08091E80080FF06C080E056
:1046F00008952091E80022FD1AC080917603882356
:1047000089F0853089F08091EB0085FD0FC0209104
:10471000E4003091E50042175307F9F29150E1F6B9
:1047200084E0089582E0089583E0089581E008958B
:104730000E9407240E940F24E0EEF0E08081816057
:104740008083E8EDF0E080818F77808319BCA7ED4E
:10475000B0E08C918E7F8C9380818F7E80831092CD
:10476000750308950F931F93CF93DF930E9407243F
:104770000E940F24C8EDD0E088818F7788838881DC
:104780008068888388818F7D888319BC1092760326
:1047900010927203109274031092730300EE10E0F3
:1047A000F80180818B7F808388818160888342E0EB
:1047B00060E080E00E941423E1EEF0E080818E7FD3
:1047C0008083E2EEF0E08081816080838081886078
:1047D0008083F80180818E7F8083888180618883D7
:1047E000DF91CF911F910F910895E8EDF0E0808166
:1047F0008F7E8083E7EDF0E080818160808384E0BC
:1048000082BF81E0809375030E94B2230895E8ED92
:10481000F0E080818E7F80831092E20008951092F4
:10482000DA001092E10008951F920F920FB60F92D6
:1048300011242F933F934F935F936F937F938F93A5
:104840009F93AF93BF93EF93FF938091E10082FF1B
:104850000BC08091E20082FF07C08091E1008B7F56
:104860008093E1000E94C91F8091DA0080FF19C087
:104870008091D80080FF15C08091DA008E7F8093F0
:10488000DA008091D90080FF96C080E189BD82E185
:1048900089BD09B400FEFDCF81E0809376030E94BC
:1048A000761F8091E10080FF19C08091E20080FFB7
:1048B00015C08091E2008E7F8093E2008091E2003B
:1048C00080618093E2008091D80080628093D8005C
:1048D00019BC85E0809376030E94A51F8091E100BA
:1048E00084FF2BC08091E20084FF27C080E189BD56
:1048F00082E189BD89B5982F917080FFFBCF8091AF
:10490000D8008F7D8093D8008091E1008F7E8093C6
:10491000E1008091E2008F7E8093E2008091E200CE
:1049200081608093E20080917203882309F449C07A
:1049300084E0809376030E94B61F8091E10083FF9C
:1049400029C08091E20083FF25C08091E100877F2C
:104950008093E10082E0809376031092720380914D
:10496000E1008E7F8093E1008091E2008E7F809352
:10497000E2008091E20080618093E20042E060E02A
:1049800080E00E9414238091F00088608093F00002
:104990000E94971FFF91EF91BF91AF919F918F91CF
:1049A0007F916F915F914F913F912F910F900FBE2B
:1049B0000F901F90189519BC109276030E948C1FBF
:1049C00070CF8091E30087FD93E090937603B3CF9F
:1049D0001F920F920FB60F9211242F933F934F9374
:1049E0005F936F937F938F939F93AF93BF93CF9377
:1049F000DF93EF93FF93D091E900DF708091EC009B
:104A0000C82FC17080FDC0E81092E9008091F000CD
:104A1000877F8093F00078940E942C251092E90003
:104A20008091F00088608093F000CD2BCF70C09310
:104A3000E900FF91EF91DF91CF91BF91AF919F91ED
:104A40008F917F916F915F914F913F912F910F9037
:104A50000FBE0F901F901895AAE2B0E0E2E3F5E2D6
:104A60000C940F2787E793E02091F100FC0121933C
:104A7000CF01F3E08F379F07B9F70E942420809180
:104A8000E80083FF1EC180917703909178039A30EC
:104A900008F017C1E92FF0E0EA52F84D0C94E02637
:104AA000803899F0823809F00CC180917B038F70B7
:104AB000873008F006C18093E9008091EB0085FB08
:104AC000882780F91092E90006C0809173039091C5
:104AD0007403911182609091E800977F9093E800B1
:104AE0008093F1001092F1008091E8008E77E5C08C
:104AF000882309F4D3C0823009F0E3C080917903A0
:104B00008111D6C080917B038F702FEF280F263044
:104B100008F0D7C08093E9002091EB0020FFC8C0C7
:104B2000933031F48091EB0080628093EB00C0C041
:104B30009091EB0090619093EB0021E030E001C098
:104B4000220F8A95EAF72093EA001092EA008091FA
:104B5000EB008860EACF8111B4C0109179031F7710
:104B60008091E3008078812B8093E3008091E800BE
:104B7000877F8093E8000E9448238091E80080FFAF
:104B8000FCCF8091E30080688093E30082E0111104
:104B900083E08093760395C08058823008F091C0FE
:104BA0008091790390917A038C3D23E09207A1F5DF
:104BB00083E08A838AE289834FB7F894DE011396F3
:104BC00020E03EE051E2E32FF0E050935700E49103
:104BD00020FF03C0E295EF703F5FEF708E2F90E0F3
:104BE000EA30C0F0C7968D939D932F5F243159F71B
:104BF0004FBF8091E800877F8093E8006AE270E011
:104C0000CE0101960E9457228091E8008B77809315
:104C1000E80057C0C096E7CF60917B0370917C039A
:104C2000AE014F5F5F4F0E949321BC01892B09F4B5
:104C300048C09091E800977F9093E80089819A811D
:104C40000E94B522E1CF8038E1F58091E800877FAE
:104C50008093E800809172038093F10045CF811129
:104C600030C090917903923060F58091E800877FA1
:104C70008093E800909372030E944823809172030E
:104C8000882311F084E005C08091E30087FDFACF0E
:104C900081E0809376030E940A2013C080917903FB
:104CA000813079F481E0933009F080E080937403DF
:104CB0001092E9008091E800877F8093E8000E94CD
:104CC00048238091E80083FF0AC08091E800877F35
:104CD0008093E8008091EB0080628093EB00AA96BD
:104CE000E3E00C942B27CF93809176038823A1F0E7
:104CF000C091E900CF709091EC00892F817090FDF8
:104D000080E8C82B1092E9008091E80083FD0E94A2
:104D10002C25CF70C093E900CF910895DB018F93CC
:104D20009F930E94F526BF91AF91A29F800D911D88
:104D3000A39F900DB29F900D11240895991B79E0C7
:104D400004C0991F961708F0961B881F7A95C9F71B
:104D500080950895AA1BBB1B51E107C0AA1FBB1F6A
:104D6000A617B70710F0A61BB70B881F991F5A95F7
:104D7000A9F780959095BC01CD010895A1E21A2E66
:104D8000AA1BBB1BFD010DC0AA1FBB1FEE1FFF1FEF
:104D9000A217B307E407F50720F0A21BB30BE40B3F
:104DA000F50B661F771F881F991F1A9469F7609586
:104DB0007095809590959B01AC01BD01CF01089540
:104DC000EE0FFF1F0590F491E02D0994A29FB00112
:104DD000B39FC001A39F700D811D1124911DB29F2F
:104DE000700D811D1124911D08950E94E626A59F36
:104DF000900DB49F900DA49F800D911D11240895D6
:104E00002F923F924F925F926F927F928F929F92DA
:104E1000AF92BF92CF92DF92EF92FF920F931F93C8
:104E2000CF93DF93CDB7DEB7CA1BDB0B0FB6F89479
:104E3000DEBF0FBECDBF09942A88398848885F84B9
:104E40006E847D848C849B84AA84B984C884DF802A
:104E5000EE80FD800C811B81AA81B981CE0FD11D0E
:104E60000FB6F894DEBF0FBECDBFED010895FB0174
:104E7000DC0104C08D910190801921F44150504013
:104E8000C8F7881B990B0895FB01DC0102C0019053
:104E90000D9241505040D8F70895F999FECF92BD38
:104EA00081BDF89A992780B50895A8E1B0E042E065
:104EB00050E00C949127DC01A40FB51F41505040E5
:104EC00048F0CB01840F951F2E910E946C27415012
:104ED0005040D0F70895262FF999FECF92BD81BD9D
:104EE000F89A019700B4021639F01FBA20BD0FB628
:104EF000F894FA9AF99A0FBE08950396272F0E9404
:104F00006C270E946B27252F0E946C27242F0C945E
:104F10006C270196272F0E946C270C946B27DC01CD
:104F2000CB01FC01F999FECF06C0F2BDE1BDF89AB4
:104F3000319600B40D9241505040B8F70895F8945E
:104F4000FFCFC008C008FE08FE086209EF08EF089E
:104F5000EF087E09EF09FE09FE09851BF91B8D1B71
:104F6000571B5B1B911B5F1B951BA11B6B1BF21B34
:104F70006F1BA51B731BA91BD11B771BAD1BD81B5C
:104F80007D1BB31BBB1B631B991B671B9D1B811BDD
:104F9000B71BC71BE11BF01B511B891B001C8A1C84
:104FA000901C791C841C961C9C1CA21C50257825E6
:104FB000612678256126AB25CC25612623262F2660
:104FC000F40200000100221E5F1F331F321F581F12
:104FD000E200E900EA00B500B600B700CD008301A9
:104FE000CC008A01920194012102230224022502AD
:104FF000260227022A02B300B4006F0070009F014E
:10500000CB019F02A002818283E200E900EA00B5A1
:1050100000B600B700CD008301CC008A0192019454
:10502000012102230224022502260227022A02B3BA
:1050300000B4006F0070009F01CB019F02A00281AD
:105040008283C6F0F1F4F5F6F73536669496973418
:105050003233929130316793950A092D205665724B
:1050600073696F6E202D0A5649443A2030783738DC
:10507000343428224B5072657075626C6963222942
:10508000205049443A20307838373837282258445D
:1050900038372229205645523A2030783030303186
:1050A0000A4255494C443A2020284D617220203153
:1050B0002032303235290A4F5054494F4E533A204E
:1050C0004C55464120424F4F544D4147494320459E
:1050D000585452414B455920434F4E534F4C452055
:1050E000434F4D4D414E4420343039360A474343F7
:1050F0003A20382E332E30204156522D4C4942430F
:105100003A20322E302E30204156525F41524348D1
:105110003A20617672350A00443215540822080D8F
:0851200008B907D207EB0700F4
:00000001FF
