:100000000C9484020C94BC020C94BC020C94BC02B0
:100010000C94BC020C94BC020C94BC020C94BC0268
:100020000C94BC020C94BC020C94B7270C948B2843
:100030000C9416220C94BC020C94BC020C94BC02CE
:100040000C94BC020C94BC020C94BC020C94BC0238
:100050000C94BC020C948E220C94BC020C94BC0236
:100060000C94BC020C94BC020C94BC020C94BC0218
:100070000C94BC020C94BC020C94BC020C94BC0208
:100080000C94BC020C94BC020C94BC020C94BC02F8
:100090000C94BC020C94BC020C94BC020C94BC02E8
:1000A0000C94BC020C94BC020C94BC0200071727F1
:1000B000000616260005152500041424000313234A
:1000C0000002122200011132000021310080706014
:1000D00000817161008272620083736300847464C2
:1000E000008575650086765500876656000F1F2FC0
:1000F000000E1E2E000D1D2D000C1C2C000B1B2BAA
:10010000000A1A2A0009193A008878680089796972
:10011000008A7A6A008B7B6B008C7C6C008D7D6D15
:10012000008E7E5D008F6E5E010717270106162682
:1001300001051525010414240103132301021222D1
:100140000101113201002131018070600181716172
:100150000182726201837363018474640185756531
:100160000186765501876656010F1F2F010E1E2E40
:10017000010D1D2D010C1C2C010B1B2B010A1A2A31
:100180000109193A010829390188786801897969D2
:10019000018A7A6A018B7B6B018C7C6C018D7D6D91
:1001A000018E7E5D018F6E5E35001E001F002000F7
:1001B000210022002300240025002600270038000B
:1001C0002B0014001A000800150017001C0018006E
:1001D0000C00120013004C00290004001600070058
:1001E00009000A000B000D000E000F003300340060
:1001F000E1001D001B0006001900050011001000A1
:100200003600370052002800E000E300E2002152EF
:100210002A00000000002C002252500051004F0024
:100220003A003B003C003D003E003F0040004100E2
:10023000420043004400450039004600010001002F
:1002400001000100010001000100010001000100A6
:1002500001004A004D004900AE000100010001000C
:1002600001000100010001000100AC00AB00A8008A
:10027000AA00A90001000100010001004B000100DB
:100280000100010001000100010000000000010068
:10029000010001004E000100010001000100010009
:1002A0000100010001000100010001000100010046
:1002B00001000100010001000100010001002D0208
:1002C0002E022F0230020100010001000100010096
:1002D0000100010001002D002E002F003000010060
:1002E0000100427843784578477849784B78010097
:1002F0000100010031023100027C01000100010017
:100300000100000000000100010001000100E60002
:1003100000010101010101010101020202020202C8
:10032000020202030303030303030304040404049B
:100330000404050505050506060606060707070762
:100340000708080808090909090A0A0A0B0B0B0C17
:100350000C0C0D0D0D0E0E0E0F0F0F1010111111B4
:100360001212131314141515161617171818191935
:100370001A1A1B1B1C1D1D1E1E1F2020212222239A
:100380002424252626272829292A2B2C2D2D2E2FDB
:1003900030313232333435363738393A3B3C3D3EF2
:1003A0003F404142434445464748494A4C4D4E4FE1
:1003B00050515354555658595A5B5D5E5F616264A3
:1003C000656668696B6C6D6F7072737577787A7B30
:1003D0007D7E8082838587888A8C8E8F9193959687
:1003E000989A9C9EA0A2A3A5A7A9ABADAFB1B3B5A7
:1003F000B7BABCBEC0C2C4C6C9CBCDCFD1D4D6D883
:10040000DBDDDFE2E4E7E9EBEEF0F3F5F8FAFDFF20
:10041000080347004B003600000024034700690032
:100420007A006D006F00200045006E0067006900D3
:100430006E0065006500720069006E0067000000D4
:100440000403090409023B00020100A0FA090400A8
:1004500000010301010009211101000122440007EC
:1004600005810308000109040100010300000009DF
:100470002111010001223200070582032000011230
:100480000100020000000832650100313001020065
:100490000105010980A101850319012AB700150191
:1004A00026B700950175108100C0050C0901A10156
:1004B000850419012AA002150126A00295017510D4
:1004C0008100C005010906A101050719E029E7150A
:1004D00000250195087501810295017508810105C6
:1004E00007190029FF150026FF00950675088100F1
:1004F00005081901290515002501950575019102C9
:10050000950175039101C00011241FBECFEFDAE001
:10051000DEBFCDBF04B603FE18C080916705909181
:100520006805A0916905B0916A058730904BA74096
:10053000B04B59F410926705109268051092690546
:1005400010926A05E0E0F8E3099512E0A0E0B1E05E
:10055000E0E6F7E502C005900D92A83AB107D9F799
:1005600025E0A8EAB2E001C01D92A736B207E1F784
:100570000E9467120C94492B0C94000020E040E08C
:1005800060E088E190E00E94391620E040E060E001
:100590008EE190E00E94391620E040E060E083E2C6
:1005A00090E00E94391620E040E060E084E290E0B4
:1005B0000E94391620E040E060E089E290E00E946D
:1005C000391680E008958330B8F46530A8F44C30D3
:1005D00098F450E09CE0699F400D511D1124FA01F0
:1005E0009CE3899FE00DF11D1124EE0FFF1FE855DC
:1005F000FE4F85919491089581E090E008950E94C6
:10060000E302089581E008950E94020308950E9484
:100610000203089581E008950E94020308950E9454
:10062000020308950E940F030895089508950E94FB
:100630001503089508950895A6E0B0E0E2E2F3E01E
:100640000C94B02A49835A839E833091AF028981EA
:100650009A8131111AC03E81332399F0222389F007
:100660000E94E308182F682F89819A810E94BF0891
:1006700069817A81812F0E94DA0F2696E3E00C943B
:10068000CC2A0E94D108182FF3CF0E94E308698179
:100690007A81F1CFFC01262F4081518162817381E3
:1006A000848195810E941C030895CF93DF93EC0110
:1006B00061E00E944A03BE010E940403882359F0AE
:1006C00061E0CE010E944A03BE010E9407038170CF
:1006D000DF91CF91089580E0FACF0F931F93CF93CE
:1006E000DF93EC0160E00E944A038C01BE010E948E
:1006F0001603BE01C8010E941703DF91CF911F911D
:100700000F91089521E030E0A90102C0440F551F68
:100710008A95E2F7CA010E94E1070895CF93C82F96
:1007200081E090E00C2E02C0880F991F0A94E2F736
:100730000E941F0D8C2F0E948203CF91089581E0AB
:1007400008950E949F0308950E949F030895CF93E8
:10075000C82F0E9494078C2F0E94A1038C2F0E9407
:10076000A4032FEF84E39CE0215080409040E1F708
:1007700000C00000CF91089581E00E94A7030E946D
:10078000B222089580E00E94A7030E94D622089515
:100790000F931F93CF93DF938C0161E00E944A0374
:1007A000EC01B8010E940C03811106C080E0DF91CA
:1007B000CF911F910F910895B801CE010E941203AD
:1007C0008823A1F3B801CE010E945320882371F33E
:1007D000B801CE010E94131F882341F3B801CE0156
:1007E0000E94E91E882311F3B801CE010E948112F4
:1007F0008823E1F2B801CE010E94D3128823B1F21E
:10080000B801CE010E94DE10882381F2F8018581B3
:10081000882361F0C330FCE7DF07E9F058F4C11525
:10082000ECE7DE07A9F0C130DC47B9F0C8010E944F
:100830000A03BDCFCB358CE7D807A9F0CC35ECE760
:10084000DE0771F0CA35DC4789F70E94FA0CEECF5B
:100850000E94BC03ABCF0E94020D0E94C203A6CF30
:100860000E94F00CE3CF0E94FE0CE0CF0E941A031E
:100870000E94D7210E94971A0E94620481E00E9480
:10088000B21B08950E94660480E00E94B21B0E9481
:100890001B030E94DC21089581E008950895CF9301
:1008A000DF93D82F0E944C04C82F882319F08D2F76
:1008B0000E944E048C2FDF91CF91089508950E94DD
:1008C0004F04089580E00E945F0408950E949C20D8
:1008D0000E945F040895CF930E949C20C82F8091AE
:1008E000AA028C1779F0C093AA020E948222609318
:1008F000AB027093AC028093AD029093AE028C2F4A
:100900000E945F04CF910895ADE0B0E0EAE8F4E022
:100910000C94B12A488759876A877B878C879D8783
:1009200091110E94300C1F8286E0FE013896DE0194
:10093000119601900D928A95E1F78D8181110DC07C
:1009400029813A814B815C816D817E818F810E94FA
:100950007A0B2D96E2E00C94CD2ACE0101960E94EE
:1009600055038111EDCFF5CFFC012481213021F415
:10097000808191810E9415090895CF93C82F882303
:1009800099F08CEF8C0F813A88F48C2F0E94132100
:10099000882329F08C2F0E9456210E949F0C8C2FB7
:1009A0000E944E210E949F0CCF91089580E28C0FEF
:1009B000883048F4C77081E001C0880FCA95EAF713
:1009C0000E94130CEFCFEBE5EC0FE33040F4F0E0C6
:1009D000E85BFD4F808190E00E94B420E5CFC85ACB
:1009E000CB3110F7EC2FF0E0EE0FFF1FEE5EFD4F66
:1009F000808191810E94D920D7CF882339F19CEF43
:100A0000980F913A28F40E9456210E949F0C089555
:100A100090E2980F983050F4877091E001C0990FE0
:100A20008A95EAF7892F0E94190CEFCF9BE5980F62
:100A3000933028F490E080E00E94B4200895885A12
:100A40008B3120F490E080E00E94D92008951F931C
:100A5000CF93DF93182FEB010E94BD04209739F448
:100A6000812F0E94FD04DF91CF911F9108958FE99E
:100A70009FE00197F1F700C000002197EFCF70E0F1
:100A800060E0893311F460E570E00E942705089565
:100A9000882321F00E94130C0E949F0C0895882344
:100AA00021F00E94190C0E949F0C0895B0E0A0E074
:100AB000ECE5F5E00C94AA2A6C01D62FC72FFC01B7
:100AC0001581068102950F700E94090CE82E88237B
:100AD000F9F0E12E1123E1F08C2F807F803461F05A
:100AE00080E28D0F883008F18C2F807E803221F4D7
:100AF000D230D8F00023C9F080910C0582FF15C0D8
:100B000082E00E94C40C0E94090C91E0E82EE926C4
:100B1000BC2EB2949FE0B922FBE0FB15B8F1EB2D9F
:100B2000F0E0E55BF44D0C949B2AE12CF1CF0C2F07
:100B30000F70C07F11F00295007F112399F0002300
:100B400059F080E28D0F883010F0D11107C0802F4E
:100B50000E94130C0E949F0C8D2F48C0802F0E9472
:100B6000230CF8CF8D2F0E94FD04002379F080E242
:100B70008D0F883010F0D11104C0802F0E94190C05
:100B800003C0802F0E94290C0E949F0CEB2DE8507F
:100B9000FF0B349708F066C10E949C200E945F04FE
:100BA000CDB7DEB7E9E00C94C62A2C2F2F70F22EB9
:100BB000C07FC03219F0F29480EFF822DD2341F0BB
:100BC000D130C9F1112309F443C00023E9F0C4CFA7
:100BD00080910C0582FD14C0112359F0FF2029F0EB
:100BE0008F2D0E94130C0E949F0C80E00E94BD0478
:100BF000CDCF80E00E94FD04FF2041F28F2DBECFBB
:100C0000112369F0011104C08F2D0E944805BECF49
:100C1000013009F0BBCF8F2D0E94470CB7CF0111D7
:100C2000B5CF8F2D0E944F058F2D0E94530C8F2D15
:100C30000E94370CABCF112321F0063008F0A6CF6D
:100C4000E3CF053008F0A2CF8F2D0E944F059ECF35
:100C50000023D1F3D93349F43FEF87EE93E03150CD
:100C600080409040E1F700C000008D2F0E94FD04FD
:100C70008DCF8C2F86958695837069F0813009F031
:100C800085CF8D2F9C2F9370111102C080E090E0D2
:100C90000E94D9207BCF8D2F9C2F9370111102C001
:100CA00080E090E00E94B42071CF8C2F8370A1F57A
:100CB00011116CCF4D2F429546954770440F440F4C
:100CC0002D2F2F7030E0042E02C0220F331F0A9404
:100CD000E2F790E080E0D4FF09C08FE090E002C02E
:100CE000880F991F4A95E2F780959095C695C6950D
:100CF000C370822B932BC23049F058F4C13019F0E5
:100D00000E94ED0743CF0E94E40740CF0E94F60700
:100D10003DCF0E94E1073ACF8695112311F08C2F29
:100D20008170882309F432CF4D2F42954695477044
:100D3000440F440F2D2F2F7030E0042E02C0220FDD
:100D4000331F0A94E2F790E080E0D4FF09C08FE0FF
:100D500090E002C0880F991F4A95E2F78095909520
:100D6000C695C695C370822B932BC23049F058F4B8
:100D7000C13019F00E94580809CF0E944F0806CFD1
:100D80000E94610803CF0E94050800CFCF70112395
:100D900029F08C2F0E941D088D2F37CF8D2F0E9498
:100DA0004F058C2F0E942D08F1CED23F41F160F407
:100DB000D03FB9F0D13F81F0112309F443C00111B4
:100DC000CBCE8C2F8F711FC0D33F01F1D43FA1F741
:100DD00080910C0582FD24C08C2F8F71112311F39B
:100DE00012C0112341F0053008F0D0CE8C2F8F7146
:100DF0000E943F08CBCE063008F0C8CEF7CF8C2F2C
:100E00008F711111CFCF0E941D08C0CE112329F080
:100E10008C2F8F710E941108B9CE0E940C08B6CE9B
:100E2000112331F063E08C2F8F710E94A60CAECE9F
:100E300081E00E94C40C023008F4A8CE82E00E9437
:100E4000C40CA4CE002359F0D93309F00ECFEFEF34
:100E5000F7EE23E0E150F0402040E1F704CF8C2F83
:100E60008F71A0CFEE2009F49BCE0E94050C80FD6F
:100E700097CEF60115820E94FF0B0E941D08C60145
:100E80000E945F070E94FF0B0E942D0889CE0F93DE
:100E90001F93CF93DF93EC01688179818D810E944C
:100EA00020098C010E946A080E94E007B801CE0167
:100EB0000E945605DF91CF911F910F910895CF9316
:100EC000DF93EC018C81882399F0CE010E94C80346
:100ED000811111C00E94090C882351F08D81882353
:100EE00039F080910C0582FF03C082E00E94C40C9F
:100EF000DF91CF910895CE010E944707CE010E9455
:100F00006D03F6CF90E080E00E94B42090E080E096
:100F10000E94D9200E94300C0E949F0C08950E94CC
:100F20005E210E94820708950E94200C0E948F0774
:100F3000089592959F70963091F058F4925F9F704B
:100F4000923058F4803F19F030F4883E30F481E05C
:100F500008959A5FF4CF843FD1F380E00895883EEE
:100F6000B0F3813FD1F7F3CFFC012481222339F084
:100F7000808191810E9415090E949907089580E05F
:100F80000895A6E0B0E0E7ECF7E00C94B12A2696CD
:100F9000E2E00C94CD2AA7E0B0E0E1EDF7E00C949C
:100FA000B12A2796E2E00C94CD2A08950E94D50735
:100FB00008950E94D6079093D3028093D202089599
:100FC00008950E94D90708952091D2023091D3024A
:100FD000822B932B0E94D90708952091D202309141
:100FE000D302822393230E94D90708952091D2022D
:100FF0003091D302822793270E94D90708950E9437
:10100000D50708950E94FF0708950E940208909353
:10101000D1028093D002089590E080E00E940508FC
:10102000089521E030E0A90102C0440F551F8A95C0
:10103000E2F7CA010E940508089521E030E002C0ED
:10104000220F331F8A95E2F78091D0029091D1024E
:10105000822B932B0E940508089521E030E002C006
:10106000220F331F8A95E2F7209530958091D002A8
:101070009091D102822393230E940508089521E0D4
:1010800030E002C0220F331F8A95E2F78091D00230
:101090009091D102822793270E94050808952091FC
:1010A000D0023091D102822B932B0E940508089523
:1010B0002091D0023091D102822393230E9405080F
:1010C00008952091D0023091D102822793270E9467
:1010D000050808950895262F277091E001C0990F03
:1010E0002A95EAF723E0769567952A95E1F7660F4A
:1010F000771F660F771FFA01E60FF71F50E040E0F9
:10110000682F70E08191DF0111979B01042E02C0CE
:10111000369527950A94E2F72170219528272923EF
:1011200028272C934F5F5F4F4430510559F708959E
:10113000A82FA77023E0969587952A95E1F7880F49
:10114000991F880F991FFB01E80FF91F50E040E03D
:1011500080E0219130E00A2E02C0369527950A944E
:10116000E2F721703327042E01C0220F0A94EAF718
:10117000822B4F5F5F4F4430510559F70895262F5A
:10118000953070F48C3060F4682F70E08CE0989F9C
:10119000600D711D112440EB52E0822F0E946B08FC
:1011A0000895292F953068F48C3058F490E060EB66
:1011B00072E03CE0239F800D911D11240E9498084D
:1011C000089580E00895B0E0A0E0E9EEF8E00C9426
:1011D000AA2A7C010091D0021091D1028091D20202
:1011E0009091D302082B192BCFE0D0E0CC24C394EC
:1011F000D12CBC2EC6010C2E02C0880F991F0A9458
:10120000E2F780239123892B49F4219790F7B12CA1
:101210008B2DCDB7DEB7E9E00C94C62AB7018C2F31
:101220000E94E60F019789F3F3CFCF93DF93EC0190
:101230000E94E308BE010E94E60FDF91CF9108955E
:101240001F93CF93DF93EB019091AF02992339F075
:10125000CB010E941509DF91CF911F91089588233A
:1012600069F0CB010E94E308182F682FCE010E947D
:10127000BF08BE01812F0E94E60FEDCFCB010E9477
:10128000D108182FF6CF1F93CF93DF93C091D402CC
:1012900017E08091D5028C1304C0DF91CF911F918C
:1012A0000895D0E01C9FF0011D9FF00D1124EA521B
:1012B000FD4F208131814281538164817581868116
:1012C0000E94CB072196C770E4CF20910E03309186
:1012D0000F0340911003509111036091120370911C
:1012E0001303809114030E94CB070895CF93DF93DB
:1012F00080911403807F09F04DC0809113038823EF
:1013000009F448C0E091D4025091D502C0910F0376
:10131000D0910E03609110037091110347E05E17A6
:10132000C9F18E2F90E0E49FF0011124EA52FD4FA5
:101330002481222391F1489FF001499FF00D11244F
:10134000DF01AA52BD4F11962C9111972C1325C085
:101350002C912D1322C015962C91159721111DC08B
:1013600012962D913C91261B370B283C3105A8F491
:10137000809114038F70806180931403E452FD4FB9
:1013800080818F70806180838EE093E00E945F0790
:101390000E944309DF91CF910895FC013196E770D7
:1013A000BECF482F2091D4029091D50257E0291347
:1013B00002C080E0089530E0529FF001539FF00D8D
:1013C0001124EA52FD4F8181681306C080814813C1
:1013D00003C085818111EECF2F5F3F4F2770E7CF8C
:1013E000A4E1B0E0E6EFF9E00C94A72A8C0186E0D6
:1013F000F801DE011F9601900D928A95E1F7F80140
:101400008481E5809EE0A92E93E0B92E909112038D
:1014100091111FC08823D1F0EE20A9F0C8010E94CD
:10142000B407F82E882379F087E0F801D501019000
:101430000D928A95E1F7C5010E94B4040E947609D5
:101440000E9465095FC0C8010E945F07FF24F394F2
:1014500059C0C080D18082809380F0901303209186
:10146000100330911103A401421B530BFF2009F418
:10147000F9C0483C510508F0A7C0882309F442C0D0
:1014800090910F0380911403282F207F09F05CC0F6
:101490009D1116C090910E03C91212C0E1104EC0EA
:1014A0008F708061809314030E9465098EE093E041
:1014B0000E945F0780911403F8018683F12C22C0FB
:1014C000E1103CC06D2D8C2D0E94D1096D2D8C2D0D
:1014D0000E94D109E82E8111F1CFCF86D88A8F855D
:1014E00098890E941509292F22952F70243078F4AD
:1014F0009F702230A8F09923B9F0F8019681907F6F
:1015000099F4FE2C8F2D6496ECE00C94C32A2A5F8C
:101510002F70223068F0C8010E945F07EF2CF1CFD6
:10152000992311F0882369F3805E883050F3F3CF5C
:10153000803F38F3815F833070F7E3CF80911403ED
:10154000816080931403BACF9D1113C090910E0354
:10155000C9120FC0E1100DC08683C8010E945F0749
:1015600087E0F801AEE0B3E001900D928A95E1F7D3
:1015700067CFC8010E94B407882309F464CFEE2026
:1015800009F461CF80911403803288F020910E031A
:1015900030910F03398728879B868A8690911203A2
:1015A0009C871D868E87CE0108960E945F0787E084
:1015B000F801AEE0B3E001900D928A95E1F70E9448
:1015C00076090E94650942CF90911403292F207F4C
:1015D000A1F4682D9A8A898AA6017A899E2D0E9493
:1015E000C1078EE093E00E945F0787E0F50111924A
:1015F0008A95E9F70E94650961CF882309F482CFB3
:1016000080910F038D1110C080910E03C8120CC081
:10161000E1100AC09683C8010E945F0787E0F501C8
:1016200011928A95E9F76ECFC8010E94B40788230A
:1016300009F409CFEE2009F406CF8091140380321B
:1016400008F4B5CF20910E0330910F033A8329831C
:101650009C828B82909112039D831E828F83CE0188
:101660000196A3CF483C5105B8F5882309F4EECE86
:10167000FE2CEE2009F4E7CE80910F038D111EC0E1
:1016800080910E03C8121AC08091140380FD0DC012
:10169000982F907F51F08683903F09F45ECF982F6A
:1016A000907F905F8F70892B57CF87E0F801AEE075
:1016B000B3E001900D928A95E1F724CFC8010E9412
:1016C000B407811174CF8091140381608093140357
:1016D000C8010E945F0716CF682D9A8A898AA601E1
:1016E0007A899E2D0E94C10787E0F50111928A95A3
:1016F000E9F7A6CEAEE0B0E0E0E8FBE00C94B02A5B
:10170000288739874A875B876C877D878E87CE01DC
:1017100008960E94F0098823B1F06C85662341F099
:10172000288539854A855B857D858E850E94CB0716
:1017300017E08091D4029091D50289133DC02E9676
:10174000E3E00C94CC2A87E0FE013896DE01119686
:1017500001900D928A95E1F78C85882349F32091B9
:10176000D50230E0C9010196877099274091D402D3
:101770004817190699F097E0929FD001939FB00DFA
:101780001124AA52BD4FFE01319601900D929A95F7
:10179000E1F78093D5020E944309CACF0E949407C3
:1017A0001092D5021092D40287E0EEE0F3E0DF0160
:1017B0001D928A95E9F7BCCF819FC00111248A52FE
:1017C0009D4F0E94F009882309F4B9CFE091D4021B
:1017D0001E9FF0011124EA52FD4F20813181428188
:1017E00053816481758186810E94CB078091D402E8
:1017F00090E00196877099278093D4029ACF8091C8
:101800001D03869586958695089580911D038770A2
:10181000089590911D03977081E009F480E0089588
:1018200080912903089590912903892B809329039E
:101830000895809590912903982390932903089502
:1018400010922903089590912803892B80932803EF
:1018500008958095909128039823909328030895E4
:1018600010922803089508950E94330C08959091D2
:101870001E03292F282331F08095892380931E038E
:101880000E94340C089508950E94430C089590918D
:101890001F03292F2823281729F0982B90931F0323
:1018A0000E94440C089590911F03292F282331F0A2
:1018B0008095892380931F030E94440C0895809192
:1018C0001F03882329F010921F0380E00E94440C1C
:1018D00008950F931F93CF93DF930091F901109117
:1018E000FA01C091290380912803C82B80911F031E
:1018F000882331F0C82B0E94FE2081110E945F0CCA
:10190000F801C083C091F901D091FA0148E050E09C
:1019100065E173E0CE010E94E12A892B59F088E04D
:10192000FE01A5E1B3E001900D928A95E1F7CE01A9
:101930000E94A920DF91CF911F910F9108950E94DD
:10194000690C089508950E94A20C089590910C05C9
:1019500092FF11C098E0899F90011124622B60933F
:101960001D030E941D0880911D038695869586950E
:101970000E94A30C08950E941D08089510921D0353
:1019800080E00E94A30C089590911D038095892307
:1019900080931D03282F277069F4891759F09091BF
:1019A0000C0592FF07C08695869586950E942D08A6
:1019B0000E94BE0C089590910C0592FB222720F9FD
:1019C000281769F080FB92F990930C0580910B0524
:1019D00090910C050E942A0D82E00E94C40C08958B
:1019E00080910C0582FB882780F991E089270E946D
:1019F000DB0C089581E00E94DB0C089580E00E94DA
:101A0000DB0C08956FEF7FEF90E080E00E94432BA6
:101A1000089590E080E00E940F2B21E0853E9E4FCC
:101A200009F020E0822F089582E090E00E94072BC9
:101A3000089583E090E00E94072B90E00895682FBE
:101A400083E090E00E94252B089584E090E00E94BE
:101A50000F2B0895BC0184E090E00E94432B089571
:101A6000AB01BC018FE090E00E94372B0895AB01E1
:101A7000BC0183E190E00E94372B089560E070E0A4
:101A8000CB010E94370D089560E070E0CB010E9409
:101A9000300D0E943E0D0895A8E0B0E0E2E5FDE0C3
:101AA0000C94B12A65EE7EEF90E080E00E94432B1B
:101AB00060E082E090E00E94252B81E090E090932E
:101AC000D3028093D2020E941F0D60E074E184E093
:101AD00090E00E94432B60E086E090E00E94252B7E
:101AE00060E087E090E00E94252B40E050E0BA01E2
:101AF00088E090E00E94372B60E083E290E00E9453
:101B0000252B60E08CE090E00E94252B60E08DE0CA
:101B100090E00E94252B19821A821B821C821D8252
:101B20001E821F82188648E050E067E170E0CE0117
:101B300001960E94152B40E050E0BA018FE190E041
:101B40000E94372B0E94440D2896E2E00C94CD2A87
:101B50000E944C0D0895682F8EE090E00E94252B86
:101B60000895A6E0B0E0E7EBFDE00C94AF2A0E94F8
:101B700076228C0180912A0390912B038017910784
:101B800081F019821A820E947622682F49815A8137
:101B9000792F80E090E00E94840410932B0300933F
:101BA0002A032696E4E00C94CB2A0E9482226093BA
:101BB0003A0370933B0380933C0390933D036093FF
:101BC0003603709337038093380390933903089555
:101BD000089508950E94E80D089508950E94ED0D5E
:101BE0000E94EA0D089508950E94F30D0895089546
:101BF0000E94F70D0E94F40D08958CED90E10E9473
:101C00007C120E94E90D0E94EE0D089581E0089576
:101C10000E94060E08950E94060E089508950895E4
:101C200008950E940E0E0E940F0E0E94100E08953D
:101C30000E94090D811102C00E94A80D0E94140D7E
:101C400080933E030E94250D90930C0580930B0515
:101C50000E94E61E0E94190D0E94E1078091D002A9
:101C60009091D1020E94020808950E946D220E9464
:101C7000BE110E94180E0E945E040E94531B0E9417
:101C8000F80D0895A6E0B0E0E8E4FEE00C94A52A83
:101C90000E94080E81110AC00E94B10D0E94971A7D
:101CA0000E946B042696EEE00C94C12A0E94D41187
:101CB0002CE2822E23E0922E640110E0F601E190E6
:101CC000F1906F01812F0E94F8101F5F153009F409
:101CD0004EC0E816F90691F380913E0381FD0E9403
:101CE00001110E940B0E682E10E0812F0E94F81047
:101CF0007C01F401A190B1904F018A159B0589F1F7
:101D000000E0CC24C394D12CAE24BF24C5018C2187
:101D10009D21892BE9F077247394C7018C219D21A3
:101D2000892B09F4712C662071F009831A830E94B3
:101D30007622682F8B839C8349815A81792F81E099
:101D4000972D0E948404472D602F812F0E945716E3
:101D50000F5FCC0CDD1C0C30C9F6F4013297F18218
:101D6000E0821F5F153009F60E94D50D97CFE81667
:101D7000F90609F0B1CF90CF1F93CF93DF930E9464
:101D8000EB0FEC01C11580E5D807F0F5C11580E433
:101D9000D80708F09CC0C03ED10520F5CD3CD10548
:101DA00008F082C0C83AD10578F4C53AD10508F0E8
:101DB00073C0C130D10519F1209709F1C430D105A4
:101DC000F0F4D0E0C0E01BC0C33CD105D0F7C85A46
:101DD000D0E0CC0FDD1FC55BDD4F0990D881C02D51
:101DE000D4640DC0C11580E2D80708F0D1C0C11578
:101DF00081E0D80708F05AC0C83ED10510F7CE01DF
:101E0000DF91CF911F910895C03682E5D80718F56C
:101E1000C03482E5D80708F06BC0C03282E5D8072D
:101E200008F05FC0C11582E5D80708F497C02C2FD1
:101E30002695269580E2289F900111248C2F83708F
:101E4000C1E0D0E002C0CC0FDD1F8A95E2F7C22BC3
:101E5000D32BDD68D4CFC03A82E5D80760F4C03810
:101E600082E5D80708F459C0CF71D0E0DC2FCC2729
:101E7000C46FD06AC4CFC03C82E5D80708F462C002
:101E8000C03E82E5D80708F09CCFDC2FCC27CC27BA
:101E9000DF71C06FD06AB3CFC55AD0E0CF57DD4FE6
:101EA000C881D0E0D064ABCFD065A9CF8D2F0E9480
:101EB0008D10182FCE0199270E94EB0FC12FD0E073
:101EC000DC2FCC27CC27DF71C82BD92B98CFCE01A4
:101ED00099270E94EB0FCC27DF70C82BD92BD06A33
:101EE0008ECFCF71D0E0DC2FCC27C16FD06A87CFE7
:101EF0002C2F26952695277080E2289F900111248B
:101F00008C2F8370C1E0D0E002C0CC0FDD1F8A951A
:101F1000E2F7C22BD32BDC6872CF2C2F26952695A7
:101F2000277080E2289F900111248C2F8370C1E0DC
:101F3000D0E002C0CC0FDD1F8A95E2F7C22BD32B75
:101F4000DA685DCF8C2F8F710E948D10C82FD0E082
:101F5000DC2FCC27CC27DF71D06251CF8C2F8F7133
:101F60000E948D1055E0D695C7955A95E1F7CF7030
:101F7000D0E0DC2FCC27282F30E084FF05C044E0E0
:101F8000220F331F4A95E1F7C22BD32BD06937CFED
:101F90008D2F8F710E948D10182FCE0199270E94CE
:101FA000EB0FC12FD0E0DC2FCC27CC27DF71C82B63
:101FB000D92BD2CF462F753030F46C3020F4672FF8
:101FC0000E94FF02089590E080E008950E94DA0FD9
:101FD0000E94BC0E089582389105B9F1B0F48133A6
:101FE000910509F47DC048F48932910509F46DC06A
:101FF0008A32910509F47BC008958533910509F46F
:102000005FC08933910509F10895833E9105D9F1A7
:1020100038F4803E910529F1823E910579F10895C9
:10202000863E9105D9F1873E910509F43EC0843E74
:10203000910541F520910C0521FF24C080910B05ED
:1020400084FD19C087EE90E0089520910B05237060
:1020500009F05AC020910C0523FF14C089E290E0DA
:10206000089520910B0520FD38C030910C0530FFFC
:1020700009C024FF43C090E080E0089520910B0543
:1020800022FDF7CF089520910B0522FD3AC0309133
:102090000C0530FD39C024FFF5CFEDCF20910B05A5
:1020A00023FFF0CF24FDE7CFCDCF20910B0523FDFB
:1020B0002EC030910C0531FFEECF84EE90E00895F4
:1020C00020910B0525FFDECFC9CF20910B0525FD03
:1020D00021C020910C0523FFD5CF89E390E0D2CF1A
:1020E00020910B0526FFCECF8AE290E00895209143
:1020F0000B0526FFC7CF81E390E0089583EE90E0C3
:10210000089582EE90E0089580EE90E0089586EEC6
:1021100090E0089585E390E0089590910B0592FF7B
:1021200010C041E0282F2471243009F040E031E054
:10213000282F2871283009F030E0431711F02CE0E7
:10214000822793FF10C041E0282F2471243109F029
:1021500040E031E0282F2871283109F030E04317A2
:1021600011F02CE0822730910C0530FF10C051E0B7
:10217000282F2171213009F050E041E0282F2871EB
:10218000283009F040E0541711F029E0822731FF90
:1021900010C041E0282F2171213109F040E031E0E9
:1021A000282F2871283109F030E0431711F029E079
:1021B000822794FD877E089580E00895CF939C0147
:1021C000205E3245C1E02032310538F4FB01C58183
:1021D000C11103C08F710E948E038C2FCF9108957F
:1021E00008950E94F010089508950E94F410089533
:1021F000E82FF0E0EE0FFF1FE95EFA4F808191813A
:102200000895089580EA8A95F1F7089500C0089529
:102210000E9402110895F894E82FE295EF70F0E023
:1022200031A1282F2F7081E090E001C0880F2A95FE
:10223000EAF7982F9095932391A392A1892B82A3DB
:10224000789408950F931F93CF93DF93C4E8D2E05F
:1022500089918F3F11F00E940B1182E0C039D8079D
:10226000B9F7C0E9D2E005E912E089918F3F11F09A
:102270000E940B110C171D07C1F7DF91CF911F9121
:102280000F9108958F929F92BF92CF92DF92EF921B
:10229000FF920F931F93CF93DF93D82EE92EF62E44
:1022A0008A01C62FD0E0CC57DD4F28812F3F09F49B
:1022B00053C0F894E22FE295EF70F0E031A12F7057
:1022C00081E090E001C0880F2A95EAF7932F982BC0
:1022D00091A392A18095892382A378940E940611EC
:1022E00080E9882E82E0982EED2DFE2DBF01665FDD
:1022F0007F4FE12C6801C094D094D401BD904D0172
:1023000081919191AF0142505109BFEFBB1681F10C
:102310002B2D22952F7030E0D90190962C9130E032
:10232000BB2DBF7002C035952795BA95E2F720FD09
:102330001FC0802B912BDA018D939C93EE24E394A4
:102340006E177F07D1F688818F3F11F00E940B1125
:102350006E2D8F2D0E940811DF91CF911F910F914B
:10236000FF90EF90DF90CF90BF909F908F90089557
:102370008C219D21DA018D939C93E2CF0E94221142
:102380008AE0E7E1F5E0DF01982F1D929A95E9F7E1
:10239000EDE0F5E0DF011D928A95E9F785E00E9406
:1023A00028120E94F1100895CF92DF92FF920F93AE
:1023B0001F93CF93DF93CDB7DEB72A970FB6F8946C
:1023C000DEBF0FBECDBF8E010F5F1F4F8AE0F80149
:1023D00011928A95E9F7F12CCC24C394D12CA60153
:1023E0006F2DC8010E944211F394CC0CDD1CFCE05F
:1023F000FF12F5CF4AE050E0B8018DE095E00E9471
:10240000E12A21E0009709F420E0892B41F08AE0DD
:10241000F801ADE0B5E001900D928A95E1F745E055
:1024200067E175E08DE095E00E942912182F0E9467
:10243000F510812F2A960FB6F894DEBF0FBECDBFE0
:10244000DF91CF911F910F91FF90DF90CF90089572
:102450000895B0E0A0E0EFE2F2E10C94AB2A6C0149
:102460007B01042FC22F222379F081E08093410366
:102470000E9476229093400380933F0380E0CDB783
:10248000DEB7E8E00C94C72AD0914103DD23B1F315
:1024900080913F03909140030E94F421059770F3CF
:1024A00010E0000F111FA801B601C7010E94E12A28
:1024B000892B31F0A801B601C7010E94EE2ACD2F69
:1024C000109241038C2FDBCF0E94420E08950E9490
:1024D0000F220E94EE240E94FD0D0E9408250E94FA
:1024E000350E0E9415250E941A250E9464120E9432
:1024F00034250E94110EF7CF9093A9028093A80271
:1025000008950F931F93CF938C01FB01C581CC23BA
:1025100009F447C00E94100C8272F801E052F8479B
:10252000EB30F10538F4E95AF44D0C949B2A0E94E3
:10253000D71BC0E08C2FCF911F910F910895882356
:1025400029F00E94351CF5CF8823D9F30E94251C61
:10255000F0CF882329F00E94691CEBCF8823D9F3A0
:102560000E94581CE6CF882329F00E948F1CE1CFDF
:102570008823D9F30E947C1CDCCF882329F00E9499
:10258000B51CD7CF8823D9F30E94A21CD2CF8823B1
:1025900029F00E94D31CCDCF8823D9F30E94C41CFC
:1025A000C8CFC1E0C7CF1F93CF93DF93EC01FB01EE
:1025B0001581111110C00E94100C8272FE01E054AE
:1025C000F847ED30F10508F043C0EE59F44D0C9496
:1025D0009B2A0E94E81B812FDF91CF911F910895C4
:1025E0000E94FA1BF8CF0E94D71BF5CF882329F051
:1025F0000E94351CF0CF8823D9F30E94251CEBCF15
:10260000882329F00E94691CE6CF8823D9F30E9411
:10261000581CE1CF882329F00E948F1CDCCF88232F
:10262000D9F30E947C1CD7CF882329F00E94B51CC7
:10263000D2CF8823D9F30E94A21CCDCF882329F0C2
:102640000E94D31CC8CF8823D9F30E94C41CC3CFD7
:1026500011E0C1CFEF92FF920F931F93CF93DF93BF
:102660009B01682F31110EC0442329F0E82FF0E0C0
:10267000E05FFC4F6491762F862FCDB7DEB7E6E0A2
:102680000C94C92AC32FD0E0E82FF0E0442321F0B6
:10269000E05FFC4FE491F0E046E0249FC00111248C
:1026A0000FEF10E0B8010E94322AAB01822F90E0B8
:1026B000880F991F25E5249FB001259F700D1124D7
:1026C000861B970B982F990F980FB8016C1B7D0BE9
:1026D0006E9FD0016F9FB00D7E9FB00D11248B2F88
:1026E000939F90011124232F3327B801621B730B92
:1026F0006E9F90016F9F300D7E9F300D11247801E9
:10270000E91AF108EC9EB001ED9E700DFC9E700D73
:102710001124672F7727061B170B0E9FE0010F9FD1
:10272000D00D1E9FD00D11247D2F9E2F42305105BC
:1027300099F048F44115510569F04130510581F097
:102740007B2F832F07C04430510569F080F046305D
:102750005105B1F7692F91CF9B2F8D2F7E2FFACF87
:102760007E2F932FF7CF9D2F7B2F8E2FF3CF732F9D
:102770009B2FFBCF41E00E942A13089530E020E018
:10278000869F212D969F200D311D1124C90108958A
:10279000AC018230910508F408959FEF413E8EE12F
:1027A000580740F49A0195E0369527959A95E1F7F8
:1027B00098E0920F61E0E62FE90FFF27FF1F9F01CE
:1027C00035952795822F229FF001239FF00DF00D64
:1027D00011244E175F0738F49FEF920F961758F7A2
:1027E0008FEF860F08952F3FE9F361E0620FF6CF78
:1027F000E82F86FDE0952E2F2F7086FD2F5FE69542
:10280000E695E695E670F0E0EB56FD4F9181929FDC
:10281000902D212D112492959F702295207F922B2F
:102820002081920F87FD919580E8890F08951F936D
:10283000CF93DF93D62FC72F182F822F86950E9414
:10284000F813805887FD8195880F282F219F212D0F
:102850001124822F6D2F7C2FDF91CF911F9108952E
:10286000E42FF0E0EE0FFF1FE45CFE4F408134EEFA
:10287000439F412D1124E82FF0E050E0445E5F4F6C
:10288000DA01A21BB1099D01B7FF03C03195219563
:10289000310993E0220F331F9A95E1F7AF01421BF4
:1028A000530B9A0157FD20E0582F259F212D11240D
:1028B000822F0895E42FF0E0EE0FFF1FE45CFE4F3F
:1028C0006081621B0895E42FF0E0EE0FFF1FE050DF
:1028D000FF4F65AD621B0895EF920F93972F23E092
:1028E000029FB0011124759567956E0D792F0F9198
:1028F000EF9008951F93CF93DF93162FD72FC82FF4
:10290000822F86950E94F813805887FD8195880F45
:10291000682F2CE0629F612D1124610F7D2F8C2F79
:10292000DF91CF911F910895409520E4429F412D62
:102930001124640F0895EF92FF920F93970195E091
:10294000099F200D311D11242F3F310519F010F082
:102950002FEF30E02095382F320F08F43FEF832F10
:102960000F91FF90EF900895EF92FF920F931F93B6
:102970000E0D1F2D111DF90137FF03C0F195E195D3
:10298000F10924E0EE0FFF1F2A95E1F7EF3FF10573
:1029900019F014F0EFEFF0E09A0157FF03C0319502
:1029A0002195310994E0220F331F9A95E1F72E17F4
:1029B0003F070CF4F901E00FF11FEF3FF10519F0AB
:1029C00010F0EFEFF0E0E095282F3E2F230F08F4F2
:1029D0002FEF822F1F910F91FF90EF90089590910C
:1029E0004203892B809342030895FC019B01AC01B3
:1029F00097FF04C044275527481B590BBA01620FA3
:102A0000731F37FD0FC0241B350BC901A5E0880FCC
:102A1000991FAA95E1F70E94462A80E2861BF7FDDE
:102A200081950895CB0165E0880F991F6A95E1F7BC
:102A3000BA01621B730B0E94462A80E6EFCFEF9229
:102A40000F931F93CF93DF93D62FC72F182FC90152
:102A50000E19010F009729F480E857FD05C080E0AA
:102A600003C0BA010E94F514081B202F219F212DBD
:102A70001124822F6D2F7C2FDF91CF911F910F9109
:102A8000EF90089548E050E067E170E081E295E062
:102A90000E94152B1092420308950F931F93CF931A
:102AA000DF93D62FC72F182FC901212F201B022FEC
:102AB000009729F480E857FD05C080E003C0BA0103
:102AC0000E94F514982F990F990F891B800F282FBA
:102AD000219F212D1124822F6D2F7C2FDF91CF91EB
:102AE0001F910F9108950E94BA130895B0E0A0E0DD
:102AF000ECE7F5E10C94A42A782E662E862F90E060
:102B00002CE0729E80011124F801E050FF4FE80F85
:102B1000F91FC081CF3FA9F1B12CA12C812CD0E0AD
:102B20009E01220F331FA901445C5E4F6A01E90137
:102B3000C35CDE4F0F581C4F080F191F7501912CF5
:102B400088E2582EF701E050FF4F80818F3F59F007
:102B500078101CC069101AC0F801208130E2230FE0
:102B600008F42FEF208393944FEFE41AF40A5CE00B
:102B70009512E8CF83948CE0A80EB11CE5E08E128C
:102B8000DDCFCDB7DEB7EFE00C94C02A90E0F601C0
:102B90002081FC01EE0FFF1FE45CFE4F3081231B00
:102BA000330B4881880F991FFC01E050FF4F85AD22
:102BB000481B550B229FB001239F700D700D1124EF
:102BC000449FC001459F900D900D1124860F971FC3
:102BD0000E94C813893238F6252D382F231B08F49C
:102BE00020E0F701EF58FC4F213108F020E130815F
:102BF000320F08F43FEF3083B6CFE1E2F5E089E130
:102C0000808380910F0290911002A0911102818324
:102C10009283A3838FE784838FEF85830E9442157D
:102C2000089580E008950F931F93CF93DF93C82FEB
:102C3000D62F8A010E9411169CE0C99FB001112471
:102C400060507F4F6D0F711DFB0190819F3F29F0F8
:102C5000F801E80FF11D90838F5FDF91CF911F91F5
:102C60000F910895E091A302F091A40209950895AF
:102C70000895FF920F931F93CF93DF93162F042F86
:102C8000F22EC0919F02D091A0020E9438162F2DE3
:102C9000402F612FFE010995CDB7DEB7E5E00C941A
:102CA000CA2AE091A102F091A20209950895A8E034
:102CB000B0E0EDE5F6E10C94A92AC82EB62EA42EBC
:102CC0000E94060E882309F457C0D12CA11008C019
:102CD000AE014F5F5F4F6B2D8C2D0E941316D82EC7
:102CE0000D2D10E080914303800F912F911D0997C6
:102CF0006CF188E090E07C01E01AF10AB8016C5BAD
:102D00007C4FA70184E493E00E94EE2AB801645B43
:102D10007C4FA7018CE493E00E94EE2AA701440FA8
:102D2000551FB801660F771F645A7C4F8CE593E0FE
:102D30000E94EE2AB8016C5A7C4FA70184E593E00B
:102D40000E94EE2A88E08D1980934303109143037B
:102D5000DE01119640E0842F810FD41211C08093C0
:102D60004303A11009C0809121058C7F883221F492
:102D70006B2D8C2D0E9476152896EAE00C94C52ABE
:102D80005D91252F30E090E0BC016D5B7C4FF90137
:102D9000EE0FFF1FE45CFE4F0081FB010183220F59
:102DA000331FF901E050FF4F25ADFB012187518B07
:102DB000880F991FFC01ED5BFC4F128E118E4F5F47
:102DC000CACF0E94BE0208959DE0899F802D1124E4
:102DD000980F903408F09FE30895B0E0A0E0E3EF8F
:102DE000F6E10C94A32A3C012B01FC0180810E9496
:102DF000E416C82F192F6091250566958091290545
:102E000090912A050E94BE13F82ED0E0CE01880FC3
:102E1000991F9C0120503F4F6901C11748F081E084
:102E20001F3308F080E0CDB7DEB7E0E10C94BF2A95
:102E3000FE01E654FE4F8081F3019181892371F1F7
:102E4000F60184AD282F2057330B590185ADE82FAB
:102E5000E052FF0B4F01AA9C9001AB9C300D300D4E
:102E60001124EE9FC001EF9F900D900D1124820F51
:102E7000931F0E94C813082F6091220570912305AB
:102E800080912405EF2C9401A501F20109950E947F
:102E90007315472F282FCE010E943916F2E0CF0E6E
:102EA000D11C2196BACF6FE175E10E94ED1608950D
:102EB0006CE674E10E94ED160895B0E0A0E0E3E650
:102EC000F7E10C94A82A6C015B01FC0180810E944F
:102ED000E416C82F192F6091250566958091290564
:102EE00090912A050E94BE13982ED0E0CE01880F43
:102EF000991F9C0120503F4F7901C11748F081E094
:102F00001F3308F080E0CDB7DEB7EBE00C94C42AA5
:102F1000FE01E654FE4F8081F60191818923B9F0CC
:102F2000F70125AD2052330B44AD4057550B60914E
:102F300022057091230580912405092DF50109953D
:102F40000E947315472F282FCE010E943916F2E0F8
:102F5000EF0EF11C2196D1CF6DE475E10E945D1753
:102F60000895B0E0A0E0E7EBF7E10C94AB2A7C0118
:102F70008B01FC0180810E94E416C82FD92E60913C
:102F800025056695669521E0620F08F46FEF809144
:102F9000290590912A050E94BE13C82ED0E0CD15B8
:102FA00050F081E09EE39D1508F480E0CDB7DEB7D8
:102FB000E8E00C94C72AFE01E654FE4F8081F70139
:102FC0009181892389F06091220570912305809178
:102FD00024052C2D4C2FF80109950E947315472FBD
:102FE000282FCE010E9439162196D9CF67E174E1CE
:102FF0000E94B117089560E374E10E94B11708952B
:103000006AE574E10E94B117089563E674E10E94D5
:10301000B11708956AE774E10E94B1170895B0E00E
:10302000A0E0E5E1F8E10C94AA2A8C017B01FC0107
:1030300080810E94E416C82FB92E2091250531E029
:10304000230F08F42FEF30E050E040E06FEF7FEF08
:1030500080E090E00E947C2A6901D0E02C2FCB1503
:1030600050F081E0FEE3FB1508F480E0CDB7DEB759
:10307000E9E00C94C62AFE01E654FE4F8081F80177
:103080009181892309F140912D054150042E000CB6
:10309000550B47FF1BC0C6016091250521E0620F5B
:1030A00008F46FEF0E94BE13AC016091220570918D
:1030B000230580912405F70109950E947315472F78
:1030C000282FCE010E9439162196C8CFFA01E35D60
:1030D000FA4F818982130AC0FA01EE0FFF1FE35DE8
:1030E000FA4F818D928D8C159D05B0F2415051099A
:1030F000D0CF64E974E10E940F180895AAE0B0E00F
:10310000E4E8F8E10C94A12A8A832B015E834D83C5
:10311000FB0180810E94E4169B83F0912D05FC83C6
:10312000282F30E03A872987C901880F991FFC01B1
:10313000E050FF4F6F01FA818F2F90E09C012F5FCD
:103140003F4F38872F83EB81F985FE1740F081E0F0
:10315000EF3308F080E02A96E2E10C94BD2AE9857D
:10316000FA85E654FE4F8081F20191818923F9F0BE
:1031700020902205309023052F813885235D3A4F1A
:1031800039013A81398310E029813C812317C0F04D
:1031900020912405129F112D1124B101812F0E942D
:1031A0007315472F282F89859A850E94391689859E
:1031B0009A8501969A87898792E0C90ED11CC3CF60
:1031C000F30181913F01F601A4ACA81ABB0885ACBC
:1031D000F3018781881A9908AA9C9001AB9C300D55
:1031E000300D1124889CC001899C900D900D1124F4
:1031F000820F931F0E94C813082F6091250521E0BC
:10320000620F08F46FEFF301EE0FFF1FED52F54070
:10321000858996890E94BE137C019401A501B101A4
:10322000812FED81FE8109951B01F981FF5FF983F3
:10323000182FAACF4BE954E1BC0180E00E947E1810
:10324000089544EB54E1BC0180E00E947E1808958B
:10325000B0E0A0E0EEE2F9E10C94AB2A7C01FC01C5
:1032600080810E94E416C82F192F60912205709169
:103270002305809124050E947315062FD72EC82E92
:10328000D0E0C11748F081E01F3308F080E0CDB7EF
:10329000DEB7E8E00C94C72AFE01E654FE4F8081B9
:1032A000F7019181892331F02C2D4D2D602FCE0116
:1032B0000E9439162196E5CFB0E0A0E0E2E6F9E100
:1032C0000C94A52A7C01DC018C910E94E416682EE6
:1032D000992EF7018281882361F040E060E080E070
:1032E0000E945116E1E7F3E08CE3DF011D928A951D
:1032F000E9F7F7018081811115C08091AE039091AB
:10330000AF030E94F42121E08931910508F420E007
:103310002093AD03499730F00E9476229093AF033B
:103320008093AE03B12C00E0A12C8CE0782E9AEAB9
:10333000892E05C08CE08A1508F456C000E0802F65
:1033400090E07B9CE00111249E0120503F4F6901D9
:10335000C80ED91ED601EC91E61508F43DC0E9155A
:1033600008F03AC0A394F0E0E654FE4F2081F70144
:103370003181232309F430C0CF58DC4FC80FD91F47
:103380001881212F35E5231B08F420E0682D621BEE
:1033900070912305282D210F08F42FEF309124057B
:1033A000822F880F820F8E5F282F239F212D1124BB
:1033B000822F0E947315472FD6019C91282F892FA9
:1033C00090E00E9439168091AD03882329F021E016
:1033D000121B08F410E018830F5F0C3009F0AFCF18
:1033E000B39435E0B312A6CF81E09EE3991508F4BB
:1033F00080E0CDB7DEB7EEE00C94C12ACF93C82FA2
:103400008091FF018C1323C090912105937020912E
:10341000000230E081E09217130609F480E0817029
:103420008093FE01809126059091FD01981739F057
:103430008093FD0140E060E080E00E945116CE30B4
:1034400088F4EC2FF0E0E159F44D0C949B2A81E0D4
:10345000E6CF8091FE01882359F040E060E080E0F3
:103460000E94511680E004C08CEF91E00E94281960
:103470009091FC019F5F9093FC0181110CC082E050
:103480008093FB018091FE01811105C0C11103C031
:1034900083E08093FB01CF9108958CEF91E00E942F
:1034A000F617E6CF8CEF91E00E94FB17E1CF8CEF8F
:1034B00091E00E94AC17DCCF8CEF91E00E94531793
:1034C000D7CF8CEF91E00E940018D2CF8CEF91E023
:1034D0000E940518CDCF8CEF91E00E945817C8CFFD
:1034E0008CEF91E00E940A18C3CF8CEF91E00E940C
:1034F0005C19BECF8CEF91E00E947918B9CF8CEFA8
:1035000091E00E941A19B4CF8CEF91E00E9421192A
:10351000AFCF81E008950E94891A0895FC0180814F
:1035200081500E94E416692F0E948B1A08954F92D1
:103530005F926F927F928F929F92AF92BF92CF9243
:10354000DF92EF92FF92CF9360916C0370916D03C5
:1035500080916E0390916F030E94FE216B017C01AC
:103560000E9482224B015C0180926C0390926D0359
:10357000A0926E03B0926F03A0914303E3E4F3E0E3
:103580008A2F90E04FEF5FEF60E070E04C195D092B
:103590006E097F09A9132AC08093430380917003A9
:1035A000C0E0811108C080912105C82FC37019F0B7
:1035B000C82FC695C6958091FB01813009F440C0A3
:1035C000882339F1823009F44BC0833009F453C0A9
:1035D000CF91FF90EF90DF90CF90BF90AF909F90F2
:1035E0008F907F906F905F904F900895218D328DD6
:1035F0002901712C612C441555056605770520F4C9
:1036000081509F5F3296C6CF2C0D3D1D328F218F8A
:10361000F8CF1092FC018092290590922A05A09281
:103620002B05B0922C0589E2E3E4F3E0ADE2B5E0CE
:1036300001900D928A95E1F781E08093FB01C8CF5C
:103640008C2F0E94FE19CC2319F28091FB0182304D
:1036500011F40E94E1168CEF91E00E948E1AB8CF0F
:10366000C093FF01809121058370809300020E9426
:10367000321683E0E2CF8091420381110E9442150D
:103680006091290570912A0580912B0590912C0558
:103690000E94FE21603171058105910508F498CFE3
:1036A0001092FB0195CFE0919D02F0919E02099549
:1036B00010922D058FEF9FEF90934705809346055D
:1036C000909349058093480590934B0580934A0554
:1036D00090934D0580934C0590934F0580934E0534
:1036E0009093510580935005909353058093520514
:1036F00090935505809354051092430390935D0376
:1037000080935C0390935F0380935E0390936103C7
:1037100080936003909363038093620390936503A7
:103720008093640390936703809366039093690387
:103730008093680390936B0380936A0381E0809386
:10374000420348E050E067E170E081E295E00E94CA
:10375000F72A10924203809121058C7F11F40E9478
:10376000FD150895CF93C82F882391F080917003A1
:1037700081110EC00E94FE191092FF018091210557
:103780008370809300020E94321683E08093FB01D5
:10379000C0937003CF910895E1E2F5E0908121E0BC
:1037A000922790831092FB010E94EF14089581E00C
:1037B0000E94CC1B089580912105837011F4109212
:1037C000FB01809121058C7F816080932105089504
:1037D0000E94DB1B81E00E94EF1408958091210577
:1037E000837011F01092FB01809121058C7F8093F2
:1037F000210508950E94EE1B81E00E94EF140895B8
:1038000090912105937051F0811109C094609093BB
:1038100021051092FB01862F0E94EF1408958E302F
:1038200010F09463F4CF282F220F220F922BEFCFAA
:10383000682F909121059695969581E0890F8E309D
:1038400008F081E00E94001C089581E00E94181C8D
:103850000895682F90912105969596958FEF890F81
:1038600009F48DE00E94001C089581E00E94291C4B
:10387000089590912105937049F0809322056093FB
:10388000230540932405822F0E94EF140895A1E29E
:10389000B5E01196EC911197F0E0282F13964C911A
:1038A000139712966C91CF0108960E94391C0895C7
:1038B00081E00E94471C0895E1E2F5E09181282F04
:1038C00043816281E92FE850FF0BCF010E94391C30
:1038D000089581E00E945C1C0895E1E2F5E06281B8
:1038E00020E1620F08F46FEF9181282F4381892F27
:1038F00090E00E94391C089581E00E946D1C08959B
:10390000E1E2F5E0628120E1621B08F460E0918170
:10391000282F4381892F90E00E94391C089581E06F
:103920000E94801C0895E1E2F5E0438120E1420F0E
:1039300008F44FEF9181282F6281892F90E00E9437
:10394000391C089581E00E94931C0895E1E2F5E09E
:10395000438120E1421B08F440E09181282F6281DD
:10396000892F90E00E94391C089581E00E94A61CD6
:103970000895E1E2F5E0248130E1230F08F42FEF10
:1039800024830E94EF14089581E00E94B91C0895D9
:10399000E1E2F5E0248130E1231B08F420E02483F8
:1039A0000E94EF14089581E00E94C81C0895A1E0D0
:1039B000B0E0EDEDFCE10C94AF2A4983E82FF0E094
:1039C000EB55FD4F808104E610E021E030E0AE01D0
:1039D0004F5F5F4F880F0E9467232196E4E00C94AD
:1039E000CB2A462F6DEF0E94D71C0895EF92FF92CD
:1039F0000F931F93CF93DF93282F30E094EA899F92
:103A0000E0011124C055DC4F84E2F82E2B553D4FC8
:103A1000F901E080EE0C04E610E020E130E0AE01B8
:103A20006F2D8E2D0E946723F0E1FF0E609684EBD0
:103A3000F812F1CFCDB7DEB7E6E00C94C92ACF93E8
:103A4000DF93C82F6BE00E94F11C40E06AE08C2FEE
:103A50000E94D71C8FE39CE90197F1F700C000009A
:103A600040E060E08C2F0E94D71C40E061E08C2F8A
:103A70000E94D71C40E066E08C2F0E94D71C60E0BB
:103A80008C2F0E94F11CD0E040E06D2F8C2F0E9403
:103A9000D71CDF5FD231C1F740E06D2F8C2F0E9421
:103AA000D71CDF5FD432C1F740E06D2F8C2F0E940E
:103AB000D71CDF5FD43BC1F76BE08C2F0E94F11C59
:103AC00041E06AE08C2F0E94D71C60E08C2F0E949E
:103AD000F11CDF91CF910895A4E0B0E0E2E7FDE1B1
:103AE0000C94AD2AF62E042F122F8F33910508F077
:103AF00047C0880F991F880F991FBC0164557F4FDD
:103B000044E050E0CE0101960E94D82A898183705A
:103B10002A8130E0482F50E064EA869FC0011124DA
:103B200080559C4FFC01E20FF31F6081AB81EC805C
:103B30006F110DC0BC016A0F711DFB016081601324
:103B400006C08E0D911DFC0180818117C9F064EAC9
:103B5000649FC001659F900D112480559C4F280FD4
:103B6000391FF901F082A80FB92FB11D0C93FC0188
:103B7000EE0DF11D108380579F4F21E0FC01208343
:103B80002496E6E00C94C92AFF920F931F93CF93DB
:103B9000DF93182F062FF42ED0E0C0E02F2D402FFA
:103BA000612FCE010E946C1D2196CF33D105B1F754
:103BB000CDB7DEB7E5E00C94CA2AA4E0B0E0E3EEAE
:103BC000FDE10C94AE2AF62E042F122F24E0829FE2
:103BD000B001112464557F4F44E050E0CE010196BE
:103BE0000E94D82A9A817B81F72FF695F695F69553
:103BF0006C81E62FE695E695E69577706770A92FBC
:103C0000A695A695A695B0E0977021E030E001C09A
:103C1000220F9A95EAF78981982F937044EA949F2E
:103C2000A00DB11D1124AF5BBB4FFF2009F442C0B2
:103C30009C91922B9C938370482F50E024EA829FA2
:103C4000C001112480559C4F8F0F911DDC01AF5690
:103C5000BF4F9C9121E030E001C0220F7A95EAF736
:103C6000002369F1292B2C9324EA249FC001259F6E
:103C7000900D112480559C4FE80FF92FF11DEF5640
:103C8000FF4F208181E090E001C0880F6A95EAF73C
:103C90001123C1F0822B808384EA849FF001859FE9
:103CA000F00D1124ED5AFB4F81E080832496E5E06E
:103CB0000C94CA2A922F90952C919223BBCF2095D9
:103CC0002923D1CF80958223E6CFCF93DF9394EA47
:103CD000899FE0011124C05CDB4F9881992319F082
:103CE0000E94F61C1882DF91CF910895EF92FF9207
:103CF0000F931F93CF93DF93082FE82EF12CC4EA84
:103D0000CE9DF001CF9DF00D1124ED5AFB4F808127
:103D10008823B9F00C9FE0011124CF5BDB4F10E04A
:103D20004991612F802F0E94D71C1F5F1231C1F76C
:103D300084EA8E9DF0018F9DF00D1124ED5AFB4F0A
:103D40001082CDB7DEB7E6E00C94C92ACF930E946B
:103D5000332380E00E941F1D81E00E941F1DC0E0F0
:103D600021E041E061E08C2F0E94DD1DCF5FCF3369
:103D7000B9F780E00E94761E81E00E94761ECF9106
:103D8000089580E00E94651E81E00E94651E0895EE
:103D90000E94020D089580E00E94F810817008953D
:103DA0000E94D4112FEF86E791E02150804090408F
:103DB000E1F700C000000E94D4110E94CB1E8823AE
:103DC00021F00E94C81E0E94B22208950E94D01EB7
:103DD0000895CF93DF93EB0186319C4711F50E9444
:103DE000100C9D81992399F08A7A91E009F490E072
:103DF0009093F804811109C089E20E944E210E942B
:103E00009F0C80E0DF91CF91089585E3F6CF8091FC
:103E1000F804811104C089E20E945621F0CF85E3A5
:103E2000FBCF81E0EFCFCF93DF93EC01FB018581E6
:103E3000882309F4D2C09E0130572332310508F09F
:103E4000B2C00E94250D90930C0580930B05FE01D6
:103E5000E150F047E232F10520F4E358F44D0C94C0
:103E60009B2A80910B05816080930B0593C0809104
:103E70000C05886080930C058DC080910B058260D5
:103E8000F3CF80910B058460EFCF80910B058860A4
:103E9000EBCF80910C058160EDCF80910C058260A5
:103EA000E9CF80910B058061DFCF80910B058062A7
:103EB000DBCF80910B058064D7CF0E94940780915F
:103EC0000B058068D1CF80910B058C60CDCF8091A0
:103ED0000C058360CFCF80910B058E7FC5CF80917D
:103EE0000C05877FC7CF80910B058D7FBDCF80915B
:103EF0000B058B7FB9CF80910B05877FB5CF809164
:103F00000C058E7FB7CF80910C058D7FB3CF80914C
:103F10000B058F7EA9CF80910B058F7DA5CF80915A
:103F20000B058F7BA1CF0E94940780910B058F77A3
:103F30009BCF80910B05837F97CF80910C058C7F61
:103F400099CF80910B0582FB992790F921E0922768
:103F500090FB82F990FB83F987CF80910C05982F15
:103F6000909591708E7F892B90FB81F983CF9091F2
:103F70000B05892F8F7B96FF806476CF0E94940774
:103F800090910B05892F97FB87F980586DCF81E0C1
:103F90000E94AB0D80910B0590910C050E942A0D9B
:103FA0000E94940780E0DF91CF91089580E0F0CFE8
:103FB00090910B05892F8F7E94FF806155CF909152
:103FC0000B05892F8E7F90FF81604ECF90910C055D
:103FD000892F877F93FF88604DCF81E0E4CF0F93D7
:103FE0001F93CF93DF93C42FD22FFC0185818823A9
:103FF000C9F04093FB040E9476229093FA048093C8
:10400000F90480E28C0F883040F4C77081E001C071
:10401000880FCA95EAF70E944805DF91CF911F915A
:104020000F9108951091FB04141332C08091F9048C
:104030009091FA040E94F421883C910548F5C0E271
:10404000CD0F1D17B9F080E2810F883040F4177052
:1040500081E001C0880F1A95EAF70E944F05C83029
:1040600048F481E09D2F977001C0880F9A95EAF778
:104070000E944805802F0E943F05C83070F6D77017
:1040800081E001C0880FDA95EAF70E944F05C5CF9D
:1040900080E28C0F883008F6C77081E001C0880F7D
:1040A000CA95EAF7F2CF0F93DB0188519C4787301E
:1040B0009105A0F5FC01E156F44D0C949B2A06E213
:1040C00021EE41EE6AE17CE7CD010E94EF1F80E026
:1040D0000F91089507E225EE45EE6BE17CE7F4CF02
:1040E00006E221EE40EE68E17CE7EECF07E225EE46
:1040F00044EE69E17CE7E8CF06E221EE42EE6CE1B6
:104100007CE7E2CF07E225EE46EE6DE17CE7DCCF0F
:1041100008E221E045EE6EE17CE7D6CF15968C9162
:10412000882319F01092FB04D3CF81E0D1CF909374
:104130000105809300050895E0910005F0910105C7
:10414000309729F00190F081E02D0995089580E0E5
:104150000895E0910005F0910105309721F002806B
:10416000F381E02D09950895A3E0B0E0EAEBF0E2D9
:104170000C94B12A2091FE043091FF0428173907CE
:10418000A1F09093FF048093FE04E0910005F0916C
:104190000105309751F023E029839B838A830084B3
:1041A000F185E02DCE01019609952396E2E00C946D
:1041B000CD2AA3E0B0E0EFEDF0E20C94B12A20911B
:1041C000FC043091FD0428173907A1F09093FD04F9
:1041D0008093FC04E0910005F0910105309751F0C7
:1041E00024E029839B838A830084F185E02DCE011E
:1041F000019609952396E2E00C94CD2A4091F901AD
:104200005091FA019A012E5F3F4F485F5F4F80E067
:104210002417350709F40895F90191919F01992315
:10422000B9F38F5FF5CF882371F02091F9013091B8
:10423000FA01F9013296285F3F4F9191981729F0C2
:10424000E217F307D1F780E0089581E008959C011B
:10425000FC0132969FEF80E04191461751F09F3F5D
:1042600019F4411101C0982F8F5F8630A9F79F3F45
:1042700009F40895290F311D97FD3A95F9016283DC
:104280000895FC01329608962191261303C0DF01A0
:1042900011971C92E817F907B9F70895682F8091D4
:1042A000F9019091FA010E9427210895682F8091C9
:1042B000F9019091FA010E9441210895E091F901DC
:1042C000F091FA01329686E0DF011D928A95E9F7B6
:1042D000089508950E946921089581110EC081E01A
:1042E00080930402609101027091020280910302A6
:1042F000909104020E946A21089582E0F1CF83E048
:104300008093040260910102709102028091030285
:10431000909104020E946A2108950E946D210895DF
:1043200081E0809304026091010270910202809109
:104330000302909104020E946A2108950E94902134
:10434000089591E0811101C090E090930302609183
:1043500001027091020280910302909104020E9476
:104360006A2108958091030208958093020260916A
:1043700001027091020280910302909104020E9456
:104380006A2108958091020208958093010260914C
:1043900001027091020280910302909104020E9436
:1043A0006A210895809101020895089508950E9458
:1043B000D6210895089508950E94D5210895CF9398
:1043C0000E94DA210E94D4110E94DB21C0E08C2FD0
:1043D0000E94F810892B31F4CF5FC530C1F780E01F
:1043E000CF91089581E0FCCFCF93DF93EC010E9441
:1043F00076228C1B9D0BDF91CF910895CF92DF9297
:10440000EF92FF926B017C010E9482226C197D0960
:104410008E099F09FF90EF90DF90CF90089585B7A8
:10442000806885BF85B7806885BF08951F921FB6D5
:104430001F9211248F939F93AF93BF938091020596
:10444000811113C08091560590915705A091580590
:10445000B09159054196A11DB11D809356059093C9
:104460005705A0935805B0935905BF91AF919F91FF
:104470008F911F901FBE1F90189580915E0584300C
:1044800031F10E9436041092020588E190E020E4A8
:104490000FB6F894A895809360000FBE209360003B
:1044A00083B7817F846083BF83B7816083BF789443
:1044B000889583B78E7F83BF0FB6F894A8958091B7
:1044C0006000886180936000109260000FBE0895C4
:1044D0000E9494070E944204089582E084BD93E004
:1044E00095BD9AEF97BD80936E0008952FB7F8940D
:1044F0008091560590915705A0915805B0915905A6
:104500002FBF08952FB7F894609156057091570505
:1045100080915805909159052FBF089578941F9266
:104520001FB61F9211248F939F93AF93BF938091D7
:10453000560590915705A0915805B09159050196DF
:10454000A11DB11D8093560590935705A093580562
:10455000B0935905BF91AF919F918F911F901FBE4E
:104560001F90189581E08093E00080E28093D8004E
:104570001092C9008FE19EE40197F1F700C000009E
:1045800087E090EBDC018093670590936805A0932A
:104590006905B0936A0588E19CE00FB6F894A89588
:1045A000809360000FBE90936000FFCF88E19CE095
:1045B0000FB6F894A895809360000FBE90936000AA
:1045C000FFCFEF92FF920F931F93CF93DF93182F9C
:1045D000EB011092BC0084EA8093BC000E9476221A
:1045E0007C018091BC0087FF27C08091B900887F43
:1045F000883029F08091B900887F803189F5109347
:10460000BB0084E88093BC000E9476228C018091DC
:10461000BC0087FF1EC02091B900287F90E080E099
:10462000283191F081E090E0203411F490E080E0B6
:1046300091958195910908C0C7010E94F421C8177E
:10464000D90778F68EEF9FEFCDB7DEB7E6E00C9492
:10465000C92AC8010E94F421C817D907C0F6F2CFB1
:104660008FEF9FEFF1CF1092B9008CE08093B800EC
:1046700008950F931F93CF93DF93EB018093BB00BB
:1046800084E88093BC000E9476228C018091BC005B
:1046900087FF11C02091B900287F81E090E0283287
:1046A00011F490E080E0919581959109DF91CF918F
:1046B0001F910F910895CF3FDC0741F3C8010E947D
:1046C000F421C817D90710F78EEF9FEFEFCFB0E0B6
:1046D000A0E0EDE6F3E20C94A52A682E762E5A01AE
:1046E00069010E9476224C01C1E0D0E0043111053D
:1046F00058F0C5E0D0E00F3F100731F0C80164E189
:1047000070E00E94322AEB01BE01862D0E94E12258
:104710007C0197FF1DC00F3F1007B1F3C4010E9439
:10472000F4210817190780F784E98093BC00C701BA
:10473000CDB7DEB7EEE00C94C12AB80189910E9492
:1047400039237C01CC16DD0679F3F7FEF6CFECCFEA
:10475000B801872D0E9439237C01E501CA0CDB1CBE
:10476000F1CF089508959B01BA0190915E059430B0
:10477000E9F48F708093E9009FEF8091E8009150F9
:1047800085FD06C085ED8A95F1F700009111F5CF02
:104790008091E80085FF0AC050E040E0C9010E9416
:1047A000AB258091E8008E778093E800089543E080
:1047B00050E0BC0182E00E94B3230895CF93DF93C1
:1047C000EC010E94B22148E050E0BE0181E00E946D
:1047D000B32388E0FE01A3E0B5E001900D928A9535
:1047E000E1F7DF91CF91089580915D05811109C0B6
:1047F0000E943B270E9498278091E200846080936A
:10480000E200089510925D0508950E94902181E0D4
:104810000E94A121089560915A0581E0611101C0B3
:1048200080E00E947F21089590915E0581E09430A0
:1048300009F080E060915A050E948D21089542E0C0
:1048400061EC81E00E94B72642E261EC82E00E94C6
:10485000B72690915E0581E0943009F080E0609188
:104860005A050E946D21089580916005833009F4F6
:1048700061C030F48130D1F1823009F49EC00895D6
:104880008A3009F48AC08B3009F46FC0893009F08E
:1048900050C080915F05813209F04BC08091630563
:1048A00090916405029708F044C08091E800877FEA
:1048B0008093E8008091E80082FF37C09091F30078
:1048C0008091F200029731F48091F100813011F073
:1048D000863021F48091F1000E94B5218091E8009A
:1048E0008B778093E8000E94EB2623C080915F05C0
:1048F000813AF9F48091E800877F8093E800809105
:10490000630590916405892B61F468E083E095E08C
:1049100070E00E94FA258091E8008B778093E80090
:10492000089560E090E080E0F3CF80915E05811112
:10493000C1CF089580915F05813AD9F780916305D1
:1049400090916405892BA9F78091E800877F809377
:10495000E8008091E80080FFFCCF0E94B2218093A4
:10496000F1008091E8008E77BCCF80915F058132A5
:1049700001F78091630590916405892BD1F68091B0
:10498000E800877F8093E8000E94EB268091610514
:104990000E94A1210E949407089580915F058132B1
:1049A00041F68091E800877F8093E8000E94EB2623
:1049B000809162050E94C521089580915F05813A2A
:1049C00009F0B7CF8091E800877F8093E80080915D
:1049D000E80080FFFCCF0E94D221C1CF84B7877F3F
:1049E00084BF0FB6F894A895809160008861809389
:1049F0006000109260000FBE80E890E00FB6F8945F
:104A000080936100909361000FBE0E949E210895E3
:104A10000E943B270E949827E2EEF0E080818460AC
:104A2000808378940E94172A089585E092E00E947E
:104A30009720089580915E05853031F480915E0560
:104A4000853019F00E94682208950E943D220E943C
:104A5000DF21882399F380915C05882379F30E94F4
:104A600095250E949407EACF08959A014091650523
:104A7000509166050E943D250895492F55274330E2
:104A8000510519F168F44130510509F444C0423030
:104A9000510509F445C090E080E050E040E025C0B9
:104AA0004132510549F142325105A9F784E490E0C1
:104AB00043EC54E061157105C1F082E390E041E9F7
:104AC00054E06130710589F0E6CF99278130910576
:104AD00081F0009729F00297F1F6E0E1F4E002C0DE
:104AE000E0E4F4E0849190E0AF01F9015183408368
:104AF0000895EAE1F4E0F6CF89E090E046E554E07D
:104B00006115710591F389E090E04FE654E0613062
:104B1000710559F3C0CF82E190E04FE754E0E5CF53
:104B20008BE390E044E454E0E0CF80E189BD82E192
:104B300089BD09B400FEFDCF8091D8008F7D8093A0
:104B4000D8008091E00082608093E0008091E000D6
:104B500081FDFCCF0895AF92BF92CF92DF92FF927A
:104B60000F931F93CF93DF936C01EB018A010E9497
:104B70000A27F82E811123C00115110539F0F8011B
:104B800080819181C81BD90BC80ED91EB12CA12CD4
:104B90002097A9F08091E80085FD22C08091E8006F
:104BA0008E778093E80001151105A1F0F80180814E
:104BB0009181A80EB91EB182A08285E0F82E8F2DBA
:104BC000DF91CF911F910F91FF90DF90CF90BF9019
:104BD000AF9008950E940A278823D1F2F82EEFCFD4
:104BE000F60181916F018093F1002197FFEFAF1AD9
:104BF000BF0ACECFFC0180916505909166058617AE
:104C00009707A0F06115710529F49091E8009E774F
:104C10009093E80090E06115710551F4911108C07E
:104C20008091E80082FF34C080E00895BC01F2CF9B
:104C300080915E058823C1F18530C1F18091E80043
:104C400083FD30C08091E80082FDEACF8091E800CA
:104C500080FFE1CF8091F3002091F200382F6115A1
:104C6000710519F02830310558F091E028303105F0
:104C700009F090E02091E8002E772093E800CBCF58
:104C800081918093F100615071092F5F3F4FE7CF11
:104C900080915E05882341F0853041F08091E800E5
:104CA00083FFBECF81E0089582E0089583E00895F8
:104CB000FC01809165059091660586179707A0F025
:104CC0006115710529F48091E8008E778093E800E2
:104CD00090E06115710551F4911108C08091E800D0
:104CE00082FF35C080E00895BC01F2CF80915E055F
:104CF0008823C9F18530C9F18091E80083FD31C076
:104D00008091E80082FDEACF8091E80080FFE1CF4A
:104D10008091F3002091F200382F6115710519F090
:104D20002830310558F091E02830310509F090E045
:104D30008091E8008E778093E800CBCF84918093B8
:104D4000F1003196615071092F5F3F4FE6CF80919E
:104D50005E05882341F0853041F08091E80083FFB3
:104D6000BDCF81E0089582E0089583E00895982FF3
:104D7000973028F08F708093E90081E00895909338
:104D8000E900242F762F50E0981731F07091EC0055
:104D90002091ED005091F00021FD02C09F5FE8CF0F
:104DA0003091EB003E7F3093EB003091ED003D7F82
:104DB0003093ED003091EB0031603093EB00709355
:104DC000EC002093ED005093F0002091EE0027FDC1
:104DD000E5CF80E0089580915F0587FF13C0809143
:104DE000E80082FF06C08091E8008B778093E8009E
:104DF00004C080915E058111F2CF089580915E0517
:104E00008823D9F38091E80080FFF8CF8091E800F3
:104E10008E77ECCF2091E4003091E50095E6A90172
:104E20002091EC00822F817020FF06C08091E80065
:104E300080FF06C080E008952091E80022FD1AC09E
:104E400080915E05882389F0853089F08091EB00A0
:104E500085FD0FC02091E4003091E5004217530713
:104E6000F9F29150E1F684E0089582E0089583E03C
:104E7000089581E008950E94AA270E94B227E0EEDB
:104E8000F0E0808181608083E8EDF0E080818F77C1
:104E9000808319BCA7EDB0E08C918E7F8C938081CC
:104EA0008F7E808310925D0508950F931F93CF939B
:104EB000DF930E94AA270E94B227C8EDD0E0888124
:104EC0008F77888388818068888388818F7D8883B5
:104ED00019BC10925E0510925A0510925C05109252
:104EE0005B0500EE10E0F80180818B7F8083888174
:104EF0008160888342E060E080E00E94B726E1EEB6
:104F0000F0E080818E7F8083E2EEF0E0808181603E
:104F10008083808188608083F80180818E7F808398
:104F2000888180618883DF91CF911F910F910895CF
:104F3000E8EDF0E080818F7E8083E7EDF0E0808116
:104F40008160808384E082BF81E080935D050E9460
:104F500055270895E8EDF0E080818E7F80831092E0
:104F6000E20008951092DA001092E10008951F9275
:104F70000F920FB60F9211242F933F934F935F938D
:104F80006F937F938F939F93AF93BF93EF93FF9311
:104F90008091E10082FF0BC08091E20082FF07C098
:104FA0008091E1008B7F8093E1000E94162A80911E
:104FB000DA0080FF19C08091D80080FF15C0809171
:104FC000DA008E7F8093DA008091D90080FF96C04E
:104FD00080E189BD82E189BD09B400FEFDCF81E099
:104FE00080935E050E94F4238091E10080FF19C048
:104FF0008091E20080FF15C08091E2008E7F809357
:10500000E2008091E20080618093E2008091D8000C
:1050100080628093D80019BC85E080935E050E9471
:105020000B248091E10084FF2BC08091E20084FF7B
:1050300027C080E189BD82E189BD89B5982F917033
:1050400080FFFBCF8091D8008F7D8093D800809126
:10505000E1008F7E8093E1008091E2008F7E80935B
:10506000E2008091E20081608093E20080915A0525
:10507000882309F449C084E080935E050E941424CB
:105080008091E10083FF29C08091E20083FF25C069
:105090008091E100877F8093E10082E080935E054C
:1050A00010925A058091E1008E7F8093E1008091FB
:1050B000E2008E7F8093E2008091E2008061809325
:1050C000E20042E060E080E00E94B7268091F000BC
:1050D00088608093F0000E940524FF91EF91BF91BA
:1050E000AF919F918F917F916F915F914F913F9180
:1050F0002F910F900FBE0F901F90189519BC109212
:105100005E050E94022470CF8091E30087FD93E04A
:1051100090935E05B3CF1F920F920FB60F9211249A
:105120002F933F934F935F936F937F938F939F93AF
:10513000AF93BF93CF93DF93EF93FF93D091E900A9
:10514000DF708091EC00C82FC17080FDC0E8109224
:10515000E9008091F000877F8093F00078940E94AE
:10516000CF281092E9008091F00088608093F000D1
:10517000CD2BCF70C093E900FF91EF91DF91CF91DC
:10518000BF91AF919F918F917F916F915F914F915F
:105190003F912F910F900FBE0F901F901895AAE28C
:1051A000B0E0E5EDF8E20C94B02A8FE595E02091AF
:1051B000F100FC012193CF01F5E087369F07B9F795
:1051C0000E9434248091E80083FF1EC180915F0516
:1051D000909160059A3008F017C1E92FF0E0EA5588
:1051E000F44D0C949B2A803899F0823809F00CC158
:1051F000809163058F70873008F006C18093E900C5
:105200008091EB0085FB882780F91092E90006C0A9
:1052100080915B0590915C05911182609091E8000E
:10522000977F9093E8008093F1001092F1008091B5
:10523000E8008E77E5C0882309F4D3C0823009F0F6
:10524000E3C0809161058111D6C0809163058F70A4
:105250002FEF280F263008F0D7C08093E900209167
:10526000EB0020FFC8C0933031F48091EB008062E6
:105270008093EB00C0C09091EB0090619093EB00A5
:1052800021E030E001C0220F8A95EAF72093EA007E
:105290001092EA008091EB008860EACF8111B4C0DF
:1052A000109161051F778091E3008078812B8093B6
:1052B000E3008091E800877F8093E8000E94EB265E
:1052C0008091E80080FFFCCF8091E30080688093AC
:1052D000E30082E0111183E080935E0595C0805861
:1052E000823008F091C080916105909162058C3DFB
:1052F00023E09207A1F583E08A838AE289834FB78E
:10530000F894DE01139620E03EE051E2E32FF0E056
:1053100050935700E49120FF03C0E295EF703F5F88
:10532000EF708E2F90E0EA30C0F0C7968D939D937A
:105330002F5F243159F74FBF8091E800877F80931A
:10534000E8006AE270E0CE0101960E94FA258091A1
:10535000E8008B778093E80057C0C096E7CF609154
:10536000630570916405AE014F5F5F4F0E94352564
:10537000BC01892B09F448C09091E800977F909375
:10538000E80089819A810E945826E1CF8038E1F5B2
:105390008091E800877F8093E80080915A05809390
:1053A000F10045CF811130C090916105923060F5D8
:1053B0008091E800877F8093E80090935A050E94CF
:1053C000EB2680915A05882311F084E005C0809176
:1053D000E30087FDFACF81E080935E050E941F24E1
:1053E00013C080916105813079F481E0933009F038
:1053F00080E080935C051092E9008091E800877F4F
:105400008093E8000E94EB268091E80083FF0AC0A9
:105410008091E800877F8093E8008091EB008062B4
:105420008093EB00AA96E3E00C94CC2A0895CF93E6
:1054300080915E058823A1F0C091E900CF70909122
:10544000EC00892F817090FD80E8C82B1092E90054
:105450008091E80083FD0E94CF28CF70C093E900BF
:10546000CF910895AA1BBB1B51E107C0AA1FBB1F08
:10547000A617B70710F0A61BB70B881F991F5A95E0
:10548000A9F780959095BC01CD01089597FB072E53
:1054900016F4009407D077FD09D00E94322A07FC49
:1054A00005D03EF4909581959F4F08957095619534
:1054B0007F4F0895A1E21A2EAA1BBB1BFD010DC050
:1054C000AA1FBB1FEE1FFF1FA217B307E407F507B4
:1054D00020F0A21BB30BE40BF50B661F771F881F90
:1054E000991F1A9469F760957095809590959B0126
:1054F000AC01BD01CF010895052E97FB1EF4009469
:105500000E94932A57FD07D00E945A2A07FC03D015
:105510004EF40C94932A50954095309521953F4F29
:105520004F4F5F4F089590958095709561957F4F8F
:105530008F4F9F4F0895EE0FFF1F0590F491E02DC0
:1055400009942F923F924F925F926F927F928F9227
:105550009F92AF92BF92CF92DF92EF92FF920F9302
:105560001F93CF93DF93CDB7DEB7CA1BDB0B0FB60C
:10557000F894DEBF0FBECDBF09942A8839884888C9
:105580005F846E847D848C849B84AA84B984C8845F
:10559000DF80EE80FD800C811B81AA81B981CE0F56
:1055A000D11D0FB6F894DEBF0FBECDBFED0108953B
:1055B000FB01DC0102C005900D9241505040D8F72C
:1055C0000895FB01DC0104C08D910190801921F444
:1055D00041505040C8F7881B990B0895FB01DC012E
:1055E00002C001900D9241505040D8F70895DC015F
:1055F000CB01FC01F999FECF06C0F2BDE1BDF89ADE
:10560000319600B40D9241505040B8F70895F99981
:10561000FECF92BD81BDF89A992780B50895A8E183
:10562000B0E042E050E00C94F92ADC01A40FB51F71
:105630004150504048F0CB01840F951F2E910E949D
:10564000262B41505040D0F70895262FF999FECFD0
:1056500092BD81BDF89A019700B4021639F01FBAC5
:1056600020BD0FB6F894FA9AF99A0FBE08950396E2
:10567000272F0E94262B0E94252B252F0E94262BA8
:10568000242F0C94262B0196272F0E94262B0C9456
:10569000252BF894FFCF97059705D505D505390635
:1056A000C605C605C6055506C606D506D506971213
:1056B0009F12A412A912AE12B312B812BD12C212D6
:1056C000C712CC12E912F012F312F612FB120013F9
:1056D00005130A130F13141319131E132313291A76
:1056E000341A4D1A521A571A5C1A611A661A6B1A32
:1056F000701A751A7A1A7F1A841A6B1FDF1F731FAC
:105700003D1F411F771F451F7B1F871F511FD81F3C
:10571000551F8B1F591F8F1FB71F5D1F931FBE1F64
:10572000631F991FA11F491F7F1F4D1F831F671FE5
:105730009D1FAD1FC71FD61F371F6F1FE61F70208D
:1057400076205F206A207C2082208820F3281B2975
:10575000042A1B29042A4E296F29042AC629D22982
:1057600000050A0F141A1F252B30353A01060B10BD
:10577000151B20262C31363B02070C11161C212745
:105780002D32373C03080D12171D22282E33383DC9
:1057900004090E1319FFFF2A2F34393E00000010B0
:1057A0000020003000401500151015201530154060
:1057B000290029102920293029403D003D103D2095
:1057C0003D303D40520052105220523052405C4019
:1057D000660066106620663066407A007A107A208D
:1057E0007A307A4070408E008E108E208E308E403F
:1057F0008440A300A310A320A330A340B700B71098
:10580000B720B730B740CB00CB10CB20CB30CB404C
:10581000E000E010E020E030E04004040404040470
:105820000404040404040404040404040404040438
:105830000404040404040404040404040404040428
:105840000404040404040404040404040404040418
:1058500004040404040404040420030300FF00FF00
:10586000FF00000100C221DE23B223B123D72300B1
:10587000FFFFE200E900EA00B500B600B700CD0086
:105880008301CC008A0192019401210223022402A7
:105890002502260227022A02B300B4006F0070001E
:1058A0009F01CB019F02A002818283E200E900EA0E
:1058B00000B500B600B700CD008301CC008A01928C
:1058C0000194012102230224022502260227022A32
:1058D00002B300B4006F0070009F01CB019F02A0D3
:1058E00002818283356667F7F6959392F1F437F576
:1058F0003634979694003131295A1B750AA61E6CCE
:085900001DC41DC11E747700D7
:00000001FF
