:100000000C947C010C94B4010C94B4010C94B401D4
:100010000C94B4010C94B4010C94B4010C94B4018C
:100020000C94B4010C94B4010C94361F0C940A2067
:100030000C94FF180C94B4010C94B4010C94B4010A
:100040000C94B4010C94B4010C94B4010C94B4015C
:100050000C94B4010C9477190C94B4010C94B40171
:100060000C94B4010C94B4010C94B4010C94B4013C
:100070000C94B4010C94B4010C94B4010C94B4012C
:100080000C94B4010C94B4010C94B4010C94B4011C
:100090000C94B4010C94B4010C94B4010C94B4010C
:1000A0000C94B4010C94B4010C94B40129001E000A
:1000B0001F002000210022004C0024002500260003
:1000C00027002D002E002A0049004A004B00530053
:1000D0005400550056002B0014001A0008001500AB
:1000E00017001C0018000C00120013002F00300035
:1000F00031004C004D004E005F0060006100570071
:10010000390004001600070009000A000B000D006A
:100110000E000F0033003400000028000000000033
:1001200000005C005D005E000000E1001D001B009F
:1001300006001900050011001000360037003800D5
:100140000000E500E50000005200000059005A00E0
:100150005B000000E000E300E2002C000000230050
:100160002C002C00E600E700E700E400000000009F
:10017000500051004F00620000006300580014035B
:10018000440043003000310020004C006500660050
:100190007400000016034D006500630068006200F3
:1001A0006F00610072006400730000000403090422
:1001B00009023B00020100A0FA090400000103014A
:1001C00001000921110100012244000705810308F3
:1001D00000010904010001030000000921110100D0
:1001E0000122B6000705820320000112010002006F
:1001F00000000868891010010001020001050109D2
:1002000002A10185020901A10005091901290815AA
:100210000025019508750181020501093009311594
:1002200081257F95027508810609381581257F95FE
:100230000175088106050C0A38021581257F950194
:1002400075088106C0C005010980A1018503190157
:100250002AB700150126B700950175108100C00569
:100260000C0901A101850419012AA002150126A08B
:1002700002950175108100C005010906A1018506DE
:10028000050719E029E71500250195087501810288
:100290000507190029EF1500250195F07501810268
:1002A0000508190129059505750191029501750348
:1002B0009101C005010906A101050719E029E7150B
:1002C00000250195087501810295017508810105D8
:1002D00007190029FF150026FF0095067508810003
:1002E00005081901290515002501950575019102DB
:1002F000950175039101C00011241FBECFEFDAE014
:10030000DEBFCDBF04B603FE18C08091E602909117
:10031000E702A091E802B091E9028730904BA74034
:10032000B04B59F41092E6021092E7021092E802E4
:100330001092E902E0E0F8E3099511E0A0E0B1E0F5
:10034000ECE6F5E402C005900D92A63AB107D9F7A4
:1003500022E0A6EAB1E001C01D92A63EB207E1F795
:100360000E9444120C9475220C94000008950E947F
:10037000B601089508950E94BA0108950E941C1ABA
:100380000895CF93DF93AFE2B1E044E351E0C1E0E1
:10039000D0E08D91E82FE295EF70F0E061A18F70D1
:1003A0009E0101C0220F8A95EAF7922F909596231D
:1003B00091A382A1822B82A34A175B0751F7AAE17E
:1003C000B1E061E070E08D91E82FE295EF70F0E030
:1003D00041A18F709B0101C0220F8A95EAF7922FED
:1003E0009095942391A382A1822B82A381E0A032D5
:1003F000B80749F71092A8011092A9011092AA011A
:100400001092AB011092AC011092AD011092AE01AE
:100410001092AF011092B0011092B1011092B2018E
:100420001092B3011092B4011092B5011092B6016E
:100430001092B7011092B8011092B9011092BA014E
:100440001092BB010E94B701DF91CF91089594E013
:10045000899FF0011124E855FE4F608171818281EE
:10046000938108950895A6E0B0E0E9E3F2E00C94EA
:10047000E1216A017B01B22E05E010E026E030E0C8
:10048000AE014F5F5F4F61E00E94961AE8EAF1E02B
:10049000BE016E5F7F4F2B2D30E02A5F3F4F97FDEF
:1004A00027C04190519061907190DB018D90BD010A
:1004B000AF0144505109912CB12CA12C022E04C043
:1004C000880C991CAA1CBB1C0A94D2F74C205D20F6
:1004D0006E207F2084289528A628B728DA018D92DF
:1004E0009D92AD92BC921397B1E0EC3BFB07B9F63D
:1004F0002696E0E10C94FD21A9E0B0E0E2E8F2E00C
:100500000C94DF2108EA11E01E830D832FE231E015
:100510003C832B831987088722242394312C812C38
:10052000912C54018394A885B9851D921D921D922A
:100530001D92B987A887EB81FC818191FC83EB83B5
:10054000E82FE295EF70F0E091A18F70610102C099
:10055000CC0CDD1C8A95E2F7892F8C2981A382A11E
:100560000C2D00950F83802382A310EA1A95F1F7D2
:100570002AE131E03A83298390E080E07D0134E094
:10058000E31AF108A981BA810D91BA83A983202FBA
:1005900022952F7030E0D90190966C90D7014D9143
:1005A0005D916D917C910F70910101C0220F0A95B0
:1005B000EAF7262109F092C095018401082E04C0B3
:1005C000000F111F221F331F0A94D2F7280139018F
:1005D0004429552966297729D7014D935D936D9359
:1005E0007C93139701968630910561F681A11F8156
:1005F000182311A382A18C2982A3E885F985EC5BDD
:10060000F14009F090CF20E04FE350E060E070E06F
:1006100082E30E943302892BC9F0E8EAF1E081917C
:100620009191A191B1919F0124503109AC01BD017B
:100630004F73552766277727D9014D935D936D93A7
:100640007C931397B1E0EC3BFB0749F728E04FEFB1
:100650005FE360E070E080E40E943302892BC1F028
:10066000E8EAF1E081919191A191B1919F0124502B
:100670003109AC01BD015F7366277727D9014D931E
:100680005D936D937C931397B1E0EC3BFB0751F7BF
:100690002BE04FEF5FEF61E070E086E30E943302F2
:1006A000892BA9F0ED81FE8181919191A191B19168
:1006B000FE83ED833497A170BB2780839183A2834F
:1006C000B3830D811E8121E00C3B120759F70E9474
:1006D000BB0181E02996E2E10C94FB21412C512CD5
:1006E000320176CF811112C0653080F4453170F44B
:1006F000E42FF0E085E1689FE00DF11D1124EE0F7D
:10070000FF1FE455FF4F85919491089581E090E09B
:1007100008950E947203089581E008950E948C0359
:1007200008950E948C03089581E008950E948C032F
:1007300008950E948C0308950E94990308950895D6
:1007400008950E949F03089508950895A6E0B0E0DB
:10075000ECEAF3E00C94EE2149835A839E833091B6
:10076000C10189819A8131111AC03E81332399F0E8
:10077000222389F00E94EA09182F682F89819A8123
:100780000E94C60969817A81812F0E942B112696C9
:10079000E3E00C940A220E94D809182FF3CF0E949C
:1007A000EA0969817A81F1CFFC01262F40815181CC
:1007B00062817381848195810E94A6030895CF93FD
:1007C000DF93EC0161E00E94D403BE010E948E031E
:1007D000882359F061E0CE010E94D403BE010E943B
:1007E00091038170DF91CF91089580E0FACF0F934C
:1007F0001F93CF93DF93EC0160E00E94D4038C0140
:10080000BE010E94A003BE01C8010E94A103DF91A6
:10081000CF911F910F91089521E030E0A90102C00E
:10082000440F551F8A95E2F7CA010E94E80808950F
:10083000CF93C82F81E090E00C2E02C0880F991F43
:100840000A94E2F70E94560E8C2F0E940C04CF915E
:10085000089581E008950E94290408950E942904C2
:100860000895CF93C82F0E949B088C2F0E942B04C1
:100870008C2F0E942E042FEF84E39CE021508040B7
:100880009040E1F700C00000CF91089581E00E9400
:1008900031040E949B19089580E00E9431040E9457
:1008A000BF1908950F931F93CF93DF938C0161E0DD
:1008B0000E94D403EC01B8010E949603811106C086
:1008C00080E0DF91CF911F910F910895B801CE0183
:1008D0000E949C038823A1F3B801CE010E946E16EA
:1008E000882371F3B801CE010E94AA12882341F334
:1008F000B801CE010E948012882311F3B801CE0105
:100900000E942F128823E1F2F8018581882361F08B
:10091000C330FCE7DF07E9F058F4C115ECE7DE0768
:10092000A9F0C130DC47B9F0C8010E949403C9CFD7
:10093000CB358CE7D807A9F0CC35ECE7DE0771F0B2
:10094000CA35DC4789F70E94310EEECF0E9446047B
:10095000B7CF0E94390E0E944C04B2CF0E94270EDE
:10096000E3CF0E94350EE0CF0E94A4030E94CF186F
:100970000E94D80408950E94DC040E94A5030E94EE
:10098000D418089581E008950895CF93DF93D82F68
:100990000E94C204C82F882319F08D2F0E94C4041E
:1009A0008C2FDF91CF91089508950E94C50408957A
:1009B00080E00E94D50408950E94B7160E94D504D5
:1009C0000895CF930E94B716C82F8091BC018C1751
:1009D00079F0C093BC010E946B196093BD017093C4
:1009E000BE018093BF019093C0018C2F0E94D5045B
:1009F000CF910895ADE0B0E0E0E0F5E00C94EF2198
:100A0000488759876A877B878C879D8791110E94C9
:100A1000370D1F8286E0FE013896DE0111960190A7
:100A20000D928A95E1F78D8181110DC029813A815E
:100A30004B815C816D817E818F810E94810C2D961E
:100A4000E2E00C940B22CE0101960E94DF0381119B
:100A5000EDCFF5CFFC012481213021F480819181FB
:100A60000E941C0A0895662329F00E940B140E941C
:100A7000DE1408950E946514FACFCF93C82F8823FF
:100A8000C9F08238C9F40E94C41681FD13C089E3FD
:100A90000E94E6170E94CB0D2FEF87EE93E02150C6
:100AA00080409040E1F700C0000089E30E940018F8
:100AB0000E94CB0DCF9108958338A1F40E94C416F3
:100AC00080FDF8CF83E50E94E6170E94CB0D2FEF43
:100AD00081EE94E0215080409040E1F700C000009A
:100AE00083E5E4CF8438A1F40E94C41682FDE2CFEE
:100AF00087E40E94E6170E94CB0D2FEF81EE94E071
:100B0000215080409040E1F700C0000087E4CECF44
:100B10008CEF8C0F813A70F48C2F0E945A17882327
:100B200029F08C2F0E9400180E94CB0D8C2F0E9460
:100B3000E617BECF80E28C0F883048F4C77081E0A2
:100B400001C0880FCA95EAF70E941A0DB1CFEBE5F4
:100B5000EC0FE33040F4F0E0E659FE4F808190E086
:100B60000E94EE16A7CFE8E5EC0FEB3150F4F0E071
:100B7000EE0FFF1FEC5CFE4F808191810E941317E6
:100B800099CF83E38C0F833108F094CF61E08C2FF1
:100B90000E9433058FCF882309F456C0823879F438
:100BA0000E94C41681FF50C089E30E94E6170E948C
:100BB000CB0D89E30E9400180E94CB0D0895833865
:100BC00059F40E94C41680FF3FC083E50E94E617D7
:100BD0000E94CB0D83E5EECF843859F40E94C416F1
:100BE00082FF32C087E40E94E6170E94CB0D87E4A3
:100BF000E1CF9CEF980F913AE8F290E2980F98308D
:100C000050F4877091E001C0990F8A95EAF7892F17
:100C10000E94200DD1CF9BE5980F933028F490E0EF
:100C200080E00E94EE16089598E5980F9B3128F415
:100C300090E080E00E941317089593E3980F93319A
:100C400018F460E00E94330508951F93CF93DF935B
:100C5000182FEB010E943D05209739F4812F0E9447
:100C6000CB05DF91CF911F9108958FE99FE0019708
:100C7000F1F700C000002197EFCF70E060E089330A
:100C800011F460E570E00E9425060895882321F0A4
:100C90000E941A0D0E94CB0D0895882321F00E9416
:100CA000200D0E94CB0D0895B0E0A0E0EAE5F6E04B
:100CB0000C94E8216C01D62FC72FFC011581068109
:100CC00002950F700E94100DE82E8823F9F0E12E96
:100CD0001123E1F08C2F807F803461F080E28D0F52
:100CE000883008F18C2F807E803221F4D230D8F009
:100CF0000023C9F08091D40282FF15C082E00E94D7
:100D0000FB0D0E94100D91E0E82EE926BC2EB29456
:100D10009FE0B922FBE0FB15B8F1EB2DF0E0E958BC
:100D2000FD4D0C94D921E12CF1CF0C2F0F70C07F19
:100D300011F00295007F112399F0002359F080E211
:100D40008D0F883010F0D11107C0802F0E941A0D2E
:100D50000E94CB0D8D2F48C0802F0E942A0DF8CF06
:100D60008D2F0E94CB05002379F080E28D0F883013
:100D700010F0D11104C0802F0E94200D03C0802FDD
:100D80000E94300D0E94CB0DEB2DE850FF0B3497E5
:100D900008F06BC10E94B7160E94D504CDB7DEB72C
:100DA000E9E00C9404222C2F2F70F22EC07FC03269
:100DB00019F0F29480EFF822DD2341F0D130C9F12F
:100DC000112309F443C00023E9F0C4CF8091D40279
:100DD00082FD14C0112359F0FF2029F08F2D0E94AD
:100DE0001A0D0E94CB0D80E00E943D05CDCF80E022
:100DF0000E94CB05FF2041F28F2DBECF112369F059
:100E0000011104C08F2D0E944606BECF013009F0AB
:100E1000BBCF8F2D0E944E0DB7CF0111B5CF8F2DB7
:100E20000E944D068F2D0E945A0D8F2D0E943E0D5F
:100E3000ABCF112321F0063008F0A6CFE3CF053069
:100E400008F0A2CF8F2D0E944D069ECF0023D1F334
:100E5000D93349F43FEF87EE93E031508040904022
:100E6000E1F700C000008D2F0E94CB058DCF8C2FA5
:100E700086958695837069F0813009F085CF8D2F36
:100E80009C2F9370111102C080E090E00E94131714
:100E90007BCF8D2F9C2F9370111102C080E090E0CA
:100EA0000E94EE1671CF612F8D2F0E9433056CCFFB
:100EB0008C2F8370A1F5111167CF4D2F4295469568
:100EC0004770440F440F2D2F2F7030E0042E02C0C6
:100ED000220F331F0A94E2F790E080E0D4FF09C0AC
:100EE0008FE090E002C0880F991F4A95E2F7809545
:100EF0009095C695C695C370822B932BC23049F04E
:100F000058F4C13019F00E94F4083ECF0E94EB085B
:100F10003BCF0E94FD0838CF0E94E80835CF869568
:100F2000112311F08C2F8170882309F42DCF4D2FC0
:100F3000429546954770440F440F2D2F2F7030E097
:100F4000042E02C0220F331F0A94E2F790E080E0E3
:100F5000D4FF09C08FE090E002C0880F991F4A9526
:100F6000E2F780959095C695C695C370822B932B1A
:100F7000C23049F058F4C13019F00E945F0904CF23
:100F80000E94560901CF0E946809FECE0E940C09FA
:100F9000FBCECF70112329F08C2F0E9424098D2FB6
:100FA00032CF8D2F0E944D068C2F0E943409ECCE3B
:100FB000D23F41F160F4D03FB9F0D13F81F011232D
:100FC00009F443C00111C6CE8C2F8F711FC0D33FCF
:100FD00001F1D43FA1F78091D40282FD24C08C2F6F
:100FE0008F71112311F312C0112341F0053008F065
:100FF000CBCE8C2F8F710E944609C6CE063008F0EA
:10100000C3CEF7CF8C2F8F711111CFCF0E9424093F
:10101000BBCE112329F08C2F8F710E941809B4CEFA
:101020000E941309B1CE112331F063E08C2F8F7130
:101030000E94DD0DA9CE81E00E94FB0D023008F474
:10104000A3CE82E00E94FB0D9FCE002359F0D9333E
:1010500009F009CFEFEFF7EE23E0E150F040204038
:10106000E1F7FFCE8C2F8F71A0CFEE2009F496CE42
:101070000E940C0D80FD92CEF60115820E94060D95
:101080000E942409C6010E9462080E94060D0E9467
:10109000340984CE0F931F93CF93DF93EC016881C3
:1010A00079818D810E94270A8C010E9471090E941A
:1010B000E708B801CE010E945406DF91CF911F913D
:1010C0000F910895CF93DF93EC018C81882399F0E1
:1010D000CE010E945204811111C00E94100D88237C
:1010E00051F08D81882339F08091D40282FF03C0B2
:1010F00082E00E94FB0DDF91CF910895CE010E9406
:101100004A08CE010E94F703F6CF90E080E00E94EB
:10111000EE1690E080E00E9413170E94370D0E94A7
:10112000CB0D0E94FA140E94DE1408950E941A1832
:101130000E94850808950E94270D0E949608089530
:1011400092959F70963091F058F4925F9F70923014
:1011500058F4803F19F030F4883E30F481E008956F
:101160009A5FF4CF843FD1F380E00895883EB0F3D6
:10117000813FD1F7F3CFFC012481222339F0808114
:1011800091810E941C0A0E94A008089580E00895A1
:10119000A6E0B0E0EEECF8E00C94EF212696E2E059
:1011A0000C940B22A7E0B0E0E8EDF8E00C94EF21FE
:1011B0002796E2E00C940B2208950E94DC08089523
:1011C0000E94DD089093FD018093FC01089508952D
:1011D0000E94E00808952091FC013091FD01822BCE
:1011E000932B0E94E00808952091FC013091FD01AD
:1011F000822393230E94E00808952091FC013091FE
:10120000FD01822793270E94E00808950E94DC08D0
:1012100008950E94060908950E9409099093FB0110
:101220008093FA01089590E080E00E940C090895EF
:1012300021E030E0A90102C0440F551F8A95E2F772
:10124000CA010E940C09089521E030E002C0220F7B
:10125000331F8A95E2F78091FA019091FB01822B6E
:10126000932B0E940C09089521E030E002C0220F68
:10127000331F8A95E2F7209530958091FA0190917D
:10128000FB01822393230E940C09089521E030E0A2
:1012900002C0220F331F8A95E2F78091FA019091E4
:1012A000FB01822793270E940C0908952091FA01DF
:1012B0003091FB01822B932B0E940C090895209101
:1012C000FA013091FB01822393230E940C090895B7
:1012D0002091FA013091FB01822793270E940C098B
:1012E00008950895262F277091E001C0990F2A953F
:1012F000EAF723E0769567952A95E1F7660F771F61
:10130000660F771FFA01E60FF71F50E040E0682FE5
:1013100070E08191DF0111979B01042E02C0369588
:1013200027950A94E2F72170219528272923282759
:101330002C934F5F5F4F4430510559F70895A82F04
:10134000A77023E0969587952A95E1F7880F991F56
:10135000880F991FFB01E80FF91F50E040E080E083
:10136000219130E00A2E02C0369527950A94E2F7C3
:1013700021703327042E01C0220F0A94EAF7822B32
:101380004F5F5F4F4430510559F70895262F953030
:1013900070F4853160F4682F70E085E1989F600DEE
:1013A000711D112442EC51E0822F0E9472090895B0
:1013B000292F953068F4853158F490E062EC71E0A3
:1013C00035E1239F800D911D11240E949F090895EE
:1013D00080E00895B0E0A0E0E0EFF9E00C94E821AF
:1013E0007C010091FA011091FB018091FC01909128
:1013F000FD01082B192BCFE0D0E0CC24C394D12CD5
:10140000BC2EC6010C2E02C0880F991F0A94E2F769
:1014100080239123892B49F4219790F7B12C8B2DB0
:10142000CDB7DEB7E9E00C940422B7018C2F0E94FF
:101430003711019789F3F3CFCF93DF93EC010E942B
:10144000EA09BE010E943711DF91CF9108951F93E1
:10145000CF93DF93EB019091C101992339F0CB0138
:101460000E941C0ADF91CF911F910895882369F093
:10147000CB010E94EA09182F682FCE010E94C609ED
:10148000BE01812F0E943711EDCFCB010E94D809F8
:10149000182FF6CF1F93CF93DF93C091FE0117E073
:1014A0008091FF018C1304C0DF91CF911F910895AB
:1014B000D0E01C9FF0011D9FF00D1124E050FE4F65
:1014C00020813181428153816481758186810E94AE
:1014D000D2082196C770E4CF2091380230913902AA
:1014E00040913A0250913B0260913C0270913D0262
:1014F00080913E020E94D2080895CF93DF9380919D
:101500003E02807F09F04DC080913D02882309F49E
:1015100048C0E091FE015091FF01C0913902D09185
:10152000380260913A0270913B0247E05E17C9F1C0
:101530008E2F90E0E49FF0011124E050FE4F2481B3
:10154000222391F1489FF001499FF00D1124DF0102
:10155000A050BE4F11962C9111972C1325C02C91A1
:101560002D1322C015962C91159721111DC012968E
:101570002D913C91261B370B283C3105A8F4809116
:101580003E028F70806180933E02EA5FFD4F808152
:101590008F708061808388E392E00E9462080E94DD
:1015A0004A0ADF91CF910895FC013196E770BECFD2
:1015B000482F2091FE019091FF0157E0291302C0AE
:1015C00080E0089530E0529FF001539FF00D112408
:1015D000E050FE4F8181681306C08081481303C02C
:1015E00085818111EECF2F5F3F4F2770E7CFA4E1B8
:1015F000B0E0EDEFFAE00C94E5218C0186E0F80113
:10160000DE011F9601900D928A95E1F7F801848121
:10161000E58098E3A92E92E0B92E90913C029111B9
:101620001FC08823D1F0EE20A9F0C8010E94BB089A
:10163000F82E882379F087E0F801D50101900D920A
:101640008A95E1F7C5010E942A050E947D0A0E9441
:101650006C0A5FC0C8010E946208FF24F39459C05D
:10166000C080D18082809380F0903D0220913A0228
:1016700030913B02A401421B530BFF2009F4F9C037
:10168000483C510508F0A7C0882309F442C0909156
:10169000390280913E02282F207F09F05CC09D1105
:1016A00016C090913802C91212C0E1104EC08F705E
:1016B000806180933E020E946C0A88E392E00E945F
:1016C000620880913E02F8018683F12C22C0E1106D
:1016D0003CC06D2D8C2D0E94D80A6D2D8C2D0E9442
:1016E000D80AE82E8111F1CFCF86D88A8F859889C4
:1016F0000E941C0A292F22952F70243078F49F70A5
:101700002230A8F09923B9F0F8019681907F99F4DE
:10171000FE2C8F2D6496ECE00C9401222A5F2F7032
:10172000223068F0C8010E946208EF2CF1CF9923A3
:1017300011F0882369F3805E883050F3F3CF803F47
:1017400038F3815F833070F7E3CF80913E02816090
:1017500080933E02BACF9D1113C090913802C912F6
:101760000FC0E1100DC08683C8010E94620887E0A7
:10177000F801A8E3B2E001900D928A95E1F767CFF6
:10178000C8010E94BB08882309F464CFEE2009F445
:1017900061CF80913E02803288F0209138023091F2
:1017A0003902398728879B868A8690913C029C87DC
:1017B0001D868E87CE0108960E94620887E0F80198
:1017C000A8E3B2E001900D928A95E1F70E947D0AAC
:1017D0000E946C0A42CF90913E02292F207FA1F4F3
:1017E000682D9A8A898AA6017A899E2D0E94C80846
:1017F00088E392E00E94620887E0F50111928A95E1
:10180000E9F70E946C0A61CF882309F482CF8091A6
:1018100039028D1110C080913802C8120CC0E1103D
:101820000AC09683C8010E94620887E0F501119200
:101830008A95E9F76ECFC8010E94BB08882309F496
:1018400009CFEE2009F406CF80913E02803208F4E1
:10185000B5CF20913802309139023A8329839C8296
:101860008B8290913C029D831E828F83CE010196D4
:10187000A3CF483C5105B8F5882309F4EECEFE2CE1
:10188000EE2009F4E7CE809139028D111EC08091BF
:101890003802C8121AC080913E0280FD0DC0982FF8
:1018A000907F51F08683903F09F45ECF982F907F10
:1018B000905F8F70892B57CF87E0F801A8E3B2E0E3
:1018C00001900D928A95E1F724CFC8010E94BB08D0
:1018D000811174CF80913E02816080933E02C801E5
:1018E0000E94620816CF682D9A8A898AA6017A8991
:1018F0009E2D0E94C80887E0F50111928A95E9F7AC
:10190000A6CEAEE0B0E0E7E8FCE00C94EE2128873C
:1019100039874A875B876C877D878E87CE010896DB
:101920000E94F70A8823B1F06C85662341F0288570
:1019300039854A855B857D858E850E94D20817E0B2
:101940008091FE019091FF0189133DC02E96E3E046
:101950000C940A2287E0FE013896DE011196019070
:101960000D928A95E1F78C85882349F32091FF0138
:1019700030E0C9010196877099274091FE01481710
:10198000190699F097E0929FD001939FB00D112412
:10199000A050BE4FFE01319601900D929A95E1F74D
:1019A0008093FF010E944A0ACACF0E949B081092AE
:1019B000FF011092FE0187E0E8E3F2E0DF011D92F3
:1019C0008A95E9F7BCCF819FC001112480509E4FBA
:1019D0000E94F70A882309F4B9CFE091FE011E9F07
:1019E000F0011124E050FE4F20813181428153816A
:1019F0006481758186810E94D2088091FE0190E009
:101A00000196877099278093FE019ACF8091670293
:101A100086958695869508958091670287700895CA
:101A200090916702977081E009F480E008958091B9
:101A30009302089590919302892B809393020895C5
:101A40008095909193029823909393020895109219
:101A50009302089590919202892B809392020895A7
:101A600080959091920298239093920208951092FB
:101A70009202089508950E943A0D08959091680287
:101A8000292F282331F080958923809368020E94B2
:101A90003B0D089508950E944A0D089590916902A2
:101AA000292F2823281729F0982B909369020E9448
:101AB0004B0D089590916902292F282331F08095CC
:101AC0008923809369020E944B0D089580916902D9
:101AD000882329F01092690280E00E944B0D08953E
:101AE000CF93C091930280919202C82B809169029A
:101AF000882331F0C82B0E94381781110E94660D8F
:101B00008C2FCF910895CF93DF93C0910201D09194
:101B100003010E94700D8883C0910201D0910301DE
:101B200048E050E06FE572E0CE010E941622892B5A
:101B300059F088E0FE01AFE5B2E001900D928A9580
:101B4000E1F7CE010E94C716DF91CF910895CF93A0
:101B5000DF93C0910001D09101010E94700D898333
:101B6000C0910001D091010140E250E06FE372E0CA
:101B7000CE010E941622892B59F080E2FE01AFE3CC
:101B8000B2E001900D928A95E1F7CE010E94D21643
:101B9000DF91CF9108950E94AA18813039F4809185
:101BA000D30287FF03C00E94A70D08950E94830DF2
:101BB000089508950E94D90D08959091D40292FF3E
:101BC00011C098E0899F90011124622B60936702F5
:101BD0000E942409809167028695869586950E94C9
:101BE000DA0D08950E94240908951092670280E09A
:101BF0000E94DA0D08959091670280958923809361
:101C00006702282F277069F4891759F09091D40240
:101C100092FF07C08695869586950E9434090E949A
:101C2000F50D08959091D40292FB222720F92817F0
:101C300069F080FB92F99093D4028091D302909145
:101C4000D4020E94610E82E00E94FB0D08958091F3
:101C5000D40282FB882780F991E089270E94120E26
:101C6000089581E00E94120E089580E00E94120EF5
:101C700008956FEF7FEF90E080E00E945F2208956B
:101C800090E080E00E942B2221E0853E9E4F09F0EB
:101C900020E0822F089582E090E00E9423220895A0
:101CA00083E090E00E94232290E00895682F83E073
:101CB00090E00E944122089584E090E00E942B224F
:101CC0000895BC0184E090E00E945F220895AB017A
:101CD000BC018FE090E00E9453220895AB01BC014B
:101CE00083E190E00E945322089560E070E0CB0110
:101CF0000E946E0E089560E070E0CB010E94670EB6
:101D00000E94750E0895A8E0B0E0E9E8FEE00C94AA
:101D1000EF2165EE7EEF90E080E00E945F2260E0C0
:101D200082E090E00E94412281E090E09093FD01EA
:101D30008093FC010E94560E60E074E184E090E024
:101D40000E945F2260E086E090E00E94412260E015
:101D500087E090E00E94412240E050E0BA0188E034
:101D600090E00E94532260E083E290E00E944122D2
:101D700060E08CE090E00E94412260E08DE090E025
:101D80000E94412219821A821B821C821D821E829D
:101D90001F82188648E050E067E170E0CE010196AE
:101DA0000E94312240E050E0BA018FE190E00E94B1
:101DB00053220E947B0E2896E2E00C940B220E9494
:101DC000830E0895682F8EE090E00E9441220895CE
:101DD000A6E0B0E0EEEEFEE00C94ED210E945F196B
:101DE0008C0180919402909195028017910781F067
:101DF00019821A820E945F19682F49815A81792FAE
:101E000080E090E00E94FA041093950200939402FF
:101E10002696E4E00C9409220E946B196093AE02AE
:101E20007093AF028093B0029093B1026093AA02C4
:101E30007093AB028093AC029093AD020895089525
:101E40000E941F0F089508950E94230F0E94200FE3
:101E5000089508950E94290F089508950E942D0F56
:101E60000E942A0F08958DE292E10E9459120E9469
:101E7000BE010E94240F089581E008950E943C0F46
:101E800008950E943C0F08950895089508950E94B2
:101E9000440F0E94450F0E94460F08950E94400E75
:101EA000811102C00E94DF0E0E944B0E8093B2028D
:101EB0000E945C0E9093D4028093D3020E947D1204
:101EC0000E94500E0E94E8088091FA019091FB0157
:101ED0000E94090908950E9456190E94C1010E949A
:101EE0004E0F0E94D4040E942E0F0895A8E0B0E087
:101EF000ECE7FFE00C94DF210E943E0F81110AC045
:101F00000E94E80E0E941C150E94E1042896E2E15E
:101F10000C94FB210E947C0286E992E098878F83D3
:101F20007C0110E0F70141905190619071907F0128
:101F3000812F0E9427021F5F153009F467C04616E3
:101F400057066806790671F38091B20281FD0E94FE
:101F500032020E94410F282E10E033243394812F47
:101F60000E9427026B017C01EF81F885419051901E
:101F700061907190F887EF83C414D504E604F704E8
:101F8000F1F100E0812C912C540183944C245D24C8
:101F90006E247F24D301C20188219921AA21BB216B
:101FA000892B8A2B8B2BE9F02220D9F009831A8305
:101FB0000E945F199C838B833D8221E0D701C6017B
:101FC00088219921AA21BB21892B8A2B8B2B09F4EB
:101FD00020E049815A816B817C818D81922F0E9402
:101FE000FA040F5F880C991CAA1CBB1C053191F6E2
:101FF000EF81F8853497C082D182E282F3821F5F3D
:10200000153009F0ACCF0E940C0F7CCF4616570656
:102010006806790609F098CF73CF1F93CF93DF93AB
:102020000E943C11EC01C11580E5D807F0F5C115FF
:1020300080E4D80708F09CC0C03ED10520F5CD3C17
:10204000D10508F082C0C83AD10578F4C53AD10567
:1020500008F073C0C130D10519F1209709F1C430DF
:10206000D105F0F4D0E0C0E01BC0C33CD105D0F7EF
:10207000C85AD0E0CC0FDD1FC359DE4F0990D8817C
:10208000C02DD4640DC0C11580E2D80708F0D1C0BE
:10209000C11581E0D80708F05AC0C83ED10510F735
:1020A000CE01DF91CF911F910895C03682E5D80708
:1020B00018F5C03482E5D80708F06BC0C03282E55D
:1020C000D80708F05FC0C11582E5D80708F497C0AB
:1020D0002C2F2695269580E2289F900111248C2F85
:1020E0008370C1E0D0E002C0CC0FDD1F8A95E2F71B
:1020F000C22BD32BDD68D4CFC03A82E5D80760F479
:10210000C03882E5D80708F459C0CF71D0E0DC2F81
:10211000CC27C46FD06AC4CFC03C82E5D80708F48E
:1021200062C0C03E82E5D80708F09CCFDC2FCC27E8
:10213000CC27DF71C06FD06AB3CFC55AD0E0CD5580
:10214000DE4FC881D0E0D064ABCFD065A9CF8D2F52
:102150000E94DE11182FCE0199270E943C11C12F39
:10216000D0E0DC2FCC27CC27DF71C82BD92B98CF20
:10217000CE0199270E943C11CC27DF70C82BD92BA8
:10218000D06A8ECFCF71D0E0DC2FCC27C16FD06A60
:1021900087CF2C2F26952695277080E2289F9001C7
:1021A00011248C2F8370C1E0D0E002C0CC0FDD1F62
:1021B0008A95E2F7C22BD32BDC6872CF2C2F2695A1
:1021C0002695277080E2289F900111248C2F837020
:1021D000C1E0D0E002C0CC0FDD1F8A95E2F7C22B30
:1021E000D32BDA685DCF8C2F8F710E94DE11C82F40
:1021F000D0E0DC2FCC27CC27DF71D06251CF8C2FE1
:102200008F710E94DE1155E0D695C7955A95E1F77A
:10221000CF70D0E0DC2FCC27282F30E084FF05C022
:1022200044E0220F331F4A95E1F7C22BD32BD0692C
:1022300037CF8D2F8F710E94DE11182FCE01992775
:102240000E943C11C12FD0E0DC2FCC27CC27DF71BE
:10225000C82BD92BD2CF462F753030F4653120F4FE
:10226000672F0E948903089590E080E008950E94FE
:102270002B110E940D10089582389105B9F1B0F428
:102280008133910509F47DC048F48932910509F440
:102290006DC08A32910509F47BC00895853391059C
:1022A00009F45FC08933910509F10895833E9105D2
:1022B000D9F138F4803E910529F1823E910579F1FA
:1022C0000895863E9105D9F1873E910509F43EC0F7
:1022D000843E910541F52091D40221FF24C08091D4
:1022E000D30284FD19C087EE90E008952091D302B7
:1022F000237009F05AC02091D40223FF14C089E250
:1023000090E008952091D30220FD38C03091D4028E
:1023100030FF09C024FF43C090E080E00895209181
:10232000D30222FDF7CF08952091D30222FD3AC0B7
:102330003091D40230FD39C024FFF5CFEDCF20918C
:10234000D30223FFF0CF24FDE7CFCDCF2091D302DE
:1023500023FD2EC03091D40231FFEECF84EE90E009
:1023600008952091D30225FFDECFC9CF2091D3025B
:1023700025FD21C02091D40223FFD5CF89E390E031
:10238000D2CF2091D30226FFCECF8AE290E00895EB
:102390002091D30226FFC7CF81E390E0089583EE1A
:1023A00090E0089582EE90E0089580EE90E0089528
:1023B00086EE90E0089585E390E008959091D30231
:1023C00092FF10C041E0282F2471243009F040E032
:1023D00031E0282F2871283009F030E0431711F040
:1023E0002CE0822793FF10C041E0282F2471243174
:1023F00009F040E031E0282F2871283109F030E061
:10240000431711F02CE082273091D40230FF10C026
:1024100051E0282F2171213009F050E041E0282FB0
:102420002871283009F040E0541711F029E0822784
:1024300031FF10C041E0282F2171213109F040E027
:1024400031E0282F2871283109F030E0431711F0CE
:1024500029E0822794FD877E089580E00895CF9338
:102460009C01205E3245C1E02032310538F4FB0189
:10247000C581C11103C08F710E9418048C2FCF91A8
:1024800008950E94760F08950E94F8180E946D1C0E
:102490000E94330F0E94871C0E946B0F0E94941CA5
:1024A0000E94991C0E9441120E94B31C0E94470F77
:1024B000F7CF9093A7018093A60108950E94390E4B
:1024C000089580E00E942702862F817008950E945F
:1024D0007C022FEF86E791E0215080409040E1F7A9
:1024E00000C000000E947C020E946112882321F03B
:1024F0000E945E120E949B1908950E94671208951F
:10250000CF93DF93EB0186319C4711F50E94170DA5
:102510009D81992399F08A7A91E009F490E0909353
:10252000B302811109C089E20E94E6170E94CB0D17
:1025300080E0DF91CF91089585E3F6CF8091B302DB
:10254000811104C089E20E940018F0CF85E3FBCF1F
:1025500081E0EFCFCF93DF93EC01FB0185818823EE
:1025600009F4D2C09E0130572332310508F0B2C0C1
:102570000E945C0E9093D4028093D302FE01E1503E
:10258000F047E232F10520F4ED57FD4D0C94D921CE
:102590008091D30281608093D30293C08091D40252
:1025A00088608093D4028DC08091D3028260F3CF83
:1025B0008091D3028460EFCF8091D3028860EBCF0B
:1025C0008091D4028160EDCF8091D4028260E9CF06
:1025D0008091D3028061DFCF8091D3028062DBCF14
:1025E0008091D3028064D7CF0E949B088091D30250
:1025F0008068D1CF8091D3028C60CDCF8091D402FE
:102600008360CFCF8091D3028E7FC5CF8091D402DB
:10261000877FC7CF8091D3028D7FBDCF8091D302BA
:102620008B7FB9CF8091D302877FB5CF8091D402C1
:102630008E7FB7CF8091D4028D7FB3CF8091D302AC
:102640008F7EA9CF8091D3028F7DA5CF8091D302B9
:102650008F7BA1CF0E949B088091D3028F779BCF65
:102660008091D302837F97CF8091D4028C7F99CFC2
:102670008091D30282FB992790F921E0922790FB69
:1026800082F990FB83F987CF8091D402982F90959F
:1026900091708E7F892B90FB81F983CF9091D3022B
:1026A000892F8F7B96FF806476CF0E949B08909144
:1026B000D302892F97FB87F980586DCF81E00E9464
:1026C000E20E8091D3029091D4020E94610E0E948A
:1026D0009B0880E0DF91CF91089580E0F0CF90914A
:1026E000D302892F8F7E94FF806155CF9091D302C2
:1026F000892F8E7F90FF81604ECF9091D402892FD9
:10270000877F93FF88604DCF81E0E4CF282F35EBA2
:102710002303C001112497FF04C080589109892F19
:10272000089580589F4FFBCF8091BA0280FF0DC063
:102730006091090170E0660F771F6038710570F5D0
:102740006115710569F1862F089581FF07C06091B9
:10275000090184E0689FB0011124EFCF6091090165
:1027600082FD0AC08091B9028823A9F02091080156
:1027700060910901821710F088E0ECCF869FC001BC
:10278000112433E0880F991F3A95E1F7622F70E02A
:102790000E94C521D2CF68E070E0D5CF8FE70895C1
:1027A00081E008958091BA0280FF0CC0609105011C
:1027B00070E075956795759567956115710549F197
:1027C000862F089581FF06C06091050170E0759520
:1027D0006795F3CF6091050182FD0BC09091B8021F
:1027E0009923A1F06091040180910501961738F0BA
:1027F000682F70E06038710500F38FE70895899FB6
:10280000C001112470E00E94C521F4CF61E070E0A6
:10281000D7CF81E008958D3C31F40E9494138195C7
:102820008093BE0208958E3C19F40E949413F8CF51
:102830008F3C31F40E94941381958093BD020895DA
:10284000803D19F40E949413F8CF893D29F40E9429
:10285000D2138093BF0208958A3D21F40E94D213BF
:102860008195F7CF8B3D31F40E94D21381958093EF
:10287000C00208958C3D19F40E94D213F8CF9FE254
:10288000980F983070F4815D990B21E030E001C021
:10289000220F8A95EAF78091BC02822B8093BC02BA
:1028A00008958D3D31F48091BA0281608093BA021F
:1028B00008958E3D21F48091BA028260F7CF8F3D5A
:1028C000B9F78091BA028460F1CF4091BD028D3C8E
:1028D00059F48091BE0287FF0DC01092BE024111D3
:1028E0000BC01092B90208C08E3C81F48091BE02E8
:1028F00018169CF3442381F08091BF029091C0028E
:10290000892B09F05AC01092B80208958F3C49F4FF
:1029100047FFF0CF1092BD028091BE028111ECCF33
:10292000E0CF803D19F41416ACF3E4CF9091BF02D0
:10293000893D29F41916F4F61092BF02DBCF8A3DC7
:1029400019F497FFD7CFF8CF9091C0028B3D29F4AF
:1029500097FFD0CF1092C002CDCF8C3D19F419163D
:10296000CCF3C8CF9FE2980F983090F4815D990B1B
:1029700021E030E0B90102C0660F771F8A95E2F7C7
:10298000CB0180959091BC0289238093BC02B2CF89
:102990008D3D31F48091BA028E7F8093BA02AACF26
:1029A0008E3D21F48091BA028D7FF7CF8F3D09F0E3
:1029B000A1CF8091BA028B7FF0CF08950E945F195A
:1029C0009C019091BD028091BE02982B21F0309322
:1029D000B7022093B6029091BF028091C002982B5B
:1029E00021F03093B5022093B4028BEB92E00E9469
:1029F000E016089586E0EBEBF2E0DF011D928A9588
:102A0000E9F71092B9021092B8021092BA02089532
:102A1000FC01828181110EC0838181110BC08481F0
:102A2000811108C091E08581811101C090E0892F5A
:102A30008170089581E0FCCFA6E0B0E0E2E2F5E12C
:102A40000C94EE2186E0EBEBF2E0DE0111960190B2
:102A50000D928A95E1F71092BD021092BE0210927B
:102A6000BF021092C0028B819C81892B89F08091DA
:102A7000B6029091B7020E94EE18AC019091B90293
:102A80009923C9F180910A018417150608F440C002
:102A90008D819E81892B91F08091B4029091B50235
:102AA0000E94EE18AC019091B802992309F46AC013
:102AB000809106018417150608F472C0BE016F5F8D
:102AC0007F4F8BEB92E00E943418811105C08BEB95
:102AD00092E00E94081581110E94DE1486E0FE013A
:102AE0003196ABEBB2E001900D928A95E1F7269614
:102AF000E3E00C940A2220910B018AE0289F9001C8
:102B000011242417350720F69F5F9093B90202C065
:102B10009F3FD1F71B81112359F00E9494139FEF1F
:102B200011160CF491E0899F802D11248093BD0231
:102B30001C81112359F00E9494139FEF11160CF47D
:102B400091E0899F802D11248093BE028091BD0267
:102B5000882309F49DCF1091BE02112309F498CF68
:102B60000E948613882351F08093BD02812F0E941A
:102B70008613882329F08093BE028ACF81E0F4CFA8
:102B800081E0F9CF209107018AE0289F900111246C
:102B90002417350708F092CF9F5F9093B80202C0C8
:102BA0009F3FD1F71D81112359F00E94D2139FEF4F
:102BB00011160CF491E0899F802D11248093BF029F
:102BC0001E81112359F00E94D2139FEF11160CF4AD
:102BD00091E0899F802D11248093C0028091BF02D3
:102BE000882309F46BCF1091C002112309F466CF3A
:102BF0000E948613882351F08093BF02812F0E9488
:102C00008613882329F08093C00258CF81E0F4CF47
:102C100081E0F9CF0F931F93CF93DF93C42FD22F6F
:102C2000FC0185818823C9F04093C3020E945F198B
:102C30009093C2028093C10280E28C0F883040F4EE
:102C4000C77081E001C0880FCA95EAF70E94460666
:102C5000DF91CF911F910F9108951091C30214132A
:102C600032C08091C1029091C2020E94EE18883C4D
:102C7000910548F5C0E2CD0F1D17B9F080E2810F34
:102C8000883040F4177081E001C0880F1A95EAF788
:102C90000E944D06C83048F481E09D2F977001C016
:102CA000880F9A95EAF70E944606802F0E943D06FB
:102CB000C83070F6D77081E001C0880FDA95EAF766
:102CC0000E944D06C5CF80E28C0F883008F6C77091
:102CD00081E001C0880FCA95EAF7F2CF0F93DB01BC
:102CE00088519C4787309105A0F5FC01EB55FD4DBF
:102CF0000C94D92106E221EE41EE6AE17CE7CD0198
:102D00000E940A1680E00F91089507E225EE45EE35
:102D10006BE17CE7F4CF06E221EE40EE68E17CE770
:102D2000EECF07E225EE44EE69E17CE7E8CF06E26C
:102D300021EE42EE6CE17CE7E2CF07E225EE46EEC3
:102D40006DE17CE7DCCF08E221E045EE6EE17CE757
:102D5000D6CF15968C91882319F01092C302D3CF49
:102D600081E0D1CF9093C9028093C8020895E09189
:102D7000C802F091C902309729F00190F081E02D4E
:102D80000995089580E008950E94B7160895E0918E
:102D9000C802F091C902309721F00280F381E02D42
:102DA00009950895E091C802F091C902309739F071
:102DB00026E0DC012C930480F581E02D099508952F
:102DC000E091C802F091C902309739F022E0DC01AD
:102DD0002C930680F781E02D09950895A3E0B0E0DB
:102DE000E4EFF6E10C94EF212091C6023091C70286
:102DF00028173907A1F09093C7028093C602E0918B
:102E0000C802F091C902309751F023E029839B83D7
:102E10008A830084F185E02DCE01019609952396E1
:102E2000E2E00C940B22A3E0B0E0E9E1F7E10C94BE
:102E3000EF212091C4023091C50228173907A1F073
:102E40009093C5028093C402E091C802F091C90238
:102E5000309751F024E029839B838A830084F18595
:102E6000E02DCE01019609952396E2E00C940B2209
:102E7000CF93DF93C0910201D091030122960E946B
:102E8000AA18813081F48091D30287FF0CC0C091D1
:102E90000001D091010122969EE180E0915028F43A
:102EA000DF91CF91089596E0F8CF29912223B1F3D5
:102EB0008F5FF4CFCF93C82F811102C080E024C070
:102EC0000E94AA18813011F58091D30287FF1EC09D
:102ED000EC2FE695E695E695EE3180F780910001BE
:102EE00090910101E80FF92FF11D228130E0C770A8
:102EF00081E090E002C0880F991FCA95E2F728236D
:102F0000392381E0232BD1F2CF91089580910201E2
:102F100090910301FC013296089621912C1721F023
:102F2000E817F907D1F7CACF81E0EECF9C01FC0189
:102F300032969FEF80E04191461751F09F3F19F480
:102F4000411101C0982F8F5F8630A9F79F3F09F488
:102F50000895290F311D97FD3A95F901628308956F
:102F6000FC01329608962191261303C0DF011197C8
:102F70001C92E817F907B9F70895E62FE695E6954C
:102F8000E695EE3168F4E80FF92FF11D677021E046
:102F900030E001C0220F6A95EAF78281822B82839A
:102FA0000895E62FE695E695E695EE3170F4E80F84
:102FB000F92FF11D677021E030E001C0220F6A9502
:102FC000EAF720958281282322830895CF93C82F82
:102FD0000E94AA186C2F813061F48091D30287FF80
:102FE00008C080910001909101010E94BD17CF910E
:102FF000089580910201909103010E949617F7CFE6
:10300000CF93C82F0E94AA186C2F813061F4809151
:10301000D30287FF08C080910001909101010E94B6
:10302000D117CF91089580910201909103010E94E0
:10303000B017F7CF0E94AA18813079F48091D3029B
:1030400087FF0BC0E0910001F091010132968EE103
:10305000DF011D928A95E9F70895E0910201F09150
:103060000301329686E0F4CFDC01FB0111969C91BE
:1030700011978181981322C012968C911297882300
:1030800019F0928189131AC013968C911397882393
:1030900019F09381891312C015968C911597882386
:1030A00019F0958189130AC014969C91992321F0F7
:1030B00081E02481291303C080E001C081E0817098
:1030C000089508950E946118089581110EC081E04D
:1030D00080930F0160910C0170910D0180910E01A0
:1030E00090910F010E946218089582E0F1CF83E071
:1030F00080930F0160910C0170910D0180910E0180
:1031000090910F010E94621808950E946518089519
:1031100081E080930F0160910C0170910D0180910D
:103120000E0190910F010E94621808950E94881864
:10313000089591E0811101C090E090930E0160919B
:103140000C0170910D0180910E0190910F010E9470
:103150006218089580910E01089580930D01609189
:103160000C0170910D0180910E0190910F010E9450
:103170006218089580910D01089580930C0160916B
:103180000C0170910D0180910E0190910F010E9430
:103190006218089580910C010895089508950E9481
:1031A000CE180895089508950E94CD180895CF93DC
:1031B0000E94D2180E947C020E94D318C0E08C2F7B
:1031C0000E942702672B682B692B31F4CF5FC53033
:1031D000B1F780E0CF91089581E0FCCFCF93DF93EA
:1031E000EC010E945F198C1B9D0BDF91CF9108951C
:1031F00085B7806885BF85B7806885BF08951F92B1
:103200001FB61F9211248F939F93AF93BF9380910A
:10321000CA02811113C08091D5029091D602A0916B
:10322000D702B091D8024196A11DB11D8093D5025D
:103230009093D602A093D702B093D802BF91AF91DA
:103240009F918F911F901FBE1F9018958091DD0256
:10325000843031F10E94B4041092CA0288E190E0F7
:1032600020E40FB6F894A895809360000FBE2093D9
:10327000600083B7817F846083BF83B7816083BF31
:103280007894889583B78E7F83BF0FB6F894A895FE
:1032900080916000886180936000109260000FBE92
:1032A00008950E949B080E94BB04089582E084BD9B
:1032B00093E095BD9AEF97BD80936E0008952FB768
:1032C000F8948091D5029091D602A091D702B09146
:1032D000D8022FBF08952FB7F8946091D50270914E
:1032E000D6028091D7029091D8022FBF089578948A
:1032F0001F921FB61F9211248F939F93AF93BF937A
:103300008091D5029091D602A091D702B091D802B7
:103310000196A11DB11D8093D5029093D602A09372
:10332000D702B093D802BF91AF919F918F911F9018
:103330001FBE1F90189581E08093E00080E280938B
:10334000D8001092C9008FE19EE40197F1F700C008
:10335000000087E090EBDC018093E6029093E702A7
:10336000A093E802B093E90288E19CE00FB6F894DC
:10337000A895809360000FBE90936000FFCF88E116
:103380009CE00FB6F894A895809360000FBE9093D0
:103390006000FFCFEF92FF920F931F93CF93DF93C5
:1033A000182FEB011092BC0084EA8093BC000E94AD
:1033B0005F197C018091BC0087FF27C08091B90014
:1033C000887F883029F08091B900887F803189F525
:1033D0001093BB0084E88093BC000E945F198C01AD
:1033E0008091BC0087FF1EC02091B900287F90E02B
:1033F00080E0283191F081E090E0203411F490E0F9
:1034000080E091958195910908C0C7010E94EE184E
:10341000C817D90778F68EEF9FEFCDB7DEB7E6E095
:103420000C940722C8010E94EE18C817D907C0F6ED
:10343000F2CF8FEF9FEFF1CF1092B9008EE0809323
:10344000B80008950F931F93CF93DF93EB01809300
:10345000BB0084E88093BC000E945F198C018091BE
:10346000BC0087FF11C02091B900287F81E090E067
:10347000283211F490E080E0919581959109DF91D7
:10348000CF911F910F910895CF3FDC0741F3C80101
:103490000E94EE18C817D90710F78EEF9FEFEFCFF5
:1034A0000F931F93CF93DF93EC0184EC8093BC00C8
:1034B0000E945F198C018091BC0087FF08C0809139
:1034C000BB0090E0DF91CF911F910F910895CF3F06
:1034D000DC0789F3C8010E94EE18C817D90758F70E
:1034E0008EEF9FEFEFCF0F931F93CF93DF93EC01FE
:1034F00084E88093BC000E945F198C018091BC001D
:1035000087FF08C08091BB0090E0DF91CF911F91B1
:103510000F910895CF3FDC0789F3C8010E94EE1890
:10352000C817D90758F78EEF9FEFEFCFB0E0A0E0B4
:10353000ECE9FAE10C94E321782E662E6A01E901A8
:103540000E945F195C01EE24E394F12C0431110513
:1035500060F025E0E22EF12C0F3F100731F0C8019A
:1035600064E170E00E94B1217B01B701872D0E94C8
:10357000CA194C0197FF23C00F3F1007B1F3C501D3
:103580000E94EE180817190780F784E98093BC00A1
:10359000C4011816190614F490E080E0CDB7DEB728
:1035A000EEE00C94FF2197FCF0CFC8010E94731A43
:1035B0004C0197FDEACFCC0DDD1D8883E6CFB80125
:1035C000862D0E94221A4C0197FDDFCF689470F877
:1035D0000E945F195C01EE24E394F12C0431110583
:1035E00060F085E0E82EF12C0F3F100731F0C801A4
:1035F00064E170E00E94B1217B01B701872D0E9438
:10360000CA194C0197FF09C00F3F1007B1F3C5015C
:103610000E94EE180817190780F7F12CE12C21976A
:10362000EC16FD0608F0BFCF97FCAFCFC8010E9493
:10363000501A4C0197FD04C0F601EE0DFF1D80836A
:103640008FEFE81AF80AECCF9B01BA019091DD02E6
:103650009430E9F48F708093E9009FEF8091E80047
:10366000915085FD06C085ED8A95F1F70000911116
:10367000F5CF8091E80085FF0AC050E040E0C90125
:103680000E942A1D8091E8008E778093E8000895BB
:1036900043E050E0BC0182E00E94241B089546E014
:1036A00050E0BC0182E00E94241B089540E250E0FB
:1036B000BC0182E00E94241B0895CF93DF93EC01AC
:1036C0000E94AA1848E050E0BE0181E00E94241B3D
:1036D00088E0FE01ABECB2E001900D928A95E1F733
:1036E000DF91CF9108958091DC02811109C00E9481
:1036F000BA1E0E94171F8091E20084608093E2004E
:1037000008951092DC0208950E94881881E00E94BA
:10371000991808956091D90281E0611101C080E09B
:103720000E94771808959091DD0281E0943009F0AD
:1037300080E06091D9020E948518089542E061EC12
:1037400081E00E94361E42E261EC82E00E94361E59
:103750009091DD0281E0943009F080E06091D9021F
:103760000E94651808958091DF02833009F461C0DA
:1037700030F48130D1F1823009F49EC008958A304E
:1037800009F48AC08B3009F46FC0893009F050C049
:103790008091DE02813209F04BC08091E20290916B
:1037A000E302029708F044C08091E800877F80938D
:1037B000E8008091E80082FF37C09091F30080918B
:1037C000F200029731F48091F100813011F08630DF
:1037D00021F48091F1000E94AD188091E8008B7770
:1037E0008093E8000E946A1E23C08091DE02813A25
:1037F000F9F48091E800877F8093E8008091E202ED
:103800009091E302892B61F468E08BEC92E070E028
:103810000E94791D8091E8008B778093E8000895DD
:1038200060E090E080E0F3CF8091DD028111C1CFB4
:1038300008958091DE02813AD9F78091E202909159
:10384000E302892BA9F78091E800877F8093E80045
:103850008091E80080FFFCCF0E94AA188093F100BD
:103860008091E8008E77BCCF8091DE02813201F733
:103870008091E2029091E302892BD1F68091E800D9
:10388000877F8093E8000E946A1E8091E0020E9478
:1038900099180E949B0808958091DE02813241F6BA
:1038A0008091E800877F8093E8000E946A1E8091E3
:1038B000E1020E94BD1808958091DE02813A09F06C
:1038C000B7CF8091E800877F8093E8008091E8007F
:1038D00080FFFCCF0E94CA18C1CF84B7877F84BF06
:1038E0000FB6F894A895809160008861809360007D
:1038F000109260000FBE80E890E00FB6F8948093BD
:103900006100909361000FBE0E94961808950E9476
:10391000BA1E0E94171FE2EEF0E08081846080836F
:1039200078940E949621089580E191E00E94B21659
:1039300008958091DD02853031F48091DD0285307B
:1039400019F00E94511908950E9426190E94D71853
:10395000882399F38091DB02882379F30E94141D58
:103960000E949B08EACF08959A014091E402509189
:10397000E5020E94BC1C0895492F5527433051058C
:1039800019F168F44130510509F444C04230510541
:1039900009F445C090E080E050E040E025C04132AD
:1039A000510549F142325105A9F784E490E043EB17
:1039B00052E061157105C1F086EB90E04DEF51E0EA
:1039C0006130710589F0E6CF99278130910581F04A
:1039D000009729F00297F1F6EEE7F1E002C0ECEA79
:1039E000F1E0849190E0AF01F901518340830895A3
:1039F000E4E9F1E0F6CF89E090E042EC51E06115B6
:103A0000710591F389E090E04BED51E06130710573
:103A100059F3C0CF82E190E04BEE51E0E5CF8BE36C
:103A200090E040EB51E0E0CF80E189BD82E189BDCB
:103A300009B400FEFDCF8091D8008F7D8093D8001F
:103A40008091E00082608093E0008091E00081FD41
:103A5000FCCF0895AF92BF92CF92DF92FF920F9367
:103A60001F93CF93DF936C01EB018A010E94891EA3
:103A7000F82E811123C00115110539F0F80180815C
:103A80009181C81BD90BC80ED91EB12CA12C20972F
:103A9000A9F08091E80085FD22C08091E8008E7732
:103AA0008093E80001151105A1F0F8018081918152
:103AB000A80EB91EB182A08285E0F82E8F2DDF916D
:103AC000CF911F910F91FF90DF90CF90BF90AF905B
:103AD00008950E94891E8823D1F2F82EEFCFF601B7
:103AE00081916F018093F1002197FFEFAF1ABF0A18
:103AF000CECFFC018091E4029091E50286179707F2
:103B0000A0F06115710529F49091E8009E779093DB
:103B1000E80090E06115710551F4911108C08091A1
:103B2000E80082FF34C080E00895BC01F2CF8091AC
:103B3000DD028823C1F18530C1F18091E80083FD69
:103B400030C08091E80082FDEACF8091E80080FFDC
:103B5000E1CF8091F3002091F200382F61157105BB
:103B600019F02830310558F091E02830310509F07E
:103B700090E02091E8002E772093E800CBCF819150
:103B80008093F100615071092F5F3F4FE7CF809123
:103B9000DD02882341F0853041F08091E80083FF09
:103BA000BECF81E0089582E0089583E00895FC018E
:103BB0008091E4029091E50286179707A0F06115C5
:103BC000710529F48091E8008E778093E80090E0F9
:103BD0006115710551F4911108C08091E80082FFD0
:103BE00035C080E00895BC01F2CF8091DD028823CA
:103BF000C9F18530C9F18091E80083FD31C0809121
:103C0000E80082FDEACF8091E80080FFE1CF80915B
:103C1000F3002091F200382F6115710519F028305A
:103C2000310558F091E02830310509F090E080919D
:103C3000E8008E778093E800CBCF84918093F100E9
:103C40003196615071092F5F3F4FE6CF8091DD02C1
:103C5000882341F0853041F08091E80083FFBDCF9B
:103C600081E0089582E0089583E00895982F9730C9
:103C700028F08F708093E90081E008959093E90027
:103C8000242F762F50E0981731F07091EC0020919E
:103C9000ED005091F00021FD02C09F5FE8CF309110
:103CA000EB003E7F3093EB003091ED003D7F309391
:103CB000ED003091EB0031603093EB007093EC003D
:103CC0002093ED005093F0002091EE0027FDE5CF0A
:103CD00080E008958091DE0287FF13C08091E800A4
:103CE00082FF06C08091E8008B778093E80004C0D3
:103CF0008091DD028111F2CF08958091DD02882349
:103D0000D9F38091E80080FFF8CF8091E8008E77AA
:103D1000ECCF2091E4003091E50095E6A9012091D7
:103D2000EC00822F817020FF06C08091E80080FFA8
:103D300006C080E008952091E80022FD1AC080911D
:103D4000DD02882389F0853089F08091EB0085FDC4
:103D50000FC02091E4003091E50042175307F9F2BB
:103D60009150E1F684E0089582E0089583E008959B
:103D700081E008950E94291F0E94311FE0EEF0E0CB
:103D8000808181608083E8EDF0E080818F7780839F
:103D900019BCA7EDB0E08C918E7F8C9380818F7ED3
:103DA00080831092DC0208950F931F93CF93DF93CB
:103DB0000E94291F0E94311FC8EDD0E088818F77B3
:103DC000888388818068888388818F7D888319BCF7
:103DD0001092DD021092D9021092DB021092DA02E8
:103DE00000EE10E0F80180818B7F80838881816004
:103DF000888342E060E080E00E94361EE1EEF0E061
:103E000080818E7F8083E2EEF0E08081816080831C
:103E1000808188608083F80180818E7F80838881A3
:103E200080618883DF91CF911F910F910895E8ED14
:103E3000F0E080818F7E8083E7EDF0E0808181601B
:103E4000808384E082BF81E08093DC020E94D41EE4
:103E50000895E8EDF0E080818E7F80831092E2008B
:103E600008951092DA001092E10008951F920F92C7
:103E70000FB60F9211242F933F934F935F936F933D
:103E80007F938F939F93AF93BF93EF93FF93809113
:103E9000E10082FF0BC08091E20082FF07C08091A9
:103EA000E1008B7F8093E1000E9495218091DA00F0
:103EB00080FF19C08091D80080FF15C08091DA0082
:103EC0008E7F8093DA008091D90080FF96C080E1D8
:103ED00089BD82E189BD09B400FEFDCF81E08093F8
:103EE000DD020E94731B8091E10080FF19C0809168
:103EF000E20080FF15C08091E2008E7F8093E20097
:103F00008091E20080618093E2008091D80080621D
:103F10008093D80019BC85E08093DD020E948A1B43
:103F20008091E10084FF2BC08091E20084FF27C0D4
:103F300080E189BD82E189BD89B5982F917080FFAC
:103F4000FBCF8091D8008F7D8093D8008091E100D5
:103F50008F7E8093E1008091E2008F7E8093E2006B
:103F60008091E20081608093E2008091D9028823F1
:103F700009F449C084E08093DD020E94931B809184
:103F8000E10083FF29C08091E20083FF25C080917A
:103F9000E100877F8093E10082E08093DD02109250
:103FA000D9028091E1008E7F8093E1008091E20050
:103FB0008E7F8093E2008091E20080618093E20036
:103FC00042E060E080E00E94361E8091F000886050
:103FD0008093F0000E94841BFF91EF91BF91AF91FD
:103FE0009F918F917F916F915F914F913F912F9111
:103FF0000F900FBE0F901F90189519BC1092DD0204
:104000000E94811B70CF8091E30087FD93E0909325
:10401000DD02B3CF1F920F920FB60F9211242F9390
:104020003F934F935F936F937F938F939F93AF9340
:10403000BF93CF93DF93EF93FF93D091E900DF70AD
:104040008091EC00C82FC17080FDC0E81092E9009B
:104050008091F000877F8093F00078940E944E203A
:104060001092E9008091F00088608093F000CD2BE1
:10407000CF70C093E900FF91EF91DF91CF91BF9195
:10408000AF919F918F917F916F915F914F913F91F0
:104090002F910F900FBE0F901F901895AAE2B0E0DD
:1040A000E4E5F0E20C94EE218EED92E02091F10037
:1040B000FC012193CF01F2E0863E9F07B9F70E94F1
:1040C000B31B8091E80083FF1EC18091DE029091B6
:1040D000DF029A3008F017C1E92FF0E0E455FD4DFA
:1040E0000C94D921803899F0823809F00CC1809164
:1040F000E2028F70873008F006C18093E90080915A
:10410000EB0085FB882780F91092E90006C08091BA
:10411000DA029091DB02911182609091E800977F22
:104120009093E8008093F1001092F1008091E800F4
:104130008E77E5C0882309F4D3C0823009F0E3C04C
:104140008091E0028111D6C08091E2028F702FEF42
:10415000280F263008F0D7C08093E9002091EB00AB
:1041600020FFC8C0933031F48091EB0080628093CF
:10417000EB00C0C09091EB0090619093EB0021E0C8
:1041800030E001C0220F8A95EAF72093EA001092EE
:10419000EA008091EB008860EACF8111B4C01091F1
:1041A000E0021F778091E3008078812B8093E30009
:1041B0008091E800877F8093E8000E946A1E8091CA
:1041C000E80080FFFCCF8091E30080688093E300EB
:1041D00082E0111183E08093DD0295C08058823027
:1041E00008F091C08091E0029091E1028C3D23E0C3
:1041F0009207A1F583E08A838AE289834FB7F89416
:10420000DE01139620E03EE051E2E32FF0E0509310
:104210005700E49120FF03C0E295EF703F5FEF701D
:104220008E2F90E0EA30C0F0C7968D939D932F5F5C
:10423000243159F74FBF8091E800877F8093E800D1
:104240006AE270E0CE0101960E94791D8091E8003B
:104250008B778093E80057C0C096E7CF6091E20269
:104260007091E302AE014F5F5F4F0E94B41CBC012E
:10427000892B09F448C09091E800977F9093E8005B
:1042800089819A810E94D71DE1CF8038E1F5809124
:10429000E800877F8093E8008091D9028093F10045
:1042A00045CF811130C09091E002923060F580914D
:1042B000E800877F8093E8009093D9020E946A1EED
:1042C0008091D902882311F084E005C08091E30039
:1042D00087FDFACF81E08093DD020E949E1B13C010
:1042E0008091E002813079F481E0933009F080E040
:1042F0008093DB021092E9008091E800877F809331
:10430000E8000E946A1E8091E80083FF0AC0809145
:10431000E800877F8093E8008091EB0080628093C3
:10432000EB00AA96E3E00C940A220895CF938091C3
:10433000DD028823A1F0C091E900CF709091EC00DC
:10434000892F817090FD80E8C82B1092E900809140
:10435000E80083FD0E944E20CF70C093E900CF910A
:104360000895AA1BBB1B51E107C0AA1FBB1FA617BC
:10437000B70710F0A61BB70B881F991F5A95A9F70E
:1043800080959095BC01CD01089597FB072E16F4FA
:10439000009407D077FD09D00E94B12107FC05D019
:1043A0003EF4909581959F4F0895709561957F4F4C
:1043B0000895EE0FFF1F0590F491E02D09942F92C0
:1043C0003F924F925F926F927F928F929F92AF92A5
:1043D000BF92CF92DF92EF92FF920F931F93CF93F2
:1043E000DF93CDB7DEB7CA1BDB0B0FB6F894DEBF89
:1043F0000FBECDBF09942A88398848885F846E84AF
:104400007D848C849B84AA84B984C884DF80EE80F8
:10441000FD800C811B81AA81B981CE0FD11D0FB601
:10442000F894DEBF0FBECDBFED010895FB01DC01A6
:1044300004C08D910190801921F441505040C8F77B
:10444000881B990B0895F999FECF92BD81BDF89A0A
:10445000992780B50895A8E1B0E042E050E00C94BF
:104460006722DC01A40FB51F4150504048F0CB013A
:10447000840F951F2E910E94422241505040D0F748
:104480000895262FF999FECF92BD81BDF89A019724
:1044900000B4021639F01FBA20BD0FB6F894FA9A8C
:1044A000F99A0FBE08950396272F0E9442220E9478
:1044B0004122252F0E944222242F0C944222019651
:1044C000272F0E9442220C944122DC01CB01FC01E7
:1044D000F999FECF06C0F2BDE1BDF89A319600B45D
:1044E0000D9241505040B8F70895F894FFCF9506CB
:1044F0009506D306D30637075307C406C4065807E4
:10450000C907D807D807021376130A13D412D81292
:104510000E13DC1212131E13E8126F13EC12221387
:10452000F01226134E13F4122A135513FA123013F5
:104530003813E0121613E4121A13FE123413441344
:104540005E136D13CE1206137D138B1691167A1619
:10455000851697169D16A31672209A2083219A20FD
:0C4560008321CD20EE2083214521512134
:10456C006A028A02280850011E0A14010000010088
:10457C00BA185D1B561B4F1B481BF4F1F0F7F6F5F0
:10458C00FFFFFFFFFFFFFFFFFFFFFFFFFFFFFF36F8
:10459C0035349796E200E900EA00B500B600B700A2
:1045AC00CD008301CC008A019201940121022302E7
:1045BC0024022502260227022A02B300B4006F004F
:1045CC0070009F01CB019F02A002818283E200E96F
:1045DC0000EA00B500B600B700CD008301CC008A1C
:1045EC0001920194012102230224022502260227B2
:1045FC00022A02B300B4006F0070009F01CB019F30
:06460C0002A0028182837E
:00000001FF
