:100000000C9444020C9461020C9461020C94610201
:100010000C9461020C9461020C9461020C946102D4
:100020000C9461020C9461020C946D270C9441288D
:100030000C94A3220C9461020C9461020C94610252
:100040000C9461020C9461020C9461020C946102A4
:100050000C9461020C941B230C9461020C946102B9
:100060000C9461020C9461020C9461020C94610284
:100070000C9461020C9461020C9461020C94610274
:100080000C9461020C9461020C9461020C94610264
:100090000C9461020C9461020C9461020C94610254
:1000A0000C9461020C9461020C94610253005400A0
:1000B000550049005F006000610067005C005D0062
:1000C0005E00570059005A005B0056002152620042
:1000D00063005800010023782478010025782678F1
:1000E000AB00AC0027782878AD00AE007C007D0026
:1000F000B300B20001002078007C01001E0F050053
:10010000047F3F1F643214643214783C1E1E140AAC
:10011000052223252628292A2C2D2F303233353647
:10012000383A3B3D3E4042434547494A4C4E505188
:10013000535557595A5C5E6062646668696B6D6FAF
:1001400071737577797B7D7F81838587898A8C8EB2
:1001500090929496989A9C9E9FA1A3A5A7A8AAACBA
:10016000AEAFB1B3B4B6B8B9BBBCBEBFC1C2C3C5F4
:10017000C6C7C9CACBCCCDCED0D1D2D2D3D4D5D696
:10018000D7D7D8D9D9DADADBDBDBDCDCDCDCDCDDC9
:10019000DDDDDDDCDCDCDCDCDBDBDBDADAD9D9D8AD
:1001A000D7D7D6D5D4D3D2D2D1D0CECDCCCBCAC945
:1001B000C7C6C5C3C2C1BFBEBCBBB9B8B6B4B3B174
:1001C000AFAEACAAA8A7A5A3A19F9E9C9A9896940F
:1001D00092908E8C8A89878583817F7D7B797775E4
:1001E00073716F6D6B6968666462605E5C5A5957C3
:1001F000555351504E4C4A4947454342403E3D3B82
:100200003A3836353332302F2D2C2A29282625230B
:1002100022FFAA7F554000010101010101010101F6
:1002200002020202020202020203030303030303A7
:100230000304040404040404050505050506060674
:100240000606070707070708080808090909090A31
:100250000A0A0B0B0B0C0C0C0D0D0D0E0E0E0F0FD6
:100260000F10101111111212131314141515161664
:100270001717181819191A1A1B1B1C1D1D1E1E1FD3
:100280002020212222232424252626272829292A22
:100290002B2C2D2D2E2F303132323334353637384A
:1002A000393A3B3C3D3E3F40414243444546474846
:1002B000494A4C4D4E4F50515354555658595A5B1C
:1002C0005D5E5F616264656668696B6C6D6F7072BC
:1002D000737577787A7B7D7E8082838587888A8C28
:1002E0008E8F91939596989A9C9EA0A2A3A5A7A95C
:1002F000ABADAFB1B3B5B7BABCBEC0C2C4C6C9CB53
:10030000CDCFD1D4D6D8DBDDDFE2E4E7E9EBEEF008
:10031000F3F5F8FAFDFF10035200410052005400BB
:100320005000410044000000120341006C006100D5
:100330006200610068007500790000000403090490
:1003400009023B00020100A0FA09040000010301B8
:100350000100092111010001224400070581030861
:10036000000109040100010300000009211101003E
:100370000122B600070582032000011201000200DD
:100380000000084C41500001000102000105010974
:1003900002A10185020901A1000509190129081519
:1003A0000025019508750181020501093009311503
:1003B00081257F95027508810609381581257F956D
:1003C0000175088106050C0A38021581257F950103
:1003D00075088106C0C005010980A10185031901C6
:1003E0002AB700150126B700950175108100C005D8
:1003F0000C0901A101850419012AA002150126A0FA
:1004000002950175108100C005010906A10185064C
:10041000050719E029E715002501950875018102F6
:100420000507190029EF1500250195F075018102D6
:1004300005081901290595057501910295017503B6
:100440009101C005010906A101050719E029E71579
:100450000025019508750181029501750881010546
:1004600007190029FF150026FF0095067508810071
:100470000508190129051500250195057501910249
:10048000950175039101C00011241FBECFEFDAE082
:10049000DEBFCDBF11E0A0E0B1E0E4E6F8E502C0C8
:1004A00005900D92A43FB107D9F723E0A4EFB1E086
:1004B00001C01D92A134B207E1F70E9488120C948A
:1004C000E62B0C940000811108C089EA611101C07B
:1004D0008AEA0E945C0581E008958130E1F78AEDA7
:1004E0006111F7CF89EDF5CF8230C0F46530B0F4FB
:1004F0004430A0F4E62FF0E095E0899FE00DF11D77
:100500001124EE0FFF1FEE0FFF1FE40FF11DEE0F82
:10051000FF1FE455FF4F85919491089581E090E08D
:1005200008950E947402089581E008950E94940243
:1005300008950E949402089581E008950E94940213
:1005400008950E94940208950E94A10208950895BA
:1005500008950E94A702089508950895A6E0B0E0C6
:10056000E4EBF2E00C94922A49835A839E83309103
:10057000FB0189819A8131111AC03E81332399F0A0
:10058000222389F00E940809182F682F89819A81F7
:100590000E94E50869817A81812F0E943B1026968E
:1005A000E3E00C94AE2A0E94F608182FF3CF0E94C5
:1005B000080969817A81F1CFFC01262F40815181A0
:1005C00062817381848195810E94AE020895CF93E8
:1005D000DF93EC0161E00E94DC02BE010E94960202
:1005E000882359F061E0CE010E94DC02BE010E9426
:1005F00099028170DF91CF91089580E0FACF0F9337
:100600001F93CF93DF93EC0160E00E94DC028C012A
:10061000BE010E94A802BE01C8010E94A902DF918A
:10062000CF911F910F91089521E030E0A90102C000
:10063000440F551F8A95E2F7CA010E9407080895E2
:10064000CF93C82F81E090E00C2E02C0880F991F35
:100650000A94E2F70E94740D8C2F0E941403CF912C
:10066000089581E008950E94310308950E943103A6
:100670000895CF93C82F0E94BA078C2F0E9433038E
:100680008C2F0E9436032FEF84E39CE021508040A2
:100690009040E1F700C00000CF91089581E00E94F2
:1006A00039030E943F23089580E00E9439030E948D
:1006B000502308950F931F93CF93DF938C0161E034
:1006C0000E94DC02EC01F801858181110E94461A2A
:1006D000B801CE010E949E02811106C080E0DF9128
:1006E000CF911F910F910895B801CE010E94A402ED
:1006F0008823A1F3B801CE010E941520882371F34D
:10070000B801CE010E94511C882341F3B801CE01EB
:100710000E94271C882311F3B801CE010E94A21267
:100720008823E1F2B801CE010E943F118823B1F283
:10073000F8018581882361F0C330FCE7DF07E9F029
:1007400058F4C115ECE7DE07A9F0C130DC47B9F079
:10075000C8010E949C02C3CFCB358CE7D807A9F013
:10076000CC35ECE7DE0771F0CA35DC4789F70E942B
:100770004F0DEECF0E944E03B1CF0E94570D0E9445
:100780005403ACCF0E94450DE3CF0E94530DE0CF40
:100790000E94AC020E9476220E94F7030E94A918D0
:1007A00008950E94FB030E949D190E94AD020E94C1
:1007B0007B22089581E0089581FF02C05F9A089529
:1007C0005F980895CF93DF93D82F0E94DA03C82F44
:1007D000882319F08D2F0E94DC038C2FDF91CF919D
:1007E0000895579A5F9808950E94E203089580E063
:1007F0000E94F40308950E945E200E94F40308956D
:10080000CF930E945E20C82F8091F6018C1779F05B
:10081000C093F6010E940F236093F7017093F801D3
:100820008093F9019093FA018C2F0E94F403CF91E9
:100830000895ADE0B0E0EFE1F4E00C94932A48872E
:1008400059876A877B878C879D8791110E94550CF9
:100850001F8286E0FE013896DE01119601900D920E
:100860008A95E1F78D8181110DC029813A814B81F3
:100870005C816D817E818F810E949F0B2D96E2E0CD
:100880000C94AF2ACE0101960E94E7028111EDCFB0
:10089000F5CFFC012481213021F4808191810E94D7
:1008A0003A090895662329F00E94B21D0E94851E10
:1008B00008950E940C1EFACFCF93C82F8823C9F049
:1008C0008238C9F40E946B2081FD13C089E30E9425
:1008D0008D210E94E90C2FEF87EE93E0215080409C
:1008E0009040E1F700C0000089E30E94A7210E9428
:1008F000E90CCF9108958338A1F40E946B2080FD0C
:10090000F8CF83E50E948D210E94E90C2FEF81EE44
:1009100094E0215080409040E1F700C0000083E562
:10092000E4CF8438A1F40E946B2082FDE2CF87E4FB
:100930000E948D210E94E90C2FEF81EE94E021505E
:1009400080409040E1F700C0000087E4CECF8CEFFC
:100950008C0F813A70F48C2F0E940121882329F09A
:100960008C2F0E94A7210E94E90C8C2F0E948D21C0
:10097000BECF80E28C0F883048F4C77081E001C0A0
:10098000880FCA95EAF70E94380CB1CFEBE5EC0F5F
:10099000E33040F4F0E0E959FE4F808190E00E949E
:1009A0009520A7CFE8E5EC0FEB3150F4F0E0EE0F27
:1009B000FF1FEF5CFE4F808191810E94BA2099CF8A
:1009C00083E38C0F833108F094CF61E08C2F0E9479
:1009D00052048FCF882309F456C0823879F40E94DC
:1009E0006B2081FF50C089E30E948D210E94E90C99
:1009F00089E30E94A7210E94E90C0895833859F4E5
:100A00000E946B2080FF3FC083E50E948D210E94E1
:100A1000E90C83E5EECF843859F40E946B2082FF05
:100A200032C087E40E948D210E94E90C87E4E1CF67
:100A30009CEF980F913AE8F290E2980F983050F4BA
:100A4000877091E001C0990F8A95EAF7892F0E947B
:100A50003E0CD1CF9BE5980F933028F490E080E0D6
:100A60000E949520089598E5980F9B3128F490E016
:100A700080E00E94BA20089593E3980F933118F410
:100A800060E00E94520408951F93CF93DF93182FC4
:100A9000EB010E945C04209739F4812F0E94EA0444
:100AA000DF91CF911F9108958FE99FE00197F1F7B2
:100AB00000C000002197EFCF70E060E0893311F4AF
:100AC00060E570E00E9444050895882321F00E94AB
:100AD000380C0E94E90C0895882321F00E943E0CF6
:100AE0000E94E90C0895B0E0A0E0E9E7F5E00C947D
:100AF0008C2A6C01D62FC72FFC0115810681029527
:100B00000F700E942E0CE82E8823F9F0E12E11239D
:100B1000E1F08C2F807F803461F080E28D0F88308F
:100B200008F18C2F807E803221F4D230D8F000235F
:100B3000C9F080910E0382FF15C082E00E94190D5A
:100B40000E942E0C91E0E82EE926BC2EB2949FE084
:100B5000B922FBE0FB15B8F1EB2DF0E0E851F44DC4
:100B60000C944C2AE12CF1CF0C2F0F70C07F11F0A8
:100B70000295007F112399F0002359F080E28D0F38
:100B8000883010F0D11107C0802F0E94380C0E94CD
:100B9000E90C8D2F48C0802F0E94480CF8CF8D2F74
:100BA0000E94EA04002379F080E28D0F883010F073
:100BB000D11104C0802F0E943E0C03C0802F0E94E0
:100BC0004E0C0E94E90CEB2DE850FF0B349708F017
:100BD0006BC10E945E200E94F403CDB7DEB7E9E04E
:100BE0000C94A82A2C2F2F70F22EC07FC03219F03F
:100BF000F29480EFF822DD2341F0D130C9F11123C6
:100C000009F443C00023E9F0C4CF80910E0382FDB4
:100C100014C0112359F0FF2029F08F2D0E94380CA9
:100C20000E94E90C80E00E945C04CDCF80E00E942D
:100C3000EA04FF2041F28F2DBECF112369F001118C
:100C400004C08F2D0E946505BECF013009F0BBCFD7
:100C50008F2D0E946C0CB7CF0111B5CF8F2D0E9444
:100C60006C058F2D0E94780C8F2D0E945C0CABCFF1
:100C7000112321F0063008F0A6CFE3CF053008F0AD
:100C8000A2CF8F2D0E946C059ECF0023D1F3D933C4
:100C900049F43FEF87EE93E0315080409040E1F718
:100CA00000C000008D2F0E94EA048DCF8C2F869506
:100CB0008695837069F0813009F085CF8D2F9C2F48
:100CC0009370111102C080E090E00E94BA207BCFA7
:100CD0008D2F9C2F9370111102C080E090E00E9434
:100CE000952071CF612F8D2F0E9452046CCF8C2FD5
:100CF0008370A1F5111167CF4D2F4295469547702E
:100D0000440F440F2D2F2F7030E0042E02C0220F0D
:100D1000331F0A94E2F790E080E0D4FF09C08FE02F
:100D200090E002C0880F991F4A95E2F78095909550
:100D3000C695C695C370822B932BC23049F058F4E8
:100D4000C13019F00E9413083ECF0E940A083BCF21
:100D50000E941C0838CF0E94070835CF86951123C2
:100D600011F08C2F8170882309F42DCF4D2F4295DF
:100D700046954770440F440F2D2F2F7030E0042EFE
:100D800002C0220F331F0A94E2F790E080E0D4FF04
:100D900009C08FE090E002C0880F991F4A95E2F7E2
:100DA00080959095C695C695C370822B932BC230C3
:100DB00049F058F4C13019F00E947E0804CF0E9417
:100DC000750801CF0E948708FECE0E942B08FBCE3B
:100DD000CF70112329F08C2F0E9443088D2F32CF22
:100DE0008D2F0E946C058C2F0E945308ECCED23FB1
:100DF00041F160F4D03FB9F0D13F81F0112309F403
:100E000043C00111C6CE8C2F8F711FC0D33F01F19B
:100E1000D43FA1F780910E0382FD24C08C2F8F71E7
:100E2000112311F312C0112341F0053008F0CBCE8D
:100E30008C2F8F710E946508C6CE063008F0C3CE95
:100E4000F7CF8C2F8F711111CFCF0E944308BBCEEB
:100E5000112329F08C2F8F710E943708B4CE0E9485
:100E60003208B1CE112331F063E08C2F8F710E94D4
:100E7000FB0CA9CE81E00E94190D023008F4A3CE2C
:100E800082E00E94190D9FCE002359F0D93309F05A
:100E900009CFEFEFF7EE23E0E150F0402040E1F71B
:100EA000FFCE8C2F8F71A0CFEE2009F496CE0E943A
:100EB0002A0C80FD92CEF60115820E94240C0E941D
:100EC0004308C6010E9481070E94240C0E94530817
:100ED00084CE0F931F93CF93DF93EC0168817981C8
:100EE0008D810E9445098C010E9490080E9406088D
:100EF000B801CE010E947305DF91CF911F910F9130
:100F00000895CF93DF93EC018C81882399F0CE0173
:100F10000E945A03811111C00E942E0C882351F0A7
:100F20008D81882339F080910E0382FF03C082E017
:100F30000E94190DDF91CF910895CE010E9469079B
:100F4000CE010E94FF02F6CF90E080E00E94952043
:100F500090E080E00E94BA200E94550C0E94E90CAB
:100F60000E94A11E0E94851E08950E94C1210E9418
:100F7000A40708950E94450C0E94B5070895929514
:100F80009F70963091F058F4925F9F70923058F4B1
:100F9000803F19F030F4883E30F481E008959A5F84
:100FA000F4CF843FD1F380E00895883EB0F3813FD1
:100FB000D1F7F3CFFC012481222339F08081918184
:100FC0000E943A090E94BF07089580E00895A6E0B4
:100FD000B0E0EDEEF7E00C94932A2696E2E00C9454
:100FE000AF2AA7E0B0E0E7EFF7E00C94932A27964A
:100FF000E2E00C94AF2A08950E94FB0708950E9436
:10100000FC0790930B0280930A02089508950E94B2
:10101000FF07089520910A0230910B02822B932B37
:101020000E94FF07089520910A0230910B0282234B
:1010300093230E94FF07089520910A0230910B022A
:10104000822793270E94FF0708950E94FB070895B7
:101050000E94250808950E94280890930902809311
:101060000802089590E080E00E942B08089521E096
:1010700030E0A90102C0440F551F8A95E2F7CA016A
:101080000E942B08089521E030E002C0220F331F98
:101090008A95E2F78091080290910902822B932BA6
:1010A0000E942B08089521E030E002C0220F331F78
:1010B0008A95E2F720953095809108029091090277
:1010C000822393230E942B08089521E030E002C080
:1010D000220F331F8A95E2F780910802909109024E
:1010E000822793270E942B080895209108023091AF
:1010F0000902822B932B0E942B080895209108024D
:1011000030910902822393230E942B080895209195
:10111000080230910902822793270E942B08089524
:101120000895262F277091E001C0990F2A95EAF7BC
:1011300023E0769567952A95E1F7660F771F660F8E
:10114000771FFA01E60FF71F50E040E0682F70E0CC
:101150008191DF0111979B01042E02C036952795DE
:101160000A94E2F7217021952827292328272C9318
:101170004F5F5F4F4430510559F70895A82FA7706E
:1011800023E0969587952A95E1F7880F991F880F98
:10119000991FFB01E80FF91F50E040E080E021912A
:1011A00030E00A2E02C0369527950A94E2F72170A6
:1011B0003327042E01C0220F0A94EAF7822B4F5FD7
:1011C0005F4F4430510559F70895262F953068F444
:1011D000843058F434E0939FB0011124680F711DDE
:1011E0004CEF51E0822F0E9491080895953070F4E1
:1011F000843060F444E0949F900111246CEF71E01E
:10120000820F932F911D0E94BE08089580E00895DB
:10121000B0E0A0E0EEE0F9E00C948C2A7C010091B3
:1012200008021091090280910A0290910B02082B8A
:10123000192BCFE0D0E0CC24C394D12CBC2EC60116
:101240000C2E02C0880F991F0A94E2F78023912385
:10125000892B49F4219790F7B12C8B2DCDB7DEB7B0
:10126000E9E00C94A82AB7018C2F0E94471001973F
:1012700089F3F3CFCF93DF93EC010E940809BE01FD
:101280000E944710DF91CF9108951F93CF93DF9372
:10129000EB019091FB01992339F0CB010E943A09AF
:1012A000DF91CF911F910895882369F0CB010E94AF
:1012B0000809182F682FCE010E94E508BE01812F72
:1012C0000E944710EDCFCB010E94F608182FF6CFF1
:1012D0001F93CF93DF93C0910C0217E080910D0212
:1012E0008C1304C0DF91CF911F910895D0E01C9F13
:1012F000F0011D9FF00D1124E25FFD4F208131812F
:10130000428153816481758186810E94F107219613
:10131000C770E4CF209146023091470240914802C5
:101320005091490260914A0270914B0280914C02A7
:101330000E94F1070895CF93DF9380914C02807F44
:1013400009F04DC080914B02882309F448C0E09118
:101350000C0250910D02C0914702D091460260915B
:1013600048027091490247E05E17C9F18E2F90E064
:10137000E49FF0011124E25FFD4F2481222391F1CB
:10138000489FF001499FF00D1124DF01A25FBD4F7E
:1013900011962C9111972C1325C02C912D1322C03E
:1013A00015962C91159721111DC012962D913C91E7
:1013B000261B370B283C3105A8F480914C028F7016
:1013C000806180934C02EC5EFD4F80818F70806164
:1013D000808386E492E00E9481070E946809DF9181
:1013E000CF910895FC013196E770BECF482F209130
:1013F0000C0290910D0257E0291302C080E008957D
:1014000030E0529FF001539FF00D1124E25FFD4F39
:101410008181681306C08081481303C085818111D2
:10142000EECF2F5F3F4F2770E7CFA4E1B0E0EBE1B5
:10143000FAE00C94892A8C0186E0F801DE011F96FF
:1014400001900D928A95E1F7F8018481E58096E498
:10145000A92E92E0B92E90914A0291111FC08823C3
:10146000D1F0EE20A9F0C8010E94DA07F82E8823F7
:1014700079F087E0F801D50101900D928A95E1F7A6
:10148000C5010E9449040E949B090E948A095FC00D
:10149000C8010E948107FF24F39459C0C080D18005
:1014A00082809380F0904B02209148023091490253
:1014B000A401421B530BFF2009F4F9C0483C51051D
:1014C00008F0A7C0882309F442C090914702809198
:1014D0004C02282F207F09F05CC09D1116C090910E
:1014E0004602C91212C0E1104EC08F708061809315
:1014F0004C020E948A0986E492E00E948107809152
:101500004C02F8018683F12C22C0E1103CC06D2D05
:101510008C2D0E94F6096D2D8C2D0E94F609E82E67
:101520008111F1CFCF86D88A8F8598890E943A0998
:10153000292F22952F70243078F49F702230A8F044
:101540009923B9F0F8019681907F99F4FE2C8F2DA4
:101550006496ECE00C94A52A2A5F2F70223068F084
:10156000C8010E948107EF2CF1CF992311F0882345
:1015700069F3805E883050F3F3CF803F38F3815FAA
:10158000833070F7E3CF80914C02816080934C02EE
:10159000BACF9D1113C090914602C9120FC0E1103D
:1015A0000DC08683C8010E94810787E0F801A6E488
:1015B000B2E001900D928A95E1F767CFC8010E94D1
:1015C000DA07882309F464CFEE2009F461CF809113
:1015D0004C02803288F020914602309147023987D0
:1015E00028879B868A8690914A029C871D868E87D3
:1015F000CE0108960E94810787E0F801A6E4B2E0D8
:1016000001900D928A95E1F70E949B090E948A0938
:1016100042CF90914C02292F207FA1F4682D9A8A05
:10162000898AA6017A899E2D0E94E70786E492E0C6
:101630000E94810787E0F50111928A95E9F70E94DF
:101640008A0961CF882309F482CF809147028D11E6
:1016500010C080914602C8120CC0E1100AC09683E7
:10166000C8010E94810787E0F50111928A95E9F788
:101670006ECFC8010E94DA07882309F409CFEE2053
:1016800009F406CF80914C02803208F4B5CF209146
:101690004602309147023A8329839C828B82909143
:1016A0004A029D831E828F83CE010196A3CF483CC0
:1016B0005105B8F5882309F4EECEFE2CEE2009F48E
:1016C000E7CE809147028D111EC080914602C8125C
:1016D0001AC080914C0280FD0DC0982F907F51F070
:1016E0008683903F09F45ECF982F907F905F8F7034
:1016F000892B57CF87E0F801A6E4B2E001900D9264
:101700008A95E1F724CFC8010E94DA07811174CFCE
:1017100080914C02816080934C02C8010E94810735
:1017200016CF682D9A8A898AA6017A899E2D0E94F1
:10173000E70787E0F50111928A95E9F7A6CEAEE0BA
:10174000B0E0E5EAFBE00C94922A288739874A87C3
:101750005B876C877D878E87CE0108960E94150A6D
:101760008823B1F06C85662341F0288539854A8548
:101770005B857D858E850E94F10717E080910C02C4
:1017800090910D0289133DC02E96E3E00C94AE2A91
:1017900087E0FE013896DE01119601900D928A9540
:1017A000E1F78C85882349F320910D0230E0C901CF
:1017B00001968770992740910C024817190699F0F5
:1017C00097E0929FD001939FB00D1124A25FBD4F6F
:1017D000FE01319601900D929A95E1F780930D02EA
:1017E0000E946809CACF0E94BA0710920D02109297
:1017F0000C0287E0E6E4F2E0DF011D928A95E9F74A
:10180000BCCF819FC0011124825F9D4F0E94150AA9
:10181000882309F4B9CFE0910C021E9FF001112436
:10182000E25FFD4F20813181428153816481758166
:1018300086810E94F10780910C0290E001968770EA
:10184000992780930C029ACF809175028695869590
:10185000869508958091750287700895909175021C
:10186000977081E009F480E008958091A1020895C5
:101870009091A102892B8093A10208958095909167
:10188000A10298239093A10208951092A1020895B5
:101890009091A002892B8093A00208958095909149
:1018A000A00298239093A00208951092A002089598
:1018B00008950E94580C089590917602292F2823AC
:1018C00031F080958923809376020E94590C089507
:1018D00008950E94680C089590917702292F28237B
:1018E000281729F0982B909377020E94690C08958D
:1018F00090917702292F282331F0809589238093B6
:1019000077020E94690C089580917702882329F05C
:101910001092770280E00E94690C0895CF93C091E5
:10192000A1028091A002C82B80917702882331F018
:10193000C82B0E94DF2081110E94840C8C2FCF9134
:101940000895CF93DF93C0910601D09107010E94C3
:101950008E0C8883C0910601D091070148E050E0C9
:101960006DE672E0CE010E94592B892B59F088E078
:10197000FE01ADE6B2E001900D928A95E1F7CE014D
:101980000E946E20DF91CF910895CF93DF93C09195
:101990000401D09105010E948E0C8983C09104013D
:1019A000D091050140E250E06DE472E0CE010E946A
:1019B000592B892B59F080E2FE01ADE4B2E0019091
:1019C0000D928A95E1F7CE010E947920DF91CF91A7
:1019D00008950E945122813039F480910D0387FFD0
:1019E00003C00E94C50C08950E94A10C089508959B
:1019F0000E94F70C089590910E0392FF11C098E099
:101A0000899F90011124622B609375020E94430804
:101A1000809175028695869586950E94F80C0895AA
:101A20000E94430808951092750280E00E94F80C0D
:101A30000895909175028095892380937502282FCF
:101A4000277069F4891759F090910E0392FF07C02F
:101A50008695869586950E9453080E94130D0895D9
:101A600090910E0392FB222720F9281769F080FB42
:101A700092F990930E0380910D0390910E030E94B2
:101A80007F0D82E00E94190D089580910E0382FB64
:101A9000882780F991E089270E94300D089581E020
:101AA0000E94300D089580E00E94300D08956FEF80
:101AB0007FEF90E080E00E94B12B089590E080E0FD
:101AC0000E947D2B21E0853E9E4F09F020E0822F71
:101AD000089582E090E00E946F2B089583E090E0EB
:101AE0000E946F2B90E00895682F83E090E00E94A1
:101AF000932B089584E090E00E947D2B0895BC0113
:101B000084E090E00E94B12B0895AB01BC018FE00E
:101B100090E00E94A52B0895AB01BC0183E190E009
:101B20000E94A52B089560E070E0CB010E948C0D0F
:101B3000089560E070E0CB010E94850D0E94930D36
:101B40000895A8E0B0E0E7EAFDE00C94932A65EE82
:101B50007EEF90E080E00E94B12B60E082E090E0B8
:101B60000E94932B81E090E090930B0280930A02F5
:101B70000E94740D60E074E184E090E00E94B12B5B
:101B800060E086E090E00E94932B60E087E090E0C8
:101B90000E94932B40E050E0BA0188E090E00E9460
:101BA000A52B60E083E290E00E94932B60E08CE044
:101BB00090E00E94932B60E08DE090E00E94932BD8
:101BC00019821A821B821C821D821E821F82188625
:101BD00048E050E067E170E0CE0101960E94832B5F
:101BE00040E050E0BA018FE190E00E94A52B0E94F6
:101BF000990D2896E2E00C94AF2A0E94A10D089559
:101C0000682F8EE090E00E94932B0895A6E0B0E04C
:101C1000ECE0FEE00C94912A0E9403238C01809159
:101C2000A2029091A3028017910781F019821A8273
:101C30000E940323682F49815A81792F80E090E028
:101C40000E9419041093A3020093A2022696E4E0D6
:101C50000C94AD2A0E940F236093B1027093B202DC
:101C60008093B3029093B4026093AD027093AE027E
:101C70008093AF029093B00208950E940F23609367
:101C8000B1027093B2028093B3029093B402609356
:101C9000A9027093AA028093AB029093AC020895BC
:101CA000089508950E94500E089508950E94550EBB
:101CB0000E94520E089508950E945B0E08950895A3
:101CC0000E945F0E0E945C0E08958DE391E10E94D8
:101CD0009D120E94510E0E94560E089581E00895B3
:101CE0000E946E0E08950E946E0E08950895089544
:101CF00008950E94760E0E94770E0E94780E089535
:101D00000E945E0D811102C00E94FD0D0E94690DAE
:101D10008093B5020E947A0D90930E0380930D0379
:101D20000E94241C0E946E0D0E94070880910802E8
:101D3000909109020E94280808950E94FA220E94A8
:101D40004D1A0E94FA110E94800E0E94F1030E9417
:101D500052190E94600E0895A6E0B0E0E2EBFEE0AA
:101D60000C948A2A0E94700E811111C00E94060EE6
:101D70000E94471A0E94C81A81110E943D0E0E94BB
:101D8000C31E0E9400042696EBE00C94A62A0E9433
:101D9000101284EAA82E82E0B82E750110E0F70137
:101DA00001917F01812F0E9459111F5F153009F4A5
:101DB00041C00817A1F38091B50281FD0E945F1117
:101DC0000E94730EC82E10E099249394812F0E94D4
:101DD0005911082FF50181915F01081729F1F12CA4
:101DE000EE24E394D02ED8268D2D8E21A9F0CC2080
:101DF00099F0F9821A830E9403239C838B839D822E
:101E000091E0802F8E2109F490E049815A816B8105
:101E10007C818D810E941904F394EE0CF4E0FF1292
:101E2000E3CFF501319700831F5F153079F60E94EB
:101E30002A0E9ECF0813BFCF99CF1F93CF93DF9366
:101E40000E944C10EC01C11580E5D807F0F5C115D2
:101E500080E4D80708F09CC0C03ED10520F5CD3CF9
:101E6000D10508F082C0C83AD10578F4C53AD10549
:101E700008F073C0C130D10519F1209709F1C430C1
:101E8000D105F0F4D0E0C0E01BC0C33CD105D0F7D1
:101E9000C85AD0E0CC0FDD1FC659DE4F0990D8815B
:101EA000C02DD4640DC0C11580E2D80708F0D1C0A0
:101EB000C11581E0D80708F05AC0C83ED10510F717
:101EC000CE01DF91CF911F910895C03682E5D807EA
:101ED00018F5C03482E5D80708F06BC0C03282E53F
:101EE000D80708F05FC0C11582E5D80708F497C08D
:101EF0002C2F2695269580E2289F900111248C2F67
:101F00008370C1E0D0E002C0CC0FDD1F8A95E2F7FC
:101F1000C22BD32BDD68D4CFC03A82E5D80760F45A
:101F2000C03882E5D80708F459C0CF71D0E0DC2F63
:101F3000CC27C46FD06AC4CFC03C82E5D80708F470
:101F400062C0C03E82E5D80708F09CCFDC2FCC27CA
:101F5000CC27DF71C06FD06AB3CFC55AD0E0C0566E
:101F6000DE4FC881D0E0D064ABCFD065A9CF8D2F34
:101F70000E94EE10182FCE0199270E944C10C12FFD
:101F8000D0E0DC2FCC27CC27DF71C82BD92B98CF02
:101F9000CE0199270E944C10CC27DF70C82BD92B7B
:101FA000D06A8ECFCF71D0E0DC2FCC27C16FD06A42
:101FB00087CF2C2F26952695277080E2289F9001A9
:101FC00011248C2F8370C1E0D0E002C0CC0FDD1F44
:101FD0008A95E2F7C22BD32BDC6872CF2C2F269583
:101FE0002695277080E2289F900111248C2F837002
:101FF000C1E0D0E002C0CC0FDD1F8A95E2F7C22B12
:10200000D32BDA685DCF8C2F8F710E94EE10C82F12
:10201000D0E0DC2FCC27CC27DF71D06251CF8C2FC2
:102020008F710E94EE1055E0D695C7955A95E1F74D
:10203000CF70D0E0DC2FCC27282F30E084FF05C004
:1020400044E0220F331F4A95E1F7C22BD32BD0690E
:1020500037CF8D2F8F710E94EE10182FCE01992748
:102060000E944C10C12FD0E0DC2FCC27CC27DF7191
:10207000C82BD92BD2CF462F753030F4643020F4E2
:10208000672F0E949102089590E080E008950E94D9
:102090003B100E941D0F089582389105B9F1B0F4EC
:1020A0008133910509F47DC048F48932910509F422
:1020B0006DC08A32910509F47BC00895853391057E
:1020C00009F45FC08933910509F10895833E9105B4
:1020D000D9F138F4803E910529F1823E910579F1DC
:1020E0000895863E9105D9F1873E910509F43EC0D9
:1020F000843E910541F520910E0321FF24C080917B
:102100000D0384FD19C087EE90E0089520910D0322
:10211000237009F05AC020910E0323FF14C089E2F6
:1021200090E0089520910D0320FD38C030910E03FA
:1021300030FF09C024FF43C090E080E00895209163
:102140000D0322FDF7CF089520910D0322FD3AC023
:1021500030910E0330FD39C024FFF5CFEDCF209133
:102160000D0323FFF0CF24FDE7CFCDCF20910D034A
:1021700023FD2EC030910E0331FFEECF84EE90E0B0
:10218000089520910D0325FFDECFC9CF20910D03C7
:1021900025FD21C020910E0323FFD5CF89E390E0D8
:1021A000D2CF20910D0326FFCECF8AE290E0089592
:1021B00020910D0326FFC7CF81E390E0089583EEC1
:1021C00090E0089582EE90E0089580EE90E008950A
:1021D00086EE90E0089585E390E0089590910D03D8
:1021E00092FF10C041E0282F2471243009F040E014
:1021F00031E0282F2871283009F030E0431711F022
:102200002CE0822793FF10C041E0282F2471243155
:1022100009F040E031E0282F2871283109F030E042
:10222000431711F02CE0822730910E0330FF10C0CD
:1022300051E0282F2171213009F050E041E0282F92
:102240002871283009F040E0541711F029E0822766
:1022500031FF10C041E0282F2171213109F040E009
:1022600031E0282F2871283109F030E0431711F0B0
:1022700029E0822794FD877E089580E00895CF931A
:102280009C01205E3245C1E02032310538F4FB016B
:10229000C581C11103C08F710E9420038C2FCF9183
:1022A000089508950E945111089508950E945511AE
:1022B0000895E82FF0E0EC5EFC4F808108950895CA
:1022C00080EA8A95F1F7089500C008950E94601190
:1022D0000895F894E82FE295EF70F0E031A1282FEF
:1022E0002F7081E090E001C0880F2A95EAF7982FBF
:1022F0009095932391A392A1892B82A3789408951A
:10230000CF93DF93C7EAD1E089918F3F11F00E940C
:10231000691181E0CC3AD807B9F782E30E946911CC
:1023200081E90E94691182E90E94691183E90E9492
:102330006911DF91CF910895B0E0A0E0E2EAF1E108
:102340000C948D2AEC01D62E062F10E0C801895579
:102350009E4F7C01FC0180818F3F09F444C0F894BA
:10236000E82FE295EF70F0E091A18F7021E030E06E
:1023700001C0220F8A95EAF7892F822B81A382A1BF
:102380002095282322A378940E946411E3EAF1E0C7
:1023900031E0C12C21912F3F59F1A22FA295AF70AE
:1023A000B0E090968C9190E02F7002C09595879543
:1023B0002A95E2F780FD1CC0832FC82A330F81E0E5
:1023C000E73AF80739F7F70180818F3F11F00E9453
:1023D000691161E0C11001C060E08D2D0E9466119D
:1023E000C00FD11FC882CDB7DEB7E8E00C94A92A90
:1023F00080E0E3CF0E94801185E0E4E1F3E0DF01BB
:10240000982F1D929A95E9F7EFE0F3E0DF011D9216
:102410008A95E9F785E00E944B120E9452110895B7
:10242000A5E0B0E0E6E1F2E10C94902A8E010F5FA6
:102430001F4F85E0F80111928A95E9F7F12C6F2D75
:10244000C8010E949C11F394F5E0FF12F8CF45E01B
:1024500050E0B8018FE093E00E94592B21E00097F3
:1024600009F420E0892B41F085E0F801AFE0B3E00A
:1024700001900D928A95E1F745E064E173E08FE009
:1024800093E00E944C12182F0E945611812F25961E
:10249000E5E00C94AC2A0895B0E0A0E0E2E5F2E1BA
:1024A0000C948D2A6C017B01042FC22F222379F01A
:1024B00081E08093B8020E9403239093B702809337
:1024C000B60280E0CDB7DEB7E8E00C94A92AD0913F
:1024D000B802DD23B1F38091B6029091B7020E9459
:1024E0009222059770F310E0A801B601C7010E947F
:1024F000592B892B31F0A801B601C7010E94662B28
:10250000CD2F1092B8028C2FDDCF0E94AC0E089513
:102510000E949C220E94A4240E94650E0E94BE2458
:102520000E949D0E0E94CB240E94D0240E948512FE
:102530000E94EA240E94790EF7CF9093F5018093D0
:10254000F40108950F931F93CF938C01FB01C58174
:10255000CC2309F447C00E94350C8272F801E05286
:10256000F847EB30F10538F4EC50F44D0C944C2A5C
:102570000E944419C0E08C2FCF911F910F910895B4
:10258000882329F00E943219F5CF8823D9F30E94BD
:102590002219F0CF882329F00E94AF15EBCF8823B2
:1025A000D9F30E94A015E6CF882329F00E94D11507
:1025B000E1CF8823D9F30E94C015DCCF882329F00E
:1025C0000E94F315D7CF8823D9F30E94E215D2CF0A
:1025D000882329F00E947214CDCF8823D9F30E945A
:1025E0005214C8CFC1E0C7CFEF92FF920F931F9351
:1025F000CF93DF939B01682F31110EC0442329F044
:10260000E82FF0E0EA5EFD4F6491762F862FCDB77C
:10261000DEB7E6E00C94AB2AC32FD0E0E82FF0E061
:10262000442321F0EA5EFD4FE491F0E046E0249F70
:10263000C00111240FEF10E0B8010E94022AAB0183
:10264000822F90E0880F991F25E5249FB001259FD8
:10265000700D1124861B970B982F990F980FB801B6
:102660006C1B7D0B6E9FD0016F9FB00D7E9FB00DD8
:1026700011248B2F939F90011124232F3327B8010E
:10268000621B730B6E9F90016F9F300D7E9F300D0C
:1026900011247801E91AF108EC9EB001ED9E700D4D
:1026A000FC9E700D1124672F7727061B170B0E9FBA
:1026B000E0010F9FD00D1E9FD00D11247D2F9E2F66
:1026C0004230510599F048F44115510569F0413007
:1026D000510581F07B2F832F07C04430510569F0ED
:1026E00080F046305105B1F7692F91CF9B2F8D2F88
:1026F0007E2FFACF7E2F932FF7CF9D2F7B2F8E2FFC
:10270000F3CF732F9B2FFBCF41E00E94F41208956B
:1027100008950E948413089590910B01291B922F14
:10272000E091D901F091DA01242F462F682F892FEB
:1027300090E009950895CF93DF93762FE901682FF4
:10274000842F0E948913962F672F9E01482F892F6F
:102750000E948C13DF91CF910895413F08F040EF24
:102760000E949B13089580911903982F9C7F61F418
:10277000837084608093190380911C03813F18F05B
:1027800080EF80931C0308958C3AB0F38370886ABD
:10279000F1CFB0E0A0E0EFECF3E10C948D2A88E0FB
:1027A00090E00E94772B6B017C0183E290E00E9415
:1027B0006F2B282F30E040E050E060E070E080E0D8
:1027C00090E000E20E94BA2AB22FA32FF42FE52F47
:1027D000D62FC72F97018601BC29A12BFE295E2F7A
:1027E000532B2B2F3A2F4F2F6D2F7C2FCDB7DEB7CA
:1027F000E8E00C94A92AB0E0A0E0E1E0F4E10C9458
:10280000892A49015A016B017C010E94B31384019A
:10281000A4016A2D7B2D88E090E00E94A52B9401F5
:102820004A2D5B2DB601C70100E20E94D52A622F16
:1028300083E290E00E94932BCDB7DEB7ECE00C94DE
:10284000A52AE9E1F3E085E0808311828FEF82839E
:1028500080EF83831482758125E030E04FEF50EFE5
:1028600060E0868197810E94FB13089590911D037B
:10287000933018F49F5F90931D03882391F020916B
:10288000190330911A0340911B0350911C0360916E
:102890001D0370911E0380911F03909120030E94DD
:1028A000FB13089581E00E943614089590911D0352
:1028B000992319F0915090931D03882391F0209152
:1028C000190330911A0340911B0350911C0360912E
:1028D0001D0370911E0380911F03909120030E949D
:1028E000FB13089581E00E94561408950F931F93DF
:1028F000CF938091190380FF09C0E091DD01F09131
:10290000DE010995CF911F910F910895C0910D019E
:102910000091D9011091DA0180910E01C81768F772
:1029200080910B019C2F981B892F20E040E060E0F4
:1029300090E0F8010995CF5FEFCFEF92FF920F93F0
:102940001F93CF93DF93D82F162F042F8091190355
:1029500080FF0CC0C0910D01E090D901F090DA0128
:1029600080910E01C81738F00E947614CDB7DEB7FB
:10297000E6E00C94AB2A80910B019C2F981B892FC9
:10298000202F412F6D2F90E0F7010995CF5FE8CF01
:10299000762F9091190390FF0DC0413F08F040EF52
:1029A000682F842F0E948413962F672F482F892F1A
:1029B0000E949D140895CF93DF93EC01EC81F0E029
:1029C000EF5EFE4F4491E9E1F3E0628181810E9474
:1029D000C8148C818F5F8C83DF91CF910895CF9342
:1029E000DF93EC01E9E1F3E0438162818C810E9495
:1029F000C8148C818F5F8C83DF91CF910895CF9322
:102A0000DF93EC0140911C039C81892F817090FD24
:102A1000842F692F627091FD642F92FF40E00E9425
:102A20009D148C8190E00196877099278C83DF91AB
:102A3000CF910895B0E0A0E0E0E2F5E10C948E2A99
:102A4000182FF62ED42FE22E9091190390FF32C04A
:102A5000E92FE695E695AE2FB0E0A455BE4F8C91D8
:102A60008093DD029C7F943051F5842F413F08F024
:102A700080EF612F7F2D0E948413962F672F482FA0
:102A8000892F0E949D1410931A03F0921B03D09378
:102A90001C03EE2079F02091190360911D037091C1
:102AA0001E03312F4F2D5D2F80911F039091200326
:102AB0000E94FB13CDB7DEB7E7E00C94AA2A823060
:102AC00019F4D0911C03DFCF863019F410911A034A
:102AD000DACF8930D9F38931B1F6E9518E2F81707F
:102AE000D82EE695F0E0EF5EFD4FC49100E06091D6
:102AF0000F01061718F00E947614C5CF0C9FC00175
:102B0000112470E00E94022A812FD1100CC0860F80
:102B100020910D01200F3327331F4D2F6F2D0E9461
:102B2000AD130F5FE4CF861BF3CFE9E1F3E09181B2
:102B3000282F4381628188E0890F0E941A15089529
:102B400081E00E9495150895E9E1F3E09181282F35
:102B50004381628188EF890F0E941A15089581E0F0
:102B60000E94A4150895E9E1F3E0628128E0620F74
:102B700008F46FEF282F438181810E941A15089570
:102B800081E00E94B3150895E9E1F3E0628128E055
:102B9000621B08F460E0282F438181810E941A158E
:102BA000089581E00E94C4150895E9E1F3E04381AE
:102BB00028E0420F08F44FEF282F628181810E94A4
:102BC0001A15089581E00E94D5150895E9E1F3E012
:102BD000438128E0421B08F440E0282F6281818174
:102BE0000E941A15089581E00E94E615089520E0DC
:102BF0000E941A150895EF92FF921F93CF93DF93CF
:102C0000EC0110E0EE24EA94F12C60910F0116170C
:102C100070F00E9476149A818C8190FF1EC08F5FA5
:102C20008C83DF91CF911F91FF90EF9008952091B9
:102C30000D01210F3327331F70E0C7010E94162AB0
:102C4000962F8C8140911C0360911B03199F800D6E
:102C500011240E94AD131F5FD8CF8150E1CFB0E0A7
:102C6000A0E0E5E3F6E10C948B2AFC018281DFEF22
:102C700080FFD1E0C0E00091D9011091DA0125E098
:102C8000A22E80910F01C81798F00E9476148091AF
:102C9000BA02D13009F050C0811102C080910F01F9
:102CA00081508093BA02CDB7DEB7EAE00C94A72A30
:102CB00080910D0190910B01891B8C0F20E040E069
:102CC00060E090E0F801099594E0E92EF12CB12C38
:102CD000CC2ED12C8091BA028B0D86303CF16A2D1E
:102CE0000E94F429892F082E000C990BC816D906CA
:102CF000B1F420910D012C0D3D2D311D80911C034F
:102D00008E9DA0018F9D500D112455954795559589
:102D1000479560911B0380911A030E94AD13BD0E6D
:102D2000F1E0EF1AF108B1F6CF5FABCF87FFDBCF51
:102D300090910F01890FD7CF90E0019660910F011C
:102D400070E00E94162AADCF0F931F93CF93C091CE
:102D50000D010091D9011091DA0180910E01C8177F
:102D600050F1C0E00091D9011091DA0160910F019A
:102D7000C61770F10E947614209109018091B90262
:102D8000820F8093B90290910A01920F90930A01E9
:102D9000191654F4082E000C990B40910F01415064
:102DA000550B841795071CF0219520930901CF91AD
:102DB0001F910F91089580910B019C2F981B892FD3
:102DC00020E040E060E090E0F8010995CF5FC5CFDA
:102DD000EC2FF0E070E0CF010E94162A20910D0147
:102DE000820F2091B902022E000C330BE217F30779
:102DF000A4F020910A01022E000C330B2E173F077E
:102E000064F0282F30E040911C0360911B038091F7
:102E10001A030E94AD13CF5FA9CF90910B01891BBC
:102E200020E040E060E090E0F8010995F4CFB0E0E8
:102E3000A0E0EDE1F7E10C94892AEC014C81042F2C
:102E400010E09801D8010E945A2A9B01AC010E940F
:102E5000702A4B015C01E0E2F0E0E01BF10BA5E51C
:102E6000B0E0AC019B010E94702A6B017C019F01C4
:102E7000DF010E94522A9B01AC010E947B2A9B0128
:102E8000AC01280D391D4A1D5B1DC701B6010E940A
:102E90002A2AF22E822F90E039E23F1520F143E0FA
:102EA000249F9001112435952795122F109500E04D
:102EB00085E5E82EEF1880910F01081720F10E9498
:102EC00076149C8181E0992319F0903219F48FEFE8
:102ED0008093080180910801890F8C83CDB7DEB7FC
:102EE000ECE00C94A52A25E530E0A901481B590B1C
:102EF000CA019A01220F331F280F391F37FFD3CF82
:102F00002F5F3F4FD0CF8E2D01FD8F2D20910D01D2
:102F1000200F3327331F412F60911B030E94AD13F5
:102F20000F5FC9CF0F931F93CF93DF938C01D0E036
:102F3000C0E090910F019C171D0609F074F40E94E7
:102F40007614F801848190E001968170992784833A
:102F5000DF91CF911F910F910895F8014481209145
:102F60000D012C0F3D2F311D60911B0380911A0321
:102F700096959C171D0649F044F0442341F040917A
:102F80001C030E94AD132196D4CF4423C1F340E02B
:102F9000F8CFB0E0A0E0EFECF7E10C94852AFC015B
:102FA0006280448081E08483E1E1F1E07490E0E9B3
:102FB000F1E0E491C0911C03C695C158D0E0CC0F5C
:102FC000DD1FCD2FDD27812C25E0922EAA24AA9487
:102FD000B12C55245A94E719EE2EF12C80910F0153
:102FE000881638F00E947614CDB7DEB7E0E10C9475
:102FF000A12AC82CD12C82E0861568F09C9CF00197
:103000009D9CF00D1124E554FD4F80911A0380839F
:1030100080911B03818341101CC09C9CF0019D9CEE
:10302000F00D1124E554FD4F1382128220910D0101
:103030002C0D3D2D311D9C9CF0019D9CF00D11240B
:10304000E554FD4F4281618180810E94AD138394DC
:10305000C5CF9C9C80019D9C100D112405541D4FD3
:10306000F80183818823F1F081508383859DC0011D
:103070001124648170E00E94022AFB01FF27EF5EA9
:10308000FE4F8491E82FE719E59DC0011124B70197
:103090000E94022A80911C03689FB0011124F8014C
:1030A0007283C4CF0E943C2BB5010E94162A8C1754
:1030B0009D070CF0BBCFF2E0F61598F40E943C2B74
:1030C000B5010E94162AF80180830E943C2B2091B2
:1030D0001B032695622F70E00E94162A280FF80124
:1030E00021839C9CF0019D9CF00D1124E554FD4F23
:1030F000128280911C03893C58F088EC9C9CF00162
:103100009D9CF00D1124E554FD4F848383838ECF65
:103110008431A0F784E1F2CFE9E1F3E020812E7F52
:1031200020833181428153816481758186819781B9
:103130000E94FB131092DE020E9476140895E9E1CA
:10314000F3E080818E7F80831092DE020E947614ED
:1031500008951092DE028091DB0281110AC081E0A5
:103160008093DB028091190381708093DA020E94C0
:103170009F180895609119036695669570E04BE07D
:1031800050E080E191E00E944C2B892B19F481E002
:103190008093DE020E9403239093D5028093D40291
:1031A00008959091190390FF34C09370811132C03B
:1031B000946090931903662391F020911903309144
:1031C0001A0340911B0350911C0360911D037091E1
:1031D0001E0380911F03909120030E94FB136091B6
:1031E00019036695669570E04BE050E080E191E050
:1031F0000E944C2B892BB1F01092DE0281E080936B
:10320000D70240911C0360911B0380911A030E9416
:10321000F71508958B3210F0986ACBCF880F880F7E
:10322000982BC7CF0E94BA18E9CF682F9091190345
:103230009695969581E0890F8B3208F081E00E9487
:10324000D118089581E00E9415190895682F909172
:103250001903969596958FEF890F09F48AE20E94DB
:10326000D118089581E00E942619089561E00E9416
:10327000D1180895E9E1F3E080818160808386952B
:1032800086950E94361908958091190380FF03C026
:103290000E948C1808950E943A19089560E00E94D7
:1032A000D11808958091DC0281113CC00E94C9139D
:1032B0002093190330931A0340931B0350931C036C
:1032C00060931D0370931E0380931F03909320034C
:1032D0002C7FA1F40E9421140E94C913209319038A
:1032E00030931A0340931B0350931C0360931D03F8
:1032F00070931E0380931F03909320030E94B313C7
:103300001092DE02E091D701F091D80109958091E9
:10331000190380FF04C0869586950E944E1981E0AE
:103320008093DC020895E9E1F3E08081816080838D
:10333000869586950E944E1908951092DB02809121
:10334000DA0281110E9493190E94BA1808950F930E
:103350001F93CF93DF938091DE028823C1F1809188
:10336000DD02E0911903E695E695E81BE093D602AD
:10337000823091F5F0E0E35FFE4FE491CE2FD0E094
:103380000BED14E18091D702882361F01092D702EF
:103390000E9403239093D5028093D4021092D90205
:1033A0001092D8020E940323E091D402F091D5023A
:1033B0008E1B9F0B8F3F9F4750F4EC0FFD1FF09328
:1033C000D502E093D40284ED92E0F8010995DF91F3
:1033D000CF911F910F910895863049F4F0E0E65F98
:1033E000FE4FE491CE2FD0E00FEE14E1CBCF893029
:1033F00051F4E695F0E0E95FFE4FE491CE2FD0E086
:103400000BEF15E1BFCF8F3051F4E695F0E0EC5FA4
:10341000FE4FE491CE2FD0E00FE216E1B3CF85311D
:1034200049F4F0E0EF5FFE4FE491CE2FD0E004EAE4
:1034300016E1A8CFC8E2D0E007E117E1883109F42E
:10344000A1CF833239F4EFEFF0E0C591D4910FEFC3
:1034500014E198CFC4EFD1E002E917E1843209F416
:1034600091CFC0EDD7E008E813E1853209F08ACFAB
:103470008E2F63E00E94E829E92FF0E0E450FF4F2F
:10348000E491CE2FD0E009EC17E17CCF08950E94A3
:10349000A71908950E946E0E0895E0EEF2E088E00C
:1034A000DF011D928A95E9F70E946F1B0895FC01C8
:1034B000228130E02F5F3F4F23703327938181E0DB
:1034C0009217130609F080E008950F931F93CF938E
:1034D000DF93EC01162F042F0E94571A811117C099
:1034E0008A81FE01E80FF11D1F7764816078612BEE
:1034F00000FB67F964838F5F83708A8388818F5FA5
:10350000888381E0DF91CF911F910F91089580E032
:10351000F9CFFC01A38182818A17B1F0AE0FBF2FD2
:10352000B11D14968C9187FB992790F98F77DB0159
:103530008C93DA019C9383818F5F83708383818175
:103540008F5F818381E0089580E00895462F682F82
:1035500080EE92E00E94651A0895AB01BC0180EEF6
:1035600092E00E94891A0895CF93DF93D62F0E948C
:103570006302C82F882341F06AE070E089EAD11124
:1035800001C08AEA0E9444058C2FDF91CF910895F3
:10359000A2E0B0E0EEECFAE10C94912A8091DF0217
:1035A000882351F01092DF028091E2028093E302BF
:1035B0008091E0028093E1020E94AE1B0E944A1AB1
:1035C000182F882389F010E005C069818A810E9444
:1035D000B41A102FBE016F5F7F4FCE0102960E947A
:1035E000AD1A082F8111F1CF812F2296E4E00C94BF
:1035F000AD2A8FE891E00197F1F700C0000008952F
:1036000090E06623E9F081519E4FFC0180818F3F5D
:10361000B1F0E82FE295EF70F0E041A18F7021E06A
:1036200030E0B90102C0660F771F8A95E2F7CB013F
:10363000962F9095942391A392A1892B82A308950C
:103640008F509E4FE2CF90E06623A1F081519E4FB4
:10365000FC0120812F3F89F0E22FE295EF70F0E02E
:1036600080A190E02F7002C0959587952A95E2F78A
:10367000817008958F509E4FEBCF80E0089508959C
:10368000CF93DF93C0E08091E802C81760F00E94FA
:10369000F91AC0E08091E802C81778F00E943F1B39
:1036A000DF91CF91089560E08C2F0E94001B61E0B4
:1036B0008C2F0E94001BCF5FE6CF60E08C2F0E9412
:1036C000231BD82F61E08C2F0E94231BEC2FF0E0EE
:1036D000E551FD4F880F8D2B8083CF5FDBCF82E0DC
:1036E0008093E8020E94401B08951F93CF93DF93BD
:1036F000182FE42FEE0F6E2BC82FD0E0DE01A5515E
:10370000BD4FEC918E2F8370681721F1EE0FEE0FF5
:10371000E62BEC93EF70F0E0E152FE4FC751DD4F26
:1037200080819881890F8883843024F060E0812F24
:103730000E94A61A88818D3F24F461E0812F0E94A7
:10374000A61A8881082E000C990B64E070E00E9494
:10375000162A8883DF91CF911F910895CF93DF932D
:10376000C0E08091E802C81718F0DF91CF9108956A
:1037700061E08C2F0E94231BD82F60E08C2F0E94C9
:10378000231B4D2F682F8C2F0E94751BCF5FE9CF15
:10379000879A0895FC01EE0FFF1FE80FF91FEF5DF8
:1037A000FC4F6183408322830895E1E2F3E081834B
:1037B00060834283339693E0E033F907C1F70895BD
:1037C00031B33F7721B320684FB7F89481E293E09B
:1037D000FC015191CF0168E021BB000000C057FF00
:1037E00031BB550F000000C000C000C031BB00C09D
:1037F0006A9591F7F3E080339F0751F74FBF8FE54C
:1038000094E00197F1F700C0000008950E94570D61
:10381000089580E00E945911817008950E9410124D
:103820002FEF86E791E0215080409040E1F700C003
:1038300000000E9410120E94091C882321F00E949F
:10384000061C0E943F2308950E940E1C0895CF93EA
:10385000DF93EB0186319C4711F50E94350C9D8169
:10386000992399F08A7A91E009F490E09093ED021F
:10387000811109C089E20E948D210E94E90C80E03B
:10388000DF91CF91089585E3F6CF8091ED0281110C
:1038900004C089E20E94A721F0CF85E3FBCF81E03D
:1038A000EFCFCF93DF93EC01FB018581882309F4EF
:1038B000D2C09E0130572332310508F0B2C00E94B9
:1038C0007A0D90930E0380930D03FE01E150F047B3
:1038D000E232F10520F4E150F44D0C944C2A809131
:1038E0000D03816080930D0393C080910E03886067
:1038F00080930E038DC080910D038260F3CF809181
:103900000D038460EFCF80910D038860EBCF809131
:103910000E038160EDCF80910E038260E9CF80912C
:103920000D038061DFCF80910D038062DBCF80913A
:103930000D038064D7CF0E94BA0780910D03806881
:10394000D1CF80910D038C60CDCF80910E03836029
:10395000CFCF80910D038E7FC5CF80910E03877FDF
:10396000C7CF80910D038D7FBDCF80910D038B7FDD
:10397000B9CF80910D03877FB5CF80910E038E7FE5
:10398000B7CF80910E038D7FB3CF80910D038F7ED3
:10399000A9CF80910D038F7DA5CF80910D038F7BE3
:1039A000A1CF0E94BA0780910D038F779BCF8091A2
:1039B0000D03837F97CF80910E038C7F99CF8091E9
:1039C0000D0382FB992790F921E0922790FB82F961
:1039D00090FB83F987CF80910E03982F909591707B
:1039E0008E7F892B90FB81F983CF90910D03892FD6
:1039F0008F7B96FF806476CF0E94BA0790910D036B
:103A0000892F97FB87F980586DCF81E00E94000EC7
:103A100080910D0390910E030E947F0D0E94BA07C2
:103A200080E0DF91CF91089580E0F0CF90910D0379
:103A3000892F8F7E94FF806155CF90910D03892F40
:103A40008E7F90FF81604ECF90910E03892F877FEC
:103A500093FF88604DCF81E0E4CF282F35EB23031F
:103A6000C001112497FF04C080589109892F08953F
:103A700080589F4FFBCF8091F40280FF0DC0609172
:103A8000200170E0660F771F6038710570F56115D1
:103A9000710569F1862F089581FF07C060912001AB
:103AA00084E0689FB0011124EFCF6091200182FD76
:103AB0000AC08091F3028823A9F020911F01609130
:103AC0002001821710F088E0ECCF869FC0011124FE
:103AD00033E0880F991F3A95E1F7622F70E00E945A
:103AE000162AD2CF68E070E0D5CF8FE7089581E045
:103AF00008958091F40280FF0CC060911C0170E079
:103B000075956795759567956115710549F1862FCE
:103B1000089581FF06C060911C0170E0759567955E
:103B2000F3CF60911C0182FD0BC09091F2029923AA
:103B3000A1F060911B0180911C01961738F0682F4D
:103B400070E06038710500F38FE70895899FC00128
:103B5000112470E00E94162AF4CF61E070E0D7CF04
:103B600081E008958D3C31F40E943B1D8195809346
:103B7000F80208958E3C19F40E943B1DF8CF8F3C4B
:103B800031F40E943B1D81958093F7020895803D9A
:103B900019F40E943B1DF8CF893D29F40E94791D3C
:103BA0008093F90208958A3D21F40E94791D819540
:103BB000F7CF8B3D31F40E94791D81958093FA02F5
:103BC00008958C3D19F40E94791DF8CF9FE2980F5B
:103BD000983070F4815D990B21E030E001C0220F34
:103BE0008A95EAF78091F602822B8093F602089577
:103BF0008D3D31F48091F40281608093F402089548
:103C00008E3D21F48091F4028260F7CF8F3DB9F7A9
:103C10008091F4028460F1CF4091F7028D3C59F419
:103C20008091F80287FF0DC01092F80241110BC07D
:103C30001092F30208C08E3C81F48091F8021816AD
:103C40009CF3442381F08091F9029091FA02892B30
:103C500009F05AC01092F20208958F3C49F447FFD0
:103C6000F0CF1092F7028091F8028111ECCFE0CFF3
:103C7000803D19F41416ACF3E4CF9091F902893D1C
:103C800029F41916F4F61092F902DBCF8A3D19F4E3
:103C900097FFD7CFF8CF9091FA028B3D29F497FF89
:103CA000D0CF1092FA02CDCF8C3D19F41916CCF377
:103CB000C8CF9FE2980F983090F4815D990B21E076
:103CC00030E0B90102C0660F771F8A95E2F7CB0199
:103CD00080959091F60289238093F602B2CF8D3DB4
:103CE00031F48091F4028E7F8093F402AACF8E3D4E
:103CF00021F48091F4028D7FF7CF8F3D09F0A1CFA1
:103D00008091F4028B7FF0CF08950E9403239C01E1
:103D10009091F7028091F802982B21F03093F102F4
:103D20002093F0029091F9028091FA02982B21F0F1
:103D30003093EF022093EE0285EF92E00E948720FD
:103D4000089586E0E5EFF2E0DF011D928A95E9F73C
:103D50001092F3021092F2021092F4020895FC0104
:103D6000828181110EC0838181110BC084818111F8
:103D700008C091E08581811101C090E0892F817098
:103D8000089581E0FCCFA6E0B0E0E9ECFEE10C9400
:103D9000922A86E0E5EFF2E0DE01119601900D92A5
:103DA0008A95E1F71092F7021092F8021092F90248
:103DB0001092FA028B819C81892B89F08091F0020C
:103DC0009091F1020E949222AC019091F30299230A
:103DD000C9F1809121018417150608F440C08D8136
:103DE0009E81892B91F08091EE029091EF020E94CA
:103DF0009222AC019091F202992309F46AC0809159
:103E00001D018417150608F472C0BE016F5F7F4F55
:103E100085EF92E00E94DB21811105C085EF92E0E1
:103E20000E94AF1E81110E94851E86E0FE01319620
:103E3000A5EFB2E001900D928A95E1F72696E3E0B6
:103E40000C94AE2A209122018AE0289F900111242F
:103E50002417350720F69F5F9093F30202C09F3F1F
:103E6000D1F71B81112359F00E943B1D9FEF1116C2
:103E70000CF491E0899F802D11248093F7021C811E
:103E8000112359F00E943B1D9FEF11160CF491E095
:103E9000899F802D11248093F8028091F702882356
:103EA00009F49DCF1091F802112309F498CF0E94D4
:103EB0002D1D882351F08093F702812F0E942D1D24
:103EC000882329F08093F8028ACF81E0F4CF81E043
:103ED000F9CF20911E018AE0289F90011124241718
:103EE000350708F092CF9F5F9093F20202C09F3F88
:103EF000D1F71D81112359F00E94791D9FEF1116F2
:103F00000CF491E0899F802D11248093F9021E8189
:103F1000112359F00E94791D9FEF11160CF491E0C6
:103F2000899F802D11248093FA028091F9028823C1
:103F300009F46BCF1091FA02112309F466CF0E94A5
:103F40002D1D882351F08093F902812F0E942D1D91
:103F5000882329F08093FA0258CF81E0F4CF81E0E2
:103F6000F9CF0F931F93CF93DF93C42FD22FFC0170
:103F700085818823C9F04093FD020E94032390931A
:103F8000FC028093FB0280E28C0F883040F4C77003
:103F900081E001C0880FCA95EAF70E946505DF91AC
:103FA000CF911F910F9108951091FD02141332C00B
:103FB0008091FB029091FC020E949222883C910524
:103FC00048F5C0E2CD0F1D17B9F080E2810F8830AF
:103FD00040F4177081E001C0880F1A95EAF70E943B
:103FE0006C05C83048F481E09D2F977001C0880FA0
:103FF0009A95EAF70E946505802F0E945C05C830FB
:1040000070F6D77081E001C0880FDA95EAF70E9458
:104010006C05C5CF80E28C0F883008F6C77081E050
:1040200001C0880FCA95EAF7F2CF0F93DB018851E0
:104030009C4787309105A0F5FC01EF5DF34D0C9492
:104040004C2A06E221EE41EE6AE17CE7CD010E94B6
:10405000B11F80E00F91089507E225EE45EE6BE178
:104060007CE7F4CF06E221EE40EE68E17CE7EECF9C
:1040700007E225EE44EE69E17CE7E8CF06E221EEB7
:1040800042EE6CE17CE7E2CF07E225EE46EE6DE121
:104090007CE7DCCF08E221E045EE6EE17CE7D6CF9D
:1040A00015968C91882319F01092FD02D3CF81E0F0
:1040B000D1CF90930303809302030895E09102030C
:1040C000F0910303309729F00190F081E02D0995DC
:1040D000089580E008950E945E200895E091020313
:1040E000F0910303309721F00280F381E02D0995D0
:1040F0000895E0910203F0910303309739F026E030
:10410000DC012C930480F581E02D09950895E09160
:104110000203F0910303309739F022E0DC012C9385
:104120000680F781E02D09950895A3E0B0E0EBE962
:10413000F0E20C94932A2091000330910103281798
:104140003907A1F09093010380930003E0910203EB
:10415000F0910303309751F023E029839B838A83F6
:104160000084F185E02DCE01019609952396E2E0C9
:104170000C94AF2AA3E0B0E0E0ECF0E20C94932AB8
:104180002091FE023091FF0228173907A1F0909389
:10419000FF028093FE02E0910203F0910303309747
:1041A00051F024E029839B838A830084F185E02DEC
:1041B000CE01019609952396E2E00C94AF2ACF93A5
:1041C000DF93C0910601D091070122960E945122EF
:1041D000813081F480910D0387FF0CC0C0910401F0
:1041E000D091050122969EE180E0915028F4DF9164
:1041F000CF91089596E0F8CF29912223B1F38F5FF4
:10420000F4CFCF93C82F811102C080E024C00E9458
:104210005122813011F580910D0387FF1EC0EC2FD4
:10422000E695E695E695EE3180F780910401909150
:104230000501E80FF92FF11D228130E0C77081E000
:1042400090E002C0880F991FCA95E2F7282339230E
:1042500081E0232BD1F2CF910895809106019091B6
:104260000701FC013296089621912C1721F0E817DE
:10427000F907D1F7CACF81E0EECF9C01FC0132965D
:104280009FEF80E04191461751F09F3F19F4411193
:1042900001C0982F8F5F8630A9F79F3F09F40895DA
:1042A000290F311D97FD3A95F90162830895FC01AC
:1042B000329608962191261303C0DF0111971C92B4
:1042C000E817F907B9F70895E62FE695E695E6951C
:1042D000EE3168F4E80FF92FF11D677021E030E04E
:1042E00001C0220F6A95EAF78281822B82830895AA
:1042F000E62FE695E695E695EE3170F4E80FF92F96
:10430000F11D677021E030E001C0220F6A95EAF7E5
:1043100020958281282322830895CF93C82F0E945D
:1043200051226C2F813061F480910D0387FF08C00A
:1043300080910401909105010E946421CF9108951C
:1043400080910601909107010E943D21F7CFCF9304
:10435000C82F0E9451226C2F813061F480910D038F
:1043600087FF08C080910401909105010E94782187
:10437000CF91089580910601909107010E945721E5
:10438000F7CF0E945122813079F480910D0387FF8D
:104390000BC0E0910401F091050132968EE1DF013E
:1043A0001D928A95E9F70895E0910601F0910701C1
:1043B000329686E0F4CFDC01FB0111969C911197B7
:1043C0008181981322C012968C911297882319F03C
:1043D000928189131AC013968C911397882319F030
:1043E0009381891312C015968C911597882319F023
:1043F000958189130AC014969C91992321F081E03C
:104400002481291303C080E001C081E081700895F8
:1044100008950E940822089581110EC081E08093C2
:1044200026016091230170912401809125019091D2
:1044300026010E940922089582E0F1CF83E0809353
:1044400026016091230170912401809125019091B2
:1044500026010E94092208950E940C22089581E0FD
:1044600080932601609123017091240180912501A0
:10447000909126010E94092208950E942F220895FA
:1044800091E0811101C090E090932501609123019A
:104490007091240180912501909126010E940922AA
:1044A000089580912501089580932401609123014E
:1044B0007091240180912501909126010E9409228A
:1044C0000895809124010895809323016091230130
:1044D0007091240180912501909126010E9409226A
:1044E0000895809123010895089508950E947522EA
:1044F0000895089508950E9474220895CF930E940C
:1045000079220E9410120E947A22C0E08C2F0E9411
:104510005911811105C0CF5FC530C1F7CF91089502
:1045200081E0FCCFCF93DF93EC010E9403238C1B2F
:104530009D0BDF91CF91089585B7806885BF85B7C2
:10454000806885BF08951F921FB61F9211248F9314
:104550009F93AF93BF9380910403811113C0809107
:10456000300390913103A0913203B091330341960F
:10457000A11DB11D8093300390933103A0933203AA
:10458000B0933303BF91AF919F918F911F901FBE46
:104590001F90189580913803843031F10E94C80330
:1045A0001092040388E190E020E40FB6F894A895F7
:1045B000809360000FBE2093600083B7817F84608A
:1045C00083BF83B7816083BF7894889583B78E7FDC
:1045D00083BF0FB6F894A89580916000886180939E
:1045E0006000109260000FBE08950E94BA070E94FA
:1045F000D103089582E084BD93E095BD9AEF97BD05
:1046000080936E0008952FB7F894809130039091B5
:104610003103A0913203B09133032FBF08952FB718
:10462000F89460913003709131038091320390913E
:1046300033032FBF089578941F921FB61F92112441
:104640008F939F93AF93BF938091300390913103E9
:10465000A0913203B09133030196A11DB11D809347
:10466000300390933103A0933203B0933303BF918F
:10467000AF919F918F911F901FBE1F90189587E754
:1046800097E7909301088093000888E19AE00FB6BD
:10469000F894A895809360000FBE90936000FFCFC0
:1046A00088E19AE00FB6F894A895809360000FBE59
:1046B00090936000FFCF9B01BA0190913803943032
:1046C000E9F48F708093E9009FEF8091E8009150AA
:1046D00085FD06C085ED8A95F1F700009111F5CFB3
:1046E0008091E80085FF0AC050E040E0C9010E94C7
:1046F00061258091E8008E778093E800089543E07B
:1047000050E0BC0182E00E945B23089546E050E047
:10471000BC0182E00E945B23089540E250E0BC01AE
:1047200082E00E945B230895CF93DF93EC010E9407
:10473000512248E050E0BE0181E00E945B2388E006
:10474000FE01A5E0B3E001900D928A95E1F7DF91BB
:10475000CF91089580913703811109C00E94F126FD
:104760000E944E278091E20084608093E2000895C9
:104770001092370308950E942F2281E00E94402268
:1047800008956091340381E0611101C080E00E94CE
:104790001E2208959091380381E0943009F080E062
:1047A000609134030E942C22089542E061EC81E084
:1047B0000E946D2642E261EC82E00E946D2690919B
:1047C000380381E0943009F080E0609134030E9466
:1047D0000C22089580913A03833009F461C030F4CB
:1047E0008130D1F1823009F49EC008958A3009F4F5
:1047F0008AC08B3009F46FC0893009F050C08091B5
:104800003903813209F04BC080913D0390913E0302
:10481000029708F044C08091E800877F8093E80009
:104820008091E80082FF37C09091F3008091F20000
:10483000029731F48091F100813011F0863021F43B
:104840008091F1000E9454228091E8008B77809340
:10485000E8000E94A12623C080913903813AF9F42F
:104860008091E800877F8093E80080913D039091DC
:104870003E03892B61F468E085E093E070E00E94DC
:10488000B0258091E8008B778093E800089560E080
:1048900090E080E0F3CF809138038111C1CF08957B
:1048A00080913903813AD9F780913D0390913E037D
:1048B000892BA9F78091E800877F8093E800809199
:1048C000E80080FFFCCF0E9451228093F10080918C
:1048D000E8008E77BCCF80913903813201F7809157
:1048E0003D0390913E03892BD1F68091E800877FAC
:1048F0008093E8000E94A12680913B030E94402201
:104900000E94BA07089580913903813241F680915F
:10491000E800877F8093E8000E94A12680913C03F5
:104920000E946422089580913903813A09F0B7CF3B
:104930008091E800877F8093E8008091E80080FF05
:10494000FCCF0E947122C1CF84B7877F84BF0FB68E
:10495000F894A8958091600088618093600010921F
:1049600060000FBE80E890E00FB6F894809361007D
:10497000909361000FBE0E943D2208950E94F1268F
:104980000E944E27E2EEF0E080818460808378947C
:104990000E94CD29089587E291E00E945920089550
:1049A00080913803853031F480913803853019F0D7
:1049B0000E94F52208950E94CA220E947E22882326
:1049C00099F380913603882379F30E944B250E9446
:1049D000BA07EACF08959A0140913F0350914003EE
:1049E0000E94F3240895492F55274330510519F1AA
:1049F00068F44130510509F444C04230510509F4CE
:104A000045C090E080E050E040E025C041325105D3
:104A100049F142325105A9F784E490E043E454E0BF
:104A200061157105C1F086EB90E04DE853E061300F
:104A3000710589F0E6CF99278130910581F00097C3
:104A400029F00297F1F6E6E1F3E002C0ECE3F3E0CF
:104A5000849190E0AF01F901518340830895E8E229
:104A6000F3E0F6CF89E090E042E553E0611571058F
:104A700091F389E090E04BE653E06130710559F322
:104A8000C0CF82E190E04BE753E0E5CF8BE390E0CD
:104A900040E453E0E0CF80E189BD82E189BD09B403
:104AA00000FEFDCF8091D8008F7D8093D80080914B
:104AB000E00082608093E0008091E00081FDFCCF07
:104AC0000895AF92BF92CF92DF92FF920F931F9300
:104AD000CF93DF936C01EB018A010E94C026F82E70
:104AE000811123C00115110539F0F80180819181F0
:104AF000C81BD90BC80ED91EB12CA12C2097A9F028
:104B00008091E80085FD22C08091E8008E77809337
:104B1000E80001151105A1F0F80180819181A80E2E
:104B2000B91EB182A08285E0F82E8F2DDF91CF9142
:104B30001F910F91FF90DF90CF90BF90AF9008959D
:104B40000E94C0268823D1F2F82EEFCFF601819182
:104B50006F018093F1002197FFEFAF1ABF0ACECF0C
:104B6000FC0180913F039091400386179707A0F0C6
:104B70006115710529F49091E8009E779093E80003
:104B800090E06115710551F4911108C08091E80021
:104B900082FF34C080E00895BC01F2CF80913803D9
:104BA0008823C1F18530C1F18091E80083FD30C0D8
:104BB0008091E80082FDEACF8091E80080FFE1CF9C
:104BC0008091F3002091F200382F6115710519F0E2
:104BD0002830310558F091E02830310509F090E097
:104BE0002091E8002E772093E800CBCF819180932D
:104BF000F100615071092F5F3F4FE7CF809138037B
:104C0000882341F0853041F08091E80083FFBECFDA
:104C100081E0089582E0089583E00895FC01809189
:104C20003F039091400386179707A0F06115710527
:104C300029F48091E8008E778093E80090E0611578
:104C4000710551F4911108C08091E80082FF35C0D0
:104C500080E00895BC01F2CF809138038823C9F128
:104C60008530C9F18091E80083FD31C08091E80072
:104C700082FDEACF8091E80080FFE1CF8091F300D0
:104C80002091F200382F6115710519F02830310597
:104C900058F091E02830310509F090E08091E8006B
:104CA0008E778093E800CBCF84918093F10031968A
:104CB000615071092F5F3F4FE6CF80913803882301
:104CC00041F0853041F08091E80083FFBDCF81E065
:104CD000089582E0089583E00895982F973028F092
:104CE0008F708093E90081E008959093E900242F6C
:104CF000762F50E0981731F07091EC002091ED0084
:104D00005091F00021FD02C09F5FE8CF3091EB0091
:104D10003E7F3093EB003091ED003D7F3093ED000E
:104D20003091EB0031603093EB007093EC002093F6
:104D3000ED005093F0002091EE0027FDE5CF80E0DC
:104D400008958091390387FF13C08091E80082FFA6
:104D500006C08091E8008B778093E80004C08091C2
:104D600038038111F2CF0895809138038823D9F355
:104D70008091E80080FFF8CF8091E8008E77ECCF3B
:104D80002091E4003091E50095E6A9012091EC0026
:104D9000822F817020FF06C08091E80080FF06C04E
:104DA00080E008952091E80022FD1AC08091380328
:104DB000882389F0853089F08091EB0085FD0FC054
:104DC0002091E4003091E50042175307F9F2915029
:104DD000E1F684E0089582E0089583E0089581E09B
:104DE00008950E9460270E946827E0EEF0E080812D
:104DF00081608083E8EDF0E080818F77808319BC4B
:104E0000A7EDB0E08C918E7F8C9380818F7E808324
:104E10001092370308950F931F93CF93DF930E944F
:104E200060270E946827C8EDD0E088818F7788834B
:104E300088818068888388818F7D888319BC1092DF
:104E4000380310923403109236031092350300EEAB
:104E500010E0F80180818B7F808388818160888366
:104E600042E060E080E00E946D26E1EEF0E08081AB
:104E70008E7F8083E2EEF0E080818160808380819C
:104E800088608083F80180818E7F80838881806143
:104E90008883DF91CF911F910F910895E8EDF0E0A5
:104EA00080818F7E8083E7EDF0E080818160808368
:104EB00084E082BF81E0809337030E940B2708952E
:104EC000E8EDF0E080818E7F80831092E20008950B
:104ED0001092DA001092E10008951F920F920FB61F
:104EE0000F9211242F933F934F935F936F937F9370
:104EF0008F939F93AF93BF93EF93FF938091E100C4
:104F000082FF0BC08091E20082FF07C08091E10028
:104F10008B7F8093E1000E94CC298091DA0080FF92
:104F200019C08091D80080FF15C08091DA008E7F73
:104F30008093DA008091D90080FF96C080E189BD1E
:104F400082E189BD09B400FEFDCF81E08093380382
:104F50000E94AA238091E10080FF19C08091E200A5
:104F600080FF15C08091E2008E7F8093E2008091E7
:104F7000E20080618093E2008091D800806280939B
:104F8000D80019BC85E0809338030E94C12380912A
:104F9000E10084FF2BC08091E20084FF27C080E104
:104FA00089BD82E189BD89B5982F917080FFFBCFC3
:104FB0008091D8008F7D8093D8008091E1008F7E12
:104FC0008093E1008091E2008F7E8093E2008091E7
:104FD000E20081608093E20080913403882309F429
:104FE00049C084E0809338030E94CA238091E10085
:104FF00083FF29C08091E20083FF25C08091E100FA
:10500000877F8093E10082E080933803109234031D
:105010008091E1008E7F8093E1008091E2008E7F9D
:105020008093E2008091E20080618093E20042E0A0
:1050300060E080E00E946D268091F000886080939F
:10504000F0000E94BB23FF91EF91BF91AF919F9120
:105050008F917F916F915F914F913F912F910F9021
:105060000FBE0F901F90189519BC109238030E9424
:10507000B82370CF8091E30087FD93E090933803CD
:10508000B3CF1F920F920FB60F9211242F933F931D
:105090004F935F936F937F938F939F93AF93BF9340
:1050A000CF93DF93EF93FF93D091E900DF7080916E
:1050B000EC00C82FC17080FDC0E81092E90080911B
:1050C000F000877F8093F00078940E9485281092EA
:1050D000E9008091F00088608093F000CD2BCF70C4
:1050E000C093E900FF91EF91DF91CF91BF91AF9114
:1050F0009F918F917F916F915F914F913F912F91F0
:105100000F900FBE0F901F901895AAE2B0E0EBE849
:10511000F8E20C94922A89E393E02091F100FC01DB
:105120002193CF01F3E081349F07B9F70E94EA236E
:105130008091E80083FF1EC18091390390913A036A
:105140009A3008F017C1E92FF0E0E85DF34D0C94B8
:105150004C2A803899F0823809F00CC180913D03C7
:105160008F70873008F006C18093E9008091EB00D2
:1051700085FB882780F91092E90006C080913503ED
:1051800090913603911182609091E800977F9093FF
:10519000E8008093F1001092F1008091E8008E7792
:1051A000E5C0882309F4D3C0823009F0E3C08091C0
:1051B0003B038111D6C080913D038F702FEF280FE4
:1051C000263008F0D7C08093E9002091EB0020FF43
:1051D000C8C0933031F48091EB0080628093EB0083
:1051E000C0C09091EB0090619093EB0021E030E023
:1051F00001C0220F8A95EAF72093EA001092EA0094
:105200008091EB008860EACF8111B4C010913B031C
:105210001F778091E3008078812B8093E300809159
:10522000E800877F8093E8000E94A1268091E80033
:1052300080FFFCCF8091E30080688093E30082E0F0
:10524000111183E08093380395C08058823008F0B4
:1052500091C080913B0390913C038C3D23E09207E9
:10526000A1F583E08A838AE289834FB7F894DE014F
:10527000139620E03EE051E2E32FF0E05093570018
:10528000E49120FF03C0E295EF703F5FEF708E2F37
:1052900090E0EA30C0F0C7968D939D932F5F243144
:1052A00059F74FBF8091E800877F8093E8006AE25A
:1052B00070E0CE0101960E94B0258091E8008B77C6
:1052C0008093E80057C0C096E7CF60913D0370918E
:1052D0003E03AE014F5F5F4F0E94EB24BC01892B60
:1052E00009F448C09091E800977F9093E800898185
:1052F0009A810E940E26E1CF8038E1F58091E80086
:10530000877F8093E800809134038093F10045CF3C
:10531000811130C090913B03923060F58091E8009C
:10532000877F8093E800909334030E94A1268091A8
:105330003403882311F084E005C08091E30087FDE9
:10534000FACF81E0809338030E94D52313C0809167
:105350003B03813079F481E0933009F080E0809361
:1053600036031092E9008091E800877F8093E8007F
:105370000E94A1268091E80083FF0AC08091E80086
:10538000877F8093E8008091EB0080628093EB0040
:10539000AA96E3E00C94AE2A0895CF938091380347
:1053A0008823A1F0C091E900CF709091EC00892F83
:1053B000817090FD80E8C82B1092E9008091E80090
:1053C00083FD0E948528CF70C093E900CF91089596
:1053D000991B79E004C0991F961708F0961B881F47
:1053E0007A95C9F78095089587FB082E062687FDD4
:1053F000819567FD61950E94E8290EF4919507FC5F
:1054000081950895AA1BBB1B51E107C0AA1FBB1FB2
:10541000A617B70710F0A61BB70B881F991F5A9540
:10542000A9F780959095BC01CD01089597FB072EB3
:1054300016F4009407D077FD09D00E94022A07FCD9
:1054400005D03EF4909581959F4F08957095619594
:105450007F4F0895A1E21A2EAA1BBB1BFD010DC0B0
:10546000AA1FBB1FEE1FFF1FA217B307E407F50714
:1054700020F0A21BB30BE40BF50B661F771F881FF0
:10548000991F1A9469F760957095809590959B0186
:10549000AC01BD01CF010895EE0FFF1F0590F491FF
:1054A000E02D09940E945A2A332312F48A1B9B0B85
:1054B0000C946B2AA29FB001B39FC001A39F700DF3
:1054C000811D1124911DB29F700D811D1124911D0C
:1054D00008950E945A2AB7FF0895821B930B0895DE
:1054E0000E945A2AA59F900DB49F900DA49F800DF5
:1054F000911D11240895B7FF0C94702A0E94702A00
:10550000821B930B08952F923F924F925F926F925E
:105510007F928F929F92AF92BF92CF92DF92EF9243
:10552000FF920F931F93CF93DF93CDB7DEB7CA1BC4
:10553000DB0B0FB6F894DEBF0FBECDBF09942A88EF
:10554000398848885F846E847D848C849B84AA8497
:10555000B984C884DF80EE80FD800C811B81AA8124
:10556000B981CE0FD11D0FB6F894DEBF0FBECDBFEF
:10557000ED010895002E083090F0982F872F762F98
:10558000652F542F432F322F22270850F4CF220F9C
:10559000331F441F551F661F771F881F991F0A95C9
:1055A000B2F7002D089597FD1094002E083098F062
:1055B0000850232F342F452F562F672F782F892FF0
:1055C000912DF4CF15949795879577956795579575
:1055D0004795379527950A95AAF71124002D089528
:1055E0008F929F92AF92BF92CF92DF92EF92FF92F3
:1055F000CF93DF93EC01688179818A819B8161156A
:1056000071058105910521F464E279ED8BE597E060
:105610002DE133EF41E050E00E94C72B49015A01D0
:105620009B01AC01A7EAB1E40E94702A6B017C01E6
:10563000ACEEB4EFA50194010E947E2ADC01CB01FF
:105640008C0D9D1DAE1DBF1DB7FF03C00197A109A5
:10565000B04888839983AA83BB839F77DF91CF91DA
:10566000FF90EF90DF90CF90BF90AF909F908F9082
:1056700008950E94F02A089580E091E00E94F02AA7
:105680000895B0E0A0E08093000190930101A09301
:105690000201B09303010895FC014150504030F0E5
:1056A00001900616D1F73197CF01089588279927E1
:1056B0000895FB01DC0104C08D910190801921F453
:1056C00041505040C8F7881B990B0895FB01DC013D
:1056D00002C001900D9241505040D8F70895F999B9
:1056E000FECF92BD81BDF89A992780B50895A6E1B5
:1056F000B0E044E050E00C94B92BA8E1B0E042E007
:1057000050E00C94B92BDC01A40FB51F4150504060
:1057100048F0CB01840F951F2E910E94942B41508D
:105720005040D0F70895262FF999FECF92BD81BD44
:10573000F89A019700B4021639F01FBA20BD0FB6CF
:10574000F894FA9AF99A0FBE08950396272F0E94AB
:10575000942B0E94932B252F0E94942B242F0C9482
:10576000942B0196272F0E94942B0C94932BDC01F1
:10577000CB01FC01F999FECF06C0F2BDE1BDF89A5C
:10578000319600B40D9241505040B8F70895052E5F
:1057900097FB1EF400940E94DE2B57FD07D00E9459
:1057A0002A2A07FC03D04EF40C94DE2B509540952A
:1057B000309521953F4F4F4F5F4F089590958095BD
:1057C000709561957F4F8F4F9F4F0895F894FFCF4D
:1057D000B405B405F205F20556067206E305E305C5
:1057E0007706E806F706F706B812C012C512CA1205
:1057F000CF12D412D912DE12E312E812ED12A91C54
:105800001D1DB11C7B1C7F1CB51C831CB91CC51C39
:105810008F1C161D931CC91C971CCD1CF51C9B1CB2
:10582000D11CFC1CA11CD71CDF1C871CBD1C8B1CA5
:10583000C11CA51CDB1CEB1C051D141D751CAD1C1F
:10584000241D3220382021202C203E2044204A20B4
:10585000A928D128BA29D128BA2904292529BA2961
:045860007C298829EE
:10586400010000007802980201010200050005050C
:1058740001191A1B1C1D1E1F202122280850011E5D
:105884000A140100000100612294238D2386237FE2
:1058940023E200E900EA00B500B600B700CD0083BA
:1058A40001CC008A019201940121022302240225E1
:1058B40002260227022A02B300B4006F0070009F80
:1058C40001CB019F02A002818283E200E900EA0089
:1058D400B500B600B700CD008301CC008A01920167
:1058E40094012102230224022502260227022A020D
:1058F400B300B4006F0070009F01CB019F02A002AF
:105904008182833291929336F6909466000102026A
:1059140002020606060909090909090F0F0F0F0FEC
:105924000F151515181919191919191919191923F0
:1059340024252525252525C81BCA1BD51BE01B00AE
:10594400FF0100010000FFFF0000010001FF003122
:04595400F433F50033
:00000001FF
