:100000000C947B010C949A010C949A010C949A0123
:100010000C949A010C949A010C949A010C949A01F4
:100020000C949A010C949A010C94791D0C94511E15
:100030000C948D180C949A010C949A010C949A01CA
:100040000C949A010C949A010C949A010C949A01C4
:100050000C949A010C9405190C949A010C949A0131
:100060000C949A010C949A010C949A010C949A01A4
:100070000C949A010C949A010C949A010C949A0194
:100080000C949A010C949A010C949A010C949A0184
:100090000C949A010C949A013A003E0042003502F9
:1000A0001E021F0220022102220223022402250234
:1000B000260227022D022E024C002F0230023102AE
:1000C0003B003F00430029001E001F0020002100CC
:1000D0002200230024002500260027002D002E00EA
:1000E0002A004A004D004B003C00400044002B0019
:1000F00014001A000800150017001C0018000C005E
:10010000120013002F0030003100330234024E0081
:100110003D004100450039000400160007000900B9
:100120000A000B000D000E000F0033003400280001
:1001300062005F0060006100460047004800E10087
:100140001D001B00060019000500110010003602FA
:1001500037023802E500520062005C005D005E007C
:100160001B0106011901E000E300E2002C002C0055
:1001700000002C002C0036003700380050005100E1
:100180004F0059005A005B00080362006F007000C6
:1001900000001603660072007500690074007900A3
:1001A0006B00650065006200000004030904090299
:1001B0003B00020100A0FA09040000010301010054
:1001C00009211101000122440007058103080001F3
:1001D00009040100010300000009211101000122AE
:1001E000B600070582032000011201000200000092
:1001F000086B666F6201000102000105010902A19E
:100200000185020901A10005091901290815002528
:100210000195087501810205010930093115812513
:100220007F95027508810609381581257F9501752E
:10023000088106050C0A38021581257F950175088D
:100240008106C0C005010980A101850319012AB7F3
:1002500000150126B700950175108100C0050C0935
:1002600001A101850419012AA002150126A0029509
:100270000175108100C005010906A1018506050769
:1002800019E029E715002501950875018102050788
:10029000190029EF1500250195F075018102050867
:1002A00019012905950575019102950175039101C3
:1002B000C005010906A101050719E029E715002578
:1002C00001950875018102950175088101050719DD
:1002D0000029FF150026FF00950675088100050816
:1002E0001901290515002501950575019102950152
:1002F00075039101C00011241FBECFEFD0E2DEBF15
:10030000CDBF11E0A0E0B1E0EAE1F2E400E00BBF14
:1003100002C007900D92A63AB107D9F723E0A6EAEA
:10032000B1E001C01D92AD30B207E1F70E94D211D9
:100330000C94CC200C940000811112C0663080F423
:10034000443170F4E42FF0E084E1689FE00DF11D8A
:100350001124EE0FFF1FE856FF4F859194910895E9
:1003600081E090E008950E949C01089581E0089545
:100370000E94B60108950E94B601089581E0089593
:100380000E94B60108950E94B60108950E94C3011B
:100390000895089508950E94C90108950895089543
:1003A000A6E0B0E0E6EDF1E00C94282049835A8302
:1003B0009E833091AD0189819A8131111AC03E81AD
:1003C000332399F0222389F00E941408182F682FF4
:1003D00089819A810E94F00769817A81812F0E9428
:1003E000560F2696E3E00C9444200E940208182F32
:1003F000F3CF0E94140869817A81F1CFFC01262F86
:100400004081518162817381848195810E94D001F4
:100410000895CF93DF93EC0161E00E94FE01BE01DD
:100420000E94B801882359F061E0CE010E94FE01CC
:10043000BE010E94BB018170DF91CF91089580E0E1
:10044000FACF0F931F93CF93DF93EC0160E00E94EC
:10045000FE018C01BE010E94CA01BE01C8010E94BA
:10046000CB01DF91CF911F910F91089521E030E0F2
:10047000A90102C0440F551F8A95E2F7CA010E94E4
:1004800012070895CF93C82F81E090E00C2E02C090
:10049000880F991F0A94E2F70E94800C8C2F0E940B
:1004A0003602CF91089581E008950E945302089585
:1004B0000E9453020895CF93C82F0E94C5068C2F27
:1004C0000E9455028C2F0E9458022FEF84E39CE07B
:1004D000215080409040E1F700C00000CF91089586
:1004E00081E00E945B020E942919089580E00E9429
:1004F0005B020E945B1908950F931F93CF93DF93C4
:100500008C0161E00E94FE01EC01B8010E94C00173
:10051000811106C080E0DF91CF911F910F91089566
:10052000B801CE010E94C6018823A1F3B801CE0113
:100530000E94FC15882371F3B801CE010E94381285
:10054000882341F3B801CE010E940E12882311F3D3
:10055000B801CE010E945A108823E1F2F80185818A
:10056000882361F0C330FCE7DF07E9F058F4C115D8
:10057000ECE7DE07A9F0C130DC47B9F0C8010E9402
:10058000BE01C9CFCB358CE7D807A9F0CC35ECE755
:10059000DE0771F0CA35DC4789F70E945B0CEECFAD
:1005A0000E947002B7CF0E94630C0E947602B2CF05
:1005B0000E94510CE3CF0E945F0CE0CF0E94CE015D
:1005C0000E945D180E94020308950E9406030E9483
:1005D000CF010E946218089581E008950895CF9395
:1005E000DF93D82F0E94EC02C82F882319F08D2F9B
:1005F0000E94EE028C2FDF91CF91089508950E9402
:10060000EF02089580E00E94FF0208950E944516BF
:100610000E94FF020895CF930E944516C82F809133
:10062000A8018C1779F0C093A8010E94F918609373
:10063000A9017093AA018093AB019093AC018C2F18
:100640000E94FF02CF910895ADE0B0E0EAE2F3E04E
:100650000C942920488759876A877B878C879D87D8
:1006600091110E94610B1F8286E0FE013896DE0127
:10067000119601900D928A95E1F78D8181110DC03F
:1006800029813A814B815C816D817E818F810E94BD
:10069000AB0A2D96E2E00C944520CE0101960E9413
:1006A00009028111EDCFF5CFFC012481213021F425
:1006B000808191810E9446080895662329F00E9456
:1006C00099130E946C1408950E94F313FACFCF93EC
:1006D000C82F8823C9F08238C9F40E94521681FDC0
:1006E00013C089E30E9474170E94F50B2FEF87EE69
:1006F00093E0215080409040E1F700C0000089E382
:100700000E948E170E94F50BCF9108958338A1F4B3
:100710000E94521680FDF8CF83E50E9474170E9454
:10072000F50B2FEF81EE94E0215080409040E1F7EF
:1007300000C0000083E5E4CF8438A1F40E94521683
:1007400082FDE2CF87E40E9474170E94F50B2FEF21
:1007500081EE94E0215080409040E1F700C000001D
:1007600087E4CECF8CEF8C0F813A70F48C2F0E94EF
:10077000E816882329F08C2F0E948E170E94F50B13
:100780008C2F0E947417BECF80E28C0F883048F403
:10079000C77081E001C0880FCA95EAF70E94440B38
:1007A000B1CFEBE5EC0FE33040F4F0E0E05BFE4F5F
:1007B000808190E00E947C16A7CFE8E5EC0FEB313A
:1007C00050F4F0E0EE0FFF1FE65EFE4F8081918156
:1007D0000E94A11699CF83E38C0F833108F094CF48
:1007E00061E08C2F0E945D038FCF882309F456C0EF
:1007F000823879F40E94521681FF50C089E30E942A
:1008000074170E94F50B89E30E948E170E94F50B66
:100810000895833859F40E94521680FF3FC083E543
:100820000E9474170E94F50B83E5EECF843859F4CB
:100830000E94521682FF32C087E40E9474170E9401
:10084000F50B87E4E1CF9CEF980F913AE8F290E244
:10085000980F983050F4877091E001C0990F8A95F5
:10086000EAF7892F0E944A0BD1CF9BE5980F93306E
:1008700028F490E080E00E947C16089598E5980F97
:100880009B3128F490E080E00E94A116089593E344
:10089000980F933118F460E00E945D0308951F9350
:1008A000CF93DF93182FEB010E946703209739F451
:1008B000812F0E94F503DF91CF911F9108958FE959
:1008C0009FE00197F1F700C000002197EFCF70E0A3
:1008D00060E0893311F460E570E00E944F040895F0
:1008E000882321F00E94440B0E94F50B0895882371
:1008F00021F00E944A0B0E94F50B0895B0E0A0E0A1
:10090000E4E8F4E00C9422206C01D62FC72FFC0100
:100910001581068102950F700E943A0BE82E8823FC
:10092000F9F0E12E1123E1F08C2F807F803461F00B
:1009300080E28D0F883008F18C2F807E803221F488
:10094000D230D8F00023C9F08091CB0282FF15C0CD
:1009500082E00E94250C0E943A0B91E0E82EE926E5
:10096000BC2EB2949FE0B922FBE0FB15B8F1EB2D51
:10097000F0E0E253FF4D0C941020E12CF1CF0C2F4E
:100980000F70C07F11F00295007F112399F00023B2
:1009900059F080E28D0F883010F0D11107C0802F00
:1009A0000E94440B0E94F50B8D2F48C0802F0E949F
:1009B000540BF8CF8D2F0E94F503002379F080E2CD
:1009C0008D0F883010F0D11104C0802F0E944A0B87
:1009D00003C0802F0E945A0B0E94F50BEB2DE850AC
:1009E000FF0B349708F06BC10E9445160E94FF026E
:1009F000CDB7DEB7E9E00C943E202C2F2F70F22EFD
:100A0000C07FC03219F0F29480EFF822DD2341F06C
:100A1000D130C9F1112309F443C00023E9F0C4CF58
:100A20008091CB0282FD14C0112359F0FF2029F0E0
:100A30008F2D0E94440B0E94F50B80E00E946703FB
:100A4000CDCF80E00E94F503FF2041F28F2DBECF75
:100A5000112369F0011104C08F2D0E947004BECFD4
:100A6000013009F0BBCF8F2D0E94780BB7CF011159
:100A7000B5CF8F2D0E9477048F2D0E94840B8F2D70
:100A80000E94680BABCF112321F0063008F0A6CFEF
:100A9000E3CF053008F0A2CF8F2D0E9477049ECFC0
:100AA0000023D1F3D93349F43FEF87EE93E031507F
:100AB00080409040E1F700C000008D2F0E94F503B8
:100AC0008DCF8C2F86958695837069F0813009F0E3
:100AD00085CF8D2F9C2F9370111102C080E090E084
:100AE0000E94A1167BCF8D2F9C2F9370111102C0F5
:100AF00080E090E00E947C1671CF612F8D2F0E94C4
:100B00005D036CCF8C2F8370A1F5111167CF4D2F32
:100B1000429546954770440F440F2D2F2F7030E0BB
:100B2000042E02C0220F331F0A94E2F790E080E007
:100B3000D4FF09C08FE090E002C0880F991F4A954A
:100B4000E2F780959095C695C695C370822B932B3E
:100B5000C23049F058F4C13019F00E941E073ECF50
:100B60000E9415073BCF0E94270738CF0E9412072B
:100B700035CF8695112311F08C2F8170882309F4CD
:100B80002DCF4D2F429546954770440F440F2D2F82
:100B90002F7030E0042E02C0220F331F0A94E2F7B8
:100BA00090E080E0D4FF09C08FE090E002C0880FA1
:100BB000991F4A95E2F780959095C695C695C370A2
:100BC000822B932BC23049F058F4C13019F00E94A7
:100BD000890704CF0E94800701CF0E949207FECEB2
:100BE0000E943607FBCECF70112329F08C2F0E9474
:100BF0004E078D2F32CF8D2F0E9477048C2F0E94AD
:100C00005E07ECCED23F41F160F4D03FB9F0D13F66
:100C100081F0112309F443C00111C6CE8C2F8F71CE
:100C20001FC0D33F01F1D43FA1F78091CB0282FDD9
:100C300024C08C2F8F71112311F312C0112341F0A6
:100C4000053008F0CBCE8C2F8F710E947007C6CE76
:100C5000063008F0C3CEF7CF8C2F8F711111CFCF94
:100C60000E944E07BBCE112329F08C2F8F710E945A
:100C70004207B4CE0E943D07B1CE112331F063E0AC
:100C80008C2F8F710E94070CA9CE81E00E94250C49
:100C9000023008F4A3CE82E00E94250C9FCE0023F0
:100CA00059F0D93309F009CFEFEFF7EE23E0E15027
:100CB000F0402040E1F7FFCE8C2F8F71A0CFEE20C7
:100CC00009F496CE0E94360B80FD92CEF601158275
:100CD0000E94300B0E944E07C6010E948C060E94A3
:100CE000300B0E945E0784CE0F931F93CF93DF9348
:100CF000EC01688179818D810E9451088C010E94EC
:100D00009B070E941107B801CE010E947E04DF916B
:100D1000CF911F910F910895CF93DF93EC018C81B8
:100D2000882399F0CE010E947C02811111C00E949B
:100D30003A0B882351F08D81882339F08091CB02C2
:100D400082FF03C082E00E94250CDF91CF910895BD
:100D5000CE010E947406CE010E942102F6CF90E0DF
:100D600080E00E947C1690E080E00E94A1160E9424
:100D7000610B0E94F50B0E9488140E946C14089568
:100D80000E94A8170E94AF0608950E94510B0E946E
:100D9000C006089592959F70963091F058F4925F36
:100DA0009F70923058F4803F19F030F4883E30F450
:100DB00081E008959A5FF4CF843FD1F380E00895F5
:100DC000883EB0F3813FD1F7F3CFFC012481222389
:100DD00039F0808191810E9446080E94CA060895D8
:100DE00080E00895A6E0B0E0E8EFF6E00C9429205A
:100DF0002696E2E00C944520A7E0B0E0E2E0F7E0C0
:100E00000C9429202796E2E00C94452008950E9436
:100E1000060708950E9407079093ED018093EC0167
:100E2000089508950E940A0708952091EC013091D9
:100E3000ED01822B932B0E940A0708952091EC016B
:100E40003091ED01822393230E940A070895209197
:100E5000EC013091ED01822793270E940A07089543
:100E60000E94060708950E94300708950E943307E4
:100E70009093EB018093EA01089590E080E00E9456
:100E80003607089521E030E0A90102C0440F551F44
:100E90008A95E2F7CA010E943607089521E030E002
:100EA00002C0220F331F8A95E2F78091EA019091E8
:100EB000EB01822B932B0E943607089521E030E04E
:100EC00002C0220F331F8A95E2F72095309580915A
:100ED000EA019091EB01822393230E943607089543
:100EE00021E030E002C0220F331F8A95E2F78091A3
:100EF000EA019091EB01822793270E94360708951B
:100F00002091EA013091EB01822B932B0E9436074E
:100F100008952091EA013091EB01822393230E94EE
:100F2000360708952091EA013091EB01822793273B
:100F30000E94360708950895262F277091E001C07A
:100F4000990F2A95EAF723E0769567952A95E1F7B8
:100F5000660F771F660F771FFA01E60FF71F50E045
:100F600040E0682F70E08191DF0111979B01042E12
:100F700002C0369527950A94E2F72170219528271B
:100F8000292328272C934F5F5F4F4430510559F791
:100F90000895A82FA77023E0969587952A95E1F7E5
:100FA000880F991F880F991FFB01E80FF91F50E068
:100FB00040E080E0219130E00A2E02C0369527956E
:100FC0000A94E2F721703327042E01C0220F0A94FD
:100FD000EAF7822B4F5F5F4F4430510559F7089570
:100FE000262F963070F4843160F4682F70E084E12D
:100FF000989F600D711D11244EEA51E0822F0E94CE
:101000009C070895292F963068F4843158F490E0B5
:101010006EEA71E034E1239F800D911D11240E943E
:10102000C907089580E00895B0E0A0E0EAE1F8E0A3
:101030000C9422207C010091EA011091EB01809137
:10104000EC019091ED01082B192BCFE0D0E0CC24DE
:10105000C394D12CBC2EC6010C2E02C0880F991F40
:101060000A94E2F780239123892B49F4219790F782
:10107000B12C8B2DCDB7DEB7E9E00C943E20B70143
:101080008C2F0E94620F019789F3F3CFCF93DF93E8
:10109000EC010E941408BE010E94620FDF91CF9103
:1010A00008951F93CF93DF93EB019091AD019923A6
:1010B00039F0CB010E944608DF91CF911F9108952E
:1010C000882369F0CB010E941408182F682FCE01E5
:1010D0000E94F007BE01812F0E94620FEDCFCB016D
:1010E0000E940208182FF6CF1F93CF93DF93C09171
:1010F000EE0117E08091EF018C1304C0DF91CF91D6
:101100001F910895D0E01C9FF0011D9FF00D112448
:10111000E051FE4F2081318142815381648175818C
:1011200086810E94FC062196C770E4CF2091280298
:101130003091290240912A0250912B0260912C0299
:1011400070912D0280912E020E94FC060895CF938B
:10115000DF9380912E02807F09F04DC080912D0297
:10116000882309F448C0E091EE015091EF01C0914D
:101170002902D091280260912A0270912B0247E047
:101180005E17C9F18E2F90E0E49FF0011124E05129
:10119000FE4F2481222391F1489FF001499FF00DD9
:1011A0001124DF01A051BE4F11962C9111972C13E1
:1011B00025C02C912D1322C015962C911597211125
:1011C0001DC012962D913C91261B370B283C3105F2
:1011D000A8F480912E028F70806180932E02EA50D5
:1011E000FE4F80818F708061808388E292E00E9450
:1011F0008C060E947408DF91CF910895FC0131960E
:10120000E770BECF482F2091EE019091EF0157E09B
:10121000291302C080E0089530E0529FF001539FEF
:10122000F00D1124E051FE4F8181681306C08081CA
:10123000481303C085818111EECF2F5F3F4F277088
:10124000E7CFA4E1B0E0E7E2F9E00C941F208C01C5
:1012500086E0F801DE011F9601900D928A95E1F774
:10126000F8018481E58098E2A92E92E0B92E909150
:101270002C0291111FC08823D1F0EE20A9F0C801E3
:101280000E94E506F82E882379F087E0F801D50161
:1012900001900D928A95E1F7C5010E9454030E94C6
:1012A000A7080E9496085FC0C8010E948C06FF2410
:1012B000F39459C0C080D18082809380F0902D0239
:1012C00020912A0230912B02A401421B530BFF20D4
:1012D00009F4F9C0483C510508F0A7C0882309F477
:1012E00042C09091290280912E02282F207F09F080
:1012F0005CC09D1116C090912802C91212C0E11065
:101300004EC08F70806180932E020E94960888E202
:1013100092E00E948C0680912E02F8018683F12CC7
:1013200022C0E1103CC06D2D8C2D0E9402096D2D54
:101330008C2D0E940209E82E8111F1CFCF86D88A28
:101340008F8598890E944608292F22952F70243076
:1013500078F49F702230A8F09923B9F0F8019681B3
:10136000907F99F4FE2C8F2D6496ECE00C943B203A
:101370002A5F2F70223068F0C8010E948C06EF2C83
:10138000F1CF992311F0882369F3805E883050F300
:10139000F3CF803F38F3815F833070F7E3CF8091E4
:1013A0002E02816080932E02BACF9D1113C09091BE
:1013B0002802C9120FC0E1100DC08683C8010E9427
:1013C0008C0687E0F801A8E2B2E001900D928A95C0
:1013D000E1F767CFC8010E94E506882309F464CFCE
:1013E000EE2009F461CF80912E02803288F02091A6
:1013F000280230912902398728879B868A86909116
:101400002C029C871D868E87CE0108960E948C0632
:1014100087E0F801A8E2B2E001900D928A95E1F729
:101420000E94A7080E94960842CF90912E02292F71
:10143000207FA1F4682D9A8A898AA6017A899E2D37
:101440000E94F20688E292E00E948C0687E0F50195
:1014500011928A95E9F70E94960861CF882309F4D2
:1014600082CF809129028D1110C080912802C8126C
:101470000CC0E1100AC09683C8010E948C0687E068
:10148000F50111928A95E9F76ECFC8010E94E50631
:10149000882309F409CFEE2009F406CF80912E02AB
:1014A000803208F4B5CF20912802309129023A8386
:1014B00029839C828B8290912C029D831E828F8334
:1014C000CE010196A3CF483C5105B8F5882309F415
:1014D000EECEFE2CEE2009F4E7CE809129028D118C
:1014E0001EC080912802C8121AC080912E0280FD71
:1014F0000DC0982F907F51F08683903F09F45ECF06
:10150000982F907F905F8F70892B57CF87E0F801DD
:10151000A8E2B2E001900D928A95E1F724CFC801CC
:101520000E94E506811174CF80912E028160809324
:101530002E02C8010E948C0616CF682D9A8A898ACD
:10154000A6017A899E2D0E94F20687E0F50111928C
:101550008A95E9F7A6CEAEE0B0E0E1EBFAE00C94B4
:101560002820288739874A875B876C877D878E8705
:10157000CE0108960E9421098823B1F06C8566236C
:1015800041F0288539854A855B857D858E850E9459
:10159000FC0617E08091EE019091EF0189133DC0A8
:1015A0002E96E3E00C94442087E0FE013896DE019D
:1015B000119601900D928A95E1F78C85882349F365
:1015C0002091EF0130E0C901019687709927409181
:1015D000EE014817190699F097E0929FD001939F6A
:1015E000B00D1124A051BE4FFE01319601900D9215
:1015F0009A95E1F78093EF010E947408CACF0E9488
:10160000C5061092EF011092EE0187E0E8E2F2E0E9
:10161000DF011D928A95E9F7BCCF819FC00111249B
:1016200080519E4F0E942109882309F4B9CFE0918F
:10163000EE011E9FF0011124E051FE4F2081318107
:10164000428153816481758186810E94FC0680916C
:10165000EE0190E00196877099278093EE019ACF72
:1016600080915702869586958695089580915702B8
:101670008770089590915702977081E009F480E097
:10168000089580918302089590918302892B80931D
:10169000830208958095909183029823909383020A
:1016A000089510928302089590918202892B80936D
:1016B00082020895809590918202982390938202ED
:1016C000089510928202089508950E94640B08956F
:1016D00090915802292F282331F0809589238093F7
:1016E00058020E94650B089508950E94740B089596
:1016F00090915902292F2823281729F0982B90938D
:1017000059020E94750B089590915902292F2823A0
:1017100031F080958923809359020E94750B0895BA
:1017200080915902882329F01092590280E00E948A
:10173000750B0895CF93C091830280918202C82BCC
:1017400080915902882331F0C82B0E94C61681115E
:101750000E94900B8C2FCF910895CF93DF93C0916F
:101760000201D09103010E949A0B8883C09102016B
:10177000D091030148E050E06FE472E0CE010E9496
:101780006420892B59F088E0FE01AFE4B2E00190BB
:101790000D928A95E1F7CE010E945516DF91CF9107
:1017A0000895CF93DF93C0910001D09101010E9471
:1017B0009A0B8983C0910001D091010140E250E071
:1017C0006FE272E0CE010E946420892B59F080E222
:1017D000FE01AFE2B2E001900D928A95E1F7CE01F1
:1017E0000E946016DF91CF9108950E9438188130D1
:1017F00039F48091CA0287FF03C00E94D10B08957B
:101800000E94AD0B089508950E94030C08959091D5
:10181000CB0292FF11C098E0899F90011124622BA6
:10182000609357020E944E078091570286958695D5
:1018300086950E94040C08950E944E070895109208
:10184000570280E00E94040C089590915702809501
:10185000892380935702282F277069F4891759F03C
:101860009091CB0292FF07C08695869586950E943F
:101870005E070E941F0C08959091CB0292FB2227D5
:1018800020F9281769F080FB92F99093CB028091A0
:10189000CA029091CB020E948B0C82E00E94250C20
:1018A00008958091CB0282FB882780F991E08927F7
:1018B0000E943C0C089581E00E943C0C089580E059
:1018C0000E943C0C08956FEF7FEF90E080E00E9453
:1018D000B620089590E080E00E94822021E0853EBD
:1018E0009E4F09F020E0822F089582E090E00E9450
:1018F0007A20089583E090E00E947A2090E0089595
:10190000682F83E090E00E949820089584E090E0A2
:101910000E9482200895BC0184E090E00E94B620DD
:101920000895AB01BC018FE090E00E94AA200895C9
:10193000AB01BC0183E190E00E94AA20089560E021
:1019400070E0CB010E94980C089560E070E0CB013C
:101950000E94910C0E949F0C0895A8E0B0E0E3EB78
:10196000FCE00C94292065EE7EEF90E080E00E9480
:10197000B62060E082E090E00E94982081E090E054
:101980009093ED018093EC010E94800C60E074E183
:1019900084E090E00E94B62060E086E090E00E9443
:1019A000982060E087E090E00E94982040E050E0BE
:1019B000BA0188E090E00E94AA2060E083E290E013
:1019C0000E94982060E08CE090E00E94982060E007
:1019D0008DE090E00E94982019821A821B821C825E
:1019E0001D821E821F82188648E050E067E170E089
:1019F000CE0101960E94882040E050E0BA018FE1BC
:101A000090E00E94AA200E94A50C2896E2E00C9487
:101A100045200E94AD0C0895682F8EE090E00E9452
:101A200098200895A6E0B0E0E8E1FDE00C942720BE
:101A30000E94ED188C01809184029091850280179C
:101A4000910781F019821A820E94ED18682F49814E
:101A50005A81792F80E090E00E9424031093850240
:101A6000009384022696E4E00C9443200E94F91827
:101A70006093A2027093A3028093A4029093A502A4
:101A800060939E0270939F028093A0029093A102A4
:101A90000895089508950E94490D089508950E949B
:101AA0004E0D0E944B0D089508950E94540D089507
:101AB00008950E94580D0E94550D089588E590E103
:101AC0000E94E7110E944A0D0E944F0D089581E087
:101AD00008950E94670D08950E94670D0895089566
:101AE000089508950E946F0D0E94700D0E94710D5F
:101AF00008950E946A0C811102C00E94090D0E9483
:101B0000750C8093A6020E94860C9093CB02809362
:101B1000CA020E940B120E947A0C0E941207809146
:101B2000EA019091EB010E94330708950E94E418A6
:101B30000E9441110E94790D0E94FE020E94590DDF
:101B40000895A8E0B0E0E7EAFDE00C9419200E94B7
:101B5000690D81110AC00E94120D0E94AA140E94F0
:101B60000B032896E2E10C9435200E94571186E879
:101B700092E098878F837C0110E0F70141905190AB
:101B8000619071907F01812F0E9474101F5F163049
:101B900009F467C0461657066806790671F3809106
:101BA000A60281FD0E947F100E946C0D282E10E07D
:101BB00033243394812F0E9474106B017C01EF81D8
:101BC000F8854190519061907190F887EF83C4142B
:101BD000D504E604F704F1F100E0812C912C5401C6
:101BE00083944C245D246E247F24D301C201882178
:101BF0009921AA21BB21892B8A2B8B2BE9F022204A
:101C0000D9F009831A830E94ED189C838B833D824F
:101C100021E0D701C60188219921AA21BB21892B66
:101C20008A2B8B2B09F420E049815A816B817C81BE
:101C30008D81922F0E9424030F5F880C991CAA1C8F
:101C4000BB1C043191F6EF81F8853497C082D182B4
:101C5000E282F3821F5F163009F0ACCF0E94360D8E
:101C60007CCF461657066806790609F098CF73CFE1
:101C70001F93CF93DF930E94670FEC01C11580E59E
:101C8000D807F0F5C11580E4D80708F09CC0C03E25
:101C9000D10520F5CD3CD10508F082C0C83AD10568
:101CA00078F4C53AD10508F073C0C130D10519F1F7
:101CB000209709F1C430D105F0F4D0E0C0E01BC09A
:101CC000C33CD105D0F7C85AD0E0CC0FDD1FCD5AA8
:101CD000DE4F0990D881C02DD4640DC0C11580E2BB
:101CE000D80708F0D1C0C11581E0D80708F05AC064
:101CF000C83ED10510F7CE01DF91CF911F91089515
:101D0000C03682E5D80718F5C03482E5D80708F058
:101D10006BC0C03282E5D80708F05FC0C11582E50C
:101D2000D80708F497C02C2F2695269580E2289F87
:101D3000900111248C2F8370C1E0D0E002C0CC0F41
:101D4000DD1F8A95E2F7C22BD32BDD68D4CFC03AD2
:101D500082E5D80760F4C03882E5D80708F459C096
:101D6000CF71D0E0DC2FCC27C46FD06AC4CFC03C89
:101D700082E5D80708F462C0C03E82E5D80708F0C3
:101D80009CCFDC2FCC27CC27DF71C06FD06AB3CFBC
:101D9000C55AD0E0C757DE4FC881D0E0D064ABCF82
:101DA000D065A9CF8D2F0E940910182FCE01992739
:101DB0000E94670FC12FD0E0DC2FCC27CC27DF712A
:101DC000C82BD92B98CFCE0199270E94670FCC271B
:101DD000DF70C82BD92BD06A8ECFCF71D0E0DC2F2B
:101DE000CC27C16FD06A87CF2C2F269526952770D8
:101DF00080E2289F900111248C2F8370C1E0D0E0F5
:101E000002C0CC0FDD1F8A95E2F7C22BD32BDC6812
:101E100072CF2C2F26952695277080E2289F90015F
:101E200011248C2F8370C1E0D0E002C0CC0FDD1FE5
:101E30008A95E2F7C22BD32BDA685DCF8C2F8F7196
:101E40000E940910C82FD0E0DC2FCC27CC27DF71EF
:101E5000D06251CF8C2F8F710E94091055E0D6951A
:101E6000C7955A95E1F7CF70D0E0DC2FCC27282F0B
:101E700030E084FF05C044E0220F331F4A95E1F7AC
:101E8000C22BD32BD06937CF8D2F8F710E940910B1
:101E9000182FCE0199270E94670FC12FD0E0DC2FA9
:101EA000CC27CC27DF71C82BD92BD2CF462F763049
:101EB00030F4643120F4672F0E94B301089590E05C
:101EC00080E008950E94560F0E94380E08958238CF
:101ED0009105B9F1B0F48133910509F47DC048F45E
:101EE0008932910509F46DC08A32910509F47BC0ED
:101EF00008958533910509F45FC08933910509F18F
:101F00000895833E9105D9F138F4803E910529F179
:101F1000823E910579F10895863E9105D9F1873E7B
:101F2000910509F43EC0843E910541F52091CB0214
:101F300021FF24C08091CA0284FD19C087EE90E081
:101F400008952091CA02237009F05AC02091CB0253
:101F500023FF14C089E290E008952091CA0220FD79
:101F600038C03091CB0230FF09C024FF43C090E05D
:101F700080E008952091CA0222FDF7CF08952091B4
:101F8000CA0222FD3AC03091CB0230FD39C024FF95
:101F9000F5CFEDCF2091CA0223FFF0CF24FDE7CF8C
:101FA000CDCF2091CA0223FD2EC03091CB0231FF4C
:101FB000EECF84EE90E008952091CA0225FFDECF97
:101FC000C9CF2091CA0225FD21C02091CB0223FF59
:101FD000D5CF89E390E0D2CF2091CA0226FFCECFA1
:101FE0008AE290E008952091CA0226FFC7CF81E3DC
:101FF00090E0089583EE90E0089582EE90E00895D9
:1020000080EE90E0089586EE90E0089585E390E0FC
:1020100008959091CA0292FF10C041E0282F2471C8
:10202000243009F040E031E0282F2871283009F0F1
:1020300030E0431711F02CE0822793FF10C041E0FD
:10204000282F2471243109F040E031E0282F287135
:10205000283109F030E0431711F02CE0822730914D
:10206000CB0230FF10C051E0282F2171213009F040
:1020700050E041E0282F2871283009F040E0541743
:1020800011F029E0822731FF10C041E0282F217193
:10209000213109F040E031E0282F2871283109F082
:1020A00030E0431711F029E0822794FD877E0895E0
:1020B00080E00895CF939C01205E3245C1E020323C
:1020C000310538F4FB01C581C11103C08F710E9435
:1020D00042028C2FCF91089508950E946C100895AC
:1020E00008950E947010089594E0899FF0011124D2
:1020F000EC51FD4F60817181828193810895089533
:1021000080EA8A95F1F7089500C008950E94801032
:102110000895F894E82FE295EF70F0E031A1282FB0
:102120002F7081E090E001C0880F2A95EAF7982F80
:102130009095932391A392A1892B82A378940895DB
:102140000F931F93CF93DF93C0EAD1E089918F3F24
:1021500011F00E94891081E0C63AD807B9F7CCE89F
:10216000D1E000EA11E089918F3F11F00E948910BF
:102170000C171D07C1F7DF91CF911F910F910895A3
:102180008F929F92AF92BF92DF92EF92FF920F9346
:102190001F93CF93DF938C01D62EC62FD0E0CE01B4
:1021A00080569E4F7C01FC0120812F3F09F45DC0C9
:1021B000F894E22FE295EF70F0E031A12F7081E00A
:1021C00090E001C0880F2A95EAF7932F982B91A3EE
:1021D00092A18095892382A378940E948410ECE8D0
:1021E000F1E041E050E060E070E0812C912C54017E
:1021F00081918F3F89F0A82FA295AF70B0E09096A3
:102200002C9130E08F7002C0359527958A95E2F7C2
:10221000DB01CA0120FF03C080E090E0DC01882AD6
:10222000992AAA2ABB2A440F551F661F771F81E0EF
:10223000E03AF807E9F6F70180818F3F11F00E943C
:10224000891061E081149104A104B10409F460E0F3
:102250008D2D0E948610CC0FDD1FCC0FDD1FC00F0F
:10226000D11F88829982AA82BB82DF91CF911F9170
:102270000F91FF90EF90DF90BF90AF909F908F9065
:1022800008950E94A01088E1E4EEF2E0DF01982FAB
:102290001D929A95E9F7ECECF2E0DF011D928A9528
:1022A000E9F786E00E9492110E946D100895A8E15E
:1022B000B0E0EDE5F1E10C9426208E010F5F1F4F99
:1022C00088E1F80111928A95E9F7F12C6F2DC80188
:1022D0000E94C010F394F6E0FF12F8CF48E150E0FE
:1022E000B8018CEC92E00E94642021E0009709F490
:1022F00020E0892B41F088E1F801ACECB2E00190DC
:102300000D928A95E1F746E064EE72E08CEC92E083
:102310000E949311182F0E947110812F6896E5E09A
:102320000C9442200895B0E0A0E0E9E9F1E10C94BA
:1023300023206C017B01042FC22F222379F081E03E
:102340008093A9020E94ED189093A8028093A7029F
:1023500080E0CDB7DEB7E8E00C943F20D091A90231
:10236000DD23B1F38091A7029091A8020E947C180E
:10237000059770F384E0089F80011124A801B6013D
:10238000C7010E946420892B31F0A801B601C70162
:102390000E947120CD2F1092A9028C2FDACF0E94BB
:1023A000A10D08950E9486180E94AF1A0E945E0D2A
:1023B0000E94C91A0E94960D0E94D61A0E94DB1A2A
:1023C0000E94CF110E94F51A0E94720DF7CF9093D0
:1023D000A7018093A60108950E94630C089580E0F0
:1023E0000E947410862F817008950E9457112FEF5C
:1023F00086E791E0215080409040E1F700C0000066
:102400000E9457110E94EF11882321F00E94EC11C5
:102410000E94291908950E94F5110895CF93DF9322
:10242000EB0186319C4711F50E94410B9D81992358
:1024300099F08A7A91E009F490E09093AA028111D0
:1024400009C089E20E9474170E94F50B80E0DF91B9
:10245000CF91089585E3F6CF8091AA02811104C03F
:1024600089E20E948E17F0CF85E3FBCF81E0EFCFAA
:10247000CF93DF93EC01FB018581882309F4D2C05F
:102480009E0130572332310508F0B2C00E94860CFD
:102490009093CB028093CA02FE01E150F047E232F2
:1024A000F10520F4E652FF4D0C9410208091CA02F1
:1024B00081608093CA0293C08091CB028860809330
:1024C000CB028DC08091CA028260F3CF8091CA0294
:1024D0008460EFCF8091CA028860EBCF8091CB02FD
:1024E0008160EDCF8091CB028260E9CF8091CA02FA
:1024F0008061DFCF8091CA028062DBCF8091CA0207
:102500008064D7CF0E94C5068091CA028068D1CF6F
:102510008091CA028C60CDCF8091CB028360CFCFF7
:102520008091CA028E7FC5CF8091CB02877FC7CFB3
:102530008091CA028D7FBDCF8091CA028B7FB9CFB7
:102540008091CA02877FB5CF8091CB028E7FB7CFB3
:102550008091CB028D7FB3CF8091CA028F7EA9CFAD
:102560008091CA028F7DA5CF8091CA028F7BA1CFB7
:102570000E94C5068091CA028F779BCF8091CA02C4
:10258000837F97CF8091CB028C7F99CF8091CA02B5
:1025900082FB992790F921E0922790FB82F990FB2A
:1025A00083F987CF8091CB02982F909591708E7F81
:1025B000892B90FB81F983CF9091CA02892F8F7B61
:1025C00096FF806476CF0E94C5069091CA02892F3B
:1025D00097FB87F980586DCF81E00E940C0D8091A8
:1025E000CA029091CB020E948B0C0E94C50680E02B
:1025F000DF91CF91089580E0F0CF9091CA02892FAA
:102600008F7E94FF806155CF9091CA02892F8E7F73
:1026100090FF81604ECF9091CB02892F877F93FFEF
:1026200088604DCF81E0E4CF282F35EB2303C00134
:10263000112497FF04C080589109892F089580586C
:102640009F4FFBCF8091B10280FF0DC060910901C7
:1026500070E0660F771F6038710570F561157105C0
:1026600069F1862F089581FF07C06091090184E018
:10267000689FB0011124EFCF6091090182FD0AC06B
:102680008091B0028823A9F020910801609109018E
:10269000821710F088E0ECCF869FC001112433E050
:1026A000880F991F3A95E1F7622F70E00E94FC1F96
:1026B000D2CF68E070E0D5CF8FE7089581E008952C
:1026C0008091B10280FF0CC06091050170E07595AA
:1026D0006795759567956115710549F1862F089580
:1026E00081FF06C06091050170E075956795F3CF95
:1026F0006091050182FD0BC09091AF029923A1F07A
:102700006091040180910501961738F0682F70E000
:102710006038710500F38FE70895899FC001112487
:1027200070E00E94FC1FF4CF61E070E0D7CF81E041
:1027300008958D3C31F40E94221381958093B50257
:1027400008958E3C19F40E942213F8CF8F3C31F487
:102750000E94221381958093B4020895803D19F45C
:102760000E942213F8CF893D29F40E9460138093C0
:10277000B60208958A3D21F40E9460138195F7CF37
:102780008B3D31F40E94601381958093B7020895C8
:102790008C3D19F40E946013F8CF9FE2980F983097
:1027A00070F4815D990B21E030E001C0220F8A9521
:1027B000EAF78091B302822B8093B30208958D3D96
:1027C00031F48091B10281608093B10208958E3D11
:1027D00021F48091B1028260F7CF8F3DB9F78091EB
:1027E000B1028460F1CF4091B4028D3C59F48091E4
:1027F000B50287FF0DC01092B50241110BC01092B7
:10280000B00208C08E3C81F48091B50218169CF38A
:10281000442381F08091B6029091B702892B09F090
:102820005AC01092AF0208958F3C49F447FFF0CF91
:102830001092B4028091B5028111ECCFE0CF803DBF
:1028400019F41416ACF3E4CF9091B602893D29F443
:102850001916F4F61092B602DBCF8A3D19F497FFF1
:10286000D7CFF8CF9091B7028B3D29F497FFD0CF07
:102870001092B702CDCF8C3D19F41916CCF3C8CF06
:102880009FE2980F983090F4815D990B21E030E041
:10289000B90102C0660F771F8A95E2F7CB018095D8
:1028A0009091B30289238093B302B2CF8D3D31F46E
:1028B0008091B1028E7F8093B102AACF8E3D21F428
:1028C0008091B1028D7FF7CF8F3D09F0A1CF80912C
:1028D000B1028B7FF0CF08950E94ED189C0190917A
:1028E000B4028091B502982B21F03093AE02209370
:1028F000AD029091B6028091B702982B21F03093EF
:10290000AC022093AB0282EB92E00E946E16089517
:1029100086E0E2EBF2E0DF011D928A95E9F7109282
:10292000B0021092AF021092B1020895FC018281B0
:1029300081110EC0838181110BC08481811108C077
:1029400091E08581811101C090E0892F8170089507
:1029500081E0FCCFA6E0B0E0E0EBF4E10C942820AD
:1029600086E0E2EBF2E0DE01119601900D928A958D
:10297000E1F71092B4021092B5021092B6021092D2
:10298000B7028B819C81892B89F08091AD02909157
:10299000AE020E947C18AC019091B0029923C9F15B
:1029A00080910A018417150608F440C08D819E812C
:1029B000892B91F08091AB029091AC020E947C181F
:1029C000AC019091AF02992309F46AC0809106018D
:1029D0008417150608F472C0BE016F5F7F4F82EB4B
:1029E00092E00E94C217811105C082EB92E00E9422
:1029F000961481110E946C1486E0FE013196A2EBC0
:102A0000B2E001900D928A95E1F72696E3E00C94EE
:102A1000442020910B018AE0289F90011124241763
:102A2000350720F69F5F9093B00202C09F3FD1F719
:102A30001B81112359F00E9422139FEF11160CF4F1
:102A400091E0899F802D11248093B4021C81112371
:102A500059F00E9422139FEF11160CF491E0899F08
:102A6000802D11248093B5028091B402882309F44B
:102A70009DCF1091B502112309F498CF0E94141331
:102A8000882351F08093B402812F0E94141388236D
:102A900029F08093B5028ACF81E0F4CF81E0F9CFAD
:102AA000209107018AE0289F9001112424173507FF
:102AB00008F092CF9F5F9093AF0202C09F3FD1F783
:102AC0001D81112359F00E9460139FEF11160CF421
:102AD00091E0899F802D11248093B6021E811123DD
:102AE00059F00E9460139FEF11160CF491E0899F3A
:102AF000802D11248093B7028091B602882309F4B7
:102B00006BCF1091B702112309F466CF0E94141302
:102B1000882351F08093B602812F0E9414138823DA
:102B200029F08093B70258CF81E0F4CF81E0F9CF4C
:102B30000F931F93CF93DF93C42FD22FFC01858176
:102B40008823C9F04093BA020E94ED189093B9020D
:102B50008093B80280E28C0F883040F4C77081E027
:102B600001C0880FCA95EAF70E947004DF91CF91E7
:102B70001F910F9108951091BA02141332C08091E1
:102B8000B8029091B9020E947C18883C910548F5E2
:102B9000C0E2CD0F1D17B9F080E2810F883040F4FC
:102BA000177081E001C0880F1A95EAF70E94770438
:102BB000C83048F481E09D2F977001C0880F9A9526
:102BC000EAF70E947004802F0E946704C83070F6F4
:102BD000D77081E001C0880FDA95EAF70E94770488
:102BE000C5CF80E28C0F883008F6C77081E001C045
:102BF000880FCA95EAF7F2CF0F93DB0188519C4703
:102C000087309105A0F5FC01E450FF4D0C94102095
:102C100006E221EE41EE6AE17CE7CD010E949815C3
:102C200080E00F91089507E225EE45EE6BE17CE729
:102C3000F4CF06E221EE40EE68E17CE7EECF07E25A
:102C400025EE44EE69E17CE7E8CF06E221EE42EEB4
:102C50006CE17CE7E2CF07E225EE46EE6DE17CE732
:102C6000DCCF08E221E045EE6EE17CE7D6CF159699
:102C70008C91882319F01092BA02D3CF81E0D1CF82
:102C80009093C0028093BF020895E091BF02F0913B
:102C9000C002309729F00190F081E02D0995089548
:102CA00080E008950E9445160895E091BF02F091DA
:102CB000C002309721F00280F381E02D099508953C
:102CC000E091BF02F091C002309739F026E0DC01BC
:102CD0002C930480F581E02D09950895E091BF02C1
:102CE000F091C002309739F022E0DC012C9306808D
:102CF000F781E02D09950895A3E0B0E0E2E8F6E160
:102D00000C9429202091BD023091BE02281739076A
:102D1000A1F09093BE028093BD02E091BF02F091BA
:102D2000C002309751F023E029839B838A8300847B
:102D3000F185E02DCE01019609952396E2E00C94F1
:102D40004520A3E0B0E0E7EAF6E10C9429202091C9
:102D5000BB023091BC0228173907A1F09093BC0246
:102D60008093BB02E091BF02F091C002309751F016
:102D700024E029839B838A830084F185E02DCE01A2
:102D8000019609952396E2E00C944520CF93DF93BA
:102D9000C0910201D091030122960E94381881301F
:102DA00081F48091CA0287FF0CC0C0910001D091CC
:102DB000010122969EE180E0915028F4DF91CF91AD
:102DC000089596E0F8CF29912223B1F38F5FF4CFD5
:102DD000CF93C82F811102C080E024C00E94381810
:102DE000813011F58091CA0287FF1EC0EC2FE69555
:102DF000E695E695EE3180F7809100019091010112
:102E0000E80FF92FF11D228130E0C77081E090E0DA
:102E100002C0880F991FCA95E2F72823392381E061
:102E2000232BD1F2CF91089580910201909103015B
:102E3000FC013296089621912C1721F0E817F9072A
:102E4000D1F7CACF81E0EECF9C01FC0132969FEF13
:102E500080E04191461751F09F3F19F4411101C0A4
:102E6000982F8F5F8630A9F79F3F09F40895290FA7
:102E7000311D97FD3A95F90162830895FC01329660
:102E800008962191261303C0DF0111971C92E817C1
:102E9000F907B9F70895E62FE695E695E695EE3140
:102EA00068F4E80FF92FF11D677021E030E001C0F0
:102EB000220F6A95EAF78281822B82830895E62F9A
:102EC000E695E695E695EE3170F4E80FF92FF11DE1
:102ED000677021E030E001C0220F6A95EAF7209583
:102EE0008281282322830895CF93C82F0E94381807
:102EF0006C2F813061F48091CA0287FF08C08091F5
:102F00000001909101010E944B17CF91089580918B
:102F10000201909103010E942417F7CFCF93C82F8D
:102F20000E9438186C2F813061F48091CA0287FFAB
:102F300008C080910001909101010E945F17CF911C
:102F4000089580910201909103010E943E17F7CFEE
:102F50000E943818813079F48091CA0287FF0BC033
:102F6000E0910001F091010132968EE1DF011D92A6
:102F70008A95E9F70895E0910201F09103013296F4
:102F800086E0F4CFDC01FB0111969C9111978181C1
:102F9000981322C012968C911297882319F092816F
:102FA00089131AC013968C911397882319F0938173
:102FB000891312C015968C911597882319F0958165
:102FC00089130AC014969C91992321F081E02481F1
:102FD000291303C080E001C081E081700895089545
:102FE0000E94EF17089581110EC081E080930F01B8
:102FF00060910C0170910D0180910E0190910F0173
:103000000E94F017089582E0F1CF83E080930F01D2
:1030100060910C0170910D0180910E0190910F0152
:103020000E94F01708950E94F317089581E080939D
:103030000F0160910C0170910D0180910E01909132
:103040000F010E94F01708950E941618089591E04C
:10305000811101C090E090930E0160910C0170917C
:103060000D0180910E0190910F010E94F0170895BB
:1030700080910E01089580930D0160910C01709173
:103080000D0180910E0190910F010E94F01708959B
:1030900080910D01089580930C0160910C01709155
:1030A0000D0180910E0190910F010E94F01708957B
:1030B00080910C010895089508950E945C18089568
:1030C000089508950E945B180895CF930E94601898
:1030D0000E9457110E946118C0E08C2F0E9474104A
:1030E000672B682B692B31F4CF5FC630B1F780E0D6
:1030F000CF91089581E0FCCFCF93DF93EC010E9444
:10310000ED188C1B9D0BDF91CF91089585B78068DA
:1031100085BF85B7806885BF08951F921FB61F922F
:1031200011248F939F93AF93BF938091C10281111C
:1031300013C08091FC029091FD02A091FE02B0911B
:10314000FF024196A11DB11D8093FC029093FD02E8
:10315000A093FE02B093FF02BF91AF919F918F9118
:103160001F901FBE1F90189580910403843031F189
:103170000E94DE021092C10288E190E020E40FB6C6
:10318000F894A895809360000FBE2093600083B7E9
:10319000817F846083BF83B7816083BF7894889583
:1031A00083B78E7F83BF0FB6F894A8958091600097
:1031B000886180936000109260000FBE08950E94A5
:1031C000C5060E94E502089582E084BD93E095BDA6
:1031D0009AEF97BD80936E0008952FB7F894809171
:1031E000FC029091FD02A091FE02B091FF022FBF60
:1031F00008952FB7F8946091FC027091FD028091C0
:10320000FE029091FF022FBF089578941F921FB67F
:103210001F9211248F939F93AF93BF938091FC02D1
:103220009091FD02A091FE02B091FF020196A11DB6
:10323000B11D8093FC029093FD02A093FE02B09317
:10324000FF02BF91AF919F918F911F901FBE1F9062
:103250001895F89481E08093E00080E28093D80094
:10326000E9ECF0E010828FE19EE40197F1F700C0F5
:1032700000001DBA109268001CBC10BE1FBA10924C
:103280007A0010926E0010926F00109270001092EF
:10329000710010821092BC0011B814B817B81AB897
:1032A0001DB810BA12B815B818B81BB81EB811BAA4
:1032B0000C9400FE089588E19AE00FB6F894A89562
:1032C000809360000FBE90936000FFCF9B01BA0116
:1032D000909104039430E9F48F708093E9009FEF9C
:1032E0008091E800915085FD06C085ED8A95F1F743
:1032F00000009111F5CF8091E80085FF0AC050E0F1
:1033000040E0C9010E946C1B8091E8008E77809399
:10331000E800089543E050E0BC0182E00E94661995
:10332000089546E050E0BC0182E00E9466190895CD
:1033300040E250E0BC0182E00E9466190895CF93FC
:10334000DF93EC010E94381848E050E0BE0181E0B4
:103350000E94661988E0FE01A2ECB2E001900D9295
:103360008A95E1F7DF91CF91089580910303811150
:1033700009C00E94FA1C0E945C1D8091E2008460DA
:103380008093E20008951092030308950E94161896
:1033900081E00E94271808956091000381E0611187
:1033A00001C080E00E94051808959091040381E017
:1033B000943009F080E0609100030E941318089592
:1033C00042E061EC81E00E94761C42E261EC82E026
:1033D0000E94761C9091040381E0943009F080E013
:1033E000609100030E94F3170895809106038330D3
:1033F00009F461C030F48130D1F1823009F49EC00B
:1034000008958A3009F48AC08B3009F46FC089307E
:1034100009F050C080910503813209F04BC08091C2
:10342000090390910A03029708F044C08091E800D4
:10343000877F8093E8008091E80082FF37C0809109
:10344000F2009091F300029731F48091F100813005
:1034500011F0863021F48091F1000E943B18809198
:10346000E8008B778093E8000E94AA1C23C080911B
:103470000503813AF9F48091E800877F8093E800A2
:103480008091090390910A03892B61F468E082EC32
:1034900092E070E00E94BB1B8091E8008B778093E4
:1034A000E800089560E090E080E0F3CF80910403AD
:1034B0008111C1CF089580910503813AD9F7809198
:1034C000090390910A03892BA9F78091E800877F6F
:1034D0008093E8008091E80080FFFCCF0E943818BC
:1034E0008093F1008091E8008E77BCCF8091050336
:1034F000813201F78091090390910A03892BD1F65B
:103500008091E800877F8093E8000E94AA1C809148
:1035100007030E9427180E94C5060895809105039D
:10352000813241F68091E800877F8093E8000E9415
:10353000AA1C809108030E944B18089580910503EE
:10354000813A09F0B7CF8091E800877F8093E80047
:103550008091E80080FFFCCF0E945818C1CF84B74B
:10356000877F84BF0FB6F894A8958091600088612A
:1035700080936000109260000FBE80E890E00FB66C
:10358000F89480936100909361000FBE0E9424180C
:1035900008950E94FA1C0E945C1DE2EEF0E080811A
:1035A0008460808378940E94E11F089580E191E017
:1035B0000E944016089580910403853031F4809173
:1035C0000403853019F00E94DF1808950E94B41892
:1035D0000E946518882399F380910203882379F368
:1035E0000E94561B0E94C506EACF08959A01409199
:1035F0000B0350910C030E94FE1A0895492F552782
:103600004330510519F168F44130510509F444C0C3
:103610004230510509F445C090E080E050E040E0C0
:1036200025C04132510549F142325105A9F784E4E0
:1036300090E041EB52E061157105C1F086EB90E03E
:103640004BEF51E06130710589F0E6CF9927813069
:10365000910581F0009729F00297F1F6E8E8F1E092
:1036600002C0EAEAF1E0849190E0AF01F9015183F0
:1036700040830895E2E9F1E0F6CF89E090E040EC84
:1036800051E06115710591F389E090E049ED51E059
:103690006130710559F3C0CF82E190E049EE51E00D
:1036A000E5CF8BE390E04EEA51E0E0CF84E189BDC5
:1036B00086E189BD09B400FEFDCF8091D8008F7DE1
:1036C0008093D8008091E00082608093E000809138
:1036D000E00081FDFCCF0895AF92BF92CF92DF92C0
:1036E000FF920F931F93CF93DF936C01EB018A013D
:1036F0000E94C91CF82E811123C00115110539F053
:10370000F80180819181C81BD90BC80ED91EB12C3C
:10371000A12C2097A9F08091E80085FD22C080911E
:10372000E8008E778093E80001151105A1F0F801FB
:1037300080819181A80EB91EB182A08285E0F82E09
:103740008F2DDF91CF911F910F91FF90DF90CF9040
:10375000BF90AF9008950E94C91C8823D1F2F82E23
:10376000EFCFF60181916F018093F1002197FFEF78
:10377000AF1ABF0ACECFFC0180910B0390910C03CE
:1037800086179707A0F06115710529F49091E8005C
:103790009E779093E80090E06115710551F49111C6
:1037A00008C08091E80082FF33C080E00895BC012A
:1037B000F2CF809104038823B9F18530B9F180916B
:1037C000E80083FD2FC08091E80082FDEACF809160
:1037D000E80080FFE1CF2091F2003091F300611505
:1037E000710519F02830310558F091E02830310585
:1037F00009F090E02091E8002E772093E800CCCFEC
:1038000081918093F100615071092F5F3F4FE7CFA5
:1038100080910403882341F0853041F08091E800D5
:1038200083FFBFCF81E0089582E0089583E008958B
:10383000FC0180910B0390910C0386179707A0F071
:103840006115710529F48091E8008E778093E80076
:1038500090E06115710551F4911108C08091E80064
:1038600082FF34C080E00895BC01F2CF8091040350
:103870008823C1F18530C1F18091E80083FD30C01B
:103880008091E80082FDEACF8091E80080FFE1CFDF
:103890002091F2003091F3006115710519F0283084
:1038A000310558F091E02830310509F090E0809121
:1038B000E8008E778093E800CCCF84918093F1006C
:1038C0003196615071092F5F3F4FE6CF809104031D
:1038D000882341F0853041F08091E80083FFBECF1E
:1038E00081E0089582E0089583E00895982F97304D
:1038F00028F08F708093E90081E008959093E900AB
:10390000242F762F50E0981731F07091EC00209121
:10391000ED005091F00021FD02C09F5FE8CF309193
:10392000EB003E7F3093EB003091ED003D7F309314
:10393000ED003091EB0031603093EB007093EC00C0
:103940002093ED005093F0002091EE0027FDE5CF8D
:1039500080E008958091050387FF13C08091E800FF
:1039600082FF06C08091E8008B778093E80004C056
:10397000809104038111F2CF08958091040388237C
:10398000D9F38091E80080FFF8CF8091E8008E772E
:10399000ECCF2091E4003091E50095E6A90120915B
:1039A000EC00822F817020FF06C08091E80080FF2C
:1039B00006C080E008952091E80022FD1AC08091A1
:1039C0000403882389F0853089F08091EB0085FD20
:1039D0000FC02091E4003091E50042175307F9F23F
:1039E0009150E1F684E0089582E0089583E008951F
:1039F00081E008950E946C1D0E94741DE0EEF0E0CD
:103A0000808181608083E8EDF0E080818F77808322
:103A100019BCA7EDB0E08C918E7F8C9380818F7E56
:103A200080831092030308950F931F93CF93DF9326
:103A30000E946C1D0E94741DC8EDD0E088818F77B4
:103A4000888388818068888388818F7D8883E7ED7B
:103A5000F0E080818068808319BC1092040310928A
:103A60000003109202031092010300EE10E0F8012F
:103A700080818B7F808388818160888342E060E0E1
:103A800080E00E94761CE1EEF0E080818E7F8083F2
:103A9000E2EEF0E0808181608083808188608083B5
:103AA000F80180818E7F8083888180618883DF91A7
:103AB000CF911F910F910895E8EDF0E080818F7E06
:103AC0008083E7EDF0E080818160808381E08093F6
:103AD00003030E94141D0895E8EDF0E080818C7FBF
:103AE00080831092E20008951092DA001092E100B3
:103AF00008951F920F920FB60F9211240BB60F92DA
:103B00002F933F934F935F936F937F938F939F93E5
:103B1000AF93BF93EF93FF938091E10082FF0BC0BF
:103B20008091E20082FF07C08091E1008B7F80934B
:103B3000E1000E94E01F8091DA0080FF19C08091AF
:103B4000D80080FF15C08091DA008E7F8093DA0064
:103B50008091D90080FF98C084E189BD86E189BD4C
:103B600009B400FEFDCF81E0809304030E94B519E3
:103B70008091E10080FF19C08091E20080FF15C0B4
:103B80008091E2008E7F8093E2008091E20080616C
:103B90008093E2008091D80080628093D80019BCA5
:103BA00085E0809304030E94CC198091E10084FF9A
:103BB0002BC08091E20084FF27C084E189BD86E1AB
:103BC00089BD89B5982F917080FFFBCF8091D80077
:103BD0008F7D8093D8008091E1008F7E8093E100FB
:103BE0008091E2008F7E8093E2008091E20081600C
:103BF0008093E20080910003882309F44BC084E0A5
:103C0000809304030E94D5198091E10083FF29C0AD
:103C10008091E20083FF25C08091E100877F80933F
:103C2000E10082E080930403109200038091E100A0
:103C30008E7F8093E1008091E2008E7F8093E2008E
:103C40008091E20080618093E20042E060E080E0E9
:103C50000E94761C8091F00088608093F0000E94A2
:103C6000C619FF91EF91BF91AF919F918F917F9175
:103C70006F915F914F913F912F910F900BBE0F90DD
:103C80000FBE0F901F90189519BC109204030E944C
:103C9000C3196ECF8091E30087FD93E090930403F6
:103CA000B1CF1F920F920FB60F9211240BB60F9245
:103CB0002F933F934F935F936F937F938F939F9334
:103CC000AF93BF93CF93DF93EF93FF93D091E9002E
:103CD000DF708091EC00C82FC17080FDC0E81092A9
:103CE000E9008091F000877F8093F00078940E9433
:103CF000991E1092E9008091F00088608093F00096
:103D0000CD2BCF70C093E900FF91EF91DF91CF9160
:103D1000BF91AF919F918F917F916F915F914F91E3
:103D20003F912F910F900BBE0F900FBE0F901F90E1
:103D30001895AAE2B0E0EFE9FEE10C94282085E0B6
:103D400093E02091F100FC012193CF01F3E08D304D
:103D50009F07B9F70E94F5198091E80083FF1EC103
:103D600080910503909106039A3008F017C1E92F5E
:103D7000F0E0ED5FFE4D0C941020803899F0823811
:103D800009F00CC1809109038F70873008F006C1DB
:103D90008093E9008091EB0085FB882780F91092E1
:103DA000E90006C0809101039091020391118260A5
:103DB0009091E800977F9093E8008093F100109233
:103DC000F1008091E8008E77E5C0882309F4D3C024
:103DD000823009F0E3C0809107038111D6C0809141
:103DE00009038F702FEF280F263008F0D7C080937B
:103DF000E9002091EB0020FFC8C0933031F480919E
:103E0000EB0080628093EB00C0C09091EB0090616A
:103E10009093EB0021E030E001C0220F8A95EAF791
:103E20002093EA001092EA008091EB008860EACFCC
:103E30008111B4C0109107031F778091E30080784F
:103E4000812B8093E3008091E800877F8093E800D6
:103E50000E94AA1C8091E80080FFFCCF8091E300C3
:103E600080688093E30082E0111183E08093040373
:103E700095C08058823008F091C0809107039091DE
:103E800008038C3D23E09207A1F583E08A838AE250
:103E900089834FB7F894DE01139620E03EE051E2AB
:103EA000E32FF0E050935700E49120FF03C0E29528
:103EB000EF703F5FEF708E2F90E0EA30C0F0C79652
:103EC0008D939D932F5F243159F74FBF8091E80068
:103ED000877F8093E8006AE270E0CE0101960E943D
:103EE000BB1B8091E8008B778093E80057C0C09699
:103EF000E7CF6091090370910A03AE014F5F5F4FF6
:103F00000E94F61ABC01892B09F448C09091E80080
:103F1000977F9093E80089819A810E94181CE1CFD5
:103F20008038E1F58091E800877F8093E8008091F8
:103F300000038093F10045CF811130C090910703B9
:103F4000923060F58091E800877F8093E80090933D
:103F500000030E94AA1C80910003882311F084E0D2
:103F600005C08091E30087FDFACF81E080930403D0
:103F70000E94E01913C080910703813079F481E039
:103F8000933009F080E0809302031092E900809161
:103F9000E800877F8093E8000E94AA1C8091E800D7
:103FA00083FF0AC08091E800877F8093E8008091BA
:103FB000EB0080628093EB00AA96E3E00C9444202F
:103FC0000895CF93809104038823A1F0C091E90064
:103FD000CF709091EC00892F817090FD80E8C82B04
:103FE0001092E9008091E80083FD0E94991ECF7035
:103FF000C093E900CF91089597FB072E16F4009423
:1040000007D077FD09D00E94502007FC05D03EF470
:10401000909581959F4F0895709561957F4F089574
:10402000EE0FFF1F0024001C0BBE0790F691E02D41
:1040300009942F923F924F925F926F927F928F924C
:104040009F92AF92BF92CF92DF92EF92FF920F9327
:104050001F93CF93DF93CDB7DEB7CA1BDB0B0FB631
:10406000F894DEBF0FBECDBF09942A8839884888EE
:104070005F846E847D848C849B84AA84B984C88484
:10408000DF80EE80FD800C811B81AA81B981CE0F7B
:10409000D11D0FB6F894DEBF0FBECDBFED01089560
:1040A000AA1BBB1B51E107C0AA1FBB1FA617B7075E
:1040B00010F0A61BB70B881F991F5A95A9F780957A
:1040C0009095BC01CD010895FB01DC0104C08D91E8
:1040D0000190801921F441505040C8F7881B990B7A
:1040E0000895FB01DC0102C001900D924150504047
:1040F000D8F70895F999FECF92BD81BDF89A992716
:1041000080B50895A8E1B0E042E050E00C94BE20F4
:10411000DC01A40FB51F4150504048F0CB01840F83
:10412000951F2E910E94992041505040D0F708953C
:10413000262FF999FECF92BD81BDF89A019700B460
:10414000021639F01FBA20BD0FB6F894FA9AF99A00
:104150000FBE08950396272F0E9499200E94982051
:10416000252F0E949920242F0C9499200196272F07
:104170000E9499200C949820DC01CB01FC01F99954
:10418000FECF06C0F2BDE1BDF89A319600B40D92A3
:1041900041505040B8F70895F894FFCFBF04BF04D2
:1041A000FD04FD0461057D05EE04EE048205F305C2
:1041B00002060206901204139812621266129C12F2
:1041C0006A12A012AC127612FD127A12B0127E128E
:1041D000B412DC128212B812E3128812BE12C61296
:1041E0006E12A4127212A8128C12C212D212EC1207
:1041F000FB125C1294120B1319161F1608161316D5
:1042000025162B163116BD1EE51ECE1FE51ECE1F30
:0A421000181F391FCE1F901F9C1FBE
:10421A005A027A02280850011E0A140100000100FD
:10422A0048189F19981991198A19E200E900EA00B9
:10423A00B500B600B700CD008301CC008A01920117
:10424A0094012102230224022502260227022A02BD
:10425A00B300B4006F0070009F01CB019F02A0025F
:10426A00818283E200E900EA00B500B600B700CD1A
:10427A00008301CC008A01920194012102230224C5
:10428A00022502260227022A02B300B4006F007038
:10429A00009F01CB019F02A0028182839565303184
:1042AA003233343536C7C6F0F7F6F5F4F3F2F16671
:0642BA00379091929394ED
:00000001FF
