:100000000C94FB030C9418040C9418040C9418041E
:100010000C9418040C9418040C9418040C941804F0
:100020000C9418040C9418040C9491260C946527D5
:100030000C9479200C9418040C9418040C94180453
:100040000C9418040C9418040C9418040C941804C0
:100050000C9418040C94F1200C9418040C941804BB
:100060000C9418040C9418040C9418040C941804A0
:100070000C9418040C9418040C9418040C94180490
:100080000C9418040C9418040C9418040C94180480
:100090000C9418040C9418040C9418040C94180470
:1000A0000C9418040C9418040C941804000000001C
:1000B0000000000000000000000000000000000040
:1000C0000000000000000000000000000000000030
:1000D0000000000000000000000000000000000020
:1000E0000000000000000000000000000000000010
:1000F0000000000000000000000000000000000000
:1001000000000000000000000000000000000000EF
:10011000F0F0F0F0F0F0F0F0F0F0F0F0F0F0F0F0DF
:1001200000000000000000000000000000000000CF
:10013000000000000000000000000000F0F0F0F0FF
:10014000F0F0F0F0F0F0F0F0F0F0F0F0F0F0F0F0AF
:10015000F0F0F0F0F0F0F0F000000000000000001F
:10016000000000000000000000000000000000008F
:10017000000000000000000000000000000000007F
:1001800000000000F0F0F0F00F0F0F0F0F0F0F0F37
:10019000000000000000000000000000000000005F
:1001A0000F0F0F0FF0F0F0F000000000F0F0F0F093
:1001B0000F0F0F0FFFFFFFFFFFFFFFFFFFFFFFFF0F
:1001C000000000000000000000000000FFFFFFFF33
:1001D000F0F0F0F0F0F0F0F00F0F0F0F0F0F0F0F27
:1001E0000F0F0F0FF0F0F0F0F0F0F0F00000000053
:1001F00000000000000000000000000000000000FF
:10020000FFFFFFFF000000000000000000000000F2
:100210000F0F0F0FFFFFFFFF0F0F0F0F000000006A
:1002200000000000FFFFFFFF00000000F0F0F0F012
:100230000F0F0F0F00000000000000000000000082
:100240000F0F0F0FF0F0F0F00F0F0F0F0000000076
:1002500000000000000000000F0F0F0FF0F0F0F0A2
:100260000F0F0F0F00000000000000000F0F0F0F16
:10027000F0F0F0F00000000000000000FFFFFFFFC2
:10028000000000000000000000000000000000006E
:10029000000000000000000000000000000000005E
:1002A000F0F0F0F00F0F0F0F000000000000000052
:1002B0000F0F0F0FF0F0F0F0F0F0F0F0F0F0F0F0C2
:1002C0000F0F0F0F000000000F0F0F0FF0F0F0F0F6
:1002D000F0F0F0F0F0F0F0F0FFFFFFFFF0F0F0F0E2
:1002E000FFFFFFFFFFFFFFFFFFFFFFFF0F0F0F0FDE
:1002F0000F0F0F0F0F0F0F0F0F0F0F0FFFFFFFFF4E
:1003000000000000000000000000000000000000ED
:1003100000000000F0F0F0F0F0F0F0F00F0F0F0F21
:1003200000000000000000000000000000000000CD
:1003300000000000FFFFFFFF00000000FFFFFFFFC5
:1003400000000000000000000000000000000000AD
:100350000F0F0F0FF0F0F0F0F0F0F0F0FFFFFFFFE5
:100360000F0F0F0F00000000000000000000000051
:100370000000000000000000FFFFFFFF0000000081
:10038000000000000000000000000000F0F0F0F0AD
:100390000F0F0F0F00000000000000000000000021
:1003A000000000000000000000000000FFFFFFFF51
:1003B000FFFFFFFFFFFFFFFFFFFFFFFFFFFFFFFF4D
:1003C000FFFFFFFFFFFFFFFFFFFFFFFFFFFFFFFF3D
:1003D000FFFFFFFF0F0F0F0F0F0F0F0F00000000A9
:1003E0000000000000000000F0F0F0F0F0F0F0F08D
:1003F0000F0F0F0F0F0F0F0F000000000000000085
:1004000000000000F0F0F0F0FFFFFFFF0000000030
:1004100000000000000000000000000000000000DC
:1004200000000000000000000000000000000000CC
:1004300000000000000000000000000000000000BC
:1004400000000000000000000000000000000000AC
:10045000000000000000000000000000F0F0F0F0DC
:10046000F0F0F0F00F0F0F0FF0F0F0F0F0F0F0F010
:100470000000000000000000F0F0F0F0F0F0F0F0FC
:100480000F0F0F0FFFFFFFFF000000000000000034
:10049000000000000000000000000000000000005C
:1004A0000000000000000000000000001E001F000F
:1004B0002000210022002300240025001E0F05003B
:1004C000047F3F1F643214643214783C1E1E140AE9
:1004D000052223252628292A2C2D2F303233353684
:1004E000383A3B3D3E4042434547494A4C4E5051C5
:1004F000535557595A5C5E6062646668696B6D6FEC
:1005000071737577797B7D7F81838587898A8C8EEE
:1005100090929496989A9C9E9FA1A3A5A7A8AAACF6
:10052000AEAFB1B3B4B6B8B9BBBCBEBFC1C2C3C530
:10053000C6C7C9CACBCCCDCED0D1D2D2D3D4D5D6D2
:10054000D7D7D8D9D9DADADBDBDBDCDCDCDCDCDD05
:10055000DDDDDDDCDCDCDCDCDBDBDBDADAD9D9D8E9
:10056000D7D7D6D5D4D3D2D2D1D0CECDCCCBCAC981
:10057000C7C6C5C3C2C1BFBEBCBBB9B8B6B4B3B1B0
:10058000AFAEACAAA8A7A5A3A19F9E9C9A9896944B
:1005900092908E8C8A89878583817F7D7B79777520
:1005A00073716F6D6B6968666462605E5C5A5957FF
:1005B000555351504E4C4A4947454342403E3D3BBE
:1005C0003A3836353332302F2D2C2A292826252348
:1005D00022FFAA7F55400001010101010101010133
:1005E00002020202020202020203030303030303E4
:1005F00003040404040404040505050505060606B1
:100600000606070707070708080808090909090A6D
:100610000A0A0B0B0B0C0C0C0D0D0D0E0E0E0F0F12
:100620000F101011111112121313141415151616A0
:100630001717181819191A1A1B1B1C1D1D1E1E1F0F
:100640002020212222232424252626272829292A5E
:100650002B2C2D2D2E2F3031323233343536373886
:10066000393A3B3C3D3E3F40414243444546474882
:10067000494A4C4D4E4F50515354555658595A5B58
:100680005D5E5F616264656668696B6C6D6F7072F8
:10069000737577787A7B7D7E8082838587888A8C64
:1006A0008E8F91939596989A9C9EA0A2A3A5A7A998
:1006B000ABADAFB1B3B5B7BABCBEC0C2C4C6C9CB8F
:1006C000CDCFD1D4D6D8DBDDDFE2E4E7E9EBEEF045
:1006D000F3F5F8FAFDFF00AE00AF00DA128180D921
:1006E000F1DB20A4A62EAF00A0C0D30000A1C8D388
:1006F0000000AED580A83F408D14200012035400A6
:100700007500740065006C0050006100640000001A
:100710001C03490074007300460069007200650004
:100720006D0061006E00530061006D000000040365
:10073000090409023B00020100A0FA0904000001BB
:100740000301010009211101000122440007058174
:100750000308000109040100010300000009211140
:10076000010001223200070582032000011201006E
:10077000020000000800CB9FF0010001020001050B
:10078000010980A101850319012AB700150126B7C7
:1007900000950175108100C0050C0901A1018504B7
:1007A00019012AA002150126A002950175108100E9
:1007B000C005010906A101050719E029E715002573
:1007C00001950875018102950175088101050719D8
:1007D0000029FF150026FF00950675088100050811
:1007E000190129051500250195057501910295014D
:1007F00075039101C00011241FBECFEFDAE0DEBF08
:10080000CDBF11E0A0E0B1E0E0E9F6E502C005905F
:100810000D92AC3EB107D9F727E0ACEEB1E001C0D4
:100820001D92AE30B207E1F70E9412130C94FC2A1D
:100830000C94000082E008950E94D11C882331F0BE
:1008400060E074E08CEA90E00E94631B80E0089511
:10085000811111C0623078F4443068F484E0689FFC
:10086000F0011124E40FF11DEE0FFF1FE455FB4FC3
:1008700085919491089581E090E008950E94280464
:10088000089581E008950E94410408950E94410462
:10089000089581E008950E94410408950E94410452
:1008A00008950E944E040895089508950E945404E6
:1008B000089508950895A6E0B0E0E1E6F4E00C9410
:1008C000A82949835A839E833091F30189819A81B3
:1008D00031111AC03E81332399F0222389F00E94FE
:1008E0001F0A182F682F89819A810E94FC0969814B
:1008F0007A81812F0E940E112696E3E00C94C42980
:100900000E940D0A182FF3CF0E941F0A69817A8175
:10091000F1CFFC01262F4081518162817381848156
:1009200095810E945B040895CF93DF93EC0161E011
:100930000E948904BE010E944304882359F061E0AB
:10094000CE010E948904BE010E9446048170DF919D
:10095000CF91089580E0FACF0F931F93CF93DF9349
:10096000EC0160E00E9489048C01BE010E945504E4
:10097000BE01C8010E945604DF91CF911F910F91D3
:10098000089521E030E0A90102C0440F551F8A9567
:10099000E2F7CA010E941E090895CF93C82F81E093
:1009A00090E00C2E02C0880F991F0A94E2F70E9473
:1009B0005B0E8C2F0E94C104CF91089581E00895B1
:1009C0000E94DE0408950E94DE040895CF93C82F8C
:1009D0000E94D1088C2F0E94E0048C2F0E94E30417
:1009E0002FEF84E39CE0215080409040E1F700C06D
:1009F0000000CF91089581E00E94E6040E94152135
:100A0000089580E00E94E6040E94262108950F9335
:100A10001F93CF93DF938C0161E00E948904EC0166
:100A2000F801858181110E94B71AB801CE010E9498
:100A30004B04811106C080E0DF91CF911F910F918F
:100A40000895B801CE010E9451048823A1F3B80192
:100A5000CE010E94C71E882371F3B801CE010E9407
:100A6000871D882341F3B801CE010E945D1D8823B4
:100A700011F3B801CE010E942C138823E1F2B801D2
:100A8000CE010E9412128823B1F2F80185818823D9
:100A900061F0C330FCE7DF07E9F058F4C115ECE77B
:100AA000DE07A9F0C130DC47B9F0C8010E94490453
:100AB000C3CFCB358CE7D807A9F0CC35ECE7DE0700
:100AC00071F0CA35DC4789F70E94360EEECF0E94DE
:100AD000FB04B1CF0E943E0E0E940105ACCF0E94E4
:100AE0002C0EE3CF0E943A0EE0CF0E9459040E94E0
:100AF0004B200E949F050E941A190E94B61C08955F
:100B00000E94A3050E940E1A0E945A040E945020BF
:100B1000089581E008950895CF93DF93D82F0E9420
:100B20008905C82F882319F08D2F0E948B058C2FE3
:100B3000DF91CF91089508950E948C05089580E07B
:100B40000E949C0508950E94101F0E949C05089514
:100B5000CF930E94101FC82F8091EE018C1779F05F
:100B6000C093EE010E94E5206093EF017093F001C5
:100B70008093F1019093F2018C2F0E949C05CF91FC
:100B80000895ADE0B0E0E7ECF5E00C94A9294887C2
:100B900059876A877B878C879D8791110E946C0D8E
:100BA0001F8286E0FE013896DE01119601900D92BB
:100BB0008A95E1F78D8181110DC029813A814B81A0
:100BC0005C816D817E818F810E94B60C2D96E2E062
:100BD0000C94C529CE0101960E9494048111EDCF99
:100BE000F5CFFC012481213021F4808191810E9484
:100BF000510A0895CF93C82F882399F08CEF8C0F5A
:100C0000813A88F48C2F0E94871F882329F08C2F2B
:100C10000E94CA1F0E94DB0D8C2F0E94C21F0E94DF
:100C2000DB0DCF91089580E28C0F883048F4C770B7
:100C300081E001C0880FCA95EAF70E944F0DEFCFFF
:100C4000EBE5EC0FE33040F4F0E0EC59FE4F80812F
:100C500090E00E94281FE5CFC85ACB3110F7EC2F47
:100C6000F0E0EE0FFF1FE25DFE4F808191810E9458
:100C70004D1FD7CF882339F19CEF980F913A28F474
:100C80000E94CA1F0E94DB0D089590E2980F9830D1
:100C900050F4877091E001C0990F8A95EAF7892F87
:100CA0000E94550DEFCF9BE5980F933028F490E00C
:100CB00080E00E94281F0895885A8B3120F490E02C
:100CC00080E00E944D1F08951F93CF93DF93182F4C
:100CD000EB010E94FA05209739F4812F0E943A0611
:100CE000DF91CF911F9108958FE99FE00197F1F770
:100CF00000C000002197EFCF70E060E0893311F46D
:100D000060E570E00E9464060895882321F00E9447
:100D10004F0D0E94DB0D0895882321F00E94550D90
:100D20000E94DB0D0895B0E0A0E0E9E9F6E00C9444
:100D3000A2296C01D62FC72FFC01158106810295CF
:100D40000F700E94450DE82E8823F9F0E12E112343
:100D5000E1F08C2F807F803461F080E28D0F88304D
:100D600008F18C2F807E803221F4D230D8F000231D
:100D7000C9F08091DE0282FF15C082E00E94000E61
:100D80000E94450D91E0E82EE926BC2EB2949FE02A
:100D9000B922FBE0FB15B8F1EB2DF0E0E250F54D88
:100DA0000C946229E12CF1CF0C2F0F70C07F11F051
:100DB0000295007F112399F0002359F080E28D0FF6
:100DC000883010F0D11107C0802F0E944F0D0E9473
:100DD000DB0D8D2F48C0802F0E945F0DF8CF8D2F27
:100DE0000E943A06002379F080E28D0F883010F0DF
:100DF000D11104C0802F0E94550D03C0802F0E9486
:100E0000650D0E94DB0DEB2DE850FF0B349708F0C9
:100E100066C10E94101F0E949C05CDB7DEB7E9E0B5
:100E20000C94BE292C2F2F70F22EC07FC03219F0E7
:100E3000F29480EFF822DD2341F0D130C9F1112383
:100E400009F443C00023E9F0C4CF8091DE0282FDA3
:100E500014C0112359F0FF2029F08F2D0E944F0D4F
:100E60000E94DB0D80E00E94FA05CDCF80E00E9459
:100E70003A06FF2041F28F2DBECF112369F00111F8
:100E800004C08F2D0E948506BECF013009F0BBCF74
:100E90008F2D0E94830DB7CF0111B5CF8F2D0E94EA
:100EA0008C068F2D0E948F0D8F2D0E94730DABCF5E
:100EB000112321F0063008F0A6CFE3CF053008F06B
:100EC000A2CF8F2D0E948C069ECF0023D1F3D93361
:100ED00049F43FEF87EE93E0315080409040E1F7D6
:100EE00000C000008D2F0E943A068DCF8C2F869572
:100EF0008695837069F0813009F085CF8D2F9C2F06
:100F00009370111102C080E090E00E944D1F7BCFD2
:100F10008D2F9C2F9370111102C080E090E00E94F1
:100F2000281F71CF8C2F8370A1F511116CCF4D2F1D
:100F3000429546954770440F440F2D2F2F7030E097
:100F4000042E02C0220F331F0A94E2F790E080E0E3
:100F5000D4FF09C08FE090E002C0880F991F4A9526
:100F6000E2F780959095C695C695C370822B932B1A
:100F7000C23049F058F4C13019F00E942A0943CF19
:100F80000E94210940CF0E9433093DCF0E941E09D3
:100F90003ACF8695112311F08C2F8170882309F4A4
:100FA00032CF4D2F429546954770440F440F2D2F59
:100FB0002F7030E0042E02C0220F331F0A94E2F794
:100FC00090E080E0D4FF09C08FE090E002C0880F7D
:100FD000991F4A95E2F780959095C695C695C3707E
:100FE000822B932BC23049F058F4C13019F00E9483
:100FF000950909CF0E948C0906CF0E949E0903CF54
:101000000E94420900CFCF70112329F08C2F0E943B
:101010005A098D2F37CF8D2F0E948C068C2F0E945E
:101020006A09F1CED23F41F160F4D03FB9F0D13F2F
:1010300081F0112309F443C00111CBCE8C2F8F71A5
:101040001FC0D33F01F1D43FA1F78091DE0282FDA2
:1010500024C08C2F8F71112311F312C0112341F082
:10106000053008F0D0CE8C2F8F710E947C09CBCE3A
:10107000063008F0C8CEF7CF8C2F8F711111CFCF6B
:101080000E945A09C0CE112329F08C2F8F710E9423
:101090004E09B9CE0E944909B6CE112331F063E062
:1010A0008C2F8F710E94E20DAECE81E00E94000E67
:1010B000023008F4A8CE82E00E94000EA4CE0023E5
:1010C00059F0D93309F00ECFEFEFF7EE23E0E150FE
:1010D000F0402040E1F704CF8C2F8F71A0CFEE209D
:1010E00009F49BCE0E94410D80FD97CEF60115823A
:1010F0000E943B0D0E945A09C6010E949C080E9452
:101100003B0D0E946A0989CE0F931F93CF93DF9303
:10111000EC01688179818D810E945C0A8C010E94BA
:10112000A7090E941D09B801CE010E949306DF9114
:10113000CF911F910F910895CF93DF93EC018C8194
:10114000882399F0CE010E940705811111C00E94E9
:10115000450D882351F08D81882339F08091DE027E
:1011600082FF03C082E00E94000EDF91CF910895BC
:10117000CE010E948408CE010E94AC04F6CF90E01C
:1011800080E00E94281F90E080E00E944D1F0E9496
:101190006C0D0E94DB0D08950E94D21F0E94BF08B3
:1011A00008950E945C0D0E94CC08089592959F704E
:1011B000963091F058F4925F9F70923058F4803FCF
:1011C00019F030F4883E30F481E008959A5FF4CF4E
:1011D000843FD1F380E00895883EB0F3813FD1F79A
:1011E000F3CFFC012481222339F0808191810E9478
:1011F000510A0E94D608089580E00895A6E0B0E064
:10120000E4E0F9E00C94A9292696E2E00C94C529C3
:10121000A7E0B0E0EEE0F9E00C94A9292796E2E01F
:101220000C94C52908950E94120908950E9413097B
:101230009093FB018093FA01089508950E94160986
:1012400008952091FA013091FB01822B932B0E948B
:10125000160908952091FA013091FB01822393230E
:101260000E94160908952091FA013091FB0182270E
:1012700093270E94160908950E94120908950E945A
:101280003C0908950E943F099093F9018093F80169
:10129000089590E080E00E944209089521E030E046
:1012A000A90102C0440F551F8A95E2F7CA010E94A6
:1012B0004209089521E030E002C0220F331F8A95D1
:1012C000E2F78091F8019091F901822B932B0E9413
:1012D0004209089521E030E002C0220F331F8A95B1
:1012E000E2F7209530958091F8019091F9018223E1
:1012F00093230E944209089521E030E002C0220FAA
:10130000331F8A95E2F78091F8019091F9018227C5
:1013100093270E94420908952091F8013091F90124
:10132000822B932B0E94420908952091F80130915D
:10133000F901822393230E94420908952091F80124
:101340003091F901822793270E9442090895089558
:10135000262F277091E001C0990F2A95EAF723E024
:10136000769567952A95E1F7660F771F660F771FC9
:10137000FA01E60FF71F50E040E0682F70E081911E
:10138000DF0111979B01042E02C0369527950A9420
:10139000E2F7217021952827292328272C934F5FD6
:1013A0005F4F4430510559F70895A82FA77023E0E7
:1013B000969587952A95E1F7880F991F880F991FB1
:1013C000FB01E80FF91F50E040E080E0219130E0A0
:1013D0000A2E02C0369527950A94E2F7217033272A
:1013E000042E01C0220F0A94EAF7822B4F5F5F4F51
:1013F0004430510559F70895262F923068F484300F
:1014000058F434E0939FB0011124680F711D44EF2C
:1014100051E0822F0E94A8090895923070F4843020
:1014200060F444E0949F9001112464EF71E0820F16
:10143000932F911D0E94D509089580E00895B0E092
:10144000A0E0E5E2FAE00C94A2297C010091F80109
:101450001091F9018091FA019091FB01082B192B51
:10146000CFE0D0E0CC24C394D12CBC2EC6010C2EEE
:1014700002C0880F991F0A94E2F780239123892BD9
:1014800049F4219790F7B12C8B2DCDB7DEB7E9E069
:101490000C94BE29B7018C2F0E941A11019789F371
:1014A000F3CFCF93DF93EC010E941F0ABE010E948D
:1014B0001A11DF91CF9108951F93CF93DF93EB0122
:1014C0009091F301992339F0CB010E94510ADF91E9
:1014D000CF911F910895882369F0CB010E941F0AC4
:1014E000182F682FCE010E94FC09BE01812F0E9497
:1014F0001A11EDCFCB010E940D0A182FF6CF1F93C2
:10150000CF93DF93C091FC0117E08091FD018C1314
:1015100004C0DF91CF911F910895D0E01C9FF0018E
:101520001D9FF00D1124E250FE4F20813181428138
:1015300053816481758186810E9408092196C77054
:10154000E4CF209136023091370240913802509119
:10155000390260913A0270913B0280913C020E94F4
:1015600008090895CF93DF9380913C02807F09F0B2
:101570004DC080913B02882309F448C0E091FC01F2
:101580005091FD01C0913702D0913602609138022E
:101590007091390247E05E17C9F18E2F90E0E49F09
:1015A000F0011124E250FE4F2481222391F1489F43
:1015B000F001499FF00D1124DF01A250BE4F11969A
:1015C0002C9111972C1325C02C912D1322C0159608
:1015D0002C91159721111DC012962D913C91261B1F
:1015E000370B283C3105A8F480913C028F70806154
:1015F00080933C02EC5FFD4F80818F70806180831F
:1016000086E392E00E949C080E947F0ADF91CF91BE
:101610000895FC013196E770BECF482F2091FC0160
:101620009091FD0157E0291302C080E0089530E059
:10163000529FF001539FF00D1124E250FE4F818123
:10164000681306C08081481303C085818111EECFE5
:101650002F5F3F4F2770E7CFA4E1B0E0E2E3FBE06C
:101660000C949F298C0186E0F801DE011F96019001
:101670000D928A95E1F7F8018481E58096E3A92E21
:1016800092E0B92E90913A0291111FC08823D1F0B7
:10169000EE20A9F0C8010E94F108F82E882379F005
:1016A00087E0F801D50101900D928A95E1F7C50117
:1016B0000E94F1050E94B20A0E94A10A5FC0C801FF
:1016C0000E949C08FF24F39459C0C080D18082807E
:1016D0009380F0903B022091380230913902A401AE
:1016E000421B530BFF2009F4F9C0483C510508F098
:1016F000A7C0882309F442C09091370280913C0230
:10170000282F207F09F05CC09D1116C090913602F1
:10171000C91212C0E1104EC08F70806180933C02EC
:101720000E94A10A86E392E00E949C0880913C02FC
:10173000F8018683F12C22C0E1103CC06D2D8C2D68
:101740000E940D0B6D2D8C2D0E940D0BE82E81112A
:10175000F1CFCF86D88A8F8598890E94510A292F88
:1017600022952F70243078F49F702230A8F09923AE
:10177000B9F0F8019681907F99F4FE2C8F2D649634
:10178000ECE00C94BB292A5F2F70223068F0C8016E
:101790000E949C08EF2CF1CF992311F0882369F364
:1017A000805E883050F3F3CF803F38F3815F833021
:1017B00070F7E3CF80913C02816080933C02BACF06
:1017C0009D1113C090913602C9120FC0E1100DC0D7
:1017D0008683C8010E949C0887E0F801A6E3B2E076
:1017E00001900D928A95E1F767CFC8010E94F10838
:1017F000882309F464CFEE2009F461CF80913C0284
:10180000803288F02091360230913702398728875C
:101810009B868A8690913A029C871D868E87CE0190
:1018200008960E949C0887E0F801A6E3B2E00190C8
:101830000D928A95E1F70E94B20A0E94A10A42CF56
:1018400090913C02292F207FA1F4682D9A8A898AE1
:10185000A6017A899E2D0E94FE0886E392E00E94EE
:101860009C0887E0F50111928A95E9F70E94A10A88
:1018700061CF882309F482CF809137028D1110C087
:1018800080913602C8120CC0E1100AC09683C801CC
:101890000E949C0887E0F50111928A95E9F76ECFC6
:1018A000C8010E94F108882309F409CFEE2009F449
:1018B00006CF80913C02803208F4B5CF20913602E9
:1018C000309137023A8329839C828B8290913A022D
:1018D0009D831E828F83CE010196A3CF483C510584
:1018E000B8F5882309F4EECEFE2CEE2009F4E7CEFD
:1018F000809137028D111EC080913602C8121AC025
:1019000080913C0280FD0DC0982F907F51F086831E
:10191000903F09F45ECF982F907F905F8F70892B56
:1019200057CF87E0F801A6E3B2E001900D928A95C7
:10193000E1F724CFC8010E94F108811174CF809192
:101940003C02816080933C02C8010E949C0816CF33
:10195000682D9A8A898AA6017A899E2D0E94FE089E
:1019600087E0F50111928A95E9F7A6CEAEE0B0E0E6
:10197000ECEBFCE00C94A829288739874A875B8721
:101980006C877D878E87CE0108960E942C0B88235A
:10199000B1F06C85662341F0288539854A855B85E1
:1019A0007D858E850E94080917E08091FC01909149
:1019B000FD0189133DC02E96E3E00C94C42987E015
:1019C000FE013896DE01119601900D928A95E1F79D
:1019D0008C85882349F32091FD0130E0C9010196EF
:1019E000877099274091FC014817190699F097E0F4
:1019F000929FD001939FB00D1124A250BE4FFE01C3
:101A0000319601900D929A95E1F78093FD010E9425
:101A10007F0ACACF0E94D1081092FD011092FC01EA
:101A200087E0E6E3F2E0DF011D928A95E9F7BCCF9B
:101A3000819FC001112482509E4F0E942C0B88234D
:101A400009F4B9CFE091FC011E9FF0011124E2508E
:101A5000FE4F20813181428153816481758186816D
:101A60000E9408098091FC0190E0019687709927F7
:101A70008093FC019ACF8091450286958695869544
:101A8000089580914502877008959091450297705E
:101A900081E009F480E008958091510208959091C9
:101AA0005102892B809351020895809590915102A3
:101AB00098239093510208951092510208959091A5
:101AC0005002892B80935002089580959091500286
:101AD000982390935002089510925002089508950B
:101AE0000E946F0D089590914602292F282331F00E
:101AF00080958923809346020E94700D0895089571
:101B00000E947F0D089590914702292F28232817BE
:101B100029F0982B909347020E94800D0895909190
:101B20004702292F282331F080958923809347028B
:101B30000E94800D089580914702882329F0109219
:101B4000470280E00E94800D08950F931F93CF936A
:101B5000DF930091040110910501C0915102809121
:101B60005002C82B80914702882331F0C82B0E9475
:101B7000721F81110E949B0DF801C083C091040166
:101B8000D091050148E050E06DE372E0CE010E9483
:101B90006F2A892B59F088E0FE01ADE3B2E0019095
:101BA0000D928A95E1F7CE010E941D1FDF91CF9122
:101BB0001F910F9108950E94A50D089508950E9408
:101BC000DE0D08959091DE0292FF11C098E0899F8A
:101BD00090011124622B609345020E945A09809162
:101BE00045028695869586950E94DF0D08950E9490
:101BF0005A0908951092450280E00E94DF0D089571
:101C0000909145028095892380934502282F277063
:101C100069F4891759F09091DE0292FF07C086950A
:101C2000869586950E946A090E94FA0D0895909102
:101C3000DE0292FB222720F9281769F080FB92F937
:101C40009093DE028091DD029091DE020E94660E8A
:101C500082E00E94000E08958091DE0282FB8827B8
:101C600080F991E089270E94170E089581E00E9473
:101C7000170E089580E00E94170E08956FEF7FEF12
:101C800090E080E00E94C72A089590E080E00E94E2
:101C9000932A21E0853E9E4F09F020E0822F08958F
:101CA00082E090E00E94852A089583E090E00E94FF
:101CB000852A90E00895682F83E090E00E94A92A89
:101CC000089584E090E00E94932A0895BC0184E086
:101CD00090E00E94C72A0895AB01BC018FE090E01C
:101CE0000E94BB2A0895AB01BC0183E190E00E94F1
:101CF000BB2A089560E070E0CB010E94730E089546
:101D000060E070E0CB010E946C0E0E947A0E089594
:101D1000A8E0B0E0EEE8FEE00C94A92965EE7EEFC5
:101D200090E080E00E94C72A60E082E090E00E949C
:101D3000A92A81E090E09093FB018093FA010E9430
:101D40005B0E60E074E184E090E00E94C72A60E0EE
:101D500086E090E00E94A92A60E087E090E00E947F
:101D6000A92A40E050E0BA0188E090E00E94BB2A36
:101D700060E083E290E00E94A92A60E08CE090E0BD
:101D80000E94A92A60E08DE090E00E94A92A1982B1
:101D90001A821B821C821D821E821F82188648E0C6
:101DA00050E067E170E0CE0101960E94992A40E080
:101DB00050E0BA018FE190E00E94BB2A0E94800EA1
:101DC0002896E2E00C94C5290E94880E0895682F99
:101DD0008EE090E00E94A92A0895A6E0B0E0E3EF2B
:101DE000FEE00C94A7290E94D9208C018091520218
:101DF000909153028017910781F019821A820E94F4
:101E0000D920682F49815A81792F80E090E00E9483
:101E1000C10510935302009352022696E4E00C94FD
:101E2000C3290E94E52060935A0270935B0280935D
:101E30005C0290935D026093560270935702809308
:101E40005802909359020895089508950E94240F0E
:101E5000089508950E94290F0E94260F089508955D
:101E60000E942F0F089508950E94330F0E94300F93
:101E7000089580E192E10E9427130E94250F0E949D
:101E80002A0F089581E008950E94420F08950E944C
:101E9000420F08950895089508950E944A0F0E94E0
:101EA0004B0F0E944C0F08950E94450E811102C0F5
:101EB0000E94E40E0E94500E80935E020E94610E0A
:101EC0009093DE028093DD020E945A1D0E94550EFF
:101ED0000E941E098091F8019091F9010E943F092A
:101EE00008950E94D0200E948F120E94540F0E94D9
:101EF0009B0580E00E94001B0E94C3190E94340FC2
:101F00000895A6E0B0E0E7E8FFE00C949F290E9466
:101F1000440FC82E811110C00E94ED0EC12C0E94EA
:101F2000B81A0E94D31CC1100E94A31B0E94A805CE
:101F30002696ECE00C94BB290E949F12109154024B
:101F400080E00E942C12181307C01091550281E006
:101F50000E942C12181701F380915E0281FD0E94ED
:101F600032120E94470F982E84E5A82E82E0B82EE8
:101F700010E088248394812F0E942C12082FF501F1
:101F800081915F01081729F1F12CEE24E394D02E02
:101F9000D8268D2D8E21A9F0992099F0F9821A83E7
:101FA0000E94D9209C838B838D8291E0802F8E218B
:101FB00009F490E049815A816B817C818D810E9476
:101FC000C105F394EE0CF4E0FF12E3CFF501319775
:101FD0000083113019F40E94110FA1CF11E0CBCF73
:101FE0001F93CF93DF930E941F11EC01C11580E571
:101FF000D807F0F5C11580E4D80708F09CC0C03EB2
:10200000D10520F5CD3CD10508F082C0C83AD105F4
:1020100078F4C53AD10508F073C0C130D10519F183
:10202000209709F1C430D105F0F4D0E0C0E01BC026
:10203000C33CD105D0F7C85AD0E0CC0FDD1FC95939
:10204000DE4F0990D881C02DD4640DC0C11580E247
:10205000D80708F0D1C0C11581E0D80708F05AC0F0
:10206000C83ED10510F7CE01DF91CF911F910895A1
:10207000C03682E5D80718F5C03482E5D80708F0E5
:102080006BC0C03282E5D80708F05FC0C11582E599
:10209000D80708F497C02C2F2695269580E2289F14
:1020A000900111248C2F8370C1E0D0E002C0CC0FCE
:1020B000DD1F8A95E2F7C22BD32BDD68D4CFC03A5F
:1020C00082E5D80760F4C03882E5D80708F459C023
:1020D000CF71D0E0DC2FCC27C46FD06AC4CFC03C16
:1020E00082E5D80708F462C0C03E82E5D80708F050
:1020F0009CCFDC2FCC27CC27DF71C06FD06AB3CF49
:10210000C55AD0E0C356DE4FC881D0E0D064ABCF13
:10211000D065A9CF8D2F0E94C111182FCE0199270C
:102120000E941F11C12FD0E0DC2FCC27CC27DF71FC
:10213000C82BD92B98CFCE0199270E941F11CC27ED
:10214000DF70C82BD92BD06A8ECFCF71D0E0DC2FB7
:10215000CC27C16FD06A87CF2C2F26952695277064
:1021600080E2289F900111248C2F8370C1E0D0E081
:1021700002C0CC0FDD1F8A95E2F7C22BD32BDC689F
:1021800072CF2C2F26952695277080E2289F9001EC
:1021900011248C2F8370C1E0D0E002C0CC0FDD1F72
:1021A0008A95E2F7C22BD32BDA685DCF8C2F8F7123
:1021B0000E94C111C82FD0E0DC2FCC27CC27DF71C3
:1021C000D06251CF8C2F8F710E94C11155E0D695EE
:1021D000C7955A95E1F7CF70D0E0DC2FCC27282F98
:1021E00030E084FF05C044E0220F331F4A95E1F739
:1021F000C22BD32BD06937CF8D2F8F710E94C11185
:10220000182FCE0199270E941F11C12FD0E0DC2F7B
:10221000CC27CC27DF71C82BD92BD2CF462F7230D9
:1022200030F4643020F4672F0E943E04089590E05B
:1022300080E008950E940E110E94F00F08958238E8
:102240009105B9F1B0F48133910509F47DC048F4EA
:102250008932910509F46DC08A32910509F47BC079
:1022600008958533910509F45FC08933910509F11B
:102270000895833E9105D9F138F4803E910529F106
:10228000823E910579F10895863E9105D9F1873E08
:10229000910509F43EC0843E910541F52091DE028E
:1022A00021FF24C08091DD0284FD19C087EE90E0FB
:1022B00008952091DD02237009F05AC02091DE02BA
:1022C00023FF14C089E290E008952091DD0220FDF3
:1022D00038C03091DE0230FF09C024FF43C090E0D7
:1022E00080E008952091DD0222FDF7CF089520912E
:1022F000DD0222FD3AC03091DE0230FD39C024FFFC
:10230000F5CFEDCF2091DD0223FFF0CF24FDE7CF05
:10231000CDCF2091DD0223FD2EC03091DE0231FFB2
:10232000EECF84EE90E008952091DD0225FFDECF10
:10233000C9CF2091DD0225FD21C02091DE0223FFBF
:10234000D5CF89E390E0D2CF2091DD0226FFCECF1A
:102350008AE290E008952091DD0226FFC7CF81E355
:1023600090E0089583EE90E0089582EE90E0089565
:1023700080EE90E0089586EE90E0089585E390E089
:1023800008959091DD0292FF10C041E0282F247142
:10239000243009F040E031E0282F2871283009F07E
:1023A00030E0431711F02CE0822793FF10C041E08A
:1023B000282F2471243109F040E031E0282F2871C2
:1023C000283109F030E0431711F02CE082273091DA
:1023D000DE0230FF10C051E0282F2171213009F0BA
:1023E00050E041E0282F2871283009F040E05417D0
:1023F00011F029E0822731FF10C041E0282F217120
:10240000213109F040E031E0282F2871283109F00E
:1024100030E0431711F029E0822794FD877E08956C
:1024200080E00895CF939C01205E3245C1E02032C8
:10243000310538F4FB01C581C11103C08F710E94C1
:10244000CD048C2FCF91089508950E9424120895F1
:1024500008950E9428120895E82FF0E0EF51FD4FF3
:102460008081089508951F93CF93DF9320EA31E090
:10247000C1E0D0E0D90150E040E08D918F3F91F074
:10248000E82FE295EF70F0E011A18F70BE0101C05E
:10249000660F8A95EAF7962F9095912391A382A1D2
:1024A000862B82A34F5F5F4F4430510531F72C5F7D
:1024B0003F4F81E0283A3807E9F6DF91CF911F912D
:1024C0000895CF93DF93AC0170E0FB01EE0FFF1F87
:1024D000EE0FFF1FE056FE4FA0E0B1E080E09191CB
:1024E0009F3FD9F0C92FC295CF70D0E028A130E02E
:1024F0009F7002C0359527959A95E2F720FD0DC093
:102500002B2F822BAF5FBB0FA43049F7640F751FD1
:10251000FB018083DF91CF91089520E0F2CF0E94EC
:1025200033121092E2021092E1021092E002109235
:10253000DF0282E00E94D5120E9425120895A2E0D7
:10254000B0E0E5EAF2E10C94A8291A82198260E071
:10255000CE0101960E94611261E0CE0101960E94B7
:10256000611242E050E0BE016F5F7F4F8FED92E05D
:102570000E946F2A21E0009709F420E0892B31F0B6
:1025800089819A819093E0028093DF0242E061EEBC
:1025900072E08FED92E00E94D612182F0E9429124D
:1025A000812F2296E3E00C94C4290895B0E0A0E0C6
:1025B000ECEDF2E10C94A3296C017B01042FC22FF6
:1025C000222379F081E0809361020E94D9209093C8
:1025D000600280935F0280E0CDB7DEB7E8E00C9444
:1025E000BF29D0916102DD23B1F380915F02909108
:1025F00060020E946820059770F310E0A801B60100
:10260000C7010E946F2A892B31F0A801B601C701CA
:102610000E947C2ACD2F109261028C2FDDCF0E9468
:10262000810F08950E9472200E94C8230E94390FD2
:102630000E94E2230E94710F0E94EF230E94F42364
:102640000E940F130E940E240E944D0FF7CF90930B
:10265000ED018093EC0108950F931F93CF938C01AC
:10266000FB01C581CC2309F447C00E944C0D827246
:10267000F801E052F847EB30F10538F4E65FF44D2D
:102680000C9462290E94B519C0E08C2FCF911F9144
:102690000F910895882329F00E94A319F5CF88236C
:1026A000D9F30E949319F0CF882329F00E942516B0
:1026B000EBCF8823D9F30E941616E6CF882329F0A2
:1026C0000E944716E1CF8823D9F30E943616DCCF4B
:1026D000882329F00E946916D7CF8823D9F30E9456
:1026E0005816D2CF882329F00E94EE14CDCF88232C
:1026F000D9F30E94CE14C8CFC1E0C7CFEF92FF92AA
:102700000F931F93CF93DF939B01682F31110EC05E
:10271000442329F0E82FF0E0EA52FA4F6491762F33
:10272000862FCDB7DEB7E6E00C94C129C32FD0E0E9
:10273000E82FF0E0442321F0EA52FA4FE491F0E070
:1027400046E0249FC00111240FEF10E0B8010E9461
:102750001829AB01822F90E0880F991F25E5249F4F
:10276000B001259F700D1124861B970B982F990F90
:10277000980FB8016C1B7D0B6E9FD0016F9FB00D41
:102780007E9FB00D11248B2F939F90011124232F36
:102790003327B801621B730B6E9F90016F9F300D42
:1027A0007E9F300D11247801E91AF108EC9EB001EA
:1027B000ED9E700DFC9E700D1124672F7727061B70
:1027C000170B0E9FE0010F9FD00D1E9FD00D1124FF
:1027D0007D2F9E2F4230510599F048F44115510547
:1027E00069F04130510581F07B2F832F07C04430C1
:1027F000510569F080F046305105B1F7692F91CF4E
:102800009B2F8D2F7E2FFACF7E2F932FF7CF9D2FCB
:102810007B2F8E2FF3CF732F9B2FFBCF41E00E9496
:102820007E13089508950E940E1408959091090151
:10283000291B922FE091D501F091D601242F462F2C
:10284000682F892F90E009950895CF93DF93762F15
:10285000E901682F842F0E941314962F672F9E0181
:10286000482F892F0E941614DF91CF9108958091EF
:10287000E302982F9C7F29F4837084608093E302A5
:1028800008958C3AE8F38370886AF8CFB0E0A0E04E
:10289000ECE4F4E10C94A32988E090E00E948D2AF6
:1028A0006B017C0183E290E00E94852A282F30E0B2
:1028B00040E050E060E070E080E090E000E20E94E4
:1028C000D029B22FA32FF42FE52FD62FC72F970192
:1028D0008601BC29A12BFE295E2F532B2B2F3A2FCB
:1028E0004F2F6D2F7C2FCDB7DEB7E8E00C94BF29BA
:1028F000B0E0A0E0EEE7F4E10C949F2949015A0111
:102900006B017C010E9437148401A4016A2D7B2D88
:1029100088E090E00E94BB2A94014A2D5B2DB6010D
:10292000C70100E20E94EB29622F83E290E00E943F
:10293000A92ACDB7DEB7ECE00C94BB29E3EEF2E0B8
:1029400085E0808311828FEF828383831482758177
:1029500025E030E04FEF5FEF60E0868197810E94D5
:10296000781408959091E702933018F49F5F909344
:10297000E702882391F02091E3023091E402409134
:10298000E5025091E6026091E7027091E8028091C1
:10299000E9029091EA020E947814089581E00E9471
:1029A000B21408959091E702992319F091509093F1
:1029B000E702882391F02091E3023091E4024091F4
:1029C000E5025091E6026091E7027091E802809181
:1029D000E9029091EA020E947814089581E00E9431
:1029E000D21408950F931F93CF938091E30280FF39
:1029F00009C0E091D901F091DA010995CF911F91B9
:102A00000F910895C0910B010091D5011091D6014D
:102A100080910C01C81768F7809109019C2F981BC1
:102A2000892F20E040E060E090E0F8010995CF5F59
:102A3000EFCFEF92FF920F931F93CF93DF93D82F97
:102A4000162F042F8091E30280FF0CC0C0910B0170
:102A5000E090D501F090D60180910C01C81738F0B4
:102A60000E94F214CDB7DEB7E6E00C94C129809144
:102A700009019C2F981B892F202F412F6D2F90E04B
:102A8000F7010995CF5FE8CF762F9091E30290FF91
:102A90000AC0682F842F0E940E14962F672F482F8C
:102AA000892F0E9419150895CF93DF93EC01EC81D3
:102AB000F0E0EF52FB4F4491E3EEF2E0628181815E
:102AC0000E9444158C818F5F8C83DF91CF91089594
:102AD000CF93DF93EC01E3EEF2E0438162818C81DE
:102AE0000E9444158C818F5F8C83DF91CF91089574
:102AF000CF93DF93EC014091E6029C81892F817096
:102B000090FD842F692F627091FD642F92FF40E049
:102B10000E9419158C8190E00196877099278C830B
:102B2000DF91CF910895B0E0A0E0E9E9F5E10C94E0
:102B3000A429D82FF62E142FE22E9091E30290FFB5
:102B40002FC0E92FE695E695AE2FB0E0A855BE4F11
:102B50008C91809381029C7F943039F56D2F7F2D6D
:102B6000842F0E940E14962F672F482F892F0E94C2
:102B70001915D093E402F092E5021093E602EE20DC
:102B800079F02091E3026091E7027091E8023D2F15
:102B90004F2D512F8091E9029091EA020E94781402
:102BA000CDB7DEB7E7E00C94C029823019F410915C
:102BB000E602DFCF863019F4D091E402DACF893013
:102BC000D9F38931B1F6E9518E2F8170D82EE6956F
:102BD000F0E0EF52FA4FC49100E060910D0106174A
:102BE00018F00E94F214C5CF0C9FC001112470E0B0
:102BF0000E9418298D2FD1100CC0860F20910B0137
:102C0000200F3327331F412F6F2D0E9425140F5F94
:102C1000E4CF861BF3CFE3EEF2E09181282F4381CE
:102C200062818AE0890F0E949315089581E00E94D5
:102C30000B160895E3EEF2E09181282F4381628123
:102C400086EF890F0E949315089581E00E941A165D
:102C50000895E3EEF2E0628121E1620F08F46FEF84
:102C6000282F438181810E949315089581E00E945D
:102C700029160895E3EEF2E0628121E1621B08F477
:102C800060E0282F438181810E949315089581E09F
:102C90000E943A160895E3EEF2E0438121E1420FEB
:102CA00008F44FEF282F628181810E9493150895C7
:102CB00081E00E944B160895E3EEF2E0438121E1AA
:102CC000421B08F440E0282F628181810E94931505
:102CD000089581E00E945C16089520E00E949315FB
:102CE0000895EF92FF921F93CF93DF93EC0110E0D2
:102CF000EE24EA94F12C60910D01161770F00E94F9
:102D0000F2149A818C8190FF1EC08F5F8C83DF91BB
:102D1000CF911F91FF90EF90089520910B01210F0B
:102D20003327331F70E0C7010E942C29962F8C8116
:102D30004091E6026091E502199F800D11240E94E6
:102D400025141F5FD8CF8150E1CFB0E0A0E0EBEABF
:102D5000F6E10C94A229FC018281DFEF80FFD1E033
:102D6000C0E00091D5011091D60180910D01C817E6
:102D700098F00E94F21480916302D13009F04DC0A6
:102D8000811102C080910D01815080936302CDB703
:102D9000DEB7E9E00C94BE2980910B019091090106
:102DA000891B8C0F20E040E060E090E0F80109957D
:102DB00094E0E92EF12CB12CCC2ED12C8091630221
:102DC0008B0D853024F18370082E000C990BC816EA
:102DD000D906B1F420910B012C0D3D2D311D8091B0
:102DE000E6028E9DA0018F9D500D112455954795AB
:102DF000559547956091E5028091E4020E94251463
:102E0000BD0EF1E0EF1AF108C9F6CF5FAECF87FF34
:102E1000DBCF90910D01890FD7CF90E001966091A3
:102E20000D0170E00E942C29B0CF0F931F93CF9318
:102E3000C0910B010091D5011091D60180910C0138
:102E4000C81750F1C0E00091D5011091D6016091F2
:102E50000D01C61770F10E94F214209107018091B4
:102E60006202820F8093620290910801920F909308
:102E70000801191654F4082E000C990B40910D010D
:102E80004150550B841795071CF02195209307019D
:102E9000CF911F910F910895809109019C2F981B4C
:102EA000892F20E040E060E090E0F8010995CF5FD5
:102EB000C5CFEC2FF0E070E0CF010E942C292091CB
:102EC0000B01820F20916202022E000C330BE217DD
:102ED000F307A4F020910801022E000C330B2E17EB
:102EE0003F0764F0282F30E04091E6026091E50250
:102EF0008091E4020E942514CF5FA9CF909109012F
:102F0000891B20E040E060E090E0F8010995F4CFF3
:102F1000B0E0A0E0EEE8F7E10C949F29EC014C81D1
:102F2000042F10E09801D8010E9470299B01AC0188
:102F30000E9486294B015C01E0E2F0E0E01BF10B0E
:102F4000A5E5B0E0AC019B010E9486296B017C01E4
:102F50009F01DF010E9468299B01AC010E94912919
:102F60009B01AC01280D391D4A1D5B1DC701B6012F
:102F70000E944029F22E822F90E039E23F1520F185
:102F800043E0249F9001112435952795122F109529
:102F900000E085E5E82EEF1880910D01081720F17B
:102FA0000E94F2149C8181E0992319F0903219F467
:102FB0008FEF8093060180910601890F8C83CDB736
:102FC000DEB7ECE00C94BB2925E530E0A901481BF5
:102FD000590BCA019A01220F331F280F391F37FFDF
:102FE000D3CF2F5F3F4FD0CF8E2D01FD8F2D20915E
:102FF0000B01200F3327331F412F6091E5020E9400
:1030000025140F5FC9CF0F931F93CF93DF938C01CC
:10301000D0E0C0E090910D019C171D0609F074F4FA
:103020000E94F214F801848190E001968170992742
:103030008483DF91CF911F910F910895F80144810E
:1030400020910B012C0F3D2F311D6091E5028091E5
:10305000E40296959C171D0649F044F0442341F084
:103060004091E6020E9425142196D4CF4423C1F357
:1030700040E0F8CFB0E0A0E0E0E4F8E10C949B2958
:10308000FC016280448081E08483E1EDF4E074908F
:10309000E0E5F5E0E491C091E602C695C158D0E0C4
:1030A000CC0FDD1FCD2FDD27812C25E0922EAA2409
:1030B000AA94B12C55245A94E719EE2EF12C809144
:1030C0000D01881638F00E94F214CDB7DEB7E0E1AA
:1030D0000C94B729C82CD12C82E0861568F09C9CF2
:1030E000F0019D9CF00D1124EC59FD4F8091E402FC
:1030F00080838091E502818341101CC09C9CF0017B
:103100009D9CF00D1124EC59FD4F138212822091E9
:103110000B012C0D3D2D311D9C9CF0019D9CF00D53
:103120001124EC59FD4F4281618180810E94251458
:103130008394C5CF9C9C80019D9C100D11240C593B
:103140001D4FF80183818823F1F081508383859D91
:10315000C0011124648170E00E941829FB01FF273F
:10316000EF52FB4F8491E82FE719E59DC001112430
:10317000B7010E9418298091E602689FB0011124CE
:10318000F8017283C4CF0E94522AB5010E942C29F3
:103190008C179D070CF0BBCFF2E0F61598F40E9457
:1031A000522AB5010E942C29F80180830E94522ADC
:1031B0002091E5022695622F70E00E942C29280FAD
:1031C000F80121839C9CF0019D9CF00D1124EC5989
:1031D000FD4F12828091E602893C58F088EC9C9C5D
:1031E000F0019D9CF00D1124EC59FD4F84838383E5
:1031F0008ECF8431A0F784E1F2CFE3EEF2E02081BC
:103200002E7F208331814281538164817581868143
:1032100097810E947814109282020E94F2140895FD
:10322000E3EEF2E080818E7F8083109282020E9422
:10323000F21408951092820280917F0281110AC0D7
:1032400081E080937F028091E302817080937E020F
:103250000E94101908956091E3026695669570E0EA
:103260004BE050E08EE091E00E94622A892B19F435
:1032700081E0809382020E94D9209093790280930A
:10328000780208959091E30290FF34C09370811109
:1032900032C094609093E302662391F02091E302A0
:1032A0003091E4024091E5025091E6026091E7021C
:1032B0007091E8028091E9029091EA020E947814EC
:1032C0006091E3026695669570E04BE050E08EE019
:1032D00091E00E94622A892BB1F01092820281E073
:1032E00080937B024091E6026091E5028091E402C6
:1032F0000E946D1608958B3210F0986ACBCF880F1C
:10330000880F982BC7CF0E942B19E9CF682F909177
:10331000E3029695969581E0890F8B3208F081E063
:103320000E944219089581E00E9486190895682F2D
:103330009091E302969596958FEF890F09F48AE2B2
:103340000E944219089581E00E949719089561E052
:103350000E9442190895E3EEF2E08081816080834B
:10336000869586950E94A71908958091E30280FFB3
:1033700003C00E94FD1808950E94AB19089560E0F3
:103380000E94421908958091800281113CC00E94E0
:1033900046142093E3023093E4024093E5025093F5
:1033A000E6026093E7027093E8028093E90290934B
:1033B000EA022C7FA1F40E949E140E9446142093DE
:1033C000E3023093E4024093E5025093E6026093F7
:1033D000E7027093E8028093E9029093EA020E9468
:1033E000371410928202E091D301F091D401099533
:1033F0008091E30280FF04C0869586950E94BF19E4
:1034000081E0809380020895E3EEF2E080818160A4
:103410008083869586950E94BF19089510927F0239
:1034200080917E0281110E94041A0E942B19089536
:103430000F931F93CF93DF93809182028823C1F172
:1034400080918102E091E302E695E695E81BE09326
:103450007A02823091F5F0E0E353FB4FE491CE2FF6
:10346000D0E004E515E180917B02882361F01092A1
:103470007B020E94D9209093790280937802109267
:103480007D0210927C020E94D920E0917802F09196
:1034900079028E1B9F0B8F3F9F4750F4EC0FFD1F4F
:1034A000F0937902E093780288E792E0F8010995B9
:1034B000DF91CF911F910F910895863049F4F0E08C
:1034C000E653FB4FE491CE2FD0E008E615E1CBCFD9
:1034D000893051F4E695F0E0E953FB4FE491CE2FAB
:1034E000D0E001E716E1BFCF8F3051F4E695F0E070
:1034F000EC53FB4FE491CE2FD0E005EA16E1B3CFB9
:10350000853149F4F0E0EF53FB4FE491CE2FD0E04A
:1035100005E117E1A8CFC8E2D0E008E817E188315B
:1035200009F4A1CF833239F4EFEBF4E0C591D491E3
:1035300008E715E198CFC4EFD1E003E018E1843249
:1035400009F491CFC0EDD7E002E114E1853209F032
:103550008ACF8E2F63E00E940C29E92FF0E0E4541B
:10356000FB4FE491CE2FD0E00AE318E17CCF089521
:103570000E94181A0895AB0124E630E0BC0188E7E8
:103580000E94B72121E0892B09F020E0822F0895C5
:10359000AB0124E630E0BC0188E70E94FB2121E07A
:1035A000892B09F020E0822F08950F931F939B0130
:1035B00004E610E0AC0160E488E70E94412221E0CB
:1035C000892B09F020E0822F1F910F9108950E940E
:1035D000832108950895EBEEF2E080E094E0DF01AE
:1035E0009C011D9221503040E1F7F093F006E093EA
:1035F000EF068FEF9FEF9093C9028093C802089562
:10360000CF930E94EA1A0E941A048093C40280FD9C
:1036100011C080E88093C3020E94E71A6BE070E05B
:1036200081EF96E00E94C81A811106C0C0E08C2F7D
:10363000CF91089580E4EECF8091C40265E070E000
:1036400081FD27C08CEE96E00E94C81A882371F392
:103650006DE070E08AED96E00E94C81AC82F8823BA
:1036600029F30E94E520605E714B8F4F9F4F60935E
:10367000EB067093EC068093ED069093EE060E94A5
:10368000EB1A81E08093C7028093C6021092C502B4
:10369000CECF87EE96E0D8CF2091C30236E0839F4D
:1036A000C0011124629F800D911D1124811524E019
:1036B000920714F090E080E085519D4F9093F006C2
:1036C0008093EF060895CF93DF932091EF0630911A
:1036D000F0062B5E3240A901460F571F413054407F
:1036E00020F060E074E0621B730B4091C8025091BF
:1036F000C902FC01C901620F731FC1E0D0E0861747
:10370000970738F05093C9024093C802DF91CF91D8
:1037100008952491DC01A551BD4F3C91321781F0F1
:103720002C939C01A6E036952795AA95E1F7DE013A
:1037300002C0AA0FBB1F2A95E2F79D014A2B532B0B
:1037400001963196DCCF8091C702811103C0809130
:10375000C60208950E94E520605E714B8F4F9F4F17
:103760006093EB067093EC068093ED069093EE0663
:103770008091C6028111EBCF62E070E088ED96E0A7
:103780000E94C81A882319F381E08093C602DFCF14
:10379000A4E0B0E0EEECFBE10C949929082F8091B5
:1037A000C8029091C902892BE9F08091C702882351
:1037B000C9F08091C502811115C00E94A31B1C8213
:1037C0001B8244244394512C17E060E4F62E809130
:1037D000C8029091C902009729F0FC81FF2349F0AB
:1037E000011107C02496E2E10C94B5292B812F5FCB
:1037F0002B833B81C32ED12C520102C0AA0CBB1CCF
:103800003A95E2F7950128233923232B79F3809108
:10381000C40280FD3DC08B818295880F880F807423
:1038200080931B0196013695279520931E01815C9C
:1038300080931C0120931F0167E070E089E191E013
:103840000E94BB1A882371F2C60126E0880F991FD7
:103850002A95E1F72091C40220FD28C060E470E0C1
:1038600085519D4F0E94D51A882309F4BBCFC5010D
:1038700080959095A090C802B090C902A822B92264
:10388000B092C902A092C8024C814F5F4C839FCF77
:103890008B81880F880F880F80931B0110921E0167
:1038A000895F80931C0110931F01C6CFA3E8B2E08B
:1038B000EF2D1D92EA95E9F723EE31E03A83298353
:1038C0006BED71E0A981BA814D91BA83A983FB01A7
:1038D0002190BF01280E392E311C910125513D4FF9
:1038E0001901E42FF0E0ED57FD4F30E020E0612EAC
:1038F000621A842C022E01C0880C0A94EAF7610136
:10390000912CD601ED906D01E820462D49194770A4
:10391000742E042E000C550BBE2D01C0BB0F7A94E3
:10392000EAF77B2E5195419551094770552701C003
:10393000E6944A95EAF77E28E0807E287082939488
:1039400048E09412DECF2F5F3F4F3196283031058B
:1039500071F6ABEEB1E0E981FA81AE17BF0709F06D
:10396000B1CF60E470E083E892E07CCF8091C60242
:103970009091C702911103C091E08927089588238F
:1039800069F062E070E086ED96E00E94C81A81114D
:1039900003C08091C60208951092C6028091C602AB
:1039A000EBCF81E008950F931F938091C702882386
:1039B00011F160E080E00E944C1B0E941C0480E03A
:1039C0000E94C81B8091C6028823A9F00E94E520AE
:1039D0000091EB061091EC062091ED063091EE0679
:1039E000601B710B820B930B6F3F7F4F8F4F9F4775
:1039F00010F40E94B61C1F910F910895539A0895D8
:103A0000FC01EE0FFF1FE80FF91FEF50F94F618324
:103A1000408322830895E1EFF6E08183608342834F
:103A2000339696E0ED3FF907C1F708953BB1377F34
:103A30002BB128604FB7F89481EF96E0FC015191CB
:103A4000CF0168E02BB9000000C057FF3BB9550F0C
:103A5000000000C000C000C03BB900C06A9591F7EB
:103A6000F6E08D3F9F0751F74FBF8FE594E0019738
:103A7000F1F700C0000008950E943E0E089581E015
:103A80000E942C12817008950E949F122FEF86E7EA
:103A900091E0215080409040E1F700C000000E947A
:103AA0009F120E943F1D882321F00E943C1D0E940E
:103AB000152108950E94441D0895CF93DF93EB01D3
:103AC00086319C4711F50E944C0D9D81992399F0F8
:103AD0008A7A91E009F490E09093CA02811109C0BA
:103AE00089E20E94C21F0E94DB0D80E0DF91CF912E
:103AF000089585E3F6CF8091CA02811104C089E25E
:103B00000E94CA1FF0CF85E3FBCF81E0EFCFCF93B8
:103B1000DF93EC01FB018581882309F4D2C09E016B
:103B200030572332310508F0B2C00E94610E9093E5
:103B3000DE028093DD02FE01E150F047E232F10542
:103B400020F4EB5EF44D0C9462298091DD028160DB
:103B50008093DD0293C08091DE0288608093DE0254
:103B60008DC08091DD028260F3CF8091DD028460A0
:103B7000EFCF8091DD028860EBCF8091DE02816023
:103B8000EDCF8091DE028260E9CF8091DD0280611D
:103B9000DFCF8091DD028062DBCF8091DD02806427
:103BA000D7CF0E94D1088091DD028068D1CF80916B
:103BB000DD028C60CDCF8091DE028360CFCF80911B
:103BC000DD028E7FC5CF8091DE02877FC7CF8091D7
:103BD000DD028D7FBDCF8091DD028B7FB9CF8091DB
:103BE000DD02877FB5CF8091DE028E7FB7CF8091D7
:103BF000DE028D7FB3CF8091DD028F7EA9CF8091D1
:103C0000DD028F7DA5CF8091DD028F7BA1CF0E9449
:103C1000D1088091DD028F779BCF8091DD02837F79
:103C200097CF8091DE028C7F99CF8091DD0282FB5D
:103C3000992790F921E0922790FB82F990FB83F974
:103C400087CF8091DE02982F909591708E7F892B7F
:103C500090FB81F983CF9091DD02892F8F7B96FFB6
:103C6000806476CF0E94D1089091DD02892F97FB66
:103C700087F980586DCF81E00E94E70E8091DD02C8
:103C80009091DE020E94660E0E94D10880E0DF91D2
:103C9000CF91089580E0F0CF9091DD02892F8F7E43
:103CA00094FF806155CF9091DD02892F8E7F90FF28
:103CB00081604ECF9091DE02892F877F93FF8860CD
:103CC0004DCF81E0E4CF0F931F93CF93DF93C42FA9
:103CD000D22FFC0185818823C9F04093CD020E9438
:103CE000D9209093CC028093CB0280E28C0F883055
:103CF00040F4C77081E001C0880FCA95EAF70E94BE
:103D00008506DF91CF911F910F9108951091CD02FB
:103D1000141332C08091CB029091CC020E94682093
:103D2000883C910548F5C0E2CD0F1D17B9F080E23F
:103D3000810F883040F4177081E001C0880F1A9518
:103D4000EAF70E948C06C83048F481E09D2F9770F6
:103D500001C0880F9A95EAF70E948506802F0E947D
:103D60007C06C83070F6D77081E001C0880FDA9504
:103D7000EAF70E948C06C5CF80E28C0F883008F6E7
:103D8000C77081E001C0880FCA95EAF7F2CF0F93A0
:103D9000DB0188519C4787309105A0F5FC01E95C67
:103DA000F44D0C94622906E221EE41EE6AE17CE7D3
:103DB000CD010E94631E80E00F91089507E225EE79
:103DC00045EE6BE17CE7F4CF06E221EE40EE68E1E0
:103DD0007CE7EECF07E225EE44EE69E17CE7E8CF31
:103DE00006E221EE42EE6CE17CE7E2CF07E225EE4F
:103DF00046EE6DE17CE7DCCF08E221E045EE6EE1C6
:103E00007CE7D6CF15968C91882319F01092CD02BD
:103E1000D3CF81E0D1CF9093D3028093D202089583
:103E2000E091D202F091D302309729F00190F08115
:103E3000E02D0995089580E00895E091D202F09177
:103E4000D302309721F00280F381E02D0995089587
:103E5000A3E0B0E0EEE2FFE10C94A9292091D002AA
:103E60003091D10228173907A1F09093D1028093A5
:103E7000D002E091D202F091D302309751F023E0CA
:103E800029839B838A830084F185E02DCE010196EE
:103E900009952396E2E00C94C529A3E0B0E0E3E5A0
:103EA000FFE10C94A9292091CE023091CF0228176E
:103EB0003907A1F09093CF028093CE02E091D20215
:103EC000F091D302309751F024E029839B838A83B9
:103ED0000084F185E02DCE01019609952396E2E05C
:103EE0000C94C52940910401509105019A012E5F5F
:103EF0003F4F485F5F4F80E02417350709F408956E
:103F0000F90191919F019923B9F38F5FF5CF882330
:103F100071F02091040130910501F9013296285F7A
:103F20003F4F9191981729F0E217F307D1F780E0FE
:103F3000089581E008959C01FC0132969FEF80E096
:103F40004191461751F09F3F19F4411101C0982F3C
:103F50008F5F8630A9F79F3F09F40895290F311D1F
:103F600097FD3A95F90162830895FC01329608960F
:103F70002191261303C0DF0111971C92E817F9075E
:103F8000B9F70895682F80910401909105010E946E
:103F90009B1F0895682F80910401909105010E9454
:103FA000B51F0895E0910401F0910501329686E075
:103FB000DF011D928A95E9F7089508950E94DD1F9B
:103FC000089581110EC081E080932301609120014A
:103FD0007091210180912201909123010E94DE1FA6
:103FE000089582E0F1CF83E0809323016091200166
:103FF0007091210180912201909123010E94DE1F86
:1040000008950E94E11F089581E08093230160914B
:1040100020017091210180912201909123010E9441
:10402000DE1F08950E940420089591E0811101C0CF
:1040300090E0909322016091200170912101809184
:104040002201909123010E94DE1F08958091220198
:104050000895809321016091200170912101809148
:104060002201909123010E94DE1F08958091210179
:104070000895809320016091200170912101809129
:104080002201909123010E94DE1F0895809120015A
:104090000895089508950E944A2008950895089566
:1040A0000E94492008950E944E200E949F120E9463
:1040B0004F2080E00E942C1291E0811107C081E026
:1040C0000E942C1291E0811101C090E0892F089587
:1040D000CF93DF93EC010E94D9208C1B9D0BDF91C5
:1040E000CF91089585B7806885BF85B7806885BF03
:1040F00008951F921FB61F9211248F939F93AF9321
:10410000BF938091D402811113C08091FD069091DC
:10411000FE06A091FF06B09100074196A11DB11DBA
:104120008093FD069093FE06A093FF06B0930007D0
:10413000BF91AF919F918F911F901FBE1F901895B7
:1041400080910507843031F10E9475051092D402E8
:1041500088E190E020E40FB6F894A8958093600081
:104160000FBE2093600083B7817F846083BF83B7D5
:10417000816083BF7894889583B78E7F83BF0FB6A5
:10418000F894A895809160008861809360001092F7
:1041900060000FBE08950E94D1080E948005089516
:1041A00082E084BD93E095BD9AEF97BD80936E0049
:1041B00008952FB7F8948091FD069091FE06A09186
:1041C000FF06B09100072FBF08952FB7F8946091B4
:1041D000FD067091FE068091FF06909100072FBFAB
:1041E000089578941F921FB61F9211248F939F9366
:1041F000AF93BF938091FD069091FE06A091FF06BC
:10420000B09100070196A11DB11D8093FD0690930A
:10421000FE06A093FF06B0930007BF91AF919F9158
:104220008F911F901FBE1F90189587E797E7909377
:1042300001088093000888E19AE00FB6F894A895E9
:10424000809360000FBE90936000FFCF88E19AE0FA
:104250000FB6F894A895809360000FBE909360000D
:10426000FFCFEF92FF920F931F93CF93DF93182FFF
:10427000EB011092BC0084EA8093BC000E94D9201C
:104280007C018091BC0087FF27C08091B900887FA6
:10429000883029F08091B900887F803189F51093AA
:1042A000BB0084E88093BC000E94D9208C018091DF
:1042B000BC0087FF1EC02091B900287F90E080E0FD
:1042C000283191F081E090E0203411F490E080E01A
:1042D00091958195910908C0C7010E946820C8176F
:1042E000D90778F68EEF9FEFCDB7DEB7E6E00C94F6
:1042F000C129C8010E946820C817D907C0F6F2CFAB
:104300008FEF9FEFF1CF1092B9008CE08093B8004F
:1043100008950F931F93CF93DF93EB018093BB001E
:1043200084E88093BC000E94D9208C018091BC005D
:1043300087FF11C02091B900287F81E090E02832EA
:1043400011F490E080E0919581959109DF91CF91F2
:104350001F910F910895CF3FDC0741F3C8010E94E0
:104360006820C817D90710F78EEF9FEFEFCFB0E0A6
:10437000A0E0EDEBF1E20C949E29782E5B016A013E
:1043800089010E94D9204C01C1E0D0E0043111051F
:1043900058F0C5E0D0E00F3F100731F0C80164E1EC
:1043A00070E00E941829EB01BE01872D0E94312187
:1043B0007C0197FF09C00F3F1007B1F3C4010E94B1
:1043C00068200817190780F7E501CA0CDB1CCC151B
:1043D000DD0511F0F7FE09C084E98093BC00C70138
:1043E000CDB7DEB7EDE00C94BA29B80189910E94EF
:1043F00089217C01ECCFB0E0A0E0E1E0F2E20C9496
:104400009E29782E5B016A0189010E94D9204C0106
:10441000C1E0D0E00431110558F0C5E0D0E00F3F15
:10442000100731F0C80164E170E00E941829EB0127
:10443000BE01872D0E9431217C0197FF09C00F3FEB
:104440001007B1F3C4010E9468200817190780F70C
:10445000E501CA0CDB1CCC15DD0511F0F7FE09C027
:1044600084E98093BC00C701CDB7DEB7EDE00C94C2
:10447000BA29FE018491B8010E9489217C0121960C
:10448000EACFB0E0A0E0E7E4F2E20C949D29682EC8
:10449000762E5A0169010E94D9204C01C1E0D0E07A
:1044A0000431110558F0C5E0D0E00F3F100731F09E
:1044B000C80164E170E00E941829EB01BE01862D5D
:1044C0000E9431217C0197FF1DC00F3F1007B1F3FF
:1044D000C4010E9468200817190780F784E98093B7
:1044E000BC00C701CDB7DEB7EEE00C94B929B80126
:1044F00089910E9489217C01CC16DD0679F3F7FEB3
:10450000F6CFECCFB801872D0E9489217C01E5010F
:10451000CA0CDB1CF1CF089508959B01BA0190915C
:1045200005079430E9F48F708093E9009FEF809144
:10453000E800915085FD06C085ED8A95F1F70000F1
:104540009111F5CF8091E80085FF0AC050E040E06E
:10455000C9010E9485248091E8008E778093E8004D
:10456000089543E050E0BC0182E00E948D2208954E
:10457000CF93DF93EC010E94262048E050E0BE017B
:1045800081E00E948D2288E0FE01A5EDB2E001905D
:104590000D928A95E1F7DF91CF91089580910407FC
:1045A000811109C00E9415260E9472268091E200A6
:1045B00084608093E20008951092040708950E9499
:1045C000042081E00E94152008956091010781E098
:1045D000611101C080E00E94F31F089590910507CA
:1045E00081E0943009F080E0609101070E94012091
:1045F000089542E061EC81E00E94912542E261EC85
:1046000082E00E9491259091050781E0943009F0A5
:1046100080E0609101070E94E11F089580910707E3
:10462000833009F461C030F48130D1F1823009F473
:104630009EC008958A3009F48AC08B3009F46FC097
:10464000893009F050C080910607813209F04BC0D3
:1046500080910A0790910B07029708F044C080915F
:10466000E800877F8093E8008091E80082FF37C0F0
:104670009091F3008091F200029731F48091F10063
:10468000813011F0863021F48091F1000E942920C0
:104690008091E8008B778093E8000E94C52523C0B5
:1046A00080910607813AF9F48091E800877F809332
:1046B000E80080910A0790910B07892B61F468E06C
:1046C00085ED92E070E00E94D4248091E8008B7721
:1046D0008093E800089560E090E080E0F3CF80915F
:1046E00005078111C1CF089580910607813AD9F756
:1046F00080910A0790910B07892BA9F78091E80018
:10470000877F8093E8008091E80080FFFCCF0E94C3
:1047100026208093F1008091E8008E77BCCF8091B5
:104720000607813201F780910A0790910B07892BC8
:10473000D1F68091E800877F8093E8000E94C5252C
:10474000809108070E9415200E94D1080895809149
:104750000607813241F68091E800877F8093E80068
:104760000E94C525809109070E94392008958091F3
:104770000607813A09F0B7CF8091E800877F8093E0
:10478000E8008091E80080FFFCCF0E944620C1CF66
:1047900084B7877F84BF0FB6F894A8958091600096
:1047A000886180936000109260000FBE80E890E006
:1047B0000FB6F89480936100909361000FBE0E9441
:1047C000122008950E9415260E947226E2EEF0E063
:1047D00080818460808378940E94F128089584E227
:1047E00091E00E940B1F089580910507853031F4F8
:1047F00080910507853019F00E94CB2008950E9412
:10480000A0200E945320882399F3809103078823D6
:1048100079F30E946F240E94D108EACF08959A018B
:1048200040910C0750910D070E9417240895492FBD
:1048300055274330510519F168F44130510509F409
:1048400044C04230510509F445C090E080E050E09A
:1048500040E025C04132510549F142325105A9F7E6
:1048600084E490E041EB57E061157105C1F082E30B
:1048700090E04FE757E06130710589F0E6CF992766
:104880008130910581F0009729F00297F1F6ECEF65
:10489000F6E002C0EEE2F7E0849190E0AF01F901AA
:1048A000518340830895E0E1F7E0F6CF89E090E09E
:1048B00044E457E06115710591F389E090E04DE51E
:1048C00057E06130710559F3C0CF82E190E04DE6C9
:1048D00057E0E5CF8BE390E042E357E0E0CF80E1A3
:1048E00089BD82E189BD09B400FEFDCF8091D80069
:1048F0008F7D8093D8008091E00082608093E000FB
:104900008091E00081FDFCCF0895AF92BF92CF92DD
:10491000DF92FF920F931F93CF93DF936C01EB0114
:104920008A010E94E425F82E811123C0011511058A
:1049300039F0F80180819181C81BD90BC80ED91EAE
:10494000B12CA12C2097A9F08091E80085FD22C010
:104950008091E8008E778093E80001151105A1F0A1
:10496000F80180819181A80EB91EB182A08285E0F4
:10497000F82E8F2DDF91CF911F910F91FF90DF9037
:10498000CF90BF90AF9008950E94E4258823D1F284
:10499000F82EEFCFF60181916F018093F1002197FE
:1049A000FFEFAF1ABF0ACECFFC0180910C079091A8
:1049B0000D0786179707A0F06115710529F49091EE
:1049C000E8009E779093E80090E06115710551F43E
:1049D000911108C08091E80082FF34C080E0089502
:1049E000BC01F2CF809105078823C1F18530C1F168
:1049F0008091E80083FD30C08091E80082FDEACF1D
:104A00008091E80080FFE1CF8091F3002091F200D7
:104A1000382F6115710519F02830310558F091E0F3
:104A20002830310509F090E02091E8002E7720939E
:104A3000E800CBCF81918093F100615071092F5F25
:104A40003F4FE7CF80910507882341F0853041F043
:104A50008091E80083FFBECF81E0089582E0089551
:104A600083E00895FC0180910C0790910D07861753
:104A70009707A0F06115710529F48091E8008E7701
:104A80008093E80090E06115710551F4911108C020
:104A90008091E80082FF35C080E00895BC01F2CF2C
:104AA000809105078823C9F18530C9F18091E8001C
:104AB00083FD31C08091E80082FDEACF8091E8005B
:104AC00080FFE1CF8091F3002091F200382F611533
:104AD000710519F02830310558F091E02830310582
:104AE00009F090E08091E8008E778093E800CBCFCA
:104AF00084918093F1003196615071092F5F3F4F8F
:104B0000E6CF80910507882341F0853041F0809100
:104B1000E80083FFBDCF81E0089582E0089583E03F
:104B20000895982F973028F08F708093E90081E0E6
:104B300008959093E900242F762F50E0981731F0D4
:104B40007091EC002091ED005091F00021FD02C029
:104B50009F5FE8CF3091EB003E7F3093EB003091C8
:104B6000ED003D7F3093ED003091EB0031603093EC
:104B7000EB007093EC002093ED005093F000209137
:104B8000EE0027FDE5CF80E008958091060787FFBE
:104B900013C08091E80082FF06C08091E8008B7707
:104BA0008093E80004C0809105078111F2CF089539
:104BB000809105078823D9F38091E80080FFF8CF22
:104BC0008091E8008E77ECCF2091E4003091E500F1
:104BD00095E6A9012091EC00822F817020FF06C08C
:104BE0008091E80080FF06C080E008952091E800F1
:104BF00022FD1AC080910507882389F0853089F04D
:104C00008091EB0085FD0FC02091E4003091E5001C
:104C100042175307F9F29150E1F684E0089582E0DB
:104C2000089583E0089581E008950E9484260E94FB
:104C30008C26E0EEF0E0808181608083E8EDF0E09A
:104C400080818F77808319BCA7EDB0E08C918E7F37
:104C50008C9380818F7E80831092040708950F9338
:104C60001F93CF93DF930E9484260E948C26C8ED69
:104C7000D0E088818F778883888180688883888165
:104C80008F7D888319BC109205071092010710923E
:104C900003071092020700EE10E0F80180818B7F7D
:104CA000808388818160888342E060E080E00E94A8
:104CB0009125E1EEF0E080818E7F8083E2EEF0E0EE
:104CC000808181608083808188608083F801808119
:104CD0008E7F8083888180618883DF91CF911F914F
:104CE0000F910895E8EDF0E080818F7E8083E7EDFD
:104CF000F0E080818160808384E082BF81E08093E6
:104D000004070E942F260895E8EDF0E080818E7F51
:104D100080831092E20008951092DA001092E10070
:104D200008951F920F920FB60F9211242F933F9365
:104D30004F935F936F937F938F939F93AF93BF93A3
:104D4000EF93FF938091E10082FF0BC08091E2001E
:104D500082FF07C08091E1008B7F8093E1000E9479
:104D6000F0288091DA0080FF19C08091D80080FF80
:104D700015C08091DA008E7F8093DA008091D9008F
:104D800080FF96C080E189BD82E189BD09B400FE43
:104D9000FDCF81E0809305070E94CE228091E10043
:104DA00080FF19C08091E20080FF15C08091E20071
:104DB0008E7F8093E2008091E20080618093E20028
:104DC0008091D80080628093D80019BC85E08093E0
:104DD00005070E94E5228091E10084FF2BC08091AD
:104DE000E20084FF27C080E189BD82E189BD89B5E9
:104DF000982F917080FFFBCF8091D8008F7D80939A
:104E0000D8008091E1008F7E8093E1008091E200E4
:104E10008F7E8093E2008091E20081608093E200C7
:104E200080910107882309F449C084E08093050735
:104E30000E94EE228091E10083FF29C08091E20070
:104E400083FF25C08091E100877F8093E10082E0AD
:104E500080930507109201078091E1008E7F809377
:104E6000E1008091E2008E7F8093E2008091E20079
:104E700080618093E20042E060E080E00E94912542
:104E80008091F00088608093F0000E94DF22FF9103
:104E9000EF91BF91AF919F918F917F916F915F91B2
:104EA0004F913F912F910F900FBE0F901F9018952B
:104EB00019BC109205070E94DC2270CF8091E3009C
:104EC00087FD93E090930507B3CF1F920F920FB623
:104ED0000F9211242F933F934F935F936F937F9380
:104EE0008F939F93AF93BF93CF93DF93EF93FF93F2
:104EF000D091E900DF708091EC00C82FC17080FD77
:104F0000C0E81092E9008091F000877F8093F00064
:104F100078940E94A9271092E9008091F00088609F
:104F20008093F000CD2BCF70C093E900FF91EF91FB
:104F3000DF91CF91BF91AF919F918F917F916F91B1
:104F40005F914F913F912F910F900FBE0F901F9047
:104F50001895AAE2B0E0EFEAF7E20C94A82986E0FF
:104F600097E02091F100FC012193CF01F7E08E3012
:104F70009F07B9F70E940E238091E80083FF1EC1AE
:104F800080910607909107079A3008F017C1E92F22
:104F9000F0E0E25CF44D0C946229803899F082389C
:104FA00009F00CC180910A078F70873008F006C1A4
:104FB0008093E9008091EB0085FB882780F91092AF
:104FC000E90006C080910207909103079111826069
:104FD0009091E800977F9093E8008093F100109201
:104FE000F1008091E8008E77E5C0882309F4D3C0F2
:104FF000823009F0E3C0809108078111D6C080910A
:105000000A078F702FEF280F263008F0D7C0809343
:10501000E9002091EB0020FFC8C0933031F480916B
:10502000EB0080628093EB00C0C09091EB00906138
:105030009093EB0021E030E001C0220F8A95EAF75F
:105040002093EA001092EA008091EB008860EACF9A
:105050008111B4C0109108071F778091E300807818
:10506000812B8093E3008091E800877F8093E800A4
:105070000E94C5258091E80080FFFCCF8091E3006D
:1050800080688093E30082E0111183E0809305073C
:1050900095C08058823008F091C0809108079091A7
:1050A00009078C3D23E09207A1F583E08A838AE219
:1050B00089834FB7F894DE01139620E03EE051E279
:1050C000E32FF0E050935700E49120FF03C0E295F6
:1050D000EF703F5FEF708E2F90E0EA30C0F0C79620
:1050E0008D939D932F5F243159F74FBF8091E80036
:1050F000877F8093E8006AE270E0CE0101960E940B
:10510000D4248091E8008B778093E80057C0C09644
:10511000E7CF60910A0770910B07AE014F5F5F4FB9
:105120000E940F24BC01892B09F448C09091E8002B
:10513000977F9093E80089819A810E943225E1CF80
:105140008038E1F58091E800877F8093E8008091C6
:1051500001078093F10045CF811130C0909108077D
:10516000923060F58091E800877F8093E80090930B
:1051700001070E94C52580910107882311F084E072
:1051800005C08091E30087FDFACF81E08093050799
:105190000E94F92213C080910807813079F481E0E0
:1051A000933009F080E0809303071092E90080912A
:1051B000E800877F8093E8000E94C5258091E80081
:1051C00083FF0AC08091E800877F8093E800809188
:1051D000EB0080628093EB00AA96E3E00C94C42974
:1051E0000895CF93809105078823A1F0C091E9002D
:1051F000CF709091EC00892F817090FD80E8C82BD2
:105200001092E9008091E80083FD0E94A927CF70E9
:10521000C093E900CF910895991B79E004C0991FCC
:10522000961708F0961B881F7A95C9F78095089500
:10523000AA1BBB1B51E107C0AA1FBB1FA617B707BC
:1052400010F0A61BB70B881F991F5A95A9F78095D8
:105250009095BC01CD01089597FB072E16F400949C
:1052600007D077FD09D00E94182907FC05D03EF42D
:10527000909581959F4F0895709561957F4F089502
:10528000A1E21A2EAA1BBB1BFD010DC0AA1FBB1F4A
:10529000EE1FFF1FA217B307E407F50720F0A21BBC
:1052A000B30BE40BF50B661F771F881F991F1A9429
:1052B00069F760957095809590959B01AC01BD0153
:1052C000CF010895EE0FFF1F0590F491E02D099492
:1052D0000E947029332312F48A1B9B0B0C948129A2
:1052E000A29FB001B39FC001A39F700D811D112427
:1052F000911DB29F700D811D1124911D08950E9472
:105300007029B7FF0895821B930B08950E9470299E
:10531000A59F900DB49F900DA49F800D911D112409
:105320000895B7FF0C9486290E948629821B930B4F
:1053300008952F923F924F925F926F927F928F9239
:105340009F92AF92BF92CF92DF92EF92FF920F9314
:105350001F93CF93DF93CDB7DEB7CA1BDB0B0FB61E
:10536000F894DEBF0FBECDBF09942A8839884888DB
:105370005F846E847D848C849B84AA84B984C88471
:10538000DF80EE80FD800C811B81AA81B981CE0F68
:10539000D11D0FB6F894DEBF0FBECDBFED0108954D
:1053A000002E083090F0982F872F762F652F542FDE
:1053B000432F322F22270850F4CF220F331F441FD0
:1053C000551F661F771F881F991F0A95B2F7002D7A
:1053D000089597FD1094002E083098F00850232F60
:1053E000342F452F562F672F782F892F912DF4CFEB
:1053F0001594979587957795679557954795379520
:1054000027950A95AAF71124002D08958F929F924F
:10541000AF92BF92CF92DF92EF92FF92CF93DF9342
:10542000EC01688179818A819B8161157105810513
:10543000910521F464E279ED8BE597E02DE133EFFE
:1054400041E050E00E94DD2A49015A019B01AC0174
:10545000A7EAB1E40E9486296B017C01ACEEB4EFAF
:10546000A50194010E949429DC01CB018C0D9D1DA6
:10547000AE1DBF1DB7FF03C00197A109B0488883C7
:105480009983AA83BB839F77DF91CF91FF90EF90A1
:10549000DF90CF90BF90AF909F908F9008950E9423
:1054A000062A089580E091E00E94062A0895B0E05F
:1054B000A0E08093000190930101A0930201B093BA
:1054C00003010895FC014150504030F00190061650
:1054D000D1F73197CF010895882799270895FB01C7
:1054E000DC0104C08D910190801921F4415050409D
:1054F000C8F7881B990B0895FB01DC0102C00190DD
:105500000D9241505040D8F70895F999FECF92BDC1
:1055100081BDF89A992780B50895A6E1B0E044E0EE
:1055200050E00C94CF2AA8E1B0E042E050E00C94A7
:10553000CF2ADC01A40FB51F4150504048F0CB01E9
:10554000840F951F2E910E94AA2A41505040D0F7F7
:105550000895262FF999FECF92BD81BDF89A019743
:1055600000B4021639F01FBA20BD0FB6F894FA9AAB
:10557000F99A0FBE08950396272F0E94AA2A0E9427
:10558000A92A252F0E94AA2A242F0C94AA2A019620
:10559000272F0E94AA2A0C94A92ADC01CB01FC0126
:1055A000F999FECF06C0F2BDE1BDF89A319600B47C
:1055B0000D9241505040B8F70895052E97FB1EF408
:1055C00000940E94F42A57FD07D00E94402907FC4E
:1055D00003D04EF40C94F42A5095409530952195C3
:1055E0003F4F4F4F5F4F089590958095709561950F
:1055F0007F4F8F4F9F4F0895F894FFCFD406D40666
:105600001207120776070307030703079207030829
:105610001208120842134A134F13541359135E13FE
:10562000631368136D1372137713DF1D531EE71D89
:10563000B11DB51DEB1DB91DEF1DFB1DC51D4C1E7C
:10564000C91DFF1DCD1D031E2B1ED11D071E321EA1
:10565000D71D0D1E151EBD1DF31DC11DF71DDB1D24
:10566000111E211E3B1E4A1EAB1DE31D5A1EE41EC9
:10567000EA1ED31EDE1EF01EF61EFC1ECD27F527E9
:10568000DE28F527DE2828284928DE28A028AC288F
:105690000100000048020101020004000404011995
:1056A0001A1B1C1D1E1F2021220021007F22000723
:1056B000000001003620B8228C228B22B122E200A9
:1056C000E900EA00B500B600B700CD008301CC00C8
:1056D0008A0192019401210223022402250226025A
:1056E00027022A02B300B4006F0070009F01CB01B3
:1056F0009F02A002818283E200E900EA00B500B6C1
:1057000000B700CD008301CC008A019201940121F1
:1057100002230224022502260227022A02B300B431
:10572000006F0070009F01CB019F02A00281828365
:10573000C6973133353432360001020202020606C2
:10574000060909090909090F0F0F0F0F0F15151584
:105750001819191919191919191919232425252581
:10576000252525FE1C001D0B1D161D0008101820E8
:0C577000283038383028201810080000BD
:00000001FF
