:100000000C9435040C946D040C946D040C946D04E4
:100010000C946D040C946D040C946D040C946D049C
:100020000C946D040C946D040C94A9200C94652020
:100030000C9420220C946D040C946D040C946D04AB
:100040000C946D040C946D040C946D040C946D046C
:100050000C946D040C94FC210C946D040C946D04B0
:100060000C946D040C946D040C946D040C946D044C
:100070000C946D040C946D040C946D040C946D043C
:100080000C946D040C946D040C946D040C946D042C
:100090000C946D040C946D040C946D040C946D041C
:1000A0000C946D040C946D040C946D040631FF09DE
:1000B00074A1010975150026FF00952075088102BD
:1000C000C005010902A10185020901A10005091964
:1000D000012908150025019508750181020501090E
:1000E0003009311581257F9502750881060938157B
:1000F00081257F950175088106050C0A3802158156
:10010000257F950175088106C0C005010980A10100
:10011000850319012AB700150126B700950175104E
:100120008100C0050C0901A101850419012AA00262
:10013000150126A002950175108100C00501090670
:10014000A1018506050719E029E715002501950895
:10015000750181020507190029EF1500250195F0A9
:10016000750181020508190129059505750191029E
:10017000950175039101C005010906A10105071943
:10018000E029E715002501950875018102950175A3
:100190000881010507190029FF150026FF009506B3
:1001A0007508810005081901290515002501950527
:1001B00075019102950175039101C044454255476F
:1001C0003A2064697361626C65642E0A004445429A
:1001D00055473A20656E61626C65642E0A004F6E69
:1001E0006573686F743A206163746976653A202597
:1001F000640A000A002530325820006E6B726F5F6F
:100200007265706F72743A2025303258207C20005D
:100210000A002530325820006B6579626F61726484
:100220005F7265706F72743A2025303258207C20DE
:10023000000000150008000C001800000000001469
:10024000001A0017000A0012001300000000000945
:100250000007000E000D000000000004001600055D
:100260000028000F003300000000001900060036CF
:10027000001000000000001D001B001C000B0037D8
:10028000003800000000002900E100E5004C0000FB
:1002900000AE002B00E00011002C0034002A00000A
:1002A0000000000100010001000100000000000149
:1002B0000001000100010001000100000000000138
:1002C0000001000100010000000000010001000128
:1002D0000001000100010000000000010001000118
:1002E0000001000000000001000100010001000108
:1002F00000010000000000010001000100010000F9
:1003000000010001000100010001000100010000E6
:1003100000000001000100010001000000000001D8
:1003200000010001000100010001000000000001C7
:1003300000010001000100000000000100010001B7
:1003400000010001000100000000000100010001A7
:100350000001000000000001000100010001000197
:100360000001000000000001000100010001000088
:100370000001000100010001000100010001000076
:100380000000000100010001000100000000000168
:100390000001000100010001000100000000000157
:1003A0000001000100010000000000010001000147
:1003B0000001000100010000000000010001000137
:1003C0000001000000000001000100010001000127
:1003D0000001000000000001000100010001000018
:1003E0000001000100010001000100010001000006
:1003F00000A900AA00AB00AC002778287850004F75
:10040000006565636F6E6669675F757064617465CA
:100410005F7267625F6D61747269785F646566615F
:10042000756C740A007267625F6D61747269785FDF
:10043000636F6E6669672E666C616773203D202569
:10044000640A007267625F6D61747269785F636FDE
:100450006E6669672E7370656564203D2025640AA9
:10046000007267625F6D61747269785F636F6E6658
:1004700069672E6873762E76203D2025640A007207
:1004800067625F6D61747269785F636F6E666967DA
:100490002E6873762E73203D2025640A00726762F1
:1004A0005F6D61747269785F636F6E6669672E68ED
:1004B00073762E68203D2025640A007267625F6DA6
:1004C00061747269785F636F6E6669672E6D6F64C1
:1004D00065203D2025640A007267625F6D61747259
:1004E00069785F636F6E6669672E656E61626C65C1
:1004F000203D2025640A007267625F6D6174726935
:10050000785F636F6E66696720454550524F4D0AAC
:10051000007267625F6D61747269785F696E697499
:100520005F64726976657273207267625F6D617471
:100530007269785F636F6E6669672E6D6F646520A0
:100540003D20302E205772697465206465666175A0
:100550006C742076616C75657320746F204545500E
:10056000524F4D2E0A0073757370656E64696E6725
:10057000206B6579626F6172640D0A000A00253094
:100580003862003A200025303258000A722F63206A
:1005900030313233343536370A006C65645F74614C
:1005A000736B3A20253032580A0000010101010125
:1005B000010101010202020202020202020303031C
:1005C00003030303030404040404040405050505EC
:1005D00005060606060607070707070808080809AC
:1005E0000909090A0A0A0B0B0B0C0C0C0D0D0D0E58
:1005F0000E0E0F0F0F1010111111121213131414ED
:10060000151516161717181819191A1A1B1B1C1D61
:100610001D1E1E1F202021222223242425262627BA
:100620002829292A2B2C2D2D2E2F303132323334EC
:1006300035363738393A3B3C3D3E3F4041424344F2
:1006400045464748494A4C4D4E4F505153545556D4
:1006500058595A5B5D5E5F616264656668696B6C80
:100660006D6F7072737577787A7B7D7E80828385FB
:1006700087888A8C8E8F91939596989A9C9EA0A23B
:10068000A3A5A7A9ABADAFB1B3B5B7BABCBEC0C245
:10069000C4C6C9CBCDCFD1D4D6D8DBDDDFE2E4E709
:1006A000E9EBEEF0F3F5F8FAFDFF726762206D6199
:1006B0007472697820746F67676C65205B25735D61
:1006C0003A207267625F6D61747269785F636F6E02
:1006D0006669672E656E61626C65203D2025750A2E
:1006E00000290A002575002F002575005D280025CA
:1006F000640020002564002000256400200025649B
:10070000007C0025303258006D6F7573656B65791C
:10071000205B62746E7C782079207620685D287278
:1007200065702F61636C293A205B006164645F6BC4
:1007300065795F6269743A2063616E277420616431
:10074000643A20253032580A0064656C5F6B657925
:100750005F6269743A2063616E27742064656C3A45
:1007600020253032580A005B435D005B445D005B2E
:10077000535D005B575D005B525D0009025400034E
:100780000100A0FA09040000010301010009211180
:10079000010001224400070581030800010904014A
:1007A00000010300000009211101000122B6000729
:1007B0000582032000010904020001030000000972
:1007C00021110100012215000705830320000112F9
:1007D00001000200000008042000CB00010102001B
:1007E000011803730070006C006100790074006FE1
:1007F00000720061006900640000000C0346007292
:10080000006500790061000000040309047267625A
:10081000206D6174726978206D6F6465205B25734B
:100820005D3A2025750A00726762206D61747269F5
:10083000782073657420687376205B25735D3A2099
:1008400025752C25752C25750A00726762206D614F
:100850007472697820736574207370656564205BB9
:1008600025735D3A2025750A000011241FBECFEFC5
:10087000DAE0DEBFCDBF04B603FE18C0809164038A
:1008800090916503A0916603B09167038730904B08
:10089000A740B04B59F41092640310926503109274
:1008A000660310926703E0E0F8E3099512E0A0E028
:1008B000B1E0E4ECF0E502C005900D92A030B10784
:1008C000D9F723E0A0E0B2E001C01D92A436B20740
:1008D000E1F70E9447220C9401280C940000FF933A
:1008E000EF93E0910002F0910102309709F0099531
:1008F000EF91FF910895FC018591803011F0EFDFB9
:10090000FBCF0895FF27E0E230E247FF0CC041959E
:1009100097FF09C0EDE26095709580959095611DF7
:10092000711D811D911D27FF02C0219530E350E20A
:10093000AA27660F771F881F991FAA1FA41710F0F8
:10094000A41B63955A95A9F7AA3008F0A95FA05D8A
:10095000AF93F395611571058105910541F7ED326E
:1009600011F4EF93F395F21718F43F93F395FBCF3F
:100970008F91B5DFFA95E1F70895E991F9918591A5
:10098000803021F0853219F0AADFF9CF089520E0F8
:10099000E89455915532C1F3503311F46894559150
:1009A0005A3348F4505390F3220F022E220F220F95
:1009B000200D250FF4CF0EF421958991999153368E
:1009C00019F3533729F1533559F1BC018827992779
:1009D000E8945C3621F48991999168945591543644
:1009E00039F446EF7EF077FF0DC08FEF9FEF0AC01E
:1009F00055374AE039F0583540E121F0523642E0AF
:100A000009F00895FF93EF937DDFEF91FF91B7CF4A
:100A1000FF93EF93FC0181918030B9F360DFFBCF4E
:100A2000FF93EF9368DFF1CFDF93CF93CDB7DEB7BE
:100A30002596A3DFCF91DF910895482F209152038F
:100A40009091190357E0291302C080E0089530E027
:100A5000529FF001539FF00D1124E65EFC4F8181FF
:100A6000681306C08081481303C085818111EECFD1
:100A70002F5F3F4F2770E7CFE8EDF0E080818E7F5A
:100A800080831092E2001092DA001092E100A0EE52
:100A9000B0E08C9181608C9380818F77808319BCCA
:100AA000A7EDB0E08C918E7F8C9380818F7E8083C8
:100AB0001092040308952091E4003091E50095E63A
:100AC000A9012091EC00822F817020FF06C0809147
:100AD000E80080FF06C080E008952091E80022FD34
:100AE0001AC080910F03882389F0853089F08091A6
:100AF000EB0085FD0FC02091E4003091E500421726
:100B00005307F9F29150E1F684E0089582E00895E8
:100B100083E0089581E008958091110387FF13C059
:100B20008091E80082FF06C08091E8008B77809377
:100B3000E80004C080910F038111F2CF08958091E5
:100B40000F038823D9F38091E80080FFF8CF8091CC
:100B5000E8008E77ECCF982F9093E900242F762F22
:100B600050E0891731F07091EC002091ED00509128
:100B7000F00021FD07C09F5F973071F78093E90077
:100B800081E008953091EB003E7F3093EB0030918F
:100B9000ED003D7F3093ED003091EB0031603093FC
:100BA000EB007093EC002093ED005093F000209147
:100BB000EE0027FDE0CF80E00895B0E0A0E0E3EE96
:100BC000F5E00C947527C8EDD0E088818F7E88838E
:100BD000E7EDF0E080818160808384E082BF81E086
:100BE0008093040388818E7F888302EE10E0F801F1
:100BF00010821092DA0081EEC82ED12CF6011082FC
:100C000088818F77888388818068888388818F7DB9
:100C1000888319BC10920F031092100310920E03D8
:100C200010920D0390EEE92EF12CF70180818B7F5D
:100C3000808388818160888342E060E080E00E9458
:100C4000AB05F60180818E7F8083F8018081816011
:100C50008083808188608083F70180818E7F80839C
:100C6000888180618883CDB7DEB7E8E00C94912756
:100C7000FC01809117039091180386179707A0F045
:100C80006115710529F49091E8009E779093E80032
:100C900090E06115710551F4911108C08091E80050
:100CA00082FF34C080E00895BC01F2CF80910F0331
:100CB0008823C1F18530C1F18091E80083FD30C007
:100CC0008091E80082FDEACF8091E80080FFE1CFCB
:100CD0008091F3002091F200382F6115710519F011
:100CE0002830310558F091E02830310509F090E0C6
:100CF0002091E8002E772093E800CBCF819180935C
:100D0000F100615071092F5F3F4FE7CF80910F03D2
:100D1000882341F0853041F08091E80083FFBECF09
:100D200081E0089582E0089583E008952FB7F89454
:100D30006091FD027091FE028091FF02909100038C
:100D40002FBF08952FB7F8948091FD029091FE0275
:100D5000A091FF02B09100032FBF0895809111016F
:100D60000895A3E0B0E0E7EBF6E00C947B27209138
:100D7000F8023091F90228173907A1F09093F9028F
:100D80008093F802E091F602F091F702309751F06B
:100D900024E029839B838A830084F185E02DCE01A2
:100DA000019609952396E2E00C949727A3E0B0E022
:100DB000ECEDF6E00C947B272091F4023091F502E3
:100DC00028173907A1F09093F5028093F402E0917F
:100DD000F602F091F702309751F023E029839B83CC
:100DE0008A830084F185E02DCE0101960995239632
:100DF000E2E00C949727E091F602F091F702309729
:100E000029F00190F081E02D0995089580E0089582
:100E10008091E80280FD16C081FD16C082FD16C0DB
:100E20008091E7028823A1F0883280F428E0829F35
:100E3000C001112468E270E00E945127862F672BC1
:100E400039F0089582E0089584E0089588E00895D7
:100E500081E008958091E80280FD14C081FD14C0F6
:100E600082FD16C08091E902882381F08E3180F4E2
:100E700020E5829FC00111246EE170E00E9451279D
:100E8000862F089584E1089588E2089588E0089502
:100E900080E50895282F35EB2303C001112497FF27
:100EA00004C080589109892F089580589F4FFBCF27
:100EB000FC01EE0FFF1FE80FF91FEF54FD4F618398
:100EC000408322830895E1EBF2E0818360834283D3
:100ED000339692E0E73EF907C1F70895509A0895D6
:100EE00025E3611126E383B190E02F7002C0959550
:100EF00087952A95E2F78170089525E3611126E32D
:100F000034B12F7081E090E001C0880F2A95EAF794
:100F1000982F9095932394B995B1892B85B908950D
:100F20009091AB02E92FF0E04091AC029F012F5F5E
:100F30003F4F2370332742171306A9F0E355FD4FA7
:100F4000282F2F7780818078822B60FB87F9808320
:100F50009F5F93709093AB028091A9028F5F809303
:100F6000A90281E0089580E00895880F880F94E039
:100F7000980F933108F092E10895E42FF0E0EE0F1E
:100F8000FF1FE753FE4F6081621B0895622F089593
:100F9000E42FF0E0EE0FFF1FE753FE4F408134EEE9
:100FA000439F412D1124E72FF0E050E0445E5F4F56
:100FB000DA01A21BB1099D01B7FF03C0319521954C
:100FC000310993E0220F331F9A95E1F7AF01421BDD
:100FD000530B9A0157FD20E0279F212D1124722FDA
:100FE00008950E94630708950E9458070895EF929C
:100FF0000F931F93CF93DF93D62FC72F182F0E1960
:10100000080F2115310529F490E857FD1CC090E028
:101010001AC0F90137FF04C0EE27FF27E21BF30BCC
:10102000BA016E0F7F1F57FD1DC04E1B5F0BCA011B
:10103000E5E0880F991FEA95E1F70E94512790E2B9
:10104000961B37FD9195802F891B282F219F212DDD
:101050001124822F6D2F7C2FDF91CF911F910F9143
:10106000EF900895CB0165E0880F991F6A95E1F72D
:10107000BF01641B750B0E94512790E6E1CF2695B6
:10108000E22F26FDE0953E2F3F7026FD3F5FE6955F
:10109000E695E695E670F0E0E658FE4F9181939F65
:1010A000902D312D112492959F703295307F932B86
:1010B0003081930F27FD919597FD9195990F292FD9
:1010C000382F239F212D1124822F0895B0E0A0E016
:1010D000ECE6F8E00C9475279B01E82FF0E0E6556C
:1010E000FA4F311109C0E4918E2F7E2F6E2FCDB7AC
:1010F000DEB7E8E00C949127E32EF12CE491FE2F6B
:101100000E2F10E046E0649FC0011124CFEFD0E025
:10111000BE010E943D27AB01822F90E0880F991FEE
:1011200025E5249FB001259F700D1124861B970B88
:10113000982F990F980FBE016E197F09609FD001FB
:10114000619FB00D709FB00D11248B2F399F9001BE
:101150001124232F3327BE01621B730B609F900164
:10116000619F300D709F300D11246E01C91AD10896
:10117000CE9CB001CF9C700DDE9C700D1124672FAA
:101180007727C61BD70BC09F7001C19FF00CD09F63
:10119000F00C11247F2D42305105A1F050F441157F
:1011A000510509F4A3CF4130510581F07B2F832FE6
:1011B0009DCF4430510569F080F04630510509F467
:1011C00095CFF4CFEB2F8F2D7F2F90CF7E2FE32F56
:1011D0008DCFEF2D7B2F8F2F89CF732FEB2FFBCF51
:1011E0000F931F93CF93DF93C82FD0E0FE01E351FD
:1011F000FE4F80816823E1F100915E0310915F034F
:1012000040915D03E42FF0E060910E0170910F01B9
:1012100085E098E0689F9001699F300D789F300DC0
:101220001124275E394C30930F0120930E01CF011A
:101230008C549F4F68E671E00E9451278E1B9F0BD4
:1012400097FD03969595879595958795230F53E080
:10125000259F90011124642F839F600D1124702F0E
:10126000812F0E946608472F282FCE010E94F40785
:10127000DF91CF911F910F910895EF92FF920F93FD
:101280001F93CF93DF938C01809114010E94B507C7
:10129000E92E309160033695369521E0320F08F43F
:1012A0003FEF609153037091540350E040E0639F1F
:1012B000412D739F400D511D1124F42EC82FD0E0F5
:1012C000CE1550F081E091E19E1508F480E0CDB795
:1012D000DEB7E6E00C949327FE01E351FE4F8081D8
:1012E00090911501892389F060915D0370915E03EF
:1012F00080915F032F2D4C2FF80109950E946608FD
:10130000472F282FCE010E94F4072196D9CFF894B9
:10131000E82FE295EF70F0E031A1282F2F7081E0E7
:1013200090E001C0880F2A95EAF7982F90959323B3
:1013300091A392A1892B82A3789408959091FA02A7
:1013400092FF10C041E0282F2471243009F040E0C2
:1013500031E0282F2871283009F030E0431711F0D0
:101360002CE0822793FF10C041E0282F2471243104
:1013700009F040E031E0282F2871283109F030E0F1
:10138000431711F02CE082273091FB0230FF10C090
:1013900051E0282F2171213009F050E041E0282F41
:1013A0002871283009F040E0541711F029E0822715
:1013B00031FF10C041E0282F2171213109F040E0B8
:1013C00031E0282F2871283109F030E0431711F05F
:1013D00029E0822794FD877E089582389105B9F12E
:1013E000B0F48133910509F47DC048F48932910548
:1013F00009F46DC08A32910509F47BC008958533E4
:10140000910509F45FC08933910509F10895833E80
:101410009105D9F138F4803E910529F1823E91057C
:1014200079F10895863E9105D9F1873E910509F439
:101430003EC0843E910541F52091FB0221FF24C06E
:101440008091FA0284FD19C087EE90E00895209102
:10145000FA02237009F05AC02091FB0223FF14C046
:1014600089E290E008952091FA0220FD38C0309181
:10147000FB0230FF09C024FF43C090E080E00895E4
:101480002091FA0222FDF7CF08952091FA0222FD61
:101490003AC03091FB0230FD39C024FFF5CFEDCFCB
:1014A0002091FA0223FFF0CF24FDE7CFCDCF20918A
:1014B000FA0223FD2EC03091FB0231FFEECF84EE05
:1014C00090E008952091FA0225FFDECFC9CF209148
:1014D000FA0225FD21C02091FB0223FFD5CF89E32D
:1014E00090E0D2CF2091FA0226FFCECF8AE290E0A0
:1014F00008952091FA0226FFC7CF81E390E0089576
:1015000083EE90E0089582EE90E0089580EE90E002
:10151000089586EE90E0089585E390E00895972F72
:101520007830B8F4673078F5843080F570E027E0E3
:10153000929F600D711D1124FB0198E3899FE00DBE
:10154000F11D1124EE0FFF1FEF5CFD4F859194916B
:1015500008957D3F59F4611116C08430B8F424E039
:10156000829FF0011124EF50FC4FF0CF7C3F59F4E3
:10157000611109C0843050F494E0899FF001112476
:10158000ED50FC4FE3CF80E090E0089581E0FCCF88
:101590001F93CF93DF930E94ED09EC01C11580E505
:1015A000D807F0F5C11580E4D80708F09CC0C03E0C
:1015B000D10520F5CD3CD10508F082C0C83AD1054F
:1015C00078F4C53AD10508F073C0C130D10519F1DE
:1015D000209709F1C430D105F0F4D0E0C0E01BC081
:1015E000C33CD105D0F7C85AD0E0CC0FDD1FCB5D8E
:1015F000DE4F0990D881C02DD4640DC0C11580E2A2
:10160000D80708F0D1C0C11581E0D80708F05AC04A
:10161000C83ED10510F7CE01DF91CF911F910895FB
:10162000C03682E5D80718F5C03482E5D80708F03F
:101630006BC0C03282E5D80708F05FC0C11582E5F3
:10164000D80708F497C02C2F2695269580E2289F6E
:10165000900111248C2F8370C1E0D0E002C0CC0F28
:10166000DD1F8A95E2F7C22BD32BDD68D4CFC03AB9
:1016700082E5D80760F4C03882E5D80708F459C07D
:10168000CF71D0E0DC2FCC27C46FD06AC4CFC03C70
:1016900082E5D80708F462C0C03E82E5D80708F0AA
:1016A0009CCFDC2FCC27CC27DF71C06FD06AB3CFA3
:1016B000C55AD0E0CE5DDE4FC881D0E0D064ABCF5C
:1016C000D065A9CF8D2F0E949E09182FCE01992792
:1016D0000E94ED09C12FD0E0DC2FCC27CC27DF7191
:1016E000C82BD92B98CFCE0199270E94ED09CC2782
:1016F000DF70C82BD92BD06A8ECFCF71D0E0DC2F12
:10170000CC27C16FD06A87CF2C2F269526952770BE
:1017100080E2289F900111248C2F8370C1E0D0E0DB
:1017200002C0CC0FDD1F8A95E2F7C22BD32BDC68F9
:1017300072CF2C2F26952695277080E2289F900146
:1017400011248C2F8370C1E0D0E002C0CC0FDD1FCC
:101750008A95E2F7C22BD32BDA685DCF8C2F8F717D
:101760000E949E09C82FD0E0DC2FCC27CC27DF7148
:10177000D06251CF8C2F8F710E949E0955E0D69573
:10178000C7955A95E1F7CF70D0E0DC2FCC27282FF2
:1017900030E084FF05C044E0220F331F4A95E1F793
:1017A000C22BD32BD06937CF8D2F8F710E949E090A
:1017B000182FCE0199270E94ED09C12FD0E0DC2F10
:1017C000CC27CC27DF71C82BD92BD2CF8095909115
:1017D0007E02982390937E02089580917E029091DC
:1017E0005502892B90915402992391F0892B909165
:1017F0001201913071F49091FA0297FF0AC09EE1B4
:101800002CE032E040E0915040F44111109254023B
:10181000089596E024E032E0F5CFF90151919F015F
:10182000552389F34F5FEFCF8091520390911903B5
:10183000981301C008958F5F8770FACFB0E0A0E0E1
:10184000E4E2FCE00C9474277C0100918E0210917C
:101850008F0280918C0290918D02082B192BCFE082
:10186000D0E0CC24C394D12CBC2EC6010C2E02C0D7
:10187000880F991F0A94E2F780239123892B49F45A
:10188000219790F7B12C8B2DCDB7DEB7E9E00C9402
:101890009027B7018C2F0E948F0A0E94C80A0197D7
:1018A00079F3F1CFCF93DF93EC010E941E0CBE01C0
:1018B0000E948F0A0E94C80ADF91CF910895A82F35
:1018C000A77023E0969587952A95E1F7880F991FD1
:1018D000880F991FFB01E80FF91F50E040E080E0FE
:1018E000219130E00A2E02C0369527950A94E2F73E
:1018F00021703327042E01C0220F0A94EAF7822BAD
:101900004F5F5F4F4430510559F70895292F9830A4
:1019100068F4873090F490E060E372E037E0239F52
:10192000800D911D11240E945F0C08952C5F2230C0
:1019300020F46CE272E090E0F6CF80E00895262F6C
:10194000277091E001C0990F2A95EAF723E0769578
:1019500067952A95E1F7660F771F660F771FFA01E3
:10196000E60FF71F50E040E0682F70E08191DF0143
:1019700011979B01042E02C0369527950A94E2F731
:10198000217021952827292328272C934F5F5F4F0B
:101990004430510559F70895282F862F983070F458
:1019A000273058F4622F70E027E0929F600D711D80
:1019B000112440E352E00E949F0C08959C5F9230F6
:1019C000E0F7622F70E04CE252E0F5CF90938F0287
:1019D00080938E02089521E030E002C0220F331F71
:1019E0008A95E2F72095309580918E0290918F0232
:1019F000822393230E94E60C0895909153028095D0
:101A0000892380935302282F277069F4891759F08E
:101A10009091FB0292FF07C08695869586950E945D
:101A2000EB0C10925302089521E030E002C0220F27
:101A3000331F8A95E2F780918E0290918F02822B5C
:101A4000932B0E94E60C089590938D0280938C0254
:101A50000895FC0124812223C1F0808191810E949C
:101A6000520C92959F70963091F058F4925F9F704F
:101A7000923058F4803F19F030F4883E30F481E021
:101A800008959A5FF4CF843FD1F380E00895883EB3
:101A9000B0F3813FD1F7F3CF829590E09C01220F04
:101AA000331F220F331F2C7C95958795959587952D
:101AB0008373282B30E0C901880F991F8A7A3595E6
:101AC00027952575822B0895A6E0B0E0EAE6FDE0B3
:101AD0000C947A2726E0FC01DE01119601900D920C
:101AE0002A95E1F7FC01258189819A81222399F0C9
:101AF000662389F00E941E0C182F682F89819A8115
:101B00000E94CC0C69817A81812F0E948F0A2696CF
:101B1000E3E00C9496270E94860C182FF3CF809355
:101B2000600390915A03916090935A0390915B03E4
:101B300090FF12C01F928F938BE191E09F938F9340
:101B40008AE498E09F938F930E9414050F900F9062
:101B50000F900F900F900F9008958091600320E1F7
:101B6000382F321B08F430E0832F0E948F0D089528
:101B70008091600320E1382F320F08F43FEF832F6C
:101B80000E948F0D089520915C03237059F180937A
:101B90005D0360935E03493C08F048EC40935F03AB
:101BA00020915A03216020935A0320915B0320FF68
:101BB00019C01F924F931F926F9399279F938F93F2
:101BC0008BE191E09F938F9387E298E09F938F93AF
:101BD0000E9414058DB79EB70A960FB6F8949EBF63
:101BE0000FBE8DBF0895ECE5F3E0438120E1421B79
:101BF00008F440E08181628190E00E94C30D089565
:101C0000ECE5F3E0438120E1420F08F44FEF8181DE
:101C1000628190E00E94C30D0895ECE5F3E06281DB
:101C200020E1621B08F460E08181438190E00E9422
:101C3000C30D0895ECE5F3E0628120E1620F08F442
:101C40006FEF8181438190E00E94C30D0895ECE520
:101C5000F3E08181438162818850990B0E94C30D1A
:101C60000895ECE5F3E0818190E04381628108967C
:101C70000E94C30D089590915C03937031F181111E
:101C800025C0946090935C031092170180915A03D1
:101C9000816080935A0380915B0380FF16C080911E
:101CA0005C03869586951F928F938BE191E09F93BD
:101CB0008F938DE098E09F938F930E9414050F906F
:101CC0000F900F900F900F900F900895883010F0A4
:101CD0009C61D8CF880F880F982BD4CF80915C035C
:101CE00086958695815009F487E00E943B0E089501
:101CF00080915C03869586958F5F883008F081E03F
:101D00000E943B0E089590911201913059F59091E7
:101D1000FA0297FF27C0E82FE695E695E695EE31A3
:101D200080F4F0E0E65FFD4F282F277081E090E01F
:101D300001C0880F2A95EAF78095928189238283D2
:101D4000089590915B0390FF19C01F928F9389E4CF
:101D500097E09F938F930E9414050F900F900F9020
:101D60000F900895E4E0F2E09191891303C0DF0140
:101D700011971C9292E0EA30F907B1F7089590911B
:101D80001201913049F59091FA0297FF25C0E82F92
:101D9000E695E695E695EE3170F4F0E0E65FFD4FEE
:101DA000877021E030E001C0220F8A95EAF7828136
:101DB000822B8283089590915B0390FF1EC01F9237
:101DC0008F938BE297E09F938F930E9414050F905F
:101DD0000F900F900F900895A4E0B2E0EFEF90E025
:101DE0002D91821751F0EF3F19F4211101C0E92F15
:101DF0009F5F9630A9F7EF3F09F408950E2E000C6F
:101E0000FF0BEE5FFD4FD5CF80915B0383FF96C044
:101E100088E097E09F938F930E9414058091EF02D2
:101E20001F928F9383E097E09F938F930E941405F6
:101E300081E097E09F938F930E9414058091F002B8
:101E4000282F082E000C330B3F938F938EEF96E0D4
:101E50009F938F930E9414058CEF96E09F938F932E
:101E60000E9414058091F102282F082E000C330BDC
:101E70003F938F9389EF96E09F938F930E94140571
:101E800087EF96E09F938F930E9414058091F20252
:101E9000282F082E000C330B3F938F9384EF96E08E
:101EA0009F938F930E94140582EF96E09F938F93E8
:101EB0000E9414058091F302282F082E000C330B8A
:101EC0003F938F938FEE96E09F938F930E9414051C
:101ED0008CEE96E09F938F930E9414058DB79EB76A
:101EE00080960FB6F8949EBF0FBE8DBF8091E90219
:101EF0001F928F9389EE96E09F938F930E94140513
:101F000087EE96E09F938F930E9414058091E802DC
:101F10001F928F9384EE96E09F938F930E941405F7
:101F200081EE96E09F938F930E9414058DB79EB724
:101F30000C960FB6F8949EBF0FBE8DBF0E94A206EE
:101F40009C019091F0028091F102982B21F0309346
:101F5000ED022093EC029091F2028091F302982B13
:101F600021F03093EB022093EA02E091F602F09127
:101F7000F702309749F082E08093EE020680F78105
:101F8000E02D8EEE92E009950895662309F45DC078
:101F90008D3C41F40E942A0781958093F1020E94B2
:101FA000040F08958E3C19F40E942A07F6CF8F3C47
:101FB00031F40E942A0781958093F002F0CF803D92
:101FC00019F40E942A07F8CF893D29F40E940807D6
:101FD0008093F202E4CF8A3D21F40E9408078195A4
:101FE000F7CF8B3D31F40E94080781958093F3026F
:101FF000D6CF8C3D19F40E940807F8CF9FE2980FC6
:10200000983070F4815D990B21E030E001C0220F1F
:102010008A95EAF78091EF02822B8093EF02BFCF7F
:102020008D3D31F48091E80281608093E802B7CF62
:102030008E3D21F48091E8028260F7CF8F3D09F058
:10204000AECF8091E8028460F0CF4091F0028D3CE9
:1020500059F48091F10287FF0DC01092F1024111F5
:102060000BC01092E90208C08E3C81F48091F1020D
:1020700018169CF3442381F08091F2029091F302B0
:10208000892B09F08CCF1092E70289CF8F3C49F45D
:1020900047FFF0CF1092F0028091F1028111ECCF56
:1020A000E0CF803D19F41416ACF3E4CF9091F20226
:1020B000893D29F41916F4F61092F202DBCF8A3D1D
:1020C00019F497FFD7CFF8CF9091F3028B3D29F405
:1020D00097FFD0CF1092F302CDCF8C3D19F4191693
:1020E000CCF3C8CF9FE2980F983090F4815D990BA4
:1020F00021E030E0B90102C0660F771F8A95E2F750
:10210000CB0180959091EF0289238093EF02B2CFAB
:102110008D3D31F48091E8028E7F8093E802AACF52
:102120008E3D21F48091E8028D7FF7CF8F3D09F03D
:10213000A1CF8091E8028B7FF0CF80915C03982F34
:10214000937021E092278C7F892B80935C031092FF
:10215000170180915A03816080935A0380915B0339
:1021600080FF12C01F929F938BE191E09F938F930A
:102170008AEA96E09F938F930E9414050F900F9028
:102180000F900F900F900F9008959FB7F8941092B2
:1021900002039FBF90910F03943009F048C0209133
:1021A000E9002F703091EC00932F917030FD90E892
:1021B000922B23E02093E9002091EB0020FF34C014
:1021C0002091EE0027FF30C020910103222321F04F
:1021D0002091E80025FF28C01092010326E03091ED
:1021E000E80035FF14C08093F1008091E80085FD80
:1021F00027C08091E80080FFFCCF8091E8008E77B7
:102200008093E8009F709093E90080E008953091FA
:102210000F03343049F43091EB0035FD05C02150F7
:1022200041F481E0809301039F709093E9008FEF68
:102230000895EFE9FFE03197F1F700C00000CFCF3C
:102240008FB7F89421E0209302038FBFDBCF0F9369
:102250001F93CF93DF938B01EA0190910F0394308A
:1022600061F58093E9008FEF9091E800815095FD32
:1022700006C095ED9A95F1F700008111F5CF809198
:10228000E80085FF1AC00E945B05811111C0809192
:10229000E80085FD06C08091E8008E778093E80015
:1022A000F2CFF80181918F018093F100219779F7A6
:1022B0008091E8008E778093E800DF91CF911F91A5
:1022C0000F91089543E050E0BC0182E00E94271185
:1022D000089546E050E0BC0182E00E942711089575
:1022E00040E250E0BC0182E00E9427110895CF93A4
:1022F000DF93EC0148E050E0BC0181E00E9427112F
:1023000088E0FE01A5E0B3E001900D928A95E1F727
:10231000DF91CF91089581E08093E00080E2809387
:10232000D8001092C9008FE19EE40197F1F700C038
:10233000000087E090EBDC018093640390936503D9
:10234000A0936603B093670388E19CE00FB6F8940E
:10235000A895809360000FBE90936000FFCF3BB1C3
:102360003E7F2BB121604FB7F89481EB92E0FC01E6
:102370005191CF0168E02BB9000000C057FF3BB975
:10238000550F000000C000C000C03BB900C06A95F6
:1023900091F7F2E0873E9F0751F74FBF8FE594E03A
:1023A0000197F1F700C000000895B0E0A0E0EBED68
:1023B000F1E10C9473270E9496066093A502709336
:1023C000A6028093A7029093A80230915C03C32FCA
:1023D000C37019F0C32FC695C695209117012130FF
:1023E000D9F0222359F0223009F486C1233009F4B0
:1023F0008DC1CDB7DEB7EAE00C948F27109214019F
:102400006093530370935403809355039093560342
:1024100081E080931701EDCF90910D0181E0C91308
:102420000BC0832F837020910C0130E091E0821764
:10243000130609F490E0892F817080931601809132
:10244000610390911501981739F08093150140E0D0
:1024500060E080E00E94F107C83078F4EC2FF0E0F3
:10246000ED5FF74D0C946527809116018823A1F14B
:1024700040E060E080E00E94F10780E02DC08091A4
:1024800014010E94B507082FD92F60915D03709148
:102490005E0380915F030E946608F62EE72ED82E19
:1024A00010E00D1720F081E0D231B0F0E6CFF80156
:1024B000E351FE4F808190911501892331F02D2D3C
:1024C0004E2D6F2DC8010E94F4070F5F1F4FE9CFFB
:1024D0008FE398E00E943D099091140121E0290FBB
:1024E00020931401811105C182E08093170180912E
:1024F00016018111FEC0CC2309F406C1892F0E9468
:10250000B50777CF88EC97E0E5CF809114010E9462
:10251000B507D92F40915303509154039091600314
:10252000969530E020E0499F212D599F200D311DC7
:102530001124122FC82ED12CC601880F991F9C017F
:102540002F563E4F5901CD1608F0ADCFF601E3519D
:10255000FE4F808190911501892309F452C0D50165
:10256000D8964C91D8974057550BD996EC91E0529C
:10257000FF0B449F9001459F300D300D1124EE9FBD
:10258000C001EF9F900D900D1124820F931F082F13
:102590008230910528F13FEF813EBEE19B0740F478
:1025A000BC01B5E076956795BA95E1F738E0360F4E
:1025B00021E0A22FA30FBB27BB1FBD017595679517
:1025C000062F669FD001679FB00DB00D11248A17AA
:1025D0009B07F0F43FEF360F321758F70FEF020F5B
:1025E00060915D0370915E0380915F03E12E9F0116
:1025F0000E94F7070E946608472F282FC6010E94F5
:10260000F407BFEFCB1ADB0AE2E0AE0EB11C9BCFA2
:102610006F3F31F321E0260FDFCF86EC97E05ACFF2
:102620008DEB97E057CF30911401311134C02091D8
:10263000600340E1240F08F42FEF409153035091C1
:10264000540390E080E0429F812D529F800D911DA8
:1026500011246AE070E00E943D27892BE1F460912B
:102660000E0170910F0145E058E0649FC001659F25
:10267000900D749F900D1124875E994C90930F01DB
:1026800080930E01890FF2E18F9FC0011124909376
:102690000A0110920B01832F0E94B507192FD82F22
:1026A0009091160191111EC020910A0130910B01E9
:1026B0008217130609F0C0F412171306A9F0A0F050
:1026C00060911501822F0E94F00883E190E09093C1
:1026D0000B0180930A0108C0609115018D2F0E94A3
:1026E000F008DF5FD117C0F381E0123108F4F4CEB7
:1026F000C4CEC11103CF7DCEC0930D01832F837053
:1027000080930C010E94AF1183E083CE80915A0325
:10271000882351F048E050E067E170E08CE593E0F9
:102720000E94C02710925A03C0905303D0905403C4
:10273000E0905503F09056030E9496066C197D09AF
:102740008E099F09603171058105910508F451CE0C
:10275000109217014ECECF93C82F8091FB0282FBBF
:10276000992790F99C17F9F0C0FB82F98093FB023E
:102770006091FA027091FB0284E090E00E94EE27E3
:1027800082E00E94FD0C80915B0380FF0CC01F92D1
:10279000CF938EED91E09F938F930E9414050F903D
:1027A0000F900F900F90CF910895EF92FF920F939B
:1027B0001F93CF93DF9380911201813009F06CC099
:1027C0008091FA0287FF68C00E94ED0B80930B0294
:1027D00040E250E066E572E08AE092E00E94F42771
:1027E000892B09F454C080E2EAE0F2E0A6E5B2E009
:1027F00001900D928A95E1F7E091F602F091F702CF
:10280000309709F444C086E080930A020480F58181
:10281000E02D8AE092E0099580915B0382FF37C04A
:1028200080FF0EC080910B021F928F938BEF91E07F
:102830009F938F930E9414050F900F900F900F900D
:10284000CAE0D2E098E2E92E92E0F92E05EF11E01D
:1028500080915B0380FF0BC08A811F928F931F932F
:102860000F930E9414050F900F900F900F902196D8
:10287000EC16FD0669F780915B0380FF08C083EFCB
:1028800091E09F938F930E9414050F900F90CDB706
:10289000DEB7E6E00C9493270E94ED0B80930202D2
:1028A00048E050E066E772E082E092E00E94F427A0
:1028B000892B69F388E0E2E0F2E0A6E7B2E001905C
:1028C0000D928A95E1F7E091F602F091F7023097C8
:1028D000F1F20280F381E02D82E092E0099580918F
:1028E0005B0382FFD4CF80FF0EC0809102021F9253
:1028F0008F9388E192E09F938F930E9414050F902D
:102900000F900F900F90C2E0D2E088E0E82E82E0B6
:10291000F82E02E112E080915B0380FF0BC08A81F8
:102920001F928F931F930F930E9414050F900F9087
:102930000F900F902196EC16FD0669F780915B03CE
:1029400080FFA5CF80E192E09CCF10927E02809123
:102950001201813039F58091FA0287FF23C0ECE043
:10296000F2E08EE1DF011D928A95E9F790E080E0C8
:102970000E94D60690E080E00E94B10610925502B7
:102980000E94D51386E0EEEEF2E0DF011D928A95FB
:10299000E9F71092E9021092E7021092E8020E9411
:1029A000040F0895E4E0F2E086E0DCCFAAE2B0E0B4
:1029B000ECEDF4E10C947A2781E193E02091F100B1
:1029C000DC012D93CD01B3E089319B07B9F78091EC
:1029D0001203833009F470C0B8F4813009F447C0A1
:1029E000823009F4B5C08091E80083FF90C28091E5
:1029F0001103909112039A3008F089C2E92FF0E098
:102A0000E55FF74D0C9465278A3009F490C08B3050
:102A100009F46FC0893039F780911103813219F7B9
:102A200080911503909116030297E8F68091E800D3
:102A3000877F8093E8008091E80082FF38C0909102
:102A4000F3008091F200029731F48091F10081301F
:102A500011F0863021F48091F10080931101809172
:102A6000E8008B778093E8000E948C05BCCF8091B2
:102A70001103813A09F0B7CF8091E800877F8093F6
:102A8000E8008091150390911603892B61F468E0AA
:102A900085E093E070E00E9438068091E8008B7733
:102AA0008093E800A0CF60E090E080E0F3CF8091D9
:102AB0000F038111C0CF97CF80911103813A09F0A4
:102AC00092CF8091150390911603892B09F08BCF3B
:102AD0008091E800877F8093E8008091E80080FF84
:102AE000FCCF809112018093F1008091E8008E77F5
:102AF000B9CF80911103813209F075CF8091150310
:102B000090911603892B09F06ECF8091E800877FA2
:102B10008093E8000E948C0581E09091130391114D
:102B200001C080E0809312010E94A5145CCF8091C7
:102B30001103813209F057CF8091E800877F80939D
:102B4000E8000E948C0580911403809310014BCF04
:102B500080911103813A09F046CF8091E800877F88
:102B60008093E8008091E80080FFFCCF8091100105
:102B7000BACF803899F0823809F0C9C18091150325
:102B80008F70873008F0C3C18093E9008091EB001B
:102B900085FB882780F91092E90006C080910D031B
:102BA00090910E03911182609091E800977F90932D
:102BB000E8008093F1001092F1008091E8008E7798
:102BC000A2C1882309F490C1823009F0A0C180918C
:102BD0001303811193C1809115038F702FEF280F7C
:102BE000263008F094C18093E9002091EB0020FF8B
:102BF00085C1933031F48091EB0080628093EB00CB
:102C00007DC19091EB0090619093EB0021E030E06A
:102C100001C0220F8A95EAF72093EA001092EA0099
:102C20008091EB008860EACF811171C1109113038C
:102C30001F778091E3008078812B8093E30080915F
:102C4000E800877F8093E8000E948C058091E8006F
:102C500080FFFCCF8091E30080688093E30082E0F6
:102C6000111183E080930F0352C18058823008F025
:102C70004EC120911303309114032C3DE3E03E0735
:102C8000A1F583E08A838AE289834FB7F894DE0155
:102C9000139620E03EE051E2E32FF0E0509357001E
:102CA000E49120FF03C0E295EF703F5FEF708E2F3D
:102CB00090E0EA30C0F0C7968D939D932F5F24314A
:102CC00059F74FBF8091E800877F8093E8006AE260
:102CD00070E0CE0101960E9438068091E8008B7763
:102CE0008093E80014C1C096E7CF809115039091BE
:102CF0001603432F55274330510509F44AC078F590
:102D00004130510509F47AC084E590E0EBE7F7E043
:102D10004230510509F0FBC02091E800277F209345
:102D2000E80020911703309118038217930708F4E5
:102D30009C0140E02115310509F065C0411163C0D7
:102D40008091E80082FDC9CF80910F03882329F28A
:102D5000853019F28091E80083FFF2CFBECF413277
:102D6000510509F43CC04232510509F0D0C083300E
:102D7000910508F0CCC0FC01EE0FFF1FEB57FE4F92
:102D80000190F081E02D8E579E4FDC018C9190E0F8
:102D90001AC0332721303105D1F02115310561F0FA
:102DA0002230310509F0B3C0E1EEF7E0E4918E2F57
:102DB00090E0E1EEF7E007C0E9E0F8E0E4918E2F63
:102DC00090E0E9E0F8E0009709F4A1C0A5CFEBEFAF
:102DD000F7E0E4918E2F90E0EBEFF7E0F4CF833053
:102DE000910508F094C0880F991FFC01E557FE4F2C
:102DF0000190F081E02D89E090E08ECF82E190E0BB
:102E0000EFECF7E089CF80910F03882309F465CFB9
:102E1000853009F462CF8091E80083FD5ECF809118
:102E2000E80082FD8DCF8091E80080FF83CF9091F4
:102E3000F3008091F2002115310519F088309105D9
:102E400050F041E0089709F040E08091E8008E776B
:102E50008093E8006FCF44914093F1003196215068
:102E600031090196E8CF803809F051C08091E8001F
:102E7000877F8093E800809110038093F1009DCEBE
:102E8000811145C010911303123008F040C08091A9
:102E9000E800877F8093E800109310030E948C0560
:102EA000112311F084E005C08091E30087FDFACF83
:102EB00081E080930F0342E061EC81E00E94AB056A
:102EC00042E261EC82E00E94AB0542E261EC83E009
:102ED0000E94AB0580910F03843021F081E0809344
:102EE000130115C082E0FBCF80911303813079F488
:102EF00081E0933009F080E080930E031092E900A6
:102F00008091E800877F8093E8000E948C05809183
:102F1000E80083FF0AC08091E800877F8093E80083
:102F20008091EB0080628093EB00AA96E3E00C9422
:102F300096270E94A5142FEF84E39CE02150804047
:102F40009040E1F700C0000088E19CE00FB6F894E3
:102F5000A895809360000FBE90936000FFCF8823F8
:102F600021F00E94E60B0E94D5130895882339F0C2
:102F700090917E02982B90937E020E94D513089523
:102F8000882381F19CEF980F913A28F40E94830ED8
:102F90000E94D513089590E2980F983050F48770EE
:102FA00091E001C0990F8A95EAF7892F0E94E60BFC
:102FB000EFCF9BE5980F933028F490E080E00E94DB
:102FC000D606089598E5980F9B3128F490E080E0AC
:102FD0000E94B106089593E3980F933118F460E0CE
:102FE0000E94C50F0895CF93C82F8823B9F18CEFA5
:102FF0008C0F813AA8F580911201813001F5809102
:10300000FA0287FF1CC0EC2FE695E695E695F0E006
:10301000E65FFD4F828190E04C2F477021E030E069
:1030200002C0220F331F4A95E2F782239323892B94
:1030300081F08C2F0E94830E0E94D5130AC0E4E019
:10304000F2E08AE092E02191C21799F38E179F0770
:10305000D1F78C2F0E94BF0E0E94D513CF910895F7
:1030600080E28C0F883068F4C77021E030E001C046
:10307000220FCA95EAF780917E02822B80937E020E
:10308000EBCFEBE5EC0FE33040F4F0E0EE5DFE4F0C
:10309000808190E00E94D606E1CFE8E5EC0FEB31AD
:1030A00050F4F0E0EE0FFF1FEB5DFE4F8081918149
:1030B0000E94B106D3CF83E38C0F833178F661E0B1
:1030C0008C2F0E94C50FCACFEF92FF920F931F93D0
:1030D000CF93DF93C62FD42F022FFC018581882345
:1030E000A9F0609359030E94A2069093580380931D
:1030F0005703C77081E001C0880FCA95EAF70E94A4
:10310000B617CDB7DEB7E6E00C949327809159034C
:10311000681337C0E0905703F09058030E94A2064E
:103120008E199F09883C910560F510E21D0FCD179F
:10313000B9F080E28C0F883040F4C77081E001C0A4
:10314000880FCA95EAF70E94AF17183048F481E05B
:103150009D2F977001C0880F9A95EAF70E94B617C5
:10316000802F0E94F317802F0E94C017183048F656
:10317000D77081E001C0880FDA95EAF70E94AF1797
:10318000C0CFC77081E001C0880FCA95EAF7F6CFBB
:10319000B0E0A0E0EEECF8E10C9473277C01FC01B8
:1031A0008481882321F161E0C7010E94640DEC0154
:1031B000FC01E851FC47E730F105A8F5EB5EF74D5F
:1031C0000C94652726E241EE61EEC7010E94641867
:1031D00080915302877059F0F7018581882339F077
:1031E0008091FB0282FF03C082E00E94FD0CCDB7FC
:1031F000DEB7EAE00C948F2727E245EE65EEE5CFD7
:1032000026E241EE60EEE1CF27E245EE64EEDDCF4F
:1032100026E241EE62EED9CF27E245EE66EED5CF4B
:1032200028E241E0EBCFF7019581992309F407C427
:10323000109259039E0130572332310508F0EBC339
:1032400084E090E00E94BA279093FB028093FA02F8
:10325000FE01E150F047E232F10520F4E45EF74D63
:103260000C9465278091FA0281608093FA0295C0E0
:103270008091FB0288608093FB028FC08091FA02EC
:103280008260F3CF8091FA028460EFCF8091FA02DE
:103290008860EBCF8091FB028160EDCF8091FB02D3
:1032A0008260E9CF8091FA028061DFCF8091FA02DB
:1032B0008062DBCF8091FA028064D7CF0E94A51490
:1032C0008091FA028068D1CF8091FA028C60CDCFD4
:1032D0008091FB028360CFCF8091FA028E7FC5CFB1
:1032E0008091FB02877FC7CF8091FA028D7FBDCF8F
:1032F0008091FA028B7FB9CF8091FA02877FB5CF98
:103300008091FB028E7FB7CF8091FB028D7FB3CF80
:103310008091FA028F7EA9CF8091FA028F7DA5CF8E
:103320008091FA028F7BA1CF0E94A5148091FA02AE
:103330008F779BCF8091FA02837F97CF8091FB029A
:103340008C7F99CF8091FA0282FB992790F921E036
:10335000922790FB82F990FB83F987CF8091FB0243
:10336000982F909591708E7F892B90FB81F983CF58
:103370009091FA02892F8F7B96FF806476CF0E940E
:10338000A5149091FA02892F97FB87F980586DCF89
:1033900061E08EE090E00E94D0276091FA02709187
:1033A000FB0284E090E00E94EE270E94A51410CF5B
:1033B00060E0EFCF9091FA02892F8F7E94FF8061B9
:1033C00054CF9091FA02892F8E7F90FF81604DCF6C
:1033D0009091FB02892F877F93FF88604CCF85E314
:1033E00029C385E335C30E949D10F2CE8823A9F13D
:1033F0000E946E0EEDCE8823A9F10E94270EE8CE22
:103400008823A9F10E940D0EE3CE8823A9F10E9422
:10341000F30DDECE8823A9F10E94AD0DD9CE8091A7
:103420005C03837011F41092170180915C038C7F10
:10343000816080935C0380915A03816080935A037A
:10344000C7CE80915C03837011F0109217018091B8
:103450005C038C7FEECF882359F20E94780EB8CEA1
:10346000882359F20E94310EB3CE882359F20E946C
:103470001A0EAECE882359F20E94000EA9CE8823E0
:1034800059F20E94B80DA4CE9E01205E3245203232
:103490003105A8F4911115C0CF7181E090E09C0135
:1034A00002C0220F331FCA95E2F7E901622F83E0C1
:1034B00090E00E94D027CE010E94240D89CE99234E
:1034C00091F0C3303CE7D30709F490C008F05CC02A
:1034D000C1309CE7D90709F48FC008F071C0C1154D
:1034E000DC4709F460C0F7018581C081D181882360
:1034F00009F490C0CE010E941E0C182F682FCE0137
:103500000E94CC0CBE01812F0E948F0A0E94C80A23
:10351000D82FC92FA82EF701C580B680B2949FE09E
:10352000B92280915302877001F10C2DCC20F1F06B
:103530008C2F807F803469F080E28D0F8830A8F076
:103540008C2F807E803229F4F1E0FD1770F4BB20CF
:1035500061F08091FB0282FF08C082E00E94FD0CB6
:1035600080915302877001E009F000E0DC2ED294D4
:103570008FE0D8222BE02D1508F4ACC0ED2DF0E043
:10358000E25CF74D0C946527CB352CE7D20709F4A4
:103590003FC0CC353CE7D30789F1CA35DC4709F099
:1035A000A2CF81E032C00E94A5149FEFE4E3FCE0CB
:1035B0009150E040F040E1F700C000000E948B1104
:1035C00090915B03892F8E7F90FF816080935B03D6
:1035D00080FF09C08DEC91E09F938F930E941405AA
:1035E0000F900F90F5CD8BEB91E0F6CF6FEF7FEF63
:1035F00090E080E00E94EE270E9499178091FB02E4
:1036000082FB882780F991E089270E94AB136BCF5A
:1036100080E0FBCFCE010E94860C182F73CF1C2FA9
:103620001F70C07F11F01295107FCC20B9F01123CC
:1036300069F080E28D0F883010F0A11009C08091F0
:103640007E02182B10937E020E94D5138D2F40C04E
:1036500080915502182B10935502F6CF8D2F0E94A2
:10366000C0171123B9F1D05ED83010F0A11004C0FA
:10367000812F0E94E60B06C01095809155021823F9
:10368000109355020E94D51325C01C2F1F70C07FB8
:10369000C03211F01295107FAA2051F031E0A3162C
:1036A00009F459C0CC2009F465C0BB2051F1CECF3C
:1036B0008091FB0282FD21C0CC20C9F0112339F09A
:1036C00080917E02182B10937E020E94D51380E019
:1036D0000E94F317ED2DE850FF0B349708F082C1DC
:1036E0000E94FB0660E0C7010E94640D80CD80E06F
:1036F0000E94C017112371F3BBCFCC2099F0B110F9
:1037000004C0812F0E94B617E5CF81E0B812E2CF46
:1037100080915402912F98231917E1F2182B1093DE
:103720005402D8CFB110D6CF812F0E94AF179091FD
:103730005402812F892329F0812F8095892380933A
:10374000540280912B02912F982321F21095182377
:1037500010932B02BFCFCC2029F095E09B1508F4E5
:10376000B9CFCFCFE4E0EB1508F4B4CF812F0E949E
:10377000AF17B0CFBB20D1F3F9E3AF122CC12FEFBD
:1037800037EE83E0215030408040E1F700C0000078
:1037900022C18C2F86958695837069F0813009F05F
:1037A00099CF8D2F9C2F9370C11002C080E090E0C4
:1037B0000E94B1068FCF8D2F9C2F9370C11002C035
:1037C00080E090E00E94D60685CF6C2D8D2F0E9460
:1037D000C50F80CF8C2F837009F03FC0C1107ACF06
:1037E0004D2F429546954770440F440F2D2F2F7053
:1037F00030E0042E02C0220F331F0A94E2F790E05B
:1038000080E0D4FF09C08FE090E002C0880F991FCC
:103810004A95E2F780959095C695C695C370C230DB
:1038200099F078F440918C0250918D02C13039F0BA
:10383000822B932B842395230E94240D4BCF242B82
:10384000352B822B932BF8CF822B932B20918C023C
:1038500030918D0282279327EFCF8695CC2011F0EF
:103860008C2F8170882309F435CF4D2F42954695D2
:103870004770440F440F2D2F2F7030E0042E02C0EC
:10388000220F331F0A94E2F790E080E0D4FF09C0D2
:103890008FE090E002C0880F991F4A95E2F780956B
:1038A0009095C695C695C370C23099F078F4409152
:1038B0008E0250918F02C13039F0822B932B8423DA
:1038C00095230E94E60C06CF242B352B822B932BBD
:1038D000F8CF822B932B20918E0230918F0282277A
:1038E0009327EFCFCF70CC2029F08C2F0E94140D9E
:1038F0008D2F08CF8D2F0E94AF178C2F0E94EB0CBD
:10390000E9CE8D2F92EFA91699F19A1570F0E0EF9C
:10391000AE16D1F0F1EFAF1691F0CC2009F456C0FD
:10392000B11094CE8C2F8F7127C023EFA21639F1DE
:1039300034EFA312F2CF9091FB0292FD2EC08C2F98
:103940008F71CC20D9F218C0CC2069F084E08B159F
:1039500008F4C0CECF7181E090E002C0880F991FBB
:10396000CA95E2F7B8CF95E09B1508F4B3CEF2CF35
:103970008C2F8F71C110C2CF0E94140DABCE90E07E
:1039800080E0CC2009F49DCFCF7181E090E002C0AF
:10399000880F991FCA95E2F794CFCC2061F08C2F45
:1039A0008F7192FFE9CFE8E08E9F90011124236090
:1039B00020935302E1CF81E00E94FD0CF1E0FB1562
:1039C00008F088CE82E00E94FD0C84CEBB2039F046
:1039D000893309F4D4CE8D2F0E94C0177BCE8C2F53
:1039E0008F718CCF002309F47DCE8091530280FD2E
:1039F00079CEF70115828695869586950E94140DDD
:103A0000C7010E94C81880915302869586958695B5
:103A10000E94EB0C67CE80917E02C631FCE7DF0787
:103A2000D1F48A7A91E009F490E090932A0281110E
:103A3000D6CC89E20E94BF0E0E94D513C9CBC631F5
:103A40002CE7D207A1F480912A028111CACC89E225
:103A50000E94830EF1CF8272FE01E052F847EB30F4
:103A6000F10508F011CDE65BF74D0C9465278091C8
:103A70007E028272FE01E054F847ED30F10508F055
:103A800003CDEB5AF74D0C946527CF93DF938091CC
:103A90005202807F09F04DC080915102882309F4C1
:103AA00048C0E091520350911903C0914D02D0914A
:103AB0004C0260914E0270914F0247E05E17C9F1CF
:103AC0008E2F90E0E49FF0011124E65EFC4F2481EC
:103AD000222391F1489FF001499FF00D1124DF014D
:103AE000A65EBC4F11962C9111972C1325C02C91DA
:103AF0002D1322C015962C91159721111DC01296D9
:103B00002D913C91261B370B283C3105A8F4809160
:103B100052028F70806180935202E05EFC4F808180
:103B20008F70806180838CE492E00E94C8180E94AC
:103B3000140CDF91CF910895FC013196E770BECF50
:103B4000A4E1B0E0E6EAFDE10C9471278C0186E087
:103B5000F801DE011F9601900D928A95E1F7F801B8
:103B60008481E5809CE4A92E92E0B92E90915002C8
:103B7000911128C0882319F1EE20F1F0C8010E94AC
:103B8000290DF82E8823C1F087E0F801D5010190B6
:103B90000D928A95E1F780915002813031F4809145
:103BA0004C0290914D020E94520C0E94451D8F2D97
:103BB0006496ECE00C948D27C8010E94C818FF247D
:103BC000F394F5CFD080C18082809380F090510231
:103BD00020914E0230914F02A401421B530BFF2053
:103BE00009F4D9C0483C510508F092C08823F9F285
:103BF00090914D0280915202282F207F09F056C0EB
:103C0000C91214C090914C02D91210C0E11048C0E2
:103C10008F708061809352028CE492E00E94C818F9
:103C200080915202F8018683F12CC1CFE11038C097
:103C30006C2D8D2D0E941D056C2D8D2D0E941D0556
:103C4000E82E8111F1CFDF86C88A8F8598890E947E
:103C5000520C292F22952F70243058F49F70223057
:103C600088F0992399F0F8019681907F79F4FE2CE1
:103C70009ECF2A5F2F70223068F0C8010E94C818BA
:103C8000EF2CF5CF992311F0882389F3805E8830DB
:103C900070F3F3CF803F58F3815F833070F7E7CF45
:103CA00080915202816080935202BECFC91207C038
:103CB00090914C02D91203C0EE2009F48DC0C801C6
:103CC0000E94290D882309F477CFEE2009F474CFE0
:103CD00080915202803288F020914C0230914D0246
:103CE000398728879B868A86909150029C871D86FB
:103CF0008E87CE0108960E94C81887E0F801ACE4D0
:103D0000B2E001900D928A95E1F70E94451D57CFD0
:103D100090915202292F207F51F48CE492E00E946E
:103D2000C81887E0F50111928A95E9F77DCF8823BD
:103D300009F43DCF80914D028C1110C080914C024E
:103D4000D8120CC0E1100AC09683C8010E94C8189E
:103D500087E0F50111928A95E9F729CFC8010E9401
:103D6000290D882309F428CFEE2009F425CF80916E
:103D70005202803210F220914C0230914D023A836F
:103D800029839C828B82909150029D831E828F8317
:103D9000CE010196B0CF483C5105D0F6882309F4F6
:103DA0000ECFFE2CEE2009F407CF80914D028C112E
:103DB00020C080914C02D8121CC08091520280FD1C
:103DC0000FC0982F907F61F08683903F31F0982F3D
:103DD000907F905F8F70892B8683C8010E94C818DE
:103DE00087E0F801ACE4B2E001900D928A95E1F72A
:103DF000DECEC8010E94290D81117FCF8091520231
:103E0000816080935202C8010E94C818D0CEABE1F5
:103E1000B0E0EDE0FFE10C947A274E8B5F8B688F6A
:103E2000798F8A8F9B8F9111109255021D8A86E09F
:103E3000FE017696DE011F9601900D928A95E1F7BC
:103E40008B89882351F061E0CE010F960E94640DAA
:103E500061E0CE010F960E94640D87E0FE013F965F
:103E6000DE01189601900D928A95E1F7CE01089631
:103E70000E94A01D81112AC087E0FE013896DE0154
:103E8000119601900D928A95E1F78C858823F1F0C7
:103E90002091190330E0C90101968770992740915C
:103EA000520348171906E9F097E0929FD001939FBB
:103EB000B00D1124A65EBC4FFE01319601900D920B
:103EC0009A95E1F7809319030E94140C17E08091F2
:103ED000520390911903891312C06B96E3E00C947E
:103EE00096270E94A514109219031092520387E09E
:103EF000ECE4F2E0DF011D928A95E9F7E7CF819FBC
:103F0000C0011124865E9C4F0E94A01D882329F3C6
:103F10008091520390E00196877099278093520315
:103F2000D6CFA6E0B0E0E7E9FFE10C9479270E9444
:103F3000A2068C0180917F029091800280179107E8
:103F400081F019821A820E94A206682F49815A8143
:103F5000792F80E090E00E94071F10938002009369
:103F60007F022696E4E00C949527A8E0B0E0EBEB06
:103F7000FFE10C9472278E010F5F1F4F88E0F8015C
:103F800011928A95E9F78BE5C82E81E0D82EF12CA5
:103F9000E12CAA24A394B12CF60181916F018F3FEB
:103FA00009F443C0F894E82FE295EF70F0E021A106
:103FB0008F70A50102C0440F551F8A95E2F7CA0110
:103FC000922F982B91A392A18095892382A3789414
:103FD00000C0E3E6F1E0912C31E021912F3F09F49C
:103FE0004CC0A22FA295AF70B0E090968C9190E05B
:103FF0002F7002C0959587952A95E2F780FD3DC008
:10400000832F982A330F51E0EA36F50731F7F6018E
:10401000319780818F3F11F00E94870980EA8A954D
:10402000F1F7F801EE0DFF1D9082EFEFEE1AFE0A98
:10403000F8E0EF16F10409F0AFCF48E050E0B80126
:1040400084E892E00E94F427892BD9F088E0F801F7
:10405000A4E8B2E001900D928A95E1F781E08093A7
:1040600083020E94A206909382028093810210E054
:10407000812F2896EBE00C948E2780E0C2CF10E0D1
:1040800021C010918302112391F3E0908102F090FE
:1040900082020E94A2068E199F09059740F348E00C
:1040A00050E064E872E080E992E00E94F427892BF6
:1040B00031F388E0E4E8F2E0A0E9B2E001900D928B
:1040C0008A95E1F710928302D3CF1F920F920FB619
:1040D0000F9211242F933F934F935F936F937F938E
:1040E0008F939F93AF93BF93CF93DF93EF93FF9300
:1040F000D091E900DF708091EC00C82FC17080FD85
:10410000C0E81092E9008091F000877F8093F00072
:1041100078940E94D6141092E9008091F000886093
:104120008093F000CD2BCF70C093E900FF91EF9109
:10413000DF91CF91BF91AF919F918F917F916F91BF
:104140005F914F913F912F910F900FBE0F901F9055
:1041500018951F920F920FB60F9211242F933F9331
:104160004F935F936F937F938F939F93AF93BF937F
:10417000CF93EF93FF938091E10082FF15C0809170
:10418000E20082FF11C08091E1008B7F8093E1000B
:10419000209103032F5F822F62E30E94312799232E
:1041A00009F4DEC0209303038091DA0080FF2CC065
:1041B0008091D80080FF28C08091DA008E7F8093A4
:1041C000DA008091D90080FF01C180E189BD82E1E0
:1041D00089BD09B400FEFDCF81E080930F0387E61F
:1041E00097E09F938F930E941405809104030F9092
:1041F0000F90811109C00E943C050E94DD0580914D
:10420000E20084608093E2008091E10080FF22C0A0
:104210008091E20080FF1EC08091E2008E7F80933B
:10422000E2008091E20080618093E2008091D800FA
:1042300080628093D80019BC85E080930F038FE6DD
:1042400097E09F938F930E94140583E0809313015E
:104250000F900F908091E10084FF38C08091E200C0
:1042600084FF34C080E189BD82E189BD89B5C82F52
:10427000C17080FFFBCF8091D8008F7D8093D800E4
:104280008091E1008F7E8093E1008091E2008F7E3B
:104290008093E2008091E20081608093E20080914F
:1042A0001003882309F4A0C084E080930F0383E700
:1042B00097E09F938F930E94140580910F030F90B6
:1042C0000F90843009F4C2E0C09313018091E100A3
:1042D00083FF34C08091E20083FF30C08091E10011
:1042E000877F8093E10082E080930F031092100398
:1042F0008091E1008E7F8093E1008091E2008E7FCB
:104300008093E2008091E20080618093E20042E0CD
:1043100060E080E00E94AB058091F00088608093AF
:10432000F00087E797E09F938F930E94140581E048
:1043300080931301809312010F900F90FF91EF91E2
:10434000CF91BF91AF919F918F917F916F915F912D
:104350004F913F912F910F900FBE0F901F90189586
:104360001092030380910203882309F41DCF8091EA
:104370000F038430C1F49091E9009F702091EC000C
:10438000822F817020FD80E8892B93E09093E900D3
:104390009091EB0090FF04C09091EE0097FD08C053
:1043A0008F708093E90010920203FECE1092F1000C
:1043B0009091E80095FDFACF9091E80090FFF0CF42
:1043C0009091E8009E779093E800EACF19BC109294
:1043D0000F038BE697E09F938F930E941405109232
:1043E00004030F900F9010CF8091E30087FD02C06F
:1043F0008C2F5BCF83E059CF78941F921FB61F920A
:1044000011248F939F93AF93BF938091FD0290915E
:10441000FE02A091FF02B09100030196A11DB11D03
:104420008093FD029093FE02A093FF02B0930003DD
:10443000BF91AF919F918F911F901FBE1F901895B4
:104440001F921FB61F9211248F939F93AF93BF9318
:104450008091FC02811113C08091FD029091FE02B7
:10446000A091FF02B09100034196A11DB11D809360
:10447000FD029093FE02A093FF02B0930003BF9150
:10448000AF919F918F911F901FBE1F901895CDB730
:10449000DEB76C970FB6F894DEBF0FBECDBF85B701
:1044A000806885BF85B7806885BF84B7877F84BFF4
:1044B0000FB6F894A89580916000886180936000A1
:1044C000109260000FBE80E890E00FB6F8948093E1
:1044D0006100909361000FBE81E08093130185EC31
:1044E00090E190930102809300020E943C050E949B
:1044F000DD058091E20084608093E20078948091F1
:104500000F038823A1F01091E9001F709091EC0037
:10451000892F817090FD80E8182B1092E90080911E
:10452000E80083FD0E94D6141F701093E90082E01A
:1045300084BD93E095BD9AEF97BD80936E00E9EA44
:10454000F2E088E0DF011D928A95E9F781E080932F
:10455000A20260E080E00E947D0761E080E00E94AE
:104560007D07EFE8F1E03197F1F700C0000010E0BF
:104570008091A202181708F4BEC00BE511E093E683
:10458000E92E91E0F92ED8018D918D018F3F11F028
:104590000E948709E016F106B1F703E611E08AE60A
:1045A000E82E81E0F82EF80181918F018F3F11F004
:1045B0000E948709E016F106B1F788E0E0E9F2E031
:1045C000DF01282F1D922A95E9F7E4E8F2E0DF01E8
:1045D0001D928A95E9F790E080E00E94BA27853E17
:1045E0009E4F09F461C065EE7EEF90E080E00E948E
:1045F000EE2760E082E090E00E94D02781E090E02A
:1046000090938D0280938C0261E083E090E00E94A1
:10461000D02760E074E184E090E00E94EE2760E043
:1046200086E090E00E94D02760E087E090E00E9462
:10463000D02740E050E0BA0188E090E00E94E227F5
:1046400060E083E290E00E94D02760E08CE090E0A0
:104650000E94D02760E08DE090E00E94D027198270
:104660001A821B821C821D821E821F82188648E0CD
:1046700050E067E170E0CE0101960E94C02740E063
:1046800050E0BA018FE190E00E94E22740E050E064
:10469000BA018FE090E00E94E22740E050E0BA01CA
:1046A00083E190E00E94E22782E090E00E94B2273E
:1046B00080935B0384E090E00E94BA279093FB0212
:1046C0008093FA020E94B51FEFEFF6E721E0E15078
:1046D000F0402040E1F700C000000E94B51F80912B
:1046E000910280FF1AC06FEF7FEF90E080E00E94A0
:1046F000EE270E948B1160E0812F0E947007082F27
:1047000061E0812F0E947007E12FF0E0EF55FD4F2F
:10471000880F802B80831F5F2BCF83E090E00E9467
:10472000B22790E00E94240D0E946E0781E08093E2
:104730005A0348E050E067E170E08CE593E00E94A6
:10474000A22710925A0380915C038C7FB9F5809167
:104750005B0380FF14C081E195E09F938F930E94DB
:10476000140580915B030F900F9080FF08C081E0DB
:1047700094E09F938F930E9414050F900F9089E00F
:1047800080935C038091180190911901A0911A0106
:1047900080935D0390935E03A0935F0382E3809315
:1047A00060038FEF8093610348E050E067E170E0C1
:1047B0008CE593E00E94C02710925A0380915B031E
:1047C00080FF89C087EF94E09F938F930E94140528
:1047D00080915B030F900F9080FF7DC080915C0300
:1047E00083701F928F9388ED94E09F938F930E9424
:1047F000140580915B030F900F900F900F9080FF36
:104800006AC080915C03869586951F928F938BEB8F
:1048100094E09F938F930E94140580915B030F9007
:104820000F900F900F9080FF56C080915D031F92F4
:104830008F938DE994E09F938F930E94140580914C
:104840005B030F900F900F900F9080FF44C08091FA
:104850005E031F928F938FE794E09F938F930E9444
:10486000140580915B030F900F900F900F9080FFC5
:1048700032C080915F031F928F9381E694E09F93F3
:104880008F930E94140580915B030F900F900F90FF
:104890000F9080FF20C0809160031F928F9383E46C
:1048A00094E09F938F930E94140580915B030F9077
:1048B0000F900F900F9080FF0EC0809161031F92A8
:1048C0008F9385E294E09F938F930E9414050F903D
:1048D0000F900F900F9080E091E09093F7028093FB
:1048E000F60233243394B0E12B2E80910F038530F0
:1048F000B9F480915B0380FF08C086E695E09F9342
:104900008F930E9414050F900F9010E402E18091A4
:104910000F03853009F451C00E94A5140E94FB06C4
:104920000E94B51FA8E94A2EA2E05A2EA0E9B2E0E3
:10493000BC8FAB8F20EA32E0F20191918D912E175E
:104940003F0709F470C09817C1F380915B0381FDA4
:10495000B0C010E0AB8DBC8D0D91BC8FAB8FF20160
:10496000D1902F01D01619F1F12CEE24E394D0262A
:104970008D2D8E21A1F0FD8A1E8B0E94A206988F9C
:104980008F8B398E91E0802F8E2109F490E09A8FE1
:104990004D895E896F89788D898D0E94071FF394F8
:1049A000EE0CF7E0FF12E4CFF201319700831F5FB6
:1049B000183081F60E9496063AC080910F03843029
:1049C00029F10E94D5111092FC02E8E1F0E00FB647
:1049D000F894A895E09360000FBE1093600083B731
:1049E000817F846083BF83B7816083BF789488951B
:1049F00083B78E7F83BF0FB6F894A895809160002F
:104A0000886180936000109260000FBE0E94B51F05
:104A1000E0E9F2E08191811101C188E992E08E170D
:104A20009F07C1F774CF981390CF0E94911F0E94E7
:104A3000D5118091A302882351F01092A302809196
:104A4000AB028093AC028091A9028093AA02F12C60
:104A50008091A202F81608F46EC090E08CEFF82E58
:104A600023E0E22E3DEFD32E42E0C42E8091AC0233
:104A70002091AB02281709F4F1C0E82FF0E0E355CC
:104A8000FD4F108117FB002700F91F778F5F8370A0
:104A90008093AC028091AA028F5F8093AA020111D9
:104AA00085C00E94A2061987FA869C878B87ED86AF
:104AB00084C08BE895E09F938F930E9414050F901C
:104AC0000F9050E9C52E52E0D52E10E000E066E8C8
:104AD000862E65E0962E73E8A72E75E0B72EEEE7DA
:104AE000EE2EE5E0FE2EFCE76F2EF5E07F2E1F9305
:104AF0000F939F928F920E941405BF92AF920E94D3
:104B00001405F60181916F010E944C0D1F928F9345
:104B1000FF92EF920E9414057F926F920E941405FB
:104B20000F5F1F4F0FB6F894DEBF0FBECDBF08302A
:104B30001105E9F60ECF61E08F2D0E947007182F46
:104B400060E08F2D0E947007E12FEE0FE82B0F2DF4
:104B500010E0D801AF55BD4F9C91892F8370E817A5
:104B600019F1990F990FE92BEC93EF70F0E0E659EA
:104B7000FE4F00561D4F8081D801EC90E80EEC925C
:104B8000B3E060E0BE1524F0EDEFEE1624F461E032
:104B90008F2D0E9490078E2DEE0C990B64E070E033
:104BA0000E945127D8018C93F39452CF0E94A20601
:104BB0001987DA869C878B87CD863E8649855A85FC
:104BC0006B857C858D859E850E94071F002391F053
:104BD0000E94A2061F87D88A9A8B898BCB8A1C8A4F
:104BE0004F85588969897A898B899C890E94071F1A
:104BF00091E03CCF0E94A2061F87F88A9A8B898B8E
:104C0000EB8AEDCF3092F0028AC03092F1028FC071
:104C10003092F202CFC03092F302D4C080910E03E2
:104C2000882309F474CE29BC09BD09B400FEFDCF68
:104C30008091D8008F7D8093D8008091E0008260C1
:104C40008093E0008091E00081FDFCCF0E94A514DC
:104C50005ECE822B892B09F4D2C0CFC091110E9465
:104C6000960686E0EEEEF2E0DE01119601900D92DE
:104C70008A95E1F7B090EF02E090F002F090F10237
:104C8000C090F202D090F3021092F0021092F10262
:104C90001092F2021092F3028F2D8E2909F447C070
:104CA0000091EC021091ED020E94A2069C01201BD3
:104CB000310B9091E902992309F4CEC025313105D9
:104CC000B0F19F3F19F09F5F9093E902EE2059F0F9
:104CD0000E942A079FEF1E140CF491E0899F802DFB
:104CE00011248093F002FF2059F00E942A0791E0DE
:104CF0001F140CF09FEF899F802D11248093F102E7
:104D00008091F002882399F01091F102112379F03B
:104D10000E944A07882309F475CF8093F002812FFF
:104D20000E944A07882309F470CF8093F1028C2DEA
:104D30008D2909F447C00091EA021091EB020E940C
:104D4000A2069C01201B310B9091E702992309F4E4
:104D50007EC021353105B0F19F3F19F09F5F9093E0
:104D6000E702CC2059F00E9408079FEF1C140CF4B6
:104D700091E0899F802D11248093F202DD2059F06B
:104D80000E94080791E01D140CF09FEF899F802D71
:104D900011248093F3028091F202882399F01091FC
:104DA000F302112379F00E944A07882309F430CFD7
:104DB0008093F202812F0E944A07882309F42BCFA7
:104DC0008093F3028091EF028B1117C08091F00263
:104DD000882311F0E81211C02091F102222311F072
:104DE000F2120BC09091F302992311F09D1105C0AE
:104DF0003091F202332309F42CCF0E94040F86E095
:104E0000FE013196AEEEB2E001900D928A95E1F787
:104E10000E94FB06182F8091A402181709F465CD93
:104E20001093A4020E94960680915B0385708530E2
:104E300009F059CD1F921F938AE995E09F938F93B4
:104E40000E9414050F900F900F900F904CCD2B30B7
:104E5000310508F083CFB6CF2B30310508F033CFC2
:104E600066CF991B79E004C0991F961708F0961B2E
:104E7000881F7A95C9F780950895AA1BBB1B51E13D
:104E800007C0AA1FBB1FA617B70710F0A61BB70BBA
:104E9000881F991F5A95A9F780959095BC01CD015F
:104EA000089597FB072E16F4009407D077FD09D0DC
:104EB0000E943D2707FC05D03EF4909581959F4FB9
:104EC0000895709561957F4F0895EE0FFF1F05902F
:104ED000F491E02D09942F923F924F925F926F923E
:104EE0007F928F929F92AF92BF92CF92DF92EF927A
:104EF000FF920F931F93CF93DF93CDB7DEB7CA1BFB
:104F0000DB0B0FB6F894DEBF0FBECDBF09942A8825
:104F1000398848885F846E847D848C849B84AA84CD
:104F2000B984C884DF80EE80FD800C811B81AA815A
:104F3000B981CE0FD11D0FB6F894DEBF0FBECDBF25
:104F4000ED010895DC01CB01FC01F999FECF06C00B
:104F5000F2BDE1BDF89A319600B40D924150504037
:104F6000B8F70895F999FECF92BD81BDF89A9927B7
:104F700080B50895A8E1B0E042E050E00C94A42789
:104F8000DC01A40FB51F4150504048F0CB01840F05
:104F9000951F2E910E94D12741505040D0F708957F
:104FA000262FF999FECF92BD81BDF89A019700B4E2
:104FB000021639F01FBA20BD0FB6F894FA9AF99A82
:104FC0000FBE08950396272F0E94D1270E94D02755
:104FD000252F0E94D127242F0C94D1270196272F0B
:104FE0000E94D1270C94D027FB01DC0104C08D91D5
:104FF0000190801921F441505040C8F7881B990B4B
:105000000895F894FFCF34123F126812821285126D
:105010000D1310131313B915E1158717E115871731
:105020001416351687173317401700190419E2189C
:10503000FC1808190C1910196C19E11974193E198A
:105040004219781946197C1988195219DA19561912
:105050008C195A199019B8195E199419BF19641945
:105060009A19A2194A1980194E19841968199E199A
:10507000AE19C819D81938197019E8190F1B0F1B68
:10508000451B451BC91BE51B6A1B6A1BEA1B721CDF
:10509000811C811CF319F6192B1AFB19301A001AFE
:1050A000351A051A3A1A0A1A3F1A0F1A211AF31951
:1050B000F6192B1AFB19301A001A351A051A3A1A62
:0450C0000A1A3F1A6F
:1050C400AE0677117011691162111300FFFF3905E3
:1050D4000000010000FF000398E8C8454550524F06
:1050E4004D00818283E200E900EA00B500B600B712
:1050F40000CD008301CC008A019201940121022396
:105104000224022502260227022A02B300B4006FF9
:105114000070009F01CB019F02A00293929194978B
:10512400C63466F5F6F7F433313200FF01000100AE
:1051340000FFFF0000010001FF00003131295A1B6C
:10514400750A44B6157701C100AC008D07A607BFE8
:1051540007FFFF0011FFFFFF01FFFFFFFF10FFFF2D
:10516400FFFFFFFFFFFFFFFFFF08FFFFFFFFFF053C
:105174000CFFFFFF04FFFFFFFF0DFFFF07060B0AF5
:10518400FFFF0203FF090E0FFF000014003D00A300
:1051940000CB00E0000015E015142B3D2BA32BCB16
:1051A4002B3D40514065407A408E40A340040404A6
:1051B40004040404040404040404040404040400AF
:00000001FF
