:100000000C943F010C945C010C9477010C945C01FE
:100010000C945C010C945C010C9470150C945C01C4
:100020000C945C010C945C010C945C010C945C01DC
:100030000C945C010C945C010C94E8150C945C012C
:100040000C945C010C945C010C945C010C945C01BC
:100050000C945C010C945C010C945C010C945C01AC
:100060000C945C010C945C01000000000000000096
:100070005C005D005E0057005F00600061000000F2
:1000800000000000000059005A005B0058005700B3
:1000900054005500000000000000000062006200F3
:1000A0006300580056003A0053003900040016005F
:1000B000070009001C0018000C00120013002A00A1
:1000C0002B00E1001D001B0006000A000B000D00C4
:1000D0000E000F00280014001A0008001500170079
:1000E0001900050011001000E5004C001E001E0064
:1000F0001E00E000E20000002C001E00E600E4000C
:1001000000000000000000000000010001000100EC
:1001100001000100010001000000000000000000DB
:1001200001000100010001000100010001000000C8
:1001300000000000000001000100010001000100BA
:1001400001003B000100010001000100010001006D
:100150000100010001000100010001000100010097
:100160000100010001000100010001000100010087
:100170000100010001000100010001000100010077
:100180000100010001000100010001000100010067
:1001900000000100010001000100000009023B0015
:1001A000020100A0FA090400000103010100092175
:1001B0000101000122440007058103080001090430
:1001C00001000103000000092101010001223200A9
:1001D0000705830308000112011001000000086BED
:1001E0006A0B000001010200010C0342006F006174
:1001F000007400790000000A034A0065006C007377
:100200000000000403090405010980A10185031908
:10021000012AB700150126B700950175108100C0AD
:10022000050C0901A101850419012AA00215012666
:10023000A002950175108100C005010906A1010504
:100240000719E029E7150025019508750181029538
:1002500001750881030507190029FF150026FF0015
:100260009506750881000508190129051500250165
:10027000950575019102950175039103C000112444
:100280001FBECFEFD8E0DEBFCDBF11E0A0E0B1E0F0
:10029000E2E4F4E302C005900D92A639B107D9F764
:1002A00022E0A6E9B1E001C01D92A13CB207E1F74E
:1002B0000E9450120C94EA190C940000A82FB92F38
:1002C00080E090E041E050EA609530E009C02D9177
:1002D00082279795879510F084279527305EC8F37D
:1002E0006F5FA8F30895EADF8D939D930895CF93F0
:1002F000CFB7CF93DF93C3954B9BE9F74B9B10C0D0
:100300004B9B0EC04B9B0CC04B9B0AC04B9B08C029
:100310004B9B06C0C0919802C395C09398028EC0B3
:100320006F93C0919702DD27C156DD4F2F9365E58E
:100330004B9B03C02F916F91E1CF0F931F934F936E
:1003400020E040E15F9309B10C7003FB27F93F9374
:1003500050E03BE039C01C7040642F77012F5F5F95
:100360001EC0406819B11C702F7752501FC04064E6
:1003700009B12F770C70D1F15F5F00C023C04062DC
:1003800019B12F771C7091F15F5F00C025C00C7010
:100390001027515012F45D5F0000115027952C3F3B
:1003A00019B1C8F61C700127015027952C3FC8F6DB
:1003B0004227499309B10C7010274F7311502795AC
:1003C0002C3FA8F64695469519B11C7079F0012787
:1003D000015027952C3F98F66B5A60F3315009B1C4
:1003E000B0F600C012E01CBB00271CC03B5031958A
:1003F000C31BD04012E01CBB0881033C21F10B342D
:1004000011F1209194021981110F1213EDCF4A813D
:10041000441F093679F10D3211F0013E29F74F7072
:1004200009F0042F00939D023F915F914F911F911E
:100430000F912F916F91CCB3C1FD5DCFDF91CF9123
:10044000CFBFCF91189520919D02222369F310917F
:100450009B02112309F049C034300AF448C030939C
:100460009B0220939602109197023BE0311B309340
:1004700097023DC000919B020130BCF50AE54F7028
:1004800049F43091110134FD33C000931101C1E7EB
:10049000D2E032C0433059F0443091F030917C02C8
:1004A00034FD26C000937C02CDE7D2E025C0309118
:1004B000B50234FD1DC00093B502C6EBD2E01CC0EE
:1004C0003091880234FD14C000938802C9E8D2E05C
:1004D00013C0052710E000C000000BB91AC00527A3
:1004E00010E0221F1DC010E021C04AE502C032ED1D
:1004F000432FC4E1D0E032E01AB11C605B9A0BB12B
:100500001AB95CE020E865E320FF05270BB92795C1
:1005100017951C3FF0F66695B8F7B1F720FF052751
:100520000BB9279517951C3FD0F62795179517FF00
:10053000052700001C3F0BB9B0F629913A9519F731
:10054000037F10919C02110FC651D0400BB911F0DE
:100550001093940212E01CBB08601AB1137F402F65
:10056000437F54E05A95F1F70BB91AB94BB95CCFF8
:100570008230B8F46730A8F44B3098F450E09BE038
:10058000699F400D511D1124FA019DE4899FE00DE2
:10059000F11D1124EE0FFF1FE859FF4F8591949133
:1005A000089581E090E008950E94B802089581E0E6
:1005B00008950E94D70208950E94D702089581E00D
:1005C00008950E94D70208950E94D70208950E94BC
:1005D000E4020895089508950E94EA020895089596
:1005E0000895A6E0B0E0E7EFF2E00C945A194983D1
:1005F0005A839E8330919D0189819A8131111AC05D
:100600003E81332399F0222389F00E941009182F8C
:10061000682F89819A810E94EC0869817A81812FF3
:100620000E94EC0F2696E3E00C9476190E94FE08D7
:10063000182FF3CF0E94100969817A81F1CFFC0154
:10064000262F4081518162817381848195810E942E
:10065000F1020895CF93DF93EC0161E00E941F0344
:10066000BE010E94D902882359F061E0CE010E94A8
:100670001F03BE010E94DC028170DF91CF910895BB
:1006800080E0FACF0F931F93CF93DF93EC0160E0EC
:100690000E941F038C01BE010E94EB02BE01C80133
:1006A0000E94EC02DF91CF911F910F91089521E0FC
:1006B00030E0A90102C0440F551F8A95E2F7CA0134
:1006C0000E940E080895CF93C82F81E090E00C2E71
:1006D00002C0880F991F0A94E2F70E94380D8C2FF0
:1006E0000E945703CF91089581E008950E947403FA
:1006F00008950E9474030895CF93C82F0E94C107E4
:100700008C2F0E9476038C2F0E9479032FEF84E3B5
:100710009CE0215080409040E1F700C00000CF9164
:10072000089581E00E947C030E940C16089580E0E9
:100730000E947C030E94211608950F931F93CF936C
:10074000DF938C0161E00E941F03EC01B8010E945D
:10075000E102811106C080E0DF91CF911F910F91DE
:100760000895B801CE010E94E7028823A1F3B801E1
:10077000CE010E94F513882371F3B801CE010E94C7
:10078000B512882341F3B801CE010E948B12882351
:1007900011F3B801CE010E94F0108823E1F2F801B4
:1007A0008581882361F0C330FCE7DF07E9F058F466
:1007B000C115ECE7DE07A9F0C130DC47B9F0C8018C
:1007C0000E94DF02C9CFCB358CE7D807A9F0CC3522
:1007D000ECE7DE0771F0CA35DC4789F70E94130D9C
:1007E000EECF0E949103B7CF0E941B0D0E9497038A
:1007F000B2CF0E94090DE3CF0E94170DE0CF0E94F7
:10080000EF020E9448150E94230408950E942704C5
:100810000E94F0020E944D15089581E00895089508
:10082000CF93DF93D82F0E940D04C82F882319F08F
:100830008D2F0E940F048C2FDF91CF910895089582
:100840000E941004089580E00E94200408950E94F0
:100850003E140E9420040895CF930E943E14C82F96
:10086000809198018C1779F0C09398010E94DC1553
:100870006093990170939A0180939B0190939C01DE
:100880008C2F0E942004CF910895ADE0B0E0EBE4FE
:10089000F4E00C945B19488759876A877B878C87BB
:1008A0009D8791110E945D0C1F8286E0FE013896A3
:1008B000DE01119601900D928A95E1F78D818111EB
:1008C0000DC029813A814B815C816D817E818F8150
:1008D0000E94A70B2D96E2E00C947719CE010196A9
:1008E0000E942A038111EDCFF5CFFC012481213034
:1008F00021F4808191810E9442090895CF93C82FED
:100900008823C9F08238C9F40E944B1481FD13C0BA
:1009100089E30E94F3140E94B80C2FEF87EE93E056
:10092000215080409040E1F700C0000089E30E9420
:10093000FB140E94B80CCF9108958338A1F40E9453
:100940004B1480FDF8CF83E50E94F3140E94B80C8D
:100950002FEF81EE94E0215080409040E1F700C0FD
:10096000000083E5E4CF8438A1F40E944B1482FD9B
:10097000E2CF87E40E94F3140E94B80C2FEF81EEBF
:1009800094E0215080409040E1F700C0000087E4EF
:10099000CECF8CEF8C0F813A70F48C2F0E94B8145C
:1009A000882329F08C2F0E94FB140E94B80C8C2FF6
:1009B0000E94F314BECF80E28C0F883048F4C770D9
:1009C00081E001C0880FCA95EAF70E94400CB1CFC0
:1009D000EBE5EC0FE33040F4F0E0E85BFE4F8081A4
:1009E00090E00E945914A7CFC85ACB3108F0A3CF8A
:1009F000EC2FF0E0EE0FFF1FEE5EFE4F8081918145
:100A00000E947E1498CF882309F44DC0823879F46F
:100A10000E944B1481FF47C089E30E94F3140E9497
:100A2000B80C89E30E94FB140E94B80C0895833827
:100A300059F40E944B1480FF36C083E50E94F314E2
:100A40000E94B80C83E5EECF843859F40E944B1411
:100A500082FF29C087E40E94F3140E94B80C87E447
:100A6000E1CF9CEF980F913AE8F290E2980F98301E
:100A700050F4877091E001C0990F8A95EAF7892FA9
:100A80000E94460CD1CF9BE5980F933028F490E05C
:100A900080E00E9459140895885A8B3120F490E028
:100AA00080E00E947E1408951F93CF93DF93182F48
:100AB000EB010E947E04209739F4812F0E940305E8
:100AC000DF91CF911F9108958FE99FE00197F1F792
:100AD00000C000002197EFCF70E060E0893311F48F
:100AE00060E570E00E9454050895882321F00E947B
:100AF000400C0E94B80C0895882321F00E94460CF7
:100B00000E94B80C0895B0E0A0E0E9E8F5E00C948C
:100B100054196C01D62FC72FFC011581068102954F
:100B20000F700E94360CE82E8823F9F0E12E112375
:100B3000E1F08C2F807F803461F080E28D0F88306F
:100B400008F18C2F807E803221F4D230D8F000233F
:100B5000C9F08091500282FF15C082E00E94DD0C36
:100B60000E94360C91E0E82EE926BC2EB2949FE05C
:100B7000B922FBE0FB15B8F1EB2DF0E0E451F64EA5
:100B80000C944519E12CF1CF0C2F0F70C07F11F0A0
:100B90000295007F112399F0002359F080E28D0F18
:100BA000883010F0D11107C0802F0E94400C0E94A5
:100BB000B80C8D2F48C0802F0E94500CF8CF8D2F7D
:100BC0000E940305002379F080E28D0F883010F039
:100BD000D11104C0802F0E94460C03C0802F0E94B8
:100BE000560C0E94B80CEB2DE850FF0B349708F020
:100BF00066C10E943E140E942004CDB7DEB7E9E032
:100C00000C9470192C2F2F70F22EC07FC03219F067
:100C1000F29480EFF822DD2341F0D130C9F11123A5
:100C200009F443C00023E9F0C4CF8091500282FD53
:100C300014C0112359F0FF2029F08F2D0E94400C81
:100C40000E94B80C80E00E947E04CDCF80E00E941C
:100C50000305FF2041F28F2DBECF112369F0011152
:100C600004C08F2D0E947505BECF013009F0BBCFA7
:100C70008F2D0E94740CB7CF0111B5CF8F2D0E941C
:100C80007C058F2D0E94800C8F2D0E94640CABCFB1
:100C9000112321F0063008F0A6CFE3CF053008F08D
:100CA000A2CF8F2D0E947C059ECF0023D1F3D93394
:100CB00049F43FEF87EE93E0315080409040E1F7F8
:100CC00000C000008D2F0E9403058DCF8C2F8695CC
:100CD0008695837069F0813009F085CF8D2F9C2F28
:100CE0009370111102C080E090E00E947E147BCFCF
:100CF0008D2F9C2F9370111102C080E090E00E9414
:100D0000591471CF8C2F8370A1F511116CCF4D2F19
:100D1000429546954770440F440F2D2F2F7030E0B9
:100D2000042E02C0220F331F0A94E2F790E080E005
:100D3000D4FF09C08FE090E002C0880F991F4A9548
:100D4000E2F780959095C695C695C370822B932B3C
:100D5000C23049F058F4C13019F00E941A0843CF4C
:100D60000E94110840CF0E9423083DCF0E940E0828
:100D70003ACF8695112311F08C2F8170882309F4C6
:100D800032CF4D2F429546954770440F440F2D2F7B
:100D90002F7030E0042E02C0220F331F0A94E2F7B6
:100DA00090E080E0D4FF09C08FE090E002C0880F9F
:100DB000991F4A95E2F780959095C695C695C370A0
:100DC000822B932BC23049F058F4C13019F00E94A5
:100DD000850809CF0E947C0806CF0E948E0803CFA9
:100DE0000E94320800CFCF70112329F08C2F0E946F
:100DF0004A088D2F37CF8D2F0E947C058C2F0E94A3
:100E00005A08F1CED23F41F160F4D03FB9F0D13F62
:100E100081F0112309F443C00111CBCE8C2F8F71C7
:100E20001FC0D33F01F1D43FA1F78091500282FD52
:100E300024C08C2F8F71112311F312C0112341F0A4
:100E4000053008F0D0CE8C2F8F710E946C08CBCE6D
:100E5000063008F0C8CEF7CF8C2F8F711111CFCF8D
:100E60000E944A08C0CE112329F08C2F8F710E9456
:100E70003E08B9CE0E943908B6CE112331F063E0A6
:100E80008C2F8F710E94BF0CAECE81E00E94DD0CD2
:100E9000023008F4A8CE82E00E94DD0CA4CE00232C
:100EA00059F0D93309F00ECFEFEFF7EE23E0E15020
:100EB000F0402040E1F704CF8C2F8F71A0CFEE20BF
:100EC00009F49BCE0E94320C80FD97CEF60115826C
:100ED0000E942C0C0E944A08C6010E948C070E94A6
:100EE0002C0C0E945A0889CE0F931F93CF93DF9347
:100EF000EC01688179818D810E944D098C010E94ED
:100F000097080E940D08B801CE010E948305DF9169
:100F1000CF911F910F910895CF93DF93EC018C81B6
:100F2000882399F0CE010E949D03811111C00E9477
:100F3000360C882351F08D81882339F0809150023E
:100F400082FF03C082E00E94DD0CDF91CF91089503
:100F5000CE010E947407CE010E944203F6CF90E0BA
:100F600080E00E94591490E080E00E947E140E946C
:100F70005D0C0E94B80C08950E9403150E94AF07F3
:100F800008950E944D0C0E94BC07089592959F7091
:100F9000963091F058F4925F9F70923058F4803FF1
:100FA00019F030F4883E30F481E008959A5FF4CF70
:100FB000843FD1F380E00895883EB0F3813FD1F7BC
:100FC000F3CFFC012481222339F0808191810E949A
:100FD00042090E94C607089580E00895A6E0B0E0A7
:100FE000E4EFF7E00C945B192696E2E00C94771995
:100FF000A7E0B0E0EEEFF7E00C945B192796E2E093
:101000000C94771908950E94020808950E9403081D
:101010009093C9018093C801089508950E9406081D
:1010200008952091C8013091C901822B932B0E9411
:10103000060808952091C8013091C90182239323A5
:101040000E94060808952091C8013091C9018227A5
:1010500093270E94060808950E94020808950E949E
:101060002C0808950E942F089093C7018093C60111
:10107000089590E080E00E943208089521E030E079
:10108000A90102C0440F551F8A95E2F7CA010E94C8
:101090003208089521E030E002C0220F331F8A9504
:1010A000E2F78091C6019091C701822B932B0E9499
:1010B0003208089521E030E002C0220F331F8A95E4
:1010C000E2F7209530958091C6019091C701822367
:1010D00093230E943208089521E030E002C0220FDD
:1010E000331F8A95E2F78091C6019091C70182274C
:1010F00093270E94320808952091C6013091C701BC
:10110000822B932B0E94320808952091C6013091C2
:10111000C701822393230E94320808952091C601BB
:101120003091C701822793270E94320808950895BD
:10113000262F277091E001C0990F2A95EAF723E046
:10114000769567952A95E1F7660F771F660F771FEB
:10115000FA01E60FF71F50E040E0682F70E0819140
:10116000DF0111979B01042E02C0369527950A9442
:10117000E2F7217021952827292328272C934F5FF8
:101180005F4F4430510559F70895A82FA77023E009
:10119000969587952A95E1F7880F991F880F991FD3
:1011A000FB01E80FF91F50E040E080E0219130E0C2
:1011B0000A2E02C0369527950A94E2F7217033274C
:1011C000042E01C0220F0A94EAF7822B4F5F5F4F73
:1011D0004430510559F70895262F973070F48B301D
:1011E00060F4682F70E08BE0989F600D711D1124F2
:1011F0004EE951E0822F0E9498080895292F9730D8
:1012000068F48B3058F490E06EE971E03BE0239F86
:10121000800D911D11240E94C508089580E0089555
:10122000B0E0A0E0E6E1F9E00C9454197C010091F3
:10123000C6011091C7018091C8019091C901082B86
:10124000192BCFE0D0E0CC24C394D12CBC2EC60106
:101250000C2E02C0880F991F0A94E2F78023912375
:10126000892B49F4219790F7B12C8B2DCDB7DEB7A0
:10127000E9E00C947019B7018C2F0E94F80F0197C8
:1012800089F3F3CFCF93DF93EC010E941009BE01E5
:101290000E94F80FDF91CF9108951F93CF93DF93B2
:1012A000EB0190919D01992339F0CB010E944209F5
:1012B000DF91CF911F910895882369F0CB010E949F
:1012C0001009182F682FCE010E94EC08BE01812F53
:1012D0000E94F80FEDCFCB010E94FE08182FF6CF29
:1012E0001F93CF93DF93C091CA0117E08091CB0188
:1012F0008C1304C0DF91CF911F910895D0E01C9F03
:10130000F0011D9FF00D1124E453FE4F2081318127
:10131000428153816481758186810E94F8072196FC
:10132000C770E4CF2091040230910502409106027B
:1013300050910702609108027091090280910A029F
:101340000E94F8070895CF93DF9380910A02807F6F
:1013500009F04DC080910902882309F448C0E0914A
:10136000CA015091CB01C0910502D0910402609155
:1013700006027091070247E05E17C9F18E2F90E0D8
:10138000E49FF0011124E453FE4F2481222391F1C4
:10139000489FF001499FF00D1124DF01A453BE4F77
:1013A00011962C9111972C1325C02C912D1322C02E
:1013B00015962C91159721111DC012962D913C91D7
:1013C000261B370B283C3105A8F480910A028F7048
:1013D000806180930A02EE52FE4F80818F7080619F
:1013E000808384E092E00E948C070E947009DF9164
:1013F000CF910895FC013196E770BECF482F209120
:10140000CA019091CB0157E0291302C080E00895F2
:1014100030E0529FF001539FF00D1124E453FE4F32
:101420008181681306C08081481303C085818111C2
:10143000EECF2F5F3F4F2770E7CFA4E1B0E0E3E2AC
:10144000FAE00C9451198C0186E0F801DE011F9638
:1014500001900D928A95E1F7F8018481E58094E08E
:10146000A92E92E0B92E9091080291111FC08823F5
:10147000D1F0EE20A9F0C8010E94E107F82E8823E0
:1014800079F087E0F801D50101900D928A95E1F796
:10149000C5010E9475040E94A3090E9492095FC0C1
:1014A000C8010E948C07FF24F39459C0C080D180EA
:1014B00082809380F0900902209106023091070209
:1014C000A401421B530BFF2009F4F9C0483C51050D
:1014D00008F0A7C0882309F442C0909105028091CA
:1014E0000A02282F207F09F05CC09D1116C0909140
:1014F0000402C91212C0E1104EC08F708061809347
:101500000A020E94920984E092E00E948C07809176
:101510000A02F8018683F12C22C0E1103CC06D2D37
:101520008C2D0E94FE096D2D8C2D0E94FE09E82E47
:101530008111F1CFCF86D88A8F8598890E94420980
:10154000292F22952F70243078F49F702230A8F034
:101550009923B9F0F8019681907F99F4FE2C8F2D94
:101560006496ECE00C946D192A5F2F70223068F0BD
:10157000C8010E948C07EF2CF1CF992311F088232A
:1015800069F3805E883050F3F3CF803F38F3815F9A
:10159000833070F7E3CF80910A02816080930A0262
:1015A000BACF9D1113C090910402C9120FC0E1106F
:1015B0000DC08683C8010E948C0787E0F801A4E073
:1015C000B2E001900D928A95E1F767CFC8010E94C1
:1015D000E107882309F464CFEE2009F461CF8091FC
:1015E0000A02803288F02091040230910502398786
:1015F00028879B868A86909108029C871D868E8705
:10160000CE0108960E948C0787E0F801A4E0B2E0C2
:1016100001900D928A95E1F70E94A3090E94920918
:1016200042CF90910A02292F207FA1F4682D9A8A37
:10163000898AA6017A899E2D0E94EE0784E092E0B5
:101640000E948C0787E0F50111928A95E9F70E94C4
:10165000920961CF882309F482CF809105028D1110
:1016600010C080910402C8120CC0E1100AC0968319
:10167000C8010E948C0787E0F50111928A95E9F76D
:101680006ECFC8010E94E107882309F409CFEE203C
:1016900009F406CF80910A02803208F4B5CF209178
:1016A0000402309105023A8329839C828B829091B7
:1016B00008029D831E828F83CE010196A3CF483CF2
:1016C0005105B8F5882309F4EECEFE2CEE2009F47E
:1016D000E7CE809105028D111EC080910402C812D0
:1016E0001AC080910A0280FD0DC0982F907F51F0A2
:1016F0008683903F09F45ECF982F907F905F8F7024
:10170000892B57CF87E0F801A4E0B2E001900D9259
:101710008A95E1F724CFC8010E94E107811174CFB7
:1017200080910A02816080930A02C8010E948C079E
:1017300016CF682D9A8A898AA6017A899E2D0E94E1
:10174000EE0787E0F50111928A95E9F7A6CEAEE0A3
:10175000B0E0EDEAFBE00C945A19288739874A87F4
:101760005B876C877D878E87CE0108960E941D0A55
:101770008823B1F06C85662341F0288539854A8538
:101780005B857D858E850E94F80717E08091CA01F0
:101790009091CB0189133DC02E96E3E00C9476190D
:1017A00087E0FE013896DE01119601900D928A9530
:1017B000E1F78C85882349F32091CB0130E0C90102
:1017C0000196877099274091CA014817190699F028
:1017D00097E0929FD001939FB00D1124A453BE4F68
:1017E000FE01319601900D929A95E1F78093CB011D
:1017F0000E947009CACF0E94C1071092CB011092BB
:10180000CA0187E0E4E0F2E0DF011D928A95E9F782
:10181000BCCF819FC001112484539E4F0E941D0A9A
:10182000882309F4B9CFE091CA011E9FF001112469
:10183000E453FE4F2081318142815381648175815F
:1018400086810E94F8078091CA0190E00196877016
:1018500099278093CA019ACF80910B02869586952D
:101860008695089580910B028770089590910B02E0
:10187000977081E009F480E008958091170208953F
:1018800090911702892B809317020895809590916B
:101890001702982390931702089510921702089543
:1018A00090911602892B809316020895809590914D
:1018B0001602982390931602089510921602089526
:1018C00008950E94600C089590910C02292F2823FE
:1018D00031F08095892380930C020E94610C089559
:1018E00008950E94700C089590910D02292F2823CD
:1018F000281729F0982B90930D020E94710C0895DF
:1019000090910D02292F282331F08095892380930F
:101910000D020E94710C089580910D02882329F018
:1019200010920D0280E00E94710C08950F931F9396
:10193000CF930091000110910101C0911702809195
:101940001602C82B80910D02882331F0C82B0E940B
:10195000A31481110E948C0CF801C08380910001B6
:10196000909101010E944E14CF911F910F91089503
:101970000E94960C089508950E94BB0C08959091C2
:10198000500292FF11C098E0899F90011124622BB0
:1019900060930B020E944A0880910B0286958695FF
:1019A00086950E94BC0C08950E944A0808951092E2
:1019B0000B0280E00E94BC0C089590910B02809570
:1019C000892380930B02282F277069F4891759F017
:1019D0009091500292FF07C08695869586950E9449
:1019E0005A080E94D70C08959091500292FB22272A
:1019F00020F9281769F080FB92F9909350028091AA
:101A00004F02909150020E94430D82E00E94DD0C33
:101A100008958091500282FB882780F991E0892700
:101A20000E94F40C089581E00E94F40C089580E077
:101A30000E94F40C08956FEF7FEF90E080E00E9429
:101A4000D419089590E080E00E94A01921E0853E1D
:101A50009E4F09F020E0822F089582E090E00E94DE
:101A60009819089583E090E00E94981990E00895F5
:101A7000682F83E090E00E94B619089584E090E01A
:101A80000E94A0190895BC0184E090E00E94D4193E
:101A90000895AB01BC018FE090E00E94C819089541
:101AA000AB01BC0183E190E00E94C819089560E099
:101AB00070E0CB010E94500D089560E070E0CB0112
:101AC0000E94490D0E94570D0895A8E0B0E0EBE692
:101AD000FDE00C945B1965EE7EEF90E080E00E94E3
:101AE000D41960E082E090E00E94B61981E090E0B5
:101AF0009093C9018093C8010E94380D60E074E1A1
:101B000084E090E00E94D41960E086E090E00E94BA
:101B1000B61960E087E090E00E94B61940E050E01E
:101B2000BA0188E090E00E94C81960E083E290E08A
:101B30000E94B61960E08CE090E00E94B61960E067
:101B40008DE090E00E94B61919821A821B821C82D5
:101B50001D821E821F82188648E050E067E170E017
:101B6000CE0101960E94A61940E050E0BA018FE133
:101B700090E00E94C8190E945D0D2896E2E00C9446
:101B800077190E94650D0895682F8EE090E00E94FD
:101B9000B6190895A6E0B0E0E0EDFDE00C94591907
:101BA0000E94D0158C018091180290911902801723
:101BB000910781F019821A820E94D015682F4981FD
:101BC0005A81792F80E090E00E9445041093190219
:101BD000009318022696E4E00C9475190E94DC1517
:101BE00060932C0270932D0280932E0290932F020B
:101BF000609328027093290280932A0290932B020B
:101C00000895089508950E94010E089508950E9470
:101C1000060E0E94030E089508950E940C0E08956A
:101C200008950E94100E0E940D0E08958EEE90E110
:101C30000E9465120E94020E0E94070E089581E024
:101C400008950E941F0E08950E941F0E0895089582
:101C5000089508950E94270E0E94280E0E94290EC2
:101C600008950E94220D811102C00E94C10D0E94A0
:101C70002D0D809330020E943E0D90935002809370
:101C80004F020E9488120E94320D0E940E0880911D
:101C9000C6019091C7010E942F0808950E94C715A0
:101CA0000E94C3110E94310E0E941F040E94110E57
:101CB0000895A6E0B0E0EFE5FEE00C944F190E9415
:101CC000210E811108C00E94CA0D0E942C04269684
:101CD000EEE00C946B190E94D9112AE1822E22E0C9
:101CE000922E640110E0F601E190F1906F01812FD6
:101CF0000E940A111F5F173009F44BC0E816F9065D
:101D000091F38091300281FD0E9413110E94240EF4
:101D1000782E10E066246394812F0E940A117C01C2
:101D2000F401A190B1904F018A159B0561F100E08B
:101D3000CC24C394D12CAE24BF24C5018C219D2179
:101D4000892BC1F07720B1F009831A830E94D01546
:101D50009C838B836D8221E0C7018C219D21892B7F
:101D600009F420E049815A816B817C818D81922F19
:101D70000E9445040F5FCC0CDD1C0B30F1F6F40122
:101D80003297F182E0821F5F173031F60E94EE0D2C
:101D90009CCFE816F90609F0B4CF95CF1F93CF93E7
:101DA000DF930E94FD0FEC01C11580E5D807F0F527
:101DB000C11580E4D80708F09CC0C03ED10520F5CD
:101DC000CD3CD10508F082C0C83AD10578F4C53AB7
:101DD000D10508F073C0C130D10519F1209709F180
:101DE000C430D105F0F4D0E0C0E01BC0C33CD10545
:101DF000D0F7C85AD0E0CC0FDD1FC55BDE4F09908D
:101E0000D881C02DD4640DC0C11580E2D80708F078
:101E1000D1C0C11581E0D80708F05AC0C83ED1052D
:101E200010F7CE01DF91CF911F910895C03682E562
:101E3000D80718F5C03482E5D80708F06BC0C03267
:101E400082E5D80708F05FC0C11582E5D80708F41D
:101E500097C02C2F2695269580E2289F900111246B
:101E60008C2F8370C1E0D0E002C0CC0FDD1F8A95BB
:101E7000E2F7C22BD32BDD68D4CFC03A82E5D80776
:101E800060F4C03882E5D80708F459C0CF71D0E0BB
:101E9000DC2FCC27C46FD06AC4CFC03C82E5D80702
:101EA00008F462C0C03E82E5D80708F09CCFDC2F62
:101EB000CC27CC27DF71C06FD06AB3CFC55AD0E032
:101EC000CF57DE4FC881D0E0D064ABCFD065A9CF6B
:101ED0008D2F0E949F10182FCE0199270E94FD0F71
:101EE000C12FD0E0DC2FCC27CC27DF71C82BD92B1A
:101EF00098CFCE0199270E94FD0FCC27DF70C82B09
:101F0000D92BD06A8ECFCF71D0E0DC2FCC27C16F18
:101F1000D06A87CF2C2F26952695277080E2289FA0
:101F2000900111248C2F8370C1E0D0E002C0CC0F4F
:101F3000DD1F8A95E2F7C22BD32BDC6872CF2C2FE2
:101F400026952695277080E2289F900111248C2FDA
:101F50008370C1E0D0E002C0CC0FDD1F8A95E2F7AC
:101F6000C22BD32BDA685DCF8C2F8F710E949F100C
:101F7000C82FD0E0DC2FCC27CC27DF71D06251CF27
:101F80008C2F8F710E949F1055E0D695C7955A955A
:101F9000E1F7CF70D0E0DC2FCC27282F30E084FF92
:101FA00005C044E0220F331F4A95E1F7C22BD32B23
:101FB000D06937CF8D2F8F710E949F10182FCE01BF
:101FC00099270E94FD0FC12FD0E0DC2FCC27CC2712
:101FD000DF71C82BD92BD2CF462F773030F46B303E
:101FE00020F4672F0E94D402089590E080E00895C5
:101FF0000E94EC0F0E94CE0E089582389105B9F12F
:10200000B0F48133910509F47DC048F4893291051B
:1020100009F46DC08A32910509F47BC008958533B7
:10202000910509F45FC08933910509F10895833E54
:102030009105D9F138F4803E910529F1823E910550
:1020400079F10895863E9105D9F1873E910509F40D
:102050003EC0843E910541F52091500221FF24C0ED
:1020600080914F0284FD19C087EE90E00895209181
:102070004F02237009F05AC02091500223FF14C070
:1020800089E290E0089520914F0220FD38C0309100
:10209000500230FF09C024FF43C090E080E0089563
:1020A00020914F0222FDF7CF089520914F0222FD8B
:1020B0003AC03091500230FD39C024FFF5CFEDCF4A
:1020C00020914F0223FFF0CF24FDE7CFCDCF209109
:1020D0004F0223FD2EC03091500231FFEECF84EE2F
:1020E00090E0089520914F0225FFDECFC9CF2091C7
:1020F0004F0225FD21C02091500223FFD5CF89E357
:1021000090E0D2CF20914F0226FFCECF8AE290E01E
:10211000089520914F0226FFC7CF81E390E00895F4
:1021200083EE90E0089582EE90E0089580EE90E0D6
:10213000089586EE90E0089585E390E008959091EB
:102140004F0292FF10C041E0282F2471243009F083
:1021500040E031E0282F2871283009F030E04317A3
:1021600011F02CE0822793FF10C041E0282F24714A
:10217000243109F040E031E0282F2871283109F09E
:1021800030E0431711F02CE082273091500230FFED
:1021900010C051E0282F2171213009F050E041E0BA
:1021A000282F2871283009F040E0541711F029E059
:1021B000822731FF10C041E0282F2171213109F021
:1021C00040E031E0282F2871283109F030E0431732
:1021D00011F029E0822794FD877E089580E008951C
:1021E000CF939C01205E3245C1E02032310538F4A6
:1021F000FB01C581C11103C08F710E9463038C2F45
:10220000CF91089508950E940211089508950E94A3
:1022100006110895E82FF0E0EE0FFF1FE15AFD4F81
:10222000808191810895089580EA8A95F1F7089553
:1022300000C008950E9414110895F894E82FE295C3
:10224000EF70F0E031A1282F2F7081E090E001C005
:10225000880F2A95EAF7982F9095932391A392A13E
:10226000892B82A3789408950F931F93CF93DF93C4
:10227000CFE8D1E089918F3F11F00E941D1181E0DC
:10228000C639D807B9F7C4E8D1E00FE811E0899161
:102290008F3F11F00E941D110C171D07C1F7DF9130
:1022A000CF911F910F910895AF92BF92DF92EF925D
:1022B000FF920F931F93CF93DF938C01D62EC62FDF
:1022C000D0E0CE0181579E4F7C01FC0120812F3F41
:1022D00009F44CC0F894E22FE295EF70F0E031A1E0
:1022E0002F7081E090E001C0880F2A95EAF7932FC4
:1022F000982B91A392A18095892382A378940E9420
:102300001811E4E8F1E041E050E0B12CA12C21915A
:102310002F3FB1F1A22FA295AF70B0E090968C91B3
:1023200090E02F7002C0959587952A95E2F780FD81
:1023300027C0CA01A82AB92A440F551F81E0EF38E7
:10234000F80729F7F70180818F3F11F00E941D11D6
:1023500061E0A114B10409F460E08D2D0E941A110E
:10236000CC0FDD1FC00FD11FB982A882DF91CF91A2
:102370001F910F91FF90EF90DF90BF90AF90089565
:1023800090E080E0D7CF0E9434118EE0EFE5F2E0DC
:10239000DF01982F1D929A95E9F7E1E5F2E0DF0160
:1023A0001D928A95E9F787E00E9414120E9403119A
:1023B0000895AEE0B0E0EFEDF1E10C9458198E0114
:1023C0000F5F1F4F8EE0F80111928A95E9F7F12C0B
:1023D0006F2DC8010E945411F394F7E0FF12F8CF5B
:1023E0004EE050E0B80181E592E00E94821921E0C0
:1023F000009709F420E0892B41F08EE0F801A1E577
:10240000B2E001900D928A95E1F747E06FE572E046
:1024100081E592E00E941512182F0E940711812F6A
:102420002E96E5E00C9474190895B0E0A0E0EBE17D
:10243000F2E10C9455196C017B01042FC22F222369
:1024400079F081E0809333020E94D015909332029C
:102450008093310280E0CDB7DEB7E8E00C947119CB
:10246000D0913302DD23B1F3809131029091320299
:102470000E946515059770F310E0000F111FA80169
:10248000B601C7010E948219892B31F0A801B6015B
:10249000C7010E948F19CD2F109233028C2FDBCFF2
:1024A0000E946F150E944D160E94160E0E945D1626
:1024B0000E944E0E0E946E160E947C160E94A91663
:1024C0000E94B5160E942A0EF7CF90939701809331
:1024D000960108950E941B0D089580E00E940A1144
:1024E000817008950E94D9112FEF86E791E0215065
:1024F00080409040E1F700C000000E94D9110E9486
:102500006D12882321F00E946A120E940C16089511
:102510000E9472120895CF93DF93EB0186319C479E
:1025200011F50E943D0C9D81992399F08A7A91E0E2
:1025300009F490E090933402811109C089E20E946D
:10254000F3140E94B80C80E0DF91CF91089585E3E9
:10255000F6CF80913402811104C089E20E94FB14FD
:10256000F0CF85E3FBCF81E0EFCFCF93DF93EC019A
:10257000FB018581882309F4D2C09E0130572332A4
:10258000310508F0B2C00E943E0D90935002809336
:102590004F02FE01E150F047E232F10520F4E8502D
:1025A000F64E0C94451980914F02816080934F0242
:1025B00093C0809150028860809350028DC08091BA
:1025C0004F028260F3CF80914F028460EFCF809101
:1025D0004F028860EBCF809150028160EDCF8091F7
:1025E00050028260E9CF80914F028061DFCF8091FD
:1025F0004F028062DBCF80914F028064D7CF0E9470
:10260000C10780914F028068D1CF80914F028C60CA
:10261000CDCF809150028360CFCF80914F028E7FCB
:10262000C5CF80915002877FC7CF80914F028D7FA9
:10263000BDCF80914F028B7FB9CF80914F02877FB2
:10264000B5CF809150028E7FB7CF809150028D7FA1
:10265000B3CF80914F028F7EA9CF80914F028F7DA3
:10266000A5CF80914F028F7BA1CF0E94C10780919F
:102670004F028F779BCF80914F02837F97CF8091BE
:1026800050028C7F99CF80914F0282FB992790F95D
:1026900021E0922790FB82F990FB83F987CF80910C
:1026A0005002982F909591708E7F892B90FB81F925
:1026B00083CF90914F02892F8F7B96FF806476CFD6
:1026C0000E94C10790914F02892F97FB87F980588C
:1026D0006DCF81E00E94C40D80914F029091500215
:1026E0000E94430D0E94C10780E0DF91CF910895C1
:1026F00080E0F0CF90914F02892F8F7E94FF806110
:1027000055CF90914F02892F8E7F90FF81604ECFE1
:1027100090915002892F877F93FF88604DCF81E091
:10272000E4CF0F931F93CF93DF93C42FD22FFC01DD
:1027300085818823C9F0409337020E94D015909379
:1027400036028093350280E28C0F883040F4C770E7
:1027500081E001C0880FCA95EAF70E947505DF91F4
:10276000CF911F910F91089510913702141332C029
:1027700080913502909136020E946515883C910542
:1027800048F5C0E2CD0F1D17B9F080E2810F883007
:1027900040F4177081E001C0880F1A95EAF70E9493
:1027A0007C05C83048F481E09D2F977001C0880FE8
:1027B0009A95EAF70E947505802F0E946C05C83033
:1027C00070F6D77081E001C0880FDA95EAF70E94B1
:1027D0007C05C5CF80E28C0F883008F6C77081E099
:1027E00001C0880FCA95EAF7F2CF0F93DB01885139
:1027F0009C4787309105A0F5FC01E65EF54E0C94F0
:10280000451906E221EE41EE6AE17CE7CD010E9426
:10281000911380E00F91089507E225EE45EE6BE1FC
:102820007CE7F4CF06E221EE40EE68E17CE7EECFF4
:1028300007E225EE44EE69E17CE7E8CF06E221EE0F
:1028400042EE6CE17CE7E2CF07E225EE46EE6DE179
:102850007CE7DCCF08E221E045EE6EE17CE7D6CFF5
:1028600015968C91882319F010923702D3CF81E00E
:10287000D1CF90933D0280933C020895E0913C02B9
:10288000F0913D02309729F00190F081E02D0995FB
:10289000089580E008950E943E140895E0913C025E
:1028A000F0913D02309721F00280F381E02D0995EF
:1028B0000895A3E0B0E0EFE5F4E10C945B192091FA
:1028C0003A0230913B0228173907A1F090933B025E
:1028D00080933A02E0913C02F0913D02309751F032
:1028E00023E029839B838A830084F185E02DCE0138
:1028F000019609952396E2E00C947719A3E0B0E0E5
:10290000E4E8F4E10C945B1920913802309139022B
:1029100028173907A1F09093390280933802E0918B
:102920003C02F0913D02309751F024E029839B83D3
:102930008A830084F185E02DCE01019609952396C6
:10294000E2E00C94771940910001509101019A0145
:102950002E5F3F4F485F5F4F80E02417350709F433
:102960000895F90191919F019923B9F38F5FF5CFF4
:10297000882371F02091000130910101F901329614
:10298000285F3F4F9191981729F0E217F307D1F78D
:1029900080E0089581E008959C01FC0132969FEF4C
:1029A00080E04191461751F09F3F19F4411101C059
:1029B000982F8F5F8630A9F79F3F09F40895290F5C
:1029C000311D97FD3A95F90162830895FC01329615
:1029D00008962191261303C0DF0111971C92E81776
:1029E000F907B9F70895682F8091000190910101CE
:1029F0000E94CC140895682F8091000190910101EC
:102A00000E94E6140895E0910001F09101013296D0
:102A100086E0DF011D928A95E9F7089508950E94E6
:102A20000E15089591E0811101C090E0909304018A
:102A30006091020170910301809104019091050160
:102A40000E940F1508958091040108958093030159
:102A50006091020170910301809104019091050140
:102A60000E940F150895809103010895809302013B
:102A70006091020170910301809104019091050120
:102A80000E940F15089580910201089508950895F8
:102A90000E9447150895089508950E9446150895C7
:102AA000CF930E944B150E94D9110E944C15C0E093
:102AB0008C2F0E940A11892B31F4CF5FC730C1F7E8
:102AC00080E0CF91089581E0FCCFCF93DF93EC01BC
:102AD0000E94D0158C1B9D0BDF91CF910895089516
:102AE0001F921FB61F9211248F939F93AF93BF9392
:102AF00080913E02811113C080916D0290916E020F
:102B0000A0916F02B09170024196A11DB11D8093FA
:102B10006D0290936E02A0936F02B0937002BF910A
:102B2000AF919F918F911F901FBE1F90189580911C
:102B30004102882331F10E94FF0310923E0288E196
:102B400090E020E40FB6F894A895809360000FBE43
:102B50002093600083B7817F846083BF83B78160E7
:102B600083BF7894889583B78E7F83BF0FB6F89420
:102B7000A895809160008861809360001092600049
:102B80000FBE08950E94C1070E940604089582E0C6
:102B900084BD93E095BD9AEF97BD80936E00089534
:102BA0002FB7F89480916D0290916E02A0916F0200
:102BB000B09170022FBF08952FB7F89460916D0205
:102BC00070916E0280916F02909170022FBF0895F4
:102BD00078941F921FB61F9211248F939F93AF93E7
:102BE000BF9380916D0290916E02A0916F02B0919F
:102BF00070020196A11DB11D80936D0290936E022B
:102C0000A0936F02B0937002BF91AF919F918F918B
:102C10001F901FBE1F90189588E198E00FB6F8949A
:102C2000A895809360000FBE90936000A895F894DB
:102C3000D8E0CEEF28E3299320E0299314BEFFCFFC
:102C4000089588E198E00FB6F894A8958093600005
:102C50000FBE90936000FFCF80919802882369F0A7
:102C6000109298020E94D0159093400280933F02E8
:102C70001092410280914102089580914102811198
:102C8000F9CF80913F02909140020E94651506970E
:102C900088F381E080934102EDCF0E94D01590939C
:102CA000400280933F0280E890E00FB6F894809352
:102CB0006100909361000FBE08950E942A19539AF3
:102CC00080E0815019F4539878940895A895EFE91D
:102CD000FFE03197F1F700C00000F3CF0E942E17FC
:102CE0000E9439142FEF80E792E0215080409040FD
:102CF000E1F700C000000895CF930E942C16CCE0AD
:102D0000811120C0CF9108950E9497150E945015FF
:102D10008823C1F0F8949AB15B9A892F8C608AB9A4
:102D20008BB18C278BB92FE738E381E021503040FD
:102D30008040E1F700C000008BB18C278BB99AB9B5
:102D40005B9878940E942C168111DECF0E94C215E8
:102D5000D9CF0E943A1880919E02882329F0809151
:102D60007C0284FD0E94590E08950895FF920F93EE
:102D70001F93CF93DF93D82F8B01F42EC5E0D13072
:102D800039F0D33071F0CDB7DEB7E5E00C947419AB
:102D900080917C0284FF0EC06F2DC8010E94301804
:102DA000F2CF8091B50284FF05C06F2DC8010E944B
:102DB0003518E9CF0E943A188FE19EE40197F1F7A8
:102DC00000C00000C150D9F6DECFB0E0A0E0EBEECD
:102DD000F6E10C945519E82E8B01EA016A0183E0B3
:102DE000D694C7948A95E1F7F12CFC141D0468F081
:102DF000C77031F04C2F50E0B8018E2D0E94B616EE
:102E0000CDB7DEB7E8E00C94711948E050E0B801A6
:102E10008E2D0E94B616085F1F4FF394E6CF43E055
:102E200050E0BC0183E00E94E5160895CF93DF9344
:102E3000EC010E94231548E050E0BE0181E00E94B1
:102E4000E51688E0FE01A7E4B2E001900D928A95B4
:102E5000E1F7DF91CF9108950895089586E091E01C
:102E60000895FC0180818076803241F48181833035
:102E7000C9F130F48130F1F0823041F180E0089501
:102E80008A30B9F18B30C9F18930C1F782819381E1
:102E90008115924069F484819581892B49F481E000
:102EA00080934602868197819093450280934402E5
:102EB0008FEF089584819581892B01F787E492E053
:102EC00090939A028093990288E008950E94431596
:102ED0008093430283E492E090939A028093990254
:102EE00081E008950E9423158093420282E492E0DB
:102EF000F3CF83810E943615C1CF84819581892BC0
:102F000009F0BCCF82810E941215B8CFCF932091D7
:102F1000440230914502232B79F0C0914602C13022
:102F200059F4FC0180810E942615109245021092EE
:102F300044028C2FCF910895CFEFFBCF0895FC0171
:102F40009381933059F130F49130C1F09230F1F027
:102F500080E00895913209F440C09232C9F784812B
:102F60009581009709F44BC0019791F787E092E0B3
:102F700090939A028093990282E3089587ED91E0FD
:102F800090939A028093990282E108958CE991E0EE
:102F900090939A02809399028BE308958281813005
:102FA000A1F0882351F0823099F689EE91E0909358
:102FB0009A02809399028CE0089583E092E09093C6
:102FC0009A028093990284E0089587EF91E09093AC
:102FD0009A02809399028AE00895848195810097EE
:102FE00031F0019709F0B4CF87EC91E002C08EEA8E
:102FF00091E090939A028093990289E0089589E381
:1030000092E090939A028093990284E408951F932A
:10301000CF93DF93E82F792F162FEA01888184FF61
:103020001CC0298188E828272983CE010296DC016B
:103030002E2F372F512F5E0FF90121912D939F01D4
:10304000452F4E1B1416C4F3612F0E9473011C5FA1
:103050001883DF91CF911F9108958AE58883E5CF8A
:103060004CE752E00E940718089545EB52E00E9499
:1030700007180895CF93DF9360919B02635067FD1B
:1030800012C080919702CCE0D0E0C81BD109C15694
:10309000DD4F80919602803108F054C0CE010E942D
:1030A0009E1710929B028091110184FF3EC0809177
:1030B00010018F3FD1F1C82F893008F0C8E0982F58
:1030C0009C1B909310019091710228E89227909395
:1030D00071028823E9F08091990290919A022091DF
:1030E000950226FFAEC0FC012C2FA2E7B2E034917E
:1030F0003D9331962150D9F79C012F5F3F4F8FEFC1
:103100008C0F820F932F911D90939A0280939902B6
:103110006C2F82E792E00E947301CC5FCC3019F0F3
:103120008FEF80931001C093110184E199B19C70DD
:1031300031F48150D9F710929C0210929402DF91E1
:10314000CF9108958D3209F069C0683009F0A9CF98
:1031500083EC809371028AE58093110110929502AD
:103160008881807671F0CE010E9431178F3FC1F4C3
:10317000988197FD8E8190E890939502809310013D
:1031800090CF2A8110927A029981911111C01092E8
:103190007B022AE732E082E030939A022093990280
:1031A0009F819111EBCF9E81981740F7892FE6CF31
:1031B000953029F420939C022AE732E0EDCF963037
:1031C00099F49B81913021F4CE010E949F1708C091
:1031D0009230D1F39330C1F39132B1F39232A1F333
:1031E00090E490939502C2CF983089F0993019F409
:1031F00020939E02E1CF9A3071F09B30E9F69BE478
:1032000090937D029093B60290938902D5CF2EE9D8
:1032100032E081E0C1CF2AE732E0FBCF8091950216
:1032200087FF3FCFCE010E9486178F3F21F48EE1AA
:103230008093110136CF882309F433CF1092100107
:1032400030CFDC012C2FE2E7F2E03D9131932150A9
:10325000E1F752CFCF93DF93E9E6F0E08081886019
:103260008083E99ACCE7D2E08BE48983A5EBB2E0D6
:1032700011968C931197E8E8F2E081838AE58883C0
:103280008C938083DF91CF910895EE0FFF1F0590FF
:10329000F491E02D09942F923F924F925F926F929A
:1032A0007F928F929F92AF92BF92CF92DF92EF92D6
:1032B000FF920F931F93CF93DF93CDB7DEB7CA1B57
:1032C000DB0B0FB6F894DEBF0FBECDBF09942A8882
:1032D000398848885F846E847D848C849B84AA842A
:1032E000B984C884DF80EE80FD800C811B81AA81B7
:1032F000B981CE0FD11D0FB6F894DEBF0FBECDBF82
:10330000ED010895FB01DC0104C08D91019080194D
:1033100021F441505040C8F7881B990B0895FB01D8
:10332000DC0102C001900D9241505040D8F7089541
:10333000F999FECF92BD81BDF89A992780B508957D
:10334000A8E1B0E042E050E00C94DC19DC01A40FED
:10335000B51F4150504048F0CB01840F951F2E916E
:103360000E94B71941505040D0F70895262FF9997F
:10337000FECF92BD81BDF89A019700B4021639F0D4
:103380001FBA20BD0FB6F894FA9AF99A0FBE0895A5
:103390000396272F0E94B7190E94B619252F0E9465
:1033A000B719242F0C94B7190196272F0E94B7192B
:1033B0000C94B619DC01CB01FC01F999FECF06C0D3
:1033C000F2BDE1BDF89A319600B40D9241505040E3
:1033D000B8F70895F894FFCFC405C40502060206A5
:1033E0006606F305F305F3058206F30602070207F6
:1033F0000D1381131513DF12E3121913E7121D13B6
:103400002913F3127A13F7122D13FB1231135913E8
:10341000FF123513601305133B134313EB122113F3
:10342000EF12251309133F134F1369137813D912A1
:10343000111388131214181401140C141E142414DC
:023440002A144C
:103442000E0200000100331516172D172C170F1747
:10345200FF5AE200E900EA00B500B600B700CD006D
:103462008301CC008A0192019401210223022402E9
:103472002502260227022A02B300B4006F00700060
:103482009F01CB019F02A002818283E200E900EA50
:1034920000B500B600B700CD008301CC008A0192CE
:1034A2000194012102230224022502260227022A74
:1034B20002B300B4006F0070009F01CB019F02A015
:1034C2000281828331606162949190656463959612
:0634D2003097353334325F
:00000001FF
