:100000000C9492010C94CA010C94CA010C942F19FF
:100010000C94CA010C94CA010C94CA010C94CA0134
:100020000C94CA010C94CA010C94511E0C94251F07
:100030000C94C4170C94CA010C94CA010C94CA0104
:100040000C94CA010C94CA010C94CA010C94CA0104
:100050000C94CA010C943C180C94CA010C94CA016B
:100060000C94CA010C94CA010C94CA010C94CA01E4
:100070000C94CA010C94CA010C94CA010C94CA01D4
:100080000C94CA010C94CA010C94CA010C94CA01C4
:100090000C94CA010C94CA010C94CA010C94CA01B4
:1000A0000C94CA010C94CA010C94CA012B001400D0
:1000B0001A00080015001700E000040016000700F1
:1000C00009000A00E1001D001B00060019000500E0
:1000D00000000000E300E20021522C002A0013007F
:1000E00012000C0018001C00340033000F000E003A
:1000F0000D000B00E500380037003600100011003D
:1001000000000000E700E6002252280029001E003F
:100110001F00200021002200E0000100010001007A
:1001200001000100E10001000100010001000100E7
:1001300000000000E300E20021522C002A0027000A
:100140002600250024002300010001004F0052007A
:1001500051005000010001000100010001000100F8
:1001600000000000E700E6002252280029001E02DD
:100170001F02200221022202E00001000100010012
:1001800001000100E1003502010001000100010051
:1001900000000000E300E20021522C002A002702A8
:1001A00026022502240223023500310230022F02EA
:1001B0002E002D003502310030002F002E022D02BE
:1001C00000000000E700E60022522800007C010049
:1001D00001000100010001002078237825782778AC
:1001E0000100010021782478267828780100010098
:1001F00000000000E300E20021522C003F003E001E
:100200003D003C003B003A004500440043004200F2
:100210004100400001000100010001000100010057
:1002200000000000E700E600225228001A034C00FC
:1002300075006E0061006B006500790020004D00C4
:1002400069006E0069000000120379006F00690008
:1002500063006800690072006F0000000403090475
:1002600009023B00020100A0FA0904000001030199
:100270000100092111010001224400070581030842
:10028000000109040100010300000009211101001F
:100290000122320007058203200001120100020042
:1002A0000000085459010001000102000105010984
:1002B00080A101850319012AB700150126B7009511
:1002C0000175108100C0050C0901A1018504190107
:1002D0002AA002150126A002950175108100C00513
:1002E000010906A101050719E029E7150025019577
:1002F000087501810295017508810105071900291A
:10030000FF150026FF0095067508810005081901F4
:1003100029051500250195057501910295017503C3
:100320009101C00011241FBECFEFDAE0DEBFCDBFC8
:1003300004B603FE18C08091940290919502A0919A
:100340009602B09197028730904BA740B04B59F47A
:1003500010929402109295021092960210929702B7
:10036000E0E0F8E3099511E0A0E0B1E0E8E8F3E4AB
:1003700002C005900D92A83AB107D9F722E0A8EA89
:10038000B1E001C01D92A439B207E1F70E943B140D
:100390000C9483210C94000023E042E061E00E9471
:1003A000870808958430B8F46830A8F4463098F48B
:1003B00050E096E0699F400D511D1124FA0190E331
:1003C000899FE00DF11D1124EE0FFF1FE455FF4F33
:1003D00085919491089581E090E008950E94D20162
:1003E000089581E008950E94F10108950E94F101AD
:1003F000089581E008950E94F10108950E94F1019D
:1004000008950E94FE010895089508950E9404022F
:10041000089508950895A6E0B0E0E1E1F2E00C94BB
:10042000F32049835A839E833091AF0189819A8159
:1004300031111AC03E81332399F0222389F00E94A2
:100440002708182F682F89819A810E9403086981E3
:100450007A81812F0E94360F2696E3E00C940F21BB
:100460000E941508182FF3CF0E94270869817A810E
:10047000F1CFFC01262F40815181628173818481FB
:1004800095810E940B020895CF93DF93EC0161E008
:100490000E943902BE010E94F301882359F061E0F5
:1004A000CE010E943902BE010E94F6018170DF91E7
:1004B000CF91089580E0FACF0F931F93CF93DF93EE
:1004C000EC0160E00E9439028C01BE010E9405022D
:1004D000BE01C8010E940602DF91CF911F910F91CA
:1004E000089521E030E0A90102C0440F551F8A950C
:1004F000E2F7CA010E9428070895CF93C82F81E030
:1005000090E00C2E02C0880F991F0A94E2F70E9417
:10051000880C8C2F0E947102CF91089581E008957C
:100520000E948E0208950E948E020895CF93C82FD4
:100530000E94DB068C2F0E9490028C2F0E94930257
:100540002FEF84E39CE0215080409040E1F700C011
:100550000000CF91089581E00E9496020E946018E9
:10056000089580E00E9496020E94841808950F93D7
:100570001F93CF93DF938C0161E00E943902EC015D
:10058000B8010E94FB01811106C080E0DF91CF918C
:100590001F910F910895B801CE010E940102882396
:1005A000A1F3B801CE010E94F815882371F3B801B8
:1005B000CE010E94B814882341F3B801CE010E94F5
:1005C0008E14882311F3B801CE010E947A1088237B
:1005D000E1F2F8018581882361F0C330FCE7DF0791
:1005E000E9F058F4C115ECE7DE07A9F0C130DC47AB
:1005F000B9F0C8010E94F901C9CFCB358CE7D80703
:10060000A9F0CC35ECE7DE0771F0CA35DC4789F795
:100610000E94630CEECF0E94AB02B7CF0E946B0C1E
:100620000E94B102B2CF0E94590CE3CF0E94670C26
:10063000E0CF0E9409020E9486170E943D030895A0
:100640000E9441030E940A020E948B17089581E0D4
:1006500008950895CF93DF93D82F0E942703C82FC2
:10066000882319F08D2F0E9429038C2FDF91CF91C1
:10067000089508950E942A03089580E00E943A0395
:1006800008950E9441160E943A030895CF930E9454
:100690004116C82F8091AA018C1779F0C093AA0146
:1006A0000E9430186093AB017093AC018093AD0150
:1006B0009093AE018C2F0E943A03CF910895ADE044
:1006C000B0E0E5E6F3E00C94F420488759876A87A8
:1006D0007B878C879D8791110E94990B1F8286E0F2
:1006E000FE013896DE01119601900D928A95E1F790
:1006F0008D8181110DC029813A814B815C816D8191
:100700007E818F810E94E30A2D96E2E00C941021F5
:10071000CE0101960E9444028111EDCFF5CFFC017C
:100720002481213021F4808191810E94590808950B
:10073000CF93C82F8823C9F08238C9F40E94551678
:1007400081FD13C089E30E94FD160E94080C2FEF63
:1007500087EE93E0215080409040E1F700C0000018
:1007600089E30E9405170E94080CCF9108958338F1
:10077000A1F40E94551680FDF8CF83E50E94FD1676
:100780000E94080C2FEF81EE94E0215080409040B1
:10079000E1F700C0000083E5E4CF8438A1F40E94B3
:1007A000551682FDE2CF87E40E94FD160E94080CD8
:1007B0002FEF81EE94E0215080409040E1F700C09F
:1007C000000087E4CECF8CEF8C0F813A70F48C2F31
:1007D0000E94C216882329F08C2F0E9405170E94C0
:1007E000080C8C2F0E94FD16BECF80E28C0F883043
:1007F00048F4C77081E001C0880FCA95EAF70E94EB
:100800007C0BB1CFEBE5EC0FE33040F4F0E0E15AC4
:10081000FE4F808190E00E946316A7CFC85ACB316B
:1008200008F0A3CFEC2FF0E0EE0FFF1FE75DFE4FC7
:10083000808191810E94881698CF882309F44DC049
:10084000823879F40E94551681FF47C089E30E94DF
:10085000FD160E94080C89E30E9405170E94080CEF
:100860000895833859F40E94551680FF36C083E5F9
:100870000E94FD160E94080C83E5EECF843859F4DF
:100880000E94551682FF29C087E40E94FD160E942F
:10089000080C87E4E1CF9CEF980F913AE8F290E2E0
:1008A000980F983050F4877091E001C0990F8A95A5
:1008B000EAF7892F0E94820BD1CF9BE5980F9330E6
:1008C00028F490E080E00E9463160895885A8B31E6
:1008D00020F490E080E00E94881608951F93CF9343
:1008E000DF93182FEB010E949803209739F4812F92
:1008F0000E941D04DF91CF911F9108958FE99FE021
:100900000197F1F700C000002197EFCF70E060E0A1
:10091000893311F460E570E00E946E040895882325
:1009200021F00E947C0B0E94080C0895882321F07E
:100930000E94820B0E94080C0895B0E0A0E0E3EA58
:10094000F4E00C94ED206C01D62FC72FFC0115812B
:10095000068102950F700E94720BE82E8823F9F031
:10096000E12E1123E1F08C2F807F803461F080E252
:100970008D0F883008F18C2F807E803221F4D230A8
:10098000D8F00023C9F080916C0282FF15C082E08C
:100990000E942D0C0E94720B91E0E82EE926BC2EDD
:1009A000B2949FE0B922FBE0FB15B8F1EB2DF0E02B
:1009B000EB57FE4D0C94DE20E12CF1CF0C2F0F7085
:1009C000C07F11F00295007F112399F0002359F0A8
:1009D00080E28D0F883010F0D11107C0802F0E9467
:1009E0007C0B0E94080C8D2F48C0802F0E948C0B1E
:1009F000F8CF8D2F0E941D04002379F080E28D0F27
:100A0000883010F0D11104C0802F0E94820B03C0E7
:100A1000802F0E94920B0E94080CEB2DE850FF0BD8
:100A2000349708F066C10E9441160E943A03CDB780
:100A3000DEB7E9E00C9409212C2F2F70F22EC07F35
:100A4000C03219F0F29480EFF822DD2341F0D1306A
:100A5000C9F1112309F443C00023E9F0C4CF809108
:100A60006C0282FD14C0112359F0FF2029F08F2D54
:100A70000E947C0B0E94080C80E00E949803CDCF5E
:100A800080E00E941D04FF2041F28F2DBECF112374
:100A900069F0011104C08F2D0E948F04BECF013078
:100AA00009F0BBCF8F2D0E94B00BB7CF0111B5CF8E
:100AB0008F2D0E9496048F2D0E94BC0B8F2D0E94BB
:100AC000A00BABCF112321F0063008F0A6CFE3CF67
:100AD000053008F0A2CF8F2D0E9496049ECF0023F0
:100AE000D1F3D93349F43FEF87EE93E031508040A2
:100AF0009040E1F700C000008D2F0E941D048DCFB3
:100B00008C2F86958695837069F0813009F085CFAA
:100B10008D2F9C2F9370111102C080E090E00E94F5
:100B200088167BCF8D2F9C2F9370111102C080E00F
:100B300090E00E94631671CF8C2F8370A1F5111184
:100B40006CCF4D2F429546954770440F440F2D2F83
:100B50002F7030E0042E02C0220F331F0A94E2F7F8
:100B600090E080E0D4FF09C08FE090E002C0880FE1
:100B7000991F4A95E2F780959095C695C695C370E2
:100B8000822B932BC23049F058F4C13019F00E94E7
:100B9000340743CF0E942B0740CF0E943D073DCF33
:100BA0000E9428073ACF8695112311F08C2F81706F
:100BB000882309F432CF4D2F429546954770440F54
:100BC000440F2D2F2F7030E0042E02C0220F331F50
:100BD0000A94E2F790E080E0D4FF09C08FE090E053
:100BE00002C0880F991F4A95E2F780959095C695A7
:100BF000C695C370822B932BC23049F058F4C13094
:100C000019F00E949C0709CF0E94930706CF0E940B
:100C1000A50703CF0E94490700CFCF70112329F009
:100C20008C2F0E9461078D2F37CF8D2F0E94960445
:100C30008C2F0E947107F1CED23F41F160F4D03F7A
:100C4000B9F0D13F81F0112309F443C00111CBCE9B
:100C50008C2F8F711FC0D33F01F1D43FA1F780913A
:100C60006C0282FD24C08C2F8F71112311F312C0EE
:100C7000112341F0053008F0D0CE8C2F8F710E94E7
:100C80008307CBCE063008F0C8CEF7CF8C2F8F71FC
:100C90001111CFCF0E946107C0CE112329F08C2FF4
:100CA0008F710E945507B9CE0E945007B6CE11230E
:100CB00031F063E08C2F8F710E940F0CAECE81E07B
:100CC0000E942D0C023008F4A8CE82E00E942D0C68
:100CD000A4CE002359F0D93309F00ECFEFEFF7EE91
:100CE00023E0E150F0402040E1F704CF8C2F8F71DA
:100CF000A0CFEE2009F49BCE0E946E0B80FD97CE14
:100D0000F60115820E94680B0E946107C6010E94CD
:100D1000A6060E94680B0E94710789CE0F931F934D
:100D2000CF93DF93EC01688179818D810E94640803
:100D30008C010E94AE070E942707B801CE010E94D5
:100D40009D04DF91CF911F910F910895CF93DF9371
:100D5000EC018C81882399F0CE010E94B7028111A9
:100D600011C00E94720B882351F08D81882339F0C5
:100D700080916C0282FF03C082E00E942D0CDF9103
:100D8000CF910895CE010E948E06CE010E945C0292
:100D9000F6CF90E080E00E94631690E080E00E9431
:100DA00088160E94990B0E94080C08950E940D1746
:100DB0000E94C90608950E94890B0E94D6060895D4
:100DC00092959F70963091F058F4925F9F70923098
:100DD00058F4803F19F030F4883E30F481E00895F3
:100DE0009A5FF4CF843FD1F380E00895883EB0F35A
:100DF000813FD1F7F3CFFC012481222339F0808198
:100E000091810E9459080E94E006089580E00895AB
:100E1000A6E0B0E0EEE0F7E00C94F4202696E2E0E5
:100E20000C941021A7E0B0E0E8E1F7E00C94F42086
:100E30002796E2E00C94102108950E941C07089563
:100E40000E941D079093CB018093CA0108950895D5
:100E50000E94200708952091CA013091CB01822B76
:100E6000932B0E94200708952091CA013091CB0155
:100E7000822393230E94200708952091CA01309174
:100E8000CB01822793270E94200708950E94CC015E
:100E900008950E9446079093C9018093C801089560
:100EA00090E080E00E944907089521E030E0A90128
:100EB00002C0440F551F8A95E2F7CA010E944907F4
:100EC000089521E030E002C0220F331F8A95E2F737
:100ED0008091C8019091C901822B932B0E944907F0
:100EE000089521E030E002C0220F331F8A95E2F717
:100EF000209530958091C8019091C9018223932358
:100F00000E944907089521E030E002C0220F331FFC
:100F10008A95E2F78091C8019091C90182279327B1
:100F20000E94490708952091C8013091C901822B80
:100F3000932B0E94490708952091C8013091C9015F
:100F4000822393230E94490708952091C80130917C
:100F5000C901822793270E94490708950895262FE3
:100F6000277091E001C0990F2A95EAF723E0769562
:100F700067952A95E1F7660F771F660F771FFA01CD
:100F8000E60FF71F50E040E0682F70E08191DF012D
:100F900011979B01042E02C0369527950A94E2F71B
:100FA000217021952827292328272C934F5F5F4FF5
:100FB0004430510559F70895A82FA77023E096955E
:100FC00087952A95E1F7880F991F880F991FFB01D4
:100FD000E80FF91F50E040E080E0219130E00A2E58
:100FE00002C0369527950A94E2F721703327042E24
:100FF00001C0220F0A94EAF7822B4F5F5F4F443003
:10100000510559F70895262F983070F4863060F412
:10101000682F70E086E0989F600D711D112440EBF1
:1010200051E0822F0E94AF070895292F983068F46D
:10103000863058F490E060EB71E036E0239F800D3D
:10104000911D11240E94DC07089580E00895B0E00E
:10105000A0E0EDE2F8E00C94ED207C010091C801E5
:101060001091C9018091CA019091CB01082B192BD5
:10107000CFE0D0E0CC24C394D12CBC2EC6010C2EE2
:1010800002C0880F991F0A94E2F780239123892BCD
:1010900049F4219790F7B12C8B2DCDB7DEB7E9E05D
:1010A0000C940921B7018C2F0E94420F019789F3FC
:1010B000F3CFCF93DF93EC010E942708BE010E947B
:1010C000420FDF91CF9108951F93CF93DF93EB01F0
:1010D0009091AF01992339F0CB010E945908DF911B
:1010E000CF911F910895882369F0CB010E942708B2
:1010F000182F682FCE010E940308BE01812F0E9485
:10110000420FEDCFCB010E941508182FF6CFE1E07A
:10111000F0E0DF0102C0AA0FBB1F6A95E2F7BD0134
:10112000DF0102C0AA0FBB1F4A95E2F7AD01462BB3
:10113000572B02C0EE0FFF1F2A95E2F79A012823D2
:1011400039232417350719F48E2B9F2B0895E0952A
:10115000F0958E239F2308951F93CF93DF93C09123
:10116000CC0117E08091CD018C1304C0DF91CF91A9
:101170001F910895D0E01C9FF0011D9FF00D1124D8
:10118000E253FE4F20813181428153816481758118
:1011900086810E9412072196C770E4CF2091060233
:1011A00030910702409108025091090260910A02B1
:1011B00070910B0280910C020E9412070895CF9348
:1011C000DF9380910C02807F09F04DC080910B026B
:1011D000882309F448C0E091CC015091CD01C09121
:1011E0000702D0910602609108027091090247E05F
:1011F0005E17C9F18E2F90E0E49FF0011124E253B5
:10120000FE4F2481222391F1489FF001499FF00D68
:101210001124DF01A253BE4F11962C9111972C136C
:1012200025C02C912D1322C015962C9115972111B4
:101230001DC012962D913C91261B370B283C310581
:10124000A8F480910C028F70806180930C02EC52A4
:10125000FE4F80818F708061808386E092E00E94E3
:10126000A6060E94AC08DF91CF910895FC0131964B
:10127000E770BECF482F2091CC019091CD0157E06F
:10128000291302C080E0089530E0529FF001539F7F
:10129000F00D1124E253FE4F8181681306C0808156
:1012A000481303C085818111EECF2F5F3F4F277018
:1012B000E7CFA4E1B0E0EFE5F9E00C94EA208C017F
:1012C00086E0F801DE011F9601900D928A95E1F704
:1012D000F8018481E58096E0A92E92E0B92E9091E4
:1012E0000A0291111FC08823D1F0EE20A9F0C80195
:1012F0000E94FB06F82E882379F087E0F801D501DB
:1013000001900D928A95E1F7C5010E948F030E941A
:10131000DF080E94CE085FC0C8010E94A606FF2415
:10132000F39459C0C080D18082809380F0900B02EA
:101330002091080230910902A401421B530BFF20A7
:1013400009F4F9C0483C510508F0A7C0882309F406
:1013500042C09091070280910C02282F207F09F053
:101360005CC09D1116C090910602C91212C0E11016
:101370004EC08F70806180930C020E94CE0886E080
:1013800092E00E94A60680910C02F8018683F12C5F
:1013900022C0E1103CC06D2D8C2D0E943A096D2DAC
:1013A0008C2D0E943A09E82E8111F1CFCF86D88A80
:1013B0008F8598890E945908292F22952F702430F3
:1013C00078F49F702230A8F09923B9F0F801968143
:1013D000907F99F4FE2C8F2D6496ECE00C940621FE
:1013E0002A5F2F70223068F0C8010E94A606EF2CF9
:1013F000F1CF992311F0882369F3805E883050F390
:10140000F3CF803F38F3815F833070F7E3CF809173
:101410000C02816080930C02BACF9D1113C0909191
:101420000602C9120FC0E1100DC08683C8010E94D8
:10143000A60687E0F801A6E0B2E001900D928A9539
:10144000E1F767CFC8010E94FB06882309F464CF47
:10145000EE2009F461CF80910C02803288F0209157
:10146000060230910702398728879B868A869091E9
:101470000A029C871D868E87CE0108960E94A606CA
:1014800087E0F801A6E0B2E001900D928A95E1F7BD
:101490000E94DF080E94CE0842CF90910C02292FB3
:1014A000207FA1F4682D9A8A898AA6017A899E2DC7
:1014B0000E94080786E092E00E94A60687E0F501F8
:1014C00011928A95E9F70E94CE0861CF882309F42A
:1014D00082CF809107028D1110C080910602C81240
:1014E0000CC0E1100AC09683C8010E94A60687E0DE
:1014F000F50111928A95E9F76ECFC8010E94FB06AB
:10150000882309F409CFEE2009F406CF80910C025C
:10151000803208F4B5CF20910602309107023A8359
:1015200029839C828B8290910A029D831E828F83E5
:10153000CE010196A3CF483C5105B8F5882309F4A4
:10154000EECEFE2CEE2009F4E7CE809107028D113D
:101550001EC080910602C8121AC080910C0280FD44
:101560000DC0982F907F51F08683903F09F45ECF95
:10157000982F907F905F8F70892B57CF87E0F8016D
:10158000A6E0B2E001900D928A95E1F724CFC80160
:101590000E94FB06811174CF80910C0281608093C0
:1015A0000C02C8010E94A60616CF682D9A8A898A65
:1015B000A6017A899E2D0E94080787E0F501119205
:1015C0008A95E9F7A6CEAEE0B0E0E9EEFAE00C9439
:1015D000F320288739874A875B876C877D878E87CA
:1015E000CE0108960E9459098823B1F06C856623C4
:1015F00041F0288539854A855B857D858E850E94E9
:10160000120717E08091CC019091CD0189133DC064
:101610002E96E3E00C940F2187E0FE013896DE0160
:10162000119601900D928A95E1F78C85882349F3F4
:101630002091CD0130E0C901019687709927409132
:10164000CC014817190699F097E0929FD001939F1B
:10165000B00D1124A253BE4FFE01319601900D92A0
:101660009A95E1F78093CD010E94AC08CACF0E9401
:10167000DB061092CD011092CC0187E0E6E0F2E0AB
:10168000DF011D928A95E9F7BCCF819FC00111242B
:1016900082539E4F0E945909882309F4B9CFE091E3
:1016A000CC011E9FF0011124E253FE4F20813181B5
:1016B000428153816481758186810E9412078091E5
:1016C000CC0190E00196877099278093CC019ACF46
:1016D00080911502869586958695089580911502CC
:1016E0008770089590911502977081E009F480E069
:1016F000089580912102089590912102892B809371
:1017000021020895809590912102982390932102BF
:10171000089510922102089590912002892B8093C0
:1017200020020895809590912002982390932002A2
:10173000089510922002089508950E949C0B089528
:1017400090911602292F282331F0809589238093C8
:1017500016020E949D0B089508950E94AC0B0895F7
:1017600090911702292F2823281729F0982B90935E
:1017700017020E94AD0B089590911702292F28237C
:1017800031F080958923809317020E94AD0B089554
:1017900080911702882329F01092170280E00E949E
:1017A000AD0B08950F931F93CF93DF93009100012A
:1017B00010910101C091210280912002C82B8091DB
:1017C0001702882331F0C82B0E94AD1681110E94A8
:1017D000C80BF801C083C0910001D091010148E01D
:1017E00050E06DE072E0CE010E941B21892B59F080
:1017F00088E0FE01ADE0B2E001900D928A95E1F73C
:10180000CE010E945816DF91CF911F910F9108953C
:101810000E94D20B089508950E940B0C0895909198
:101820006C0292FF11C098E0899F90011124622BF5
:10183000609315020E946107809115028695869536
:1018400086950E940C0C08950E94610708951092DD
:10185000150280E00E940C0C08959091150280956D
:10186000892380931502282F277069F4891759F06E
:1018700090916C0292FF07C08695869586950E948E
:1018800071070E94270C089590916C0292FB222709
:1018900020F9281769F080FB92F990936C028091EF
:1018A0006B0290916C020E94930C82E00E942D0CBE
:1018B000089580916C0282FB882780F991E0892746
:1018C0000E94440C089581E00E94440C089580E039
:1018D0000E94440C08956FEF7FEF90E080E00E943B
:1018E0006D21089590E080E00E94392121E0853E3D
:1018F0009E4F09F020E0822F089582E090E00E9440
:101900003121089583E090E00E94312190E0089514
:10191000682F83E090E00E944F21089584E090E0DA
:101920000E9439210895BC0184E090E00E946D215D
:101930000895AB01BC018FE090E00E946121089501
:10194000AB01BC0183E190E00E946121089560E059
:1019500070E0CB010E94A00C089560E070E0CB0124
:101960000E94990C0E94A70C0895A8E0B0E0EBEB50
:10197000FCE00C94F42065EE7EEF90E080E00E94A5
:101980006D2160E082E090E00E944F2181E090E0D4
:101990009093CB018093CA010E94880C60E074E1AF
:1019A00084E090E00E946D2160E086E090E00E947B
:1019B0004F2160E087E090E00E944F2140E050E03E
:1019C000BA0188E090E00E94612160E083E290E04B
:1019D0000E944F2160E08CE090E00E944F2160E087
:1019E0008DE090E00E944F2119821A821B821C8296
:1019F0001D821E821F82188648E050E067E170E079
:101A0000CE0101960E943F2140E050E0BA018FE1F3
:101A100090E00E9461210E94AD0C2896E2E00C94B7
:101A200010210E94B50C0895682F8EE090E00E946E
:101A30004F210895A6E0B0E0E0E2FDE00C94F22032
:101A40000E9424188C018091220290912302801719
:101A5000910781F019821A820E942418682F498107
:101A60005A81792F80E090E00E945F031093230257
:101A7000009322022696E4E00C940E210E945E1050
:101A8000609330027093310280933202909333025C
:101A900060932C0270932D0280932E0290932F025C
:101AA0000895089508950E94510D089508950E9483
:101AB000560D0E94530D089508950E945C0D0895DF
:101AC00008950E94600D0E945D0D089581E00895C3
:101AD00088E790E10E9450140E94520D0E94570D19
:101AE00008950E94471208950895089508950E9448
:101AF000740D0E94750D0E94760D08950E94720C5F
:101B0000811102C00E94110D0E947D0C809334024D
:101B10000E948E0C90936C0280936B020E9473144F
:101B20000E94820C0E9428078091C8019091C901EF
:101B30000E94460708950E941B180E9438100E94B8
:101B40004D120E949E110E947E0D0E9439030E9438
:101B500076140E945F120E94610D0895A6E0B0E025
:101B6000E4EBFDE00C94EB200E94660D81110AC0AD
:101B70000E941A0D0E9447120E9446032696EBE02F
:101B80000C9407210E94C11184E2A82E82E0B82E95
:101B9000750110E0F70101917F01812F0E949410DF
:101BA0001F5F183009F441C00817A1F38091340277
:101BB00081FD0E949A100E94710DC82E10E0992498
:101BC0009394812F0E949410082FF50181915F0159
:101BD000081729F1F12CEE24E394D02ED8268D2D70
:101BE0008E21A9F0CC2099F0F9821A830E94241842
:101BF0009C838B839D8291E0802F8E2109F490E05D
:101C000049815A816B817C818D810E945F03F394AD
:101C1000EE0CF6E0FF12E3CFF501319700831F5F72
:101C2000183079F60E943E0DA5CF0813BFCFA0CF84
:101C30001F93CF93DF930E94470FEC01C11580E5FE
:101C4000D807F0F5C11580E4D80708F09CC0C03E65
:101C5000D10520F5CD3CD10508F082C0C83AD105A8
:101C600078F4C53AD10508F073C0C130D10519F137
:101C7000209709F1C430D105F0F4D0E0C0E01BC0DA
:101C8000C33CD105D0F7C85AD0E0CC0FDD1FCE59E8
:101C9000DE4F0990D881C02DD4640DC0C11580E2FB
:101CA000D80708F0D1C0C11581E0D80708F05AC0A4
:101CB000C83ED10510F7CE01DF91CF911F91089555
:101CC000C03682E5D80718F5C03482E5D80708F099
:101CD0006BC0C03282E5D80708F05FC0C11582E54D
:101CE000D80708F497C02C2F2695269580E2289FC8
:101CF000900111248C2F8370C1E0D0E002C0CC0F82
:101D0000DD1F8A95E2F7C22BD32BDD68D4CFC03A12
:101D100082E5D80760F4C03882E5D80708F459C0D6
:101D2000CF71D0E0DC2FCC27C46FD06AC4CFC03CC9
:101D300082E5D80708F462C0C03E82E5D80708F003
:101D40009CCFDC2FCC27CC27DF71C06FD06AB3CFFC
:101D5000C55AD0E0C856DE4FC881D0E0D064ABCFC2
:101D6000D065A9CF8D2F0E94E90F182FCE0199279A
:101D70000E94470FC12FD0E0DC2FCC27CC27DF718A
:101D8000C82BD92B98CFCE0199270E94470FCC277B
:101D9000DF70C82BD92BD06A8ECFCF71D0E0DC2F6B
:101DA000CC27C16FD06A87CF2C2F26952695277018
:101DB00080E2289F900111248C2F8370C1E0D0E035
:101DC00002C0CC0FDD1F8A95E2F7C22BD32BDC6853
:101DD00072CF2C2F26952695277080E2289F9001A0
:101DE00011248C2F8370C1E0D0E002C0CC0FDD1F26
:101DF0008A95E2F7C22BD32BDA685DCF8C2F8F71D7
:101E00000E94E90FC82FD0E0DC2FCC27CC27DF7150
:101E1000D06251CF8C2F8F710E94E90F55E0D6957B
:101E2000C7955A95E1F7CF70D0E0DC2FCC27282F4B
:101E300030E084FF05C044E0220F331F4A95E1F7EC
:101E4000C22BD32BD06937CF8D2F8F710E94E90F12
:101E5000182FCE0199270E94470FC12FD0E0DC2F09
:101E6000CC27CC27DF71C82BD92BD2CF462F783087
:101E700030F4663020F4672F0E94EE01089590E060
:101E800080E008950E94360F0E94180E089582384F
:101E90009105B9F1B0F48133910509F47DC048F49E
:101EA0008932910509F46DC08A32910509F47BC02D
:101EB00008958533910509F45FC08933910509F1CF
:101EC0000895833E9105D9F138F4803E910529F1BA
:101ED000823E910579F10895863E9105D9F1873EBC
:101EE000910509F43EC0843E910541F520916C02B4
:101EF00021FF24C080916B0284FD19C087EE90E021
:101F0000089520916B02237009F05AC020916C0251
:101F100023FF14C089E290E0089520916B0220FD18
:101F200038C030916C0230FF09C024FF43C090E0FC
:101F300080E0089520916B0222FDF7CF0895209153
:101F40006B0222FD3AC030916C0230FD39C024FF93
:101F5000F5CFEDCF20916B0223FFF0CF24FDE7CF2B
:101F6000CDCF20916B0223FD2EC030916C0231FF4A
:101F7000EECF84EE90E0089520916B0225FFDECF36
:101F8000C9CF20916B0225FD21C020916C0223FF57
:101F9000D5CF89E390E0D2CF20916B0226FFCECF40
:101FA0008AE290E0089520916B0226FFC7CF81E37B
:101FB00090E0089583EE90E0089582EE90E0089519
:101FC00080EE90E0089586EE90E0089585E390E03D
:101FD000089590916B0292FF10C041E0282F247168
:101FE000243009F040E031E0282F2871283009F032
:101FF00030E0431711F02CE0822793FF10C041E03E
:10200000282F2471243109F040E031E0282F287175
:10201000283109F030E0431711F02CE0822730918D
:102020006C0230FF10C051E0282F2171213009F0DF
:1020300050E041E0282F2871283009F040E0541783
:1020400011F029E0822731FF10C041E0282F2171D3
:10205000213109F040E031E0282F2871283109F0C2
:1020600030E0431711F029E0822794FD877E089520
:1020700010926D0210926E0210926F021092700216
:102080000895CF92DF92EF92FF926B017C010E9444
:10209000471281110EC00E943018C61AD70AE80AEA
:1020A000F90AC0926D02D0926E02E0926F02F09235
:1020B0007002FF90EF90DF90CF9008950F931F93E1
:1020C0000E944712882329F00E9430181F910F9117
:1020D00008950E94301800916D0210916E022091B7
:1020E0006F0230917002600F711F821F931FEECF3D
:1020F00080E00895CF939C01205E3245C1E02032FC
:10210000310538F4FB01C581C11103C08F710E94F4
:102110007D028C2FCF91089508950E948C10089510
:1021200008950E9490100895E82FF0E0E658FD4FC2
:1021300080810895089580EA8A95F1F7089500C096
:1021400008950E949B10089508950E94A410089578
:10215000EF92FF921F93CF93DF9300D000D0CDB7C3
:10216000DEB70E944712182F60918202882309F47B
:1021700047C019821A821B821C82862F90E09E0122
:102180002F5F3F4F7901B90186589D4F0E946D1214
:102190008823E9F08091710290E044E050E0B701BB
:1021A00086589D4F0E941B2121E020933502892BE8
:1021B000C9F410E00E949110812F0F900F900F90A2
:1021C0000F90DF91CF911F91FF90EF900895809134
:1021D0003502882371F384E0F70111928A95E9F7BB
:1021E00010923502E0917102F0E0E658FD4F8981CE
:1021F0009A81AB81BC8180839183A283B383DACF40
:1022000070E066587D4F8091710290E086589D4F36
:102210000E94F4120E94A510CFCFF894E82FE29507
:10222000EF70F0E031A1282F2F7081E090E001C025
:10223000880F2A95EAF7982F9095932391A392A15E
:10224000892B82A378940895CF93DF9384E90E9429
:102250000D1187E90E940D1186EC0E940D1184E397
:102260000E940D11CBE9D1E089918F3F11F00E94BE
:102270000D1181E0C13AD807B9F7DF91CF910895E8
:10228000B0E0A0E0E6E4F1E10C94EE20EC01D62E03
:10229000062F10E0C8018F559E4F7C01FC01808104
:1022A0008F3F09F444C0F894E82FE295EF70F0E016
:1022B00091A18F7021E030E001C0220F8A95EAF7EA
:1022C000892F822B81A382A12095282322A3789491
:1022D0000E949F10EBE9F1E031E0C12C21912F3FEA
:1022E00059F1A22FA295AF70B0E090968C9190E03A
:1022F0002F7002C0959587952A95E2F780FD1CC046
:10230000832FC82A330F81E0E13AF80739F7F70144
:1023100080818F3F11F00E940D1161E0C11001C05A
:1023200060E08D2D0E94A110C00FD11FC882CDB7D3
:10233000DEB7E8E00C940A2180E0E3CF809102014F
:102340008091020194E0811190E09093820284E0F8
:10235000891B809371020E94241188E0EAE7F2E071
:10236000DF01982F1D929A95E9F7E2E7F2E0DF018D
:102370001D928A95E9F784E00E94FF110E948D105A
:102380000895A8E0B0E0E7ECF1E10C94F1208E01B3
:102390000F5F1F4F88E0F80111928A95E9F7F12C41
:1023A0006F2DC8010E944011F394F4E0FF12F8CFA2
:1023B00048E050E0B80182E792E00E941B2121E052
:1023C000009709F420E0892B41F088E0F801A2E7AA
:1023D000B2E001900D928A95E1F76091820270E07F
:1023E00066587D4F44E082E792E00E940012182F69
:1023F0000E94A810812B2896E5E00C940D210895E9
:10240000B0E0A0E0E6E0F2E10C94EE206C017B018C
:10241000042FC22F222379F081E0809338020E949A
:102420002418909337028093360280E0CDB7DEB750
:10243000E8E00C940A21D0913802DD23B1F38091B9
:102440003602909137020E94A217059770F310E0B0
:10245000A801B601C7010E941B21892B31F0A801F8
:10246000B601C7010E942821CD2F109238028C2F6F
:10247000DDCFCF930E94D120C82F811102C00E94CE
:10248000CC208C2FCF91089580913C0208958091AB
:102490003B0208950E94471208950E9439128093CA
:1024A0003B020E944A1280933C020E944412809395
:1024B00002010E94471281110E94A31208950E94F6
:1024C0004712811102C00E94A612089581E09091E6
:1024D0003D029A3008F080E008950F931F93CF9348
:1024E000DF93EC018B0180913D028A30B8F4B80192
:1024F000CE010E94F112C82F811122C080913D02AD
:102500008F3FB9F40E94241890933A0280933902C5
:102510008C2FDF91CF911F910F91089580913902F7
:1025200090913A020E94A217843F914000F7C0E0C8
:10253000EFCF8F5F80933D028A3020F7C1E0E8CF74
:1025400010923D02E5CF0E94E91808950E94EC1810
:102550000895B0E0A0E0EFEAF2E10C94EF207901F9
:10256000C82F880FDD0B41155105A9F0FE0193E03E
:10257000EE0FFF1F9A95E1F7ED5FFE4F818192818B
:10258000825C9D4F208130E04217530708F49A0186
:10259000A9010E942821CE010E94D519D82E882396
:1025A000D1F001151105B9F083E0CC0FDD1F8A953C
:1025B000E1F7FE01ED5FFE4F438150E00417150780
:1025C00008F4A801CD5FDE4F6C817D81625C7D4F98
:1025D000C7010E9428218D2DCDB7DEB7E7E00C940E
:1025E0000B210E94EB1308950E9402140895A4E0A9
:1025F000B0E0EDEFF2E10C94F220609153027091A3
:10260000540280915502909156020E94AC1711E03D
:10261000643671058105910518F10E945E106E5FA8
:102620007F4F8F4F9F4F69837A838B839C8310E00A
:1026300000E030E020E044E050E0BE016F5F7F4FFB
:1026400082E00E94A912182F882351F00E943018AE
:1026500060935302709354028093550290935602F4
:10266000812F2496E4E00C940E21B0E0A0E0EBE38F
:10267000F3E10C94EC207C015B016A010E9466127C
:1026800001E010E0882311F00AE010E0C1E0D0E0A2
:10269000B501C701F6010995811104C021960C17F7
:1026A0001D072CF4CDB7DEB7EAE00C940821CC9FCF
:1026B0009001CD9F300D300D112490E080E045E376
:1026C0004A95F1F70000019682179307C1F7E0CF12
:1026D000A5E0B0E0EEE6F3E10C94EC205B01E090C5
:1026E000A501F090A60101E010E09E012B5F3F4F95
:1026F00050E040E070E060E080E00E94A912182FF6
:10270000882309F44BC067018FEFC81AD80A60917B
:102710004F027091500280915102909152020E949A
:10272000AC17643671058105910580F104E010E075
:102730009E012F5F3F4F50E040E070E060E081E09D
:102740000E94A912F82E64E070E0C6010E9477147E
:1027500011E09D81981310E01F2159F10E9430185B
:1027600060934F02709350028093510290935202F3
:1027700089819A81AB81BC8180934B0290934C02FA
:10278000A0934D02B0934E0211E013C064E070E0DC
:10279000C6010E9477149D818913C8CFF7018181FA
:1027A0009281A381B48189839A83AB83BC83111105
:1027B000DFCF80914B0290914C02A0914D02B091DD
:1027C0004E02F50180839183A283B383812F2596E6
:1027D000EAE00C9408210F931F93CF93DF93EC0151
:1027E0008B0148E653E10E943513882331F047EF0F
:1027F00052E1B801CE010E943513DF91CF911F91B4
:102800000F9108950F931F93CF93DF93C091A5016C
:10281000D091A601CE01019624E0FB01DC010190DC
:102820000D922A95E1F764E070E00E9477148883A6
:102830006D817E818F8198850091470210914802B9
:102840002091490230914A0260177107820793076D
:1028500051F060934702709348028093490290932D
:102860004A020E944110DF91CF911F910F9108956C
:102870000E94AE0D08950E94BD170E94881B0E9401
:10288000680D0E94A21B0E949B0D0E94AF1B0E941C
:10289000B41B0E9438140E94CE1B0E94770DF7CF04
:1028A0009093A9018093A80108950E946B0C08954C
:1028B00080E00E949410817008950E94C1112FEF52
:1028C00086E791E0215080409040E1F700C0000091
:1028D0000E94C1110E945814882321F00E945514AF
:1028E0000E94601808950E945D1408950895FC01E7
:1028F000680F791F8FEF91E3E617F70709F4089542
:102900002191822728E030E087FF06C0880F8927C1
:1029100021503109C9F7F0CF880FFACFCF93DF9359
:10292000EB0186319C4711F50E94790B9D8199231B
:1029300099F08A7A91E009F490E09093570281111E
:1029400009C089E20E94FD160E94080C80E0DF9118
:10295000CF91089585E3F6CF80915702811104C08D
:1029600089E20E940517F0CF85E3FBCF81E0EFCF2E
:10297000CF93DF93EC01FB018581882309F4D2C05A
:102980009E0130572332310508F0B2C00E948E0CF0
:1029900090936C0280936B02FE01E150F047E232AB
:1029A000F10520F4EF56FE4D0C94DE2080916B0271
:1029B000816080936B0293C080916C0288608093E9
:1029C0006C028DC080916B028260F3CF80916B02AC
:1029D0008460EFCF80916B028860EBCF80916C02B6
:1029E0008160EDCF80916C028260E9CF80916B02B3
:1029F0008061DFCF80916B028062DBCF80916B02C0
:102A00008064D7CF0E94DB0680916B028068D1CFB3
:102A100080916B028C60CDCF80916C028360CFCFB0
:102A200080916B028E7FC5CF80916C02877FC7CF6C
:102A300080916B028D7FBDCF80916B028B7FB9CF70
:102A400080916B02877FB5CF80916C028E7FB7CF6C
:102A500080916C028D7FB3CF80916B028F7EA9CF66
:102A600080916B028F7DA5CF80916B028F7BA1CF70
:102A70000E94DB0680916B028F779BCF80916B0267
:102A8000837F97CF80916C028C7F99CF80916B026E
:102A900082FB992790F921E0922790FB82F990FB25
:102AA00083F987CF80916C02982F909591708E7FDB
:102AB000892B90FB81F983CF90916B02892F8F7BBB
:102AC00096FF806476CF0E94DB0690916B02892F7F
:102AD00097FB87F980586DCF81E00E94140D80919B
:102AE0006B0290916C020E94930C0E94DB0680E0C6
:102AF000DF91CF91089580E0F0CF90916B02892F04
:102B00008F7E94FF806155CF90916B02892F8E7FCD
:102B100090FF81604ECF90916C02892F877F93FF49
:102B200088604DCF81E0E4CF0F931F93CF93DF9365
:102B3000C42FD22FFC0185818823C9F040935A020B
:102B40000E942418909359028093580280E28C0FBF
:102B5000883040F4C77081E001C0880FCA95EAF759
:102B60000E948F04DF91CF911F910F9108951091D2
:102B70005A02141332C080915802909159020E9457
:102B8000A217883C910548F5C0E2CD0F1D17B9F09A
:102B900080E2810F883040F4177081E001C0880F17
:102BA0001A95EAF70E949604C83048F481E09D2FF8
:102BB000977001C0880F9A95EAF70E948F04802FC2
:102BC0000E948604C83070F6D77081E001C0880F7B
:102BD000DA95EAF70E949604C5CF80E28C0F883020
:102BE00008F6C77081E001C0880FCA95EAF7F2CFF6
:102BF0000F93DB0188519C4787309105A0F5FC01BC
:102C0000ED54FE4D0C94DE2006E221EE41EE6AE129
:102C10007CE7CD010E94941580E00F91089507E2B2
:102C200025EE45EE6BE17CE7F4CF06E221EE40EEC7
:102C300068E17CE7EECF07E225EE44EE69E17CE750
:102C4000E8CF06E221EE42EE6CE17CE7E2CF07E25C
:102C500025EE46EE6DE17CE7DCCF08E221E045EEB3
:102C60006EE17CE7D6CF15968C91882319F01092EF
:102C70005A02D3CF81E0D1CF90936102809360025A
:102C800008950E944712811103C080915B0208954C
:102C9000E0916002F0916102309729F00190F0819B
:102CA000E02D0995089580E008950E944116089549
:102CB000E0916002F0916102309721F00280F3818F
:102CC000E02D09950895A3E0B0E0E9E6F6E10C9463
:102CD000F42020915E0230915F0228173907A1F09D
:102CE00090935F0280935E02E0916002F091610236
:102CF000309751F023E029839B838A830084F185F8
:102D0000E02DCE01019609952396E2E00C94102166
:102D1000A3E0B0E0EEE8F6E10C94F42020915C0230
:102D200030915D0228173907A1F090935D028093DE
:102D30005C02E0916002F0916102309751F024E072
:102D400029839B838A830084F185E02DCE0101963F
:102D500009952396E2E00C941021409100015091D6
:102D600001019A012E5F3F4F485F5F4F80E02417BB
:102D7000350709F40895F90191919F019923B9F359
:102D80008F5FF5CF882371F0209100013091010110
:102D9000F9013296285F3F4F9191981729F0E21779
:102DA000F307D1F780E0089581E008959C01FC01CC
:102DB00032969FEF80E04191461751F09F3F19F402
:102DC000411101C0982F8F5F8630A9F79F3F09F40A
:102DD0000895290F311D97FD3A95F90162830895F1
:102DE000FC01329608962191261303C0DF0111974A
:102DF0001C92E817F907B9F70895682F8091000130
:102E0000909101010E94D6160895682F80910001CB
:102E1000909101010E94F0160895E0910001F09157
:102E20000101329686E0DF011D928A95E9F7089547
:102E300008950E941817089581110EC081E08093B3
:102E40001E0160911B0170911C0180911D019091E8
:102E50001E010E941917089582E0F1CF83E080934C
:102E60001E0160911B0170911C0180911D019091C8
:102E70001E010E94191708950E941C17089581E0F1
:102E800080931E0160911B0170911C0180911D01B6
:102E900090911E010E94191708950E943F170895EE
:102EA00091E0811101C090E090931D0160911B01A0
:102EB00070911C0180911D0190911E010E941917B3
:102EC000089580911D01089580931C0160911B015C
:102ED00070911C0180911D0190911E010E94191793
:102EE000089580911C01089580931B0160911B013E
:102EF00070911C0180911D0190911E010E94191773
:102F0000089580911B010895089508950E948517E2
:102F10000895089508950E9484170895CF930E94FC
:102F200089170E94C1110E948A17C0E08C2F0E944D
:102F30009410811105C0CF5FC830C1F7CF910895BB
:102F400081E0FCCFCF93DF93EC010E9424188C1B0F
:102F50009D0BDF91CF910895CF92DF92EF92FF9278
:102F60006B017C010E9430186C197D098E099F0944
:102F7000FF90EF90DF90CF90089585B7806885BF70
:102F800085B7806885BF08951F921FB61F921124D0
:102F90008F939F93AF93BF9380916202811113C06F
:102FA0008091830290918402A0918502B091860263
:102FB0004196A11DB11D8093830290938402A0933A
:102FC0008502B0938602BF91AF919F918F911F9020
:102FD0001FBE1F90189580918B02843031F10E94A2
:102FE00019031092620288E190E020E40FB6F89491
:102FF000A895809360000FBE2093600083B7817F07
:10300000846083BF83B7816083BF7894889583B7DA
:103010008E7F83BF0FB6F894A89580916000886179
:1030200080936000109260000FBE08950E94DB063E
:103030000E942003089582E084BD93E095BD9AEF3D
:1030400097BD80936E0008952FB7F8948091830206
:1030500090918402A0918502B09186022FBF0895BD
:103060002FB7F89460918302709184028091850259
:10307000909186022FBF089578941F921FB61F92D9
:1030800011248F939F93AF93BF938091830290916C
:103090008402A0918502B09186020196A11DB11D06
:1030A0008093830290938402A0938502B09386025A
:1030B000BF91AF919F918F911F901FBE1F90189548
:1030C00081E08093E00080E28093D8001092C900F4
:1030D0008FE19EE40197F1F700C0000087E090EBDC
:1030E000DC018093940290939502A0939602B09392
:1030F000970288E19CE00FB6F894A8958093600051
:103100000FBE90936000FFCF88E19CE00FB6F8946B
:10311000A895809360000FBE90936000FFCF8EE172
:103120004A9B02C08150E1F74A9BFECF08955A980E
:1031300080E28A95F1F75A9A0895FC013BE03A95AE
:10314000F1F798E020E080E031E040E14A95F1F7C6
:10315000880F4A9B02C08160232742E04A95F1F71D
:10316000000040E14A95F1F7915079F790E19A9586
:10317000F1F799B132E03A95F1F7000040E14A9554
:10318000F1F792FB992790F992272081920F908373
:103190000895A1E0B0E0EFECF8E10C94F020198282
:1031A0008C017C01E60EF11C0E151F0541F481E037
:1031B0009981911180E02196E6E00C940C210E9407
:1031C0008F18CE0101960E949D18F80181938F01FE
:1031D000EBCF529A5A9A089552985A9AEA9AE9E687
:1031E000F0E080818F7C808308956150770B91E0BF
:1031F00001C0990F6A95EAF720E031E0911108C00B
:10320000222391F05A9A80E28A95F1F75A9808950C
:10321000492F482339F05A9A232740E24A95F1F77B
:103220009695ECCF5A98F9CF5A98EDCFFF920F931D
:103230001F93CF93DF93EC018C01060F111DC01774
:10324000D10729F4CDB7DEB7E5E00C940D21F99054
:103250000E94971868E08F2D0E94F518F0CF1F92FA
:103260000F920FB60F9211240F931F932F933F933A
:103270004F935F936F937F938F939F93AF93BF937E
:10328000EF93FF93CF93DF930F92CDB7DEB7198201
:103290000E948F18CE0101960E949D18082F069556
:1032A00006950695282F22952570902F9570290F49
:1032B000922F937026952695920F98279770898163
:1032C000982B09F05CC0043008F059C080E18A9561
:1032D000F1F75A9A529A82E08A95F1F700C05A980B
:1032E00088E0089F80011124D801AD5FBE4F16967B
:1032F000ED91FC9117973097A9F06091A50170911D
:10330000A60114962D913C911597260F371F119603
:103310008D919C911297680F791F13964C9113977A
:103320008C910995F801ED5FFE4F6381662351F0A2
:103330002091A5013091A60184819581820F931F70
:103340000E9416190E94971880E18A95F1F75A9801
:1033500052985A9A80E18A95F1F7F801ED5FFE4F95
:103360006081662351F02091A5013091A6018181F1
:103370009281820F931F0E94C9180E948F180F908C
:10338000DF91CF91FF91EF91BF91AF919F918F917D
:103390007F916F915F914F913F912F911F910F916D
:1033A0000F900FBE0F901F9018950F931F93CF9300
:1033B000DF93EC0104970CF04CC0F894529A5A98A1
:1033C00085E08A95F1F700009C2F969595708C2FDB
:1033D0008570980F892F83709695969523E0CC0F72
:1033E000DD1F2A95E1F7980F8E01092B0E9497188F
:1033F00000C068E0802F0E94F51880E18A95F1F7FF
:1034000052985A9A4A9B1EC087E090E04A991CC085
:10341000FE01ED5FFE4F63816623F9F02091A50167
:103420003091A60184819581820F931F0E94C91853
:10343000811113C0529A5A9A7894DF91CF911F91BB
:103440000F91089500C0DECF019729F4529A5A9A3D
:10345000789480E0F2CF00C0D9CF0E948F1880E22C
:103460008A95F1F75A98529A80E18A95F1F7CD5FE3
:10347000DE4F6881662351F02091A5013091A601AD
:1034800089819A81820F931F0E9416190E949718B2
:10349000789481E0D2CF089508959B01BA0190916C
:1034A0008B029430E9F48F708093E9009FEF809154
:1034B000E800915085FD06C085ED8A95F1F7000082
:1034C0009111F5CF8091E80085FF0AC050E040E0FF
:1034D000C9010E94451C8091E8008E778093E80026
:1034E000089543E050E0BC0182E00E944D1A089527
:1034F000CF93DF93EC010E94611748E050E0BE01DA
:1035000081E00E944D1A88E0FE01A3E6B2E001903E
:103510000D928A95E1F7DF91CF91089580918A020B
:10352000811109C00E94D51D0E94321E8091E200C7
:1035300084608093E200089510928A0208950E94A8
:103540003F1781E00E94501708956091870281E043
:10355000611101C080E00E942E17089590918B02A6
:1035600081E0943009F080E0609187020E943C176E
:10357000089542E061EC81E00E94511D42E261EC5D
:1035800082E00E94511D90918B0281E0943009F0FD
:1035900080E0609187020E941C17089580918D023F
:1035A000833009F461C030F48130D1F1823009F404
:1035B0009EC008958A3009F48AC08B3009F46FC028
:1035C000893009F050C080918C02813209F04BC0E3
:1035D0008091900290919102029708F044C08091EE
:1035E000E800877F8093E8008091E80082FF37C081
:1035F0009091F3008091F200029731F48091F100F4
:10360000813011F0863021F48091F1000E9464171E
:103610008091E8008B778093E8000E94851D23C08D
:1036200080918C02813AF9F48091E800877F809341
:10363000E8008091900290919102892B61F468E0FA
:1036400083E692E070E00E94941C8091E8008B7702
:103650008093E800089560E090E080E0F3CF8091EF
:103660008B028111C1CF089580918C02813AD9F7E4
:103670008091900290919102892BA9F78091E800A6
:10368000877F8093E8008091E80080FFFCCF0E9454
:1036900061178093F1008091E8008E77BCCF809114
:1036A0008C02813201F78091900290919102892BD6
:1036B000D1F68091E800877F8093E8000E94851D05
:1036C00080918E020E9450170E94DB06089580911F
:1036D0008C02813241F68091E800877F8093E80078
:1036E0000E94851D80918F020E9474170895809119
:1036F0008C02813A09F0B7CF8091E800877F8093F0
:10370000E8008091E80080FFFCCF0E948117C1CFC4
:1037100084B7877F84BF0FB6F894A8958091600026
:10372000886180936000109260000FBE80E890E096
:103730000FB6F89480936100909361000FBE0E94D1
:103740004D1708950E94D51D0E94321EE2EEF0E052
:1037500080818460808378940E94B12008958FE1F5
:1037600091E00E943C16089580918B02853031F4DF
:1037700080918B02853019F00E94161808950E94DE
:10378000EB170E948E17882399F380918902882372
:1037900079F30E942F1C0E94DB06EACF08959A015C
:1037A00040919202509193020E94D71B0895492F95
:1037B00055274330510519F168F44130510509F49A
:1037C00044C04230510509F445C090E080E050E02B
:1037D00040E025C04132510549F142325105A9F777
:1037E00084E490E04FED52E061157105C1F082E391
:1037F00090E04DEA52E06130710589F0E6CF9927FB
:103800008130910581F0009729F00297F1F6ECE202
:10381000F2E002C0ECE5F2E0849190E0AF01F90142
:10382000518340830895E8E4F2E0F6CF89E090E028
:1038300042E752E06115710591F389E090E04BE8B1
:1038400052E06130710559F3C0CF82E190E04BE95D
:1038500052E0E5CF8BE390E040E652E0E0CF80E13C
:1038600089BD82E189BD09B400FEFDCF8091D800F9
:103870008F7D8093D8008091E00082608093E0008B
:103880008091E00081FDFCCF0895AF92BF92CF926E
:10389000DF92FF920F931F93CF93DF936C01EB01A5
:1038A0008A010E94A41DF82E811123C00115110563
:1038B00039F0F80180819181C81BD90BC80ED91E3F
:1038C000B12CA12C2097A9F08091E80085FD22C0A1
:1038D0008091E8008E778093E80001151105A1F032
:1038E000F80180819181A80EB91EB182A08285E085
:1038F000F82E8F2DDF91CF911F910F91FF90DF90C8
:10390000CF90BF90AF9008950E94A41D8823D1F25C
:10391000F82EEFCFF60181916F018093F10021978E
:10392000FFEFAF1ABF0ACECFFC01809192029091B7
:10393000930286179707A0F06115710529F49091FD
:10394000E8009E779093E80090E06115710551F4CE
:10395000911108C08091E80082FF34C080E0089592
:10396000BC01F2CF80918B028823C1F18530C1F177
:103970008091E80083FD30C08091E80082FDEACFAD
:103980008091E80080FFE1CF8091F3002091F20068
:10399000382F6115710519F02830310558F091E084
:1039A0002830310509F090E02091E8002E7720932F
:1039B000E800CBCF81918093F100615071092F5FB6
:1039C0003F4FE7CF80918B02882341F0853041F053
:1039D0008091E80083FFBECF81E0089582E00895E2
:1039E00083E00895FC0180919202909193028617E2
:1039F0009707A0F06115710529F48091E8008E7792
:103A00008093E80090E06115710551F4911108C0B0
:103A10008091E80082FF35C080E00895BC01F2CFBC
:103A200080918B028823C9F18530C9F18091E8002B
:103A300083FD31C08091E80082FDEACF8091E800EB
:103A400080FFE1CF8091F3002091F200382F6115C3
:103A5000710519F02830310558F091E02830310512
:103A600009F090E08091E8008E778093E800CBCF5A
:103A700084918093F1003196615071092F5F3F4F1F
:103A8000E6CF80918B02882341F0853041F0809110
:103A9000E80083FFBDCF81E0089582E0089583E0D0
:103AA0000895982F973028F08F708093E90081E077
:103AB00008959093E900242F762F50E0981731F065
:103AC0007091EC002091ED005091F00021FD02C0BA
:103AD0009F5FE8CF3091EB003E7F3093EB00309159
:103AE000ED003D7F3093ED003091EB00316030937D
:103AF000EB007093EC002093ED005093F0002091C8
:103B0000EE0027FDE5CF80E0089580918C0287FFCD
:103B100013C08091E80082FF06C08091E8008B7797
:103B20008093E80004C080918B028111F2CF089548
:103B300080918B028823D9F38091E80080FFF8CF31
:103B40008091E8008E77ECCF2091E4003091E50081
:103B500095E6A9012091EC00822F817020FF06C01C
:103B60008091E80080FF06C080E008952091E80081
:103B700022FD1AC080918B02882389F0853089F05C
:103B80008091EB0085FD0FC02091E4003091E500AD
:103B900042175307F9F29150E1F684E0089582E06C
:103BA000089583E0089581E008950E94441E0E94D4
:103BB0004C1EE0EEF0E0808181608083E8EDF0E073
:103BC00080818F77808319BCA7EDB0E08C918E7FC8
:103BD0008C9380818F7E808310928A0208950F9348
:103BE0001F93CF93DF930E94441E0E944C1EC8ED8A
:103BF000D0E088818F7788838881806888838881F6
:103C00008F7D888319BC10928B02109287021092CC
:103C100089021092880200EE10E0F80180818B7F0B
:103C2000808388818160888342E060E080E00E9438
:103C3000511DE1EEF0E080818E7F8083E2EEF0E0C6
:103C4000808181608083808188608083F8018081A9
:103C50008E7F8083888180618883DF91CF911F91DF
:103C60000F910895E8EDF0E080818F7E8083E7ED8D
:103C7000F0E080818160808384E082BF81E0809376
:103C80008A020E94EF1D0895E8EDF0E080818E7FAA
:103C900080831092E20008951092DA001092E10001
:103CA00008951F920F920FB60F9211242F933F93F6
:103CB0004F935F936F937F938F939F93AF93BF9334
:103CC000EF93FF938091E10082FF0BC08091E200AF
:103CD00082FF07C08091E1008B7F8093E1000E940A
:103CE000B0208091DA0080FF19C08091D80080FF59
:103CF00015C08091DA008E7F8093DA008091D90020
:103D000080FF96C080E189BD82E189BD09B400FED3
:103D1000FDCF81E080938B020E948E1A8091E1009A
:103D200080FF19C08091E20080FF15C08091E20001
:103D30008E7F8093E2008091E20080618093E200B8
:103D40008091D80080628093D80019BC85E0809370
:103D50008B020E94A51A8091E10084FF2BC0809104
:103D6000E20084FF27C080E189BD82E189BD89B579
:103D7000982F917080FFFBCF8091D8008F7D80932A
:103D8000D8008091E1008F7E8093E1008091E20075
:103D90008F7E8093E2008091E20081608093E20058
:103DA00080918702882309F449C084E080938B02C4
:103DB0000E94AE1A8091E10083FF29C08091E20049
:103DC00083FF25C08091E100877F8093E10082E03E
:103DD00080938B02109287028091E1008E7F809306
:103DE000E1008091E2008E7F8093E2008091E2000A
:103DF00080618093E20042E060E080E00E94511D1B
:103E00008091F00088608093F0000E949F1AFF91DB
:103E1000EF91BF91AF919F918F917F916F915F9142
:103E20004F913F912F910F900FBE0F901F901895BB
:103E300019BC10928B020E949C1A70CF8091E300F3
:103E400087FD93E090938B02B3CF1F920F920FB632
:103E50000F9211242F933F934F935F936F937F9310
:103E60008F939F93AF93BF93CF93DF93EF93FF9382
:103E7000D091E900DF708091EC00C82FC17080FD07
:103E8000C0E81092E9008091F000877F8093F000F5
:103E900078940E94691F1092E9008091F000886078
:103EA0008093F000CD2BCF70C093E900FF91EF918C
:103EB000DF91CF91BF91AF919F918F917F916F9142
:103EC0005F914F913F912F910F900FBE0F901F90D8
:103ED0001895AAE2B0E0EFE6FFE10C94F3208CE83D
:103EE00092E02091F100FC012193CF01F2E08439AE
:103EF0009F07B9F70E94CE1A8091E80083FF1EC188
:103F000080918C0290918D029A3008F017C1E92FB0
:103F1000F0E0E654FE4D0C94DE20803899F08238B3
:103F200009F00CC1809190028F70873008F006C1B3
:103F30008093E9008091EB0085FB882780F910923F
:103F4000E90006C0809188029091890291118260F7
:103F50009091E800977F9093E8008093F100109291
:103F6000F1008091E8008E77E5C0882309F4D3C082
:103F7000823009F0E3C080918E028111D6C0809119
:103F800090028F702FEF280F263008F0D7C0809353
:103F9000E9002091EB0020FFC8C0933031F48091FC
:103FA000EB0080628093EB00C0C09091EB009061C9
:103FB0009093EB0021E030E001C0220F8A95EAF7F0
:103FC0002093EA001092EA008091EB008860EACF2B
:103FD0008111B4C010918E021F778091E300807828
:103FE000812B8093E3008091E800877F8093E80035
:103FF0000E94851D8091E80080FFFCCF8091E30046
:1040000080688093E30082E0111183E080938B024B
:1040100095C08058823008F091C080918E029091B6
:104020008F028C3D23E09207A1F583E08A838AE228
:1040300089834FB7F894DE01139620E03EE051E209
:10404000E32FF0E050935700E49120FF03C0E29586
:10405000EF703F5FEF708E2F90E0EA30C0F0C796B0
:104060008D939D932F5F243159F74FBF8091E800C6
:10407000877F8093E8006AE270E0CE0101960E949B
:10408000941C8091E8008B778093E80057C0C0961D
:10409000E7CF6091900270919102AE014F5F5F4F48
:1040A0000E94CF1BBC01892B09F448C09091E80005
:1040B000977F9093E80089819A810E94F21CE1CF5A
:1040C0008038E1F58091E800877F8093E800809157
:1040D00087028093F10045CF811130C090918E020C
:1040E000923060F58091E800877F8093E80090939C
:1040F00087020E94851D80918702882311F084E049
:1041000005C08091E30087FDFACF81E080938B02A8
:104110000E94B91A13C080918E02813079F481E037
:10412000933009F080E0809389021092E900809139
:10413000E800877F8093E8000E94851D8091E80059
:1041400083FF0AC08091E800877F8093E800809118
:10415000EB0080628093EB00AA96E3E00C940F21C1
:104160000895CF9380918B028823A1F0C091E9003C
:10417000CF709091EC00892F817090FD80E8C82B62
:104180001092E9008091E80083FD0E94691FCF70C2
:10419000C093E900CF9108950E94D51D10928B0223
:1041A0000895E8EDF0E08081806180838AE18A955E
:1041B000F1F700C08091D90081700895EE0FFF1FC4
:1041C0000590F491E02D09942F923F924F925F92C7
:1041D0006F927F928F929F92AF92BF92CF92DF9217
:1041E000EF92FF920F931F93CF93DF93CDB7DEB77C
:1041F000CA1BDB0B0FB6F894DEBF0FBECDBF099410
:104200002A88398848885F846E847D848C849B8466
:10421000AA84B984C884DF80EE80FD800C811B8174
:10422000AA81B981CE0FD11D0FB6F894DEBF0FBEA3
:10423000CDBFED010895FB01DC0104C08D9101901B
:10424000801921F441505040C8F7881B990B0895FC
:10425000FB01DC0102C001900D9241505040D8F7A3
:104260000895F999FECF92BD81BDF89A992780B53E
:104270000895A8E1B0E042E050E00C947521DC0123
:10428000A40FB51F4150504048F0CB01840F951F3B
:104290002E910E94502141505040D0F70895262F72
:1042A000F999FECF92BD81BDF89A019700B402162C
:1042B00039F01FBA20BD0FB6F894FA9AF99A0FBEDA
:1042C00008950396272F0E9450210E944F21252FE9
:1042D0000E945021242F0C9450210196272F0E94D8
:1042E00050210C944F21DC01CB01FC01F999FECF48
:1042F00006C0F2BDE1BDF89A319600B40D9241506E
:104300005040B8F70895F894FFCFDE04DE041C0592
:104310001C0580050D050D050D059C050D061C06EB
:104320001C06101584151815E214E6141C15EA1461
:1043300020152C15F6147D15FA143015FE143415BD
:104340005C1502153815631508153E154615EE1453
:104350002415F21428150C15421552156C157B15F1
:10436000DC1414158B1515161B1604160F162116C2
:1043700027162D168D1FB51F9E20B51F9E20E81FE6
:0843800009209E2060206C2042
:104388001802010000000100000000000000040104
:10439800000000040500000000000000000100719A
:1043A80017781A4C1A4B1A711AE200E900EA00B59C
:1043B80000B600B700CD008301CC008A01920194B9
:1043C800012102230224022502260227022A02B31F
:1043D80000B4006F0070009F01CB019F02A0028112
:1043E8008283E200E900EA00B500B600B700CD001C
:1043F8008301CC008A019201940121022302240244
:104408002502260227022A02B300B4006F007000BA
:104418009F01CB019F02A002818283F4F5F6F73158
:08442800339497C6343E0200F4
:00000001FF
