:100000000C9493020C94CB020C94CB020C94CB0274
:100010000C94CB020C94CB020C94CB020C94CB022C
:100020000C94CB020C94CB020C94761D0C94321DD4
:100030000C94811E0C94CB020C94CB020C94CB023A
:100040000C94CB020C94CB020C94CB020C94CB02FC
:100050000C94CB020C945D1E0C94CB020C94CB023E
:100060000C94CB020C94CB020C94CB020C94CB02DC
:100070000C94CB020C94CB020C94CB020C94CB02CC
:100080000C94CB020C94CB020C94CB020C94CB02BC
:100090000C94CB020C94CB020C94CB020C94CB02AC
:1000A0000C94CB020C94CB020C94CB0235001E00B6
:1000B0001F0020002100220023002400250026002C
:1000C00027002D002E002A0035002B0014001A00F6
:1000D0000800150017001C0018000C001200130087
:1000E0002F00300031004B003900040016000700DB
:1000F00009000A000B000D000E000F003300340051
:10010000000028004E00E10029001D001B00060031
:1001100019000500050011001000360037003800F6
:10012000E5005200E00000000000E20000002C00AA
:10013000E30000002C0021520000500051004F004D
:100140004C0001003A003B003C003D003E003F00F7
:10015000400041004200430044004500010001000E
:100160000100BE00BD00010001000100010001000E
:1001700001000100010028782778010021780100A2
:10018000AA00A900A800010001000100010001006F
:100190000100010001000000010020780100007C46
:1001A000AC00AE00AB000100010001000100010045
:1001B0000100010001000100010001000000000039
:1001C000010000000100010000000100010000002A
:1001D00001000100010001001E0F0500047F3F1F08
:1001E000643214643214783C1E1E140A05000101A6
:1001F00001010101010101020202020202020202E6
:1002000003030303030303030404040404040405B5
:100210000505050506060606060707070707080879
:100220000808090909090A0A0A0B0B0B0C0C0C0D2A
:100230000D0D0E0E0E0F0F0F1010111111121213C3
:10024000131414151516161717181819191A1A1B3E
:100250001B1C1D1D1E1E1F2020212222232424259D
:100260002626272829292A2B2C2D2D2E2F303132D6
:1002700032333435363738393A3B3C3D3E3F4041E6
:1002800042434445464748494A4C4D4E4F505153CE
:1002900054555658595A5B5D5E5F61626465666885
:1002A000696B6C6D6F7072737577787A7B7D7E8009
:1002B00082838587888A8C8E8F91939596989A9C55
:1002C0009EA0A2A3A5A7A9ABADAFB1B3B5B7BABC69
:1002D000BEC0C2C4C6C9CBCDCFD1D4D6D8DBDDDF3A
:1002E000E2E4E7E9EBEEF0F3F5F8FAFDFFFFAA7FB1
:1002F00055402223252628292A2C2D2F303233350C
:1003000036383A3B3D3E4042434547494A4C4E50C1
:1003100051535557595A5C5E6062646668696B6DEB
:100320006F71737577797B7D7F81838587898A8CEF
:100330008E90929496989A9C9E9FA1A3A5A7A8AAF6
:10034000ACAEAFB1B3B4B6B8B9BBBCBEBFC1C2C32B
:10035000C5C6C7C9CACBCCCDCED0D1D2D2D3D4D5C5
:10036000D6D7D7D8D9D9DADADBDBDBDCDCDCDCDCEE
:10037000DDDDDDDDDCDCDCDCDCDBDBDBDADAD9D9C6
:10038000D8D7D7D6D5D4D3D2D2D1D0CECDCCCBCA54
:10039000C9C7C6C5C3C2C1BFBEBCBBB9B8B6B4B37A
:1003A000B1AFAEACAAA8A7A5A3A19F9E9C9A989610
:1003B0009492908E8C8A89878583817F7D7B7977E3
:1003C0007573716F6D6B6968666462605E5C5A59C3
:1003D00057555351504E4C4A4947454342403E3D84
:1003E0003B3A3836353332302F2D2C2A2928262512
:1003F000232205010902A10185020901A1000509C5
:1004000019012908150025019508750181020501CA
:10041000093009311581257F950275088106093853
:100420001581257F950175088106050C0A3802158E
:1004300081257F950175088106C0C005010980A14D
:1004400001850319012AB700150126B7009501752A
:10045000108100C0050C0901A101850419012AA021
:1004600002150126A002950175108100C005010941
:1004700006A101050719E029E71500250195087572
:100480000181029501750881010507190029FF15F1
:100490000026FF0095067508810005081901290549
:1004A00015002501950575019102950175039101CE
:1004B000C009023B00020100A0FA09040000010388
:1004C00001010009211101000122440007058103F7
:1004D00008000109040100010300000009211101C5
:1004E0000001227B000705820320000112010002A7
:1004F00000000008D4452804010001020001140393
:100500004200650061007200360035002000560090
:10051000320000000C034A00610063006B007900A8
:1005200000000403090411241FBECFEFDAE0DEBF90
:10053000CDBF04B603FE18C080912A0390912B030F
:10054000A0912C03B0912D038730904BA740B04B66
:1005500059F410922A0310922B0310922C0310923C
:100560002D03E0E0F8E3099523E0A8E9B1E001C03C
:100570001D92AA32B207E1F711E0A0E0B1E0E0EC91
:10058000FAE402C005900D92A839B107D9F70E948C
:10059000A81E0C9414250C940000482F20912603CB
:1005A0009091ED0257E0291302C080E0089530E0F9
:1005B000529FF001539FF00D1124E251FD4F8181B4
:1005C000681306C08081481303C085818111EECF76
:1005D0002F5F3F4F2770E7CFE8EDF0E080818E7FFF
:1005E00080831092E2001092DA001092E100A0EEF7
:1005F000B0E08C9181608C9380818F77808319BC6F
:10060000A7EDB0E08C918E7F8C9380818F7E80836C
:100610001092D80208952091E4003091E50095E60B
:10062000A9012091EC00822F817020FF06C08091EB
:10063000E80080FF06C080E008952091E80022FDD8
:100640001AC08091E302882389F0853089F0809177
:10065000EB0085FD0FC02091E4003091E5004217CA
:100660005307F9F29150E1F684E0089582E008958D
:1006700083E0089581E008958091E50287FF13C02B
:100680008091E80082FF06C08091E8008B7780931C
:10069000E80004C08091E3028111F2CF08958091B7
:1006A000E3028823D9F38091E80080FFF8CF80919E
:1006B000E8008E77ECCF982F9093E900242F762FC7
:1006C00050E0891731F07091EC002091ED005091CD
:1006D000F00021FD07C09F5F973071F78093E9001C
:1006E00081E008953091EB003E7F3093EB00309134
:1006F000ED003D7F3093ED003091EB0031603093A1
:10070000EB007093EC002093ED005093F0002091EB
:10071000EE0027FDE0CF80E00895B0E0A0E0E3E93F
:10072000F3E00C948023C8EDD0E088818F7E88832D
:10073000E7EDF0E080818160808384E082BF81E02A
:100740008093D80288818E7F888302EE10E0F801C2
:1007500010821092DA0081EEC82ED12CF6011082A0
:1007600088818F77888388818068888388818F7D5E
:10077000888319BC1092E3021092E4021092E20204
:100780001092E10290EEE92EF12CF70180818B7F2F
:10079000808388818160888342E060E080E00E94FD
:1007A0005B03F60180818E7F8083F8018081816008
:1007B0008083808188608083F70180818E7F808341
:1007C000888180618883CDB7DEB7E8E00C949C23F4
:1007D000FC018091EB029091EC0286179707A0F044
:1007E0006115710529F49091E8009E779093E800D7
:1007F00090E06115710551F4911108C08091E800F5
:1008000082FF34C080E00895BC01F2CF8091E30202
:100810008823C1F18530C1F18091E80083FD30C0AB
:100820008091E80082FDEACF8091E80080FFE1CF6F
:100830008091F3002091F200382F6115710519F0B5
:100840002830310558F091E02830310509F090E06A
:100850002091E8002E772093E800CBCF8191809300
:10086000F100615071092F5F3F4FE7CF8091E302A4
:10087000882341F0853041F08091E80083FFBECFAE
:1008800081E0089582E0089583E008950895089531
:100890002FB7F8948091D4029091D502A091D602FE
:1008A000B091D7022FBF089580911D010895ECE902
:1008B000F1E09191891303C0DF0111971C9291E03F
:1008C000E23AF907B1F70895ACE9B1E0EFEF90E053
:1008D0002D91821751F0EF3F19F4211101C0E92F3A
:1008E0009F5F9630A9F7EF3F09F408950E2E000C94
:1008F000FF0BE656FE4F82830895A3E0B0E0E3E8E5
:10090000F4E00C9486232091D1023091D202281772
:100910003907A1F09093D2028093D102E091CF02E7
:10092000F091D002309751F024E029839B838A8391
:100930000084F185E02DCE01019609952396E2E031
:100940000C94A223A3E0B0E0E8EAF4E00C94862340
:100950002091CD023091CE0228173907A1F0909353
:10096000CE028093CD02E091CF02F091D002309779
:1009700051F023E029839B838A830084F185E02D55
:10098000CE01019609952396E2E00C94A223E09112
:10099000CF02F091D002309729F00190F081E02D44
:1009A0000995089580E008950E9448049C01909163
:1009B000C9028091CA02982B21F03093C60220937D
:1009C000C5029091CB028091CC02982B21F03093FC
:1009D000C4022093C302E091CF02F091D00230977D
:1009E00049F082E08093C7020680F781E02D87EC12
:1009F00092E0099508958091C20280FD16C081FDA4
:100A000016C082FD16C08091C1028823A1F08832F1
:100A100080F428E0829FC001112468E270E00E9407
:100A20004D23862F672B39F0089582E0089584E0E6
:100A3000089588E0089581E008958091C20280FDC4
:100A400014C081FD14C082FD16C08091C0028823AD
:100A500081F08E3180F420E5829FC00111246EE187
:100A600070E00E944D23862F089584E1089588E266
:100A7000089588E0089580E50895282F35EB230335
:100A8000C001112497FF04C080589109892F08954F
:100A900080589F4FFBCFFC01EE0FFF1FE80FF91F9F
:100AA000EC57FD4F61834083228308956A9A08952D
:100AB0008F929F92AF92BF92EF92FF920F931F93EC
:100AC000CF93DF938430B0F5811135C090918000D1
:100AD0009F7D90938000A0918600B0918700282F81
:100AE00030E00E94052523E030E040E050E00E9425
:100AF000E32489019A0180918600909187006CE03F
:100B000070E00E94392360177107C8F0C80169E0DE
:100B100070E00E94392370938B0060938A00DF910C
:100B2000CF911F910F91FF90EF90BF90AF909F904A
:100B30008F90089583E0909180009062CACF809159
:100B4000860090918700E0908600F0908700E09109
:100B50008600F0918700C6E0D0E0BE010E943923F4
:100B6000060F171F211D311D4801590185E0880C12
:100B7000991CAA1CBB1C8A95D1F7C701BE010E9413
:100B800039239F0150E040E0260F371F411D511DC2
:100B9000C501B4010E94E32449015A01E091860095
:100BA000F0918700CA01B9010E940F239B01AC019B
:100BB000DF010E94D0249B01AC01C501B4010E9459
:100BC0000F232FE096958795779567952A95D1F70E
:100BD000009186001091870030E020E0061717078B
:100BE0002807390708F097CF609186007091870039
:100BF00092CF282F220F220F220F909183029770FD
:100C0000922B90938302987F21E009F420E0909149
:100C1000830220FB90F9909383020E945805089567
:100C2000CF93DF9380917B0280FD0CC0D0E0C0E0C9
:100C300020E040E060E0CE010E944B052196C431E7
:100C4000D105B1F70E94C40DDF91CF910895FF92B5
:100C50000F931F93CF93DF93182F062FF42E8091BD
:100C60007B0280FF0EC0D0E0C0E02F2D402F612F0F
:100C7000CE010E944B052196C431D105B1F70E94E7
:100C80001006CDB7DEB7E5E00C949F23CF93DF933A
:100C9000EC0140917E029C81892F817090FD842F10
:100CA000692F627091FD642F92FF40E00E94270639
:100CB0008C8190E00196877099278C83DF91CF918A
:100CC000089580917B02982F9C7F61F483708460EB
:100CD00080937B0280917E02893C18F088EC80939F
:100CE0007E0208958C3AB0F38370886AF1CFB0E049
:100CF000A0E0EDE7F6E00C9480239B01E82FF0E004
:100D0000E351FE4F311109C0E4918E2F7E2F6E2FDB
:100D1000CDB7DEB7E8E00C949C23E32EF12CE491F0
:100D2000FE2F0E2F10E046E0649FC0011124CFEF8C
:100D3000D0E0BE010E943923AB01822F90E0880FE2
:100D4000991F25E5249FB001259F700D1124861B56
:100D5000970B982F990F980FBE016E197F09609F0E
:100D6000D001619FB00D709FB00D11248B2F399F62
:100D700090011124232F3327BE01621B730B609F48
:100D80009001619F300D709F300D11246E01C91AC2
:100D9000D108CE9CB001CF9C700DDE9C700D11244B
:100DA000672F7727C61BD70BC09F7001C19FF00C20
:100DB000D09FF00C11247F2D42305105A1F050F44A
:100DC0004115510509F4A3CF4130510581F07B2F26
:100DD000832F9DCF4430510569F080F04630510596
:100DE00009F495CFF4CFEB2F8F2D7F2F90CF7E2F4F
:100DF000E32F8DCFEF2D7B2F8F2F89CF732FEB2FED
:100E0000FBCF762F90917B0290FF0DC0493C08F0FC
:100E100048EC682F842F0E947706962F672F482F63
:100E2000892F0E9427060895CF93DF93EC01EBE70B
:100E3000F2E0438162818C810E9401078C818F5F87
:100E40008C83DF91CF910895CF93DF93EC01EC81F8
:100E5000F0E0EE50FD4F4491EBE7F2E062818181DA
:100E60000E9401078C818F5F8C83DF91CF91089561
:100E7000CF93762FC22F682F842F0E947706472F9B
:100E8000282F8C2F90E00E944B05CF9108950F934F
:100E90001F93CF93DF938C01D0E0C0E0F8019481E1
:100EA00060917D0280917C02CA30D105E4F49923DF
:100EB000E1F040917E02493C08F048EC9E010E941E
:100EC00038072196C431D10549F70E941006F80170
:100ED000848190E00196817099278483DF91CF917E
:100EE0001F910F910895992321F39E0140E0E7CFD0
:100EF000B0E0A0E0EEE7F7E00C947C23EC014C813D
:100F0000042F10E09801D8010E9405259B01AC0137
:100F10000E94D0244B015C01E0E2F0E0E01BF10B09
:100F2000A5E5B0E0AC019B010E94D0246B017C01DF
:100F30009F01DF010E9467239B01AC010E94DB241B
:100F40009B01AC01280D391D4A1D5B1DC701B6016F
:100F50000E94E324022F822F90E02A32A0F543E082
:100F6000249F9001112435952795122F1095F12C6F
:100F7000E12C85E5D82ED01A8D2DE1FC802F412F54
:100F8000193C08F048EC970160917D020E943807F7
:100F90005FEFE51AF50A84E1E816F10469F70E94AB
:100FA00010069C8181E0992319F0903219F48FEF9B
:100FB00080931B0180911B01890F8C83CDB7DEB715
:100FC000ECE00C94982325E530E0A901481B590B6F
:100FD000CA019A01220F331F280F391F37FFC3CFD1
:100FE0002F5F3F4FC0CFCF93DF93D0E0C0E020E032
:100FF00040E060E0CE010E944B052196C431D1054E
:10100000B1F7D0E0C0E080911602082E000C990BD9
:10101000C817D90784F180911A01082E000C990B8A
:101020008C179D0744F140917E02493C08F048EC42
:101030009E0160917D0280917C020E94380721967A
:10104000C431D10501F70E941006809119019091D9
:101050001602980F9093160220911A01280F2093E0
:101060001A01121614F493311CF081958093190122
:10107000DF91CF91089520E040E060E0CE010E9432
:101080004B05DDCFB0E0A0E0E8E4F8E00C9481236C
:10109000FC018281FF24FA9480FD02C0FF24F394B6
:1010A000D0E0C0E094E1D92E20E040E060E0CE0145
:1010B0000E944B0504E010E0E12C809115028E0D9A
:1010C0008531C4F16D2D0E942B23892F082E000C31
:1010D000990BC817D907A9F480917E02809FA001BF
:1010E000819F500D11245595479555954795493C3D
:1010F00008F048EC9E0160917D0280917C020E9484
:101100003807EF0C01501109C1F62196C431D10501
:1011100059F60E94100680911502F1E0FF1210C0EE
:1011200081110CC083E180931502CDB7DEB7E7E0F3
:101130000C949D2387FFCACF8C5EC8CF8150F3CF1C
:1011400090E00196BE010E944D23EDCFFF920F93D8
:101150001F93CF93DF93EC01F12C10E000E040915E
:101160007E02493C08F048EC8C81980160917D0238
:101170008F0D0E9438070F5F1F4F8CE0F80E04316F
:10118000110569F70E9410069A818C8190FF07C0B3
:101190008F5F8C83CDB7DEB7E5E00C949F23815041
:1011A000F8CF80E00895F894E82FE295EF70F0E032
:1011B00031A1282F2F7081E090E001C0880F2A957F
:1011C000EAF7982F9095932391A392A1892B82A35C
:1011D000789408959091F20192FF10C041E0282F79
:1011E0002471243009F040E031E0282F28712830A4
:1011F00009F030E0431711F02CE0822793FF10C074
:1012000041E0282F2471243109F040E031E0282FFB
:101210002871283109F030E0431711F02CE08227C3
:101220003091F30130FF10C051E0282F217121309F
:1012300009F050E041E0282F2871283009F040E003
:10124000541711F029E0822731FF10C041E0282F08
:101250002171213109F040E031E0282F2871283137
:1012600009F030E0431711F029E0822794FD877ED2
:10127000089582389105B9F1B0F48133910509F4EC
:101280007DC048F48932910509F46DC08A32910518
:1012900009F47BC008958533910509F45FC0893353
:1012A000910509F10895833E9105D9F138F4803E06
:1012B000910529F1823E910579F10895863E9105C7
:1012C000D9F1873E910509F43EC0843E910541F570
:1012D0002091F30121FF24C08091F20184FD19C007
:1012E00087EE90E008952091F201237009F05AC032
:1012F0002091F30123FF14C089E290E0089520912A
:10130000F20120FD38C03091F30130FF09C024FF05
:1013100043C090E080E008952091F20122FDF7CFD4
:1013200008952091F20122FD3AC03091F30130FD81
:1013300039C024FFF5CFEDCF2091F20123FFF0CF8C
:1013400024FDE7CFCDCF2091F20123FD2EC03091B7
:10135000F30131FFEECF84EE90E008952091F20189
:1013600025FFDECFC9CF2091F20125FD21C02091BC
:10137000F30123FFD5CF89E390E0D2CF2091F20192
:1013800026FFCECF8AE290E008952091F20126FF59
:10139000C7CF81E390E0089583EE90E0089582EE58
:1013A00090E0089580EE90E0089586EE90E0089534
:1013B00085E390E00895972F7530B8F46F30A8F466
:1013C0008230B0F470E02FE0929F600D711D112407
:1013D000FB019BE4899FE00DF11D1124EE0FFF1F1F
:1013E000E455FF4F85919491089580E090E0089531
:1013F00081E0FCCF1F93CF93DF930E943909EC016A
:10140000C11580E5D807F0F5C11580E4D80708F0CC
:101410009CC0C03ED10520F5CD3CD10508F082C06E
:10142000C83AD10578F4C53AD10508F073C0C13087
:10143000D10519F1209709F1C430D105F0F4D0E0BD
:10144000C0E01BC0C33CD105D0F7C85AD0E0CC0FD8
:10145000DD1FCD5DDE4F0990D881C02DD4640DC055
:10146000C11580E2D80708F0D1C0C11581E0D807C6
:1014700008F05AC0C83ED10510F7CE01DF91CF91D8
:101480001F910895C03682E5D80718F5C03482E56B
:10149000D80708F06BC0C03282E5D80708F05FC0FB
:1014A000C11582E5D80708F497C02C2F26952695FC
:1014B00080E2289F900111248C2F8370C1E0D0E03E
:1014C00002C0CC0FDD1F8A95E2F7C22BD32BDD685B
:1014D000D4CFC03A82E5D80760F4C03882E5D80797
:1014E00008F459C0CF71D0E0DC2FCC27C46FD06A8C
:1014F000C4CFC03C82E5D80708F462C0C03E82E594
:10150000D80708F09CCFDC2FCC27CC27DF71C06F29
:10151000D06AB3CFC55AD0E0C05EDE4FC881D0E0FC
:10152000D064ABCFD065A9CF8D2F0E94EA08182FC9
:10153000CE0199270E943909C12FD0E0DC2FCC279A
:10154000CC27DF71C82BD92B98CFCE0199270E94C9
:101550003909CC27DF70C82BD92BD06A8ECFCF7139
:10156000D0E0DC2FCC27C16FD06A87CF2C2F2695F7
:101570002695277080E2289F900111248C2F83707C
:10158000C1E0D0E002C0CC0FDD1F8A95E2F7C22B8C
:10159000D32BDC6872CF2C2F26952695277080E2FE
:1015A000289F900111248C2F8370C1E0D0E002C0ED
:1015B000CC0FDD1F8A95E2F7C22BD32BDA685DCF03
:1015C0008C2F8F710E94EA08C82FD0E0DC2FCC2727
:1015D000CC27DF71D06251CF8C2F8F710E94EA0827
:1015E00055E0D695C7955A95E1F7CF70D0E0DC2F3E
:1015F000CC27282F30E084FF05C044E0220F331FA2
:101600004A95E1F7C22BD32BD06937CF8D2F8F713D
:101610000E94EA08182FCE0199270E943909C12F8C
:10162000D0E0DC2FCC27CC27DF71C82BD92BD2CF31
:1016300080959091DE0198239093DE01089580912A
:1016400026039091ED02981301C008958F5F877073
:10165000FACFB0E0A0E0EFE2FBE00C947F237C0146
:101660000091F0011091F1018091EE019091EF0154
:10167000082B192BCFE0D0E0CC24C394D12CBC2E66
:10168000C6010C2E02C0880F991F0A94E2F780232E
:101690009123892B49F4219790F7B12C8B2DCDB74D
:1016A000DEB7E9E00C949B23B7018C2F0E94DB0985
:1016B0000E94FA09019779F3F1CFCF93DF93EC0100
:1016C0000E94290BBE010E94DB090E94FA09DF91EA
:1016D000CF910895953078F58F3068F5E82FF0E0D8
:1016E0008FE0989FE00DF11D11249E2F977083E0ED
:1016F000F695E7958A95E1F7EE0FFF1FEE0FFF1FB6
:10170000EC55FE4F50E040E080E0219130E0092EA2
:1017100002C0369527950A94E2F721703327042EEC
:1017200001C0220F0A94EAF7822B4F5F5F4F4430CB
:10173000510559F7089580E00895953098F58F3058
:1017400088F5E82FF0E08FE0989FE00DF11D11245F
:101750008E2F877041E001C0440F8A95EAF783E03D
:10176000F695E7958A95E1F7EE0FFF1FEE0FFF1F45
:10177000EC55FE4F30E020E070E05191DF01119711
:10178000CB01022E02C0969587950A94E2F78170EC
:1017900081958527842385278C932F5F3F4F2430A5
:1017A000310559F708959093F1018093F001089560
:1017B00021E030E002C0220F331F8A95E2F7209526
:1017C00030958091F0019091F101822393230E9442
:1017D000D30B08959091D301809589238093D301F1
:1017E000282F277069F4891759F09091F30192FF1F
:1017F00007C08695869586950E94D80B1092D301D6
:10180000089521E030E002C0220F331F8A95E2F7ED
:101810008091F0019091F101822B932B0E94D30BC8
:1018200008959093EF018093EE010895FC012481C7
:101830002223C1F0808191810E945D0B92959F705F
:10184000963091F058F4925F9F70923058F4803F38
:1018500019F030F4883E30F481E008959A5FF4CFB7
:10186000843FD1F380E00895883EB0F3813FD1F703
:10187000F3CF662309F45DC08D3C41F40E941D0541
:1018800081958093CA020E94D40408958E3C19F475
:101890000E941D05F6CF8F3C31F40E941D058195F5
:1018A0008093C902F0CF803D19F40E941D05F8CF46
:1018B000893D29F40E94FB048093CB02E4CF8A3D4A
:1018C00021F40E94FB048195F7CF8B3D31F40E94F7
:1018D000FB0481958093CC02D6CF8C3D19F40E94F5
:1018E000FB04F8CF9FE2980F983070F4815D990B5C
:1018F00021E030E001C0220F8A95EAF78091C8020A
:10190000822B8093C802BFCF8D3D31F48091C202FB
:1019100081608093C202B7CF8E3D21F48091C202D4
:101920008260F7CF8F3D09F0AECF8091C202846014
:10193000F0CF4091C9028D3C59F48091CA0287FFD3
:101940000DC01092CA0241110BC01092C00208C013
:101950008E3C81F48091CA0218169CF3442381F0D6
:101960008091CB029091CC02892B09F08CCF109200
:10197000C10289CF8F3C49F447FFF0CF1092C902D2
:101980008091CA028111ECCFE0CF803D19F414168A
:10199000ACF3E4CF9091CB02893D29F41916F4F60B
:1019A0001092CB02DBCF8A3D19F497FFD7CFF8CF47
:1019B0009091CC028B3D29F497FFD0CF1092CC02AE
:1019C000CDCF8C3D19F41916CCF3C8CF9FE2980FF8
:1019D000983090F4815D990B21E030E0B90102C0AC
:1019E000660F771F8A95E2F7CB0180959091C80228
:1019F00089238093C802B2CF8D3D31F48091C20219
:101A00008E7F8093C202AACF8E3D21F48091C202C4
:101A10008D7FF7CF8F3D09F0A1CF8091C2028B7FE0
:101A2000F0CF81FD03C0479A81E008954798FCCF2D
:101A3000A6E0B0E0EEE1FDE00C94852326E0FC0199
:101A4000DE01119601900D922A95E1F7FC012581A6
:101A500089819A81222399F0662389F00E94290BBB
:101A6000182F682F89819A810E949D0B69817A8144
:101A7000812F0E94DB092696E3E00C94A1230E94AB
:101A80006A0B182FF3CF0F931F93CF93DF938B0124
:101A9000EA019091E302943061F58093E9008FEFC1
:101AA0009091E800815095FD06C095ED9A95F1F76B
:101AB00000008111F5CF8091E80085FF1AC00E94D7
:101AC0000B03811111C08091E80085FD06C0809153
:101AD000E8008E778093E800F2CFF80181918F01C2
:101AE0008093F100219779F78091E8008E778093B9
:101AF000E800DF91CF911F910F91089543E050E0EE
:101B0000BC0182E00E94430D089546E050E0BC0114
:101B100082E00E94430D0895CF93DF93EC0148E0EB
:101B200050E0BC0181E00E94430D88E0FE01A9ED78
:101B3000B2E001900D928A95E1F7DF91CF9108957F
:101B400081E08093E00080E28093D8001092C90089
:101B50008FE19EE40197F1F700C0000087E090EB71
:101B6000DC0180932A0390932B03A0932C03B09362
:101B70002D0388E19CE00FB6F894A895809360004F
:101B80000FBE90936000FFCF3EB13B7F2EB124602B
:101B90004FB7F89484E892E0FC015191CF0168E0DE
:101BA0002EB9000000C057FF3EB9550F000000C01D
:101BB00000C000C03EB900C06A9591F7F2E0803CD9
:101BC0009F0751F74FBF8FE594E00197F1F700C0F1
:101BD00000000895682F86E090E00E947D2408951B
:101BE00086E090E00E9459248093830282FD05C024
:101BF0008DE1809383020E94EA0D809183028032FE
:101C000020F0877088618093830290918302892FEE
:101C1000817090FF04C0892F8695869586950E94D5
:101C200058050895B0E0A0E0E8E1FEE00C947A23C6
:101C3000FC018280648081E08483E2EFF2E0949092
:101C4000E1E7F3E0E49100917E020695015810E08F
:101C5000000F111F012F1127C7E1D2E0D12CC12C99
:101C6000AA24AA94B12C77247A94E919EE2EF12CA7
:101C700082E0881530F080917C02888380917D021B
:101C8000898361101AC01B821A824A81493C08F07C
:101C900048EC9601698188810E9438078FEFC81A45
:101CA000D80A259684E1C816D10411F70E941006BF
:101CB000CDB7DEB7EEE00C9496238B818823E9F054
:101CC00081508B83879DC00111246C8170E00E943C
:101CD0003923FB01FF27EE50FD4F8491E82FE919CE
:101CE000E79DC0011124B7010E94392380917E0233
:101CF000689FB00111247A83C8CF0E942F24B501B8
:101D00000E944D23801791070CF0BFCF82E0881509
:101D100088F40E942F24B5010E944D2388830E94DD
:101D20002F2420917D022695622F70E00E944D2382
:101D3000280F29831A8280917E02893C20F088EC4A
:101D40008C838B83A2CF8431D8F784E1F9CF609163
:101D50007B026695669570E04BE050E08EE091E086
:101D60000E943F24892B19F481E0809314020E9481
:101D7000480490930E0280930D020895B0E0A0E015
:101D8000E4ECFEE00C947C2349015A016B017C01D8
:101D90000E9461068401A4016A2D7B2D88E090E0F9
:101DA0000E948F2494014A2D5B2DB601C70100E2E9
:101DB0000E94C823622F83E290E00E947D24CDB769
:101DC000DEB7ECE00C949823B0E0A0E0EAEEFEE091
:101DD0000C947B23082FF62E142FE22E90917B0279
:101DE00090FF32C0E92FE695E695AE2FB0E0A359FB
:101DF000BE4F8C91809313029C7F943051F5842FB9
:101E0000493C08F088EC602F7F2D0E947706962FC2
:101E1000672F482F892F0E94270600937C02F0929B
:101E20007D0210937E02EE2079F020917B0260917A
:101E30007F0270918002302F4F2D512F80918102AF
:101E4000909182020E94BE0ECDB7DEB7EDE00C94F9
:101E50009723823019F410917E02DFCF863019F477
:101E600000917C02DACF8930D9F38931B1F6E9519A
:101E70008E2F8170782EE695F0E0E351FD4FE491CE
:101E8000CE2FD0E0B12CA12CD12CC12C84E1882EF6
:101E9000912CC501B4010E943923802F711015C007
:101EA000860F412F193C08F048EC96016F2D0E94D7
:101EB00038078FEFC81AD80AAC0EBD1E84E1C816C9
:101EC000D10439F70E941006A8CF861BEACFEBE7B2
:101ED000F2E0438128E0421B08F440E021E0628107
:101EE00081810E94E40E0895EBE7F2E0438128E04F
:101EF000420F08F44FEF21E0628181810E94E40EDD
:101F00000895EBE7F2E0628128E0621B08F460E0EC
:101F100021E0438181810E94E40E0895EBE7F2E025
:101F2000628128E0620F08F46FEF21E04381818134
:101F30000E94E40E0895EBE7F2E0818121E0438105
:101F4000628188500E94E40E0895EBE7F2E08181FF
:101F500021E043816281885F0E94E40E08958091B0
:101F60007F02882319F0815080937F0220917B02A9
:101F700030917C0240917D0250917E0260917F02FF
:101F80007091800280918102909182020E94BE0E27
:101F9000089580917F02833018F48F5F80937F02D1
:101FA00020917B0230917C0240917D0250917E0213
:101FB00060917F02709180028091810290918202F3
:101FC0000E94BE0E089590917B0290FF35C09370E1
:101FD000811133C0946090937B02662391F020912D
:101FE0007B0230917C0240917D0250917E02609193
:101FF0007F027091800280918102909182020E9402
:10200000BE0E60917B026695669570E04BE050E0F5
:102010008EE091E00E943F24892BB9F010921402C7
:1020200081E08093100220E040917E0260917D0269
:1020300080917C020E94E40E08958B3210F0986A21
:10204000CACF880F880F982BC6CF0E94A70EE8CF63
:1020500080917B0286958695815009F48AE261E041
:102060000E94E30F089580917B02869586958F5F8D
:102070008B3208F081E061E00E94E30F08959091B7
:10208000F30192FB222720F9281779F080FB92F9BF
:102090009093F3016091F2017091F30184E090E07C
:1020A0000E949B2482E00E94EA0B08952091DE01A9
:1020B0008091D501282B8091D401882381F0282B91
:1020C00030E08CE991E0FC014191CF0141113F5F8B
:1020D000F1E0823A9F07B9F731111092D4012093B1
:1020E0009A0148E050E066ED71E08AE991E00E94D3
:1020F0004C24892BA9F088E0EAE9F1E0A6EDB1E0F3
:1021000001900D928A95E1F7E091CF02F091D00213
:10211000309731F00280F381E02D8AE991E0099552
:102120000895CF931092DE01C6E0ECE9F1E0DF0103
:102130008C2F1D928A95E9F790E080E00E94A2041E
:1021400090E080E00E947D041092D5010E9456101C
:10215000E7ECF2E0DF011D92CA95E9F71092C002A8
:102160001092C1021092C2020E94D404CF9108952D
:10217000AAE2B0E0EEEBF0E10C94852385EE92E06C
:102180002091F100FC012193CF01F2E08D3E9F07E9
:10219000B9F78091E602833009F470C0B8F4813059
:1021A00009F447C0823009F4B5C08091E80083FF8C
:1021B00089C28091E5029091E6029A3008F082C2CD
:1021C000E92FF0E0EA5EFA4D0C9461238A3009F4BD
:1021D00090C08B3009F46FC0893039F78091E502E7
:1021E000813219F78091E9029091EA020297E8F6AC
:1021F0008091E800877F8093E8008091E80082FF6B
:1022000038C09091F3008091F200029731F48091F0
:10221000F100813011F0863021F48091F10080933B
:102220001D018091E8008B778093E8000E943C03B9
:10223000BCCF8091E502813A09F0B7CF8091E800E8
:10224000877F8093E8008091E9029091EA02892BD0
:1022500061F468E089ED92E070E00E94E80380910B
:10226000E8008B778093E800A0CF60E090E080E00A
:10227000F3CF8091E3028111C0CF97CF8091E50227
:10228000813A09F092CF8091E9029091EA02892B7C
:1022900009F08BCF8091E800877F8093E8008091E0
:1022A000E80080FFFCCF80911E018093F1008091B7
:1022B000E8008E77B9CF8091E502813209F075CFC1
:1022C0008091E9029091EA02892B09F06ECF80910A
:1022D000E800877F8093E8000E943C0381E09091B2
:1022E000E702911101C080E080931E010E949110CD
:1022F0005CCF8091E502813209F057CF8091E800F0
:10230000877F8093E8000E943C038091E8028093DD
:102310001C014BCF8091E502813A09F046CF8091B4
:10232000E800877F8093E8008091E80080FFFCCF81
:1023300080911C01BACF803899F0823809F0C2C16F
:102340008091E9028F70873008F0BCC18093E9006A
:102350008091EB0085FB882780F91092E90006C088
:102360008091E1029091E202911182609091E800E7
:10237000977F9093E8008093F1001092F100809194
:10238000E8008E779BC1882309F489C1823009F067
:1023900099C18091E70281118CC18091E9028F700F
:1023A0002FEF280F263008F08DC18093E90020918F
:1023B000EB0020FF7EC1933031F48091EB0080620E
:1023C0008093EB0076C19091EB0090619093EB00CD
:1023D00021E030E001C0220F8A95EAF72093EA005D
:1023E0001092EA008091EB008860EACF81116AC107
:1023F0001091E7021F778091E3008078812B809312
:10240000E3008091E800877F8093E8000E943C030E
:102410008091E80080FFFCCF8091E300806880938A
:10242000E30082E0111183E08093E3024BC1805806
:10243000823008F047C18091E7029091E8028C3D1C
:1024400023E09207A1F583E08A838AE289834FB76C
:10245000F894DE01139620E03EE051E2E32FF0E035
:1024600050935700E49120FF03C0E295EF703F5F67
:10247000EF708E2F90E0EA30C0F0C7968D939D9359
:102480002F5F243159F74FBF8091E800877F8093F9
:10249000E8006AE270E0CE0101960E94E8038091B4
:1024A000E8008B778093E8000DC1C096E7CF40919C
:1024B000E9025091EA02292F33272330310509F42C
:1024C00044C078F52130310509F46FC08BE390E00A
:1024D000E1EBF4E02230310509F0F4C02091E8008E
:1024E000277F2093E8002091EB023091EC028217C5
:1024F000930708F49C0140E02115310509F064C000
:10250000411162C08091E80082FDC9CF8091E30251
:10251000882329F2853019F28091E80083FFF2CFF9
:10252000BECF21323105A9F12232310509F0CAC0EE
:102530004115510509F443C04130510509F0C2C0AD
:102540008BE790E0E2EFF3E0C9CF99278130910566
:10255000C1F0009759F0029709F0B4C0EEEFF4E033
:10256000E4918E2F90E0EEEFF4E007C0E2E2F5E0B8
:10257000E4918E2F90E0E2E2F5E0009709F4A2C02A
:10258000ADCFE4E1F5E0E4918E2F90E0E4E1F5E0F9
:10259000F4CF4115510571F04130510509F092C059
:1025A00089E090E0ECEDF4E099CF82E190E0ECEE90
:1025B000F4E094CF89E090E0E3ECF4E08FCF84E4A2
:1025C00090E0EDE6F4E08ACF8091E302882309F4FD
:1025D00066CF853009F463CF8091E80083FD5FCF3B
:1025E0008091E80082FD8ECF8091E80080FF84CF4B
:1025F0009091F3008091F2002115310519F0883097
:10260000910550F041E0089709F040E08091E80022
:102610008E778093E80070CF44914093F10031961B
:10262000215031090196E8CF803809F04BC08091E4
:10263000E800877F8093E8008091E4028093F100B6
:102640009ECE81113FC01091E7021230D8F58091E3
:10265000E800877F8093E8001093E4020E943C0327
:10266000112311F084E005C08091E30087FDFACFCB
:1026700081E08093E30242E061EC81E00E945B0331
:1026800042E261EC82E00E945B038091E3028430CD
:1026900021F081E080931F0115C082E0FBCF809183
:1026A000E702813079F481E0933009F080E0809393
:1026B000E2021092E9008091E800877F8093E800B1
:1026C0000E943C038091E80083FF0AC08091E800EB
:1026D000877F8093E8008091EB0080628093EB001D
:1026E000AA96E3E00C94A1230E9491102FEF84E3BB
:1026F0009CE0215080409040E1F700C0000088E15C
:102700009CE00FB6F894A895809360000FBE90935C
:102710006000FFCF882321F00E94180B0E94561002
:102720000895882339F09091DE01982B9093DE0173
:102730000E9456100895882309F456C0823879F40F
:102740000E94C70481FF50C089E30E9464040E9474
:10275000561089E30E9457040E945610089583384A
:1027600059F40E94C70480FF3FC083E50E946404BF
:102770000E94561083E5EECF843859F40E94C704B6
:1027800082FF32C087E40E9464040E94561087E4EE
:10279000E1CF9CEF980F913AE8F290E2980F9830D1
:1027A00050F4877091E001C0990F8A95EAF7892F5C
:1027B0000E94180BD1CF9BE5980F933028F490E03E
:1027C00080E00E94A204089598E5980F9B3128F4B8
:1027D00090E080E00E947D04089593E3980F933188
:1027E00018F460E00E94390C0895CF93C82F882315
:1027F000C9F08238C9F40E94C70481FD13C089E37F
:102800000E9464040E9456102FEF87EE93E021503F
:1028100080409040E1F700C0000089E30E94570427
:102820000E945610CF9108958338A1F40E94C704E6
:1028300080FDF8CF83E50E9464040E9456102FEFBC
:1028400081EE94E0215080409040E1F700C000000C
:1028500083E5E4CF8438A1F40E94C70482FDE2CF6F
:1028600087E40E9464040E9456102FEF81EE94E0EA
:10287000215080409040E1F700C0000087E4CECFB7
:102880008CEF8C0F813A70F4ECE9F1E082EA91E090
:102890002191C217E1F18E179F07D1F78C2F0E946B
:1028A0006404BECF80E28C0F883068F4C77021E0EA
:1028B00030E001C0220FCA95EAF78091DE01822B39
:1028C0008093DE01ADCFEBE5EC0FE33040F4F0E0B8
:1028D000E05EFE4F808190E00E94A204A3CFE8E575
:1028E000EC0FEB3150F4F0E0EE0FFF1FED5DFE4F0B
:1028F000808191810E947D0495CF83E38C0F833189
:1029000008F090CF61E08C2F0E94390C8BCF8C2F78
:102910000E9457040E945610C1CFEF92FF920F936E
:102920001F93CF93DF93C62FD42F022FFC018581F5
:102930008823A9F0609329030E94480490932803F8
:1029400080932703C77081E001C0880FCA95EAF71A
:102950000E949113CDB7DEB7E6E00C949E238091E0
:102960002903681337C0E0902703F09028030E94E2
:1029700048048E199F09883C910560F510E21D0FEF
:10298000CD17B9F080E28C0F883040F4C77081E039
:1029900001C0880FCA95EAF70E948A13183048F4DC
:1029A00081E09D2F977001C0880F9A95EAF70E94E9
:1029B0009113802F0E94F513802F0E949B131830D3
:1029C00048F6D77081E001C0880FDA95EAF70E94D7
:1029D0008A13C0CFC77081E001C0880FCA95EAF79B
:1029E000F6CFB0E0A0E0E7EFF4E10C947E237C01A9
:1029F000FC018481882309F471C061E0C7010E9451
:102A0000180DEC01F7019581992309F4CEC4C23069
:102A1000F8E7DF0709F499C060F5C11538E7D30777
:102A200009F446C0C13088E7D80709F45CC0FE014C
:102A3000E851FC47E730F10508F4BDC410922903C2
:102A40009E0130572332310508F082C484E090E0C3
:102A50000E9467249093F3018093F201FE01E150FC
:102A6000F047E232F10508F0A9C0E05EFA4D0C949F
:102A70006123C430E8E7DE0709F453C0B0F1C53084
:102A800028E7D207A1F690918302892F8695869533
:102A900086958F5F8F719770843008F06EC0880FB5
:102AA000880F880F892B809383028091830225C031
:102AB00083E00E94F905809183020E94EA0D8091D3
:102AC000D301877059F0F7018581882339F080910F
:102AD000F30182FF03C082E00E94EA0BCDB7DEB7AC
:102AE000EAE00C949A2380E0E4CF80918302982F4F
:102AF000987F79F0885080938302887F91E009F471
:102B000090E08091830290FB80F9809383020E9481
:102B1000EA0D809183028695869586950E945805D8
:102B2000CECF80918302982F969596959695933067
:102B300040F49F5F990F990F990F8770892B8093AD
:102B40008302809183028160E0CF8091830280FFC5
:102B500007C08E7F809383020E94EA0D80E0DECF63
:102B600080FDADCF816080938302813019F489E0CC
:102B70008093830280918302CACF9093830295CF82
:102B800026E241EE61EEC7010E948D1498CF27E244
:102B900045EE65EEF8CF26E241EE60EEF4CF27E297
:102BA00045EE64EEF0CF26E241EE62EEECCF27E296
:102BB00045EE66EEE8CF28E241E0EBCF8091F201EE
:102BC00081608093F20195C08091F30188608093C9
:102BD000F3018FC08091F2018260F3CF8091F20106
:102BE0008460EFCF8091F2018860EBCF8091F30198
:102BF0008160EDCF8091F3018260E9CF8091F20195
:102C00008061DFCF8091F2018062DBCF8091F201A1
:102C10008064D7CF0E9491108091F2018068D1CF5B
:102C20008091F2018C60CDCF8091F3018360CFCF92
:102C30008091F2018E7FC5CF8091F301877FC7CF4E
:102C40008091F2018D7FBDCF8091F2018B7FB9CF52
:102C50008091F201877FB5CF8091F3018E7FB7CF4E
:102C60008091F3018D7FB3CF8091F2018F7EA9CF48
:102C70008091F2018F7DA5CF8091F2018F7BA1CF52
:102C80000E9491108091F2018F779BCF8091F20189
:102C9000837F97CF8091F3018C7F99CF8091F20150
:102CA00082FB992790F921E0922790FB82F990FB13
:102CB00083F987CF8091F301982F909591708E7F43
:102CC000892B90FB81F983CF9091F201892F8F7B23
:102CD00096FF806476CF0E9491109091F201892F27
:102CE00097FB87F980586DCF61E08EE090E00E94FD
:102CF0007D246091F2017091F30184E090E00E94E4
:102D00009B240E949110DBCE60E0EFCF9091F20106
:102D1000892F8F7E94FF806154CF9091F201892F8B
:102D20008E7F90FF81604DCF9091F301892F877F37
:102D300093FF88604CCF85E31AC385E327C3809156
:102D40007B0280FF19C0282F2E7F20937B023091B9
:102D50007C0240917D0250917E0260917F027091D1
:102D6000800280918102909182020E94BE0E109298
:102D700014020E941006A3CE816080937B0261E062
:102D8000869586950E94E30F9ACE882329F00E94AB
:102D9000281095CE8823D9F30E94331090CE882333
:102DA00029F00E949B0F8BCE8823D9F30E94A50F98
:102DB00086CE882329F00E94810F81CE8823D9F303
:102DC0000E948E0F7CCE882329F00E94670F77CE59
:102DD0008823D9F30E94740F72CE882329F00E94B1
:102DE000AF0F6DCE8823D9F30E94C90F68CE9E0124
:102DF000205E324520323105A8F4911115C0CF7103
:102E000081E090E0FC0102C0EE0FFF1FCA95E2F7DF
:102E1000EF016E2F83E090E00E947D24CE010E949E
:102E2000110C4DCE992381F0C330FCE7DF0709F484
:102E300077C008F05AC0C1153CE7D30709F463C056
:102E4000C130DC4709F472C0F7018581C081D181AE
:102E5000882309F479C0CE010E94290B182F682F0E
:102E6000CE010E949D0BBE01812F0E94DB090E94B2
:102E7000FA09D82FC92FA82EF701C580B680B294C1
:102E80009FE0B9228091D301877001F10C2DCC20F5
:102E9000F1F08C2F807F803469F080E28D0F8830D4
:102EA000A8F08C2F807E803229F4F1E0FD1770F4B9
:102EB000BB2061F08091F30182FF08C082E00E9494
:102EC000EA0B8091D301877001E009F000E0DC2E6D
:102ED000D2948FE0D8222BE02D1508F495C0ED2D6B
:102EE000F0E0EE5BFA4D0C946123CB359CE7D907FB
:102EF00049F1CC35ECE7DE07D9F0CA35DC4709F0FB
:102F0000A3CF81E01CC00E9491102FEF34E38CE02E
:102F1000215030408040E1F700C000000E94A00D29
:102F20006FEF7FEF90E080E00E949B240E9474137B
:102F30008091F30182FB882780F991E089270E9424
:102F40003F1082CF80E0FBCFCE010E946A0B182F8A
:102F50008ACF1C2F1F70C07F11F01295107FCC20DC
:102F6000B9F0112369F080E28D0F883010F0A110C4
:102F700009C08091DE01182B1093DE010E945610CB
:102F80008D2F40C08091D501182B1093D501F6CF1D
:102F90008D2F0E949B131123B9F1D05ED83010F011
:102FA000A11004C0812F0E94180B06C010958091BB
:102FB000D50118231093D5010E94561025C01C2F4F
:102FC0001F70C07FC03211F01295107FAA2051F0FF
:102FD00031E0A31609F45CC0CC2009F468C0BB2022
:102FE00061F1CECF8091F30182FD23C0CC20D9F0D6
:102FF000112339F08091DE01182B1093DE010E941D
:10300000561080E00E94F513ED2DE850FF0B349729
:1030100008F085C10E94C7040E94110D60E0C7013D
:103020000E94180D5BCD80E00E949B13112361F379
:10303000B9CFCC2099F0B11004C0812F0E94911318
:10304000E3CF81E0B812E0CF8091D401912F982393
:103050001917D1F2182B1093D401D6CFB110D4CFB9
:10306000812F0E948A139091D401812F892329F006
:10307000812F809589238093D4018091A301912F82
:10308000982309F4C1CF109518231093A301BCCF46
:10309000CC2029F095E09B1508F4B6CFCECFE4E024
:1030A000EB1508F4B1CF812F0E948A13ADCFBB205E
:1030B000D1F3F9E3AF122CC12FEF37EE83E02150AB
:1030C00030408040E1F700C0000022C18C2F86957F
:1030D0008695837069F0813009F096CF8D2F9C2FF3
:1030E0009370C11002C080E090E00E947D048CCFFC
:1030F0008D2F9C2F9370C11002C080E090E00E9441
:10310000A20482CF6C2D8D2F0E94390C7DCF8C2F85
:10311000837009F03FC0C11077CF4D2F429546957F
:103120004770440F440F2D2F2F7030E0042E02C043
:10313000220F331F0A94E2F790E080E0D4FF09C029
:103140008FE090E002C0880F991F4A95E2F78095C2
:103150009095C695C695C370C23099F078F44091A9
:10316000EE015091EF01C13039F0822B932B842373
:1031700095230E94110C48CF242B352B822B932BA7
:10318000F8CF822B932B2091EE013091EF01822713
:103190009327EFCF8695CC2011F08C2F8170882358
:1031A00009F432CF4D2F429546954770440F440F96
:1031B0002D2F2F7030E0042E02C0220F331F0A94EF
:1031C000E2F790E080E0D4FF09C08FE090E002C019
:1031D000880F991F4A95E2F780959095C695C695F8
:1031E000C370C23099F078F44091F0015091F10130
:1031F000C13039F0822B932B842395230E94D30B6B
:1032000003CF242B352B822B932BF8CF822B932BA0
:103210002091F0013091F10182279327EFCFCF70F9
:10322000CC2029F08C2F0E94010C8D2F07CF8D2FE1
:103230000E948A138C2F0E94D80BE6CE8D2F92EF1E
:10324000A91699F19A1570F0E0EFAE16D1F0F1EFF2
:10325000AF1691F0CC2009F456C0B11091CE8C2F4E
:103260008F7127C023EFA21639F134EFA312F2CFEA
:103270009091F30192FD2EC08C2F8F71CC20D9F24A
:1032800018C0CC2069F084E08B1508F4BDCECF7156
:1032900081E090E002C0880F991FCA95E2F7B8CF8D
:1032A00095E09B1508F4B0CEF2CF8C2F8F71C11032
:1032B000C2CF0E94010CA8CE90E080E0CC2009F49F
:1032C0009DCFCF7181E090E002C0880F991FCA9511
:1032D000E2F794CFCC2061F08C2F8F7192FFE9CF71
:1032E000E8E08E9F9001112423602093D301E1CF69
:1032F00081E00E94EA0BF1E0FB1508F085CE82E048
:103300000E94EA0B81CEBB2039F0893309F4D4CE78
:103310008D2F0E949B1378CE8C2F8F718CCF002322
:1033200009F47CCE8091D30180FD78CEF70115821F
:103330008695869586950E94010CC7010E94F1141E
:103340008091D3018695869586950E94D80B66CE8E
:103350008091DE01C631FCE7DF07D9F48A7A91E07B
:1033600009F490E09093A2018111E5CC89E20E94DA
:1033700064040E945610A3CBC6312CE7D20709F093
:1033800036CD8091A2018111D8CC89E20E945704E8
:10339000F0CF8272FE01E052F847EB30F10508F001
:1033A00026CDE25BFA4D0C946123FE01E851FC4707
:1033B000E730F10508F7E75AFA4D0C946123CF93F3
:1033C000DF938091D201807F09F04DC08091D101BF
:1033D000882309F448C0E09126035091ED02C09182
:1033E000CD01D091CC016091CE017091CF0147E029
:1033F0005E17C9F18E2F90E0E49FF0011124E25195
:10340000FD4F2481222391F1489FF001499FF00D47
:103410001124DF01A251BD4F11962C9111972C134D
:1034200025C02C912D1322C015962C911597211192
:103430001DC012962D913C91261B370B283C31055F
:10344000A8F48091D2018F7080618093D201EC50FA
:10345000FD4F80818F70806180838CEC91E00E94B1
:10346000F1140E941F0BDF91CF910895FC0131965A
:10347000E770BECFA4E1B0E0E0E4FAE10C947C2375
:103480008C0186E0F801DE011F9601900D928A956D
:10349000E1F7F8018481E5809CECA92E91E0B92E3A
:1034A0009091D001911128C0882319F1EE20F1F0FC
:1034B000C8010E94160CF82E8823C1F087E0F8019D
:1034C000D50101900D928A95E1F78091D00181306C
:1034D00031F48091CC019091CD010E945D0B0E944E
:1034E000DF198F2D6496ECE00C949823C8010E949C
:1034F000F114FF24F394F5CFD080C18082809380B3
:10350000F090D1012091CE013091CF01A401421B56
:10351000530BFF2009F4D9C0483C510508F092C074
:103520008823F9F29091CD018091D201282F207F3C
:1035300009F056C0C91214C09091CC01D91210C024
:10354000E11048C08F7080618093D2018CEC91E0D3
:103550000E94F1148091D201F8018683F12CC1CF31
:10356000E11038C06C2D8D2D0E94CD026C2D8D2D5B
:103570000E94CD02E82E8111F1CFDF86C88A8F85A7
:1035800098890E945D0B292F22952F70243058F4C2
:103590009F70223088F0992399F0F8019681907FEE
:1035A00079F4FE2C9ECF2A5F2F70223068F0C8017C
:1035B0000E94F114EF2CF5CF992311F0882389F3A1
:1035C000805E883070F3F3CF803F58F3815F8330A3
:1035D00070F7E7CF8091D20181608093D201BECF96
:1035E000C91207C09091CC01D91203C0EE2009F492
:1035F0008DC0C8010E94160C882309F477CFEE20F5
:1036000009F474CF8091D201803288F02091CC01EE
:103610003091CD01398728879B868A869091D00189
:103620009C871D868E87CE0108960E94F11487E044
:10363000F801ACECB1E001900D928A95E1F70E949F
:10364000DF1957CF9091D201292F207F51F48CECB4
:1036500091E00E94F11487E0F50111928A95E9F753
:103660007DCF882309F43DCF8091CD018C1110C00E
:103670008091CC01D8120CC0E1100AC09683C80119
:103680000E94F11487E0F50111928A95E9F729CF9C
:10369000C8010E94160C882309F428CFEE2009F4F3
:1036A00025CF8091D201803210F22091CC0130914F
:1036B000CD013A8329839C828B829091D0019D8396
:1036C0001E828F83CE010196B0CF483C5105D0F6C3
:1036D000882309F40ECFFE2CEE2009F407CF809149
:1036E000CD018C1120C08091CC01D8121CC08091DA
:1036F000D20180FD0FC0982F907F61F08683903FAC
:1037000031F0982F907F905F8F70892B8683C8014E
:103710000E94F11487E0F801ACECB1E001900D9249
:103720008A95E1F7DECEC8010E94160C81117FCF89
:103730008091D20181608093D201C8010E94F1146E
:10374000D0CEABE1B0E0E7EAFBE10C9485234E8BF1
:103750005F8B688F798F8A8F9B8F91111092D50123
:103760001D8A86E0FE017696DE011F9601900D927D
:103770008A95E1F78B89882351F061E0CE010F969D
:103780000E94180D61E0CE010F960E94180D87E08F
:10379000FE013F96DE01189601900D928A95E1F7A1
:1037A000CE0108960E943A1A81112AC087E0FE01D4
:1037B0003896DE01119601900D928A95E1F78C857D
:1037C0008823F1F02091ED0230E0C9010196877065
:1037D00099274091260348171906E9F097E0929F30
:1037E000D001939FB00D1124A251BD4FFE0131961F
:1037F00001900D929A95E1F78093ED020E941F0BC4
:1038000017E0809126039091ED02891312C06B9608
:10381000E3E00C94A1230E9491101092ED0210920B
:10382000260387E0ECECF1E0DF011D928A95E9F7D1
:10383000E7CF819FC001112482519D4F0E943A1A07
:10384000882329F38091260390E0019687709927B9
:1038500080932603D6CFA6E0B0E0E1E3FCE10C9430
:1038600084230E9448048C018091DF019091E00143
:103870008017910781F019821A820E944804682FEC
:1038800049815A81792F80E090E00E94A11B10931A
:10389000E0010093DF012696E4E00C94A0234F9210
:1038A0005F927F928F929F92AF92BF92CF92DF9260
:1038B000EF92FF920F931F93CF93DF93CDB7DEB7B5
:1038C0002A970FB6F894DEBF0FBECDBF8E010F5FF3
:1038D0001F4F8AE0F80111928A95E9F729E5E22E57
:1038E00021E0F22E38E6832E31E0932ECC24C394CF
:1038F000D12CAA24A394B12CF70181917F018F3F91
:1039000009F44FC0F894E82FE295EF70F0E021A1A0
:103910008F70A50102C0440F551F8A95E2F7CA01B6
:10392000922F982B91A392A18095892382A37894BA
:1039300000C098E6492E91E0592ED801B601609555
:103940007095F20171902F018D919D91AD014250C2
:103950005109FFEF7F1609F45CC0272D22952F70C7
:1039600030E0F90120A130E0F72DFF7002C035955D
:103970002795FA95E2F720FD4CC08C299D29FA0184
:1039800091838083FDE64F16F1E05F06D1F6F701E3
:10399000319780818F3F11F00E94D30820EA2A9549
:1039A000F1F7CC0CDD1C8E149F0409F0A5CF4AE082
:1039B00050E0B80184EE91E00E944C24892B71F113
:1039C0008AE0F801A4EEB1E001900D928A95E1F74A
:1039D00081E08093E3010E9448049093E201809388
:1039E000E10110E0812F2A960FB6F894DEBF0FBEDA
:1039F000CDBFDF91CF911F910F91FF90EF90DF909E
:103A0000CF90BF90AF909F908F907F905F904F909E
:103A1000089586239723B3CF10E021C01091E301CE
:103A20001123F9F2E090E101F090E2010E944804D4
:103A30008E199F090597A8F24AE050E064EE71E004
:103A400087EF91E00E944C24892B31F38AE0E4EE69
:103A5000F1E0A7EFB1E001900D928A95E1F71092A5
:103A6000E301C0CF1F920F920FB60F9211242F9334
:103A70003F934F935F936F937F938F939F93AF93F6
:103A8000BF93CF93DF93EF93FF93D091E900DF7063
:103A90008091EC00C82FC17080FDC0E81092E90051
:103AA0008091F000877F8093F00078940E94B81096
:103AB0001092E9008091F00088608093F000CD2B97
:103AC000CF70C093E900FF91EF91DF91CF91BF914B
:103AD000AF919F918F917F916F915F914F913F91A6
:103AE0002F910F900FBE0F901F9018951F920F925D
:103AF0000FB60F9211242F933F934F935F936F93C1
:103B00007F938F939F93AF93BF93EF93FF93809196
:103B1000E10082FF09C08091E20082FF05C0809130
:103B2000E1008B7F8093E1008091DA0080FF24C068
:103B30008091D80080FF20C08091DA008E7F809332
:103B4000DA008091D90080FFAAC080E189BD82E1BE
:103B500089BD09B400FEFDCF81E08093E30280912E
:103B6000D802811109C00E94EC020E948D0380914D
:103B7000E20084608093E2008091E10080FF1AC03F
:103B80008091E20080FF16C08091E2008E7F8093DA
:103B9000E2008091E20080618093E2008091D80091
:103BA00080628093D80019BC85E08093E30283E0B3
:103BB00080931F018091E10084FF30C08091E2007A
:103BC00084FF2CC080E189BD82E189BD99B5892F30
:103BD000817090FFFBCF9091D8009F7D9093D8008B
:103BE0009091E1009F7E9093E1009091E2009F7E92
:103BF0009093E2009091E20091609093E2009091A6
:103C0000E402992309F451C094E09093E302909167
:103C1000E302943009F482E080931F018091E10077
:103C200083FF2CC08091E20083FF28C08091E100D7
:103C3000877F8093E10082E08093E3021092E402A8
:103C40008091E1008E7F8093E1008091E2008E7F81
:103C50008093E2008091E20080618093E20042E084
:103C600060E080E00E945B038091F00088608093B8
:103C7000F00081E080931F0180931E01FF91EF917E
:103C8000BF91AF919F918F917F916F915F914F9174
:103C90003F912F910F900FBE0F901F90189519BC58
:103CA0001092E3021092D80267CF9091E30097FD43
:103CB00002C0982FAACF93E0A8CF78941F921FB686
:103CC0001F9211248F939F93AF93BF938091D4023F
:103CD0009091D502A091D602B091D7020196A11D74
:103CE000B11D8093D4029093D502A093D602B093D5
:103CF000D702BF91AF919F918F911F901FBE1F90D0
:103D000018951F921FB61F9211248F939F93AF9304
:103D1000BF938091D302811113C08091D4029091FE
:103D2000D502A091D602B091D7024196A11DB11D36
:103D30008093D4029093D502A093D602B093D70279
:103D4000BF91AF919F918F911F901FBE1F901895AB
:103D5000CDB7DEB72E970FB6F894DEBF0FBECDBF3E
:103D600085B7806885BF85B7806885BF84B7877F42
:103D700084BF0FB6F894A895809160008861809305
:103D80006000109260000FBE80E890E00FB6F894DB
:103D900080936100909361000FBE81E080931F01CA
:103DA00081ED98E090939901809398010E94EC0234
:103DB0000E948D038091E20084608093E2007894F9
:103DC0008091E3028823A1F01091E9001F70909187
:103DD000EC00892F817090FD80E8182B1092E9008B
:103DE0008091E80083FD0E94B8101F701093E900D5
:103DF00082E084BD93E095BD9AEF97BD80936E00FD
:103E000009E511E0D8018D918D018F3F11F00E94DD
:103E1000D308B1E008361B07A9F708E611E09DE6D4
:103E2000E92E91E0F92EF80181918F018F3F11F079
:103E30000E94D308E016F106B1F78AE0E7EFF1E05F
:103E4000DF01282F1D922A95E9F7E4EEF1E0DF016A
:103E50001D928A95E9F790E080E00E946724853EF4
:103E60009E4F09F461C065EE7EEF90E080E00E9415
:103E70009B2460E082E090E00E947D2481E090E05D
:103E80009093EF018093EE0161E083E090E00E9467
:103E90007D2460E074E184E090E00E949B2460E077
:103EA00086E090E00E947D2460E087E090E00E9440
:103EB0007D2440E050E0BA0188E090E00E948F2429
:103EC00060E083E290E00E947D2460E08CE090E07E
:103ED0000E947D2460E08DE090E00E947D241982A4
:103EE0001A821B821C821D821E821F82188648E055
:103EF00050E067E170E0CE0101960E946D2440E041
:103F000050E0BA018FE190E00E948F2440E050E041
:103F1000BA018FE090E00E948F2440E050E0BA01A7
:103F200083E190E00E948F2482E090E00E94592477
:103F30008093010284E090E00E9467249093F30153
:103F40008093F2010E944F1CEFEFF6E721E0E15071
:103F5000F0402040E1F700C000000E944F1C80911B
:103F6000F70180FF08C06FEF7FEF90E080E00E94D4
:103F70009B240E94A00D83E090E00E94592490E0D1
:103F80000E94110C3F9A479A269A2E9882E28093BB
:103F9000800089E1809381008FEF9FEF90938700ED
:103FA000809386000E94F00D0E94F00D8091F40134
:103FB000811181C088E090E00E9461244B015C0186
:103FC00083E290E00E945924282F30E040E050E046
:103FD00060E070E080E090E000E20E94AD232829DC
:103FE00039294A295B2920937B0230937C02409334
:103FF0007D0250937E0260937F02709380028093D3
:104000008102909382022C7F09F043C025E0209327
:104010007B0210927C022FEF20937D0222E32093FB
:104020007E0210927F0225E030E04FEF52E360E025
:104030000E94BE0E88E090E00E9461246B017C012A
:1040400083E290E00E945924282F30E040E050E0C5
:1040500060E070E080E090E00E94AD23B22FA32FDB
:10406000F42FE52F5B0197018601BC29A12BFE29C6
:10407000E32BB0937B02A0937C02F0937D02E0934C
:104080007E0260937F02B0928002809381029093BF
:1040900082020E946106109214020E9456058091CD
:1040A0007B0280FF05C060E0869586950E94E30F45
:1040B00081E08093F40184E091E09093D0028093BA
:1040C000CF0288E1682E712C552453942224239426
:1040D0008091E3028530F9F48091E302853009F4A0
:1040E00079C00E9491100E94F00D0E94C7040E94A6
:1040F000110D1092F6018091F501882351F0809105
:104100007B02816080937B0260E0869586950E94A9
:10411000E30F0E94A70E0E944F1C12E0A12E12E096
:10412000B12E07EF802E01E0902ED401F5012191F0
:1041300031918D919D9142E0EC30F40709F498C0E3
:1041400028173907A1F3412CD4010D911D914D0180
:10415000F501C190D1905F01C016D10659F1312C03
:10416000EE24E394F12CC026D126C6018E219F2196
:10417000892BB1F039864A860E9448049C878B8738
:104180002D8691E098012E213F21232B09F490E008
:104190009E8749855A856B857C858D850E94A11BEC
:1041A0003394EE0CFF1CFFE03F12DFCFF501329796
:1041B00011830083439425E04212C6CF8FB7F89451
:1041C0004091D4025091D5026091D6027091D702ED
:1041D0008FBF54C08091E302843009F43BC080E07B
:1041E0000E94F90580E00E94110D10921402809146
:1041F000F60181110DC05092F60180917B02982F3B
:1042000091709093F5018E7F80937B020E9410063F
:104210001092D30240E40FB6F894A8956092600023
:104220000FBE4093600083B7817F846083BF83B7F4
:10423000816083BF7894889583B78E7F83BF0FB6E4
:10424000F894A89580916000886180936000109236
:1042500060000FBE0E944F1CE7EFF1E08191919149
:10426000892B09F0B0C182E0E130F807B9F734CF0B
:104270002817390709F067CF0E942B1C8091140280
:104280008823D9F180911302E0917B02E695E695AF
:10429000E81BE0930F02823009F01DC1F0E0E75106
:1042A000FE4FE4910E2F10E0F4E2EF2EF7E0FF2E28
:1042B00080911002882361F0109210020E9448043D
:1042C00090930E0280930D0210921202109211022E
:1042D0000E944804E0910D02F0910E028E1B9F0B8C
:1042E0008F3F9F4750F4E00FF11FF0930E02E093D1
:1042F0000D028DE092E0F701099586E0E7ECF2E02F
:10430000DE01119601900D928A95E1F7B090C802F6
:10431000E090C902D090CA02C090CB02F090CC02CB
:104320001092C9021092CA021092CB021092CC02D3
:104330008E2D8D2909F447C00091C5021091C60247
:104340000E9448049C01201B310B9091C0029923CC
:1043500009F460C125313105B0F19F3F19F09F5F2D
:104360009093C002EE2059F00E941D059FEF1E148D
:104370000CF491E0899F802D11248093C902DD20E7
:1043800059F00E941D0591E01D140CF09FEF899FCC
:10439000802D11248093CA028091C902882399F04C
:1043A0001091CA02112379F00E943D05882309F477
:1043B000FEC08093C902812F0E943D05882309F425
:1043C000F9C08093CA028C2D8F2909F447C000914F
:1043D000C3021091C4020E9448049C01201B310BAF
:1043E0009091C102992309F410C121353105B0F132
:1043F0009F3F19F09F5F9093C102CC2059F00E941B
:10440000FB049FEF1C140CF491E0899F802D112474
:104410008093CB02FF2059F00E94FB0491E01F140F
:104420000CF09FEF899F802D11248093CC02809106
:10443000CB02882399F01091CC02112379F00E94CD
:104440003D05882309F4B9C08093CB02812F0E94D7
:104450003D05882309F4B4C08093CC028091C80242
:104460008B1117C08091C902882311F0E81211C086
:104470002091CA02222311F02D110BC09091CC0281
:10448000992311F0F91205C03091CB02332309F4BE
:10449000B7C00E94D40486E0FE013196A7ECB2E0DA
:1044A00001900D928A95E1F70E94C70490910C0249
:1044B000891709F40DCE80930C029FB7F8944091B0
:1044C000D4025091D5026091D6027091D7029FBF5D
:1044D0000E94110DFDCD863059F4F0E0EA51FE4FF7
:1044E000E4910E2F10E0E4E1EE2EE7E0FE2EE0CEA8
:1044F000893061F4E695F0E0ED51FE4FE4910E2F26
:1045000010E076EAE72E78E0F72ED2CE8F3061F415
:10451000E695F0E0E052FE4FE4910E2F10E062E4E9
:10452000E62E68E0F62EC4CE853159F4F0E0E35271
:10453000FE4FE4910E2F10E053EFE52E57E0F52EDD
:10454000B7CE08E210E028E7E22E27E0F22E88310D
:1045500009F4AECE833249F4EBEDF1E0059114910C
:1045600046E4E42E46E0F42EA3CE04EF11E097E4F7
:10457000E92E97E0F92E843209F49ACE853281F43F
:104580008E2F63E00E941F23E92FF0E0E852FE4FD8
:10459000E4910E2F10E032E1E32E3EE0F32E88CEC0
:1045A00000ED17E086E4E82E84E0F82E81CE5092EC
:1045B000C90201CF5092CA0206CF5092CB0246CF19
:1045C0005092CC024BCF8091E202882309F484CD33
:1045D00090E199BDA2E1A9BD09B400FEFDCF809193
:1045E000D8008F7D8093D8008091E0008260809316
:1045F000E0008091E00081FDFCCF0E9491106CCD25
:10460000822B892B09F447CF44CF2B30310508F09A
:10461000F1CE24CF2B30310508F0A1CED4CEDB0172
:104620008F939F930E94D024BF91AF91A29F800D42
:10463000911DA39F900DB29F900D11240895991B79
:1046400079E004C0991F961708F0961B881F7A9589
:10465000C9F78095089587FB082E062687FD81956A
:1046600067FD61950E941F230EF4919507FC8195CB
:104670000895AA1BBB1B51E107C0AA1FBB1FA617A9
:10468000B70710F0A61BB70B881F991F5A95A9F7FB
:1046900080959095BC01CD01089597FB072E16F4E7
:1046A000009407D077FD09D00E94392307FC05D07C
:1046B0003EF4909581959F4F0895709561957F4F39
:1046C0000895EE0FFF1F0590F491E02D09940E94CC
:1046D0000525332312F48A1B9B0B0C9471230E9433
:1046E0000525B7FF0895821B930B08952F923F92E3
:1046F0004F925F926F927F928F929F92AF92BF92F2
:10470000CF92DF92EF92FF920F931F93CF93DF939D
:10471000CDB7DEB7CA1BDB0B0FB6F894DEBF0FBEFA
:10472000CDBF09942A88398848885F846E847D8447
:104730008C849B84AA84B984C884DF80EE80FD8049
:104740000C811B81AA81B981CE0FD11D0FB6F894BF
:10475000DEBF0FBECDBFED010895002E083090F0F2
:10476000982F872F762F652F542F432F322F2227F4
:104770000850F4CF220F331F441F551F661F771FA9
:10478000881F991F0A95B2F7002D089597FD109480
:10479000002E083098F00850232F342F452F562F25
:1047A000672F782F892F912DF4CF159497958795A2
:1047B0007795679557954795379527950A95AAF761
:1047C0001124002D08958F929F92AF92BF92CF92A5
:1047D000DF92EF92FF92CF93DF93EC0168817981B2
:1047E0008A819B81611571058105910521F464E23F
:1047F00079ED8BE597E02DE133EF41E050E00E9449
:10480000B12449015A019B01AC01A7EAB1E40E941D
:10481000D0246B017C01ACEEB4EFA50194010E94A1
:10482000DE24DC01CB018C0D9D1DAE1DBF1DB7FF2D
:1048300003C00197A109B04888839983AA83BB83E9
:104840009F77DF91CF91FF90EF90DF90CF90BF9057
:10485000AF909F908F9008950E94E323089580E089
:1048600091E00E94E3230895B0E0A0E0809300016E
:1048700090930101A0930201B09303010895FC01FC
:104880004150504030F001900616D1F73197CF01DA
:104890000895882799270895FB01DC0104C08D91B4
:1048A0000190801921F441505040C8F7881B990BA2
:1048B0000895F999FECF92BD81BDF89A992780B5E8
:1048C0000895A6E1B0E044E050E00C94A324A8E1F0
:1048D000B0E042E050E00C94A324DC01A40FB51F2B
:1048E0004150504048F0CB01840F951F2E910E94FB
:1048F0007E2441505040D0F70895262FF999FECFDD
:1049000092BD81BDF89A019700B4021639F01FBA22
:1049100020BD0FB6F894FA9AF99A0FBE089503963F
:10492000272F0E947E240E947D24252F0E947E2412
:10493000242F0C947E240196272F0E947E240C9411
:104940007D24DC01CB01FC01F999FECF06C0F2BD4C
:10495000E1BDF89A319600B40D9241505040B8F73D
:104960000895052E97FB1EF400940E94C82457FD5D
:1049700007D00E94E32407FC03D04EF40C94C82413
:1049800050954095309521953F4F4F4F5F4F08957B
:1049900090958095709561957F4F8F4F9F4F0895AB
:1049A0000E940525A59F900DB49F900DA49F800D9A
:1049B000911D11240895B7FF0C94D0240E94D02497
:1049C000821B930B0895A1E21A2EAA1BBB1BFD01AB
:1049D0000DC0AA1FBB1FEE1FFF1FA217B307E407DE
:1049E000F50720F0A21BB30BE40BF50B661F771F36
:1049F000881F991F1A9469F7609570958095909516
:104A00009B01AC01BD01CF010895A29FB001B39FEE
:104A1000C001A39F700D811D1124911DB29F700DC7
:104A2000811D1124911D0895F894FFCF9B11C3118E
:104A30006213C3116213F6111712621314132113B8
:104A400018168D162016EA15EE152416F2152816DE
:104A50003416FE1586160216381606163C1664160F
:104A60000A1640166B16101646164E16F6152C161C
:104A7000FA15301614164A165A1674168416E415CA
:104A80001C169416A917A917DF17DF1766188218C6
:104A90000418041887180F191E191E199F16C51619
:104AA000CA16CF16D416D916DE16E316E816ED167A
:104AB000F216CB15CF15C015C715D315D715DB15B5
:104AC0000100000054048C0D4704850D7E0D011972
:104AD0001A1B1C1D1E1F20212201020100000100C3
:104AE000818283E200E900EA00B500B600B700CD9C
:104AF000008301CC008A0192019401210223022447
:104B0000022502260227022A02B300B4006F0070B9
:104B1000009F01CB019F02A00290919293959496E1
:104B20009734F7F6F5F4F1F0303132333700010203
:104B30000202020606060909090909090F0F0F0FEB
:104B40000F0F1515151819191919191919191919F6
:084B5000232425252525252538
:00000001FF
